{
  "contractName": "CoFiXV2Pair",
  "abi": [
    {
      "inputs": [],
      "stateMutability": "nonpayable",
      "type": "constructor"
    },
    {
      "anonymous": false,
      "inputs": [
        {
          "indexed": true,
          "internalType": "address",
          "name": "owner",
          "type": "address"
        },
        {
          "indexed": true,
          "internalType": "address",
          "name": "spender",
          "type": "address"
        },
        {
          "indexed": false,
          "internalType": "uint256",
          "name": "value",
          "type": "uint256"
        }
      ],
      "name": "Approval",
      "type": "event"
    },
    {
      "anonymous": false,
      "inputs": [
        {
          "indexed": true,
          "internalType": "address",
          "name": "sender",
          "type": "address"
        },
        {
          "indexed": false,
          "internalType": "address",
          "name": "outToken",
          "type": "address"
        },
        {
          "indexed": false,
          "internalType": "uint256",
          "name": "outAmount",
          "type": "uint256"
        },
        {
          "indexed": true,
          "internalType": "address",
          "name": "to",
          "type": "address"
        }
      ],
      "name": "Burn",
      "type": "event"
    },
    {
      "anonymous": false,
      "inputs": [
        {
          "indexed": true,
          "internalType": "address",
          "name": "sender",
          "type": "address"
        },
        {
          "indexed": false,
          "internalType": "uint256",
          "name": "amount0",
          "type": "uint256"
        },
        {
          "indexed": false,
          "internalType": "uint256",
          "name": "amount1",
          "type": "uint256"
        }
      ],
      "name": "Mint",
      "type": "event"
    },
    {
      "anonymous": false,
      "inputs": [
        {
          "indexed": true,
          "internalType": "address",
          "name": "sender",
          "type": "address"
        },
        {
          "indexed": false,
          "internalType": "uint256",
          "name": "amountIn",
          "type": "uint256"
        },
        {
          "indexed": false,
          "internalType": "uint256",
          "name": "amountOut",
          "type": "uint256"
        },
        {
          "indexed": false,
          "internalType": "address",
          "name": "outToken",
          "type": "address"
        },
        {
          "indexed": true,
          "internalType": "address",
          "name": "to",
          "type": "address"
        }
      ],
      "name": "Swap",
      "type": "event"
    },
    {
      "anonymous": false,
      "inputs": [
        {
          "indexed": false,
          "internalType": "uint112",
          "name": "reserve0",
          "type": "uint112"
        },
        {
          "indexed": false,
          "internalType": "uint112",
          "name": "reserve1",
          "type": "uint112"
        }
      ],
      "name": "Sync",
      "type": "event"
    },
    {
      "anonymous": false,
      "inputs": [
        {
          "indexed": true,
          "internalType": "address",
          "name": "from",
          "type": "address"
        },
        {
          "indexed": true,
          "internalType": "address",
          "name": "to",
          "type": "address"
        },
        {
          "indexed": false,
          "internalType": "uint256",
          "name": "value",
          "type": "uint256"
        }
      ],
      "name": "Transfer",
      "type": "event"
    },
    {
      "inputs": [],
      "name": "DOMAIN_SEPARATOR",
      "outputs": [
        {
          "internalType": "bytes32",
          "name": "",
          "type": "bytes32"
        }
      ],
      "stateMutability": "view",
      "type": "function",
      "constant": true
    },
    {
      "inputs": [],
      "name": "K_BASE",
      "outputs": [
        {
          "internalType": "uint256",
          "name": "",
          "type": "uint256"
        }
      ],
      "stateMutability": "view",
      "type": "function",
      "constant": true
    },
    {
      "inputs": [],
      "name": "MINIMUM_LIQUIDITY",
      "outputs": [
        {
          "internalType": "uint256",
          "name": "",
          "type": "uint256"
        }
      ],
      "stateMutability": "view",
      "type": "function",
      "constant": true
    },
    {
      "inputs": [],
      "name": "NAVPS_BASE",
      "outputs": [
        {
          "internalType": "uint256",
          "name": "",
          "type": "uint256"
        }
      ],
      "stateMutability": "view",
      "type": "function",
      "constant": true
    },
    {
      "inputs": [],
      "name": "PERMIT_TYPEHASH",
      "outputs": [
        {
          "internalType": "bytes32",
          "name": "",
          "type": "bytes32"
        }
      ],
      "stateMutability": "view",
      "type": "function",
      "constant": true
    },
    {
      "inputs": [],
      "name": "THETA_BASE",
      "outputs": [
        {
          "internalType": "uint256",
          "name": "",
          "type": "uint256"
        }
      ],
      "stateMutability": "view",
      "type": "function",
      "constant": true
    },
    {
      "inputs": [
        {
          "internalType": "address",
          "name": "",
          "type": "address"
        },
        {
          "internalType": "address",
          "name": "",
          "type": "address"
        }
      ],
      "name": "allowance",
      "outputs": [
        {
          "internalType": "uint256",
          "name": "",
          "type": "uint256"
        }
      ],
      "stateMutability": "view",
      "type": "function",
      "constant": true
    },
    {
      "inputs": [
        {
          "internalType": "address",
          "name": "spender",
          "type": "address"
        },
        {
          "internalType": "uint256",
          "name": "value",
          "type": "uint256"
        }
      ],
      "name": "approve",
      "outputs": [
        {
          "internalType": "bool",
          "name": "",
          "type": "bool"
        }
      ],
      "stateMutability": "nonpayable",
      "type": "function"
    },
    {
      "inputs": [
        {
          "internalType": "address",
          "name": "",
          "type": "address"
        }
      ],
      "name": "balanceOf",
      "outputs": [
        {
          "internalType": "uint256",
          "name": "",
          "type": "uint256"
        }
      ],
      "stateMutability": "view",
      "type": "function",
      "constant": true
    },
    {
      "inputs": [],
      "name": "decimals",
      "outputs": [
        {
          "internalType": "uint8",
          "name": "",
          "type": "uint8"
        }
      ],
      "stateMutability": "view",
      "type": "function",
      "constant": true
    },
    {
      "inputs": [],
      "name": "factory",
      "outputs": [
        {
          "internalType": "address",
          "name": "",
          "type": "address"
        }
      ],
      "stateMutability": "view",
      "type": "function",
      "constant": true
    },
    {
      "inputs": [],
      "name": "initToken0Amount",
      "outputs": [
        {
          "internalType": "uint256",
          "name": "",
          "type": "uint256"
        }
      ],
      "stateMutability": "view",
      "type": "function",
      "constant": true
    },
    {
      "inputs": [],
      "name": "initToken1Amount",
      "outputs": [
        {
          "internalType": "uint256",
          "name": "",
          "type": "uint256"
        }
      ],
      "stateMutability": "view",
      "type": "function",
      "constant": true
    },
    {
      "inputs": [],
      "name": "name",
      "outputs": [
        {
          "internalType": "string",
          "name": "",
          "type": "string"
        }
      ],
      "stateMutability": "view",
      "type": "function",
      "constant": true
    },
    {
      "inputs": [],
      "name": "nameForDomain",
      "outputs": [
        {
          "internalType": "string",
          "name": "",
          "type": "string"
        }
      ],
      "stateMutability": "view",
      "type": "function",
      "constant": true
    },
    {
      "inputs": [
        {
          "internalType": "address",
          "name": "",
          "type": "address"
        }
      ],
      "name": "nonces",
      "outputs": [
        {
          "internalType": "uint256",
          "name": "",
          "type": "uint256"
        }
      ],
      "stateMutability": "view",
      "type": "function",
      "constant": true
    },
    {
      "inputs": [
        {
          "internalType": "address",
          "name": "owner",
          "type": "address"
        },
        {
          "internalType": "address",
          "name": "spender",
          "type": "address"
        },
        {
          "internalType": "uint256",
          "name": "value",
          "type": "uint256"
        },
        {
          "internalType": "uint256",
          "name": "deadline",
          "type": "uint256"
        },
        {
          "internalType": "uint8",
          "name": "v",
          "type": "uint8"
        },
        {
          "internalType": "bytes32",
          "name": "r",
          "type": "bytes32"
        },
        {
          "internalType": "bytes32",
          "name": "s",
          "type": "bytes32"
        }
      ],
      "name": "permit",
      "outputs": [],
      "stateMutability": "nonpayable",
      "type": "function"
    },
    {
      "inputs": [],
      "name": "symbol",
      "outputs": [
        {
          "internalType": "string",
          "name": "",
          "type": "string"
        }
      ],
      "stateMutability": "view",
      "type": "function",
      "constant": true
    },
    {
      "inputs": [],
      "name": "token0",
      "outputs": [
        {
          "internalType": "address",
          "name": "",
          "type": "address"
        }
      ],
      "stateMutability": "view",
      "type": "function",
      "constant": true
    },
    {
      "inputs": [],
      "name": "token1",
      "outputs": [
        {
          "internalType": "address",
          "name": "",
          "type": "address"
        }
      ],
      "stateMutability": "view",
      "type": "function",
      "constant": true
    },
    {
      "inputs": [],
      "name": "totalSupply",
      "outputs": [
        {
          "internalType": "uint256",
          "name": "",
          "type": "uint256"
        }
      ],
      "stateMutability": "view",
      "type": "function",
      "constant": true
    },
    {
      "inputs": [
        {
          "internalType": "address",
          "name": "to",
          "type": "address"
        },
        {
          "internalType": "uint256",
          "name": "value",
          "type": "uint256"
        }
      ],
      "name": "transfer",
      "outputs": [
        {
          "internalType": "bool",
          "name": "",
          "type": "bool"
        }
      ],
      "stateMutability": "nonpayable",
      "type": "function"
    },
    {
      "inputs": [
        {
          "internalType": "address",
          "name": "from",
          "type": "address"
        },
        {
          "internalType": "address",
          "name": "to",
          "type": "address"
        },
        {
          "internalType": "uint256",
          "name": "value",
          "type": "uint256"
        }
      ],
      "name": "transferFrom",
      "outputs": [
        {
          "internalType": "bool",
          "name": "",
          "type": "bool"
        }
      ],
      "stateMutability": "nonpayable",
      "type": "function"
    },
    {
      "stateMutability": "payable",
      "type": "receive",
      "payable": true
    },
    {
      "inputs": [
        {
          "internalType": "address",
          "name": "_token0",
          "type": "address"
        },
        {
          "internalType": "address",
          "name": "_token1",
          "type": "address"
        },
        {
          "internalType": "string",
          "name": "_name",
          "type": "string"
        },
        {
          "internalType": "string",
          "name": "_symbol",
          "type": "string"
        },
        {
          "internalType": "uint256",
          "name": "_initToken0Amount",
          "type": "uint256"
        },
        {
          "internalType": "uint256",
          "name": "_initToken1Amount",
          "type": "uint256"
        }
      ],
      "name": "initialize",
      "outputs": [],
      "stateMutability": "nonpayable",
      "type": "function"
    },
    {
      "inputs": [],
      "name": "getInitialAssetRatio",
      "outputs": [
        {
          "internalType": "uint256",
          "name": "_initToken0Amount",
          "type": "uint256"
        },
        {
          "internalType": "uint256",
          "name": "_initToken1Amount",
          "type": "uint256"
        }
      ],
      "stateMutability": "view",
      "type": "function",
      "constant": true
    },
    {
      "inputs": [],
      "name": "getReserves",
      "outputs": [
        {
          "internalType": "uint112",
          "name": "_reserve0",
          "type": "uint112"
        },
        {
          "internalType": "uint112",
          "name": "_reserve1",
          "type": "uint112"
        }
      ],
      "stateMutability": "view",
      "type": "function",
      "constant": true
    },
    {
      "inputs": [
        {
          "internalType": "address",
          "name": "to",
          "type": "address"
        },
        {
          "internalType": "uint256",
          "name": "amountETH",
          "type": "uint256"
        },
        {
          "internalType": "uint256",
          "name": "amountToken",
          "type": "uint256"
        }
      ],
      "name": "mint",
      "outputs": [
        {
          "internalType": "uint256",
          "name": "liquidity",
          "type": "uint256"
        },
        {
          "internalType": "uint256",
          "name": "oracleFeeChange",
          "type": "uint256"
        }
      ],
      "stateMutability": "payable",
      "type": "function",
      "payable": true
    },
    {
      "inputs": [
        {
          "internalType": "address",
          "name": "tokenTo",
          "type": "address"
        },
        {
          "internalType": "address",
          "name": "ethTo",
          "type": "address"
        }
      ],
      "name": "burn",
      "outputs": [
        {
          "internalType": "uint256",
          "name": "amountTokenOut",
          "type": "uint256"
        },
        {
          "internalType": "uint256",
          "name": "amountEthOut",
          "type": "uint256"
        },
        {
          "internalType": "uint256",
          "name": "oracleFeeChange",
          "type": "uint256"
        }
      ],
      "stateMutability": "payable",
      "type": "function",
      "payable": true
    },
    {
      "inputs": [
        {
          "internalType": "address",
          "name": "outToken",
          "type": "address"
        },
        {
          "internalType": "address",
          "name": "to",
          "type": "address"
        }
      ],
      "name": "swapWithExact",
      "outputs": [
        {
          "internalType": "uint256",
          "name": "amountIn",
          "type": "uint256"
        },
        {
          "internalType": "uint256",
          "name": "amountOut",
          "type": "uint256"
        },
        {
          "internalType": "uint256",
          "name": "oracleFeeChange",
          "type": "uint256"
        },
        {
          "internalType": "uint256[5]",
          "name": "tradeInfo",
          "type": "uint256[5]"
        }
      ],
      "stateMutability": "payable",
      "type": "function",
      "payable": true
    },
    {
      "inputs": [
        {
          "internalType": "address",
          "name": "to",
          "type": "address"
        }
      ],
      "name": "skim",
      "outputs": [],
      "stateMutability": "nonpayable",
      "type": "function"
    },
    {
      "inputs": [],
      "name": "sync",
      "outputs": [],
      "stateMutability": "nonpayable",
      "type": "function"
    },
    {
      "inputs": [
        {
          "internalType": "uint256",
          "name": "balance0",
          "type": "uint256"
        },
        {
          "internalType": "uint256",
          "name": "balance1",
          "type": "uint256"
        },
        {
          "components": [
            {
              "internalType": "uint256",
              "name": "ethAmount",
              "type": "uint256"
            },
            {
              "internalType": "uint256",
              "name": "erc20Amount",
              "type": "uint256"
            },
            {
              "internalType": "uint256",
              "name": "blockNum",
              "type": "uint256"
            },
            {
              "internalType": "uint256",
              "name": "K",
              "type": "uint256"
            },
            {
              "internalType": "uint256",
              "name": "theta",
              "type": "uint256"
            }
          ],
          "internalType": "struct ICoFiXV2Pair.OraclePrice",
          "name": "_op",
          "type": "tuple"
        }
      ],
      "name": "calcNAVPerShareForMint",
      "outputs": [
        {
          "internalType": "uint256",
          "name": "navps",
          "type": "uint256"
        }
      ],
      "stateMutability": "view",
      "type": "function",
      "constant": true
    },
    {
      "inputs": [
        {
          "internalType": "uint256",
          "name": "balance0",
          "type": "uint256"
        },
        {
          "internalType": "uint256",
          "name": "balance1",
          "type": "uint256"
        },
        {
          "components": [
            {
              "internalType": "uint256",
              "name": "ethAmount",
              "type": "uint256"
            },
            {
              "internalType": "uint256",
              "name": "erc20Amount",
              "type": "uint256"
            },
            {
              "internalType": "uint256",
              "name": "blockNum",
              "type": "uint256"
            },
            {
              "internalType": "uint256",
              "name": "K",
              "type": "uint256"
            },
            {
              "internalType": "uint256",
              "name": "theta",
              "type": "uint256"
            }
          ],
          "internalType": "struct ICoFiXV2Pair.OraclePrice",
          "name": "_op",
          "type": "tuple"
        }
      ],
      "name": "calcNAVPerShareForBurn",
      "outputs": [
        {
          "internalType": "uint256",
          "name": "navps",
          "type": "uint256"
        }
      ],
      "stateMutability": "view",
      "type": "function",
      "constant": true
    },
    {
      "inputs": [
        {
          "internalType": "uint256",
          "name": "balance0",
          "type": "uint256"
        },
        {
          "internalType": "uint256",
          "name": "balance1",
          "type": "uint256"
        },
        {
          "internalType": "uint256",
          "name": "ethAmount",
          "type": "uint256"
        },
        {
          "internalType": "uint256",
          "name": "erc20Amount",
          "type": "uint256"
        }
      ],
      "name": "calcNAVPerShare",
      "outputs": [
        {
          "internalType": "uint256",
          "name": "navps",
          "type": "uint256"
        }
      ],
      "stateMutability": "view",
      "type": "function",
      "constant": true
    },
    {
      "inputs": [
        {
          "internalType": "uint256",
          "name": "amount0",
          "type": "uint256"
        },
        {
          "internalType": "uint256",
          "name": "navps",
          "type": "uint256"
        }
      ],
      "name": "calcLiquidity",
      "outputs": [
        {
          "internalType": "uint256",
          "name": "liquidity",
          "type": "uint256"
        }
      ],
      "stateMutability": "pure",
      "type": "function",
      "constant": true
    },
    {
      "inputs": [
        {
          "components": [
            {
              "internalType": "uint256",
              "name": "ethAmount",
              "type": "uint256"
            },
            {
              "internalType": "uint256",
              "name": "erc20Amount",
              "type": "uint256"
            },
            {
              "internalType": "uint256",
              "name": "blockNum",
              "type": "uint256"
            },
            {
              "internalType": "uint256",
              "name": "K",
              "type": "uint256"
            },
            {
              "internalType": "uint256",
              "name": "theta",
              "type": "uint256"
            }
          ],
          "internalType": "struct ICoFiXV2Pair.OraclePrice",
          "name": "_op",
          "type": "tuple"
        }
      ],
      "name": "getNAVPerShareForMint",
      "outputs": [
        {
          "internalType": "uint256",
          "name": "navps",
          "type": "uint256"
        }
      ],
      "stateMutability": "view",
      "type": "function",
      "constant": true
    },
    {
      "inputs": [
        {
          "components": [
            {
              "internalType": "uint256",
              "name": "ethAmount",
              "type": "uint256"
            },
            {
              "internalType": "uint256",
              "name": "erc20Amount",
              "type": "uint256"
            },
            {
              "internalType": "uint256",
              "name": "blockNum",
              "type": "uint256"
            },
            {
              "internalType": "uint256",
              "name": "K",
              "type": "uint256"
            },
            {
              "internalType": "uint256",
              "name": "theta",
              "type": "uint256"
            }
          ],
          "internalType": "struct ICoFiXV2Pair.OraclePrice",
          "name": "_op",
          "type": "tuple"
        }
      ],
      "name": "getNAVPerShareForBurn",
      "outputs": [
        {
          "internalType": "uint256",
          "name": "navps",
          "type": "uint256"
        }
      ],
      "stateMutability": "view",
      "type": "function",
      "constant": true
    },
    {
      "inputs": [
        {
          "internalType": "uint256",
          "name": "ethAmount",
          "type": "uint256"
        },
        {
          "internalType": "uint256",
          "name": "erc20Amount",
          "type": "uint256"
        }
      ],
      "name": "getNAVPerShare",
      "outputs": [
        {
          "internalType": "uint256",
          "name": "navps",
          "type": "uint256"
        }
      ],
      "stateMutability": "view",
      "type": "function",
      "constant": true
    },
    {
      "inputs": [
        {
          "internalType": "uint256",
          "name": "amount0",
          "type": "uint256"
        },
        {
          "components": [
            {
              "internalType": "uint256",
              "name": "ethAmount",
              "type": "uint256"
            },
            {
              "internalType": "uint256",
              "name": "erc20Amount",
              "type": "uint256"
            },
            {
              "internalType": "uint256",
              "name": "blockNum",
              "type": "uint256"
            },
            {
              "internalType": "uint256",
              "name": "K",
              "type": "uint256"
            },
            {
              "internalType": "uint256",
              "name": "theta",
              "type": "uint256"
            }
          ],
          "internalType": "struct ICoFiXV2Pair.OraclePrice",
          "name": "_op",
          "type": "tuple"
        }
      ],
      "name": "getLiquidity",
      "outputs": [
        {
          "internalType": "uint256",
          "name": "liquidity",
          "type": "uint256"
        }
      ],
      "stateMutability": "view",
      "type": "function",
      "constant": true
    },
    {
      "inputs": [
        {
          "internalType": "uint256",
          "name": "liquidity",
          "type": "uint256"
        },
        {
          "components": [
            {
              "internalType": "uint256",
              "name": "ethAmount",
              "type": "uint256"
            },
            {
              "internalType": "uint256",
              "name": "erc20Amount",
              "type": "uint256"
            },
            {
              "internalType": "uint256",
              "name": "blockNum",
              "type": "uint256"
            },
            {
              "internalType": "uint256",
              "name": "K",
              "type": "uint256"
            },
            {
              "internalType": "uint256",
              "name": "theta",
              "type": "uint256"
            }
          ],
          "internalType": "struct ICoFiXV2Pair.OraclePrice",
          "name": "_op",
          "type": "tuple"
        }
      ],
      "name": "calcOutTokenAndETHForBurn",
      "outputs": [
        {
          "internalType": "uint256",
          "name": "amountTokenOut",
          "type": "uint256"
        },
        {
          "internalType": "uint256",
          "name": "amountEthOut",
          "type": "uint256"
        }
      ],
      "stateMutability": "view",
      "type": "function",
      "constant": true
    },
    {
      "inputs": [
        {
          "internalType": "uint256",
          "name": "amountIn",
          "type": "uint256"
        },
        {
          "components": [
            {
              "internalType": "uint256",
              "name": "ethAmount",
              "type": "uint256"
            },
            {
              "internalType": "uint256",
              "name": "erc20Amount",
              "type": "uint256"
            },
            {
              "internalType": "uint256",
              "name": "blockNum",
              "type": "uint256"
            },
            {
              "internalType": "uint256",
              "name": "K",
              "type": "uint256"
            },
            {
              "internalType": "uint256",
              "name": "theta",
              "type": "uint256"
            }
          ],
          "internalType": "struct ICoFiXV2Pair.OraclePrice",
          "name": "_op",
          "type": "tuple"
        }
      ],
      "name": "calcOutToken0",
      "outputs": [
        {
          "internalType": "uint256",
          "name": "amountOut",
          "type": "uint256"
        },
        {
          "internalType": "uint256",
          "name": "fee",
          "type": "uint256"
        }
      ],
      "stateMutability": "pure",
      "type": "function",
      "constant": true
    },
    {
      "inputs": [
        {
          "internalType": "uint256",
          "name": "amountIn",
          "type": "uint256"
        },
        {
          "components": [
            {
              "internalType": "uint256",
              "name": "ethAmount",
              "type": "uint256"
            },
            {
              "internalType": "uint256",
              "name": "erc20Amount",
              "type": "uint256"
            },
            {
              "internalType": "uint256",
              "name": "blockNum",
              "type": "uint256"
            },
            {
              "internalType": "uint256",
              "name": "K",
              "type": "uint256"
            },
            {
              "internalType": "uint256",
              "name": "theta",
              "type": "uint256"
            }
          ],
          "internalType": "struct ICoFiXV2Pair.OraclePrice",
          "name": "_op",
          "type": "tuple"
        }
      ],
      "name": "calcOutToken1",
      "outputs": [
        {
          "internalType": "uint256",
          "name": "amountOut",
          "type": "uint256"
        },
        {
          "internalType": "uint256",
          "name": "fee",
          "type": "uint256"
        }
      ],
      "stateMutability": "pure",
      "type": "function",
      "constant": true
    },
    {
      "inputs": [
        {
          "internalType": "uint256",
          "name": "amountOut",
          "type": "uint256"
        },
        {
          "components": [
            {
              "internalType": "uint256",
              "name": "ethAmount",
              "type": "uint256"
            },
            {
              "internalType": "uint256",
              "name": "erc20Amount",
              "type": "uint256"
            },
            {
              "internalType": "uint256",
              "name": "blockNum",
              "type": "uint256"
            },
            {
              "internalType": "uint256",
              "name": "K",
              "type": "uint256"
            },
            {
              "internalType": "uint256",
              "name": "theta",
              "type": "uint256"
            }
          ],
          "internalType": "struct ICoFiXV2Pair.OraclePrice",
          "name": "_op",
          "type": "tuple"
        }
      ],
      "name": "calcInNeededToken0",
      "outputs": [
        {
          "internalType": "uint256",
          "name": "amountInNeeded",
          "type": "uint256"
        },
        {
          "internalType": "uint256",
          "name": "fee",
          "type": "uint256"
        }
      ],
      "stateMutability": "pure",
      "type": "function",
      "constant": true
    },
    {
      "inputs": [
        {
          "internalType": "uint256",
          "name": "amountOut",
          "type": "uint256"
        },
        {
          "components": [
            {
              "internalType": "uint256",
              "name": "ethAmount",
              "type": "uint256"
            },
            {
              "internalType": "uint256",
              "name": "erc20Amount",
              "type": "uint256"
            },
            {
              "internalType": "uint256",
              "name": "blockNum",
              "type": "uint256"
            },
            {
              "internalType": "uint256",
              "name": "K",
              "type": "uint256"
            },
            {
              "internalType": "uint256",
              "name": "theta",
              "type": "uint256"
            }
          ],
          "internalType": "struct ICoFiXV2Pair.OraclePrice",
          "name": "_op",
          "type": "tuple"
        }
      ],
      "name": "calcInNeededToken1",
      "outputs": [
        {
          "internalType": "uint256",
          "name": "amountInNeeded",
          "type": "uint256"
        },
        {
          "internalType": "uint256",
          "name": "fee",
          "type": "uint256"
        }
      ],
      "stateMutability": "pure",
      "type": "function",
      "constant": true
    }
  ],
  "bytecode": "0x60a06040526001600c553480156200001657600080fd5b50604080518082018252601081526f21b7a334ac102837b7b6102a37b5b2b760811b6020918201528151808301835260018152603160f81b9082015290514691620000cc917f8b73c3c69bb8fe3d512ecc4cf759cc79239f7b179b0ffacaa9a75d522b39400f917f70f1d8d3a2b874a116643bbbdb7e2937ce56e0359f9c3070aac2ec77a8354ccc917fc89efdaa54c0f20c7adf612882df0950f5a951637e0307cdcb4c672f298b8bc6918691309101620000f5565b60408051601f198184030181529190528051602090910120600355503360601b60805262000121565b9485526020850193909352604084019190915260608301526001600160a01b0316608082015260a00190565b60805160601c613aaa62000158600039806115a15280611b82528061204f52806125025280612b525280612d485250613aaa6000f3fe6080604052600436106102eb5760003560e01c806395d89b4111610184578063bc25cf77116100d6578063d385a3ad1161008a578063e5eac39011610064578063e5eac39014610787578063f22e2ae0146107a7578063fff6cae9146107bc576102f2565b8063d385a3ad14610727578063d505accf14610747578063dd62ed3e14610767576102f2565b8063bf36aac2116100bb578063bf36aac2146106dd578063c45a0155146106fd578063d21220a714610712576102f2565b8063bc25cf77146106bd578063be5b32f8146104ba576102f2565b8063a661dbda11610138578063ac931c5a11610112578063ac931c5a14610668578063b72bda4a14610688578063ba9a7a56146106a8576102f2565b8063a661dbda14610633578063a9059cbb14610648578063aaf07e9214610490576102f2565b80639c673c52116101695780639c673c52146105db5780639f44296a146105fb578063a1da4d241461061e576102f2565b806395d89b41146105a657806399f45e48146105bb576102f2565b8063313ce5671161023d5780634f6ec2dd116101f157806379c2c954116101cb57806379c2c9541461054f5780637ecebe00146105715780638a2ffb9614610591576102f2565b80634f6ec2dd146104fa5780635ad6bd301461050f57806370a082311461052f576102f2565b80633644e515116102225780633644e515146104a557806339818b66146104ba57806349a23da0146104da576102f2565b8063313ce5671461046e5780633298613114610490576102f2565b806318160ddd1161029f57806324334be81161027957806324334be81461041757806327fc84a31461043757806330adf81f14610459576102f2565b806318160ddd146103b55780631feb1886146103d757806323b872dd146103f7576102f2565b8063095ea7b3116102d0578063095ea7b3146103455780630dfe168114610372578063156e29f614610394576102f2565b806306fdde03146102f75780630902f1ac14610322576102f2565b366102f257005b600080fd5b34801561030357600080fd5b5061030c6107d1565b604051610319919061350f565b60405180910390f35b34801561032e57600080fd5b5061033761087d565b60405161031992919061394c565b34801561035157600080fd5b506103656103603660046131dc565b6108aa565b60405161031991906134a9565b34801561037e57600080fd5b506103876108c1565b60405161031991906133f5565b6103a76103a2366004613207565b6108d0565b60405161031992919061396d565b3480156103c157600080fd5b506103ca610c54565b60405161031991906134b4565b3480156103e357600080fd5b506103a76103f236600461328e565b610c5a565b34801561040357600080fd5b50610365610412366004613127565b610ed6565b34801561042357600080fd5b506103ca6104323660046132b1565b610f88565b61044a610445366004613057565b610fc6565b6040516103199392919061399a565b34801561046557600080fd5b506103ca61139b565b34801561047a57600080fd5b506104836113bf565b60405161031991906139fb565b34801561049c57600080fd5b506103ca6113c4565b3480156104b157600080fd5b506103ca6113cc565b3480156104c657600080fd5b506103ca6104d536600461325b565b6113d2565b3480156104e657600080fd5b506103ca6104f53660046132d2565b611410565b34801561050657600080fd5b506103ca6114d3565b34801561051b57600080fd5b506103a761052a36600461328e565b6114df565b34801561053b57600080fd5b506103ca61054a36600461301f565b611584565b34801561055b57600080fd5b5061056f61056a36600461308f565b611596565b005b34801561057d57600080fd5b506103ca61058c36600461301f565b61165a565b34801561059d57600080fd5b506103ca61166c565b3480156105b257600080fd5b5061030c611672565b3480156105c757600080fd5b506103ca6105d6366004613307565b6116eb565b3480156105e757600080fd5b506103a76105f636600461328e565b61179e565b61060e610609366004613057565b611832565b60405161031994939291906139b0565b34801561062a57600080fd5b506103a7611dac565b34801561063f57600080fd5b5061030c611db5565b34801561065457600080fd5b506103656106633660046131dc565b611dee565b34801561067457600080fd5b506103ca6106833660046132b1565b611dfb565b34801561069457600080fd5b506103ca6106a33660046132d2565b611e13565b3480156106b457600080fd5b506103ca611e49565b3480156106c957600080fd5b5061056f6106d836600461301f565b611e51565b3480156106e957600080fd5b506103a76106f836600461328e565b611f93565b34801561070957600080fd5b5061038761204d565b34801561071e57600080fd5b50610387612071565b34801561073357600080fd5b506103ca61074236600461328e565b612080565b34801561075357600080fd5b5061056f610762366004613167565b6120a0565b34801561077357600080fd5b506103ca610782366004613057565b61220f565b34801561079357600080fd5b506103a76107a236600461328e565b61222c565b3480156107b357600080fd5b506103ca6122f3565b3480156107c857600080fd5b5061056f6122f9565b6005805460408051602060026001851615610100027fffffffffffffffffffffffffffffffffffffffffffffffffffffffffffffffff0190941693909304601f810184900484028201840190925281815292918301828280156108755780601f1061084a57610100808354040283529160200191610875565b820191906000526020600020905b81548152906001019060200180831161085857829003601f168201915b505050505081565b6009546dffffffffffffffffffffffffffff808216926e0100000000000000000000000000009092041690565b60006108b733848461242e565b5060015b92915050565b6007546001600160a01b031681565b600080600c546001146108fe5760405162461bcd60e51b81526004016108f590613522565b60405180910390fd5b6000600c8190556007546008546001600160a01b03918216929116908061092361087d565b915091506000846001600160a01b03166370a08231306040518263ffffffff1660e01b815260040161095591906133f5565b60206040518083038186803b15801561096d57600080fd5b505afa158015610981573d6000803e3d6000fd5b505050506040513d601f19601f820116820180604052508101906109a59190613276565b90506000846001600160a01b03166370a08231306040518263ffffffff1660e01b81526004016109d591906133f5565b60206040518083038186803b1580156109ed57600080fd5b505afa158015610a01573d6000803e3d6000fd5b505050506040513d601f19601f82011682018060405250810190610a259190613276565b90506000610a43836dffffffffffffffffffffffffffff8716612496565b90506000610a61836dffffffffffffffffffffffffffff8716612496565b9050818c11158015610a735750808b11155b610a8f5760405162461bcd60e51b81526004016108f59061376e565b5050600b548a908a90610aa39082906124be565b600a54610ab19084906124be565b14610ace5760405162461bcd60e51b81526004016108f59061366c565b60004790506060338f8585604051602001610aec9493929190613433565b6040516020818303038152906040529050610b05612e87565b610b118a6001846124f8565b60808601526040850152602084018190528184526060840192909252600091610b51916dffffffffffffffffffffffffffff808e1692908d1691906116eb565b905060005460001415610b8c57610b76633b9aca00610b708884611dfb565b90612496565b9d50610b876000633b9aca00612632565b610b99565b610b968682611dfb565b9d505b50610bb29150610bab90508247612496565b3490612496565b995060008b11610bd45760405162461bcd60e51b81526004016108f5906137dc565b610bde8e8c612632565b610be885856126bf565b8915610bf857610bf8338b6127c5565b336001600160a01b03167f4c209b5fc8ad50758f13e2e1088ba56a560dff690a1c6fef26394f4c03821c4f8484604051610c3392919061396d565b60405180910390a25050505050505050506001600c81905550935093915050565b60005481565b6009548151602083015160009283928392610c9c926dffffffffffffffffffffffffffff808216936e01000000000000000000000000000090920416916116eb565b90506000610caa86836124be565b90506000610cd3610ccc87608001516305f5e10061249690919063ffffffff16565b83906124be565b9050610cf56305f5e100610cef83670de0b6b3a7640000612857565b90612857565b9350610d266305f5e100610cef600b54610cef670de0b6b3a7640000610cef600a54886124be90919063ffffffff16565b6009549095506dffffffffffffffffffffffffffff168411159150610df7905057600954845160208601516dffffffffffffffffffffffffffff909216840391600091610d7891610cef9085906124be565b9050610d848582612889565b6009549095506e01000000000000000000000000000090046dffffffffffffffffffffffffffff16851115610ddb576009546e01000000000000000000000000000090046dffffffffffffffffffffffffffff1694505b50506009546dffffffffffffffffffffffffffff169150610ece565b6009546e01000000000000000000000000000090046dffffffffffffffffffffffffffff16831115610ece57600954602085015185516e0100000000000000000000000000009092046dffffffffffffffffffffffffffff16850391600091610e6591610cef9085906124be565b9050610e718482612889565b6009549094506dffffffffffffffffffffffffffff16841115610ea4576009546dffffffffffffffffffffffffffff1693505b50506009546e01000000000000000000000000000090046dffffffffffffffffffffffffffff1692505b509250929050565b6001600160a01b03831660009081526002602090815260408083203384529091528120547fffffffffffffffffffffffffffffffffffffffffffffffffffffffffffffffff14610f73576001600160a01b0384166000908152600260209081526040808320338452909152902054610f4e9083612496565b6001600160a01b03851660009081526002602090815260408083203384529091529020555b610f7e8484846128ae565b5060019392505050565b600954600090610fbf906dffffffffffffffffffffffffffff808216916e01000000000000000000000000000090041685856116eb565b9392505050565b6000806000600c54600114610fed5760405162461bcd60e51b81526004016108f590613522565b6000600c8190556007546008546040516370a0823160e01b81526001600160a01b0392831693919092169183906370a082319061102e9030906004016133f5565b60206040518083038186803b15801561104657600080fd5b505afa15801561105a573d6000803e3d6000fd5b505050506040513d601f19601f8201168201806040525081019061107e9190613276565b90506000826001600160a01b03166370a08231306040518263ffffffff1660e01b81526004016110ae91906133f5565b60206040518083038186803b1580156110c657600080fd5b505afa1580156110da573d6000803e3d6000fd5b505050506040513d601f19601f820116820180604052508101906110fe9190613276565b306000908152600160209081526040918290205491519293509091479160609161112c91339186910161345c565b6040516020818303038152906040529050611145612e87565b611151876002846124f8565b608086015260408501526020840152825260608201526111718482610c5a565b909b5099506111879150610bab90508247612496565b96506000891180156111995750600088115b6111b55760405162461bcd60e51b81526004016108f5906137a5565b6111bf3083612952565b6111ca858c8b6129dc565b6111d5868b8a6129dc565b6040516370a0823160e01b81526001600160a01b038716906370a08231906112019030906004016133f5565b60206040518083038186803b15801561121957600080fd5b505afa15801561122d573d6000803e3d6000fd5b505050506040513d601f19601f820116820180604052508101906112519190613276565b6040516370a0823160e01b81529094506001600160a01b038616906370a08231906112809030906004016133f5565b60206040518083038186803b15801561129857600080fd5b505afa1580156112ac573d6000803e3d6000fd5b505050506040513d601f19601f820116820180604052508101906112d09190613276565b92506112dc84846126bf565b86156112ec576112ec33886127c5565b896001600160a01b0316336001600160a01b03167f3dd1df88dc92e2788892542d81f999d720a44b4c127065d45c128f4f59fdc373888b60405161133192919061345c565b60405180910390a38a6001600160a01b0316336001600160a01b03167f3dd1df88dc92e2788892542d81f999d720a44b4c127065d45c128f4f59fdc373878c60405161137e92919061345c565b60405180910390a35050505050506001600c819055509250925092565b7f6e71edae12b1b97f4d1f60370fef10105fa2faae0126114a169c64845d6126c981565b601281565b6305f5e10081565b60035481565b600954815160208301516000926108bb926dffffffffffffffffffffffffffff808316936e01000000000000000000000000000090930416916116eb565b600080548061142957670de0b6b3a764000091506114cb565b600061144684606001516305f5e10061249690919063ffffffff16565b9050600061146f6305f5e1006114698760000151896124be90919063ffffffff16565b906124be565b9050600061148e8361146988602001518b6124be90919063ffffffff16565b90506114c583610cef8860200151610cef88610cef6114b6888a61288990919063ffffffff16565b670de0b6b3a7640000906124be565b94505050505b509392505050565b670de0b6b3a764000081565b60008061154d61150084608001516305f5e10061249690919063ffffffff16565b610cef61151e86606001516305f5e10061249690919063ffffffff16565b610cef8760200151610cef6305f5e1006114696305f5e1006114698d600001518f6124be90919063ffffffff16565b9150826080015160001461157d5761157a6305f5e100610cef8560800151856124be90919063ffffffff16565b90505b9250929050565b60016020526000908152604090205481565b336001600160a01b037f000000000000000000000000000000000000000000000000000000000000000016146115de5760405162461bcd60e51b81526004016108f590613813565b600780546001600160a01b038089167fffffffffffffffffffffffff00000000000000000000000000000000000000009283161790925560088054928816929091169190911790558351611639906005906020870190612eb6565b50825161164d906006906020860190612eb6565b50600a55600b5550505050565b60046020526000908152604090205481565b600b5481565b6006805460408051602060026001851615610100027fffffffffffffffffffffffffffffffffffffffffffffffffffffffffffffffff0190941693909304601f810184900484028201840190925281815292918301828280156108755780601f1061084a57610100808354040283529160200191610875565b600080548061170457670de0b6b3a76400009150611795565b600b546000906117189061146989876124be565b90506000611735600b54611469888a6124be90919063ffffffff16565b9050600061174e87600a546124be90919063ffffffff16565b90506000611767600b54886124be90919063ffffffff16565b905061178e6117768383612889565b610cef670de0b6b3a764000061146989838a8a612889565b9550505050505b50949350505050565b6000806118056305f5e100610cef6305f5e100610cef8760000151610cef6117d78a608001516305f5e10061249690919063ffffffff16565b6114696117f58c606001516305f5e10061249690919063ffffffff16565b60208d0151611469908f906124be565b9150826080015160001461157d5761157a6305f5e100610cef8560800151876124be90919063ffffffff16565b600080600061183f612f34565b600c546001146118615760405162461bcd60e51b81526004016108f590613522565b6000600c8190556007546008546040516370a0823160e01b81526001600160a01b0392831693919092169183906370a08231906118a29030906004016133f5565b60206040518083038186803b1580156118ba57600080fd5b505afa1580156118ce573d6000803e3d6000fd5b505050506040513d601f19601f820116820180604052508101906118f29190613276565b90506000826001600160a01b03166370a08231306040518263ffffffff1660e01b815260040161192291906133f5565b60206040518083038186803b15801561193a57600080fd5b505afa15801561194e573d6000803e3d6000fd5b505050506040513d601f19601f820116820180604052508101906119729190613276565b90504760008061198061087d565b91509150856001600160a01b03168d6001600160a01b031614156119bf576119b8856dffffffffffffffffffffffffffff8416612496565b9a50611a0b565b866001600160a01b03168d6001600160a01b031614156119f3576119b8846dffffffffffffffffffffffffffff8316612496565b60405162461bcd60e51b81526004016108f590613737565b60008b11611a2b5760405162461bcd60e51b81526004016108f590613915565b6060338e8e8e604051602001611a449493929190613409565b6040516020818303038152906040529050611a5d612e87565b611a69886003846124f8565b608086015260408501526020840152825260608201526001600160a01b038f81169089161415611aa657611a9d8d8261179e565b8b529b50611acf565b886001600160a01b03168f6001600160a01b03161415611acf57611aca8d8261222c565b8b529b505b611adc610bab8647612496565b815160208c8101919091529091015160408b01529950505050506001600160a01b03848116908a1614801590611b245750826001600160a01b0316896001600160a01b031614155b611b405760405162461bcd60e51b81526004016108f5906135fe565b611b4b8a8a896129dc565b845115611c32576040517f80feb3980000000000000000000000000000000000000000000000000000000081526001600160a01b037f000000000000000000000000000000000000000000000000000000000000000016906380feb39890611bb79086906004016133f5565b60206040518083038186803b158015611bcf57600080fd5b505afa158015611be3573d6000803e3d6000fd5b505050506040513d601f19601f82011682018060405250810190611c07919061323b565b15611c1e578451611c19908590612b4e565b611c32565b8451611c2d9085908590612d15565b600085525b6040516370a0823160e01b81526001600160a01b038516906370a0823190611c5e9030906004016133f5565b60206040518083038186803b158015611c7657600080fd5b505afa158015611c8a573d6000803e3d6000fd5b505050506040513d601f19601f82011682018060405250810190611cae9190613276565b6040516370a0823160e01b81529092506001600160a01b038416906370a0823190611cdd9030906004016133f5565b60206040518083038186803b158015611cf557600080fd5b505afa158015611d09573d6000803e3d6000fd5b505050506040513d601f19601f82011682018060405250810190611d2d9190613276565b9050611d3982826126bf565b8515611d4957611d4933876127c5565b886001600160a01b0316336001600160a01b03167f053d794b2310b8d186a24ae24a65ee066983a52a6efa6bd3df09a7601a3cb4f38a8a8e604051611d909392919061397b565b60405180910390a350506001600c555093969295509093509150565b600a54600b5491565b6040518060400160405280601081526020017f436f46695820506f6f6c20546f6b656e0000000000000000000000000000000081525081565b60006108b73384846128ae565b6000610fbf82610cef85670de0b6b3a76400006124be565b6000805480611e2c57670de0b6b3a764000091506114cb565b600061144684606001516305f5e10061288990919063ffffffff16565b633b9aca0081565b600c54600114611e735760405162461bcd60e51b81526004016108f590613522565b6000600c556007546008546009546040516370a0823160e01b81526001600160a01b039384169390921691611f289184918691611f23916dffffffffffffffffffffffffffff9091169084906370a0823190611ed39030906004016133f5565b60206040518083038186803b158015611eeb57600080fd5b505afa158015611eff573d6000803e3d6000fd5b505050506040513d601f19601f82011682018060405250810190610b709190613276565b6129dc565b611f898184611f236009600e9054906101000a90046dffffffffffffffffffffffffffff166dffffffffffffffffffffffffffff16856001600160a01b03166370a08231306040518263ffffffff1660e01b8152600401611ed391906133f5565b50506001600c5550565b600080611fea611fb484608001516305f5e10061249690919063ffffffff16565b610cef6305f5e100610cef8760000151610cef6305f5e1006114696117f58c606001516305f5e10061288990919063ffffffff16565b9150826080015160001461157d5761157a6305f5e100610cef61201e86606001516305f5e10061288990919063ffffffff16565b610cef8760200151610cef89608001516114696305f5e1006114698d600001518d6124be90919063ffffffff16565b7f000000000000000000000000000000000000000000000000000000000000000081565b6008546001600160a01b031681565b60008061208c836113d2565b90506120988482611dfb565b949350505050565b428410156120c05760405162461bcd60e51b81526004016108f590613700565b6003546001600160a01b03881660009081526004602090815260408083208054600181019091559051929392612121927f6e71edae12b1b97f4d1f60370fef10105fa2faae0126114a169c64845d6126c9928d928d928d92918d91016134bd565b604051602081830303815290604052805190602001206040516020016121489291906133bf565b60405160208183030381529060405280519060200120905060006001828686866040516000815260200160405260405161218594939291906134f1565b6020604051602081039080840390855afa1580156121a7573d6000803e3d6000fd5b5050604051601f1901519150506001600160a01b038116158015906121dd5750886001600160a01b0316816001600160a01b0316145b6121f95760405162461bcd60e51b81526004016108f590613559565b61220489898961242e565b505050505050505050565b600260209081526000928352604080842090915290825290205481565b6000806122906305f5e100610cef61225586606001516305f5e10061288990919063ffffffff16565b610cef8760200151610cef61227b8a608001516305f5e10061249690919063ffffffff16565b8a51611469906305f5e1009082908f906124be565b9150826080015160001461157d5761157a6305f5e100610cef6122c486606001516305f5e10061288990919063ffffffff16565b610cef8760200151610cef89608001516114696305f5e1006114698d600001518f6124be90919063ffffffff16565b600a5481565b600c5460011461231b5760405162461bcd60e51b81526004016108f590613522565b6000600c556007546040516370a0823160e01b8152612427916001600160a01b0316906370a08231906123529030906004016133f5565b60206040518083038186803b15801561236a57600080fd5b505afa15801561237e573d6000803e3d6000fd5b505050506040513d601f19601f820116820180604052508101906123a29190613276565b6008546040516370a0823160e01b81526001600160a01b03909116906370a08231906123d29030906004016133f5565b60206040518083038186803b1580156123ea57600080fd5b505afa1580156123fe573d6000803e3d6000fd5b505050506040513d601f19601f820116820180604052508101906124229190613276565b6126bf565b6001600c55565b6001600160a01b0380841660008181526002602090815260408083209487168084529490915290819020849055517f8c5be1e5ebec7d5bd14f71427d1e84f3dd0314c0f7b2291e5b200ac8c7c3b925906124899085906134b4565b60405180910390a3505050565b6000828211156124b85760405162461bcd60e51b81526004016108f5906135c7565b50900390565b6000826124cd575060006108bb565b828202828482816124da57fe5b0414610fbf5760405162461bcd60e51b81526004016108f5906136a3565b60008060008060007f00000000000000000000000000000000000000000000000000000000000000006001600160a01b0316633018205f6040518163ffffffff1660e01b815260040160206040518083038186803b15801561255957600080fd5b505afa15801561256d573d6000803e3d6000fd5b505050506040513d601f19601f82011682018060405250810190612591919061303b565b6001600160a01b0316638dba9329348a8a60048111156125ad57fe5b8a6040518563ffffffff1660e01b81526004016125cc93929190613475565b60a0604051808303818588803b1580156125e557600080fd5b505af11580156125f9573d6000803e3d6000fd5b50505050506040513d601f19601f8201168201806040525081019061261e9190613338565b939c929b5090995097509095509350505050565b60005461263f9082612889565b60009081556001600160a01b0383168152600160205260409020546126649082612889565b6001600160a01b0383166000818152600160205260408082209390935591519091907fddf252ad1be2c89b69c2b068fc378daa952ba7f163c4a11628f55a4df523b3ef906126b39085906134b4565b60405180910390a35050565b6dffffffffffffffffffffffffffff82118015906126eb57506dffffffffffffffffffffffffffff8111155b6127075760405162461bcd60e51b81526004016108f5906138de565b600980547fffffffffffffffffffffffffffffffffffff0000000000000000000000000000166dffffffffffffffffffffffffffff848116919091177fffffffff0000000000000000000000000000ffffffffffffffffffffffffffff166e010000000000000000000000000000848316810291909117928390556040517f1c411e9a96e071241c2f21f7726b17ae89e3cab4c78be50e062b03a9fffbbad1936127b99381811693909104169061394c565b60405180910390a15050565b604080516000808252602082019092526001600160a01b0384169083906040516127ef91906133a3565b60006040518083038185875af1925050503d806000811461282c576040519150601f19603f3d011682016040523d82523d6000602084013e612831565b606091505b50509050806128525760405162461bcd60e51b81526004016108f59061384a565b505050565b60008082116128785760405162461bcd60e51b81526004016108f590613635565b81838161288157fe5b049392505050565b600082820183811015610fbf5760405162461bcd60e51b81526004016108f590613590565b6001600160a01b0383166000908152600160205260409020546128d19082612496565b6001600160a01b0380851660009081526001602052604080822093909355908416815220546129009082612889565b6001600160a01b0380841660008181526001602052604090819020939093559151908516907fddf252ad1be2c89b69c2b068fc378daa952ba7f163c4a11628f55a4df523b3ef906124899085906134b4565b6001600160a01b0382166000908152600160205260409020546129759082612496565b6001600160a01b0383166000908152600160205260408120919091555461299c9082612496565b60009081556040516001600160a01b038416907fddf252ad1be2c89b69c2b068fc378daa952ba7f163c4a11628f55a4df523b3ef906126b39085906134b4565b604080518082018252601981527f7472616e7366657228616464726573732c75696e743235362900000000000000602090910152516000906060906001600160a01b038616907fa9059cbb2ab09eb219583f4a59a5d0623ade346d962bcd4e46b11da047c9049b90612a54908790879060240161345c565b60408051601f198184030181529181526020820180517bffffffffffffffffffffffffffffffffffffffffffffffffffffffff167fffffffff00000000000000000000000000000000000000000000000000000000909416939093179092529051612abf91906133a3565b6000604051808303816000865af19150503d8060008114612afc576040519150601f19603f3d011682016040523d82523d6000602084013e612b01565b606091505b5091509150818015612b2b575080511580612b2b575080806020019051810190612b2b919061323b565b612b475760405162461bcd60e51b81526004016108f5906138a7565b5050505050565b60007f00000000000000000000000000000000000000000000000000000000000000006001600160a01b031663e8a353926040518163ffffffff1660e01b815260040160206040518083038186803b158015612ba957600080fd5b505afa158015612bbd573d6000803e3d6000fd5b505050506040513d601f19601f82011682018060405250810190612be1919061303b565b90506001600160a01b038116612bf75750612d11565b6040516370a0823160e01b81526000906001600160a01b038516906370a0823190612c269030906004016133f5565b60206040518083038186803b158015612c3e57600080fd5b505afa158015612c52573d6000803e3d6000fd5b505050506040513d601f19601f82011682018060405250810190612c769190613276565b905080831115612c84578092505b6040517f2e1a7d4d0000000000000000000000000000000000000000000000000000000081526001600160a01b03851690632e1a7d4d90612cc99086906004016134b4565b600060405180830381600087803b158015612ce357600080fd5b505af1158015612cf7573d6000803e3d6000fd5b505050506000831115612d0e57612d0e82846127c5565b50505b5050565b6040517f72b8cbcc0000000000000000000000000000000000000000000000000000000081526000906001600160a01b037f000000000000000000000000000000000000000000000000000000000000000016906372b8cbcc90612d7d9086906004016133f5565b60206040518083038186803b158015612d9557600080fd5b505afa158015612da9573d6000803e3d6000fd5b505050506040513d601f19601f82011682018060405250810190612dcd919061303b565b90506001600160a01b038116612de35750612852565b612d0e8482846040516370a0823160e01b81526000906001600160a01b038516906370a0823190612e189030906004016133f5565b60206040518083038186803b158015612e3057600080fd5b505afa158015612e44573d6000803e3d6000fd5b505050506040513d601f19601f82011682018060405250810190612e689190613276565b905080821115612e76578091505b8115612d0e57612d0e8484846129dc565b6040518060a0016040528060008152602001600081526020016000815260200160008152602001600081525090565b828054600181600116156101000203166002900490600052602060002090601f016020900481019282601f10612ef757805160ff1916838001178555612f24565b82800160010185558215612f24579182015b82811115612f24578251825591602001919060010190612f09565b50612f30929150612f52565b5090565b6040518060a001604052806005906020820280368337509192915050565b5b80821115612f305760008155600101612f53565b600082601f830112612f77578081fd5b813567ffffffffffffffff811115612f8d578182fd5b612fa06020601f19601f84011601613a09565b9150808252836020828501011115612fb757600080fd5b8060208401602084013760009082016020015292915050565b600060a08284031215612fe1578081fd5b612feb60a0613a09565b9050813581526020820135602082015260408201356040820152606082013560608201526080820135608082015292915050565b600060208284031215613030578081fd5b8135610fbf81613a5c565b60006020828403121561304c578081fd5b8151610fbf81613a5c565b60008060408385031215613069578081fd5b823561307481613a5c565b9150602083013561308481613a5c565b809150509250929050565b60008060008060008060c087890312156130a7578182fd5b86356130b281613a5c565b955060208701356130c281613a5c565b9450604087013567ffffffffffffffff808211156130de578384fd5b6130ea8a838b01612f67565b955060608901359150808211156130ff578384fd5b5061310c89828a01612f67565b9350506080870135915060a087013590509295509295509295565b60008060006060848603121561313b578283fd5b833561314681613a5c565b9250602084013561315681613a5c565b929592945050506040919091013590565b600080600080600080600060e0888a031215613181578081fd5b873561318c81613a5c565b9650602088013561319c81613a5c565b95506040880135945060608801359350608088013560ff811681146131bf578182fd5b9699959850939692959460a0840135945060c09093013592915050565b600080604083850312156131ee578182fd5b82356131f981613a5c565b946020939093013593505050565b60008060006060848603121561321b578283fd5b833561322681613a5c565b95602085013595506040909401359392505050565b60006020828403121561324c578081fd5b81518015158114610fbf578182fd5b600060a0828403121561326c578081fd5b610fbf8383612fd0565b600060208284031215613287578081fd5b5051919050565b60008060c083850312156132a0578182fd5b8235915061157a8460208501612fd0565b600080604083850312156132c3578182fd5b50508035926020909101359150565b600080600060e084860312156132e6578081fd5b83359250602084013591506132fe8560408601612fd0565b90509250925092565b6000806000806080858703121561331c578182fd5b5050823594602084013594506040840135936060013592509050565b600080600080600060a0868803121561334f578283fd5b5050835160208501516040860151606087015160809097015192989197509594509092509050565b6000815180845261338f816020860160208601613a30565b601f01601f19169290920160200192915050565b600082516133b5818460208701613a30565b9190910192915050565b7f190100000000000000000000000000000000000000000000000000000000000081526002810192909252602282015260420190565b6001600160a01b0391909116815260200190565b6001600160a01b039485168152928416602084015292166040820152606081019190915260800190565b6001600160a01b0394851681529290931660208301526040820152606081019190915260800190565b6001600160a01b03929092168252602082015260400190565b60006001600160a01b038516825260ff84166020830152606060408301526134a06060830184613377565b95945050505050565b901515815260200190565b90815260200190565b9586526001600160a01b0394851660208701529290931660408501526060840152608083019190915260a082015260c00190565b93845260ff9290921660208401526040830152606082015260800190565b600060208252610fbf6020830184613377565b6020808252600d908201527f43506169723a204c4f434b454400000000000000000000000000000000000000604082015260600190565b60208082526019908201527f4345524332303a20494e56414c49445f5349474e415455524500000000000000604082015260600190565b6020808252601b908201527f536166654d6174683a206164646974696f6e206f766572666c6f770000000000604082015260600190565b6020808252601e908201527f536166654d6174683a207375627472616374696f6e206f766572666c6f770000604082015260600190565b60208082526011908201527f43506169723a20494e56414c49445f544f000000000000000000000000000000604082015260600190565b6020808252601a908201527f536166654d6174683a206469766973696f6e206279207a65726f000000000000604082015260600190565b6020808252601a908201527f43506169723a20696e76616c696420617373657420726174696f000000000000604082015260600190565b60208082526021908201527f536166654d6174683a206d756c7469706c69636174696f6e206f766572666c6f60408201527f7700000000000000000000000000000000000000000000000000000000000000606082015260800190565b6020808252600f908201527f4345524332303a20455850495245440000000000000000000000000000000000604082015260600190565b60208082526015908201527f43506169723a2077726f6e67206f7574546f6b656e0000000000000000000000604082015260600190565b60208082526016908201527f43506169723a20696c6c6567616c20616d6d6f756e7400000000000000000000604082015260600190565b6020808252601d908201527f43506169723a2053484f52545f4c49515549444954595f4255524e4544000000604082015260600190565b6020808252601d908201527f43506169723a2053484f52545f4c49515549444954595f4d494e544544000000604082015260600190565b60208082526010908201527f43506169723a20464f5242494444454e00000000000000000000000000000000604082015260600190565b60208082526023908201527f5472616e7366657248656c7065723a204554485f5452414e534645525f46414960408201527f4c45440000000000000000000000000000000000000000000000000000000000606082015260800190565b60208082526016908201527f43506169723a205452414e534645525f4641494c454400000000000000000000604082015260600190565b6020808252600f908201527f43506169723a204f564552464c4f570000000000000000000000000000000000604082015260600190565b60208082526015908201527f43506169723a2077726f6e6720616d6f756e74496e0000000000000000000000604082015260600190565b6dffffffffffffffffffffffffffff92831681529116602082015260400190565b918252602082015260400190565b92835260208301919091526001600160a01b0316604082015260600190565b9283526020830191909152604082015260600190565b60006101008201905085825260208581840152846040840152606083018460005b60058110156139ee578151835291830191908301906001016139d1565b5050505095945050505050565b60ff91909116815260200190565b60405181810167ffffffffffffffff81118282101715613a2857600080fd5b604052919050565b60005b83811015613a4b578181015183820152602001613a33565b83811115612d0e5750506000910152565b6001600160a01b0381168114613a7157600080fd5b5056fea2646970667358221220854b63f287459d382b47af7ba754f3066c707e7bff71b7ae65a4d7577100846a64736f6c634300060c0033",
  "immutableReferences": {
    "3877": [
      {
        "length": 32,
        "start": 5537
      },
      {
        "length": 32,
        "start": 7042
      },
      {
        "length": 32,
        "start": 8271
      },
      {
        "length": 32,
        "start": 9474
      },
      {
        "length": 32,
        "start": 11090
      },
      {
        "length": 32,
        "start": 11592
      }
    ]
  },
  "source": "// SPDX-License-Identifier: GPL-3.0-or-later\npragma experimental ABIEncoderV2;\npragma solidity 0.6.12;\n\nimport \"./interface/ICoFiXV2Pair.sol\";\nimport \"./interface/ICoFiXV2Factory.sol\";\nimport \"./interface/ICoFiXV2Controller.sol\";\nimport \"./interface/IWETH.sol\";\nimport \"@openzeppelin/contracts/token/ERC20/IERC20.sol\";\nimport \"./CoFiXERC20.sol\";\nimport \"./lib/TransferHelper.sol\";\nimport \"./interface/ICoFiXV2DAO.sol\";\n\n// Pair contract for each trading pair, storing assets and handling settlement\n// No owner or governance\ncontract CoFiXV2Pair is ICoFiXV2Pair, CoFiXERC20 {\n    using SafeMath for uint;\n\n    enum CoFiX_OP { QUERY, MINT, BURN, SWAP_WITH_EXACT, SWAP_FOR_EXACT } // operations in CoFiX\n\n    uint public override constant MINIMUM_LIQUIDITY = 10**9; // it's negligible because we calc liquidity in ETH\n    bytes4 private constant SELECTOR = bytes4(keccak256(bytes(\"transfer(address,uint256)\")));\n\n    uint256 constant public K_BASE = 1E8; // K\n    uint256 constant public NAVPS_BASE = 1E18; // NAVPS (Net Asset Value Per Share), need accuracy\n    uint256 constant public THETA_BASE = 1E8; // theta\n\n    string public name;\n    string public symbol;\n\n    address public override immutable factory;\n    address public override token0; // WETH token\n    address public override token1; // any ERC20 token\n\n    uint112 private reserve0;           // uses single storage slot, accessible via getReserves\n    uint112 private reserve1;           // uses single storage slot, accessible via getReserves\n\n    uint256 public initToken1Amount;\n    uint256 public initToken0Amount;\n\n    uint private unlocked = 1;\n\n    event Mint(address indexed sender, uint amount0, uint amount1);\n    event Burn(address indexed sender, address outToken, uint outAmount, address indexed to);\n    event Swap(\n        address indexed sender,\n        uint amountIn,\n        uint amountOut,\n        address outToken,\n        address indexed to\n    );\n    event Sync(uint112 reserve0, uint112 reserve1);\n\n    modifier lock() {\n        require(unlocked == 1, \"CPair: LOCKED\");\n        unlocked = 0;\n        _;\n        unlocked = 1;\n    }\n\n    constructor() public {\n        factory = msg.sender;\n    }\n\n    receive() external payable {}\n\n    // called once by the factory at time of deployment\n    function initialize(address _token0, address _token1, string memory _name, string memory _symbol, uint256 _initToken0Amount, uint256 _initToken1Amount) external override {\n        require(msg.sender == factory, \"CPair: FORBIDDEN\"); // sufficient check\n        token0 = _token0;\n        token1 = _token1;\n        name = _name;\n        symbol = _symbol;\n        initToken1Amount = _initToken1Amount;\n        initToken0Amount = _initToken0Amount;\n    }\n\n    function getInitialAssetRatio() public override view returns (uint256 _initToken0Amount, uint256 _initToken1Amount) {\n        _initToken1Amount = initToken1Amount;\n        _initToken0Amount = initToken0Amount;\n    }\n\n    function getReserves() public override view returns (uint112 _reserve0, uint112 _reserve1) {\n        _reserve0 = reserve0;\n        _reserve1 = reserve1;\n    }\n\n    function _safeTransfer(address token, address to, uint value) private {\n        (bool success, bytes memory data) = token.call(abi.encodeWithSelector(SELECTOR, to, value));\n        require(success && (data.length == 0 || abi.decode(data, (bool))), \"CPair: TRANSFER_FAILED\");\n    }\n\n    // update reserves\n    function _update(uint balance0, uint balance1) private {\n        require(balance0 <= uint112(-1) && balance1 <= uint112(-1), \"CPair: OVERFLOW\");\n        reserve0 = uint112(balance0);\n        reserve1 = uint112(balance1);\n        emit Sync(reserve0, reserve1);\n    }\n\n    // this low-level function should be called from a contract which performs important safety checks\n    function mint(address to, uint amountETH, uint amountToken) external payable override lock returns (uint liquidity, uint oracleFeeChange) {\n        address _token0 = token0;                                // gas savings\n        address _token1 = token1;                                // gas savings\n        (uint112 _reserve0, uint112 _reserve1) = getReserves(); // gas savings\n        uint balance0 = IERC20(_token0).balanceOf(address(this));\n        uint balance1 = IERC20(_token1).balanceOf(address(this));\n        uint amount0 = balance0.sub(_reserve0);\n        uint amount1 = balance1.sub(_reserve1);\n\n        require(amountETH <= amount0 && amountToken <= amount1, \"CPair: illegal ammount\");\n        \n        amount0 = amountETH;\n        amount1 = amountToken;\n        require(amount0.mul(initToken1Amount) == amount1.mul(initToken0Amount), \"CPair: invalid asset ratio\");\n        \n        uint256 _ethBalanceBefore = address(this).balance;\n        { // scope for ethAmount/erc20Amount/blockNum to avoid stack too deep error\n            bytes memory data = abi.encode(msg.sender, to, amount0, amount1);\n            // query price\n            OraclePrice memory _op;\n            (_op.K, _op.ethAmount, _op.erc20Amount, _op.blockNum, _op.theta) = _queryOracle(_token1, CoFiX_OP.MINT, data);\n            uint256 navps = calcNAVPerShare(_reserve0, _reserve1, _op.ethAmount, _op.erc20Amount);\n            if (totalSupply == 0) {\n                liquidity = calcLiquidity(amount0, navps).sub(MINIMUM_LIQUIDITY);\n                _mint(address(0), MINIMUM_LIQUIDITY); // permanently lock the first MINIMUM_LIQUIDITY tokens\n            } else {\n                liquidity = calcLiquidity(amount0, navps);\n            }\n        }\n        oracleFeeChange = msg.value.sub(_ethBalanceBefore.sub(address(this).balance));\n\n        require(liquidity > 0, \"CPair: SHORT_LIQUIDITY_MINTED\");\n        _mint(to, liquidity);\n\n        _update(balance0, balance1);\n        if (oracleFeeChange > 0) TransferHelper.safeTransferETH(msg.sender, oracleFeeChange);\n\n        emit Mint(msg.sender, amount0, amount1);\n    }\n\n    // this low-level function should be called from a contract which performs important safety checks\n    function burn(address tokenTo, address ethTo) external payable override lock returns (uint amountTokenOut, uint amountEthOut, uint oracleFeeChange) {\n        address _token0 = token0;                                // gas savings\n        address _token1 = token1;                                // gas savings\n        uint balance0 = IERC20(_token0).balanceOf(address(this));\n        uint balance1 = IERC20(_token1).balanceOf(address(this));\n        uint liquidity = balanceOf[address(this)];\n\n        uint256 _ethBalanceBefore = address(this).balance;\n        // uint256 fee;\n        {\n            bytes memory data = abi.encode(msg.sender, liquidity);\n            // query price\n            OraclePrice memory _op;\n            (_op.K, _op.ethAmount, _op.erc20Amount, _op.blockNum, _op.theta) = _queryOracle(_token1, CoFiX_OP.BURN, data);\n\n            (amountTokenOut, amountEthOut) = calcOutTokenAndETHForBurn(liquidity, _op); // navps calculated\n        }\n        oracleFeeChange = msg.value.sub(_ethBalanceBefore.sub(address(this).balance));\n\n        require(amountTokenOut > 0 && amountEthOut > 0, \"CPair: SHORT_LIQUIDITY_BURNED\");\n\n        _burn(address(this), liquidity);\n        _safeTransfer(_token1, tokenTo, amountTokenOut);\n        _safeTransfer(_token0, ethTo, amountEthOut);\n\n        // if (fee > 0) {\n        //     if (ICoFiXV2Factory(factory).getTradeMiningStatus(_token1)) {\n        //         // only transfer fee to protocol feeReceiver when trade mining is enabled for this trading pair\n        //         _safeSendFeeForDAO(_token0, fee);\n        //     } else {\n        //         _safeSendFeeForLP(_token0, _token1, fee);\n        //     }\n        // }\n\n        balance0 = IERC20(_token0).balanceOf(address(this));\n        balance1 = IERC20(_token1).balanceOf(address(this));\n\n        _update(balance0, balance1);\n        if (oracleFeeChange > 0) TransferHelper.safeTransferETH(msg.sender, oracleFeeChange);\n\n        emit Burn(msg.sender, _token0, amountEthOut, ethTo);\n        emit Burn(msg.sender, _token1, amountTokenOut, tokenTo);\n    }\n\n    // this low-level function should be called from a contract which performs important safety checks\n    function swapWithExact(address outToken, address to)\n        external\n        payable override lock\n        returns (uint amountIn, uint amountOut, uint oracleFeeChange, uint256[5] memory tradeInfo)\n    {\n        // tradeInfo[0]: thetaFee, tradeInfo[1]: ethAmount, tradeInfo[2]: erc20Amount\n        address _token0 = token0;\n        address _token1 = token1;\n        uint256 balance0 = IERC20(_token0).balanceOf(address(this));\n        uint256 balance1 = IERC20(_token1).balanceOf(address(this));\n\n        // uint256 fee;\n        { // scope for ethAmount/erc20Amount/blockNum to avoid stack too deep error\n            uint256 _ethBalanceBefore = address(this).balance;\n            (uint112 _reserve0, uint112 _reserve1) = getReserves(); // gas savings\n\n            // calc amountIn\n            if (outToken == _token1) {\n                amountIn = balance0.sub(_reserve0);\n            } else if (outToken == _token0) {\n                amountIn = balance1.sub(_reserve1);\n            } else {\n                revert(\"CPair: wrong outToken\");\n            }\n            require(amountIn > 0, \"CPair: wrong amountIn\");\n            bytes memory data = abi.encode(msg.sender, outToken, to, amountIn);\n            // query price\n            OraclePrice memory _op;\n            (_op.K, _op.ethAmount, _op.erc20Amount, _op.blockNum, _op.theta) = _queryOracle(_token1, CoFiX_OP.SWAP_WITH_EXACT, data);\n            \n            if (outToken == _token1) {\n                (amountOut, tradeInfo[0]) = calcOutToken1(amountIn, _op);\n            } else if (outToken == _token0) {\n                (amountOut, tradeInfo[0]) = calcOutToken0(amountIn, _op);\n            }\n            oracleFeeChange = msg.value.sub(_ethBalanceBefore.sub(address(this).balance));\n            tradeInfo[1] = _op.ethAmount;\n            tradeInfo[2] = _op.erc20Amount;\n        }\n        \n        require(to != _token0 && to != _token1, \"CPair: INVALID_TO\");\n\n        _safeTransfer(outToken, to, amountOut); // optimistically transfer tokens\n        if (tradeInfo[0] > 0) {\n            if (ICoFiXV2Factory(factory).getTradeMiningStatus(_token1)) {\n                // only transfer fee to protocol feeReceiver when trade mining is enabled for this trading pair\n                _safeSendFeeForDAO(_token0, tradeInfo[0]);\n            } else {\n                _safeSendFeeForLP(_token0, _token1, tradeInfo[0]);\n                tradeInfo[0] = 0; // so router won't go into the trade mining logic (reduce one more call gas cost)\n            }\n        }\n        balance0 = IERC20(_token0).balanceOf(address(this));\n        balance1 = IERC20(_token1).balanceOf(address(this));\n\n        _update(balance0, balance1);\n        if (oracleFeeChange > 0) TransferHelper.safeTransferETH(msg.sender, oracleFeeChange);\n\n        emit Swap(msg.sender, amountIn, amountOut, outToken, to);\n    }\n\n    // this low-level function should be called from a contract which performs important safety checks\n    // function swapForExact(address outToken, uint amountOutExact, address to)\n    //     external\n    //     payable override lock\n    //     returns (uint amountIn, uint amountOut, uint oracleFeeChange, uint256[4] memory tradeInfo)\n    // {\n    //     // tradeInfo[0]: thetaFee, tradeInfo[1]: x, tradeInfo[2]: y, tradeInfo[3]: navps\n    //     address _token0 = token0;\n    //     address _token1 = token1;\n    //     OraclePrice memory _op;\n\n    //     // uint256 fee;\n\n    //     { // scope for ethAmount/erc20Amount/blockNum to avoid stack too deep error\n    //         uint256 _ethBalanceBefore = address(this).balance;\n    //         bytes memory data = abi.encode(msg.sender, outToken, amountOutExact, to);\n    //         // query price\n    //         (_op.K, _op.ethAmount, _op.erc20Amount, _op.blockNum, _op.theta) = _queryOracle(_token1, CoFiX_OP.SWAP_FOR_EXACT, data);\n    //         oracleFeeChange = msg.value.sub(_ethBalanceBefore.sub(address(this).balance));\n    //     }\n\n    //     { // calc and check amountIn, also outToken\n    //         uint256 balance0 = IERC20(_token0).balanceOf(address(this));\n    //         uint256 balance1 = IERC20(_token1).balanceOf(address(this));\n    //         (uint112 _reserve0, uint112 _reserve1) = getReserves(); // gas savings\n     \n    //         if (outToken == _token1) {\n    //             amountIn = balance0.sub(_reserve0);\n    //             tradeInfo[1] = _reserve0; // swap token0 for token1 out\n    //             tradeInfo[2] = uint256(_reserve1).mul(_op.ethAmount).div(_op.erc20Amount); // _reserve1 value as _reserve0\n    //         } else if (outToken == _token0) {\n    //             amountIn = balance1.sub(_reserve1);\n    //             tradeInfo[1] = uint256(_reserve1).mul(_op.ethAmount).div(_op.erc20Amount); // _reserve1 value as _reserve0\n    //             tradeInfo[2] = _reserve0; // swap token1 for token0 out\n    //         } else {\n    //             revert(\"CPair: wrong outToken\");\n    //         }\n    //         require(amountIn > 0, \"CPair: wrong amountIn\");\n    //         tradeInfo[3] = calcNAVPerShare(_reserve0, _reserve1, _op.ethAmount, _op.erc20Amount);\n    //     }\n\n    //     { // split with branch upbove to make code more clear\n    //         uint _amountInNeeded;\n    //         uint _amountInLeft;\n    //         if (outToken == _token1) {\n    //             (_amountInNeeded, tradeInfo[0]) = calcInNeededToken0(amountOutExact, _op);\n    //             _amountInLeft = amountIn.sub(_amountInNeeded);\n    //             if (_amountInLeft > 0) {\n    //                 _safeTransfer(_token0, to, _amountInLeft); // send back the amount0 token change\n    //             }\n    //         } else if (outToken == _token0) {\n    //             (_amountInNeeded, tradeInfo[0]) = calcInNeededToken1(amountOutExact, _op);\n    //             _amountInLeft = amountIn.sub(_amountInNeeded);\n    //             if (_amountInLeft > 0) {\n    //                 _safeTransfer(_token1, to, _amountInLeft); // send back the amount1 token change\n    //             }\n    //         }\n    //         require(_amountInNeeded <= amountIn, \"CPair: insufficient amountIn\");\n    //         require(_amountInNeeded > 0, \"CPair: wrong amountIn needed\");\n    //     }\n        \n    //     {\n    //         require(to != _token0 && to != _token1, \"CPair: INVALID_TO\");\n\n    //         amountOut = amountOutExact;\n    //         _safeTransfer(outToken, to, amountOut); // optimistically transfer tokens\n    //         if (tradeInfo[0] > 0) {\n    //             if (ICoFiXFactory02(factory).getTradeMiningStatus(_token1)) {\n    //                 // only transfer fee to protocol feeReceiver when trade mining is enabled for this trading pair\n    //                 _safeSendFeeForCoFiHolder(_token0, tradeInfo[0]);\n    //             } else {\n    //                 _safeSendFeeForLP(_token0, _token1, tradeInfo[0]);\n    //                 tradeInfo[0] = 0; // so router won't go into the trade mining logic (reduce one more call gas cost)\n    //             }\n    //         }\n    //         uint256 balance0 = IERC20(_token0).balanceOf(address(this));\n    //         uint256 balance1 = IERC20(_token1).balanceOf(address(this));\n\n    //         _update(balance0, balance1);\n    //         if (oracleFeeChange > 0) TransferHelper.safeTransferETH(msg.sender, oracleFeeChange);\n    //     }\n\n    //     emit Swap(msg.sender, amountIn, amountOut, outToken, to);\n    // }\n\n    // force balances to match reserves\n    function skim(address to) external override lock {\n        address _token0 = token0; // gas savings\n        address _token1 = token1; // gas savings\n        _safeTransfer(_token0, to, IERC20(_token0).balanceOf(address(this)).sub(reserve0));\n        _safeTransfer(_token1, to, IERC20(_token1).balanceOf(address(this)).sub(reserve1));\n    }\n\n    // force reserves to match balances\n    function sync() external override lock {\n        _update(IERC20(token0).balanceOf(address(this)), IERC20(token1).balanceOf(address(this)));\n    }\n\n    // calc Net Asset Value Per Share for mint\n    // use it in this contract, for optimized gas usage\n    function calcNAVPerShareForMint(uint256 balance0, uint256 balance1, OraclePrice memory _op) public view returns (uint256 navps) {\n        uint _totalSupply = totalSupply;\n        if (_totalSupply == 0) {\n            navps = NAVPS_BASE;\n        } else {\n            /*\n            N_{p} &= (A_{u}/P_{s}^{'} + A_{e})/S \\\\\\\\\n                  &= (A_{u}/(P * (1 - K)) + A_{e})/S \\\\\\\\\n                  &= (\\frac{A_{u}}{\\frac{erc20Amount}{ethAmount} * \\frac{(k_{BASE} - k)}{(k_{BASE})}} + A_{e})/S \\\\\\\\\n                  &= (\\frac{A_{u}*ethAmount*k_{BASE}}{erc20Amount*(k_{BASE} - k)}+ A_{e}) / S \\\\\\\\\n                  &= (A_{u}*ethAmount*k_{BASE}+ A_{e}*erc20Amount*(k_{BASE} - k)) / S / (erc20Amount*(k_{BASE} - k)) \\\\\\\\\n            N_{p} &= NAVPS_{BASE}*(A_{u}*ethAmount*k_{BASE}+ A_{e}*erc20Amount*(k_{BASE} - k)) / S / (erc20Amount*(k_{BASE} - k)) \\\\\\\\\n            // navps = NAVPS_BASE * ( (balance1*_op.ethAmount*K_BASE) + (balance0*_op.erc20Amount*(K_BASE-_op.K)) ) / _totalSupply / _op.erc20Amount / (K_BASE-_op.K);\n            */\n            uint256 kbaseSubK = K_BASE.sub(_op.K);\n            uint256 balance1MulEthKbase = balance1.mul(_op.ethAmount).mul(K_BASE);\n            uint256 balance0MulErcKbsk = balance0.mul(_op.erc20Amount).mul(kbaseSubK);\n            navps = NAVPS_BASE.mul( (balance1MulEthKbase).add(balance0MulErcKbsk) ).div(_totalSupply).div(_op.erc20Amount).div(kbaseSubK);\n        }\n    }\n\n    // calc Net Asset Value Per Share for burn\n    // use it in this contract, for optimized gas usage\n    function calcNAVPerShareForBurn(uint256 balance0, uint256 balance1, OraclePrice memory _op) public view returns (uint256 navps) {\n        uint _totalSupply = totalSupply;\n        if (_totalSupply == 0) {\n            navps = NAVPS_BASE;\n        } else {\n            /*\n            N_{p}^{'} &= (A_{u}/P_{b}^{'} + A_{e})/S \\\\\\\\\n                      &= (A_{u}/(P * (1 + K)) + A_{e})/S \\\\\\\\\n                      &= (\\frac{A_{u}}{\\frac{erc20Amount}{ethAmount} * \\frac{(k_{BASE} + k)}{(k_{BASE})}} + A_{e})/S \\\\\\\\\n                      &= (\\frac{A_{u}*ethAmount*k_{BASE}}{erc20Amount*(k_{BASE} + k)}+ A_{e}) / S \\\\\\\\\n                      &= (A_{u}*ethAmount*k_{BASE}+ A_{e}*erc20Amount*(k_{BASE} + k)) / S / (erc20Amount*(k_{BASE} + k)) \\\\\\\\\n            N_{p}^{'} &= NAVPS_{BASE}*(A_{u}*ethAmount*k_{BASE}+ A_{e}*erc20Amount*(k_{BASE} + k)) / S / (erc20Amount*(k_{BASE} + k)) \\\\\\\\\n            // navps = NAVPS_BASE * ( (balance1*_op.ethAmount*K_BASE) + (balance0*_op.erc20Amount*(K_BASE+_op.K)) ) / _totalSupply / _op.erc20Amount / (K_BASE+_op.K);\n            */\n            uint256 kbaseAddK = K_BASE.add(_op.K);\n            uint256 balance1MulEthKbase = balance1.mul(_op.ethAmount).mul(K_BASE);\n            uint256 balance0MulErcKbsk = balance0.mul(_op.erc20Amount).mul(kbaseAddK);\n            navps = NAVPS_BASE.mul( (balance1MulEthKbase).add(balance0MulErcKbsk) ).div(_totalSupply).div(_op.erc20Amount).div(kbaseAddK);\n        }\n    }\n\n    // calc Net Asset Value Per Share (no K)\n    // use it in this contract, for optimized gas usage\n    function calcNAVPerShare(uint256 balance0, uint256 balance1, uint256 ethAmount, uint256 erc20Amount) public view returns (uint256 navps) {\n        uint _totalSupply = totalSupply;\n        if (_totalSupply == 0) {\n            navps = NAVPS_BASE;\n        } else {\n            /*\n            NV  = \\frac{E_t + U_t/P_t}{(1 + \\frac{k_0}{P_t})*F_t}\\\\\\\\\n                = \\frac{E_t + U_t * \\frac{ethAmount}{erc20Amount}}{(1 + \\frac{initToken1Amount}{initToken0Amount} * \\frac{ethAmount}{erc20Amount})*F_t}\\\\\\\\\n                = \\frac{E_t * erc20Amount + U_t * ethAmount}{(erc20Amount + \\frac{initToken1Amount * ethAmount}{initToken0Amount}) * F_t}\\\\\\\\\n                = \\frac{E_t * erc20Amount * initToken0Amount + U_t * ethAmount * initToken0Amount}{( erc20Amount * initToken0Amount + initToken1Amount * ethAmount) * F_t} \\\\\\\\\n                = \\frac{balance0 * erc20Amount * initToken0Amount + balance1 * ethAmount * initToken0Amount}{(erc20Amount * initToken0Amount + initToken1Amount * ethAmount) * totalSupply}\n             */\n            uint256 balance0MulErc20AmountMulInitToken0Amount = balance0.mul(erc20Amount).mul(initToken0Amount);\n            uint256 balance1MulEthAmountMulInitToken0Amount = balance1.mul(ethAmount).mul(initToken0Amount);\n            uint256 initToken1AmountMulEthAmount = initToken1Amount.mul(ethAmount);\n            uint256 initToken0AmountMulErc20Amount = erc20Amount.mul(initToken0Amount);\n\n            navps = (balance0MulErc20AmountMulInitToken0Amount.add(balance1MulEthAmountMulInitToken0Amount))\n                        .div(_totalSupply).mul(NAVPS_BASE)\n                        .div(initToken1AmountMulEthAmount.add(initToken0AmountMulErc20Amount));\n        }\n    }\n\n    // use it in this contract, for optimized gas usage\n    function calcLiquidity(uint256 amount0, uint256 navps) public pure returns (uint256 liquidity) {\n        liquidity = amount0.mul(NAVPS_BASE).div(navps);\n    }\n\n    // get Net Asset Value Per Share for mint\n    // only for read, could cost more gas if use it directly in contract\n    function getNAVPerShareForMint(OraclePrice memory _op) public view returns (uint256 navps) {\n        return calcNAVPerShare(reserve0, reserve1, _op.ethAmount, _op.erc20Amount);\n    }\n\n    // get Net Asset Value Per Share for burn\n    // only for read, could cost more gas if use it directly in contract\n    function getNAVPerShareForBurn(OraclePrice memory _op) external view returns (uint256 navps) {\n        return calcNAVPerShare(reserve0, reserve1, _op.ethAmount, _op.erc20Amount);\n    }\n\n    // get Net Asset Value Per Share\n    // only for read, could cost more gas if use it directly in contract\n    function getNAVPerShare(uint256 ethAmount, uint256 erc20Amount) external override view returns (uint256 navps) {\n        return calcNAVPerShare(reserve0, reserve1, ethAmount, erc20Amount);\n    }\n\n    // get estimated liquidity amount (it represents the amount of pool tokens will be minted if someone provide liquidity to the pool)\n    // only for read, could cost more gas if use it directly in contract\n    function getLiquidity(uint256 amount0, OraclePrice memory _op) external view returns (uint256 liquidity) {\n        uint256 navps = getNAVPerShareForMint(_op);\n        return calcLiquidity(amount0, navps);\n    }\n\n    function calcOutTokenAndETHForBurn(uint256 liquidity, OraclePrice memory _op) public view returns (uint256 amountTokenOut, uint256 amountEthOut) {\n        // amountEthOut = liquidity * navps * (THETA_BASE - theta) / THETA_BASE\n        // amountTokenOut = liquidity * navps * (THETA_BASE - theta) * initToken1Amount / (initToken0Amount * THETA_BASE)\n        uint256 navps;\n        {\n            navps = calcNAVPerShare(reserve0, reserve1, _op.ethAmount, _op.erc20Amount);\n            uint256 amountEth = liquidity.mul(navps);\n\n            uint256 amountEthOutLarge = amountEth.mul(THETA_BASE.sub(_op.theta));\n            amountEthOut = amountEthOutLarge.div(NAVPS_BASE).div(THETA_BASE);\n            amountTokenOut = amountEthOutLarge.mul(initToken1Amount).div(NAVPS_BASE).div(initToken0Amount).div(THETA_BASE);\n            // amountTokenOut = amountEthOut.mul(initToken1Amount).div(initToken0Amount);\n        }\n\n        // if (_op.theta != 0) {\n            \n        //     fee = liquidity * navps * (1 + \\frac{k_0}{P_t}) * theta \\\\\\\\\n        //         = \\frac{liquidity * navps * (1 + \\frac{initToken1Amount}{initToken0Amount} * \\frac{ethAmount}{erc20Amount}) * theta}{NAVPS\\_BASE * THETA\\_BASE}\\\\\\\\\n        //         = \\frac{liquidity * navps * (initToken0Amount * erc20Amount + initToken1Amount * ethAmount) * theta}{initToken0Amount * erc20Amount * NAVPS\\_BASE * THETA\\_BASE}\n             \n        //     {\n        //         uint256 initToken1AmountMulEthAmount = initToken1Amount.mul(_op.ethAmount);\n        //         uint256 erc20AmountMulInitToken0Amount = _op.erc20Amount.mul(initToken0Amount);\n        //         fee = navps.mul(initToken1AmountMulEthAmount.add(erc20AmountMulInitToken0Amount)).div(erc20AmountMulInitToken0Amount).mul(liquidity).mul(_op.theta).div(THETA_BASE).div(NAVPS_BASE);\n        //     }\n        // }\n\n        // recalc amountOut when has no enough reserve0 or reserve1 to out in initAssetRatio\n        {\n            if (amountEthOut > reserve0) {\n                // user first, out eth as much as possibile. And may leave over a few amounts of reserve1. \n                uint256 amountEthInsufficient = amountEthOut - reserve0;\n                uint256 amountTokenEquivalent = amountEthInsufficient.mul(_op.erc20Amount).div(_op.ethAmount);\n                amountTokenOut = amountTokenOut.add(amountTokenEquivalent);\n                if (amountTokenOut > reserve1) {\n                    amountTokenOut = reserve1;\n                }\n                amountEthOut = reserve0;\n\n                // protocol first, eth was firstly used to pay fee. And when reserve0 is enough for fee, the reserves can clear as much as possible.\n                // if (fee > reserve0) {\n                //     fee = reserve0;\n                // }\n                // uint256 amountEthInsufficient = amountEthOut - (reserve0 - fee);\n                // uint256 amountTokenEquivalent = amountEthInsufficient.mul(_op.erc20Amount).div(_op.ethAmount);\n                // amountTokenOut = amountTokenOut.add(amountTokenEquivalent);\n                // if (amountTokenOut > reserve1) {\n                //     amountTokenOut = reserve1;\n                // }\n                // amountEthOut = reserve0 - fee;    \n            } else if (amountTokenOut > reserve1) {\n                uint256 amountTokenInsufficient = amountTokenOut - reserve1;\n                uint256 amountEthEquivalent = amountTokenInsufficient.mul(_op.ethAmount).div(_op.erc20Amount);\n                amountEthOut = amountEthOut.add(amountEthEquivalent);\n                if (amountEthOut > reserve0) {\n                    amountEthOut = reserve0;\n                }\n                amountTokenOut = reserve1;\n            }\n        }   \n    }\n\n    // get estimated amountOut for token0 (WETH) when swapWithExact\n    function calcOutToken0(uint256 amountIn, OraclePrice memory _op) public pure returns (uint256 amountOut, uint256 fee) {\n        /*\n        x &= (a/P_{b}^{'})*\\frac{THETA_{BASE} - \\theta}{THETA_{BASE}} \\\\\\\\\n          &= a / (\\frac{erc20Amount}{ethAmount} * \\frac{(k_{BASE} + k)}{(k_{BASE})}) * \\frac{THETA_{BASE} - \\theta}{THETA_{BASE}} \\\\\\\\\n          &= \\frac{a*ethAmount*k_{BASE}}{erc20Amount*(k_{BASE} + k)} * \\frac{THETA_{BASE} - \\theta}{THETA_{BASE}} \\\\\\\\\n          &= \\frac{a*ethAmount*k_{BASE}*(THETA_{BASE} - \\theta)}{erc20Amount*(k_{BASE} + k)*THETA_{BASE}} \\\\\\\\\n        // amountOut = amountIn * _op.ethAmount * K_BASE * (THETA_BASE - _op.theta) / _op.erc20Amount / (K_BASE + _op.K) / THETA_BASE;\n        */\n        amountOut = amountIn.mul(_op.ethAmount).mul(K_BASE).mul(THETA_BASE.sub(_op.theta)).div(_op.erc20Amount).div(K_BASE.add(_op.K)).div(THETA_BASE);\n        if (_op.theta != 0) {\n            // fee = amountIn * _op.ethAmount * K_BASE * (_op.theta) / _op.erc20Amount / (K_BASE + _op.K) / THETA_BASE;\n            fee = amountIn.mul(_op.ethAmount).mul(K_BASE).mul(_op.theta).div(_op.erc20Amount).div(K_BASE.add(_op.K)).div(THETA_BASE);\n        }\n        return (amountOut, fee);\n    }\n\n    // get estimated amountOut for token1 (ERC20 token) when swapWithExact\n    function calcOutToken1(uint256 amountIn, OraclePrice memory _op) public pure returns (uint256 amountOut, uint256 fee) {\n        /*\n        y &= b*P_{s}^{'}*\\frac{THETA_{BASE} - \\theta}{THETA_{BASE}} \\\\\\\\\n          &= b * \\frac{erc20Amount}{ethAmount} * \\frac{(k_{BASE} - k)}{(k_{BASE})} * \\frac{THETA_{BASE} - \\theta}{THETA_{BASE}} \\\\\\\\\n          &= \\frac{b*erc20Amount*(k_{BASE} - k)*(THETA_{BASE} - \\theta)}{ethAmount*k_{BASE}*THETA_{BASE}} \\\\\\\\\n        // amountOut = amountIn * _op.erc20Amount * (K_BASE - _op.K) * (THETA_BASE - _op.theta) / _op.ethAmount / K_BASE / THETA_BASE;\n        */\n        amountOut = amountIn.mul(_op.erc20Amount).mul(K_BASE.sub(_op.K)).mul(THETA_BASE.sub(_op.theta)).div(_op.ethAmount).div(K_BASE).div(THETA_BASE);\n        if (_op.theta != 0) {\n            // fee = amountIn * _op.theta / THETA_BASE;\n            fee = amountIn.mul(_op.theta).div(THETA_BASE);\n        }\n        return (amountOut, fee);\n    }\n\n    // get estimate amountInNeeded for token0 (WETH) when swapForExact\n    function calcInNeededToken0(uint256 amountOut, OraclePrice memory _op) public pure returns (uint256 amountInNeeded, uint256 fee) {\n        // inverse of calcOutToken1\n        // amountOut = amountIn.mul(_op.erc20Amount).mul(K_BASE.sub(_op.K)).mul(THETA_BASE.sub(_op.theta)).div(_op.ethAmount).div(K_BASE).div(THETA_BASE);\n        amountInNeeded = amountOut.mul(_op.ethAmount).mul(K_BASE).mul(THETA_BASE).div(_op.erc20Amount).div(K_BASE.sub(_op.K)).div(THETA_BASE.sub(_op.theta));\n        if (_op.theta != 0) {\n            // fee = amountIn * _op.theta / THETA_BASE;\n            fee = amountInNeeded.mul(_op.theta).div(THETA_BASE);\n        }\n        return (amountInNeeded, fee);\n    }\n\n    // get estimate amountInNeeded for token1 (ERC20 token) when swapForExact\n    function calcInNeededToken1(uint256 amountOut, OraclePrice memory _op) public pure returns (uint256 amountInNeeded, uint256 fee) {\n        // inverse of calcOutToken0\n        // amountOut = amountIn.mul(_op.ethAmount).mul(K_BASE).mul(THETA_BASE.sub(_op.theta)).div(_op.erc20Amount).div(K_BASE.add(_op.K)).div(THETA_BASE);\n        amountInNeeded = amountOut.mul(_op.erc20Amount).mul(K_BASE.add(_op.K)).mul(THETA_BASE).div(_op.ethAmount).div(K_BASE).div(THETA_BASE.sub(_op.theta));\n        if (_op.theta != 0) {\n            // fee = amountIn * _op.ethAmount * K_BASE * (_op.theta) / _op.erc20Amount / (K_BASE + _op.K) / THETA_BASE;\n            fee = amountInNeeded.mul(_op.ethAmount).mul(K_BASE).mul(_op.theta).div(_op.erc20Amount).div(K_BASE.add(_op.K)).div(THETA_BASE);\n        }\n        return (amountInNeeded, fee);\n    }\n\n    function _queryOracle(address token, CoFiX_OP op, bytes memory data) internal returns (uint256, uint256, uint256, uint256, uint256) {\n        return ICoFiXV2Controller(ICoFiXV2Factory(factory).getController()).queryOracle{value: msg.value}(token, uint8(op), data);\n    }\n\n    function _safeSendFeeForDAO(address _token0, uint256 _fee) internal {\n        address feeReceiver = ICoFiXV2Factory(factory).getFeeReceiver();\n        if (feeReceiver == address(0)) {\n            return; // if feeReceiver not set, theta fee keeps in pair pool\n        }\n        uint256 bal = IWETH(_token0).balanceOf(address(this));\n        if (_fee > bal) {\n            _fee = bal;\n        }\n\n        IWETH(_token0).withdraw(_fee);\n        if (_fee > 0) TransferHelper.safeTransferETH(feeReceiver, _fee); // transfer fee to protocol dao for redeem Cofi\n        // ICoFiXV2DAO(dao).addETHReward{value: _fee}(); \n    }\n\n    // // Safe WETH transfer function, just in case not having enough WETH. CoFi holder will earn these fees.\n    // function _safeSendFeeForCoFiHolder(address _token0, uint256 _fee) internal {\n    //     address feeReceiver = ICoFiXV2Factory(factory).getFeeReceiver();\n    //     if (feeReceiver == address(0)) {\n    //         return; // if feeReceiver not set, theta fee keeps in pair pool\n    //     }\n    //     _safeSendFee(_token0, feeReceiver, _fee); // transfer fee to protocol fee reward pool for CoFi holders\n    // }\n\n    // Safe WETH transfer function, just in case not having enough WETH. LP will earn these fees.\n    function _safeSendFeeForLP(address _token0, address _token1, uint256 _fee) internal {\n        address feeVault = ICoFiXV2Factory(factory).getFeeVaultForLP(_token1);\n        if (feeVault == address(0)) {\n            return; // if fee vault not set, theta fee keeps in pair pool\n        }\n        _safeSendFee(_token0, feeVault, _fee); // transfer fee to protocol fee reward pool for LP\n    }\n\n    function _safeSendFee(address _token0, address _receiver, uint256 _fee) internal {\n        uint256 wethBal = IERC20(_token0).balanceOf(address(this));\n        if (_fee > wethBal) {\n            _fee = wethBal;\n        }\n        if (_fee > 0) _safeTransfer(_token0, _receiver, _fee); \n    }\n}\n//  & CoFi Rocks\n",
  "sourcePath": "/Users/lixiansheng/Downloads/cofix2/contracts/CoFiXV2Pair.sol",
  "compiler": {
    "name": "solc",
    "version": "0.6.12+commit.27d51765.Emscripten.clang"
  },
  "schemaVersion": "3.3.3",
  "updatedAt": "2021-05-14T10:59:44.999Z",
  "networkType": "ethereum",
  "devdoc": {
    "kind": "dev",
    "methods": {
      "getInitialAssetRatio()": {
        "details": "get initial asset ratio",
        "returns": {
          "_initToken0Amount": "Token0(ETH) side of initial asset ratio {ETH <-> ERC20 Token}",
          "_initToken1Amount": "Token1(ERC20) side of initial asset ratio {ETH <-> ERC20 Token}"
        }
      },
      "getNAVPerShare(uint256,uint256)": {
        "details": "get Net Asset Value Per Share",
        "params": {
          "erc20Amount": "Token side of Oracle price {ETH <-> ERC20 Token}",
          "ethAmount": "ETH side of Oracle price {ETH <-> ERC20 Token}"
        },
        "returns": {
          "navps": "The Net Asset Value Per Share (liquidity) represents"
        }
      }
    },
    "version": 1
  },
  "userdoc": {
    "kind": "user",
    "methods": {},
    "version": 1
  }
}