{
  "contractName": "CoFiXFactory",
  "abi": [
    {
      "inputs": [
        {
          "internalType": "address",
          "name": "_WETH",
          "type": "address"
        }
      ],
      "stateMutability": "nonpayable",
      "type": "constructor"
    },
    {
      "anonymous": false,
      "inputs": [
        {
          "indexed": false,
          "internalType": "address",
          "name": "_new",
          "type": "address"
        }
      ],
      "name": "NewController",
      "type": "event"
    },
    {
      "anonymous": false,
      "inputs": [
        {
          "indexed": false,
          "internalType": "address",
          "name": "_new",
          "type": "address"
        }
      ],
      "name": "NewFeeReceiver",
      "type": "event"
    },
    {
      "anonymous": false,
      "inputs": [
        {
          "indexed": false,
          "internalType": "address",
          "name": "token",
          "type": "address"
        },
        {
          "indexed": false,
          "internalType": "address",
          "name": "feeVault",
          "type": "address"
        }
      ],
      "name": "NewFeeVaultForLP",
      "type": "event"
    },
    {
      "anonymous": false,
      "inputs": [
        {
          "indexed": false,
          "internalType": "address",
          "name": "_new",
          "type": "address"
        }
      ],
      "name": "NewGovernance",
      "type": "event"
    },
    {
      "anonymous": false,
      "inputs": [
        {
          "indexed": false,
          "internalType": "address",
          "name": "_new",
          "type": "address"
        }
      ],
      "name": "NewVaultForCNode",
      "type": "event"
    },
    {
      "anonymous": false,
      "inputs": [
        {
          "indexed": false,
          "internalType": "address",
          "name": "_new",
          "type": "address"
        }
      ],
      "name": "NewVaultForLP",
      "type": "event"
    },
    {
      "anonymous": false,
      "inputs": [
        {
          "indexed": false,
          "internalType": "address",
          "name": "_new",
          "type": "address"
        }
      ],
      "name": "NewVaultForTrader",
      "type": "event"
    },
    {
      "anonymous": false,
      "inputs": [
        {
          "indexed": true,
          "internalType": "address",
          "name": "token",
          "type": "address"
        },
        {
          "indexed": false,
          "internalType": "address",
          "name": "pair",
          "type": "address"
        },
        {
          "indexed": false,
          "internalType": "uint256",
          "name": "",
          "type": "uint256"
        }
      ],
      "name": "PairCreated",
      "type": "event"
    },
    {
      "inputs": [],
      "name": "WETH",
      "outputs": [
        {
          "internalType": "address",
          "name": "",
          "type": "address"
        }
      ],
      "stateMutability": "view",
      "type": "function",
      "constant": true
    },
    {
      "inputs": [
        {
          "internalType": "uint256",
          "name": "",
          "type": "uint256"
        }
      ],
      "name": "allPairs",
      "outputs": [
        {
          "internalType": "address",
          "name": "",
          "type": "address"
        }
      ],
      "stateMutability": "view",
      "type": "function",
      "constant": true
    },
    {
      "inputs": [],
      "name": "controller",
      "outputs": [
        {
          "internalType": "address",
          "name": "",
          "type": "address"
        }
      ],
      "stateMutability": "view",
      "type": "function",
      "constant": true
    },
    {
      "inputs": [],
      "name": "feeReceiver",
      "outputs": [
        {
          "internalType": "address",
          "name": "",
          "type": "address"
        }
      ],
      "stateMutability": "view",
      "type": "function",
      "constant": true
    },
    {
      "inputs": [
        {
          "internalType": "address",
          "name": "",
          "type": "address"
        }
      ],
      "name": "getFeeVaultForLP",
      "outputs": [
        {
          "internalType": "address",
          "name": "",
          "type": "address"
        }
      ],
      "stateMutability": "view",
      "type": "function",
      "constant": true
    },
    {
      "inputs": [
        {
          "internalType": "address",
          "name": "",
          "type": "address"
        }
      ],
      "name": "getPair",
      "outputs": [
        {
          "internalType": "address",
          "name": "",
          "type": "address"
        }
      ],
      "stateMutability": "view",
      "type": "function",
      "constant": true
    },
    {
      "inputs": [
        {
          "internalType": "address",
          "name": "",
          "type": "address"
        }
      ],
      "name": "getTradeMiningStatus",
      "outputs": [
        {
          "internalType": "bool",
          "name": "",
          "type": "bool"
        }
      ],
      "stateMutability": "view",
      "type": "function",
      "constant": true
    },
    {
      "inputs": [],
      "name": "governance",
      "outputs": [
        {
          "internalType": "address",
          "name": "",
          "type": "address"
        }
      ],
      "stateMutability": "view",
      "type": "function",
      "constant": true
    },
    {
      "inputs": [],
      "name": "vaultForCNode",
      "outputs": [
        {
          "internalType": "address",
          "name": "",
          "type": "address"
        }
      ],
      "stateMutability": "view",
      "type": "function",
      "constant": true
    },
    {
      "inputs": [],
      "name": "vaultForLP",
      "outputs": [
        {
          "internalType": "address",
          "name": "",
          "type": "address"
        }
      ],
      "stateMutability": "view",
      "type": "function",
      "constant": true
    },
    {
      "inputs": [],
      "name": "vaultForTrader",
      "outputs": [
        {
          "internalType": "address",
          "name": "",
          "type": "address"
        }
      ],
      "stateMutability": "view",
      "type": "function",
      "constant": true
    },
    {
      "inputs": [],
      "name": "allPairsLength",
      "outputs": [
        {
          "internalType": "uint256",
          "name": "",
          "type": "uint256"
        }
      ],
      "stateMutability": "view",
      "type": "function",
      "constant": true
    },
    {
      "inputs": [],
      "name": "pairCodeHash",
      "outputs": [
        {
          "internalType": "bytes32",
          "name": "",
          "type": "bytes32"
        }
      ],
      "stateMutability": "pure",
      "type": "function",
      "constant": true
    },
    {
      "inputs": [
        {
          "internalType": "address",
          "name": "token",
          "type": "address"
        }
      ],
      "name": "createPair",
      "outputs": [
        {
          "internalType": "address",
          "name": "pair",
          "type": "address"
        }
      ],
      "stateMutability": "nonpayable",
      "type": "function"
    },
    {
      "inputs": [
        {
          "internalType": "address",
          "name": "_new",
          "type": "address"
        }
      ],
      "name": "setGovernance",
      "outputs": [],
      "stateMutability": "nonpayable",
      "type": "function"
    },
    {
      "inputs": [
        {
          "internalType": "address",
          "name": "_new",
          "type": "address"
        }
      ],
      "name": "setController",
      "outputs": [],
      "stateMutability": "nonpayable",
      "type": "function"
    },
    {
      "inputs": [
        {
          "internalType": "address",
          "name": "_new",
          "type": "address"
        }
      ],
      "name": "setFeeReceiver",
      "outputs": [],
      "stateMutability": "nonpayable",
      "type": "function"
    },
    {
      "inputs": [
        {
          "internalType": "address",
          "name": "token",
          "type": "address"
        },
        {
          "internalType": "address",
          "name": "feeVault",
          "type": "address"
        }
      ],
      "name": "setFeeVaultForLP",
      "outputs": [],
      "stateMutability": "nonpayable",
      "type": "function"
    },
    {
      "inputs": [
        {
          "internalType": "address",
          "name": "_new",
          "type": "address"
        }
      ],
      "name": "setVaultForLP",
      "outputs": [],
      "stateMutability": "nonpayable",
      "type": "function"
    },
    {
      "inputs": [
        {
          "internalType": "address",
          "name": "_new",
          "type": "address"
        }
      ],
      "name": "setVaultForTrader",
      "outputs": [],
      "stateMutability": "nonpayable",
      "type": "function"
    },
    {
      "inputs": [
        {
          "internalType": "address",
          "name": "_new",
          "type": "address"
        }
      ],
      "name": "setVaultForCNode",
      "outputs": [],
      "stateMutability": "nonpayable",
      "type": "function"
    },
    {
      "inputs": [
        {
          "internalType": "address",
          "name": "token",
          "type": "address"
        },
        {
          "internalType": "bool",
          "name": "status",
          "type": "bool"
        }
      ],
      "name": "setTradeMiningStatus",
      "outputs": [],
      "stateMutability": "nonpayable",
      "type": "function"
    },
    {
      "inputs": [],
      "name": "getController",
      "outputs": [
        {
          "internalType": "address",
          "name": "",
          "type": "address"
        }
      ],
      "stateMutability": "view",
      "type": "function",
      "constant": true
    },
    {
      "inputs": [],
      "name": "getFeeReceiver",
      "outputs": [
        {
          "internalType": "address",
          "name": "",
          "type": "address"
        }
      ],
      "stateMutability": "view",
      "type": "function",
      "constant": true
    },
    {
      "inputs": [],
      "name": "getVaultForLP",
      "outputs": [
        {
          "internalType": "address",
          "name": "",
          "type": "address"
        }
      ],
      "stateMutability": "view",
      "type": "function",
      "constant": true
    },
    {
      "inputs": [],
      "name": "getVaultForTrader",
      "outputs": [
        {
          "internalType": "address",
          "name": "",
          "type": "address"
        }
      ],
      "stateMutability": "view",
      "type": "function",
      "constant": true
    },
    {
      "inputs": [],
      "name": "getVaultForCNode",
      "outputs": [
        {
          "internalType": "address",
          "name": "",
          "type": "address"
        }
      ],
      "stateMutability": "view",
      "type": "function",
      "constant": true
    }
  ],
  "bytecode": "0x60a060405234801561001057600080fd5b506040516157d83803806157d883398101604081905261002f91610066565b60028054336001600160a01b0319918216811790925560048054909116909117905560601b6001600160601b031916608052610094565b600060208284031215610077578081fd5b81516001600160a01b038116811461008d578182fd5b9392505050565b60805160601c6157226100b660003980610a035280610c2352506157226000f3fe60806040523480156200001157600080fd5b5060043610620001e45760003560e01c806392eefe9b1162000111578063cb27e2c311620000a5578063d725b7d6116200007b578063d725b7d61462000396578063e8a3539214620003ad578063efdcd97414620003b7578063f77c479114620003ce57620001e4565b8063cb27e2c3146200035e578063d2d7f8161462000375578063d494eded146200037f57620001e4565b8063ab033ea911620000e7578063ab033ea91462000329578063ad5c46481462000340578063b3f00674146200034a578063b58aa478146200035457620001e4565b806392eefe9b14620002f15780639aab924814620003085780639ccb0744146200031257620001e4565b80635aa6e67511620001895780637c5f3cdf116200015f5780637c5f3cdf14620002a057806380feb39814620002b75780638140b00414620002dd578063847af19a14620002e757620001e4565b80635aa6e675146200026657806372b8cbcc14620002705780637bae7027146200028757620001e4565b80631e3dd18b11620001bf5780631e3dd18b146200022c5780633018205f1462000243578063574f2ba3146200024d57620001e4565b806306b580e414620001e95780631a788a02146200020b5780631dae76911462000222575b600080fd5b620001f3620003d8565b60405162000202919062001281565b60405180910390f35b620001f36200021c3660046200111c565b620003e7565b620001f362000402565b620001f36200023d366004620011b9565b62000411565b620001f362000439565b6200025762000448565b60405162000202919062001320565b620001f36200044e565b620001f3620002813660046200111c565b6200045d565b6200029e620002983660046200111c565b62000478565b005b6200029e620002b13660046200111c565b62000578565b620002ce620002c83660046200111c565b62000664565b60405162000202919062001315565b620001f362000679565b620001f362000688565b6200029e620003023660046200111c565b62000697565b6200025762000783565b620001f3620003233660046200111c565b620007b7565b6200029e6200033a3660046200111c565b62000b35565b620001f362000c21565b620001f362000c45565b620001f362000c54565b6200029e6200036f36600462001141565b62000c63565b620001f362000d17565b6200029e620003903660046200117a565b62000d26565b6200029e620003a73660046200111c565b62000d9c565b620001f362000e88565b6200029e620003c83660046200111c565b62000e97565b620001f362000f83565b6006546001600160a01b031681565b6000602081905290815260409020546001600160a01b031681565b6007546001600160a01b031690565b600181815481106200041f57fe5b6000918252602090912001546001600160a01b0316905081565b6003546001600160a01b031690565b60015490565b6002546001600160a01b031681565b6009602052600090815260409020546001600160a01b031681565b6002546001600160a01b03163314620004ae5760405162461bcd60e51b8152600401620004a59062001405565b60405180910390fd5b6001600160a01b038116620004d75760405162461bcd60e51b8152600401620004a5906200143c565b6005546001600160a01b0382811691161415620005085760405162461bcd60e51b8152600401620004a59062001360565b600580547fffffffffffffffffffffffff0000000000000000000000000000000000000000166001600160a01b0383161790556040517f67dc7d9f59b39efcc9e1b3a2c2109c2b212fc362b17a6190027eb18cc3afa6e4906200056d90839062001281565b60405180910390a150565b6002546001600160a01b03163314620005a55760405162461bcd60e51b8152600401620004a59062001405565b6001600160a01b038116620005ce5760405162461bcd60e51b8152600401620004a5906200143c565b6006546001600160a01b0382811691161415620005ff5760405162461bcd60e51b8152600401620004a59062001360565b600680547fffffffffffffffffffffffff0000000000000000000000000000000000000000166001600160a01b0383161790556040517f2f2656fd872771c0eeb3cd0a9ec1a2080a44a7bacbc1de33587cad3b2e34ec50906200056d90839062001281565b60086020526000908152604090205460ff1681565b6007546001600160a01b031681565b6005546001600160a01b031681565b6002546001600160a01b03163314620006c45760405162461bcd60e51b8152600401620004a59062001405565b6001600160a01b038116620006ed5760405162461bcd60e51b8152600401620004a5906200143c565b6003546001600160a01b03828116911614156200071e5760405162461bcd60e51b8152600401620004a59062001360565b600380547fffffffffffffffffffffffff0000000000000000000000000000000000000000166001600160a01b0383161790556040517fe253457d9ad994ca9682fc3bbc38c890dca73a2d5ecee3809e548bac8b00d7c6906200056d90839062001281565b6000604051806020016200079790620010f6565b6020820181038252601f19601f8201166040525080519060200120905090565b60006001600160a01b038216620007e25760405162461bcd60e51b8152600401620004a59062001329565b6001600160a01b0382811660009081526020819052604090205416156200081d5760405162461bcd60e51b8152600401620004a59062001397565b6060604051806020016200083190620010f6565b6020820181038252601f19601f8201166040525090506000836040516020016200085c91906200121e565b604051602081830303815290604052805190602001209050808251602084016000f592506001600160a01b038316620008a95760405162461bcd60e51b8152600401620004a590620013ce565b6001600160a01b03808516600090815260208190526040812080549286167fffffffffffffffffffffffff00000000000000000000000000000000000000009384168117909155600180548082018255928190527fb10e2d527612073b26eecdfd717e6a320cf44b4afac2b0732d9fcbe2b7fa0cf6909201805490931617909155546060620009388262000f92565b905060606200097d6040518060400160405280600781526020017f58546f6b656e200000000000000000000000000000000000000000000000000081525083620010c7565b90506060620009c26040518060400160405280600381526020017f58542d000000000000000000000000000000000000000000000000000000000081525084620010c7565b6040517f2016a0d20000000000000000000000000000000000000000000000000000000081529091506001600160a01b03881690632016a0d29062000a32907f0000000000000000000000000000000000000000000000000000000000000000908c9087908790600401620012af565b600060405180830381600087803b15801562000a4d57600080fd5b505af115801562000a62573d6000803e3d6000fd5b50506003546040517f747293fb0000000000000000000000000000000000000000000000000000000081526001600160a01b03909116925063747293fb915062000ab1908a9060040162001281565b600060405180830381600087803b15801562000acc57600080fd5b505af115801562000ae1573d6000803e3d6000fd5b50505050876001600160a01b03167fc1db9ba7c4b7ce660fe8d17bbcf07167549381df2abd694a970bd1402d86d313888660405162000b22929190620012fc565b60405180910390a2505050505050919050565b6002546001600160a01b0316331462000b625760405162461bcd60e51b8152600401620004a59062001405565b6001600160a01b03811662000b8b5760405162461bcd60e51b8152600401620004a5906200143c565b6002546001600160a01b038281169116141562000bbc5760405162461bcd60e51b8152600401620004a59062001360565b600280547fffffffffffffffffffffffff0000000000000000000000000000000000000000166001600160a01b0383161790556040517f4f386975ea1c2f7cf1845b08bee00626fbb624ecad16254d63d9bb9ba86526de906200056d90839062001281565b7f000000000000000000000000000000000000000000000000000000000000000081565b6004546001600160a01b031681565b6006546001600160a01b031690565b6002546001600160a01b0316331462000c905760405162461bcd60e51b8152600401620004a59062001405565b6001600160a01b038281166000908152600960205260409081902080547fffffffffffffffffffffffff00000000000000000000000000000000000000001692841692909217909155517f360d77988e9d7232292cbbd29e6b03381c697d3dd022cbf68ce2ad4f962e13db9062000d0b908490849062001295565b60405180910390a15050565b6005546001600160a01b031690565b6002546001600160a01b0316331462000d535760405162461bcd60e51b8152600401620004a59062001405565b6001600160a01b0391909116600090815260086020526040902080547fffffffffffffffffffffffffffffffffffffffffffffffffffffffffffffff0016911515919091179055565b6002546001600160a01b0316331462000dc95760405162461bcd60e51b8152600401620004a59062001405565b6001600160a01b03811662000df25760405162461bcd60e51b8152600401620004a5906200143c565b6007546001600160a01b038281169116141562000e235760405162461bcd60e51b8152600401620004a59062001360565b600780547fffffffffffffffffffffffff0000000000000000000000000000000000000000166001600160a01b0383161790556040517f4a43ee60176d4fc191e384a77ee14eb01d46872ac0f7a1eacc4f65d03d3b8819906200056d90839062001281565b6004546001600160a01b031690565b6002546001600160a01b0316331462000ec45760405162461bcd60e51b8152600401620004a59062001405565b6001600160a01b03811662000eed5760405162461bcd60e51b8152600401620004a5906200143c565b6004546001600160a01b038281169116141562000f1e5760405162461bcd60e51b8152600401620004a59062001360565b600480547fffffffffffffffffffffffff0000000000000000000000000000000000000000166001600160a01b0383161790556040517f010444796a5a2a97780dbda60b888795c594cc841f49c2513bb0f66258c57892906200056d90839062001281565b6003546001600160a01b031681565b60608162000fd5575060408051808201909152600181527f30000000000000000000000000000000000000000000000000000000000000006020820152620010c2565b8160005b811562000fef57600101600a8204915062000fd9565b60608167ffffffffffffffff811180156200100957600080fd5b506040519080825280601f01601f19166020018201604052801562001035576020820181803683370190505b5090507fffffffffffffffffffffffffffffffffffffffffffffffffffffffffffffffff82015b8515620010bc57600a860660300160f81b828280600190039350815181106200108157fe5b60200101907effffffffffffffffffffffffffffffffffffffffffffffffffffffffffffff1916908160001a905350600a860495506200105c565b50925050505b919050565b60608282604051602001620010de9291906200124e565b60405160208183030381529060405290505b92915050565b61424680620014a783390190565b80356001600160a01b0381168114620010f057600080fd5b6000602082840312156200112e578081fd5b6200113a838362001104565b9392505050565b6000806040838503121562001154578081fd5b62001160848462001104565b915062001171846020850162001104565b90509250929050565b600080604083850312156200118d578182fd5b62001199848462001104565b915060208301358015158114620011ae578182fd5b809150509250929050565b600060208284031215620011cb578081fd5b5035919050565b60008151808452620011ec81602086016020860162001473565b601f017fffffffffffffffffffffffffffffffffffffffffffffffffffffffffffffffe0169290920160200192915050565b60609190911b7fffffffffffffffffffffffffffffffffffffffff00000000000000000000000016815260140190565b600083516200126281846020880162001473565b8351908301906200127881836020880162001473565b01949350505050565b6001600160a01b0391909116815260200190565b6001600160a01b0392831681529116602082015260400190565b60006001600160a01b03808716835280861660208401525060806040830152620012dd6080830185620011d2565b8281036060840152620012f18185620011d2565b979650505050505050565b6001600160a01b03929092168252602082015260400190565b901515815260200190565b90815260200190565b60208082526016908201527f43466163746f72793a205a45524f5f4144445245535300000000000000000000604082015260600190565b60208082526013908201527f43466163746f72793a2073616d65206164647200000000000000000000000000604082015260600190565b60208082526015908201527f43466163746f72793a20504149525f4558495354530000000000000000000000604082015260600190565b6020808252601a908201527f43466163746f72793a204661696c6564206f6e206465706c6f79000000000000604082015260600190565b60208082526015908201527f43466163746f72793a2021676f7665726e616e63650000000000000000000000604082015260600190565b60208082526013908201527f43466163746f72793a207a65726f206164647200000000000000000000000000604082015260600190565b60005b838110156200149057818101518382015260200162001476565b83811115620014a0576000848401525b5050505056fe60a06040526001600a553480156200001657600080fd5b50604080518082018252601081526f21b7a334ac102837b7b6102a37b5b2b760811b6020918201528151808301835260018152603160f81b9082015290514691620000cc917f8b73c3c69bb8fe3d512ecc4cf759cc79239f7b179b0ffacaa9a75d522b39400f917f70f1d8d3a2b874a116643bbbdb7e2937ce56e0359f9c3070aac2ec77a8354ccc917fc89efdaa54c0f20c7adf612882df0950f5a951637e0307cdcb4c672f298b8bc6918691309101620000f5565b60408051601f198184030181529190528051602090910120600355503360601b60805262000121565b9485526020850193909352604084019190915260608301526001600160a01b0316608082015260a00190565b60805160601c6140e462000162600039806108db5280610d115280611a0052806120a652806125ae5280612c6e5280612fa3528061308c52506140e46000f3fe6080604052600436106102e05760003560e01c806395d89b4111610184578063bc25cf77116100d6578063d505accf1161008a578063e5eac39011610064578063e5eac39014610776578063eb77289914610796578063fff6cae9146107b6576102e7565b8063d505accf14610716578063dd2e0a3114610736578063dd62ed3e14610756576102e7565b8063bf36aac2116100bb578063bf36aac2146106cc578063c45a0155146106ec578063d21220a714610701576102e7565b8063bc25cf771461068c578063be5b32f8146106ac576102e7565b8063a661dbda11610138578063b2874f8711610112578063b2874f8714610637578063b72bda4a14610657578063ba9a7a5614610677576102e7565b8063a661dbda14610602578063a9059cbb14610617578063aaf07e9214610465576102e7565b80639c673c52116101695780639c673c52146105ac5780639f44296a146105cc578063a12db6cc146105ef576102e7565b806395d89b411461057757806399f45e481461058c576102e7565b8063313ce5671161023d5780634f6ec2dd116101f15780636a627842116101cb5780636a6278421461052457806370a08231146105375780637ecebe0014610557576102e7565b80634f6ec2dd146104cf5780635ad6bd30146104e4578063663eda1f14610504576102e7565b80633644e515116102225780633644e5151461047a57806339818b661461048f57806349a23da0146104af576102e7565b8063313ce567146104435780633298613114610465576102e7565b80632016a0d21161029457806324334be81161027957806324334be8146103ed57806327fc84a31461040d57806330adf81f1461042e576102e7565b80632016a0d2146103ab57806323b872dd146103cd576102e7565b8063095ea7b3116102c5578063095ea7b31461033a5780630dfe16811461036757806318160ddd14610389576102e7565b806306fdde03146102ec5780630902f1ac14610317576102e7565b366102e757005b600080fd5b3480156102f857600080fd5b506103016107cb565b60405161030e9190613b60565b60405180910390f35b34801561032357600080fd5b5061032c610877565b60405161030e929190613f9d565b34801561034657600080fd5b5061035a6103553660046137be565b6108a4565b60405161030e9190613afa565b34801561037357600080fd5b5061037c6108bb565b60405161030e9190613a24565b34801561039557600080fd5b5061039e6108ca565b60405161030e9190613b05565b3480156103b757600080fd5b506103cb6103c6366004613683565b6108d0565b005b3480156103d957600080fd5b5061035a6103e8366004613709565b610997565b3480156103f957600080fd5b5061039e6104083660046138a0565b610a49565b61042061041b36600461364b565b610a87565b60405161030e929190613fbe565b34801561043a57600080fd5b5061039e610f2f565b34801561044f57600080fd5b50610458610f53565b60405161030e9190614035565b34801561047157600080fd5b5061039e610f58565b34801561048657600080fd5b5061039e610f60565b34801561049b57600080fd5b5061039e6104aa36600461384a565b610f66565b3480156104bb57600080fd5b5061039e6104ca3660046138c1565b610f98565b3480156104db57600080fd5b5061039e611061565b3480156104f057600080fd5b506104206104ff36600461387d565b61106d565b34801561051057600080fd5b5061039e61051f3660046138f6565b611112565b610420610532366004613613565b6111a0565b34801561054357600080fd5b5061039e610552366004613613565b6114a0565b34801561056357600080fd5b5061039e610572366004613613565b6114b2565b34801561058357600080fd5b506103016114c4565b34801561059857600080fd5b5061039e6105a7366004613936565b61153d565b3480156105b857600080fd5b506104206105c736600461387d565b611593565b6105df6105da36600461364b565b611627565b60405161030e9493929190613feb565b6105df6105fd3660046137e9565b611c33565b34801561060e57600080fd5b506103016122d3565b34801561062357600080fd5b5061035a6106323660046137be565b61230c565b34801561064357600080fd5b5061039e6106523660046138c1565b612319565b34801561066357600080fd5b5061039e6106723660046138c1565b61233c565b34801561068357600080fd5b5061039e612372565b34801561069857600080fd5b506103cb6106a7366004613613565b61237a565b3480156106b857600080fd5b5061039e6106c736600461384a565b6124bc565b3480156106d857600080fd5b506104206106e736600461387d565b6124f2565b3480156106f857600080fd5b5061037c6125ac565b34801561070d57600080fd5b5061037c6125d0565b34801561072257600080fd5b506103cb610731366004613749565b6125df565b34801561074257600080fd5b5061042061075136600461387d565b61274e565b34801561076257600080fd5b5061039e61077136600461364b565b612857565b34801561078257600080fd5b5061042061079136600461387d565b612874565b3480156107a257600080fd5b506104206107b136600461387d565b61293b565b3480156107c257600080fd5b506103cb6129fb565b6005805460408051602060026001851615610100027fffffffffffffffffffffffffffffffffffffffffffffffffffffffffffffffff0190941693909304601f8101849004840282018401909252818152929183018282801561086f5780601f106108445761010080835404028352916020019161086f565b820191906000526020600020905b81548152906001019060200180831161085257829003601f168201915b505050505081565b6009546dffffffffffffffffffffffffffff808216926e0100000000000000000000000000009092041690565b60006108b1338484612b30565b5060015b92915050565b6007546001600160a01b031681565b60005481565b336001600160a01b037f000000000000000000000000000000000000000000000000000000000000000016146109215760405162461bcd60e51b815260040161091890613e64565b60405180910390fd5b600780546001600160a01b038087167fffffffffffffffffffffffff0000000000000000000000000000000000000000928316179092556008805492861692909116919091179055815161097c90600590602085019061347b565b50805161099090600690602084019061347b565b5050505050565b6001600160a01b03831660009081526002602090815260408083203384529091528120547fffffffffffffffffffffffffffffffffffffffffffffffffffffffffffffffff14610a34576001600160a01b0384166000908152600260209081526040808320338452909152902054610a0f9083612b98565b6001600160a01b03851660009081526002602090815260408083203384529091529020555b610a3f848484612bc0565b5060019392505050565b600954600090610a80906dffffffffffffffffffffffffffff808216916e010000000000000000000000000000900416858561153d565b9392505050565b600080600a54600114610aac5760405162461bcd60e51b815260040161091890613b73565b6000600a8190556007546008546040516370a0823160e01b81526001600160a01b0392831693919092169183906370a0823190610aed903090600401613a24565b60206040518083038186803b158015610b0557600080fd5b505afa158015610b19573d6000803e3d6000fd5b505050506040513d601f19601f82011682018060405250810190610b3d9190613865565b90506000826001600160a01b03166370a08231306040518263ffffffff1660e01b8152600401610b6d9190613a24565b60206040518083038186803b158015610b8557600080fd5b505afa158015610b99573d6000803e3d6000fd5b505050506040513d601f19601f82011682018060405250810190610bbd9190613865565b30600090815260016020908152604080832054905193945092479291606091610bee9133918f918f91899101613a38565b6040516020818303038152906040529050610c076134f9565b610c1388600284612c64565b608086015260408501526020840152825260608201526001600160a01b038d8116908a161415610c5157610c47858261293b565b909b509250610c8d565b876001600160a01b03168d6001600160a01b03161415610c7557610c47858261274e565b60405162461bcd60e51b815260040161091890613dbf565b50610ca49050610c9d8347612b98565b3490612b98565b975060008911610cc65760405162461bcd60e51b815260040161091890613df6565b610cd03084612d9e565b610cdb8b8b8b612e34565b8015610db5576040517f80feb3980000000000000000000000000000000000000000000000000000000081526001600160a01b037f000000000000000000000000000000000000000000000000000000000000000016906380feb39890610d46908990600401613a24565b60206040518083038186803b158015610d5e57600080fd5b505afa158015610d72573d6000803e3d6000fd5b505050506040513d601f19601f82011682018060405250810190610d96919061382a565b15610daa57610da58782612f9f565b610db5565b610db5878783613059565b6040516370a0823160e01b81526001600160a01b038816906370a0823190610de1903090600401613a24565b60206040518083038186803b158015610df957600080fd5b505afa158015610e0d573d6000803e3d6000fd5b505050506040513d601f19601f82011682018060405250810190610e319190613865565b6040516370a0823160e01b81529095506001600160a01b038716906370a0823190610e60903090600401613a24565b60206040518083038186803b158015610e7857600080fd5b505afa158015610e8c573d6000803e3d6000fd5b505050506040513d601f19601f82011682018060405250810190610eb09190613865565b9350610ebc8585613138565b8715610ecc57610ecc338961323e565b896001600160a01b0316336001600160a01b03167f3dd1df88dc92e2788892542d81f999d720a44b4c127065d45c128f4f59fdc3738d8c604051610f11929190613ab6565b60405180910390a3505050505050506001600a819055509250929050565b7f6e71edae12b1b97f4d1f60370fef10105fa2faae0126114a169c64845d6126c981565b601281565b6305f5e10081565b60035481565b6009546000906108b5906dffffffffffffffffffffffffffff808216916e010000000000000000000000000000900416845b6000805480610fb157670de0b6b3a76400009150611059565b6000610fce84606001516305f5e100612b9890919063ffffffff16565b90506000610ff76305f5e100610ff18760000151896132cb90919063ffffffff16565b906132cb565b9050600061101683610ff188602001518b6132cb90919063ffffffff16565b90506110538361104d886020015161104d8861104d61103e888a61330590919063ffffffff16565b670de0b6b3a7640000906132cb565b9061332a565b94505050505b509392505050565b670de0b6b3a764000081565b6000806110db61108e84608001516305f5e100612b9890919063ffffffff16565b61104d6110ac86606001516305f5e100612b9890919063ffffffff16565b61104d876020015161104d6305f5e100610ff16305f5e100610ff18d600001518f6132cb90919063ffffffff16565b9150826080015160001461110b576111086305f5e10061104d8560800151856132cb90919063ffffffff16565b90505b9250929050565b60008061112b8461104d88670de0b6b3a76400006132cb565b9050600061115a6305f5e100610ff18660000151610ff1670de0b6b3a76400008b6132cb90919063ffffffff16565b905061119561118e61117d86606001516305f5e10061330590919063ffffffff16565b602087015161104d9081868b61332a565b8390613305565b979650505050505050565b600080600a546001146111c55760405162461bcd60e51b815260040161091890613b73565b6000600a8190556007546008546001600160a01b0391821692911690806111ea610877565b915091506000846001600160a01b03166370a08231306040518263ffffffff1660e01b815260040161121c9190613a24565b60206040518083038186803b15801561123457600080fd5b505afa158015611248573d6000803e3d6000fd5b505050506040513d601f19601f8201168201806040525081019061126c9190613865565b90506000846001600160a01b03166370a08231306040518263ffffffff1660e01b815260040161129c9190613a24565b60206040518083038186803b1580156112b457600080fd5b505afa1580156112c8573d6000803e3d6000fd5b505050506040513d601f19601f820116820180604052508101906112ec9190613865565b9050600061130a836dffffffffffffffffffffffffffff8716612b98565b90506000611328836dffffffffffffffffffffffffffff8716612b98565b905060004790506060338d85856040516020016113489493929190613a8d565b60405160208183030381529060405290506113616134f9565b61136d8a600184612c64565b6080860152604085015260208401528252606082015260006113a36dffffffffffffffffffffffffffff808c16908b1684610f98565b9050600054600014156113e0576113ca633b9aca006113c488888587611112565b90612b98565b9d506113db6000633b9aca0061335c565b6113ef565b6113ec86868385611112565b9d505b506114019150610c9d90508247612b98565b995060008b116114235760405162461bcd60e51b815260040161091890613e2d565b61142d8c8c61335c565b6114378585613138565b891561144757611447338b61323e565b336001600160a01b03167f4c209b5fc8ad50758f13e2e1088ba56a560dff690a1c6fef26394f4c03821c4f8484604051611482929190613fbe565b60405180910390a25050505050505050506001600a81905550915091565b60016020526000908152604090205481565b60046020526000908152604090205481565b6006805460408051602060026001851615610100027fffffffffffffffffffffffffffffffffffffffffffffffffffffffffffffffff0190941693909304601f8101849004840282018401909252818152929183018282801561086f5780601f106108445761010080835404028352916020019161086f565b600080548061155657670de0b6b3a7640000915061158a565b600061156286866132cb565b9050600061157088866132cb565b90506115858561104d858161103e8787613305565b935050505b50949350505050565b6000806115fa6305f5e10061104d6305f5e10061104d876000015161104d6115cc8a608001516305f5e100612b9890919063ffffffff16565b610ff16115ea8c606001516305f5e100612b9890919063ffffffff16565b60208d0151610ff1908f906132cb565b9150826080015160001461110b576111086305f5e10061104d8560800151876132cb90919063ffffffff16565b6000806000611634613528565b600a546001146116565760405162461bcd60e51b815260040161091890613b73565b6000600a8190556007546008546040516370a0823160e01b81526001600160a01b0392831693919092169183906370a0823190611697903090600401613a24565b60206040518083038186803b1580156116af57600080fd5b505afa1580156116c3573d6000803e3d6000fd5b505050506040513d601f19601f820116820180604052508101906116e79190613865565b90506000826001600160a01b03166370a08231306040518263ffffffff1660e01b81526004016117179190613a24565b60206040518083038186803b15801561172f57600080fd5b505afa158015611743573d6000803e3d6000fd5b505050506040513d601f19601f820116820180604052508101906117679190613865565b905047600080611775610877565b91509150856001600160a01b03168d6001600160a01b031614156117b4576117ad856dffffffffffffffffffffffffffff8416612b98565b9a506117e8565b866001600160a01b03168d6001600160a01b03161415610c75576117ad846dffffffffffffffffffffffffffff8316612b98565b60008b116118085760405162461bcd60e51b815260040161091890613f66565b6060338e8e8e6040516020016118219493929190613a38565b604051602081830303815290604052905061183a6134f9565b61184688600384612c64565b608086015260408501526020840152825260608201526001600160a01b038f811690891614156118bc5761187a8d82611593565b8b526dffffffffffffffffffffffffffff8581166020808e01919091528301518351929e506118b292909161104d91908716906132cb565b60408b0152611927565b886001600160a01b03168f6001600160a01b03161415611927576118e08d82612874565b8b5260208201518251919d5061190b9161104d906dffffffffffffffffffffffffffff8716906132cb565b60208b01526dffffffffffffffffffffffffffff841660408b01525b611934610c9d8647612b98565b9a5061196a846dffffffffffffffffffffffffffff16846dffffffffffffffffffffffffffff168360000151846020015161153d565b60608b015250505050506001600160a01b03848116908a16148015906119a25750826001600160a01b0316896001600160a01b031614155b6119be5760405162461bcd60e51b815260040161091890613c86565b6119c98a8a89612e34565b845115611ab9576040517f80feb3980000000000000000000000000000000000000000000000000000000081526001600160a01b037f000000000000000000000000000000000000000000000000000000000000000016906380feb39890611a35908690600401613a24565b60206040518083038186803b158015611a4d57600080fd5b505afa158015611a61573d6000803e3d6000fd5b505050506040513d601f19601f82011682018060405250810190611a85919061382a565b15611aa157611a9c848660005b6020020151612f9f565b611ab9565b611ab484848760005b6020020151613059565b600085525b6040516370a0823160e01b81526001600160a01b038516906370a0823190611ae5903090600401613a24565b60206040518083038186803b158015611afd57600080fd5b505afa158015611b11573d6000803e3d6000fd5b505050506040513d601f19601f82011682018060405250810190611b359190613865565b6040516370a0823160e01b81529092506001600160a01b038416906370a0823190611b64903090600401613a24565b60206040518083038186803b158015611b7c57600080fd5b505afa158015611b90573d6000803e3d6000fd5b505050506040513d601f19601f82011682018060405250810190611bb49190613865565b9050611bc08282613138565b8515611bd057611bd0338761323e565b886001600160a01b0316336001600160a01b03167f053d794b2310b8d186a24ae24a65ee066983a52a6efa6bd3df09a7601a3cb4f38a8a8e604051611c1793929190613fcc565b60405180910390a350506001600a555093969295509093509150565b6000806000611c40613528565b600a54600114611c625760405162461bcd60e51b815260040161091890613b73565b6000600a556007546008546001600160a01b039182169116611c826134f9565b6040514790606090611c9e9033908e908e908e90602001613a62565b6040516020818303038152906040529050611cbb84600483612c64565b60808801526040870152602086015284526060840152611cde610c9d8347612b98565b965050506000836001600160a01b03166370a08231306040518263ffffffff1660e01b8152600401611d109190613a24565b60206040518083038186803b158015611d2857600080fd5b505afa158015611d3c573d6000803e3d6000fd5b505050506040513d601f19601f82011682018060405250810190611d609190613865565b90506000836001600160a01b03166370a08231306040518263ffffffff1660e01b8152600401611d909190613a24565b60206040518083038186803b158015611da857600080fd5b505afa158015611dbc573d6000803e3d6000fd5b505050506040513d601f19601f82011682018060405250810190611de09190613865565b9050600080611ded610877565b91509150856001600160a01b03168e6001600160a01b03161415611e6957611e25846dffffffffffffffffffffffffffff8416612b98565b6dffffffffffffffffffffffffffff8381166020808c01919091528701518751929d50611e5b92909161104d91908516906132cb565b8860025b6020020152611ee4565b866001600160a01b03168e6001600160a01b03161415610c7557611e9d836dffffffffffffffffffffffffffff8316612b98565b60208601518651919c50611ec69161104d906dffffffffffffffffffffffffffff8516906132cb565b60208901526dffffffffffffffffffffffffffff8216886002611e5f565b60008b11611f045760405162461bcd60e51b815260040161091890613f66565b611f38826dffffffffffffffffffffffffffff16826dffffffffffffffffffffffffffff168760000151886020015161153d565b60608901525060009250829150506001600160a01b03848116908d161415611f8a57611f648b8461106d565b87529150611f728983612b98565b90508015611f8557611f85858b83612e34565b611fcf565b846001600160a01b03168c6001600160a01b03161415611fcf57611fae8b846124f2565b87529150611fbc8983612b98565b90508015611fcf57611fcf848b83612e34565b88821115611fef5760405162461bcd60e51b815260040161091890613c18565b6000821161200f5760405162461bcd60e51b815260040161091890613d51565b5050826001600160a01b0316886001600160a01b0316141580156120455750816001600160a01b0316886001600160a01b031614155b6120615760405162461bcd60e51b815260040161091890613c86565b88955061206f8a8988612e34565b835115612153576040517f80feb3980000000000000000000000000000000000000000000000000000000081526001600160a01b037f000000000000000000000000000000000000000000000000000000000000000016906380feb398906120db908590600401613a24565b60206040518083038186803b1580156120f357600080fd5b505afa158015612107573d6000803e3d6000fd5b505050506040513d601f19601f8201168201806040525081019061212b919061382a565b156121415761213c83856000611a92565b612153565b61214e8383866000611aaa565b600084525b6040516370a0823160e01b81526000906001600160a01b038516906370a0823190612182903090600401613a24565b60206040518083038186803b15801561219a57600080fd5b505afa1580156121ae573d6000803e3d6000fd5b505050506040513d601f19601f820116820180604052508101906121d29190613865565b90506000836001600160a01b03166370a08231306040518263ffffffff1660e01b81526004016122029190613a24565b60206040518083038186803b15801561221a57600080fd5b505afa15801561222e573d6000803e3d6000fd5b505050506040513d601f19601f820116820180604052508101906122529190613865565b905061225e8282613138565b861561226e5761226e338861323e565b5050876001600160a01b0316336001600160a01b03167f053d794b2310b8d186a24ae24a65ee066983a52a6efa6bd3df09a7601a3cb4f389898e6040516122b793929190613fcc565b60405180910390a35050506001600a8190555093509350935093565b6040518060400160405280601081526020017f436f46695820506f6f6c20546f6b656e0000000000000000000000000000000081525081565b60006108b1338484612bc0565b60008061232583610f66565b905061233385858386611112565b95945050505050565b600080548061235557670de0b6b3a76400009150611059565b6000610fce84606001516305f5e10061330590919063ffffffff16565b633b9aca0081565b600a5460011461239c5760405162461bcd60e51b815260040161091890613b73565b6000600a556007546008546009546040516370a0823160e01b81526001600160a01b039384169390921691612451918491869161244c916dffffffffffffffffffffffffffff9091169084906370a08231906123fc903090600401613a24565b60206040518083038186803b15801561241457600080fd5b505afa158015612428573d6000803e3d6000fd5b505050506040513d601f19601f820116820180604052508101906113c49190613865565b612e34565b6124b2818461244c6009600e9054906101000a90046dffffffffffffffffffffffffffff166dffffffffffffffffffffffffffff16856001600160a01b03166370a08231306040518263ffffffff1660e01b81526004016123fc9190613a24565b50506001600a5550565b6009546000906108b5906dffffffffffffffffffffffffffff808216916e0100000000000000000000000000009004168461233c565b60008061254961251384608001516305f5e100612b9890919063ffffffff16565b61104d6305f5e10061104d876000015161104d6305f5e100610ff16115ea8c606001516305f5e10061330590919063ffffffff16565b9150826080015160001461110b576111086305f5e10061104d61257d86606001516305f5e10061330590919063ffffffff16565b61104d876020015161104d8960800151610ff16305f5e100610ff18d600001518d6132cb90919063ffffffff16565b7f000000000000000000000000000000000000000000000000000000000000000081565b6008546001600160a01b031681565b428410156125ff5760405162461bcd60e51b815260040161091890613d88565b6003546001600160a01b03881660009081526004602090815260408083208054600181019091559051929392612660927f6e71edae12b1b97f4d1f60370fef10105fa2faae0126114a169c64845d6126c9928d928d928d92918d9101613b0e565b604051602081830303815290604052805190602001206040516020016126879291906139ee565b6040516020818303038152906040528051906020012090506000600182868686604051600081526020016040526040516126c49493929190613b42565b6020604051602081039080840390855afa1580156126e6573d6000803e3d6000fd5b5050604051601f1901519150506001600160a01b0381161580159061271c5750886001600160a01b0316816001600160a01b0316145b6127385760405162461bcd60e51b815260040161091890613baa565b612743898989612b30565b505050505050505050565b60095460009081908190612788906dffffffffffffffffffffffffffff808216916e0100000000000000000000000000009004168661233c565b905060006127d96127aa86608001516305f5e100612b9890919063ffffffff16565b610ff16127c888606001516305f5e100612b9890919063ffffffff16565b6020890151610ff190818c896132cb565b905061280e6305f5e10061104d6305f5e10061104d896000015161104d670de0b6b3a76400008861332a90919063ffffffff16565b9350846080015160001461284e5761284b6305f5e10061104d670de0b6b3a764000061104d8960800151610ff1888d6132cb90919063ffffffff16565b92505b50509250929050565b600260209081526000928352604080842090915290825290205481565b6000806128d86305f5e10061104d61289d86606001516305f5e10061330590919063ffffffff16565b61104d876020015161104d6128c38a608001516305f5e100612b9890919063ffffffff16565b8a51610ff1906305f5e1009082908f906132cb565b9150826080015160001461110b576111086305f5e10061104d61290c86606001516305f5e10061330590919063ffffffff16565b61104d876020015161104d8960800151610ff16305f5e100610ff18d600001518f6132cb90919063ffffffff16565b60095460009081908190612975906dffffffffffffffffffffffffffff808216916e0100000000000000000000000000009004168661233c565b90506129b36305f5e10061104d670de0b6b3a764000061104d6129a989608001516305f5e100612b9890919063ffffffff16565b610ff18b886132cb565b925083608001516000146129f3576129f06305f5e10061104d670de0b6b3a764000061104d8860800151610ff1878c6132cb90919063ffffffff16565b91505b509250929050565b600a54600114612a1d5760405162461bcd60e51b815260040161091890613b73565b6000600a556007546040516370a0823160e01b8152612b29916001600160a01b0316906370a0823190612a54903090600401613a24565b60206040518083038186803b158015612a6c57600080fd5b505afa158015612a80573d6000803e3d6000fd5b505050506040513d601f19601f82011682018060405250810190612aa49190613865565b6008546040516370a0823160e01b81526001600160a01b03909116906370a0823190612ad4903090600401613a24565b60206040518083038186803b158015612aec57600080fd5b505afa158015612b00573d6000803e3d6000fd5b505050506040513d601f19601f82011682018060405250810190612b249190613865565b613138565b6001600a55565b6001600160a01b0380841660008181526002602090815260408083209487168084529490915290819020849055517f8c5be1e5ebec7d5bd14f71427d1e84f3dd0314c0f7b2291e5b200ac8c7c3b92590612b8b908590613b05565b60405180910390a3505050565b600082821115612bba5760405162461bcd60e51b815260040161091890613c4f565b50900390565b6001600160a01b038316600090815260016020526040902054612be39082612b98565b6001600160a01b038085166000908152600160205260408082209390935590841681522054612c129082613305565b6001600160a01b0380841660008181526001602052604090819020939093559151908516907fddf252ad1be2c89b69c2b068fc378daa952ba7f163c4a11628f55a4df523b3ef90612b8b908590613b05565b60008060008060007f00000000000000000000000000000000000000000000000000000000000000006001600160a01b0316633018205f6040518163ffffffff1660e01b815260040160206040518083038186803b158015612cc557600080fd5b505afa158015612cd9573d6000803e3d6000fd5b505050506040513d601f19601f82011682018060405250810190612cfd919061362f565b6001600160a01b0316638dba9329348a8a6004811115612d1957fe5b8a6040518563ffffffff1660e01b8152600401612d3893929190613acf565b60a0604051808303818588803b158015612d5157600080fd5b505af1158015612d65573d6000803e3d6000fd5b50505050506040513d601f19601f82011682018060405250810190612d8a9190613967565b939c929b5090995097509095509350505050565b6001600160a01b038216600090815260016020526040902054612dc19082612b98565b6001600160a01b03831660009081526001602052604081209190915554612de89082612b98565b60009081556040516001600160a01b038416907fddf252ad1be2c89b69c2b068fc378daa952ba7f163c4a11628f55a4df523b3ef90612e28908590613b05565b60405180910390a35050565b604080518082018252601981527f7472616e7366657228616464726573732c75696e743235362900000000000000602090910152516000906060906001600160a01b038616907fa9059cbb2ab09eb219583f4a59a5d0623ade346d962bcd4e46b11da047c9049b90612eac9087908790602401613ab6565b60408051601f198184030181529181526020820180517bffffffffffffffffffffffffffffffffffffffffffffffffffffffff167fffffffff00000000000000000000000000000000000000000000000000000000909416939093179092529051612f1791906139d2565b6000604051808303816000865af19150503d8060008114612f54576040519150601f19603f3d011682016040523d82523d6000602084013e612f59565b606091505b5091509150818015612f83575080511580612f83575080806020019051810190612f83919061382a565b6109905760405162461bcd60e51b815260040161091890613ef8565b60007f00000000000000000000000000000000000000000000000000000000000000006001600160a01b031663e8a353926040518163ffffffff1660e01b815260040160206040518083038186803b158015612ffa57600080fd5b505afa15801561300e573d6000803e3d6000fd5b505050506040513d601f19601f82011682018060405250810190613032919061362f565b90506001600160a01b0381166130485750613055565b6130538382846133dd565b505b5050565b6040517f72b8cbcc0000000000000000000000000000000000000000000000000000000081526000906001600160a01b037f000000000000000000000000000000000000000000000000000000000000000016906372b8cbcc906130c1908690600401613a24565b60206040518083038186803b1580156130d957600080fd5b505afa1580156130ed573d6000803e3d6000fd5b505050506040513d601f19601f82011682018060405250810190613111919061362f565b90506001600160a01b0381166131275750613053565b6131328482846133dd565b50505050565b6dffffffffffffffffffffffffffff821180159061316457506dffffffffffffffffffffffffffff8111155b6131805760405162461bcd60e51b815260040161091890613f2f565b600980547fffffffffffffffffffffffffffffffffffff0000000000000000000000000000166dffffffffffffffffffffffffffff848116919091177fffffffff0000000000000000000000000000ffffffffffffffffffffffffffff166e010000000000000000000000000000848316810291909117928390556040517f1c411e9a96e071241c2f21f7726b17ae89e3cab4c78be50e062b03a9fffbbad19361323293818116939091041690613f9d565b60405180910390a15050565b604080516000808252602082019092526001600160a01b03841690839060405161326891906139d2565b60006040518083038185875af1925050503d80600081146132a5576040519150601f19603f3d011682016040523d82523d6000602084013e6132aa565b606091505b50509050806130535760405162461bcd60e51b815260040161091890613e9b565b6000826132da575060006108b5565b828202828482816132e757fe5b0414610a805760405162461bcd60e51b815260040161091890613cf4565b600082820183811015610a805760405162461bcd60e51b815260040161091890613be1565b600080821161334b5760405162461bcd60e51b815260040161091890613cbd565b81838161335457fe5b049392505050565b6000546133699082613305565b60009081556001600160a01b03831681526001602052604090205461338e9082613305565b6001600160a01b0383166000818152600160205260408082209390935591519091907fddf252ad1be2c89b69c2b068fc378daa952ba7f163c4a11628f55a4df523b3ef90612e28908590613b05565b6040516370a0823160e01b81526000906001600160a01b038516906370a082319061340c903090600401613a24565b60206040518083038186803b15801561342457600080fd5b505afa158015613438573d6000803e3d6000fd5b505050506040513d601f19601f8201168201806040525081019061345c9190613865565b90508082111561346a578091505b811561313257613132848484612e34565b828054600181600116156101000203166002900490600052602060002090601f016020900481019282601f106134bc57805160ff19168380011785556134e9565b828001600101855582156134e9579182015b828111156134e95782518255916020019190600101906134ce565b506134f5929150613546565b5090565b6040518060a0016040528060008152602001600081526020016000815260200160008152602001600081525090565b60405180608001604052806004906020820280368337509192915050565b5b808211156134f55760008155600101613547565b600082601f83011261356b578081fd5b813567ffffffffffffffff811115613581578182fd5b6135946020601f19601f84011601614043565b91508082528360208285010111156135ab57600080fd5b8060208401602084013760009082016020015292915050565b600060a082840312156135d5578081fd5b6135df60a0614043565b9050813581526020820135602082015260408201356040820152606082013560608201526080820135608082015292915050565b600060208284031215613624578081fd5b8135610a8081614096565b600060208284031215613640578081fd5b8151610a8081614096565b6000806040838503121561365d578081fd5b823561366881614096565b9150602083013561367881614096565b809150509250929050565b60008060008060808587031215613698578182fd5b84356136a381614096565b935060208501356136b381614096565b9250604085013567ffffffffffffffff808211156136cf578384fd5b6136db8883890161355b565b935060608701359150808211156136f0578283fd5b506136fd8782880161355b565b91505092959194509250565b60008060006060848603121561371d578283fd5b833561372881614096565b9250602084013561373881614096565b929592945050506040919091013590565b600080600080600080600060e0888a031215613763578283fd5b873561376e81614096565b9650602088013561377e81614096565b95506040880135945060608801359350608088013560ff811681146137a1578384fd5b9699959850939692959460a0840135945060c09093013592915050565b600080604083850312156137d0578182fd5b82356137db81614096565b946020939093013593505050565b6000806000606084860312156137fd578283fd5b833561380881614096565b925060208401359150604084013561381f81614096565b809150509250925092565b60006020828403121561383b578081fd5b81518015158114610a80578182fd5b600060a0828403121561385b578081fd5b610a8083836135c4565b600060208284031215613876578081fd5b5051919050565b60008060c0838503121561388f578182fd5b8235915061110884602085016135c4565b600080604083850312156138b2578182fd5b50508035926020909101359150565b600080600060e084860312156138d5578081fd5b83359250602084013591506138ed85604086016135c4565b90509250925092565b600080600080610100858703121561390c578182fd5b84359350602085013592506040850135915061392b86606087016135c4565b905092959194509250565b6000806000806080858703121561394b578182fd5b5050823594602084013594506040840135936060013592509050565b600080600080600060a0868803121561397e578283fd5b5050835160208501516040860151606087015160809097015192989197509594509092509050565b600081518084526139be81602086016020860161406a565b601f01601f19169290920160200192915050565b600082516139e481846020870161406a565b9190910192915050565b7f190100000000000000000000000000000000000000000000000000000000000081526002810192909252602282015260420190565b6001600160a01b0391909116815260200190565b6001600160a01b039485168152928416602084015292166040820152606081019190915260800190565b6001600160a01b03948516815292841660208401526040830191909152909116606082015260800190565b6001600160a01b0394851681529290931660208301526040820152606081019190915260800190565b6001600160a01b03929092168252602082015260400190565b60006001600160a01b038516825260ff841660208301526060604083015261233360608301846139a6565b901515815260200190565b90815260200190565b9586526001600160a01b0394851660208701529290931660408501526060840152608083019190915260a082015260c00190565b93845260ff9290921660208401526040830152606082015260800190565b600060208252610a8060208301846139a6565b6020808252600d908201527f43506169723a204c4f434b454400000000000000000000000000000000000000604082015260600190565b60208082526019908201527f4345524332303a20494e56414c49445f5349474e415455524500000000000000604082015260600190565b6020808252601b908201527f536166654d6174683a206164646974696f6e206f766572666c6f770000000000604082015260600190565b6020808252601c908201527f43506169723a20696e73756666696369656e7420616d6f756e74496e00000000604082015260600190565b6020808252601e908201527f536166654d6174683a207375627472616374696f6e206f766572666c6f770000604082015260600190565b60208082526011908201527f43506169723a20494e56414c49445f544f000000000000000000000000000000604082015260600190565b6020808252601a908201527f536166654d6174683a206469766973696f6e206279207a65726f000000000000604082015260600190565b60208082526021908201527f536166654d6174683a206d756c7469706c69636174696f6e206f766572666c6f60408201527f7700000000000000000000000000000000000000000000000000000000000000606082015260800190565b6020808252601c908201527f43506169723a2077726f6e6720616d6f756e74496e206e656564656400000000604082015260600190565b6020808252600f908201527f4345524332303a20455850495245440000000000000000000000000000000000604082015260600190565b60208082526015908201527f43506169723a2077726f6e67206f7574546f6b656e0000000000000000000000604082015260600190565b6020808252601d908201527f43506169723a2053484f52545f4c49515549444954595f4255524e4544000000604082015260600190565b6020808252601d908201527f43506169723a2053484f52545f4c49515549444954595f4d494e544544000000604082015260600190565b60208082526010908201527f43506169723a20464f5242494444454e00000000000000000000000000000000604082015260600190565b60208082526023908201527f5472616e7366657248656c7065723a204554485f5452414e534645525f46414960408201527f4c45440000000000000000000000000000000000000000000000000000000000606082015260800190565b60208082526016908201527f43506169723a205452414e534645525f4641494c454400000000000000000000604082015260600190565b6020808252600f908201527f43506169723a204f564552464c4f570000000000000000000000000000000000604082015260600190565b60208082526015908201527f43506169723a2077726f6e6720616d6f756e74496e0000000000000000000000604082015260600190565b6dffffffffffffffffffffffffffff92831681529116602082015260400190565b918252602082015260400190565b92835260208301919091526001600160a01b0316604082015260600190565b600060e08201905085825260208581840152846040840152606083018460005b60048110156140285781518352918301919083019060010161400b565b5050505095945050505050565b60ff91909116815260200190565b60405181810167ffffffffffffffff8111828210171561406257600080fd5b604052919050565b60005b8381101561408557818101518382015260200161406d565b838111156131325750506000910152565b6001600160a01b03811681146140ab57600080fd5b5056fea2646970667358221220e83e45b562cef0a375362acb16e9488bb35c7b841f46ce7a5538d67387c937b064736f6c634300060c0033a26469706673582212200048fbbf7d305e36c3bcfc20b7ed18ee05eac3e20e0c9c347679b9acd157d3f964736f6c634300060c0033",
  "immutableReferences": {
    "6767": [
      {
        "length": 32,
        "start": 2563
      },
      {
        "length": 32,
        "start": 3107
      }
    ]
  },
  "source": "// SPDX-License-Identifier: GPL-3.0-or-later\npragma experimental ABIEncoderV2;\npragma solidity 0.6.12;\n\nimport \"./interface/ICoFiXFactory.sol\";\nimport \"./interface/ICoFiXController.sol\";\nimport \"./CoFiXPair.sol\";\n\n// Factory of CoFiX to create new CoFiXPair contract when new pair is created, managed by governance\n// Governance role of this contract should be the `Timelock` contract, which is further managed by a multisig contract\ncontract CoFiXFactory is ICoFiXFactory {\n\n    string constant internal pairNamePrefix = \"XToken \";\n    string constant internal pairSymbolPrefix = \"XT-\";\n\n    mapping(address => address) public override getPair;\n    address[] public override allPairs;\n    address public immutable WETH;\n    address public governance;\n    address public controller;\n    address public feeReceiver;\n\n    address public vaultForLP;\n    address public vaultForTrader;\n    address public vaultForCNode;\n\n    mapping (address => bool) public override getTradeMiningStatus; // token -> bool\n    mapping (address => address) public override getFeeVaultForLP; // token -> fee vault pool\n\n    modifier onlyGovernance() {\n        require(msg.sender == governance, \"CFactory: !governance\");\n        _;\n    }\n\n    constructor(address _WETH) public {\n        governance = msg.sender;\n        feeReceiver = msg.sender; // set feeReceiver to a feeReceiver contract later\n        WETH = _WETH;\n    }\n\n    function allPairsLength() external override view returns (uint256) {\n        return allPairs.length;\n    }\n\n    function pairCodeHash() external pure returns (bytes32) {\n        return keccak256(type(CoFiXPair).creationCode);\n    }\n\n    function createPair(address token) external override returns (address pair) {\n        require(token != address(0), 'CFactory: ZERO_ADDRESS');\n        require(getPair[token] == address(0), 'CFactory: PAIR_EXISTS');\n        bytes memory bytecode = type(CoFiXPair).creationCode;\n        bytes32 salt = keccak256(abi.encodePacked(token));\n        assembly {\n            pair := create2(0, add(bytecode, 32), mload(bytecode), salt)\n        }\n        require(pair != address(0), \"CFactory: Failed on deploy\");\n\n        getPair[token] = pair;\n        allPairs.push(pair);\n\n        uint256 pairLen = allPairs.length;\n        string memory _idx = uint2str(pairLen);\n        string memory _name = append(pairNamePrefix, _idx);\n        string memory _symbol = append(pairSymbolPrefix, _idx);\n        ICoFiXPair(pair).initialize(WETH, token, _name, _symbol);\n\n        ICoFiXController(controller).addCaller(pair);\n        emit PairCreated(token, pair, pairLen);\n    }\n\n    function setGovernance(address _new) external override onlyGovernance {\n        require(_new != address(0), \"CFactory: zero addr\");\n        require(_new != governance, \"CFactory: same addr\");\n        governance = _new;\n        emit NewGovernance(_new);\n    }\n    \n    function setController(address _new) external override onlyGovernance {\n        require(_new != address(0), \"CFactory: zero addr\");\n        require(_new != controller, \"CFactory: same addr\");\n        controller = _new;\n        emit NewController(_new);\n    }\n\n    function setFeeReceiver(address _new) external override onlyGovernance {\n        require(_new != address(0), \"CFactory: zero addr\");\n        require(_new != feeReceiver, \"CFactory: same addr\");\n        feeReceiver = _new;\n        emit NewFeeReceiver(_new);\n    }\n\n    function setFeeVaultForLP(address token, address feeVault) external override onlyGovernance {\n        getFeeVaultForLP[token] = feeVault;\n        emit NewFeeVaultForLP(token, feeVault);\n    }\n\n    function setVaultForLP(address _new) external override onlyGovernance {\n        require(_new != address(0), \"CFactory: zero addr\");\n        require(_new != vaultForLP, \"CFactory: same addr\");\n        vaultForLP = _new;\n        emit NewVaultForLP(_new);\n    }\n\n    function setVaultForTrader(address _new) external override onlyGovernance {\n        require(_new != address(0), \"CFactory: zero addr\");\n        require(_new != vaultForTrader, \"CFactory: same addr\");\n        vaultForTrader = _new;\n        emit NewVaultForTrader(_new);\n    }\n\n    function setVaultForCNode(address _new) external override onlyGovernance {\n        require(_new != address(0), \"CFactory: zero addr\");\n        require(_new != vaultForCNode, \"CFactory: same addr\");\n        vaultForCNode = _new;\n        emit NewVaultForCNode(_new);\n    }\n\n    function setTradeMiningStatus(address token, bool status) external override onlyGovernance {\n        getTradeMiningStatus[token] = status;\n    }\n\n    function getController() external view override returns (address) {\n        return controller;\n    }\n\n    function getFeeReceiver() external view override returns (address) {\n        return feeReceiver;\n    }\n\n    function getVaultForLP() external view override returns (address) {\n        return vaultForLP;\n    }\n\n    function getVaultForTrader() external view override returns (address) {\n        return vaultForTrader;\n    }\n\n    function getVaultForCNode() external view override returns (address) {\n        return vaultForCNode;\n    }\n\n    // internal helpers\n\n    function append(string memory a, string memory b) internal pure returns (string memory) {\n        return string(abi.encodePacked(a, b));\n    }\n\n    function uint2str(uint _i) internal pure returns (string memory) {\n        if (_i == 0) {\n            return \"0\";\n        }\n        uint j = _i;\n        uint len;\n        while (j != 0) {\n            len++;\n            j /= 10;\n        }\n        bytes memory bstr = new bytes(len);\n        uint k = len - 1;\n        while (_i != 0) {\n            bstr[k--] = byte(uint8(48 + _i % 10));\n            _i /= 10;\n        }\n        return string(bstr);\n    }\n}\n",
  "sourcePath": "/Users/lixiansheng/Downloads/CoFix/contracts/CoFiXFactory.sol",
  "compiler": {
    "name": "solc",
    "version": "0.6.12+commit.27d51765.Emscripten.clang"
  },
  "schemaVersion": "3.3.3",
  "updatedAt": "2021-05-11T03:13:27.954Z",
  "networkType": "ethereum",
  "devdoc": {
    "kind": "dev",
    "methods": {
      "createPair(address)": {
        "details": "Create a new token pair for trading",
        "params": {
          "token": "the address of token to trade"
        },
        "returns": {
          "pair": "the address of new token pair"
        }
      }
    },
    "version": 1
  },
  "userdoc": {
    "kind": "user",
    "methods": {},
    "version": 1
  }
}