{
  "contractName": "CoFiXV2DAO",
  "abi": [
    {
      "inputs": [
        {
          "internalType": "address",
          "name": "_cofiToken",
          "type": "address"
        },
        {
          "internalType": "address",
          "name": "_factory",
          "type": "address"
        }
      ],
      "stateMutability": "nonpayable",
      "type": "constructor"
    },
    {
      "anonymous": false,
      "inputs": [
        {
          "indexed": false,
          "internalType": "address",
          "name": "gov",
          "type": "address"
        },
        {
          "indexed": false,
          "internalType": "uint256",
          "name": "amount",
          "type": "uint256"
        }
      ],
      "name": "CoFiBurn",
      "type": "event"
    },
    {
      "anonymous": false,
      "inputs": [
        {
          "indexed": false,
          "internalType": "address",
          "name": "gov",
          "type": "address"
        },
        {
          "indexed": false,
          "internalType": "uint256",
          "name": "flag",
          "type": "uint256"
        }
      ],
      "name": "FlagSet",
      "type": "event"
    },
    {
      "inputs": [],
      "name": "cofiToken",
      "outputs": [
        {
          "internalType": "address",
          "name": "",
          "type": "address"
        }
      ],
      "stateMutability": "view",
      "type": "function",
      "constant": true
    },
    {
      "inputs": [],
      "name": "factory",
      "outputs": [
        {
          "internalType": "address",
          "name": "",
          "type": "address"
        }
      ],
      "stateMutability": "view",
      "type": "function",
      "constant": true
    },
    {
      "inputs": [],
      "name": "flag",
      "outputs": [
        {
          "internalType": "uint8",
          "name": "",
          "type": "uint8"
        }
      ],
      "stateMutability": "view",
      "type": "function",
      "constant": true
    },
    {
      "inputs": [],
      "name": "governance",
      "outputs": [
        {
          "internalType": "address",
          "name": "",
          "type": "address"
        }
      ],
      "stateMutability": "view",
      "type": "function",
      "constant": true
    },
    {
      "inputs": [],
      "name": "lastBlock",
      "outputs": [
        {
          "internalType": "uint32",
          "name": "",
          "type": "uint32"
        }
      ],
      "stateMutability": "view",
      "type": "function",
      "constant": true
    },
    {
      "inputs": [],
      "name": "quotaAmount",
      "outputs": [
        {
          "internalType": "uint128",
          "name": "",
          "type": "uint128"
        }
      ],
      "stateMutability": "view",
      "type": "function",
      "constant": true
    },
    {
      "inputs": [],
      "name": "redeemedAmount",
      "outputs": [
        {
          "internalType": "uint128",
          "name": "",
          "type": "uint128"
        }
      ],
      "stateMutability": "view",
      "type": "function",
      "constant": true
    },
    {
      "inputs": [],
      "name": "startedBlock",
      "outputs": [
        {
          "internalType": "uint32",
          "name": "",
          "type": "uint32"
        }
      ],
      "stateMutability": "view",
      "type": "function",
      "constant": true
    },
    {
      "stateMutability": "payable",
      "type": "receive",
      "payable": true
    },
    {
      "inputs": [
        {
          "internalType": "address",
          "name": "_new",
          "type": "address"
        }
      ],
      "name": "setGovernance",
      "outputs": [],
      "stateMutability": "nonpayable",
      "type": "function"
    },
    {
      "inputs": [],
      "name": "start",
      "outputs": [],
      "stateMutability": "nonpayable",
      "type": "function"
    },
    {
      "inputs": [],
      "name": "pause",
      "outputs": [],
      "stateMutability": "nonpayable",
      "type": "function"
    },
    {
      "inputs": [],
      "name": "resume",
      "outputs": [],
      "stateMutability": "nonpayable",
      "type": "function"
    },
    {
      "inputs": [],
      "name": "totalETHRewards",
      "outputs": [
        {
          "internalType": "uint256",
          "name": "",
          "type": "uint256"
        }
      ],
      "stateMutability": "view",
      "type": "function",
      "constant": true
    },
    {
      "inputs": [
        {
          "internalType": "address",
          "name": "_newDAO",
          "type": "address"
        }
      ],
      "name": "migrateTo",
      "outputs": [],
      "stateMutability": "nonpayable",
      "type": "function"
    },
    {
      "inputs": [
        {
          "internalType": "uint256",
          "name": "amount",
          "type": "uint256"
        }
      ],
      "name": "burnCofi",
      "outputs": [],
      "stateMutability": "nonpayable",
      "type": "function"
    },
    {
      "inputs": [
        {
          "internalType": "uint256",
          "name": "amount",
          "type": "uint256"
        }
      ],
      "name": "redeem",
      "outputs": [],
      "stateMutability": "payable",
      "type": "function",
      "payable": true
    },
    {
      "inputs": [],
      "name": "quotaOf",
      "outputs": [
        {
          "internalType": "uint256",
          "name": "quota",
          "type": "uint256"
        }
      ],
      "stateMutability": "view",
      "type": "function",
      "constant": true
    }
  ],
  "bytecode": "0x608060405234801561001057600080fd5b506040516117b53803806117b58339818101604052604081101561003357600080fd5b50805160209091015160016000819055600380546001600160a01b039485166001600160a01b031991821617909155600480549490931693811693909317909155600580549092163317909155805460ff19168117905561171c806100996000396000f3fe6080604052600436106101125760003560e01c8063806b984f116100a5578063ab033ea911610074578063be9a655511610059578063be9a655514610340578063c45a015514610355578063db006a751461036a57610119565b8063ab033ea9146102eb578063bc472e291461032b57610119565b8063806b984f146102815780638456cb5914610296578063890eba68146102ab578063a7731842146102d657610119565b80634ddaf8f2116100e15780634ddaf8f2146101c05780635aa6e675146102005780635d941dd51461023e5780636d6577a41461025357610119565b8063046f7da21461011e5780631a57dffb146101355780631dec47fe1461015f5780633f83e9c81461019957610119565b3661011957005b600080fd5b34801561012a57600080fd5b50610133610387565b005b34801561014157600080fd5b506101336004803603602081101561015857600080fd5b503561045e565b34801561016b57600080fd5b506101746106f9565b604080516fffffffffffffffffffffffffffffffff9092168252519081900360200190f35b3480156101a557600080fd5b506101ae610711565b60408051918252519081900360200190f35b3480156101cc57600080fd5b50610133600480360360208110156101e357600080fd5b503573ffffffffffffffffffffffffffffffffffffffff16610720565b34801561020c57600080fd5b50610215610948565b6040805173ffffffffffffffffffffffffffffffffffffffff9092168252519081900360200190f35b34801561024a57600080fd5b50610215610964565b34801561025f57600080fd5b50610268610980565b6040805163ffffffff9092168252519081900360200190f35b34801561028d57600080fd5b50610268610991565b3480156102a257600080fd5b506101336109a6565b3480156102b757600080fd5b506102c0610a7d565b6040805160ff9092168252519081900360200190f35b3480156102e257600080fd5b50610174610a86565b3480156102f757600080fd5b506101336004803603602081101561030e57600080fd5b503573ffffffffffffffffffffffffffffffffffffffff16610aab565b34801561033757600080fd5b506101ae610b5e565b34801561034c57600080fd5b50610133610b62565b34801561036157600080fd5b50610215610cc1565b6101336004803603602081101561038057600080fd5b5035610cdd565b60055473ffffffffffffffffffffffffffffffffffffffff1633146103f3576040805162461bcd60e51b815260206004820152601460248201527f4344414f3a206e6f7420676f7665726e616e6365000000000000000000000000604482015290519081900360640190fd5b600180547fffffffffffffffffffffffffffffffffffffffffffffffffffffffffffffff0016600290811790915560408051338152602081019290925280517f5f136d3b405931da808102d65c5c331d1bfcbd4e7127777914d480cd106ca5ae9281900390910190a1565b60055473ffffffffffffffffffffffffffffffffffffffff1633146104ca576040805162461bcd60e51b815260206004820152601460248201527f4344414f3a206e6f7420676f7665726e616e6365000000000000000000000000604482015290519081900360640190fd5b6000811161051f576040805162461bcd60e51b815260206004820152601460248201527f4344414f3a20696c6c6567616c20616d6f756e74000000000000000000000000604482015290519081900360640190fd5b600354604080517f70a08231000000000000000000000000000000000000000000000000000000008152306004820152905160009273ffffffffffffffffffffffffffffffffffffffff16916370a08231916024808301926020929190829003018186803b15801561059057600080fd5b505afa1580156105a4573d6000803e3d6000fd5b505050506040513d60208110156105ba57600080fd5b5051905081811015610613576040805162461bcd60e51b815260206004820152601760248201527f4344414f3a20696e73756666696369656e7420636f6669000000000000000000604482015290519081900360640190fd5b600354604080517fa9059cbb0000000000000000000000000000000000000000000000000000000081526001600482015260248101859052905173ffffffffffffffffffffffffffffffffffffffff9092169163a9059cbb916044808201926020929091908290030181600087803b15801561068e57600080fd5b505af11580156106a2573d6000803e3d6000fd5b505050506040513d60208110156106b857600080fd5b5050604080513381526020810184905281517f6726e414a967f4e11d89271b4501038b28c3bf4ff8e3d8c1ccba8bbe517fbc8e929181900390910190a15050565b6002546fffffffffffffffffffffffffffffffff1681565b600061071b611308565b905090565b60055473ffffffffffffffffffffffffffffffffffffffff16331461078c576040805162461bcd60e51b815260206004820152601460248201527f4344414f3a206e6f7420676f7665726e616e6365000000000000000000000000604482015290519081900360640190fd5b60015460ff166004146107e6576040805162461bcd60e51b815260206004820152601060248201527f4344414f3a206e6f742070617573656400000000000000000000000000000000604482015290519081900360640190fd5b47156107f6576107f681476113ff565b600354604080517f70a08231000000000000000000000000000000000000000000000000000000008152306004820152905160009273ffffffffffffffffffffffffffffffffffffffff16916370a08231916024808301926020929190829003018186803b15801561086757600080fd5b505afa15801561087b573d6000803e3d6000fd5b505050506040513d602081101561089157600080fd5b50519050801561094457600354604080517fa9059cbb00000000000000000000000000000000000000000000000000000000815273ffffffffffffffffffffffffffffffffffffffff8581166004830152602482018590529151919092169163a9059cbb9160448083019260209291908290030181600087803b15801561091757600080fd5b505af115801561092b573d6000803e3d6000fd5b505050506040513d602081101561094157600080fd5b50505b5050565b60055473ffffffffffffffffffffffffffffffffffffffff1681565b60035473ffffffffffffffffffffffffffffffffffffffff1681565b600154610100900463ffffffff1681565b60015465010000000000900463ffffffff1681565b60055473ffffffffffffffffffffffffffffffffffffffff163314610a12576040805162461bcd60e51b815260206004820152601460248201527f4344414f3a206e6f7420676f7665726e616e6365000000000000000000000000604482015290519081900360640190fd5b600180547fffffffffffffffffffffffffffffffffffffffffffffffffffffffffffffff0016600490811790915560408051338152602081019290925280517f5f136d3b405931da808102d65c5c331d1bfcbd4e7127777914d480cd106ca5ae9281900390910190a1565b60015460ff1681565b600154690100000000000000000090046fffffffffffffffffffffffffffffffff1681565b60055473ffffffffffffffffffffffffffffffffffffffff163314610b17576040805162461bcd60e51b815260206004820152601460248201527f4344414f3a206e6f7420676f7665726e616e6365000000000000000000000000604482015290519081900360640190fd5b600580547fffffffffffffffffffffffff00000000000000000000000000000000000000001673ffffffffffffffffffffffffffffffffffffffff92909216919091179055565b4790565b60055473ffffffffffffffffffffffffffffffffffffffff163314610bce576040805162461bcd60e51b815260206004820152601460248201527f4344414f3a206e6f7420676f7665726e616e6365000000000000000000000000604482015290519081900360640190fd5b6001805460ff1614610c27576040805162461bcd60e51b815260206004820152601560248201527f4344414f3a206e6f7420696e697469616c697a65640000000000000000000000604482015290519081900360640190fd5b6001805460027fffffffffffffffffffffffffffffffffffffffffffffffffffffff00000000ff9091166101004363ffffffff1602177fffffffffffffffffffffffffffffffffffffffffffffffffffffffffffffff0016811790915560408051338152602081019290925280517f5f136d3b405931da808102d65c5c331d1bfcbd4e7127777914d480cd106ca5ae9281900390910190a1565b60045473ffffffffffffffffffffffffffffffffffffffff1681565b60026000541415610d35576040805162461bcd60e51b815260206004820152601f60248201527f5265656e7472616e637947756172643a207265656e7472616e742063616c6c00604482015290519081900360640190fd5b6002600081905560015460ff1614610d94576040805162461bcd60e51b815260206004820152601060248201527f4344414f3a206e6f742061637469766500000000000000000000000000000000604482015290519081900360640190fd5b60004711610de9576040805162461bcd60e51b815260206004820152601a60248201527f4344414f3a20696e73756666696369656e742062616c616e6365000000000000604482015290519081900360640190fd5b662386f26fc100003414610e44576040805162461bcd60e51b815260206004820152601060248201527f4344414f3a20216f7261636c6546656500000000000000000000000000000000604482015290519081900360640190fd5b6000610e4e610711565b9050600080600080600460009054906101000a900473ffffffffffffffffffffffffffffffffffffffff1673ffffffffffffffffffffffffffffffffffffffff16633018205f6040518163ffffffff1660e01b815260040160206040518083038186803b158015610ebe57600080fd5b505afa158015610ed2573d6000803e3d6000fd5b505050506040513d6020811015610ee857600080fd5b5051600354604080517fb859b41500000000000000000000000000000000000000000000000000000000815273ffffffffffffffffffffffffffffffffffffffff92831660048201529051919092169163b859b41591349160248082019260809290919082900301818588803b158015610f6157600080fd5b505af1158015610f75573d6000803e3d6000fd5b50505050506040513d6080811015610f8c57600080fd5b50805160208201516040909201519094509092509050610fbe83610fb884670de0b6b3a7640000611522565b90611584565b93506000818511610fd157848203610fd5565b8185035b90506000610fe4836005611522565b610fef836064611522565b10610ffb576001610ffe565b60005b90508015611053576040805162461bcd60e51b815260206004820152601560248201527f4344414f3a20707269636520646576696174696f6e0000000000000000000000604482015290519081900360640190fd5b5050505050818311156110ad576040805162461bcd60e51b815260206004820152601860248201527f4344414f3a20696e73756666696369656e742071756f74610000000000000000604482015290519081900360640190fd5b6110b74782611522565b6110c984670de0b6b3a7640000611522565b111561111c576040805162461bcd60e51b815260206004820152601b60248201527f4344414f3a20696e73756666696369656e742062616c616e6365320000000000604482015290519081900360640190fd5b600154611149908490690100000000000000000090046fffffffffffffffffffffffffffffffff166115eb565b600180546fffffffffffffffffffffffffffffffff929092166901000000000000000000027fffffffffffffff00000000000000000000000000000000ffffffffffffffffff9092169190911790556111a28284611645565b600280546fffffffffffffffffffffffffffffffff929092167fffffffffffffffffffffffffffffffff000000000000000000000000000000009092169190911790556001805463ffffffff43811665010000000000027fffffffffffffffffffffffffffffffffffffffffffffff00000000ffffffffff90921691909117909155600090611243908390610fb8908790670de0b6b3a76400009061152216565b600354604080517f23b872dd00000000000000000000000000000000000000000000000000000000815233600482015230602482015260448101889052905192935073ffffffffffffffffffffffffffffffffffffffff909116916323b872dd916064808201926020929091908290030181600087803b1580156112c657600080fd5b505af11580156112da573d6000803e3d6000fd5b505050506040513d60208110156112f057600080fd5b506112fd905033826113ff565b505060016000555050565b600154600090603290829065010000000000900463ffffffff161561134d5760015461134890439063ffffffff6501000000000090910481169061164516565b61136a565b60015461136a90439063ffffffff61010090910481169061164516565b90506000613a988284021161138157818302611385565b613a985b6002549091506000906113bc906fffffffffffffffffffffffffffffffff166113b684670de0b6b3a7640000611522565b906115eb565b90506113d2613a98670de0b6b3a7640000611522565b8111156113f4576113ed613a98670de0b6b3a7640000611522565b94506113f8565b8094505b5050505090565b6040805160008082526020820190925273ffffffffffffffffffffffffffffffffffffffff84169083906040518082805190602001908083835b6020831061147657805182527fffffffffffffffffffffffffffffffffffffffffffffffffffffffffffffffe09092019160209182019101611439565b6001836020036101000a03801982511681845116808217855250505050505090500191505060006040518083038185875af1925050503d80600081146114d8576040519150601f19603f3d011682016040523d82523d6000602084013e6114dd565b606091505b505090508061151d5760405162461bcd60e51b81526004018080602001828103825260238152602001806116c46023913960400191505060405180910390fd5b505050565b6000826115315750600061157e565b8282028284828161153e57fe5b041461157b5760405162461bcd60e51b81526004018080602001828103825260218152602001806116a36021913960400191505060405180910390fd5b90505b92915050565b60008082116115da576040805162461bcd60e51b815260206004820152601a60248201527f536166654d6174683a206469766973696f6e206279207a65726f000000000000604482015290519081900360640190fd5b8183816115e357fe5b049392505050565b60008282018381101561157b576040805162461bcd60e51b815260206004820152601b60248201527f536166654d6174683a206164646974696f6e206f766572666c6f770000000000604482015290519081900360640190fd5b60008282111561169c576040805162461bcd60e51b815260206004820152601e60248201527f536166654d6174683a207375627472616374696f6e206f766572666c6f770000604482015290519081900360640190fd5b5090039056fe536166654d6174683a206d756c7469706c69636174696f6e206f766572666c6f775472616e7366657248656c7065723a204554485f5452414e534645525f4641494c4544a2646970667358221220fbee4fbfe5dfbb70350d4dec302f0421aa4edcbe987c6ca9238023852c7d76f764736f6c634300060c0033",
  "immutableReferences": {},
  "source": "// SPDX-License-Identifier: GPL-3.0-or-later\n\npragma solidity 0.6.12;\n\nimport \"@openzeppelin/contracts/math/SafeMath.sol\";\nimport \"./lib/TransferHelper.sol\";\nimport \"@openzeppelin/contracts/math/Math.sol\";\nimport \"@openzeppelin/contracts/utils/ReentrancyGuard.sol\";\nimport \"./interface/ICoFiToken.sol\";\nimport \"./interface/ICoFiXV2Factory.sol\";\nimport \"./interface/ICoFiXV2Controller.sol\";\nimport \"./interface/ICoFiXV2DAO.sol\";\n\ncontract CoFiXV2DAO is ICoFiXV2DAO, ReentrancyGuard {\n\n    using SafeMath for uint256;\n\n    /* ========== STATE ============== */\n\n    uint8 public flag; \n\n    uint32  public startedBlock;\n    // uint32  public lastCollectingBlock;\n    uint32 public lastBlock;\n    uint128 public redeemedAmount;\n    uint128 public quotaAmount;\n\n    uint8 constant DAO_FLAG_UNINITIALIZED    = 0;\n    uint8 constant DAO_FLAG_INITIALIZED      = 1;\n    uint8 constant DAO_FLAG_ACTIVE           = 2;\n    uint8 constant DAO_FLAG_NO_STAKING       = 3;\n    uint8 constant DAO_FLAG_PAUSED           = 4;\n    uint8 constant DAO_FLAG_SHUTDOWN         = 127;\n\n    /* ========== PARAMETERS ============== */\n\n    uint256 constant DAO_REPURCHASE_PRICE_DEVIATION = 5;  // price deviation < 5% \n    uint256 constant _oracleFee = 0.01 ether;\n\n\n    /* ========== ADDRESSES ============== */\n\n    address public cofiToken;\n\n    address public factory;\n\n    address public governance;\n\n    /* ========== CONSTRUCTOR ========== */\n\n    receive() external payable {\n    }\n\n    constructor(address _cofiToken, address _factory) public {\n        cofiToken = _cofiToken;\n        factory = _factory;\n        governance = msg.sender;\n        flag = DAO_FLAG_INITIALIZED;\n    }\n\n    /* ========== MODIFIERS ========== */\n\n    modifier onlyGovernance() \n    {\n        require(msg.sender == governance, \"CDAO: not governance\");\n        _;\n    }\n\n    modifier whenActive() \n    {\n        require(flag == DAO_FLAG_ACTIVE, \"CDAO: not active\");\n        _;\n    }\n\n    /* ========== GOVERNANCE ========== */\n\n    function setGovernance(address _new) external override onlyGovernance {\n        governance = _new;\n    }\n\n    function start() override external onlyGovernance\n    {  \n        require(flag == DAO_FLAG_INITIALIZED, \"CDAO: not initialized\");\n\n        startedBlock = uint32(block.number);\n        flag = DAO_FLAG_ACTIVE;\n        emit FlagSet(address(msg.sender), uint256(DAO_FLAG_ACTIVE));\n    }\n\n    function pause() external onlyGovernance\n    {\n        flag = DAO_FLAG_PAUSED;\n        emit FlagSet(address(msg.sender), uint256(DAO_FLAG_PAUSED));\n    }\n\n    function resume() external onlyGovernance\n    {\n        flag = DAO_FLAG_ACTIVE;\n        emit FlagSet(address(msg.sender), uint256(DAO_FLAG_ACTIVE));\n    }\n\n    function totalETHRewards()\n        external view returns (uint256) \n    {\n       return address(this).balance;\n    }\n\n    function migrateTo(address _newDAO) external onlyGovernance\n    {\n        require(flag == DAO_FLAG_PAUSED, \"CDAO: not paused\");\n        \n        if(address(this).balance > 0) {\n            TransferHelper.safeTransferETH(_newDAO, address(this).balance);\n        }\n        // ICoFiXV2DAO(_newDAO).addETHReward{value: address(this).balance}();\n\n        uint256 _cofiTokenAmount = ICoFiToken(cofiToken).balanceOf(address(this));\n        if (_cofiTokenAmount > 0) {\n            ICoFiToken(cofiToken).transfer(_newDAO, _cofiTokenAmount);\n        }\n    }\n\n    function burnCofi(uint256 amount) external onlyGovernance {\n        require(amount > 0, \"CDAO: illegal amount\");\n\n        uint256 _cofiTokenAmount = ICoFiToken(cofiToken).balanceOf(address(this));\n\n        require(_cofiTokenAmount >= amount, \"CDAO: insufficient cofi\");\n\n        ICoFiToken(cofiToken).transfer(address(0x1), amount);\n        emit CoFiBurn(address(msg.sender), amount);\n    }\n\n    /* ========== MAIN ========== */\n\n    // function addETHReward() \n    //     override\n    //     external\n    //     payable\n    // { }\n\n    function redeem(uint256 amount) \n        external payable nonReentrant whenActive\n    {\n        require(address(this).balance > 0, \"CDAO: insufficient balance\");\n        require (msg.value == _oracleFee, \"CDAO: !oracleFee\");\n\n        // check the repurchasing quota\n        uint256 quota = quotaOf();\n\n        uint256 price;\n        {\n            // check if the price is steady\n            (uint256 ethAmount, uint256 tokenAmount, uint256 avg, ) = ICoFiXV2Controller(ICoFiXV2Factory(factory).getController())\n                    .getLatestPriceAndAvgVola{value: msg.value}(cofiToken);\n            price = tokenAmount.mul(1e18).div(ethAmount);\n\n            uint256 diff = price > avg ? (price - avg) : (avg - price);\n            bool isDeviated = (diff.mul(100) < avg.mul(DAO_REPURCHASE_PRICE_DEVIATION))? false : true;\n            require(isDeviated == false, \"CDAO: price deviation\"); // validate\n        }\n\n        // check if there is sufficient quota for repurchase\n        require (amount <= quota, \"CDAO: insufficient quota\");\n        require (amount.mul(1e18) <= address(this).balance.mul(price), \"CDAO: insufficient balance2\");\n\n        redeemedAmount = uint128(amount.add(redeemedAmount));\n        quotaAmount = uint128(quota.sub(amount));\n        lastBlock = uint32(block.number);\n\n        uint256 amountEthOut = amount.mul(1e18).div(price);\n\n        // transactions\n        ICoFiToken(cofiToken).transferFrom(address(msg.sender), address(this), amount);\n        TransferHelper.safeTransferETH(msg.sender, amountEthOut);\n    }\n\n    function _quota() internal view returns (uint256 quota) \n    {\n        uint256 n = 50;\n        uint256 intv = (lastBlock == 0) ? \n            (block.number).sub(startedBlock) : (block.number).sub(uint256(lastBlock));\n        uint256 _acc = (n * intv > 15_000) ? 15_000 : (n * intv);\n\n        // check if total amounts overflow\n        uint256 total = _acc.mul(1e18).add(quotaAmount);\n        if (total > uint256(15_000).mul(1e18)){\n            quota = uint256(15_000).mul(1e18);\n        } else{\n            quota = total;\n        }\n    }\n\n    /* ========== VIEWS ========== */\n\n    function quotaOf() public view returns (uint256 quota) \n    {\n        return _quota();\n    }\n\n}",
  "sourcePath": "/Users/lixiansheng/Downloads/cofix2/contracts/CoFiXV2DAO.sol",
  "compiler": {
    "name": "solc",
    "version": "0.6.12+commit.27d51765.Emscripten.clang"
  },
  "schemaVersion": "3.3.3",
  "updatedAt": "2021-05-14T10:59:45.125Z",
  "networkType": "ethereum",
  "devdoc": {
    "kind": "dev",
    "methods": {},
    "version": 1
  },
  "userdoc": {
    "kind": "user",
    "methods": {},
    "version": 1
  }
}