{
  "contractName": "CoFiXController02",
  "abi": [
    {
      "inputs": [
        {
          "internalType": "address",
          "name": "_voteFactory",
          "type": "address"
        },
        {
          "internalType": "address",
          "name": "_nest",
          "type": "address"
        },
        {
          "internalType": "address",
          "name": "_factory",
          "type": "address"
        },
        {
          "internalType": "address",
          "name": "_kTable",
          "type": "address"
        }
      ],
      "stateMutability": "nonpayable",
      "type": "constructor"
    },
    {
      "anonymous": false,
      "inputs": [
        {
          "indexed": false,
          "internalType": "int128",
          "name": "_gamma",
          "type": "int128"
        }
      ],
      "name": "NewGamma",
      "type": "event"
    },
    {
      "anonymous": false,
      "inputs": [
        {
          "indexed": false,
          "internalType": "address",
          "name": "_new",
          "type": "address"
        }
      ],
      "name": "NewGovernance",
      "type": "event"
    },
    {
      "anonymous": false,
      "inputs": [
        {
          "indexed": false,
          "internalType": "address",
          "name": "token",
          "type": "address"
        },
        {
          "indexed": false,
          "internalType": "int128",
          "name": "K",
          "type": "int128"
        },
        {
          "indexed": false,
          "internalType": "int128",
          "name": "sigma",
          "type": "int128"
        },
        {
          "indexed": false,
          "internalType": "uint256",
          "name": "T",
          "type": "uint256"
        },
        {
          "indexed": false,
          "internalType": "uint256",
          "name": "ethAmount",
          "type": "uint256"
        },
        {
          "indexed": false,
          "internalType": "uint256",
          "name": "erc20Amount",
          "type": "uint256"
        },
        {
          "indexed": false,
          "internalType": "uint256",
          "name": "blockNum",
          "type": "uint256"
        },
        {
          "indexed": false,
          "internalType": "uint256",
          "name": "tIdx",
          "type": "uint256"
        },
        {
          "indexed": false,
          "internalType": "uint256",
          "name": "sigmaIdx",
          "type": "uint256"
        },
        {
          "indexed": false,
          "internalType": "int128",
          "name": "K0",
          "type": "int128"
        }
      ],
      "name": "NewK",
      "type": "event"
    },
    {
      "anonymous": false,
      "inputs": [
        {
          "indexed": false,
          "internalType": "address",
          "name": "token",
          "type": "address"
        },
        {
          "indexed": false,
          "internalType": "uint32",
          "name": "k",
          "type": "uint32"
        }
      ],
      "name": "NewK",
      "type": "event"
    },
    {
      "anonymous": false,
      "inputs": [
        {
          "indexed": false,
          "internalType": "int128",
          "name": "maxK0",
          "type": "int128"
        }
      ],
      "name": "NewKLimit",
      "type": "event"
    },
    {
      "anonymous": false,
      "inputs": [
        {
          "indexed": false,
          "internalType": "uint256",
          "name": "_interval",
          "type": "uint256"
        }
      ],
      "name": "NewKRefreshInterval",
      "type": "event"
    },
    {
      "anonymous": false,
      "inputs": [
        {
          "indexed": false,
          "internalType": "address",
          "name": "_kTable",
          "type": "address"
        }
      ],
      "name": "NewKTable",
      "type": "event"
    },
    {
      "anonymous": false,
      "inputs": [
        {
          "indexed": false,
          "internalType": "address",
          "name": "_priceOracle",
          "type": "address"
        }
      ],
      "name": "NewOracle",
      "type": "event"
    },
    {
      "anonymous": false,
      "inputs": [
        {
          "indexed": false,
          "internalType": "address",
          "name": "token",
          "type": "address"
        },
        {
          "indexed": false,
          "internalType": "uint32",
          "name": "theta",
          "type": "uint32"
        }
      ],
      "name": "NewTheta",
      "type": "event"
    },
    {
      "anonymous": false,
      "inputs": [
        {
          "indexed": false,
          "internalType": "uint256",
          "name": "_timeSpan",
          "type": "uint256"
        }
      ],
      "name": "NewTimespan",
      "type": "event"
    },
    {
      "inputs": [],
      "name": "AONE",
      "outputs": [
        {
          "internalType": "uint256",
          "name": "",
          "type": "uint256"
        }
      ],
      "stateMutability": "view",
      "type": "function"
    },
    {
      "inputs": [],
      "name": "DESTRUCTION_AMOUNT",
      "outputs": [
        {
          "internalType": "uint256",
          "name": "",
          "type": "uint256"
        }
      ],
      "stateMutability": "view",
      "type": "function"
    },
    {
      "inputs": [],
      "name": "GAMMA",
      "outputs": [
        {
          "internalType": "int128",
          "name": "",
          "type": "int128"
        }
      ],
      "stateMutability": "view",
      "type": "function"
    },
    {
      "inputs": [],
      "name": "K_BASE",
      "outputs": [
        {
          "internalType": "uint256",
          "name": "",
          "type": "uint256"
        }
      ],
      "stateMutability": "view",
      "type": "function"
    },
    {
      "inputs": [],
      "name": "MAX_K0",
      "outputs": [
        {
          "internalType": "int128",
          "name": "",
          "type": "int128"
        }
      ],
      "stateMutability": "view",
      "type": "function"
    },
    {
      "inputs": [],
      "name": "NAVPS_BASE",
      "outputs": [
        {
          "internalType": "uint256",
          "name": "",
          "type": "uint256"
        }
      ],
      "stateMutability": "view",
      "type": "function"
    },
    {
      "inputs": [
        {
          "internalType": "address",
          "name": "",
          "type": "address"
        }
      ],
      "name": "callerAllowed",
      "outputs": [
        {
          "internalType": "bool",
          "name": "",
          "type": "bool"
        }
      ],
      "stateMutability": "view",
      "type": "function"
    },
    {
      "inputs": [],
      "name": "factory",
      "outputs": [
        {
          "internalType": "address",
          "name": "",
          "type": "address"
        }
      ],
      "stateMutability": "view",
      "type": "function"
    },
    {
      "inputs": [],
      "name": "governance",
      "outputs": [
        {
          "internalType": "address",
          "name": "",
          "type": "address"
        }
      ],
      "stateMutability": "view",
      "type": "function"
    },
    {
      "inputs": [],
      "name": "kRefreshInterval",
      "outputs": [
        {
          "internalType": "uint256",
          "name": "",
          "type": "uint256"
        }
      ],
      "stateMutability": "view",
      "type": "function"
    },
    {
      "inputs": [],
      "name": "kTable",
      "outputs": [
        {
          "internalType": "address",
          "name": "",
          "type": "address"
        }
      ],
      "stateMutability": "view",
      "type": "function"
    },
    {
      "inputs": [],
      "name": "nestToken",
      "outputs": [
        {
          "internalType": "address",
          "name": "",
          "type": "address"
        }
      ],
      "stateMutability": "view",
      "type": "function"
    },
    {
      "inputs": [],
      "name": "timespan",
      "outputs": [
        {
          "internalType": "uint256",
          "name": "",
          "type": "uint256"
        }
      ],
      "stateMutability": "view",
      "type": "function"
    },
    {
      "inputs": [],
      "name": "voteFactory",
      "outputs": [
        {
          "internalType": "contract INest_3_VoteFactory",
          "name": "",
          "type": "address"
        }
      ],
      "stateMutability": "view",
      "type": "function"
    },
    {
      "stateMutability": "payable",
      "type": "receive"
    },
    {
      "inputs": [
        {
          "internalType": "address",
          "name": "_new",
          "type": "address"
        }
      ],
      "name": "setGovernance",
      "outputs": [],
      "stateMutability": "nonpayable",
      "type": "function"
    },
    {
      "inputs": [
        {
          "internalType": "address",
          "name": "_kTable",
          "type": "address"
        }
      ],
      "name": "setKTable",
      "outputs": [],
      "stateMutability": "nonpayable",
      "type": "function"
    },
    {
      "inputs": [
        {
          "internalType": "uint256",
          "name": "_timeSpan",
          "type": "uint256"
        }
      ],
      "name": "setTimespan",
      "outputs": [],
      "stateMutability": "nonpayable",
      "type": "function"
    },
    {
      "inputs": [
        {
          "internalType": "uint256",
          "name": "_interval",
          "type": "uint256"
        }
      ],
      "name": "setKRefreshInterval",
      "outputs": [],
      "stateMutability": "nonpayable",
      "type": "function"
    },
    {
      "inputs": [
        {
          "internalType": "uint256",
          "name": "_amount",
          "type": "uint256"
        }
      ],
      "name": "setOracleDestructionAmount",
      "outputs": [],
      "stateMutability": "nonpayable",
      "type": "function"
    },
    {
      "inputs": [
        {
          "internalType": "uint256",
          "name": "_T",
          "type": "uint256"
        }
      ],
      "name": "setTLimit",
      "outputs": [],
      "stateMutability": "nonpayable",
      "type": "function"
    },
    {
      "inputs": [
        {
          "internalType": "address",
          "name": "token",
          "type": "address"
        },
        {
          "internalType": "uint32",
          "name": "k",
          "type": "uint32"
        }
      ],
      "name": "setK",
      "outputs": [],
      "stateMutability": "nonpayable",
      "type": "function"
    },
    {
      "inputs": [
        {
          "internalType": "address",
          "name": "token",
          "type": "address"
        },
        {
          "internalType": "uint32",
          "name": "theta",
          "type": "uint32"
        }
      ],
      "name": "setTheta",
      "outputs": [],
      "stateMutability": "nonpayable",
      "type": "function"
    },
    {
      "inputs": [],
      "name": "activate",
      "outputs": [],
      "stateMutability": "nonpayable",
      "type": "function"
    },
    {
      "inputs": [
        {
          "internalType": "address",
          "name": "caller",
          "type": "address"
        }
      ],
      "name": "addCaller",
      "outputs": [],
      "stateMutability": "nonpayable",
      "type": "function"
    },
    {
      "inputs": [
        {
          "internalType": "address",
          "name": "token",
          "type": "address"
        },
        {
          "internalType": "uint8",
          "name": "op",
          "type": "uint8"
        },
        {
          "internalType": "bytes",
          "name": "data",
          "type": "bytes"
        }
      ],
      "name": "queryOracle",
      "outputs": [
        {
          "internalType": "uint256",
          "name": "_k",
          "type": "uint256"
        },
        {
          "internalType": "uint256",
          "name": "_ethAmount",
          "type": "uint256"
        },
        {
          "internalType": "uint256",
          "name": "_erc20Amount",
          "type": "uint256"
        },
        {
          "internalType": "uint256",
          "name": "_blockNum",
          "type": "uint256"
        },
        {
          "internalType": "uint256",
          "name": "_theta",
          "type": "uint256"
        }
      ],
      "stateMutability": "payable",
      "type": "function"
    },
    {
      "inputs": [
        {
          "internalType": "address",
          "name": "token",
          "type": "address"
        },
        {
          "internalType": "bytes",
          "name": "data",
          "type": "bytes"
        },
        {
          "internalType": "uint256",
          "name": "ethAmount",
          "type": "uint256"
        },
        {
          "internalType": "uint256",
          "name": "erc20Amount",
          "type": "uint256"
        }
      ],
      "name": "calcImpactCostFor_BURN",
      "outputs": [
        {
          "internalType": "uint256",
          "name": "impactCost",
          "type": "uint256"
        }
      ],
      "stateMutability": "view",
      "type": "function"
    },
    {
      "inputs": [
        {
          "internalType": "address",
          "name": "token",
          "type": "address"
        },
        {
          "internalType": "bytes",
          "name": "data",
          "type": "bytes"
        },
        {
          "internalType": "uint256",
          "name": "ethAmount",
          "type": "uint256"
        },
        {
          "internalType": "uint256",
          "name": "erc20Amount",
          "type": "uint256"
        }
      ],
      "name": "calcImpactCostFor_SWAP_WITH_EXACT",
      "outputs": [
        {
          "internalType": "uint256",
          "name": "impactCost",
          "type": "uint256"
        }
      ],
      "stateMutability": "pure",
      "type": "function"
    },
    {
      "inputs": [
        {
          "internalType": "address",
          "name": "token",
          "type": "address"
        },
        {
          "internalType": "bytes",
          "name": "data",
          "type": "bytes"
        },
        {
          "internalType": "uint256",
          "name": "ethAmount",
          "type": "uint256"
        },
        {
          "internalType": "uint256",
          "name": "erc20Amount",
          "type": "uint256"
        }
      ],
      "name": "calcImpactCostFor_SWAP_FOR_EXACT",
      "outputs": [
        {
          "internalType": "uint256",
          "name": "impactCost",
          "type": "uint256"
        }
      ],
      "stateMutability": "pure",
      "type": "function"
    },
    {
      "inputs": [
        {
          "internalType": "uint256",
          "name": "vol",
          "type": "uint256"
        }
      ],
      "name": "impactCostForBuyInETH",
      "outputs": [
        {
          "internalType": "uint256",
          "name": "impactCost",
          "type": "uint256"
        }
      ],
      "stateMutability": "pure",
      "type": "function"
    },
    {
      "inputs": [
        {
          "internalType": "uint256",
          "name": "vol",
          "type": "uint256"
        }
      ],
      "name": "impactCostForSellOutETH",
      "outputs": [
        {
          "internalType": "uint256",
          "name": "impactCost",
          "type": "uint256"
        }
      ],
      "stateMutability": "pure",
      "type": "function"
    },
    {
      "inputs": [
        {
          "internalType": "address",
          "name": "token",
          "type": "address"
        }
      ],
      "name": "getKInfo",
      "outputs": [
        {
          "internalType": "uint32",
          "name": "k",
          "type": "uint32"
        },
        {
          "internalType": "uint32",
          "name": "updatedAt",
          "type": "uint32"
        },
        {
          "internalType": "uint32",
          "name": "theta",
          "type": "uint32"
        }
      ],
      "stateMutability": "view",
      "type": "function"
    }
  ],
  "bytecode": "0x60e060405261025860009081556207a120600155600e60065561012c60075560085560098054600160bf1b6001600160801b0319909116670ccccccccccccd00176001600160801b03161790553480156200005957600080fd5b50604051620022b2380380620022b2833981810160405260808110156200007f57600080fd5b508051602080830151604080850151606095860151600480546001600160a01b0319908116331782556001600160601b0319888a1b8116608052868a1b811660a0529884901b90981660c052600580546001600160a01b0380851691909a16179055835163574f2ba360e01b81529351969794969295919486946000949186169363574f2ba393828101939192829003018186803b1580156200012157600080fd5b505afa15801562000136573d6000803e3d6000fd5b505050506040513d60208110156200014d57600080fd5b5051905060005b8181101562000203576000836001600160a01b0316631e3dd18b836040518263ffffffff1660e01b81526004018082815260200191505060206040518083038186803b158015620001a457600080fd5b505afa158015620001b9573d6000803e3d6000fd5b505050506040513d6020811015620001d057600080fd5b50516001600160a01b03166000908152600360205260409020805460ff1916600190811790915591909101905062000154565b5050505050505060805160601c60a05160601c60c05160601c6120546200025e60003980610eee52806114c252508061099a5280610aa95280610b285280610b65525080610a2f52806113b85280611b0b52506120546000f3fe6080604052600436106101dc5760003560e01c80638dba932911610102578063c13b476c11610095578063cf0c282911610064578063cf0c2829146108a3578063d342d977146108e2578063e2e016981461090c578063eba0df6e14610921576101e3565b8063c13b476c14610724578063c45a01551461076b578063c7d5308f14610780578063cdfadb34146107db576101e3565b8063a536b60a116100d1578063a536b60a146102b6578063a8369006146106c7578063ab033ea9146106dc578063be1900321461070f576101e3565b80638dba9329146104d75780638e85056d146105c05780638f2637fb146106885780639d5bfae21461069d576101e3565b80635aa6e6751161017a578063733ed80611610149578063733ed80614610426578063747293fb14610450578063823d309e1461048357806382963012146104ad576101e3565b80635aa6e675146103935780635b8ea798146103a85780635f69bd3d146103d257806363f0c3d9146103e7576101e3565b806337fc2beb116101b657806337fc2beb146102525780634e929741146102835780634f6ec2dd146102b6578063551359de146102cb576101e3565b80630f15f4c0146101e857806325e7fe38146101ff578063329861311461022b576101e3565b366101e357005b600080fd5b3480156101f457600080fd5b506101fd610936565b005b34801561020b57600080fd5b50610214610b52565b60408051600f9290920b8252519081900360200190f35b34801561023757600080fd5b50610240610b5b565b60408051918252519081900360200190f35b34801561025e57600080fd5b50610267610b63565b604080516001600160a01b039092168252519081900360200190f35b34801561028f57600080fd5b506101fd600480360360208110156102a657600080fd5b50356001600160a01b0316610b87565b3480156102c257600080fd5b50610240610c52565b3480156102d757600080fd5b50610240600480360360808110156102ee57600080fd5b6001600160a01b03823516919081019060408101602082013564010000000081111561031957600080fd5b82018360208201111561032b57600080fd5b8035906020019184600183028401116401000000008311171561034d57600080fd5b91908080601f0160208091040260200160405190810160405280939291908181526020018383808284376000920191909152509295505082359350505060200135610c5e565b34801561039f57600080fd5b50610267610cdd565b3480156103b457600080fd5b506101fd600480360360208110156103cb57600080fd5b5035610cec565b3480156103de57600080fd5b50610240610d50565b3480156103f357600080fd5b506101fd6004803603604081101561040a57600080fd5b5080356001600160a01b0316906020013563ffffffff16610d56565b34801561043257600080fd5b506101fd6004803603602081101561044957600080fd5b5035610e49565b34801561045c57600080fd5b506101fd6004803603602081101561047357600080fd5b50356001600160a01b0316610ee3565b34801561048f57600080fd5b506101fd600480360360208110156104a657600080fd5b5035610fb7565b3480156104b957600080fd5b50610240600480360360208110156104d057600080fd5b503561101b565b610595600480360360608110156104ed57600080fd5b6001600160a01b038235169160ff6020820135169181019060608101604082013564010000000081111561052057600080fd5b82018360208201111561053257600080fd5b8035906020019184600183028401116401000000008311171561055457600080fd5b91908080601f016020809104026020016040519081016040528093929190818152602001838380828437600092019190915250929550611070945050505050565b6040805195865260208601949094528484019290925260608401526080830152519081900360a00190f35b3480156105cc57600080fd5b50610240600480360360808110156105e357600080fd5b6001600160a01b03823516919081019060408101602082013564010000000081111561060e57600080fd5b82018360208201111561062057600080fd5b8035906020019184600183028401116401000000008311171561064257600080fd5b91908080601f01602080910402602001604051908101604052809392919081815260200183838082843760009201919091525092955050823593505050602001356111f8565b34801561069457600080fd5b5061026761130d565b3480156106a957600080fd5b506101fd600480360360208110156106c057600080fd5b503561131c565b3480156106d357600080fd5b506102676113b6565b3480156106e857600080fd5b506101fd600480360360208110156106ff57600080fd5b50356001600160a01b03166113da565b34801561071b57600080fd5b506102406114a5565b34801561073057600080fd5b506107576004803603602081101561074757600080fd5b50356001600160a01b03166114ab565b604080519115158252519081900360200190f35b34801561077757600080fd5b506102676114c0565b34801561078c57600080fd5b506107b3600480360360208110156107a357600080fd5b50356001600160a01b03166114e4565b6040805163ffffffff9485168152928416602084015292168183015290519081900360600190f35b3480156107e757600080fd5b50610240600480360360808110156107fe57600080fd5b6001600160a01b03823516919081019060408101602082013564010000000081111561082957600080fd5b82018360208201111561083b57600080fd5b8035906020019184600183028401116401000000008311171561085d57600080fd5b91908080601f016020809104026020016040519081016040528093929190818152602001838380828437600092019190915250929550508235935050506020013561151b565b3480156108af57600080fd5b506101fd600480360360408110156108c657600080fd5b5080356001600160a01b0316906020013563ffffffff16611592565b3480156108ee57600080fd5b506102406004803603602081101561090557600080fd5b5035611645565b34801561091857600080fd5b50610240611692565b34801561092d57600080fd5b50610214611698565b6004546001600160a01b03163314610995576040805162461bcd60e51b815260206004820152601660248201527f436f4669584374726c3a2021676f7665726e616e636500000000000000000000604482015290519081900360640190fd5b6109c37f000000000000000000000000000000000000000000000000000000000000000033306008546116b5565b604080517f8fe77e86000000000000000000000000000000000000000000000000000000008152602060048201819052601260248301527f6e6573742e76332e6f6666657250726963650000000000000000000000000000604483015291516000926001600160a01b037f00000000000000000000000000000000000000000000000000000000000000001692638fe77e869260648083019392829003018186803b158015610a7157600080fd5b505afa158015610a85573d6000803e3d6000fd5b505050506040513d6020811015610a9b57600080fd5b5051600854909150610ad0907f0000000000000000000000000000000000000000000000000000000000000000908390611840565b806001600160a01b0316633629c8de6040518163ffffffff1660e01b8152600401600060405180830381600087803b158015610b0b57600080fd5b505af1158015610b1f573d6000803e3d6000fd5b50505050610b4f7f0000000000000000000000000000000000000000000000000000000000000000826000611840565b50565b600954600f0b81565b6305f5e10081565b7f000000000000000000000000000000000000000000000000000000000000000081565b6004546001600160a01b03163314610be6576040805162461bcd60e51b815260206004820152601660248201527f436f4669584374726c3a2021676f7665726e616e636500000000000000000000604482015290519081900360640190fd5b600580546001600160a01b0383167fffffffffffffffffffffffff0000000000000000000000000000000000000000909116811790915560408051918252517fb8a7215c66d7533048ef6969ce3d23be990ce682c859f835e4bed6f6f33194bb9181900360200190a150565b670de0b6b3a764000081565b6000806000858060200190516080811015610c7857600080fd5b50602081015160609091015190925090506001600160a01b0380831690881614610cc7576000610cb285610cac84896119d8565b90611a3a565b9050610cbd81611645565b9350505050610cd5565b610cd08161101b565b925050505b949350505050565b6004546001600160a01b031681565b6004546001600160a01b03163314610d4b576040805162461bcd60e51b815260206004820152601660248201527f436f4669584374726c3a2021676f7665726e616e636500000000000000000000604482015290519081900360640190fd5b600855565b60085481565b6004546001600160a01b03163314610db5576040805162461bcd60e51b815260206004820152601660248201527f436f4669584374726c3a2021676f7665726e616e636500000000000000000000604482015290519081900360640190fd5b6001600160a01b03821660008181526002602090815260409182902080547fffffffffffffffffffffffffffffffffffffffff00000000ffffffffffffffff166801000000000000000063ffffffff87169081029190911790915582519384529083015280517fdf754dcc54212b1583a43e52dc93c9a33b0a5310fe26ccefbb832a384577e72d9281900390910190a15050565b6004546001600160a01b03163314610ea8576040805162461bcd60e51b815260206004820152601660248201527f436f4669584374726c3a2021676f7665726e616e636500000000000000000000604482015290519081900360640190fd5b60068190556040805182815290517f9fe8f70a914cfc48197ae6ab66b8c3b2e611c7fa27ef9af879ad1fd494fd7b5b9181900360200190a150565b336001600160a01b037f0000000000000000000000000000000000000000000000000000000000000000161480610f2457506004546001600160a01b031633145b610f75576040805162461bcd60e51b815260206004820152601e60248201527f436f4669584374726c3a206f6e6c7920666163746f7279206f7220676f760000604482015290519081900360640190fd5b6001600160a01b0316600090815260036020526040902080547fffffffffffffffffffffffffffffffffffffffffffffffffffffffffffffff00166001179055565b6004546001600160a01b03163314611016576040805162461bcd60e51b815260206004820152601660248201527f436f4669584374726c3a2021676f7665726e616e636500000000000000000000604482015290519081900360640190fd5b600055565b6000681b1ae4d6e2ef5000008210156110365750600061106b565b6110686402540be400610cac656a8077e73800611062670de0b6b3a76400008364c340748200896119d8565b90611aa1565b90505b919050565b33600090815260036020526040812054819081908190819060ff166110dc576040805162461bcd60e51b815260206004820152601d60248201527f436f4669584374726c3a2063616c6c6572206e6f7420616c6c6f776564000000604482015290519081900360640190fd5b6110e588611afe565b91955093509150600060ff881660048111156110fd57fe5b90506000600382600481111561110f57fe5b1415611128576111218a898888610c5e565b90506111ac565b600482600481111561113657fe5b1415611189576040805162461bcd60e51b815260206004820152601e60248201527f64697361626c6564206578706572696d656e74616c2066656174757265210000604482015290519081900360640190fd5b600282600481111561119757fe5b14156111ac576111a98a8988886111f8565b90505b6001546111b99082611e64565b6001600160a01b039a909a16600090815260026020526040902054999a959994985092965050506801000000000000000090910463ffffffff16925050565b600080600085806020019051608081101561121257600080fd5b50602080820151606090920151604080517f24334be8000000000000000000000000000000000000000000000000000000008152600481018a905260248101899052905193955090935060009233926324334be89260448082019391829003018186803b15801561128257600080fd5b505afa158015611296573d6000803e3d6000fd5b505050506040513d60208110156112ac57600080fd5b5051905060006112c8670de0b6b3a7640000610cac85856119d8565b9050886001600160a01b0316846001600160a01b0316146112f7576112ec81611645565b945050505050610cd5565b6113008161101b565b9998505050505050505050565b6005546001600160a01b031681565b6004546001600160a01b0316331461137b576040805162461bcd60e51b815260206004820152601660248201527f436f4669584374726c3a2021676f7665726e616e636500000000000000000000604482015290519081900360640190fd5b60078190556040805182815290517f50305e979fe14d7795fbb7d2f90b6b2370220629d50fc15d87e78092a900b72c9181900360200190a150565b7f000000000000000000000000000000000000000000000000000000000000000081565b6004546001600160a01b03163314611439576040805162461bcd60e51b815260206004820152601660248201527f436f4669584374726c3a2021676f7665726e616e636500000000000000000000604482015290519081900360640190fd5b600480546001600160a01b0383167fffffffffffffffffffffffff0000000000000000000000000000000000000000909116811790915560408051918252517f4f386975ea1c2f7cf1845b08bee00626fbb624ecad16254d63d9bb9ba86526de9181900360200190a150565b60065481565b60036020526000908152604090205460ff1681565b7f000000000000000000000000000000000000000000000000000000000000000081565b6001546001600160a01b03919091166000908152600260205260409020549091429168010000000000000000900463ffffffff1690565b600080600085806020019051608081101561153557600080fd5b50602081015160409091015190925090506001600160a01b038083169088161461156b5761156281611645565b92505050610cd5565b600061157b85610cac84896119d8565b90506115868161101b565b98975050505050505050565b6004546001600160a01b031633146115f1576040805162461bcd60e51b815260206004820152601660248201527f436f4669584374726c3a2021676f7665726e616e636500000000000000000000604482015290519081900360640190fd5b63ffffffff81166001819055604080516001600160a01b0385168152602081019290925280517f6b5a7bf27649aa058ceb45c028708f76f2b12277f096a828fd1db5b711e4188e9281900390910190a15050565b6000681b1ae4d6e2ef5000008210156116605750600061106b565b6110686402540be400610cac611685670de0b6b3a76400008264c6e2499e00886119d8565b65175fbf5ee80090611e64565b60075481565b6009547001000000000000000000000000000000009004600f0b81565b604080516001600160a01b0385811660248301528481166044830152606480830185905283518084039091018152608490920183526020820180517bffffffffffffffffffffffffffffffffffffffffffffffffffffffff167f23b872dd0000000000000000000000000000000000000000000000000000000017815292518251600094606094938a169392918291908083835b602083106117685780518252601f199092019160209182019101611749565b6001836020036101000a0380198251168184511680821785525050505050509050019150506000604051808303816000865af19150503d80600081146117ca576040519150601f19603f3d011682016040523d82523d6000602084013e6117cf565b606091505b50915091508180156117fd5750805115806117fd57508080602001905160208110156117fa57600080fd5b50515b6118385760405162461bcd60e51b8152600401808060200182810382526024815260200180611ffb6024913960400191505060405180910390fd5b505050505050565b604080516001600160a01b038481166024830152604480830185905283518084039091018152606490920183526020820180517bffffffffffffffffffffffffffffffffffffffffffffffffffffffff167f095ea7b300000000000000000000000000000000000000000000000000000000178152925182516000946060949389169392918291908083835b602083106118eb5780518252601f1990920191602091820191016118cc565b6001836020036101000a0380198251168184511680821785525050505050509050019150506000604051808303816000865af19150503d806000811461194d576040519150601f19603f3d011682016040523d82523d6000602084013e611952565b606091505b5091509150818015611980575080511580611980575080806020019051602081101561197d57600080fd5b50515b6119d1576040805162461bcd60e51b815260206004820152601e60248201527f5472616e7366657248656c7065723a20415050524f56455f4641494c45440000604482015290519081900360640190fd5b5050505050565b6000826119e757506000611a34565b828202828482816119f457fe5b0414611a315760405162461bcd60e51b8152600401808060200182810382526021815260200180611fb76021913960400191505060405180910390fd5b90505b92915050565b6000808211611a90576040805162461bcd60e51b815260206004820152601a60248201527f536166654d6174683a206469766973696f6e206279207a65726f000000000000604482015290519081900360640190fd5b818381611a9957fe5b049392505050565b600082821115611af8576040805162461bcd60e51b815260206004820152601e60248201527f536166654d6174683a207375627472616374696f6e206f766572666c6f770000604482015290519081900360640190fd5b50900390565b60008060008047905060007f00000000000000000000000000000000000000000000000000000000000000006001600160a01b0316638fe77e866040518163ffffffff1660e01b81526004018080602001828103825260128152602001807f6e6573742e76332e6f666665725072696365000000000000000000000000000081525060200191505060206040518083038186803b158015611b9e57600080fd5b505afa158015611bb2573d6000803e3d6000fd5b505050506040513d6020811015611bc857600080fd5b5051604080517f08d0099e0000000000000000000000000000000000000000000000000000000081526001600160a01b038981166004830152600160248301529151929350606092918416916308d0099e913491604480830192600092919082900301818588803b158015611c3c57600080fd5b505af1158015611c50573d6000803e3d6000fd5b50505050506040513d6000823e601f3d908101601f191682016040526020811015611c7a57600080fd5b8101908080516040519392919084640100000000821115611c9a57600080fd5b908301906020820185811115611caf57600080fd5b8251866020820283011164010000000082111715611ccc57600080fd5b82525081516020918201928201910280838360005b83811015611cf9578181015183820152602001611ce1565b5050505090500160405250505090508051600314611d5e576040805162461bcd60e51b815260206004820152601860248201527f436f4669584374726c3a20626164207072696365206c656e0000000000000000604482015290519081900360640190fd5b6000611d93600654611d8d84600281518110611d7657fe5b602002602001015143611aa190919063ffffffff16565b906119d8565b90506000548110611deb576040805162461bcd60e51b815260206004820181905260248201527f436f4669584374726c3a206f72616c6365207072696365206f75746461746564604482015290519081900360640190fd5b6000611e01611dfa8647611aa1565b3490611aa1565b90508015611e1357611e133382611ebe565b82600081518110611e2057fe5b602002602001015183600181518110611e3557fe5b602002602001015184600281518110611e4a57fe5b602002602001015197509750975050505050509193909250565b600082820183811015611a31576040805162461bcd60e51b815260206004820152601b60248201527f536166654d6174683a206164646974696f6e206f766572666c6f770000000000604482015290519081900360640190fd5b604080516000808252602082019092526001600160a01b0384169083906040518082805190602001908083835b60208310611f0a5780518252601f199092019160209182019101611eeb565b6001836020036101000a03801982511681845116808217855250505050505090500191505060006040518083038185875af1925050503d8060008114611f6c576040519150601f19603f3d011682016040523d82523d6000602084013e611f71565b606091505b5050905080611fb15760405162461bcd60e51b8152600401808060200182810382526023815260200180611fd86023913960400191505060405180910390fd5b50505056fe536166654d6174683a206d756c7469706c69636174696f6e206f766572666c6f775472616e7366657248656c7065723a204554485f5452414e534645525f4641494c45445472616e7366657248656c7065723a205452414e534645525f46524f4d5f4641494c4544a2646970667358221220e2f06cb11465acfb02bc9011da3da0fa69c5fd35e798bee01162575ed2bb6c0364736f6c634300060c0033",
  "immutableReferences": {
    "3034": [
      {
        "length": 32,
        "start": 2607
      },
      {
        "length": 32,
        "start": 5048
      },
      {
        "length": 32,
        "start": 6923
      }
    ],
    "3038": [
      {
        "length": 32,
        "start": 2458
      },
      {
        "length": 32,
        "start": 2729
      },
      {
        "length": 32,
        "start": 2856
      },
      {
        "length": 32,
        "start": 2917
      }
    ],
    "3040": [
      {
        "length": 32,
        "start": 3822
      },
      {
        "length": 32,
        "start": 5314
      }
    ]
  },
  "source": "// SPDX-License-Identifier: GPL-3.0-or-later\npragma solidity 0.6.12;\n\nimport \"@openzeppelin/contracts/math/SafeMath.sol\";\nimport \"./lib/ABDKMath64x64.sol\";\nimport \"./interface/INest_3_OfferPrice.sol\";\nimport \"./interface/ICoFiXKTable.sol\";\nimport \"./lib/TransferHelper.sol\";\nimport \"./interface/ICoFiXController.sol\";\nimport \"./interface/INest_3_VoteFactory.sol\";\nimport \"./interface/ICoFiXPair.sol\";\nimport \"./interface/ICoFiXFactory.sol\";\n\n// Controller contract to call NEST Oracle for prices, managed by governance\n// Governance role of this contract should be the `Timelock` contract, which is further managed by a multisig contract\ncontract CoFiXController02 is ICoFiXController {  // ctrl-v2: change contract name to avoid truffle complaint\n\n    using SafeMath for uint256;\n\n    enum CoFiX_OP { QUERY, MINT, BURN, SWAP_WITH_EXACT, SWAP_FOR_EXACT } // operations in CoFiX\n\n    uint256 constant public AONE = 1 ether;\n    uint256 constant public K_BASE = 1E8;\n    uint256 constant public NAVPS_BASE = 1E18; // NAVPS (Net Asset Value Per Share), need accuracy\n    uint256 internal T = 600; // ctrl-v2: V1 (900) -> V2 (600)\n    uint256 internal K_EXPECTED_VALUE = 0.005*1E8; // ctrl-v2: V1 (0.0025) -> V2 (0.005)\n    // impact cost params\n    uint256 constant internal C_BUYIN_ALPHA = 25700000000000; // =2.570e-05*1e18\n    uint256 constant internal C_BUYIN_BETA = 854200000000; // =8.542e-07*1e18\n    uint256 constant internal C_SELLOUT_ALPHA = 117100000000000; // =-1.171e-04*1e18\n    uint256 constant internal C_SELLOUT_BETA = 838600000000; // =8.386e-07*1e18\n\n    mapping(address => uint32[3]) internal KInfoMap; // gas saving, index [0] is k vlaue, index [1] is updatedAt, index [2] is theta\n    mapping(address => bool) public callerAllowed;\n\n    INest_3_VoteFactory public immutable voteFactory;\n\n    // managed by governance\n    address public governance;\n    address public immutable nestToken;\n    address public immutable factory;\n    address public kTable;\n    uint256 public timespan = 14;\n    uint256 public kRefreshInterval = 5 minutes;\n    uint256 public DESTRUCTION_AMOUNT = 0 ether; // from nest oracle\n    int128 public MAX_K0 = 0xCCCCCCCCCCCCD00; // (0.05*2**64).toString(16)\n    int128 public GAMMA = 0x8000000000000000; // (0.5*2**64).toString(16)\n\n    modifier onlyGovernance() {\n        require(msg.sender == governance, \"CoFiXCtrl: !governance\");\n        _;\n    }\n\n    constructor(address _voteFactory, address _nest, address _factory, address _kTable) public {\n        governance = msg.sender;\n        voteFactory = INest_3_VoteFactory(address(_voteFactory));\n        nestToken = _nest;\n        factory = _factory;\n        kTable = _kTable;\n\n        // add previous pair as caller\n        ICoFiXFactory cFactory = ICoFiXFactory(_factory);\n        uint256 pairCnt = cFactory.allPairsLength();\n        for (uint256 i = 0; i < pairCnt; i++) {\n            address pair = cFactory.allPairs(i);\n            callerAllowed[pair] = true;\n        }\n    }\n\n    receive() external payable {}\n\n    /* setters for protocol governance */\n    function setGovernance(address _new) external onlyGovernance {\n        governance = _new;\n        emit NewGovernance(_new);\n    }\n\n    function setKTable(address _kTable) external onlyGovernance {\n        kTable = _kTable;\n        emit NewKTable(_kTable);\n    }    \n\n    function setTimespan(uint256 _timeSpan) external onlyGovernance {\n        timespan = _timeSpan;\n        emit NewTimespan(_timeSpan);\n    }\n\n    function setKRefreshInterval(uint256 _interval) external onlyGovernance {\n        kRefreshInterval = _interval;\n        emit NewKRefreshInterval(_interval);\n    }\n\n    function setOracleDestructionAmount(uint256 _amount) external onlyGovernance {\n        DESTRUCTION_AMOUNT = _amount;\n    }\n\n    function setTLimit(uint256 _T) external onlyGovernance { // ctrl-v2: new setter for T\n        T = _T;\n    }\n\n    function setK(address token, uint32 k) external onlyGovernance { // ctrl-v2: new setter for K, adjustable by governance\n        K_EXPECTED_VALUE = uint256(k);\n        emit NewK(token, k); // new event for setting K\n    }\n\n    function setTheta(address token, uint32 theta) external onlyGovernance {\n        KInfoMap[token][2] = theta;\n        emit NewTheta(token, theta);\n    }\n\n    // Activate on NEST Oracle, should not be called twice for the same nest oracle\n    function activate() external onlyGovernance {\n        // address token, address from, address to, uint value\n        TransferHelper.safeTransferFrom(nestToken, msg.sender, address(this), DESTRUCTION_AMOUNT);\n        address oracle = voteFactory.checkAddress(\"nest.v3.offerPrice\");\n        // address token, address to, uint value\n        TransferHelper.safeApprove(nestToken, oracle, DESTRUCTION_AMOUNT);\n        INest_3_OfferPrice(oracle).activation(); // nest.transferFrom will be called\n        TransferHelper.safeApprove(nestToken, oracle, 0); // ensure safety\n    }\n\n    function addCaller(address caller) external override {\n        require(msg.sender == factory || msg.sender == governance, \"CoFiXCtrl: only factory or gov\");\n        callerAllowed[caller] = true;\n    }\n\n    // Calc variance of price and K in CoFiX is very expensive\n    // We use expected value of K based on statistical calculations here to save gas\n    // In the near future, NEST could provide the variance of price directly. We will adopt it then.\n    // We can make use of `data` bytes in the future\n    function queryOracle(address token, uint8 op, bytes memory data) external override payable returns (uint256 _k, uint256 _ethAmount, uint256 _erc20Amount, uint256 _blockNum, uint256 _theta) {\n        require(callerAllowed[msg.sender], \"CoFiXCtrl: caller not allowed\");\n        (_ethAmount, _erc20Amount, _blockNum) = getLatestPrice(token);\n        CoFiX_OP cop = CoFiX_OP(op);\n        uint256 impactCost;\n        if (cop == CoFiX_OP.SWAP_WITH_EXACT) {\n            impactCost = calcImpactCostFor_SWAP_WITH_EXACT(token, data, _ethAmount, _erc20Amount);\n        } else if (cop == CoFiX_OP.SWAP_FOR_EXACT) {\n            revert(\"disabled experimental feature!\"); // ctrl-v2: disable swapForExact function\n         } else if (cop == CoFiX_OP.BURN) {\n            impactCost = calcImpactCostFor_BURN(token, data, _ethAmount, _erc20Amount);\n        }\n        _k = K_EXPECTED_VALUE.add(impactCost); // ctrl-v2: adjustable K + impactCost is the final K\n        _theta = KInfoMap[token][2];\n        return (_k, _ethAmount, _erc20Amount, _blockNum, _theta);\n    }\n\n    function calcImpactCostFor_BURN(address token, bytes memory data, uint256 ethAmount, uint256 erc20Amount) public view returns (uint256 impactCost) {\n        // bytes memory data = abi.encode(msg.sender, outToken, to, liquidity);\n        (, address outToken, , uint256 liquidity) = abi.decode(data, (address, address, address, uint256));\n        // calc real vol by liquidity * np\n        uint256 navps = ICoFiXPair(msg.sender).getNAVPerShare(ethAmount, erc20Amount); // pair call controller, msg.sender is pair\n        uint256 vol = liquidity.mul(navps).div(NAVPS_BASE);\n        if (outToken != token) {\n            // buy in ETH, outToken is ETH\n            return impactCostForBuyInETH(vol);\n        }\n        // sell out liquidity, outToken is token, take this as sell out ETH and get token\n        return impactCostForSellOutETH(vol);\n    }\n\n    function calcImpactCostFor_SWAP_WITH_EXACT(address token, bytes memory data, uint256 ethAmount, uint256 erc20Amount) public pure returns (uint256 impactCost) {\n        (, address outToken, , uint256 amountIn) = abi.decode(data, (address, address, address, uint256));\n        if (outToken != token) {\n            // buy in ETH, outToken is ETH, amountIn is token\n            // convert to amountIn in ETH\n            uint256 vol = uint256(amountIn).mul(ethAmount).div(erc20Amount);\n            return impactCostForBuyInETH(vol);\n        }\n        // sell out ETH, amountIn is ETH\n        return impactCostForSellOutETH(amountIn);\n    }\n\n    function calcImpactCostFor_SWAP_FOR_EXACT(address token, bytes memory data, uint256 ethAmount, uint256 erc20Amount) public pure returns (uint256 impactCost) {\n        (, address outToken, uint256 amountOutExact,) = abi.decode(data, (address, address, uint256, address));\n        if (outToken != token) {\n            // buy in ETH, outToken is ETH, amountOutExact is ETH\n            return impactCostForBuyInETH(amountOutExact);\n        }\n        // sell out ETH, amountIn is ETH, amountOutExact is token\n        // convert to amountOutExact in ETH\n        uint256 vol = uint256(amountOutExact).mul(ethAmount).div(erc20Amount);\n        return impactCostForSellOutETH(vol);\n    }\n\n    // impact cost\n    // - C = 0, if VOL < 500\n    // - C =  +  * VOL, if VOL >= 500\n\n    // =2.570e-05=8.542e-07\n    function impactCostForBuyInETH(uint256 vol) public pure returns (uint256 impactCost) {\n        if (vol < 500 ether) {\n            return 0;\n        }\n        // return C_BUYIN_ALPHA.add(C_BUYIN_BETA.mul(vol).div(1e18)).mul(1e8).div(1e18);\n        return C_BUYIN_ALPHA.add(C_BUYIN_BETA.mul(vol).div(1e18)).div(1e10); // combine mul div\n    }\n\n    // =-1.171e-04=8.386e-07\n    function impactCostForSellOutETH(uint256 vol) public pure returns (uint256 impactCost) {\n        if (vol < 500 ether) {\n            return 0;\n        }\n        // return (C_SELLOUT_BETA.mul(vol).div(1e18)).sub(C_SELLOUT_ALPHA).mul(1e8).div(1e18);\n        return (C_SELLOUT_BETA.mul(vol).div(1e18)).sub(C_SELLOUT_ALPHA).div(1e10); // combine mul div\n    }\n\n    function getKInfo(address token) external view returns (uint32 k, uint32 updatedAt, uint32 theta) {\n        k = uint32(K_EXPECTED_VALUE); // ctrl-v2: load from storage instead of constant value\n        updatedAt = uint32(block.timestamp);\n        theta = KInfoMap[token][2];\n    }\n\n    function getLatestPrice(address token) internal returns (uint256 _ethAmount, uint256 _erc20Amount, uint256 _blockNum) {\n        uint256 _balanceBefore = address(this).balance;\n        address oracle = voteFactory.checkAddress(\"nest.v3.offerPrice\");\n        uint256[] memory _rawPriceList = INest_3_OfferPrice(oracle).updateAndCheckPriceList{value: msg.value}(token, 1);\n        require(_rawPriceList.length == 3, \"CoFiXCtrl: bad price len\");\n        // validate T\n        uint256 _T = block.number.sub(_rawPriceList[2]).mul(timespan);\n        require(_T < T, \"CoFiXCtrl: oralce price outdated\"); // ctrl-v2: adjustable T\n        uint256 oracleFeeChange = msg.value.sub(_balanceBefore.sub(address(this).balance));\n        if (oracleFeeChange > 0) TransferHelper.safeTransferETH(msg.sender, oracleFeeChange);\n        return (_rawPriceList[0], _rawPriceList[1], _rawPriceList[2]);\n        // return (K_EXPECTED_VALUE, _rawPriceList[0], _rawPriceList[1], _rawPriceList[2], KInfoMap[token][2]);\n    }\n    \n    // ctrl-v2: remove unused code bellow according to PeckShield's advice\n}",
  "sourcePath": "/Users/lixiansheng/Downloads/CoFix/contracts/CoFiXController02.sol",
  "compiler": {
    "name": "solc",
    "version": "0.6.12+commit.27d51765.Emscripten.clang"
  },
  "schemaVersion": "3.4.1",
  "updatedAt": "2021-05-11T03:07:09.666Z",
  "devdoc": {
    "kind": "dev",
    "methods": {},
    "version": 1
  },
  "userdoc": {
    "kind": "user",
    "methods": {},
    "version": 1
  }
}