{
  "contractName": "CoFiXV2VaultForTrader",
  "abi": [
    {
      "inputs": [
        {
          "internalType": "address",
          "name": "cofi",
          "type": "address"
        },
        {
          "internalType": "address",
          "name": "_factory",
          "type": "address"
        }
      ],
      "stateMutability": "nonpayable",
      "type": "constructor"
    },
    {
      "anonymous": false,
      "inputs": [
        {
          "indexed": false,
          "internalType": "uint256",
          "name": "pendingAmount",
          "type": "uint256"
        }
      ],
      "name": "ClearPendingRewardOfCNode",
      "type": "event"
    },
    {
      "anonymous": false,
      "inputs": [
        {
          "indexed": false,
          "internalType": "uint256",
          "name": "pendingAmount",
          "type": "uint256"
        }
      ],
      "name": "ClearPendingRewardOfLP",
      "type": "event"
    },
    {
      "anonymous": false,
      "inputs": [
        {
          "indexed": false,
          "internalType": "address",
          "name": "router",
          "type": "address"
        }
      ],
      "name": "RouterAllowed",
      "type": "event"
    },
    {
      "anonymous": false,
      "inputs": [
        {
          "indexed": false,
          "internalType": "address",
          "name": "router",
          "type": "address"
        }
      ],
      "name": "RouterDisallowed",
      "type": "event"
    },
    {
      "inputs": [],
      "name": "COFI_DECAY_PERIOD",
      "outputs": [
        {
          "internalType": "uint256",
          "name": "",
          "type": "uint256"
        }
      ],
      "stateMutability": "view",
      "type": "function"
    },
    {
      "inputs": [],
      "name": "COFI_RATE_UPDATE_INTERVAL",
      "outputs": [
        {
          "internalType": "uint256",
          "name": "",
          "type": "uint256"
        }
      ],
      "stateMutability": "view",
      "type": "function"
    },
    {
      "inputs": [],
      "name": "EXPECT_YIELD_BASE",
      "outputs": [
        {
          "internalType": "uint256",
          "name": "",
          "type": "uint256"
        }
      ],
      "stateMutability": "view",
      "type": "function"
    },
    {
      "inputs": [],
      "name": "EXPECT_YIELD_RATIO",
      "outputs": [
        {
          "internalType": "uint256",
          "name": "",
          "type": "uint256"
        }
      ],
      "stateMutability": "view",
      "type": "function"
    },
    {
      "inputs": [],
      "name": "LAMBDA_BASE",
      "outputs": [
        {
          "internalType": "uint256",
          "name": "",
          "type": "uint256"
        }
      ],
      "stateMutability": "view",
      "type": "function"
    },
    {
      "inputs": [],
      "name": "L_BASE",
      "outputs": [
        {
          "internalType": "uint256",
          "name": "",
          "type": "uint256"
        }
      ],
      "stateMutability": "view",
      "type": "function"
    },
    {
      "inputs": [],
      "name": "L_LIMIT",
      "outputs": [
        {
          "internalType": "uint256",
          "name": "",
          "type": "uint256"
        }
      ],
      "stateMutability": "view",
      "type": "function"
    },
    {
      "inputs": [],
      "name": "L_RATIO",
      "outputs": [
        {
          "internalType": "uint256",
          "name": "",
          "type": "uint256"
        }
      ],
      "stateMutability": "view",
      "type": "function"
    },
    {
      "inputs": [],
      "name": "NAVPS_BASE",
      "outputs": [
        {
          "internalType": "uint256",
          "name": "",
          "type": "uint256"
        }
      ],
      "stateMutability": "view",
      "type": "function"
    },
    {
      "inputs": [],
      "name": "RATE_BASE",
      "outputs": [
        {
          "internalType": "uint256",
          "name": "",
          "type": "uint256"
        }
      ],
      "stateMutability": "view",
      "type": "function"
    },
    {
      "inputs": [],
      "name": "RECENT_RANGE",
      "outputs": [
        {
          "internalType": "uint256",
          "name": "",
          "type": "uint256"
        }
      ],
      "stateMutability": "view",
      "type": "function"
    },
    {
      "inputs": [],
      "name": "REWARD_MULTIPLE_BASE",
      "outputs": [
        {
          "internalType": "uint256",
          "name": "",
          "type": "uint256"
        }
      ],
      "stateMutability": "view",
      "type": "function"
    },
    {
      "inputs": [],
      "name": "SHARE_BASE",
      "outputs": [
        {
          "internalType": "uint256",
          "name": "",
          "type": "uint256"
        }
      ],
      "stateMutability": "view",
      "type": "function"
    },
    {
      "inputs": [],
      "name": "SHARE_FOR_CNODE",
      "outputs": [
        {
          "internalType": "uint256",
          "name": "",
          "type": "uint256"
        }
      ],
      "stateMutability": "view",
      "type": "function"
    },
    {
      "inputs": [],
      "name": "SHARE_FOR_TRADER",
      "outputs": [
        {
          "internalType": "uint256",
          "name": "",
          "type": "uint256"
        }
      ],
      "stateMutability": "view",
      "type": "function"
    },
    {
      "inputs": [],
      "name": "THETA",
      "outputs": [
        {
          "internalType": "uint256",
          "name": "",
          "type": "uint256"
        }
      ],
      "stateMutability": "view",
      "type": "function"
    },
    {
      "inputs": [],
      "name": "THETA_BASE",
      "outputs": [
        {
          "internalType": "uint256",
          "name": "",
          "type": "uint256"
        }
      ],
      "stateMutability": "view",
      "type": "function"
    },
    {
      "inputs": [],
      "name": "THETA_FEE_UINIT",
      "outputs": [
        {
          "internalType": "uint256",
          "name": "",
          "type": "uint256"
        }
      ],
      "stateMutability": "view",
      "type": "function"
    },
    {
      "inputs": [],
      "name": "cofiRate",
      "outputs": [
        {
          "internalType": "uint256",
          "name": "",
          "type": "uint256"
        }
      ],
      "stateMutability": "view",
      "type": "function"
    },
    {
      "inputs": [],
      "name": "cofiToken",
      "outputs": [
        {
          "internalType": "address",
          "name": "",
          "type": "address"
        }
      ],
      "stateMutability": "view",
      "type": "function"
    },
    {
      "inputs": [],
      "name": "factory",
      "outputs": [
        {
          "internalType": "address",
          "name": "",
          "type": "address"
        }
      ],
      "stateMutability": "view",
      "type": "function"
    },
    {
      "inputs": [],
      "name": "governance",
      "outputs": [
        {
          "internalType": "address",
          "name": "",
          "type": "address"
        }
      ],
      "stateMutability": "view",
      "type": "function"
    },
    {
      "inputs": [],
      "name": "lastDensity",
      "outputs": [
        {
          "internalType": "uint128",
          "name": "",
          "type": "uint128"
        }
      ],
      "stateMutability": "view",
      "type": "function"
    },
    {
      "inputs": [
        {
          "internalType": "address",
          "name": "",
          "type": "address"
        }
      ],
      "name": "lastMinedBlock",
      "outputs": [
        {
          "internalType": "uint128",
          "name": "",
          "type": "uint128"
        }
      ],
      "stateMutability": "view",
      "type": "function"
    },
    {
      "inputs": [
        {
          "internalType": "address",
          "name": "",
          "type": "address"
        }
      ],
      "name": "lastNeededETHAmount",
      "outputs": [
        {
          "internalType": "uint256",
          "name": "",
          "type": "uint256"
        }
      ],
      "stateMutability": "view",
      "type": "function"
    },
    {
      "inputs": [
        {
          "internalType": "address",
          "name": "",
          "type": "address"
        }
      ],
      "name": "lastTotalAccruedAmount",
      "outputs": [
        {
          "internalType": "uint256",
          "name": "",
          "type": "uint256"
        }
      ],
      "stateMutability": "view",
      "type": "function"
    },
    {
      "inputs": [],
      "name": "pendingRewardsForCNode",
      "outputs": [
        {
          "internalType": "uint256",
          "name": "",
          "type": "uint256"
        }
      ],
      "stateMutability": "view",
      "type": "function"
    },
    {
      "inputs": [
        {
          "internalType": "address",
          "name": "",
          "type": "address"
        }
      ],
      "name": "pendingRewardsForLP",
      "outputs": [
        {
          "internalType": "uint256",
          "name": "",
          "type": "uint256"
        }
      ],
      "stateMutability": "view",
      "type": "function"
    },
    {
      "inputs": [
        {
          "internalType": "address",
          "name": "",
          "type": "address"
        }
      ],
      "name": "routerAllowed",
      "outputs": [
        {
          "internalType": "bool",
          "name": "",
          "type": "bool"
        }
      ],
      "stateMutability": "view",
      "type": "function"
    },
    {
      "inputs": [
        {
          "internalType": "address",
          "name": "_new",
          "type": "address"
        }
      ],
      "name": "setGovernance",
      "outputs": [],
      "stateMutability": "nonpayable",
      "type": "function"
    },
    {
      "inputs": [
        {
          "internalType": "uint256",
          "name": "r",
          "type": "uint256"
        }
      ],
      "name": "setExpectedYieldRatio",
      "outputs": [],
      "stateMutability": "nonpayable",
      "type": "function"
    },
    {
      "inputs": [
        {
          "internalType": "uint256",
          "name": "lRatio",
          "type": "uint256"
        }
      ],
      "name": "setLRatio",
      "outputs": [],
      "stateMutability": "nonpayable",
      "type": "function"
    },
    {
      "inputs": [
        {
          "internalType": "uint256",
          "name": "theta",
          "type": "uint256"
        }
      ],
      "name": "setTheta",
      "outputs": [],
      "stateMutability": "nonpayable",
      "type": "function"
    },
    {
      "inputs": [
        {
          "internalType": "uint256",
          "name": "_cofiRate",
          "type": "uint256"
        }
      ],
      "name": "setCofiRate",
      "outputs": [],
      "stateMutability": "nonpayable",
      "type": "function"
    },
    {
      "inputs": [
        {
          "internalType": "address",
          "name": "router",
          "type": "address"
        }
      ],
      "name": "allowRouter",
      "outputs": [],
      "stateMutability": "nonpayable",
      "type": "function"
    },
    {
      "inputs": [
        {
          "internalType": "address",
          "name": "router",
          "type": "address"
        }
      ],
      "name": "disallowRouter",
      "outputs": [],
      "stateMutability": "nonpayable",
      "type": "function"
    },
    {
      "inputs": [
        {
          "internalType": "address",
          "name": "pair",
          "type": "address"
        },
        {
          "internalType": "uint256",
          "name": "neededETHAmount",
          "type": "uint256"
        }
      ],
      "name": "calcMiningRate",
      "outputs": [
        {
          "internalType": "uint256",
          "name": "",
          "type": "uint256"
        }
      ],
      "stateMutability": "view",
      "type": "function"
    },
    {
      "inputs": [
        {
          "internalType": "address",
          "name": "pair",
          "type": "address"
        },
        {
          "internalType": "uint256",
          "name": "reserve0",
          "type": "uint256"
        },
        {
          "internalType": "uint256",
          "name": "reserve1",
          "type": "uint256"
        },
        {
          "internalType": "uint256",
          "name": "ethAmount",
          "type": "uint256"
        },
        {
          "internalType": "uint256",
          "name": "erc20Amount",
          "type": "uint256"
        }
      ],
      "name": "calcNeededETHAmountForAdjustment",
      "outputs": [
        {
          "internalType": "uint256",
          "name": "",
          "type": "uint256"
        }
      ],
      "stateMutability": "view",
      "type": "function"
    },
    {
      "inputs": [
        {
          "internalType": "address",
          "name": "pair",
          "type": "address"
        },
        {
          "internalType": "uint256",
          "name": "reserve0",
          "type": "uint256"
        },
        {
          "internalType": "uint256",
          "name": "reserve1",
          "type": "uint256"
        },
        {
          "internalType": "uint256",
          "name": "ethAmount",
          "type": "uint256"
        },
        {
          "internalType": "uint256",
          "name": "erc20Amount",
          "type": "uint256"
        }
      ],
      "name": "actualMiningAmount",
      "outputs": [
        {
          "internalType": "uint256",
          "name": "amount",
          "type": "uint256"
        },
        {
          "internalType": "uint256",
          "name": "totalAccruedAmount",
          "type": "uint256"
        },
        {
          "internalType": "uint256",
          "name": "neededETHAmount",
          "type": "uint256"
        }
      ],
      "stateMutability": "view",
      "type": "function"
    },
    {
      "inputs": [
        {
          "internalType": "address",
          "name": "pair",
          "type": "address"
        },
        {
          "internalType": "uint256",
          "name": "ethAmount",
          "type": "uint256"
        },
        {
          "internalType": "uint256",
          "name": "erc20Amount",
          "type": "uint256"
        },
        {
          "internalType": "address",
          "name": "rewardTo",
          "type": "address"
        }
      ],
      "name": "distributeReward",
      "outputs": [],
      "stateMutability": "nonpayable",
      "type": "function"
    },
    {
      "inputs": [],
      "name": "clearPendingRewardOfCNode",
      "outputs": [],
      "stateMutability": "nonpayable",
      "type": "function"
    },
    {
      "inputs": [
        {
          "internalType": "address",
          "name": "pair",
          "type": "address"
        }
      ],
      "name": "clearPendingRewardOfLP",
      "outputs": [],
      "stateMutability": "nonpayable",
      "type": "function"
    },
    {
      "inputs": [],
      "name": "getPendingRewardOfCNode",
      "outputs": [
        {
          "internalType": "uint256",
          "name": "",
          "type": "uint256"
        }
      ],
      "stateMutability": "view",
      "type": "function"
    },
    {
      "inputs": [
        {
          "internalType": "address",
          "name": "pair",
          "type": "address"
        }
      ],
      "name": "getPendingRewardOfLP",
      "outputs": [
        {
          "internalType": "uint256",
          "name": "",
          "type": "uint256"
        }
      ],
      "stateMutability": "view",
      "type": "function"
    }
  ],
  "bytecode": "0x60c060405260036002556002600355600260045567016345785d8a000060055534801561002b57600080fd5b5060405161187e38038061187e8339818101604052604081101561004e57600080fd5b508051602090910151600160008190556001600160601b0319606093841b81166080529190921b1660a05280546001600160a01b0319163317905560805160601c60a05160601c6117bd6100c160003980610a4f52806112535280611364525080610d80528061108252506117bd6000f3fe608060405234801561001057600080fd5b50600436106102f35760003560e01c8063581c59e611610191578063ab033ea9116100e3578063e875f0b711610097578063fa3ad57711610071578063fa3ad577146103e0578063fb7d702c146106bb578063fc22290b146106e1576102f3565b8063e875f0b714610667578063f05b820c1461068d578063fa1fd0fb14610695576102f3565b8063c45a0155116100c8578063c45a01551461062b578063d1f933d214610633578063d7e1500e1461063b576102f3565b8063ab033ea9146105fd578063ba30ba2414610623576102f3565b8063884f3dbf11610145578063a66771db1161011f578063a66771db146105cf578063aa6c43a8146105f5578063aaf07e9214610416576102f3565b8063884f3dbf14610595578063898675c9146103c657806390f5191c14610416576102f3565b80635d941dd5116101765780635d941dd5146105705780635f5456c2146105785780636bac976c1461040e576102f3565b8063581c59e61461050e5780635aa6e6751461054c576102f3565b8063316d8bc71161024a57806342967b20116101fe5780634d01e650116101d85780634d01e650146104e95780634f6ec2dd146103c6578063534bc7c5146104f1576102f3565b806342967b20146104d15780634a0770d5146104d95780634c4eee70146104e1576102f3565b806338e351021161022f57806338e35102146104545780633d1b7dcc1461048e5780633eb02c93146104b4576102f3565b8063316d8bc714610444578063317323bc1461044c576102f3565b806313123f23116102ac57806321ad39d11161028657806321ad39d114610416578063241b93ad1461040e578063287d5ecc1461041e576102f3565b806313123f23146103e057806318ac6f81146103e85780631d80685d1461040e576102f3565b806305de2429116102dd57806305de2429146103445780630748bbfa1461036a5780630873c6ec146103c6576102f3565b8062f1fca7146102f857806304fcd5e214610325575b600080fd5b6103006106e9565b604080516fffffffffffffffffffffffffffffffff9092168252519081900360200190f35b6103426004803603602081101561033b57600080fd5b5035610701565b005b6103426004803603602081101561035a57600080fd5b50356001600160a01b0316610765565b6103a8600480360360a081101561038057600080fd5b506001600160a01b038135169060208101359060408101359060608101359060800135610891565b60408051938452602084019290925282820152519081900360600190f35b6103ce610978565b60408051918252519081900360200190f35b6103ce610984565b610300600480360360208110156103fe57600080fd5b50356001600160a01b0316610989565b6103ce6109ad565b6103ce6109b2565b6103ce6004803603602081101561043457600080fd5b50356001600160a01b03166109b8565b6103ce6109ca565b6103ce6109d0565b61047a6004803603602081101561046a57600080fd5b50356001600160a01b03166109d6565b604080519115158252519081900360200190f35b610342600480360360208110156104a457600080fd5b50356001600160a01b03166109eb565b610342600480360360208110156104ca57600080fd5b5035610ba0565b6103ce610c04565b6103ce610c09565b6103ce610c0f565b6103ce610c16565b6103426004803603602081101561050757600080fd5b5035610c1c565b6103ce600480360360a081101561052457600080fd5b506001600160a01b038135169060208101359060408101359060608101359060800135610c80565b610554610d6f565b604080516001600160a01b039092168252519081900360200190f35b610554610d7e565b6103426004803603602081101561058e57600080fd5b5035610da2565b610342600480360360808110156105ab57600080fd5b506001600160a01b0381358116916020810135916040820135916060013516610e06565b6103ce600480360360208110156105e557600080fd5b50356001600160a01b031661112e565b6103ce611149565b6103426004803603602081101561061357600080fd5b50356001600160a01b0316611156565b6103426111ef565b610554611362565b6103ce611386565b6103ce6004803603604081101561065157600080fd5b506001600160a01b03813516906020013561138c565b6103ce6004803603602081101561067d57600080fd5b50356001600160a01b03166113db565b6103ce6113ed565b610342600480360360208110156106ab57600080fd5b50356001600160a01b03166113f3565b6103ce600480360360208110156106d157600080fd5b50356001600160a01b0316611539565b6103ce61154b565b600c546fffffffffffffffffffffffffffffffff1681565b6001546001600160a01b03163314610760576040805162461bcd60e51b815260206004820152601c60248201527f435661756c74466f725472616465723a2021676f7665726e616e636500000000604482015290519081900360640190fd5b600355565b6001546001600160a01b031633146107c4576040805162461bcd60e51b815260206004820152601c60248201527f435661756c74466f725472616465723a2021676f7665726e616e636500000000604482015290519081900360640190fd5b6001600160a01b03811660009081526008602052604090205460ff1661081b5760405162461bcd60e51b81526004018080602001828103825260228152602001806117456022913960400191505060405180910390fd5b6001600160a01b03811660008181526008602090815260409182902080547fffffffffffffffffffffffffffffffffffffffffffffffffffffffffffffff00169055815192835290517fde1162637b8da52aa9fd8ebc5eb8b20024620440530f42f56320557e4111d0179281900390910190a150565b6001600160a01b0385166000908152600b6020908152604080832054600a8352818420546009909352908320548392839283929091906fffffffffffffffffffffffffffffffff16836108e44383611551565b905061092461091d670de0b6b3a76400006109176109038560016115ae565b60055461091190899061160f565b9061160f565b90611668565b85906115ae565b9450505050506109378989898989610c80565b915060006109458a8461138c565b905061095d670de0b6b3a7640000610917848461160f565b94506109698286611551565b93505050955095509592505050565b670de0b6b3a764000081565b600a81565b6009602052600090815260409020546fffffffffffffffffffffffffffffffff1681565b606481565b6103e881565b600a6020526000908152604090205481565b60055481565b60025481565b60086020526000908152604090205460ff1681565b60026000541415610a43576040805162461bcd60e51b815260206004820152601f60248201527f5265656e7472616e637947756172643a207265656e7472616e742063616c6c00604482015290519081900360640190fd5b600260008190555060007f00000000000000000000000000000000000000000000000000000000000000006001600160a01b031663d2d7f8166040518163ffffffff1660e01b815260040160206040518083038186803b158015610aa657600080fd5b505afa158015610aba573d6000803e3d6000fd5b505050506040513d6020811015610ad057600080fd5b50519050336001600160a01b03821614610b31576040805162461bcd60e51b815260206004820181905260248201527f435661756c74466f725472616465723a206f6e6c79207661756c74466f724c50604482015290519081900360640190fd5b6001600160a01b03821660009081526007602090815260409182902054825190815291517f9109879a62f2b7f0305863647d96ee2f9768a72344b14c3d01f890b2c2f8ec779281900390910190a1506001600160a01b0316600090815260076020526040812081905560019055565b6001546001600160a01b03163314610bff576040805162461bcd60e51b815260206004820152601c60248201527f435661756c74466f725472616465723a2021676f7665726e616e636500000000604482015290519081900360640190fd5b600455565b605a81565b61012c81565b62249f0081565b60065481565b6001546001600160a01b03163314610c7b576040805162461bcd60e51b815260206004820152601c60248201527f435661756c74466f725472616465723a2021676f7665726e616e636500000000604482015290519081900360640190fd5b600555565b6000806000876001600160a01b031663a1da4d246040518163ffffffff1660e01b8152600401604080518083038186803b158015610cbd57600080fd5b505afa158015610cd1573d6000803e3d6000fd5b505050506040513d6040811015610ce757600080fd5b50805160209091015190925090506000610d01888361160f565b90506000610d0f888561160f565b90506000610d1d83836116cf565b90506000610d2b828a61160f565b90506000610d39868b61160f565b90506000610d478a8961160f565b9050610d5d610d5683836115ae565b8490611668565b9e9d5050505050505050505050505050565b6001546001600160a01b031681565b7f000000000000000000000000000000000000000000000000000000000000000081565b6001546001600160a01b03163314610e01576040805162461bcd60e51b815260206004820152601c60248201527f435661756c74466f725472616465723a2021676f7665726e616e636500000000604482015290519081900360640190fd5b600255565b60026000541415610e5e576040805162461bcd60e51b815260206004820152601f60248201527f5265656e7472616e637947756172643a207265656e7472616e742063616c6c00604482015290519081900360640190fd5b600260009081553381526008602052604090205460ff16610eb05760405162461bcd60e51b81526004018080602001828103825260238152602001806117226023913960400191505060405180910390fd5b6001600160a01b038416610f0b576040805162461bcd60e51b815260206004820152601d60248201527f435661756c74466f725472616465723a20696e76616c69642070616972000000604482015290519081900360640190fd5b6001600160a01b038116610f505760405162461bcd60e51b81526004018080602001828103825260218152602001806117676021913960400191505060405180910390fd5b6000806000806000886001600160a01b0316630902f1ac6040518163ffffffff1660e01b8152600401604080518083038186803b158015610f9057600080fd5b505afa158015610fa4573d6000803e3d6000fd5b505050506040513d6040811015610fba57600080fd5b5080516020909101516dffffffffffffffffffffffffffff9182169350169050610fe78983838b8b610891565b6001600160a01b038c16600090815260096020908152604080832080547fffffffffffffffffffffffffffffffff0000000000000000000000000000000016436fffffffffffffffffffffffffffffffff16179055600b825280832094909455600a905291822055909550935061106a925060649150610917905084605a61160f565b9050600061107e606461091785600a61160f565b90507f00000000000000000000000000000000000000000000000000000000000000006001600160a01b03166340c10f1985846040518363ffffffff1660e01b815260040180836001600160a01b0316815260200182815260200192505050600060405180830381600087803b1580156110f757600080fd5b505af115801561110b573d6000803e3d6000fd5b505060065461111d92509050826115ae565b600655505060016000555050505050565b6001600160a01b031660009081526007602052604090205490565b68056bc75e2d6310000081565b6001546001600160a01b031633146111b5576040805162461bcd60e51b815260206004820152601c60248201527f435661756c74466f725472616465723a2021676f7665726e616e636500000000604482015290519081900360640190fd5b600180547fffffffffffffffffffffffff0000000000000000000000000000000000000000166001600160a01b0392909216919091179055565b60026000541415611247576040805162461bcd60e51b815260206004820152601f60248201527f5265656e7472616e637947756172643a207265656e7472616e742063616c6c00604482015290519081900360640190fd5b600260008190555060007f00000000000000000000000000000000000000000000000000000000000000006001600160a01b0316631dae76916040518163ffffffff1660e01b815260040160206040518083038186803b1580156112aa57600080fd5b505afa1580156112be573d6000803e3d6000fd5b505050506040513d60208110156112d457600080fd5b50519050336001600160a01b0382161461131f5760405162461bcd60e51b81526004018080602001828103825260238152602001806116ff6023913960400191505060405180910390fd5b60065460408051918252517f1032e91fe6d576a72f9d9eab143b22ea116436d4f26f12d46e7332bfb758064a9181900360200190a1506000600681905560019055565b7f000000000000000000000000000000000000000000000000000000000000000081565b60035481565b6001600160a01b0382166000908152600a6020526040812054828111156113cf576113c781610917670de0b6b3a76400006109118388611551565b9150506113d5565b60009150505b92915050565b600b6020526000908152604090205481565b60065490565b6001546001600160a01b03163314611452576040805162461bcd60e51b815260206004820152601c60248201527f435661756c74466f725472616465723a2021676f7665726e616e636500000000604482015290519081900360640190fd5b6001600160a01b03811660009081526008602052604090205460ff16156114c0576040805162461bcd60e51b815260206004820152601f60248201527f435661756c74466f725472616465723a20726f7574657220616c6c6f77656400604482015290519081900360640190fd5b6001600160a01b03811660008181526008602090815260409182902080547fffffffffffffffffffffffffffffffffffffffffffffffffffffffffffffff00166001179055815192835290517f6f8eaabfaab22f210f7ed4615279fc9d3bf0fe5695f2bbf88b1b55f641bd31579281900390910190a150565b60076020526000908152604090205481565b60045481565b6000828211156115a8576040805162461bcd60e51b815260206004820152601e60248201527f536166654d6174683a207375627472616374696f6e206f766572666c6f770000604482015290519081900360640190fd5b50900390565b600082820183811015611608576040805162461bcd60e51b815260206004820152601b60248201527f536166654d6174683a206164646974696f6e206f766572666c6f770000000000604482015290519081900360640190fd5b9392505050565b60008261161e575060006113d5565b8282028284828161162b57fe5b04146116085760405162461bcd60e51b81526004018080602001828103825260218152602001806116de6021913960400191505060405180910390fd5b60008082116116be576040805162461bcd60e51b815260206004820152601a60248201527f536166654d6174683a206469766973696f6e206279207a65726f000000000000604482015290519081900360640190fd5b8183816116c757fe5b049392505050565b60008183116115a85750039056fe536166654d6174683a206d756c7469706c69636174696f6e206f766572666c6f77435661756c74466f725472616465723a206f6e6c79207661756c74466f72434e6f6465435661756c74466f725472616465723a206e6f7420616c6c6f77656420726f75746572435661756c74466f725472616465723a20726f7574657220646973616c6c6f776564435661756c74466f725472616465723a20696e76616c696420726577617264546fa2646970667358221220070f8461597cae0a856032241174693a8f03f60b4433b2f9fb52c6fb71e1dbbe64736f6c634300060c0033",
  "immutableReferences": {
    "23460": [
      {
        "length": 32,
        "start": 3456
      },
      {
        "length": 32,
        "start": 4226
      }
    ],
    "23462": [
      {
        "length": 32,
        "start": 2639
      },
      {
        "length": 32,
        "start": 4691
      },
      {
        "length": 32,
        "start": 4964
      }
    ]
  },
  "source": "// SPDX-License-Identifier: GPL-3.0-or-later\n\npragma solidity 0.6.12;\n\nimport \"@openzeppelin/contracts/math/SafeMath.sol\";\nimport \"./lib/ABDKMath64x64.sol\";\nimport \"@openzeppelin/contracts/token/ERC20/IERC20.sol\";\nimport \"./interface/ICoFiXV2VaultForTrader.sol\";\nimport \"./interface/ICoFiToken.sol\";\nimport \"@openzeppelin/contracts/utils/ReentrancyGuard.sol\";\nimport \"./interface/ICoFiXV2Factory.sol\";\nimport \"./interface/ICoFiXVaultForLP.sol\";\nimport \"./interface/ICoFiXStakingRewards.sol\";\nimport \"./interface/ICoFiXV2Pair.sol\";\n\n// Reward Pool Controller for Trader\n// Trade to earn CoFi Token\ncontract CoFiXV2VaultForTrader is ICoFiXV2VaultForTrader, ReentrancyGuard {\n    using SafeMath for uint256;\n\n    uint256 public constant RATE_BASE = 1e18;\n    uint256 public constant LAMBDA_BASE = 100;\n    uint256 public constant RECENT_RANGE = 300;\n\n    uint256 public constant SHARE_BASE = 100;\n    uint256 public constant SHARE_FOR_TRADER = 90;\n    // uint256 public constant SHARE_FOR_LP = 10;\n    uint256 public constant SHARE_FOR_CNODE = 10;\n\n    uint256 public constant NAVPS_BASE = 1E18; // NAVPS (Net Asset Value Per Share), need accuracy\n\n    // make all of these constant, so we can reduce gas cost for swap features\n    uint256 public constant COFI_DECAY_PERIOD = 2400000; // LP pool yield decays for every 2,400,000 blocks\n    uint256 public constant THETA_FEE_UINIT = 1 ether;\n    uint256 public constant L_LIMIT = 100 ether;\n    uint256 public constant COFI_RATE_UPDATE_INTERVAL = 1000;\n\n    uint256 public constant EXPECT_YIELD_BASE = 10;\n    uint256 public constant L_BASE = 1000;\n    uint256 public constant THETA_BASE = 1000;\n    uint256 public constant REWARD_MULTIPLE_BASE = 100;\n\n    address public immutable cofiToken;\n    address public immutable factory;\n\n    // managed by governance\n    address public governance;\n    uint256 public EXPECT_YIELD_RATIO = 3; // r, 0.3\n    uint256 public L_RATIO = 2; // l, 0.002\n    uint256 public THETA = 2; // 0.002\n    uint256 public cofiRate = 0.1*1e18; // nt 0.1\n\n    uint256 public pendingRewardsForCNode;\n\n    mapping(address => uint256) public pendingRewardsForLP; // pair address to pending rewards amount\n    mapping (address => bool) public routerAllowed;\n\n    mapping (address => uint128) public lastMinedBlock; // last block mined cofi token\n    mapping (address => uint256) public lastNeededETHAmount; // last needed eth amount for adjustment \n    mapping (address => uint256) public lastTotalAccruedAmount;\n    uint128 public lastDensity; // last mining density, see currentDensity()\n\n    modifier onlyGovernance() {\n        require(msg.sender == governance, \"CVaultForTrader: !governance\");\n        _;\n    }\n\n    constructor(address cofi, address _factory) public {\n        cofiToken = cofi;\n        factory = _factory;\n        governance = msg.sender;\n    }\n\n    /* setters for protocol governance */\n    function setGovernance(address _new) external override onlyGovernance {\n        governance = _new;\n    }\n\n    function setExpectedYieldRatio(uint256 r) external override onlyGovernance {\n        EXPECT_YIELD_RATIO = r;\n    }\n\n    function setLRatio(uint256 lRatio) external override onlyGovernance {\n        L_RATIO = lRatio;\n    }\n\n    function setTheta(uint256 theta) external override onlyGovernance {\n        THETA = theta;\n    }\n\n    function setCofiRate(uint256 _cofiRate) external override onlyGovernance {\n        cofiRate = _cofiRate;\n    }\n\n    function allowRouter(address router) external override onlyGovernance {\n        require(!routerAllowed[router], \"CVaultForTrader: router allowed\");\n        routerAllowed[router] = true;\n        emit RouterAllowed(router);\n    }\n\n    function disallowRouter(address router) external override onlyGovernance {\n        require(routerAllowed[router], \"CVaultForTrader: router disallowed\");\n        routerAllowed[router] = false;\n        emit RouterDisallowed(router);\n    }\n\n    // calc v_t\n    function calcMiningRate(address pair, uint256 neededETHAmount) public override view returns (uint256) {\n        uint256 _lastNeededETHAmount = lastNeededETHAmount[pair];\n\n        if (_lastNeededETHAmount > neededETHAmount) { // D_{t-1} > D_t \n            // \\frac{D_{t-1} - D_t}{D_{t-1}}\n            return _lastNeededETHAmount.sub(neededETHAmount).mul(RATE_BASE).div(_lastNeededETHAmount); // v_t\n        } else { // D_{t-1} <= D_t\n            return 0; // v_t\n        }\n    }\n\n    // calc D_t :needed eth amount for adjusting kt to k0\n    function calcNeededETHAmountForAdjustment(address pair, uint256 reserve0, uint256 reserve1, uint256 ethAmount, uint256 erc20Amount) public override view returns (uint256) {\n        /*\n        D_t = |\\frac{E_t * k_0 - U_t}{k_0 + P_t}|\\\\\\\\\n            = \\frac{|E_t * \\frac{initToken1Amount}{initToken0Amount} - U_t|}{\\frac{initToken1Amount}{initToken0Amount} + \\frac{erc20Amount}{ethAmount}}\\\\\\\\\n            =  \\frac{|E_t * initToken1Amount - U_t * initToken0Amount|}{initToken1Amount + \\frac{erc20Amount * initToken0Amount}{ethAmount}}\\\\\\\\\n            =  \\frac{|E_t * initToken1Amount - U_t * initToken0Amount| * ethAmount}{initToken1Amount * ethAmount + erc20Amount * initToken0Amount}\\\\\\\\\n        */\n        \n        {\n            (uint256 initToken0Amount, uint256 initToken1Amount) = ICoFiXV2Pair(pair).getInitialAssetRatio();\n\n            uint256 reserve0MulInitToken1Amount = reserve0.mul(initToken1Amount);\n            uint256 reserve1MulInitToken0Amount = reserve1.mul(initToken0Amount);\n\n            uint256 diff = calcDiff(reserve0MulInitToken1Amount, reserve1MulInitToken0Amount);\n            uint256 diffMulEthAmount = diff.mul(ethAmount);\n\n            uint256 initToken1AmountMulEthAmount = initToken1Amount.mul(ethAmount);\n            uint256 erc20AmountMulInitToken0Amount = erc20Amount.mul(initToken0Amount);\n\n            return diffMulEthAmount.div(initToken1AmountMulEthAmount.add(erc20AmountMulInitToken0Amount));\n        }\n    }\n\n    function calcDiff(uint x, uint y) private pure returns (uint) {\n        return x > y ? (x - y) : (y - x);\n    }\n\n    /*\n    Y_t = Y_{t - 1} + D_{t - 1} * n_t * (S_t + 1) - Z_t  \n    Z_t = [Y_{t - 1} + D_{t - 1} * n_t * (S_t + 1)] * v_t\n    */\n    function actualMiningAmount(\n        address pair,\n        uint256 reserve0,\n        uint256 reserve1,\n        uint256 ethAmount,\n        uint256 erc20Amount \n    ) public override view returns (\n        uint256 amount,\n        uint256 totalAccruedAmount,\n        uint256 neededETHAmount\n    ) {\n        uint256 totalAmount;\n        {\n            // Y_{t - 1} + D_{t - 1} * n_t * (S_t + 1)\n            uint256 _lastTotalAccruedAmount = lastTotalAccruedAmount[pair]; // Y_{t - 1}\n            uint256 _lastNeededETHAmount = lastNeededETHAmount[pair]; // D_{t - 1}\n            uint256 _lastBlock = lastMinedBlock[pair];\n            uint256 _offset = block.number.sub(_lastBlock); // s_t\n\n            totalAmount = _lastTotalAccruedAmount.add(_lastNeededETHAmount.mul(cofiRate).mul(_offset.add(1)).div(RATE_BASE));\n        }\n\n        neededETHAmount = calcNeededETHAmountForAdjustment(pair, reserve0, reserve1, ethAmount, erc20Amount); // D_t\n        uint256 miningRate = calcMiningRate(pair, neededETHAmount); // v_t\n        \n        // Z_t = [Y_{t - 1} + D_{t - 1} * n_t * (S_t + 1)] * v_t\n        amount = totalAmount.mul(miningRate).div(RATE_BASE);\n        // Y_t = Y_{t - 1} + D_{t - 1} * n_t * (S_t + 1) - Z_t  \n        totalAccruedAmount = totalAmount.sub(amount);\n    }\n\n    function distributeReward(\n        address pair,\n        uint256 ethAmount,\n        uint256 erc20Amount,\n        address rewardTo\n    ) external override nonReentrant {\n        require(routerAllowed[msg.sender], \"CVaultForTrader: not allowed router\");  // caution: be careful when adding new router\n        require(pair != address(0), \"CVaultForTrader: invalid pair\");\n        require(rewardTo != address(0), \"CVaultForTrader: invalid rewardTo\");\n\n        uint256 amount;\n        {\n            uint256 totalAccruedAmount;\n            uint256 neededETHAmount;\n            (uint256 reserve0, uint256 reserve1) = ICoFiXV2Pair(pair).getReserves();\n            (amount, totalAccruedAmount, neededETHAmount) = actualMiningAmount(pair, reserve0, reserve1, ethAmount, erc20Amount);\n\n            lastMinedBlock[pair] = uint128(block.number); // uint128 is enough for block.number\n            lastTotalAccruedAmount[pair] = totalAccruedAmount;\n            lastNeededETHAmount[pair] = neededETHAmount;\n        }\n\n        {\n            uint256 amountForTrader = amount.mul(SHARE_FOR_TRADER).div(SHARE_BASE);\n            // uint256 amountForLP = amount.mul(SHARE_FOR_LP).div(SHARE_BASE);\n            uint256 amountForCNode = amount.mul(SHARE_FOR_CNODE).div(SHARE_BASE);\n\n            ICoFiToken(cofiToken).mint(rewardTo, amountForTrader); // allows zero, send to receiver directly, reduce gas cost\n            // pendingRewardsForLP[pair] = pendingRewardsForLP[pair].add(amountForLP); // possible key: token or pair, we use pair here\n            pendingRewardsForCNode = pendingRewardsForCNode.add(amountForCNode);\n        }\n    }\n\n    function clearPendingRewardOfCNode() external override nonReentrant {\n        address vaultForCNode = ICoFiXV2Factory(factory).getVaultForCNode();\n        require(msg.sender == vaultForCNode, \"CVaultForTrader: only vaultForCNode\"); // caution\n        // uint256 pending = pendingRewardsForCNode;\n        emit ClearPendingRewardOfCNode(pendingRewardsForCNode);\n        pendingRewardsForCNode = 0; // take all, set to 0\n        // ICoFiToken(cofiToken).mint(msg.sender, pending); // no need to mint from here, we can mint directly in valult\n    }\n\n    // vaultForLP should ensure passing the correct pair address\n    function clearPendingRewardOfLP(address pair) external override nonReentrant {\n        address vaultForLP = ICoFiXV2Factory(factory).getVaultForLP();\n        require(msg.sender == vaultForLP, \"CVaultForTrader: only vaultForLP\"); // caution \n        emit ClearPendingRewardOfLP(pendingRewardsForLP[pair]);\n        pendingRewardsForLP[pair] = 0; // take all, set to 0\n        // ICoFiToken(cofiToken).mint(to, pending); // no need to mint from here, we can mint directly in valult\n    }\n\n    function getPendingRewardOfCNode() external override view returns (uint256) {\n        return pendingRewardsForCNode;\n    }\n\n    function getPendingRewardOfLP(address pair) external override view returns (uint256) {\n        return pendingRewardsForLP[pair];\n    }\n\n}\n",
  "sourcePath": "/Users/lixiansheng/Downloads/CoFix/contracts/CoFiXV2VaultForTrader.sol",
  "compiler": {
    "name": "solc",
    "version": "0.6.12+commit.27d51765.Emscripten.clang"
  },
  "schemaVersion": "3.3.3",
  "updatedAt": "2021-05-11T03:51:12.972Z",
  "networkType": "ethereum",
  "devdoc": {
    "kind": "dev",
    "methods": {},
    "version": 1
  },
  "userdoc": {
    "kind": "user",
    "methods": {},
    "version": 1
  }
}