{
  "contractName": "CoFiXV2VaultForLP",
  "abi": [
    {
      "inputs": [
        {
          "internalType": "address",
          "name": "cofi",
          "type": "address"
        },
        {
          "internalType": "address",
          "name": "_factory",
          "type": "address"
        }
      ],
      "stateMutability": "nonpayable",
      "type": "constructor"
    },
    {
      "anonymous": false,
      "inputs": [
        {
          "indexed": false,
          "internalType": "address",
          "name": "pool",
          "type": "address"
        },
        {
          "indexed": false,
          "internalType": "uint256",
          "name": "index",
          "type": "uint256"
        }
      ],
      "name": "NewPoolAdded",
      "type": "event"
    },
    {
      "anonymous": false,
      "inputs": [
        {
          "indexed": false,
          "internalType": "address",
          "name": "pool",
          "type": "address"
        }
      ],
      "name": "PoolDisabled",
      "type": "event"
    },
    {
      "anonymous": false,
      "inputs": [
        {
          "indexed": false,
          "internalType": "address",
          "name": "pool",
          "type": "address"
        }
      ],
      "name": "PoolEnabled",
      "type": "event"
    },
    {
      "inputs": [],
      "name": "RATE_BASE",
      "outputs": [
        {
          "internalType": "uint256",
          "name": "",
          "type": "uint256"
        }
      ],
      "stateMutability": "view",
      "type": "function"
    },
    {
      "inputs": [],
      "name": "WEIGHT_BASE",
      "outputs": [
        {
          "internalType": "uint256",
          "name": "",
          "type": "uint256"
        }
      ],
      "stateMutability": "view",
      "type": "function"
    },
    {
      "inputs": [
        {
          "internalType": "uint256",
          "name": "",
          "type": "uint256"
        }
      ],
      "name": "allPools",
      "outputs": [
        {
          "internalType": "address",
          "name": "",
          "type": "address"
        }
      ],
      "stateMutability": "view",
      "type": "function"
    },
    {
      "inputs": [],
      "name": "cofiToken",
      "outputs": [
        {
          "internalType": "address",
          "name": "",
          "type": "address"
        }
      ],
      "stateMutability": "view",
      "type": "function"
    },
    {
      "inputs": [],
      "name": "decayPeriod",
      "outputs": [
        {
          "internalType": "uint256",
          "name": "",
          "type": "uint256"
        }
      ],
      "stateMutability": "view",
      "type": "function"
    },
    {
      "inputs": [],
      "name": "decayRate",
      "outputs": [
        {
          "internalType": "uint256",
          "name": "",
          "type": "uint256"
        }
      ],
      "stateMutability": "view",
      "type": "function"
    },
    {
      "inputs": [],
      "name": "enabledCnt",
      "outputs": [
        {
          "internalType": "uint256",
          "name": "",
          "type": "uint256"
        }
      ],
      "stateMutability": "view",
      "type": "function"
    },
    {
      "inputs": [],
      "name": "factory",
      "outputs": [
        {
          "internalType": "address",
          "name": "",
          "type": "address"
        }
      ],
      "stateMutability": "view",
      "type": "function"
    },
    {
      "inputs": [],
      "name": "genesisBlock",
      "outputs": [
        {
          "internalType": "uint256",
          "name": "",
          "type": "uint256"
        }
      ],
      "stateMutability": "view",
      "type": "function"
    },
    {
      "inputs": [],
      "name": "governance",
      "outputs": [
        {
          "internalType": "address",
          "name": "",
          "type": "address"
        }
      ],
      "stateMutability": "view",
      "type": "function"
    },
    {
      "inputs": [],
      "name": "initCoFiRate",
      "outputs": [
        {
          "internalType": "uint256",
          "name": "",
          "type": "uint256"
        }
      ],
      "stateMutability": "view",
      "type": "function"
    },
    {
      "inputs": [
        {
          "internalType": "address",
          "name": "",
          "type": "address"
        }
      ],
      "name": "pairToStakingPool",
      "outputs": [
        {
          "internalType": "address",
          "name": "",
          "type": "address"
        }
      ],
      "stateMutability": "view",
      "type": "function"
    },
    {
      "inputs": [
        {
          "internalType": "address",
          "name": "",
          "type": "address"
        }
      ],
      "name": "poolInfo",
      "outputs": [
        {
          "internalType": "enum ICoFiXVaultForLP.POOL_STATE",
          "name": "state",
          "type": "uint8"
        },
        {
          "internalType": "uint256",
          "name": "weight",
          "type": "uint256"
        }
      ],
      "stateMutability": "view",
      "type": "function"
    },
    {
      "inputs": [],
      "name": "setGenesisBlock",
      "outputs": [],
      "stateMutability": "nonpayable",
      "type": "function"
    },
    {
      "inputs": [
        {
          "internalType": "address",
          "name": "_new",
          "type": "address"
        }
      ],
      "name": "setGovernance",
      "outputs": [],
      "stateMutability": "nonpayable",
      "type": "function"
    },
    {
      "inputs": [
        {
          "internalType": "uint256",
          "name": "_new",
          "type": "uint256"
        }
      ],
      "name": "setInitCoFiRate",
      "outputs": [],
      "stateMutability": "nonpayable",
      "type": "function"
    },
    {
      "inputs": [
        {
          "internalType": "uint256",
          "name": "_new",
          "type": "uint256"
        }
      ],
      "name": "setDecayPeriod",
      "outputs": [],
      "stateMutability": "nonpayable",
      "type": "function"
    },
    {
      "inputs": [
        {
          "internalType": "uint256",
          "name": "_new",
          "type": "uint256"
        }
      ],
      "name": "setDecayRate",
      "outputs": [],
      "stateMutability": "nonpayable",
      "type": "function"
    },
    {
      "inputs": [
        {
          "internalType": "address",
          "name": "pool",
          "type": "address"
        }
      ],
      "name": "addPool",
      "outputs": [],
      "stateMutability": "nonpayable",
      "type": "function"
    },
    {
      "inputs": [
        {
          "internalType": "address",
          "name": "pool",
          "type": "address"
        }
      ],
      "name": "enablePool",
      "outputs": [],
      "stateMutability": "nonpayable",
      "type": "function"
    },
    {
      "inputs": [
        {
          "internalType": "address",
          "name": "pool",
          "type": "address"
        }
      ],
      "name": "disablePool",
      "outputs": [],
      "stateMutability": "nonpayable",
      "type": "function"
    },
    {
      "inputs": [
        {
          "internalType": "address",
          "name": "pool",
          "type": "address"
        },
        {
          "internalType": "uint256",
          "name": "weight",
          "type": "uint256"
        }
      ],
      "name": "setPoolWeight",
      "outputs": [],
      "stateMutability": "nonpayable",
      "type": "function"
    },
    {
      "inputs": [
        {
          "internalType": "address[]",
          "name": "pools",
          "type": "address[]"
        },
        {
          "internalType": "uint256[]",
          "name": "weights",
          "type": "uint256[]"
        }
      ],
      "name": "batchSetPoolWeight",
      "outputs": [],
      "stateMutability": "nonpayable",
      "type": "function"
    },
    {
      "inputs": [
        {
          "internalType": "address",
          "name": "pair",
          "type": "address"
        }
      ],
      "name": "getPendingRewardOfLP",
      "outputs": [
        {
          "internalType": "uint256",
          "name": "",
          "type": "uint256"
        }
      ],
      "stateMutability": "view",
      "type": "function"
    },
    {
      "inputs": [
        {
          "internalType": "address",
          "name": "to",
          "type": "address"
        },
        {
          "internalType": "uint256",
          "name": "amount",
          "type": "uint256"
        }
      ],
      "name": "distributeReward",
      "outputs": [],
      "stateMutability": "nonpayable",
      "type": "function"
    },
    {
      "inputs": [],
      "name": "currentPeriod",
      "outputs": [
        {
          "internalType": "uint256",
          "name": "",
          "type": "uint256"
        }
      ],
      "stateMutability": "view",
      "type": "function"
    },
    {
      "inputs": [],
      "name": "currentCoFiRate",
      "outputs": [
        {
          "internalType": "uint256",
          "name": "",
          "type": "uint256"
        }
      ],
      "stateMutability": "view",
      "type": "function"
    },
    {
      "inputs": [
        {
          "internalType": "address",
          "name": "pool",
          "type": "address"
        }
      ],
      "name": "currentPoolRate",
      "outputs": [
        {
          "internalType": "uint256",
          "name": "poolRate",
          "type": "uint256"
        }
      ],
      "stateMutability": "view",
      "type": "function"
    },
    {
      "inputs": [
        {
          "internalType": "address",
          "name": "pair",
          "type": "address"
        }
      ],
      "name": "currentPoolRateByPair",
      "outputs": [
        {
          "internalType": "uint256",
          "name": "poolRate",
          "type": "uint256"
        }
      ],
      "stateMutability": "view",
      "type": "function"
    },
    {
      "inputs": [
        {
          "internalType": "address",
          "name": "pair",
          "type": "address"
        }
      ],
      "name": "stakingPoolForPair",
      "outputs": [
        {
          "internalType": "address",
          "name": "pool",
          "type": "address"
        }
      ],
      "stateMutability": "view",
      "type": "function"
    },
    {
      "inputs": [
        {
          "internalType": "address",
          "name": "pool",
          "type": "address"
        }
      ],
      "name": "getPoolInfo",
      "outputs": [
        {
          "internalType": "enum ICoFiXVaultForLP.POOL_STATE",
          "name": "state",
          "type": "uint8"
        },
        {
          "internalType": "uint256",
          "name": "weight",
          "type": "uint256"
        }
      ],
      "stateMutability": "view",
      "type": "function"
    },
    {
      "inputs": [
        {
          "internalType": "address",
          "name": "pair",
          "type": "address"
        }
      ],
      "name": "getPoolInfoByPair",
      "outputs": [
        {
          "internalType": "enum ICoFiXVaultForLP.POOL_STATE",
          "name": "state",
          "type": "uint8"
        },
        {
          "internalType": "uint256",
          "name": "weight",
          "type": "uint256"
        }
      ],
      "stateMutability": "view",
      "type": "function"
    },
    {
      "inputs": [],
      "name": "getEnabledPoolCnt",
      "outputs": [
        {
          "internalType": "uint256",
          "name": "",
          "type": "uint256"
        }
      ],
      "stateMutability": "view",
      "type": "function"
    },
    {
      "inputs": [],
      "name": "getCoFiStakingPool",
      "outputs": [
        {
          "internalType": "address",
          "name": "pool",
          "type": "address"
        }
      ],
      "stateMutability": "view",
      "type": "function"
    }
  ],
  "bytecode": "0x60c0604052673e7336287142000060035562249f00600455605060055534801561002857600080fd5b506040516120bc3803806120bc8339818101604052604081101561004b57600080fd5b508051602090910151600160008190556001600160601b0319606093841b81166080529190921b1660a052600280546001600160a01b0319163317905543905560805160601c60a05160601c611ff46100c860003980610a6d528061151152806116d652806117c4525080610cb552806113e35250611ff46000f3fe608060405234801561001057600080fd5b50600436106102265760003560e01c80635d941dd51161012a578063b26acd7a116100bd578063d914cd4b1161008c578063defe80ef11610071578063defe80ef14610680578063e665cfe014610688578063f8a6d78f146106ae57610226565b8063d914cd4b14610634578063dcaaa61b1461065a57610226565b8063b26acd7a146105c3578063c45a0155146105e0578063cc28ac6a146105e8578063cc442f7c1461060e57610226565b8063a66771db116100f9578063a66771db14610567578063a9c1f2f11461058d578063ab033ea914610595578063af1734ac146105bb57610226565b80635d941dd51461050b578063643a8b241461051357806379d5d863146105395780639a7b5f111461054157610226565b8063342f802b116101bd57806348d67e1b1161018c57806355d9cdff1161017157806355d9cdff146104d5578063595aeb50146104dd5780635aa6e6751461050357610226565b806348d67e1b146104c55780634cdc9c63146104cd57610226565b8063342f802b1461032257806338d8294b1461033f5780633be8b7681461038157806341d1de97146104a857610226565b80630873c6ec116101f95780630873c6ec146102de5780630c5890a0146102e65780631ec8bb8c146102ee57806324de74bd1461031a57610226565b806304e7e0b91461022b578063060406181461024a57806306bfa9381461026457806307ec6c81146102b2575b600080fd5b6102486004803603602081101561024157600080fd5b50356106b6565b005b61025261071a565b60408051918252519081900360200190f35b61028a6004803603602081101561027a57600080fd5b50356001600160a01b0316610742565b6040518083600281111561029a57fe5b81526020018281526020019250505060405180910390f35b610248600480360360408110156102c857600080fd5b506001600160a01b038135169060200135610769565b610252610913565b61025261091f565b6102486004803603604081101561030457600080fd5b506001600160a01b038135169060200135610925565b610252610d4e565b6102486004803603602081101561033857600080fd5b5035610d54565b6103656004803603602081101561035557600080fd5b50356001600160a01b0316610df4565b604080516001600160a01b039092168252519081900360200190f35b6102486004803603604081101561039757600080fd5b8101906020810181356401000000008111156103b257600080fd5b8201836020820111156103c457600080fd5b803590602001918460208302840111640100000000831117156103e657600080fd5b919080806020026020016040519081016040528093929190818152602001838360200280828437600092019190915250929594936020810193503591505064010000000081111561043657600080fd5b82018360208201111561044857600080fd5b8035906020019184602083028401116401000000008311171561046a57600080fd5b919080806020026020016040519081016040528093929190818152602001838360200280828437600092019190915250929550610e15945050505050565b610365600480360360208110156104be57600080fd5b50356110b6565b6102526110dd565b6102526110e3565b6102486110e9565b610248600480360360208110156104f357600080fd5b50356001600160a01b03166110f2565b6103656113d2565b6103656113e1565b6102526004803603602081101561052957600080fd5b50356001600160a01b0316611405565b61025261145b565b61028a6004803603602081101561055757600080fd5b50356001600160a01b03166114a8565b6102526004803603602081101561057d57600080fd5b50356001600160a01b03166114c7565b610252611633565b610248600480360360208110156105ab57600080fd5b50356001600160a01b0316611639565b6103656116d2565b610248600480360360208110156105d957600080fd5b503561175e565b6103656117c2565b610365600480360360208110156105fe57600080fd5b50356001600160a01b03166117e6565b61028a6004803603602081101561062457600080fd5b50356001600160a01b0316611801565b6102486004803603602081101561064a57600080fd5b50356001600160a01b0316611833565b6102486004803603602081101561067057600080fd5b50356001600160a01b0316611b54565b610252611dc8565b6102526004803603602081101561069e57600080fd5b50356001600160a01b0316611dcd565b610252611dfa565b6002546001600160a01b03163314610715576040805162461bcd60e51b815260206004820152601860248201527f435661756c74466f724c503a2021676f7665726e616e63650000000000000000604482015290519081900360640190fd5b600555565b600061073d60045461073760015443611e0090919063ffffffff16565b90611e62565b905090565b6001600160a01b03166000908152600860205260409020805460019091015460ff90911691565b6002546001600160a01b031633146107c8576040805162461bcd60e51b815260206004820152601860248201527f435661756c74466f724c503a2021676f7665726e616e63650000000000000000604482015290519081900360640190fd5b606481111561081e576040805162461bcd60e51b815260206004820152601b60248201527f435661756c74466f724c503a20696e76616c6964207765696768740000000000604482015290519081900360640190fd5b6001600160a01b038216610879576040805162461bcd60e51b815260206004820152601d60248201527f435661756c74466f725472616465723a20696e76616c696420706f6f6c000000604482015290519081900360640190fd5b60016001600160a01b03831660009081526008602052604090205460ff1660028111156108a257fe5b146108f4576040805162461bcd60e51b815260206004820152601d60248201527f435661756c74466f724c503a20706f6f6c206e6f7420656e61626c6564000000604482015290519081900360640190fd5b6001600160a01b03909116600090815260086020526040902060010155565b670de0b6b3a764000081565b60035481565b6002600054141561097d576040805162461bcd60e51b815260206004820152601f60248201527f5265656e7472616e637947756172643a207265656e7472616e742063616c6c00604482015290519081900360640190fd5b600260009081553381526008602052604081205460ff16908160028111156109a157fe5b14156109f4576040805162461bcd60e51b815260206004820152601c60248201527f435661756c74466f724c503a206f6e6c7920706f6f6c2076616c696400000000604482015290519081900360640190fd5b6002816002811115610a0257fe5b1415610a0e5750610d45565b6001600160a01b038316610a69576040805162461bcd60e51b815260206004820152601b60248201527f435661756c74466f725472616465723a20696e76616c696420746f0000000000604482015290519081900360640190fd5b60007f00000000000000000000000000000000000000000000000000000000000000006001600160a01b031663b58aa4786040518163ffffffff1660e01b815260040160206040518083038186803b158015610ac457600080fd5b505afa158015610ad8573d6000803e3d6000fd5b505050506040513d6020811015610aee57600080fd5b505190506001600160a01b03811615610cb3576000336001600160a01b03166372f702f36040518163ffffffff1660e01b815260040160206040518083038186803b158015610b3c57600080fd5b505afa158015610b50573d6000803e3d6000fd5b505050506040513d6020811015610b6657600080fd5b505190506001600160a01b038116610bc5576040805162461bcd60e51b815260206004820152601d60248201527f435661756c74466f725472616465723a20696e76616c69642070616972000000604482015290519081900360640190fd5b6000826001600160a01b031663a66771db836040518263ffffffff1660e01b815260040180826001600160a01b0316815260200191505060206040518083038186803b158015610c1457600080fd5b505afa158015610c28573d6000803e3d6000fd5b505050506040513d6020811015610c3e57600080fd5b505190508015610cb057826001600160a01b0316633d1b7dcc836040518263ffffffff1660e01b815260040180826001600160a01b03168152602001915050600060405180830381600087803b158015610c9757600080fd5b505af1158015610cab573d6000803e3d6000fd5b505050505b50505b7f00000000000000000000000000000000000000000000000000000000000000006001600160a01b03166340c10f1985856040518363ffffffff1660e01b815260040180836001600160a01b0316815260200182815260200192505050600060405180830381600087803b158015610d2a57600080fd5b505af1158015610d3e573d6000803e3d6000fd5b5050505050505b50506001600055565b60075490565b6002546001600160a01b03163314610db3576040805162461bcd60e51b815260206004820152601860248201527f435661756c74466f724c503a2021676f7665726e616e63650000000000000000604482015290519081900360640190fd5b80610def5760405162461bcd60e51b8152600401808060200182810382526021815260200180611f9e6021913960400191505060405180910390fd5b600455565b6001600160a01b03808216600090815260096020526040902054165b919050565b6002546001600160a01b03163314610e74576040805162461bcd60e51b815260206004820152601860248201527f435661756c74466f724c503a2021676f7665726e616e63650000000000000000604482015290519081900360640190fd5b815181518114610ecb576040805162461bcd60e51b815260206004820152601960248201527f435661756c74466f724c503a206d69736d61746368206c656e00000000000000604482015290519081900360640190fd5b60005b818110156110b05760006001600160a01b0316848281518110610eed57fe5b60200260200101516001600160a01b03161415610f51576040805162461bcd60e51b815260206004820152601d60248201527f435661756c74466f725472616465723a20696e76616c696420706f6f6c000000604482015290519081900360640190fd5b6064838281518110610f5f57fe5b60200260200101511115610fba576040805162461bcd60e51b815260206004820152601b60248201527f435661756c74466f724c503a20696e76616c6964207765696768740000000000604482015290519081900360640190fd5b600160086000868481518110610fcc57fe5b6020908102919091018101516001600160a01b031682528101919091526040016000205460ff166002811115610ffe57fe5b14611050576040805162461bcd60e51b815260206004820152601d60248201527f435661756c74466f724c503a20706f6f6c206e6f7420656e61626c6564000000604482015290519081900360640190fd5b82818151811061105c57fe5b60200260200101516008600086848151811061107457fe5b60200260200101516001600160a01b03166001600160a01b03168152602001908152602001600020600101819055508080600101915050610ece565b50505050565b600681815481106110c357fe5b6000918252602090912001546001600160a01b0316905081565b60045481565b60015481565b62a877b0600155565b6002546001600160a01b03163314611151576040805162461bcd60e51b815260206004820152601860248201527f435661756c74466f724c503a2021676f7665726e616e63650000000000000000604482015290519081900360640190fd5b60026001600160a01b03821660009081526008602052604090205460ff16600281111561117a57fe5b146111cc576040805162461bcd60e51b815260206004820152601e60248201527f435661756c74466f724c503a20706f6f6c206e6f742064697361626c65640000604482015290519081900360640190fd5b6001600160a01b038116611227576040805162461bcd60e51b815260206004820152601d60248201527f435661756c74466f725472616465723a20696e76616c696420706f6f6c000000604482015290519081900360640190fd5b6001600160a01b038116600090815260086020526040902080547fffffffffffffffffffffffffffffffffffffffffffffffffffffffffffffff0016600190811790915560075461127791611ec9565b6007819055506000816001600160a01b03166372f702f36040518163ffffffff1660e01b815260040160206040518083038186803b1580156112b857600080fd5b505afa1580156112cc573d6000803e3d6000fd5b505050506040513d60208110156112e257600080fd5b50516001600160a01b038082166000908152600960205260409020549192501615611354576040805162461bcd60e51b815260206004820152601760248201527f435661756c74466f724c503a2070616972206164646564000000000000000000604482015290519081900360640190fd5b6001600160a01b0381811660009081526009602090815260409182902080547fffffffffffffffffffffffff0000000000000000000000000000000000000000169386169384179055815192835290517ff37bc7d2dc2b5bd3afd83f8325fd7f602d73391cc33915689bea4c61f81b12d99281900390910190a15050565b6002546001600160a01b031681565b7f000000000000000000000000000000000000000000000000000000000000000081565b6007546000908061141a576000915050610e10565b600061142461145b565b6001600160a01b03851660009081526008602052604090206001015490915061145260646107378484611f23565b95945050505050565b60008061146661071a565b90506004811115611475575060045b60035460055460005b8381101561149f5761149560646107378585611f23565b925060010161147e565b50909250505090565b6008602052600090815260409020805460019091015460ff9091169082565b3360009081526008602052604081205460ff16818160028111156114e757fe5b14806114fe575060028160028111156114fc57fe5b145b1561150d576000915050610e10565b60007f00000000000000000000000000000000000000000000000000000000000000006001600160a01b031663b58aa4786040518163ffffffff1660e01b815260040160206040518083038186803b15801561156857600080fd5b505afa15801561157c573d6000803e3d6000fd5b505050506040513d602081101561159257600080fd5b505190506001600160a01b0381166115af57600092505050610e10565b6000816001600160a01b031663a66771db866040518263ffffffff1660e01b815260040180826001600160a01b0316815260200191505060206040518083038186803b1580156115fe57600080fd5b505afa158015611612573d6000803e3d6000fd5b505050506040513d602081101561162857600080fd5b505195945050505050565b60055481565b6002546001600160a01b03163314611698576040805162461bcd60e51b815260206004820152601860248201527f435661756c74466f724c503a2021676f7665726e616e63650000000000000000604482015290519081900360640190fd5b600280547fffffffffffffffffffffffff0000000000000000000000000000000000000000166001600160a01b0392909216919091179055565b60007f00000000000000000000000000000000000000000000000000000000000000006001600160a01b031663e8a353926040518163ffffffff1660e01b815260040160206040518083038186803b15801561172d57600080fd5b505afa158015611741573d6000803e3d6000fd5b505050506040513d602081101561175757600080fd5b5051905090565b6002546001600160a01b031633146117bd576040805162461bcd60e51b815260206004820152601860248201527f435661756c74466f724c503a2021676f7665726e616e63650000000000000000604482015290519081900360640190fd5b600355565b7f000000000000000000000000000000000000000000000000000000000000000081565b6009602052600090815260409020546001600160a01b031681565b6001600160a01b03808216600090815260096020526040812054909182911661182981610742565b9250925050915091565b6002546001600160a01b03163314611892576040805162461bcd60e51b815260206004820152601860248201527f435661756c74466f724c503a2021676f7665726e616e63650000000000000000604482015290519081900360640190fd5b6001600160a01b03811660009081526008602052604081205460ff1660028111156118b957fe5b1461190b576040805162461bcd60e51b815260206004820152601760248201527f435661756c74466f724c503a20706f6f6c206164646564000000000000000000604482015290519081900360640190fd5b6001600160a01b038116611966576040805162461bcd60e51b815260206004820152601d60248201527f435661756c74466f725472616465723a20696e76616c696420706f6f6c000000604482015290519081900360640190fd5b6001600160a01b038116600090815260086020526040902080547fffffffffffffffffffffffffffffffffffffffffffffffffffffffffffffff001660019081179091556007546119b691611ec9565b6007819055506000816001600160a01b03166372f702f36040518163ffffffff1660e01b815260040160206040518083038186803b1580156119f757600080fd5b505afa158015611a0b573d6000803e3d6000fd5b505050506040513d6020811015611a2157600080fd5b50516001600160a01b038082166000908152600960205260409020549192501615611a93576040805162461bcd60e51b815260206004820152601760248201527f435661756c74466f724c503a2070616972206164646564000000000000000000604482015290519081900360640190fd5b6001600160a01b03808216600090815260096020908152604080832080549487167fffffffffffffffffffffffff0000000000000000000000000000000000000000958616811790915560068054600181018255948190527ff652222313e28459528d920b65115c16c04f3efc82aaedc97be59f3f377c0d3f90940180549095168117909455915482519384529083015280517f38bff197ec9fef6e32271789b78dca0f10af5b2b546ce690a67899f608ba4f4c9281900390910190a15050565b6002546001600160a01b03163314611bb3576040805162461bcd60e51b815260206004820152601860248201527f435661756c74466f724c503a2021676f7665726e616e63650000000000000000604482015290519081900360640190fd5b60016001600160a01b03821660009081526008602052604090205460ff166002811115611bdc57fe5b14611c2e576040805162461bcd60e51b815260206004820152601d60248201527f435661756c74466f724c503a20706f6f6c206e6f7420656e61626c6564000000604482015290519081900360640190fd5b6001600160a01b038116611c89576040805162461bcd60e51b815260206004820152601d60248201527f435661756c74466f725472616465723a20696e76616c696420706f6f6c000000604482015290519081900360640190fd5b6001600160a01b038116600090815260086020526040812080547fffffffffffffffffffffffffffffffffffffffffffffffffffffffffffffff00166002178155600190810191909155600754611cdf91611e00565b6007819055506000816001600160a01b03166372f702f36040518163ffffffff1660e01b815260040160206040518083038186803b158015611d2057600080fd5b505afa158015611d34573d6000803e3d6000fd5b505050506040513d6020811015611d4a57600080fd5b50516001600160a01b0380821660009081526009602090815260409182902080547fffffffffffffffffffffffff00000000000000000000000000000000000000001690558151928616835290519293507ff82ae9a5785e9b261d7e8bba20ced7516919ec7bdc4b18e7d916316f4991e53292918290030190a15050565b606481565b6001600160a01b03808216600090815260096020526040812054909116611df381611405565b9392505050565b60075481565b600082821115611e57576040805162461bcd60e51b815260206004820152601e60248201527f536166654d6174683a207375627472616374696f6e206f766572666c6f770000604482015290519081900360640190fd5b508082035b92915050565b6000808211611eb8576040805162461bcd60e51b815260206004820152601a60248201527f536166654d6174683a206469766973696f6e206279207a65726f000000000000604482015290519081900360640190fd5b818381611ec157fe5b049392505050565b600082820183811015611df3576040805162461bcd60e51b815260206004820152601b60248201527f536166654d6174683a206164646974696f6e206f766572666c6f770000000000604482015290519081900360640190fd5b600082611f3257506000611e5c565b82820282848281611f3f57fe5b0414611df35760405162461bcd60e51b8152600401808060200182810382526021815260200180611f7d6021913960400191505060405180910390fdfe536166654d6174683a206d756c7469706c69636174696f6e206f766572666c6f77435661756c74466f724c503a2077726f6e6720706572696f642073657474696e67a264697066735822122008e2e8c332c0f6b641f056a68da37a6d7aa6f3b659335045c8ce10c4596730a864736f6c634300060c0033",
  "immutableReferences": {
    "22504": [
      {
        "length": 32,
        "start": 3253
      },
      {
        "length": 32,
        "start": 5091
      }
    ],
    "22506": [
      {
        "length": 32,
        "start": 2669
      },
      {
        "length": 32,
        "start": 5393
      },
      {
        "length": 32,
        "start": 5846
      },
      {
        "length": 32,
        "start": 6084
      }
    ]
  },
  "source": "// SPDX-License-Identifier: GPL-3.0-or-later\n\npragma solidity 0.6.12;\n\nimport \"@openzeppelin/contracts/math/SafeMath.sol\";\nimport \"./lib/ABDKMath64x64.sol\";\nimport \"@openzeppelin/contracts/token/ERC20/IERC20.sol\";\nimport \"./interface/ICoFiXVaultForLP.sol\";\nimport \"./interface/ICoFiXStakingRewards.sol\";\nimport \"./interface/ICoFiToken.sol\";\nimport \"@openzeppelin/contracts/utils/ReentrancyGuard.sol\";\nimport \"./interface/ICoFiXV2Factory.sol\";\nimport \"./interface/ICoFiXV2VaultForTrader.sol\";\n\n// Reward Pool Controller for Liquidity Provider\ncontract CoFiXV2VaultForLP is ICoFiXVaultForLP, ReentrancyGuard {\n\n    using SafeMath for uint256;\n\n    uint256 public constant RATE_BASE = 1e18;\n    uint256 public constant WEIGHT_BASE = 100;\n\n    address public immutable cofiToken;\n    address public immutable factory;\n\n    uint256 public genesisBlock;\n\n    // managed by governance\n    address public governance;\n\n    uint256 public initCoFiRate = 4.5*1e18; // yield per block  5*1e18 - 5*1e18/10\n    uint256 public decayPeriod = 2400000; // yield decays for every 2,400,000 blocks\n    uint256 public decayRate = 80;\n\n    address[] public allPools; // add every pool addr to record, make it easier to track\n\n    uint256 public enabledCnt;\n\n    struct PoolInfo {\n        POOL_STATE state;\n        uint256 weight;\n    }\n\n    mapping (address => PoolInfo) public poolInfo; // pool -> poolInfo\n\n    mapping (address => address) public pairToStakingPool; // pair -> staking pool\n\n    modifier onlyGovernance() {\n        require(msg.sender == governance, \"CVaultForLP: !governance\");\n        _;\n    }\n\n    constructor(address cofi, address _factory) public {\n        cofiToken = cofi;\n        factory = _factory;\n        governance = msg.sender;\n        genesisBlock = block.number; // set v1 genesisBlock to genesisBlock later\n    }\n\n    // this is for mainnet\n    function setGenesisBlock() external {\n        genesisBlock = 11040688; // follow v1 \n    }\n\n    /* setters for protocol governance */\n    function setGovernance(address _new) external override onlyGovernance {\n        governance = _new;\n    }\n\n    function setInitCoFiRate(uint256 _new) external override onlyGovernance {\n        initCoFiRate = _new;\n    }\n\n    function setDecayPeriod(uint256 _new) external override onlyGovernance {\n        require(_new != 0, \"CVaultForLP: wrong period setting\");\n        decayPeriod = _new;\n    }\n\n    function setDecayRate(uint256 _new) external override onlyGovernance {\n        decayRate = _new;\n    }\n\n    function addPool(address pool) external override onlyGovernance {\n        require(poolInfo[pool].state == POOL_STATE.INVALID, \"CVaultForLP: pool added\"); // INVALID -> ENABLED\n        require(pool != address(0), \"CVaultForTrader: invalid pool\");\n        poolInfo[pool].state = POOL_STATE.ENABLED;\n        // default rate is zero, to ensure safety\n        enabledCnt = enabledCnt.add(1);\n        // set pair to reward pool map\n        address pair = ICoFiXStakingRewards(pool).stakingToken();\n        require(pairToStakingPool[pair] == address(0), \"CVaultForLP: pair added\");\n        pairToStakingPool[pair] = pool; // staking token is CoFiXPair (XToken)\n        allPools.push(pool); // add once never delete, using for track\n        emit NewPoolAdded(pool, allPools.length);\n    }\n\n    function enablePool(address pool) external override onlyGovernance {\n        require(poolInfo[pool].state == POOL_STATE.DISABLED, \"CVaultForLP: pool not disabled\"); // DISABLED -> ENABLED\n        require(pool != address(0), \"CVaultForTrader: invalid pool\");\n        poolInfo[pool].state = POOL_STATE.ENABLED;\n        enabledCnt = enabledCnt.add(1);\n        // set pair to reward pool map\n        address pair = ICoFiXStakingRewards(pool).stakingToken();\n        require(pairToStakingPool[pair] == address(0), \"CVaultForLP: pair added\");\n        pairToStakingPool[pair] = pool; // staking token is CoFiXPair (XToken)\n        emit PoolEnabled(pool);\n    }\n\n    function disablePool(address pool) external override onlyGovernance {\n        require(poolInfo[pool].state == POOL_STATE.ENABLED, \"CVaultForLP: pool not enabled\"); // ENABLED -> DISABLED\n        require(pool != address(0), \"CVaultForTrader: invalid pool\");\n        poolInfo[pool].state = POOL_STATE.DISABLED;\n        poolInfo[pool].weight = 0; // set pool weight to zero;\n        enabledCnt = enabledCnt.sub(1);\n        address pair = ICoFiXStakingRewards(pool).stakingToken();\n        pairToStakingPool[pair] = address(0); // set pair mapping to zero\n        emit PoolDisabled(pool);\n    }\n\n    function setPoolWeight(address pool, uint256 weight) public override onlyGovernance {\n        require(weight <= WEIGHT_BASE, \"CVaultForLP: invalid weight\");\n        require(pool != address(0), \"CVaultForTrader: invalid pool\");\n        require(poolInfo[pool].state == POOL_STATE.ENABLED, \"CVaultForLP: pool not enabled\"); // only set weight if pool is enabled\n        poolInfo[pool].weight = weight;\n    }\n\n    function batchSetPoolWeight(address[] memory pools, uint256[] memory weights) external override onlyGovernance {\n        uint256 cnt = pools.length;\n        require(cnt == weights.length, \"CVaultForLP: mismatch len\");\n        for (uint256 i = 0; i < cnt; i++) {\n            require(pools[i] != address(0), \"CVaultForTrader: invalid pool\");\n            require(weights[i] <= WEIGHT_BASE, \"CVaultForLP: invalid weight\");\n            require(poolInfo[pools[i]].state == POOL_STATE.ENABLED, \"CVaultForLP: pool not enabled\"); // only set weight if pool is enabled\n            poolInfo[pools[i]].weight = weights[i];\n        }\n        // governance should ensure total weights equal to WEIGHT_BASE\n    }\n    \n    function getPendingRewardOfLP(address pair) external override view returns (uint256) {\n        POOL_STATE poolState = poolInfo[msg.sender].state;\n        if (poolState == POOL_STATE.INVALID || poolState == POOL_STATE.DISABLED) {\n            return 0; // if pool is disabled, it can't mint by call distributeReward, so don't count on any reward for it\n        }\n        // if poolState is enabled, then go on\n        address vaultForTrader = ICoFiXV2Factory(factory).getVaultForTrader();\n        if (vaultForTrader == address(0)) {\n            return 0; // vaultForTrader is not set yet\n        }\n        uint256 pending = ICoFiXV2VaultForTrader(vaultForTrader).getPendingRewardOfLP(pair);\n        return pending;\n    }\n\n    function distributeReward(address to, uint256 amount) external override nonReentrant {\n        POOL_STATE poolState = poolInfo[msg.sender].state;\n        require(poolState != POOL_STATE.INVALID, \"CVaultForLP: only pool valid\");\n        if (poolState == POOL_STATE.DISABLED) {\n            return; // make sure tx would revert because user still want to withdraw and getReward\n        }\n        require(to != address(0), \"CVaultForTrader: invalid to\");\n        // if poolState is enabled, then go on. caution: be careful when adding new pool\n        address vaultForTrader = ICoFiXV2Factory(factory).getVaultForTrader();\n        if (vaultForTrader != address(0)) { // if equal, means vaultForTrader is not set yet\n            address pair = ICoFiXStakingRewards(msg.sender).stakingToken();\n            require(pair != address(0), \"CVaultForTrader: invalid pair\");\n            uint256 pending = ICoFiXV2VaultForTrader(vaultForTrader).getPendingRewardOfLP(pair);\n            if (pending > 0) {\n                ICoFiXV2VaultForTrader(vaultForTrader).clearPendingRewardOfLP(pair);\n            }\n        }\n        ICoFiToken(cofiToken).mint(to, amount); // allows zero\n    }\n\n    function currentPeriod() public override view returns (uint256) {\n        return (block.number).sub(genesisBlock).div(decayPeriod);\n    }\n\n    function currentCoFiRate() public override view returns (uint256) {\n        uint256 periodIdx = currentPeriod();\n        if (periodIdx > 4) {\n            periodIdx = 4; // after 5 years, the rate keep constant\n        }\n        uint256 cofiRate = initCoFiRate;\n        uint256 _decayRate = decayRate;\n        for (uint256 i = 0; i < periodIdx; i++) {\n            cofiRate = cofiRate.mul(_decayRate).div(100);\n        }\n        return cofiRate;\n    }\n\n    function currentPoolRate(address pool) public override view returns (uint256 poolRate) {\n        uint256 cnt = enabledCnt;\n        if (cnt == 0) {\n            return 0;\n        }\n        uint256 cofiRate = currentCoFiRate();\n        uint256 weight = poolInfo[pool].weight;\n        poolRate = cofiRate.mul(weight).div(WEIGHT_BASE);\n        return poolRate;\n    }\n\n    function currentPoolRateByPair(address pair) external override view returns (uint256 poolRate) {\n        address pool = pairToStakingPool[pair];\n        poolRate = currentPoolRate(pool);\n        return poolRate;\n    }\n\n    function stakingPoolForPair(address pair) external override view returns (address pool) {\n        return pairToStakingPool[pair];\n    }\n\n    function getPoolInfo(address pool) public override view returns (POOL_STATE state, uint256 weight) {\n        state = poolInfo[pool].state;\n        weight = poolInfo[pool].weight;\n        return (state, weight);\n    }\n\n    function getPoolInfoByPair(address pair) external override view returns (POOL_STATE state, uint256 weight) {\n        address pool = pairToStakingPool[pair];\n        return getPoolInfo(pool);\n    }\n\n    // pools in enabled state\n    function getEnabledPoolCnt() external override view returns (uint256) {\n        return enabledCnt;\n    }\n\n    function getCoFiStakingPool() external override view returns (address pool) {\n        return ICoFiXV2Factory(factory).getFeeReceiver();\n    }\n\n}",
  "sourcePath": "/Users/lixiansheng/Downloads/CoFix/contracts/CoFiXV2VaultForLP.sol",
  "compiler": {
    "name": "solc",
    "version": "0.6.12+commit.27d51765.Emscripten.clang"
  },
  "schemaVersion": "3.3.3",
  "updatedAt": "2021-05-11T03:51:12.954Z",
  "networkType": "ethereum",
  "devdoc": {
    "kind": "dev",
    "methods": {
      "stakingPoolForPair(address)": {
        "details": "Get the award staking pool address of pair (XToken)",
        "params": {
          "pair": "The address of XToken(pair) contract"
        },
        "returns": {
          "pool": "The pool address"
        }
      }
    },
    "version": 1
  },
  "userdoc": {
    "kind": "user",
    "methods": {},
    "version": 1
  }
}