{
  "contractName": "CoFiXVaultForTrader",
  "abi": [
    {
      "inputs": [
        {
          "internalType": "address",
          "name": "cofi",
          "type": "address"
        },
        {
          "internalType": "address",
          "name": "_factory",
          "type": "address"
        }
      ],
      "stateMutability": "nonpayable",
      "type": "constructor"
    },
    {
      "anonymous": false,
      "inputs": [
        {
          "indexed": false,
          "internalType": "uint256",
          "name": "pendingAmount",
          "type": "uint256"
        }
      ],
      "name": "ClearPendingRewardOfCNode",
      "type": "event"
    },
    {
      "anonymous": false,
      "inputs": [
        {
          "indexed": false,
          "internalType": "uint256",
          "name": "pendingAmount",
          "type": "uint256"
        }
      ],
      "name": "ClearPendingRewardOfLP",
      "type": "event"
    },
    {
      "anonymous": false,
      "inputs": [
        {
          "indexed": false,
          "internalType": "address",
          "name": "router",
          "type": "address"
        }
      ],
      "name": "RouterAllowed",
      "type": "event"
    },
    {
      "anonymous": false,
      "inputs": [
        {
          "indexed": false,
          "internalType": "address",
          "name": "router",
          "type": "address"
        }
      ],
      "name": "RouterDisallowed",
      "type": "event"
    },
    {
      "inputs": [],
      "name": "COFI_DECAY_PERIOD",
      "outputs": [
        {
          "internalType": "uint256",
          "name": "",
          "type": "uint256"
        }
      ],
      "stateMutability": "view",
      "type": "function",
      "constant": true
    },
    {
      "inputs": [],
      "name": "COFI_RATE_UPDATE_INTERVAL",
      "outputs": [
        {
          "internalType": "uint256",
          "name": "",
          "type": "uint256"
        }
      ],
      "stateMutability": "view",
      "type": "function",
      "constant": true
    },
    {
      "inputs": [],
      "name": "EXPECT_YIELD_BASE",
      "outputs": [
        {
          "internalType": "uint256",
          "name": "",
          "type": "uint256"
        }
      ],
      "stateMutability": "view",
      "type": "function",
      "constant": true
    },
    {
      "inputs": [],
      "name": "EXPECT_YIELD_RATIO",
      "outputs": [
        {
          "internalType": "uint256",
          "name": "",
          "type": "uint256"
        }
      ],
      "stateMutability": "view",
      "type": "function",
      "constant": true
    },
    {
      "inputs": [],
      "name": "LAMBDA_BASE",
      "outputs": [
        {
          "internalType": "uint256",
          "name": "",
          "type": "uint256"
        }
      ],
      "stateMutability": "view",
      "type": "function",
      "constant": true
    },
    {
      "inputs": [],
      "name": "L_BASE",
      "outputs": [
        {
          "internalType": "uint256",
          "name": "",
          "type": "uint256"
        }
      ],
      "stateMutability": "view",
      "type": "function",
      "constant": true
    },
    {
      "inputs": [],
      "name": "L_LIMIT",
      "outputs": [
        {
          "internalType": "uint256",
          "name": "",
          "type": "uint256"
        }
      ],
      "stateMutability": "view",
      "type": "function",
      "constant": true
    },
    {
      "inputs": [],
      "name": "L_RATIO",
      "outputs": [
        {
          "internalType": "uint256",
          "name": "",
          "type": "uint256"
        }
      ],
      "stateMutability": "view",
      "type": "function",
      "constant": true
    },
    {
      "inputs": [],
      "name": "NAVPS_BASE",
      "outputs": [
        {
          "internalType": "uint256",
          "name": "",
          "type": "uint256"
        }
      ],
      "stateMutability": "view",
      "type": "function",
      "constant": true
    },
    {
      "inputs": [],
      "name": "RATE_BASE",
      "outputs": [
        {
          "internalType": "uint256",
          "name": "",
          "type": "uint256"
        }
      ],
      "stateMutability": "view",
      "type": "function",
      "constant": true
    },
    {
      "inputs": [],
      "name": "RECENT_RANGE",
      "outputs": [
        {
          "internalType": "uint256",
          "name": "",
          "type": "uint256"
        }
      ],
      "stateMutability": "view",
      "type": "function",
      "constant": true
    },
    {
      "inputs": [],
      "name": "SHARE_BASE",
      "outputs": [
        {
          "internalType": "uint256",
          "name": "",
          "type": "uint256"
        }
      ],
      "stateMutability": "view",
      "type": "function",
      "constant": true
    },
    {
      "inputs": [],
      "name": "SHARE_FOR_CNODE",
      "outputs": [
        {
          "internalType": "uint256",
          "name": "",
          "type": "uint256"
        }
      ],
      "stateMutability": "view",
      "type": "function",
      "constant": true
    },
    {
      "inputs": [],
      "name": "SHARE_FOR_LP",
      "outputs": [
        {
          "internalType": "uint256",
          "name": "",
          "type": "uint256"
        }
      ],
      "stateMutability": "view",
      "type": "function",
      "constant": true
    },
    {
      "inputs": [],
      "name": "SHARE_FOR_TRADER",
      "outputs": [
        {
          "internalType": "uint256",
          "name": "",
          "type": "uint256"
        }
      ],
      "stateMutability": "view",
      "type": "function",
      "constant": true
    },
    {
      "inputs": [],
      "name": "THETA",
      "outputs": [
        {
          "internalType": "uint256",
          "name": "",
          "type": "uint256"
        }
      ],
      "stateMutability": "view",
      "type": "function",
      "constant": true
    },
    {
      "inputs": [],
      "name": "THETA_BASE",
      "outputs": [
        {
          "internalType": "uint256",
          "name": "",
          "type": "uint256"
        }
      ],
      "stateMutability": "view",
      "type": "function",
      "constant": true
    },
    {
      "inputs": [],
      "name": "THETA_FEE_UINIT",
      "outputs": [
        {
          "internalType": "uint256",
          "name": "",
          "type": "uint256"
        }
      ],
      "stateMutability": "view",
      "type": "function",
      "constant": true
    },
    {
      "inputs": [],
      "name": "cofiToken",
      "outputs": [
        {
          "internalType": "address",
          "name": "",
          "type": "address"
        }
      ],
      "stateMutability": "view",
      "type": "function",
      "constant": true
    },
    {
      "inputs": [],
      "name": "factory",
      "outputs": [
        {
          "internalType": "address",
          "name": "",
          "type": "address"
        }
      ],
      "stateMutability": "view",
      "type": "function",
      "constant": true
    },
    {
      "inputs": [],
      "name": "governance",
      "outputs": [
        {
          "internalType": "address",
          "name": "",
          "type": "address"
        }
      ],
      "stateMutability": "view",
      "type": "function",
      "constant": true
    },
    {
      "inputs": [],
      "name": "lastDensity",
      "outputs": [
        {
          "internalType": "uint128",
          "name": "",
          "type": "uint128"
        }
      ],
      "stateMutability": "view",
      "type": "function",
      "constant": true
    },
    {
      "inputs": [],
      "name": "lastMinedBlock",
      "outputs": [
        {
          "internalType": "uint128",
          "name": "",
          "type": "uint128"
        }
      ],
      "stateMutability": "view",
      "type": "function",
      "constant": true
    },
    {
      "inputs": [],
      "name": "pendingRewardsForCNode",
      "outputs": [
        {
          "internalType": "uint256",
          "name": "",
          "type": "uint256"
        }
      ],
      "stateMutability": "view",
      "type": "function",
      "constant": true
    },
    {
      "inputs": [
        {
          "internalType": "address",
          "name": "",
          "type": "address"
        }
      ],
      "name": "pendingRewardsForLP",
      "outputs": [
        {
          "internalType": "uint256",
          "name": "",
          "type": "uint256"
        }
      ],
      "stateMutability": "view",
      "type": "function",
      "constant": true
    },
    {
      "inputs": [
        {
          "internalType": "address",
          "name": "",
          "type": "address"
        }
      ],
      "name": "routerAllowed",
      "outputs": [
        {
          "internalType": "bool",
          "name": "",
          "type": "bool"
        }
      ],
      "stateMutability": "view",
      "type": "function",
      "constant": true
    },
    {
      "inputs": [
        {
          "internalType": "address",
          "name": "_new",
          "type": "address"
        }
      ],
      "name": "setGovernance",
      "outputs": [],
      "stateMutability": "nonpayable",
      "type": "function"
    },
    {
      "inputs": [
        {
          "internalType": "uint256",
          "name": "r",
          "type": "uint256"
        }
      ],
      "name": "setExpectedYieldRatio",
      "outputs": [],
      "stateMutability": "nonpayable",
      "type": "function"
    },
    {
      "inputs": [
        {
          "internalType": "uint256",
          "name": "lRatio",
          "type": "uint256"
        }
      ],
      "name": "setLRatio",
      "outputs": [],
      "stateMutability": "nonpayable",
      "type": "function"
    },
    {
      "inputs": [
        {
          "internalType": "uint256",
          "name": "theta",
          "type": "uint256"
        }
      ],
      "name": "setTheta",
      "outputs": [],
      "stateMutability": "nonpayable",
      "type": "function"
    },
    {
      "inputs": [
        {
          "internalType": "address",
          "name": "router",
          "type": "address"
        }
      ],
      "name": "allowRouter",
      "outputs": [],
      "stateMutability": "nonpayable",
      "type": "function"
    },
    {
      "inputs": [
        {
          "internalType": "address",
          "name": "router",
          "type": "address"
        }
      ],
      "name": "disallowRouter",
      "outputs": [],
      "stateMutability": "nonpayable",
      "type": "function"
    },
    {
      "inputs": [
        {
          "internalType": "uint256",
          "name": "bt_phi",
          "type": "uint256"
        },
        {
          "internalType": "uint256",
          "name": "xt",
          "type": "uint256"
        },
        {
          "internalType": "uint256",
          "name": "np",
          "type": "uint256"
        }
      ],
      "name": "calcCoFiRate",
      "outputs": [
        {
          "internalType": "uint256",
          "name": "at",
          "type": "uint256"
        }
      ],
      "stateMutability": "view",
      "type": "function",
      "constant": true
    },
    {
      "inputs": [
        {
          "internalType": "address",
          "name": "pair",
          "type": "address"
        },
        {
          "internalType": "uint256",
          "name": "np",
          "type": "uint256"
        }
      ],
      "name": "currentCoFiRate",
      "outputs": [
        {
          "internalType": "uint256",
          "name": "",
          "type": "uint256"
        }
      ],
      "stateMutability": "view",
      "type": "function",
      "constant": true
    },
    {
      "inputs": [
        {
          "internalType": "address",
          "name": "pair",
          "type": "address"
        },
        {
          "internalType": "uint256",
          "name": "np",
          "type": "uint256"
        },
        {
          "internalType": "uint256",
          "name": "cofiRate",
          "type": "uint256"
        }
      ],
      "name": "currentThreshold",
      "outputs": [
        {
          "internalType": "uint256",
          "name": "",
          "type": "uint256"
        }
      ],
      "stateMutability": "view",
      "type": "function",
      "constant": true
    },
    {
      "inputs": [
        {
          "internalType": "address",
          "name": "pair",
          "type": "address"
        },
        {
          "internalType": "uint256",
          "name": "np",
          "type": "uint256"
        },
        {
          "internalType": "uint256",
          "name": "thetaFee",
          "type": "uint256"
        }
      ],
      "name": "stdMiningRateAndAmount",
      "outputs": [
        {
          "internalType": "uint256",
          "name": "cofiRate",
          "type": "uint256"
        },
        {
          "internalType": "uint256",
          "name": "stdAmount",
          "type": "uint256"
        }
      ],
      "stateMutability": "view",
      "type": "function",
      "constant": true
    },
    {
      "inputs": [
        {
          "internalType": "uint256",
          "name": "_stdAmount",
          "type": "uint256"
        }
      ],
      "name": "calcDensity",
      "outputs": [
        {
          "internalType": "uint256",
          "name": "",
          "type": "uint256"
        }
      ],
      "stateMutability": "view",
      "type": "function",
      "constant": true
    },
    {
      "inputs": [
        {
          "internalType": "uint256",
          "name": "x",
          "type": "uint256"
        },
        {
          "internalType": "uint256",
          "name": "y",
          "type": "uint256"
        }
      ],
      "name": "calcLambda",
      "outputs": [
        {
          "internalType": "uint256",
          "name": "",
          "type": "uint256"
        }
      ],
      "stateMutability": "pure",
      "type": "function",
      "constant": true
    },
    {
      "inputs": [
        {
          "internalType": "address",
          "name": "pair",
          "type": "address"
        },
        {
          "internalType": "uint256",
          "name": "thetaFee",
          "type": "uint256"
        },
        {
          "internalType": "uint256",
          "name": "x",
          "type": "uint256"
        },
        {
          "internalType": "uint256",
          "name": "y",
          "type": "uint256"
        },
        {
          "internalType": "uint256",
          "name": "np",
          "type": "uint256"
        }
      ],
      "name": "actualMiningAmountAndDensity",
      "outputs": [
        {
          "internalType": "uint256",
          "name": "amount",
          "type": "uint256"
        },
        {
          "internalType": "uint256",
          "name": "density",
          "type": "uint256"
        },
        {
          "internalType": "uint256",
          "name": "cofiRate",
          "type": "uint256"
        }
      ],
      "stateMutability": "view",
      "type": "function",
      "constant": true
    },
    {
      "inputs": [
        {
          "internalType": "address",
          "name": "pair",
          "type": "address"
        },
        {
          "internalType": "uint256",
          "name": "thetaFee",
          "type": "uint256"
        },
        {
          "internalType": "uint256",
          "name": "x",
          "type": "uint256"
        },
        {
          "internalType": "uint256",
          "name": "y",
          "type": "uint256"
        },
        {
          "internalType": "uint256",
          "name": "np",
          "type": "uint256"
        },
        {
          "internalType": "address",
          "name": "rewardTo",
          "type": "address"
        }
      ],
      "name": "distributeReward",
      "outputs": [],
      "stateMutability": "nonpayable",
      "type": "function"
    },
    {
      "inputs": [],
      "name": "clearPendingRewardOfCNode",
      "outputs": [],
      "stateMutability": "nonpayable",
      "type": "function"
    },
    {
      "inputs": [
        {
          "internalType": "address",
          "name": "pair",
          "type": "address"
        }
      ],
      "name": "clearPendingRewardOfLP",
      "outputs": [],
      "stateMutability": "nonpayable",
      "type": "function"
    },
    {
      "inputs": [],
      "name": "getPendingRewardOfCNode",
      "outputs": [
        {
          "internalType": "uint256",
          "name": "",
          "type": "uint256"
        }
      ],
      "stateMutability": "view",
      "type": "function",
      "constant": true
    },
    {
      "inputs": [
        {
          "internalType": "address",
          "name": "pair",
          "type": "address"
        }
      ],
      "name": "getPendingRewardOfLP",
      "outputs": [
        {
          "internalType": "uint256",
          "name": "",
          "type": "uint256"
        }
      ],
      "stateMutability": "view",
      "type": "function",
      "constant": true
    },
    {
      "inputs": [
        {
          "internalType": "address",
          "name": "pair",
          "type": "address"
        }
      ],
      "name": "getCoFiRateCache",
      "outputs": [
        {
          "internalType": "uint256",
          "name": "cofiRate",
          "type": "uint256"
        },
        {
          "internalType": "uint256",
          "name": "updatedBlock",
          "type": "uint256"
        }
      ],
      "stateMutability": "view",
      "type": "function",
      "constant": true
    }
  ],
  "bytecode": "0x60c060405260036002556002600355600260045534801561001f57600080fd5b50604051611d37380380611d378339818101604052604081101561004257600080fd5b508051602090910151600160008190556001600160601b0319606093841b81166080529190921b1660a05280546001600160a01b0319163317905560805160601c60a05160601c611c7d6100ba6000398061099652806111bd52806116f85280611809525080610b745280610eae5250611c7d6000f3fe608060405234801561001057600080fd5b50600436106102fe5760003560e01c80636ce137931161019c578063aaf07e92116100ee578063e6cacc6d11610097578063fa3ad57711610071578063fa3ad5771461038f578063fb7d702c14610711578063fc22290b14610737576102fe565b8063e6cacc6d146106bd578063f05b820c146106e3578063fa1fd0fb146106eb576102fe565b8063ba30ba24116100c8578063ba30ba24146106a5578063c45a0155146106ad578063d1f933d2146106b5576102fe565b8063aaf07e921461039f578063ab033ea914610677578063b7fbf9301461069d576102fe565b806382bb3a611161015057806390f5191c1161012a57806390f5191c1461039f578063a66771db14610649578063aa6c43a81461066f576102fe565b806382bb3a611461038f5780638904306a14610626578063898675c914610375576102fe565b806372d090bf1161018157806372d090bf1461058c57806375f1bd75146105be5780637fbb2fee146105db576102fe565b80636ce13793146105045780636ec406a014610560576102fe565b806342967b20116102555780635aa6e675116102095780635f5456c2116101e35780635f5456c2146104be5780636a71f658146104db5780636bac976c14610397576102fe565b80635aa6e6751461044c5780635d941dd5146104705780635e3ddd6914610478576102fe565b80634c4eee701161023a5780634c4eee701461043c5780634d01e650146104445780634f6ec2dd14610375576102fe565b806342967b201461042c5780634a0770d514610434576102fe565b80631d80685d116102b757806338e351021161029157806338e35102146103af5780633d1b7dcc146103e95780633eb02c931461040f576102fe565b80631d80685d1461039757806321ad39d11461039f578063317323bc146103a7576102fe565b806305de2429116102e857806305de24291461034f5780630873c6ec1461037557806313123f231461038f576102fe565b8062f1fca71461030357806304fcd5e214610330575b600080fd5b61030b61073f565b604080516fffffffffffffffffffffffffffffffff9092168252519081900360200190f35b61034d6004803603602081101561034657600080fd5b503561076b565b005b61034d6004803603602081101561036557600080fd5b50356001600160a01b03166107cf565b61037d6108fb565b60408051918252519081900360200190f35b61037d610907565b61037d61090c565b61037d610911565b61037d610917565b6103d5600480360360208110156103c557600080fd5b50356001600160a01b031661091d565b604080519115158252519081900360200190f35b61034d600480360360208110156103ff57600080fd5b50356001600160a01b0316610932565b61034d6004803603602081101561042557600080fd5b5035610ae7565b61037d610b4b565b61037d610b50565b61037d610b56565b61037d610b5d565b610454610b63565b604080516001600160a01b039092168252519081900360200190f35b610454610b72565b61034d600480360360c081101561048e57600080fd5b506001600160a01b03813581169160208101359160408201359160608101359160808201359160a0013516610b96565b61034d600480360360208110156104d457600080fd5b5035610f98565b61037d600480360360608110156104f157600080fd5b5080359060208101359060400135610ffc565b610542600480360360a081101561051a57600080fd5b506001600160a01b03813516906020810135906040810135906060810135906080013561107f565b60408051938452602084019290925282820152519081900360600190f35b61037d6004803603604081101561057657600080fd5b506001600160a01b03813516906020013561112a565b61037d600480360360608110156105a257600080fd5b506001600160a01b0381351690602081013590604001356113a7565b61037d600480360360208110156105d457600080fd5b5035611484565b61060d600480360360608110156105f157600080fd5b506001600160a01b038135169060208101359060400135611514565b6040805192835260208301919091528051918290030190f35b61037d6004803603604081101561063c57600080fd5b5080359060200135611543565b61037d6004803603602081101561065f57600080fd5b50356001600160a01b03166115bb565b61037d6115d6565b61034d6004803603602081101561068d57600080fd5b50356001600160a01b03166115e3565b61030b61167c565b61034d611694565b610454611807565b61037d61182b565b61060d600480360360208110156106d357600080fd5b50356001600160a01b0316611831565b61037d611877565b61034d6004803603602081101561070157600080fd5b50356001600160a01b031661187d565b61037d6004803603602081101561072757600080fd5b50356001600160a01b03166119c3565b61037d6119d5565b60095470010000000000000000000000000000000090046fffffffffffffffffffffffffffffffff1681565b6001546001600160a01b031633146107ca576040805162461bcd60e51b815260206004820152601c60248201527f435661756c74466f725472616465723a2021676f7665726e616e636500000000604482015290519081900360640190fd5b600355565b6001546001600160a01b0316331461082e576040805162461bcd60e51b815260206004820152601c60248201527f435661756c74466f725472616465723a2021676f7665726e616e636500000000604482015290519081900360640190fd5b6001600160a01b03811660009081526008602052604090205460ff166108855760405162461bcd60e51b8152600401808060200182810382526022815260200180611bc16022913960400191505060405180910390fd5b6001600160a01b03811660008181526008602090815260409182902080547fffffffffffffffffffffffffffffffffffffffffffffffffffffffffffffff00169055815192835290517fde1162637b8da52aa9fd8ebc5eb8b20024620440530f42f56320557e4111d0179281900390910190a150565b670de0b6b3a764000081565b600a81565b606481565b6103e881565b60025481565b60086020526000908152604090205460ff1681565b6002600054141561098a576040805162461bcd60e51b815260206004820152601f60248201527f5265656e7472616e637947756172643a207265656e7472616e742063616c6c00604482015290519081900360640190fd5b600260008190555060007f00000000000000000000000000000000000000000000000000000000000000006001600160a01b031663d2d7f8166040518163ffffffff1660e01b815260040160206040518083038186803b1580156109ed57600080fd5b505afa158015610a01573d6000803e3d6000fd5b505050506040513d6020811015610a1757600080fd5b50519050336001600160a01b03821614610a78576040805162461bcd60e51b815260206004820181905260248201527f435661756c74466f725472616465723a206f6e6c79207661756c74466f724c50604482015290519081900360640190fd5b6001600160a01b03821660009081526007602090815260409182902054825190815291517f9109879a62f2b7f0305863647d96ee2f9768a72344b14c3d01f890b2c2f8ec779281900390910190a1506001600160a01b0316600090815260076020526040812081905560019055565b6001546001600160a01b03163314610b46576040805162461bcd60e51b815260206004820152601c60248201527f435661756c74466f725472616465723a2021676f7665726e616e636500000000604482015290519081900360640190fd5b600455565b605081565b61012c81565b62249f0081565b60055481565b6001546001600160a01b031681565b7f000000000000000000000000000000000000000000000000000000000000000081565b60026000541415610bee576040805162461bcd60e51b815260206004820152601f60248201527f5265656e7472616e637947756172643a207265656e7472616e742063616c6c00604482015290519081900360640190fd5b600260009081553381526008602052604090205460ff16610c405760405162461bcd60e51b8152600401808060200182810382526023815260200180611b9e6023913960400191505060405180910390fd5b6001600160a01b038616610c9b576040805162461bcd60e51b815260206004820152601d60248201527f435661756c74466f725472616465723a20696e76616c69642070616972000000604482015290519081900360640190fd5b6001600160a01b038116610ce05760405162461bcd60e51b8152600401808060200182810382526021815260200180611c276021913960400191505060405180910390fd5b6000806000610cf2898989898961107f565b919450925090507001000000000000000000000000000000008210610d485760405162461bcd60e51b8152600401808060200182810382526021815260200180611c066021913960400191505060405180910390fd5b60098054436fffffffffffffffffffffffffffffffff818116818716700100000000000000000000000000000000908102948316949094177fffffffffffffffffffffffffffffffff0000000000000000000000000000000016179093556001600160a01b038c1660009081526006602052604090205491909104909116906103e890610dd590836119db565b101580610df257506fffffffffffffffffffffffffffffffff8116155b15610e65576001600160a01b038a16600090815260066020526040902080547fffffffffffffffffffffffffffffffff000000000000000000000000000000006fffffffffffffffffffffffffffffffff9182167001000000000000000000000000000000004384160217169084161790555b5060009150610e8290506064610e7c846050611a38565b90611a98565b90506000610e966064610e7c85600a611a38565b90506000610eaa6064610e7c86600a611a38565b90507f00000000000000000000000000000000000000000000000000000000000000006001600160a01b03166340c10f1986856040518363ffffffff1660e01b815260040180836001600160a01b0316815260200182815260200192505050600060405180830381600087803b158015610f2357600080fd5b505af1158015610f37573d6000803e3d6000fd5b5050506001600160a01b038b16600090815260076020526040902054610f5e915083611aff565b6001600160a01b038b16600090815260076020526040902055600554610f849082611aff565b600555505060016000555050505050505050565b6001546001600160a01b03163314610ff7576040805162461bcd60e51b815260206004820152601c60248201527f435661756c74466f725472616465723a2021676f7665726e616e636500000000604482015290519081900360640190fd5b600255565b600080611015670de0b6b3a7640000610e7c8686611a38565b905069043c33c1937564800000811015611036575069043c33c19375648000005b600061105a600a611054670de0b6b3a7640000818a62249f00611a38565b90611a38565b905061107582610e7c60025484611a9890919063ffffffff16565b9695505050505050565b60008060008061109089868a611514565b909250905061109e81611484565b925060006110ac8888611543565b905060006110bb8b88866113a7565b90508085116110dd576110d36064610e7c8585611a38565b955050505061111f565b6000611105836110546110fb856110f58b6002611a38565b906119db565b6110548887611a38565b90506111186064610e7c88818582611a98565b9650505050505b955095509592505050565b6001600160a01b03821660009081526006602052604081205470010000000000000000000000000000000090046fffffffffffffffffffffffffffffffff166103e861117643836119db565b10801561118257508015155b156111b95750506001600160a01b0382166000908152600660205260409020546fffffffffffffffffffffffffffffffff166113a1565b60007f00000000000000000000000000000000000000000000000000000000000000006001600160a01b031663d2d7f8166040518163ffffffff1660e01b815260040160206040518083038186803b15801561121457600080fd5b505afa158015611228573d6000803e3d6000fd5b505050506040513d602081101561123e57600080fd5b505190506001600160a01b0381166112875760405162461bcd60e51b8152600401808060200182810382526023815260200180611be36023913960400191505060405180910390fd5b6000816001600160a01b031663e665cfe0876040518263ffffffff1660e01b815260040180826001600160a01b0316815260200191505060206040518083038186803b1580156112d657600080fd5b505afa1580156112ea573d6000803e3d6000fd5b505050506040513d602081101561130057600080fd5b5051604080517f18160ddd00000000000000000000000000000000000000000000000000000000815290519192506000916001600160a01b038916916318160ddd916004808301926020929190829003018186803b15801561136157600080fd5b505afa158015611375573d6000803e3d6000fd5b505050506040513d602081101561138b57600080fd5b5051905061139a828288610ffc565b9450505050505b92915050565b600080846001600160a01b03166318160ddd6040518163ffffffff1660e01b815260040160206040518083038186803b1580156113e357600080fd5b505afa1580156113f7573d6000803e3d6000fd5b505050506040513d602081101561140d57600080fd5b505160035490915060009061143a90670de0b6b3a764000090610e7c906103e8908290611054888c611a38565b905068056bc75e2d63100000811015611459575068056bc75e2d631000005b611075670de0b6b3a7640000610e7c6103e8610e7c6004546110548a88611a3890919063ffffffff16565b6009546000906fffffffffffffffffffffffffffffffff16816114a743836119db565b905061012c81106114bc57839250505061150f565b60095470010000000000000000000000000000000090046fffffffffffffffffffffffffffffffff166115098561150361012c610e7c6114fc82886119db565b8690611a38565b90611aff565b93505050505b919050565b600080611521858561112a565b9150611539670de0b6b3a7640000610e7c8585611a38565b9050935093915050565b6000808261155457506103e8611566565b61156383610e7c866064611a38565b90505b6103e881106115795760199150506113a1565b61012c811061158c5760329150506113a1565b6021811061159e5760649150506113a1565b600a81106115b05760c89150506113a1565b6101909150506113a1565b6001600160a01b031660009081526007602052604090205490565b68056bc75e2d6310000081565b6001546001600160a01b03163314611642576040805162461bcd60e51b815260206004820152601c60248201527f435661756c74466f725472616465723a2021676f7665726e616e636500000000604482015290519081900360640190fd5b600180547fffffffffffffffffffffffff0000000000000000000000000000000000000000166001600160a01b0392909216919091179055565b6009546fffffffffffffffffffffffffffffffff1681565b600260005414156116ec576040805162461bcd60e51b815260206004820152601f60248201527f5265656e7472616e637947756172643a207265656e7472616e742063616c6c00604482015290519081900360640190fd5b600260008190555060007f00000000000000000000000000000000000000000000000000000000000000006001600160a01b0316631dae76916040518163ffffffff1660e01b815260040160206040518083038186803b15801561174f57600080fd5b505afa158015611763573d6000803e3d6000fd5b505050506040513d602081101561177957600080fd5b50519050336001600160a01b038216146117c45760405162461bcd60e51b8152600401808060200182810382526023815260200180611b7b6023913960400191505060405180910390fd5b60055460408051918252517f1032e91fe6d576a72f9d9eab143b22ea116436d4f26f12d46e7332bfb758064a9181900360200190a1506000600581905560019055565b7f000000000000000000000000000000000000000000000000000000000000000081565b60035481565b6001600160a01b03166000908152600660205260409020546fffffffffffffffffffffffffffffffff808216927001000000000000000000000000000000009092041690565b60055490565b6001546001600160a01b031633146118dc576040805162461bcd60e51b815260206004820152601c60248201527f435661756c74466f725472616465723a2021676f7665726e616e636500000000604482015290519081900360640190fd5b6001600160a01b03811660009081526008602052604090205460ff161561194a576040805162461bcd60e51b815260206004820152601f60248201527f435661756c74466f725472616465723a20726f7574657220616c6c6f77656400604482015290519081900360640190fd5b6001600160a01b03811660008181526008602090815260409182902080547fffffffffffffffffffffffffffffffffffffffffffffffffffffffffffffff00166001179055815192835290517f6f8eaabfaab22f210f7ed4615279fc9d3bf0fe5695f2bbf88b1b55f641bd31579281900390910190a150565b60076020526000908152604090205481565b60045481565b600082821115611a32576040805162461bcd60e51b815260206004820152601e60248201527f536166654d6174683a207375627472616374696f6e206f766572666c6f770000604482015290519081900360640190fd5b50900390565b600082611a47575060006113a1565b82820282848281611a5457fe5b0414611a915760405162461bcd60e51b8152600401808060200182810382526021815260200180611b5a6021913960400191505060405180910390fd5b9392505050565b6000808211611aee576040805162461bcd60e51b815260206004820152601a60248201527f536166654d6174683a206469766973696f6e206279207a65726f000000000000604482015290519081900360640190fd5b818381611af757fe5b049392505050565b600082820183811015611a91576040805162461bcd60e51b815260206004820152601b60248201527f536166654d6174683a206164646974696f6e206f766572666c6f770000000000604482015290519081900360640190fdfe536166654d6174683a206d756c7469706c69636174696f6e206f766572666c6f77435661756c74466f725472616465723a206f6e6c79207661756c74466f72434e6f6465435661756c74466f725472616465723a206e6f7420616c6c6f77656420726f75746572435661756c74466f725472616465723a20726f7574657220646973616c6c6f776564435661756c74466f725472616465723a207661756c74466f724c50206e6f7420736574435661756c74466f725472616465723a2064656e73697479206f766572666c6f77435661756c74466f725472616465723a20696e76616c696420726577617264546fa2646970667358221220670757f6318801f9098eebfc41594afe3e27cf5e23e0c84ef181c88340e31eb964736f6c634300060c0033",
  "immutableReferences": {
    "25453": [
      {
        "length": 32,
        "start": 2932
      },
      {
        "length": 32,
        "start": 3758
      }
    ],
    "25455": [
      {
        "length": 32,
        "start": 2454
      },
      {
        "length": 32,
        "start": 4541
      },
      {
        "length": 32,
        "start": 5880
      },
      {
        "length": 32,
        "start": 6153
      }
    ]
  },
  "source": "// SPDX-License-Identifier: GPL-3.0-or-later\n\npragma solidity 0.6.12;\n\nimport \"@openzeppelin/contracts/math/SafeMath.sol\";\nimport \"./lib/ABDKMath64x64.sol\";\nimport \"@openzeppelin/contracts/token/ERC20/IERC20.sol\";\nimport \"./interface/ICoFiXVaultForTrader.sol\";\nimport \"./interface/ICoFiToken.sol\";\nimport \"@openzeppelin/contracts/utils/ReentrancyGuard.sol\";\nimport \"./interface/ICoFiXFactory.sol\";\nimport \"./interface/ICoFiXVaultForLP.sol\";\nimport \"./interface/ICoFiXStakingRewards.sol\";\nimport \"./interface/ICoFiXPair.sol\";\n\n// Reward Pool Controller for Trader\n// Trade to earn CoFi Token\ncontract CoFiXVaultForTrader is ICoFiXVaultForTrader, ReentrancyGuard {\n    using SafeMath for uint256;\n\n    struct CoFiRateCache {\n        uint128 cofiRate;\n        uint128 updatedBlock;\n    }\n\n    uint256 public constant RATE_BASE = 1e18;\n    uint256 public constant LAMBDA_BASE = 100;\n    uint256 public constant RECENT_RANGE = 300;\n\n    uint256 public constant SHARE_BASE = 100;\n    uint256 public constant SHARE_FOR_TRADER = 80;\n    uint256 public constant SHARE_FOR_LP = 10;\n    uint256 public constant SHARE_FOR_CNODE = 10;\n\n    uint256 public constant NAVPS_BASE = 1E18; // NAVPS (Net Asset Value Per Share), need accuracy\n\n    // make all of these constant, so we can reduce gas cost for swap features\n    uint256 public constant COFI_DECAY_PERIOD = 2400000; // LP pool yield decays for every 2,400,000 blocks\n    uint256 public constant THETA_FEE_UINIT = 1 ether;\n    uint256 public constant L_LIMIT = 100 ether;\n    uint256 public constant COFI_RATE_UPDATE_INTERVAL = 1000;\n\n    uint256 public constant EXPECT_YIELD_BASE = 10;\n    uint256 public constant L_BASE = 1000;\n    uint256 public constant THETA_BASE = 1000;\n\n    address public immutable cofiToken;\n    address public immutable factory;\n\n    // managed by governance\n    address public governance;\n    uint256 public EXPECT_YIELD_RATIO = 3; // r, 0.3\n    uint256 public L_RATIO = 2; // l, 0.002\n    uint256 public THETA = 2; // 0.002\n\n    uint256 public pendingRewardsForCNode;\n\n    mapping (address => CoFiRateCache) internal cofiRateCache;\n    mapping(address => uint256) public pendingRewardsForLP; // pair address to pending rewards amount\n    mapping (address => bool) public routerAllowed;\n\n    uint128 public lastMinedBlock; // last block mined cofi token\n    uint128 public lastDensity; // last mining density, see currentDensity()\n\n    modifier onlyGovernance() {\n        require(msg.sender == governance, \"CVaultForTrader: !governance\");\n        _;\n    }\n\n    constructor(address cofi, address _factory) public {\n        cofiToken = cofi;\n        factory = _factory;\n        governance = msg.sender;\n    }\n\n    /* setters for protocol governance */\n    function setGovernance(address _new) external override onlyGovernance {\n        governance = _new;\n    }\n\n    function setExpectedYieldRatio(uint256 r) external override onlyGovernance {\n        EXPECT_YIELD_RATIO = r;\n    }\n\n    function setLRatio(uint256 lRatio) external override onlyGovernance {\n        L_RATIO = lRatio;\n    }\n\n    function setTheta(uint256 theta) external override onlyGovernance {\n        THETA = theta;\n    }\n\n    function allowRouter(address router) external override onlyGovernance {\n        require(!routerAllowed[router], \"CVaultForTrader: router allowed\");\n        routerAllowed[router] = true;\n        emit RouterAllowed(router);\n    }\n\n    function disallowRouter(address router) external override onlyGovernance {\n        require(routerAllowed[router], \"CVaultForTrader: router disallowed\");\n        routerAllowed[router] = false;\n        emit RouterDisallowed(router);\n    }\n\n    function calcCoFiRate(uint256 bt_phi, uint256 xt, uint256 np) public override view returns (uint256 at) {\n        /*\n        at = (bt*phi)*2400000/(xt*np*0.3)\n        - at is CoFi yield per unit\n        - bt is the current CoFi rate of the specific XToken staking rewards pool\n        - xt is totalSupply of the specific XToken\n        - np is Net Asset Value Per Share for the specific XToken\n        - phi is the weight of the specific XToken staking rewards pool (x of 100)\n        - bt_phi is bt*phi, pool CoFi rate\n        e.g. (10*100/100) * 2400000 / (20000 * 1 * 0.3) = 4000\n        take decimal into account: (10*1e18 * 100/100) * 2400000 /( 20000*1e18 * 1e18/1e18 * 0.3 ) * 1e18 = 4000 * 1e18\n        */\n        uint256 tvl = xt.mul(np).div(NAVPS_BASE); // total locked value represent in ETH\n        if (tvl < 20000 ether) {\n            tvl = 20000 ether; // minimum total locked value requirement\n        }\n        uint256 numerator = bt_phi.mul(COFI_DECAY_PERIOD).mul(1e18).mul(EXPECT_YIELD_BASE);\n        at = numerator.div(EXPECT_YIELD_RATIO).div(tvl);\n    }\n\n    // np need price, must be a param passing in\n    function currentCoFiRate(address pair, uint256 np) public override view returns (uint256) {\n        // get np from router\n        // get bt*phi from CoFiXVaultForLP: poolRate\n        // get q from CoFiXVaultForLP: poolCnt\n        // get xt from XToken.totalSupply: totalSupply\n        uint256 updatedBlock = cofiRateCache[pair].updatedBlock;\n        if (block.number.sub(updatedBlock) < COFI_RATE_UPDATE_INTERVAL && updatedBlock != 0) {\n            return cofiRateCache[pair].cofiRate;\n        } \n        address vaultForLP = ICoFiXFactory(factory).getVaultForLP();\n        require(vaultForLP != address(0), \"CVaultForTrader: vaultForLP not set\");\n        uint256 poolRate = ICoFiXVaultForLP(vaultForLP).currentPoolRateByPair(pair);\n        uint256 totalSupply = ICoFiXPair(pair).totalSupply();\n        return calcCoFiRate(poolRate, totalSupply, np);\n    }\n\n    // th = L * theta * at\n    function currentThreshold(address pair, uint256 np, uint256 cofiRate) public override view returns (uint256) {\n        // L = xt * np * (2/1000)\n        // - xt is totalSupply of the specific XToken\n        // - np is Net Asset Value Per Share for the specific XToken\n        // could use cache here but would need one more sload\n        uint256 totalSupply = ICoFiXPair(pair).totalSupply(); // nt, introduce one more call here\n        uint256 L = totalSupply.mul(np).mul(L_RATIO).div(L_BASE).div(NAVPS_BASE); // L = xt*np*(2/1000)\n        // L*theta*at is (L * theta * cofiRate), theta is 0.002, mul(2).div(1000)\n        // we may have different theta for different pairs in the future, but just use the constant here for gas reason\n        if (L < L_LIMIT) { // minimum L\n            L = L_LIMIT; // 100 ether * 0.002 = 0.2 ether \n        }\n        return L.mul(cofiRate).mul(THETA).div(THETA_BASE).div(THETA_FEE_UINIT);\n    }\n\n    function stdMiningRateAndAmount(\n        address pair,\n        uint256 np,\n        uint256 thetaFee\n    ) public override view returns (\n        uint256 cofiRate,\n        uint256 stdAmount\n    ) {\n        // thetaFee / THETA_FEE_UINIT * currentCoFiRate\n        cofiRate = currentCoFiRate(pair, np);\n        stdAmount = thetaFee.mul(cofiRate).div(THETA_FEE_UINIT);\n        return (cofiRate, stdAmount);\n    }\n\n    // s >= 300: f_t = yt * at, (yt * at is stdMiningAmount)\n    // s < 300: f_t = f_{t-1} * (300 - s) / 300 + yt * at\n    function calcDensity(uint256 _stdAmount) public override view returns (uint256) {\n        uint256 _last = lastMinedBlock;\n        uint256 _offset = block.number.sub(_last);\n        if (_offset >= RECENT_RANGE) {\n            return _stdAmount;\n        } else {\n            uint256 _lastDensity = lastDensity;\n            return _lastDensity.mul(RECENT_RANGE.sub(_offset)).div(RECENT_RANGE).add(_stdAmount);\n        }\n    }\n\n    function calcLambda(uint256 x, uint256 y) public override pure returns (uint256) {\n        // (0.1 0.33 3 10) => (10 33 300 1000)\n        uint256 ratio;\n        if (y == 0) {\n            ratio = 1000;\n        } else {\n            ratio = x.mul(LAMBDA_BASE).div(y);\n        }\n        if (ratio >= 1000) { // x/y >= 10, lambda = 0.25\n            return 25;\n        } else if (ratio >= 300) { // 3 <= x/y < 10, lambda = 0.5\n            return 50;\n        } else if (ratio >= 33) { // 0.33 <= x/y < 3, lambda = 1\n            return 100;\n        } else if (ratio >= 10) { // 0.1 <= x/y < 0.33, lambda = 2\n            return 200;\n        } else { // x/y < 0.1, lambda = 4\n            return 400;\n        }\n    }\n\n    function actualMiningAmountAndDensity(\n        address pair,\n        uint256 thetaFee,\n        uint256 x,\n        uint256 y,\n        uint256 np\n    ) public override view returns (\n        uint256 amount,\n        uint256 density,\n        uint256 cofiRate\n    ) {\n        uint256 stdAmount;\n        (cofiRate, stdAmount) = stdMiningRateAndAmount(pair, np, thetaFee);\n        density = calcDensity(stdAmount); // ft\n        uint256 lambda = calcLambda(x, y);\n        uint256 th = currentThreshold(pair, np, cofiRate); // threshold of mining rewards amount, L*theta*at\n        if (density <= th) {\n            // ft<=k, yt*at * lambda, yt is thetaFee, at is cofiRate\n            return (stdAmount.mul(lambda).div(LAMBDA_BASE), density, cofiRate);\n        }\n        // ft>=k: yt*at * L*theta*at * (2ft - L*theta*at) * lambda / (ft*ft), yt*at is stdAmount, L*theta*at is threshold\n        uint256 numerator = stdAmount.mul(th).mul(density.mul(2).sub(th)).mul(lambda);\n        return (numerator.div(density).div(density).div(LAMBDA_BASE), density, cofiRate);\n    }\n\n    function distributeReward(\n        address pair,\n        uint256 thetaFee,\n        uint256 x,\n        uint256 y,\n        uint256 np,\n        address rewardTo\n    ) external override nonReentrant {\n        require(routerAllowed[msg.sender], \"CVaultForTrader: not allowed router\");  // caution: be careful when adding new router\n        require(pair != address(0), \"CVaultForTrader: invalid pair\");\n        require(rewardTo != address(0), \"CVaultForTrader: invalid rewardTo\");\n\n        uint256 amount;\n        {\n            uint256 density;\n            uint256 cofiRate;\n            (amount, density, cofiRate) = actualMiningAmountAndDensity(pair, thetaFee, x, y, np);\n\n            // gas saving, distributeReward is used in router::swap\n            require(density < 2**128, \"CVaultForTrader: density overflow\");\n            lastDensity = uint128(density); // safe convert from uint256 to uint128\n            lastMinedBlock = uint128(block.number); // uint128 is enough for block.number\n        \n            uint128 updatedBlock = cofiRateCache[pair].updatedBlock; // sigh, one more sload here\n            if (block.number.sub(updatedBlock) >= COFI_RATE_UPDATE_INTERVAL || updatedBlock == 0) {\n                cofiRateCache[pair].updatedBlock = uint128(block.number); // enough for block number\n                cofiRateCache[pair].cofiRate = uint128(cofiRate); // almost impossible to overflow\n            }\n        }\n\n        {\n            uint256 amountForTrader = amount.mul(SHARE_FOR_TRADER).div(SHARE_BASE);\n            uint256 amountForLP = amount.mul(SHARE_FOR_LP).div(SHARE_BASE);\n            uint256 amountForCNode = amount.mul(SHARE_FOR_CNODE).div(SHARE_BASE);\n\n            ICoFiToken(cofiToken).mint(rewardTo, amountForTrader); // allows zero, send to receiver directly, reduce gas cost\n            pendingRewardsForLP[pair] = pendingRewardsForLP[pair].add(amountForLP); // possible key: token or pair, we use pair here\n            pendingRewardsForCNode = pendingRewardsForCNode.add(amountForCNode);\n        }\n\n    }\n\n    function clearPendingRewardOfCNode() external override nonReentrant {\n        address vaultForCNode = ICoFiXFactory(factory).getVaultForCNode();\n        require(msg.sender == vaultForCNode, \"CVaultForTrader: only vaultForCNode\"); // caution\n        // uint256 pending = pendingRewardsForCNode;\n        emit ClearPendingRewardOfCNode(pendingRewardsForCNode);\n        pendingRewardsForCNode = 0; // take all, set to 0\n        // ICoFiToken(cofiToken).mint(msg.sender, pending); // no need to mint from here, we can mint directly in valult\n    }\n\n    // vaultForLP should ensure passing the correct pair address\n    function clearPendingRewardOfLP(address pair) external override nonReentrant {\n        address vaultForLP = ICoFiXFactory(factory).getVaultForLP();\n        require(msg.sender == vaultForLP, \"CVaultForTrader: only vaultForLP\"); // caution \n        emit ClearPendingRewardOfLP(pendingRewardsForLP[pair]);\n        pendingRewardsForLP[pair] = 0; // take all, set to 0\n        // ICoFiToken(cofiToken).mint(to, pending); // no need to mint from here, we can mint directly in valult\n    }\n\n    function getPendingRewardOfCNode() external override view returns (uint256) {\n        return pendingRewardsForCNode;\n    }\n\n    function getPendingRewardOfLP(address pair) external override view returns (uint256) {\n        return pendingRewardsForLP[pair];\n    }\n\n    function getCoFiRateCache(address pair) external override view returns (uint256 cofiRate, uint256 updatedBlock) {\n        return (cofiRateCache[pair].cofiRate, cofiRateCache[pair].updatedBlock);\n    }\n\n}",
  "sourcePath": "/Users/lixiansheng/Downloads/CoFix/contracts/CoFiXVaultForTrader.sol",
  "compiler": {
    "name": "solc",
    "version": "0.6.12+commit.27d51765.Emscripten.clang"
  },
  "schemaVersion": "3.3.3",
  "updatedAt": "2021-05-11T03:13:28.051Z",
  "networkType": "ethereum",
  "devdoc": {
    "kind": "dev",
    "methods": {},
    "version": 1
  },
  "userdoc": {
    "kind": "user",
    "methods": {},
    "version": 1
  }
}