{
  "contractName": "CoFiXVaultForCNode",
  "abi": [
    {
      "inputs": [
        {
          "internalType": "address",
          "name": "cofi",
          "type": "address"
        },
        {
          "internalType": "address",
          "name": "_factory",
          "type": "address"
        }
      ],
      "stateMutability": "nonpayable",
      "type": "constructor"
    },
    {
      "anonymous": false,
      "inputs": [
        {
          "indexed": false,
          "internalType": "address",
          "name": "_new",
          "type": "address"
        }
      ],
      "name": "NewCNodePool",
      "type": "event"
    },
    {
      "inputs": [],
      "name": "RATE_BASE",
      "outputs": [
        {
          "internalType": "uint256",
          "name": "",
          "type": "uint256"
        }
      ],
      "stateMutability": "view",
      "type": "function",
      "constant": true
    },
    {
      "inputs": [],
      "name": "cnodePool",
      "outputs": [
        {
          "internalType": "address",
          "name": "",
          "type": "address"
        }
      ],
      "stateMutability": "view",
      "type": "function",
      "constant": true
    },
    {
      "inputs": [],
      "name": "cofiToken",
      "outputs": [
        {
          "internalType": "address",
          "name": "",
          "type": "address"
        }
      ],
      "stateMutability": "view",
      "type": "function",
      "constant": true
    },
    {
      "inputs": [],
      "name": "decayPeriod",
      "outputs": [
        {
          "internalType": "uint256",
          "name": "",
          "type": "uint256"
        }
      ],
      "stateMutability": "view",
      "type": "function",
      "constant": true
    },
    {
      "inputs": [],
      "name": "decayRate",
      "outputs": [
        {
          "internalType": "uint256",
          "name": "",
          "type": "uint256"
        }
      ],
      "stateMutability": "view",
      "type": "function",
      "constant": true
    },
    {
      "inputs": [],
      "name": "factory",
      "outputs": [
        {
          "internalType": "address",
          "name": "",
          "type": "address"
        }
      ],
      "stateMutability": "view",
      "type": "function",
      "constant": true
    },
    {
      "inputs": [],
      "name": "genesisBlock",
      "outputs": [
        {
          "internalType": "uint256",
          "name": "",
          "type": "uint256"
        }
      ],
      "stateMutability": "view",
      "type": "function",
      "constant": true
    },
    {
      "inputs": [],
      "name": "governance",
      "outputs": [
        {
          "internalType": "address",
          "name": "",
          "type": "address"
        }
      ],
      "stateMutability": "view",
      "type": "function",
      "constant": true
    },
    {
      "inputs": [],
      "name": "initCoFiRate",
      "outputs": [
        {
          "internalType": "uint256",
          "name": "",
          "type": "uint256"
        }
      ],
      "stateMutability": "view",
      "type": "function",
      "constant": true
    },
    {
      "inputs": [
        {
          "internalType": "address",
          "name": "_new",
          "type": "address"
        }
      ],
      "name": "setGovernance",
      "outputs": [],
      "stateMutability": "nonpayable",
      "type": "function"
    },
    {
      "inputs": [
        {
          "internalType": "address",
          "name": "_new",
          "type": "address"
        }
      ],
      "name": "setCNodePool",
      "outputs": [],
      "stateMutability": "nonpayable",
      "type": "function"
    },
    {
      "inputs": [
        {
          "internalType": "uint256",
          "name": "_new",
          "type": "uint256"
        }
      ],
      "name": "setInitCoFiRate",
      "outputs": [],
      "stateMutability": "nonpayable",
      "type": "function"
    },
    {
      "inputs": [
        {
          "internalType": "uint256",
          "name": "_new",
          "type": "uint256"
        }
      ],
      "name": "setDecayPeriod",
      "outputs": [],
      "stateMutability": "nonpayable",
      "type": "function"
    },
    {
      "inputs": [
        {
          "internalType": "uint256",
          "name": "_new",
          "type": "uint256"
        }
      ],
      "name": "setDecayRate",
      "outputs": [],
      "stateMutability": "nonpayable",
      "type": "function"
    },
    {
      "inputs": [],
      "name": "getPendingRewardOfCNode",
      "outputs": [
        {
          "internalType": "uint256",
          "name": "",
          "type": "uint256"
        }
      ],
      "stateMutability": "view",
      "type": "function",
      "constant": true
    },
    {
      "inputs": [
        {
          "internalType": "address",
          "name": "to",
          "type": "address"
        },
        {
          "internalType": "uint256",
          "name": "amount",
          "type": "uint256"
        }
      ],
      "name": "distributeReward",
      "outputs": [],
      "stateMutability": "nonpayable",
      "type": "function"
    },
    {
      "inputs": [],
      "name": "currentPeriod",
      "outputs": [
        {
          "internalType": "uint256",
          "name": "",
          "type": "uint256"
        }
      ],
      "stateMutability": "view",
      "type": "function",
      "constant": true
    },
    {
      "inputs": [],
      "name": "currentCoFiRate",
      "outputs": [
        {
          "internalType": "uint256",
          "name": "",
          "type": "uint256"
        }
      ],
      "stateMutability": "view",
      "type": "function",
      "constant": true
    },
    {
      "inputs": [],
      "name": "getCoFiStakingPool",
      "outputs": [
        {
          "internalType": "address",
          "name": "pool",
          "type": "address"
        }
      ],
      "stateMutability": "view",
      "type": "function",
      "constant": true
    }
  ],
  "bytecode": "0x60e0604052670de0b6b3a764000060035562249f00600455605060055534801561002857600080fd5b50604051610ec8380380610ec88339818101604052604081101561004b57600080fd5b508051602090910151600160008190556001600160601b0319606093841b81166080529190921b1660a05280546001600160a01b031916331790554360c05260805160601c60a05160601c60c051610df36100d560003980610372528061084552508061055052806109b15280610ab95280610afc5250806106df52806108855250610df36000f3fe608060405234801561001057600080fd5b50600436106101515760003560e01c80635aa6e675116100cd578063af1734ac11610081578063c45a015511610066578063c45a0155146102d9578063e3bed9de146102e1578063f05b820c146102e957610151565b8063af1734ac146102b4578063b26acd7a146102bc57610151565b806379d5d863116100b257806379d5d86314610271578063a9c1f2f114610279578063ab033ea91461028157610151565b80635aa6e675146102385780635d941dd51461026957610151565b80631b87ce9311610124578063342f802b11610109578063342f802b1461020b57806348d67e1b146102285780634cdc9c631461023057610151565b80631b87ce931461019f5780631ec8bb8c146101d257610151565b806304e7e0b91461015657806306040618146101755780630873c6ec1461018f5780630c5890a014610197575b600080fd5b6101736004803603602081101561016c57600080fd5b50356102f1565b005b61017d610362565b60408051918252519081900360200190f35b61017d6103a2565b61017d6103ae565b610173600480360360208110156101b557600080fd5b503573ffffffffffffffffffffffffffffffffffffffff166103b4565b610173600480360360408110156101e857600080fd5b5073ffffffffffffffffffffffffffffffffffffffff8135169060200135610499565b6101736004803603602081101561022157600080fd5b5035610790565b61017d61083d565b61017d610843565b610240610867565b6040805173ffffffffffffffffffffffffffffffffffffffff9092168252519081900360200190f35b610240610883565b61017d6108a7565b61017d6108f4565b6101736004803603602081101561029757600080fd5b503573ffffffffffffffffffffffffffffffffffffffff166108fa565b6102406109ad565b610173600480360360208110156102d257600080fd5b5035610a46565b610240610ab7565b610240610adb565b61017d610af7565b60015473ffffffffffffffffffffffffffffffffffffffff16331461035d576040805162461bcd60e51b815260206004820152601b60248201527f435661756c74466f72434e6f64653a2021676f7665726e616e63650000000000604482015290519081900360640190fd5b600555565b60045460009061039c90610396437f0000000000000000000000000000000000000000000000000000000000000000610c2e565b90610c90565b90505b90565b670de0b6b3a764000081565b60035481565b60015473ffffffffffffffffffffffffffffffffffffffff163314610420576040805162461bcd60e51b815260206004820152601b60248201527f435661756c74466f72434e6f64653a2021676f7665726e616e63650000000000604482015290519081900360640190fd5b6002805473ffffffffffffffffffffffffffffffffffffffff83167fffffffffffffffffffffffff0000000000000000000000000000000000000000909116811790915560408051918252517f0f1b318fa687c185963d41cab663189de53d6821932a33d01f2c5cf7c68582479181900360200190a150565b600260005414156104f1576040805162461bcd60e51b815260206004820152601f60248201527f5265656e7472616e637947756172643a207265656e7472616e742063616c6c00604482015290519081900360640190fd5b600260008190555473ffffffffffffffffffffffffffffffffffffffff16331461054c5760405162461bcd60e51b8152600401808060200182810382526021815260200180610d7c6021913960400191505060405180910390fd5b60007f000000000000000000000000000000000000000000000000000000000000000073ffffffffffffffffffffffffffffffffffffffff1663b58aa4786040518163ffffffff1660e01b815260040160206040518083038186803b1580156105b457600080fd5b505afa1580156105c8573d6000803e3d6000fd5b505050506040513d60208110156105de57600080fd5b5051905073ffffffffffffffffffffffffffffffffffffffff8116156106dd5760008173ffffffffffffffffffffffffffffffffffffffff1663f05b820c6040518163ffffffff1660e01b815260040160206040518083038186803b15801561064657600080fd5b505afa15801561065a573d6000803e3d6000fd5b505050506040513d602081101561067057600080fd5b5051905080156106db578173ffffffffffffffffffffffffffffffffffffffff1663ba30ba246040518163ffffffff1660e01b8152600401600060405180830381600087803b1580156106c257600080fd5b505af11580156106d6573d6000803e3d6000fd5b505050505b505b7f000000000000000000000000000000000000000000000000000000000000000073ffffffffffffffffffffffffffffffffffffffff166340c10f1984846040518363ffffffff1660e01b8152600401808373ffffffffffffffffffffffffffffffffffffffff16815260200182815260200192505050600060405180830381600087803b15801561076e57600080fd5b505af1158015610782573d6000803e3d6000fd5b505060016000555050505050565b60015473ffffffffffffffffffffffffffffffffffffffff1633146107fc576040805162461bcd60e51b815260206004820152601b60248201527f435661756c74466f72434e6f64653a2021676f7665726e616e63650000000000604482015290519081900360640190fd5b806108385760405162461bcd60e51b8152600401808060200182810382526024815260200180610d586024913960400191505060405180910390fd5b600455565b60045481565b7f000000000000000000000000000000000000000000000000000000000000000081565b60015473ffffffffffffffffffffffffffffffffffffffff1681565b7f000000000000000000000000000000000000000000000000000000000000000081565b6000806108b2610362565b905060048111156108c1575060045b60035460055460005b838110156108eb576108e160646103968585610cf7565b92506001016108ca565b50909250505090565b60055481565b60015473ffffffffffffffffffffffffffffffffffffffff163314610966576040805162461bcd60e51b815260206004820152601b60248201527f435661756c74466f72434e6f64653a2021676f7665726e616e63650000000000604482015290519081900360640190fd5b600180547fffffffffffffffffffffffff00000000000000000000000000000000000000001673ffffffffffffffffffffffffffffffffffffffff92909216919091179055565b60007f000000000000000000000000000000000000000000000000000000000000000073ffffffffffffffffffffffffffffffffffffffff1663e8a353926040518163ffffffff1660e01b815260040160206040518083038186803b158015610a1557600080fd5b505afa158015610a29573d6000803e3d6000fd5b505050506040513d6020811015610a3f57600080fd5b5051905090565b60015473ffffffffffffffffffffffffffffffffffffffff163314610ab2576040805162461bcd60e51b815260206004820152601b60248201527f435661756c74466f72434e6f64653a2021676f7665726e616e63650000000000604482015290519081900360640190fd5b600355565b7f000000000000000000000000000000000000000000000000000000000000000081565b60025473ffffffffffffffffffffffffffffffffffffffff1681565b6000807f000000000000000000000000000000000000000000000000000000000000000073ffffffffffffffffffffffffffffffffffffffff1663b58aa4786040518163ffffffff1660e01b815260040160206040518083038186803b158015610b6057600080fd5b505afa158015610b74573d6000803e3d6000fd5b505050506040513d6020811015610b8a57600080fd5b5051905073ffffffffffffffffffffffffffffffffffffffff8116610bb357600091505061039f565b60008173ffffffffffffffffffffffffffffffffffffffff1663f05b820c6040518163ffffffff1660e01b815260040160206040518083038186803b158015610bfb57600080fd5b505afa158015610c0f573d6000803e3d6000fd5b505050506040513d6020811015610c2557600080fd5b50519250505090565b600082821115610c85576040805162461bcd60e51b815260206004820152601e60248201527f536166654d6174683a207375627472616374696f6e206f766572666c6f770000604482015290519081900360640190fd5b508082035b92915050565b6000808211610ce6576040805162461bcd60e51b815260206004820152601a60248201527f536166654d6174683a206469766973696f6e206279207a65726f000000000000604482015290519081900360640190fd5b818381610cef57fe5b049392505050565b600082610d0657506000610c8a565b82820282848281610d1357fe5b0414610d505760405162461bcd60e51b8152600401808060200182810382526021815260200180610d9d6021913960400191505060405180910390fd5b939250505056fe435661756c74466f72434e6f64653a2077726f6e6720706572696f642073657474696e67435661756c74466f72434e6f64653a206f6e6c7920706f6f6c20616c6c6f776564536166654d6174683a206d756c7469706c69636174696f6e206f766572666c6f77a2646970667358221220a31f985f17d025aa731c5a23d8a2ca4cf51b934c3f60dcade39e49f7eb7f796a64736f6c634300060c0033",
  "immutableReferences": {
    "24142": [
      {
        "length": 32,
        "start": 1759
      },
      {
        "length": 32,
        "start": 2181
      }
    ],
    "24144": [
      {
        "length": 32,
        "start": 1360
      },
      {
        "length": 32,
        "start": 2481
      },
      {
        "length": 32,
        "start": 2745
      },
      {
        "length": 32,
        "start": 2812
      }
    ],
    "24146": [
      {
        "length": 32,
        "start": 882
      },
      {
        "length": 32,
        "start": 2117
      }
    ]
  },
  "source": "// SPDX-License-Identifier: GPL-3.0-or-later\n\npragma solidity 0.6.12;\n\nimport \"@openzeppelin/contracts/math/SafeMath.sol\";\nimport \"./lib/ABDKMath64x64.sol\";\nimport \"@openzeppelin/contracts/token/ERC20/IERC20.sol\";\nimport \"./interface/ICoFiXVaultForCNode.sol\";\nimport \"./interface/ICoFiXStakingRewards.sol\";\nimport \"./interface/ICoFiToken.sol\";\nimport \"@openzeppelin/contracts/utils/ReentrancyGuard.sol\";\nimport \"./interface/ICoFiXFactory.sol\";\nimport \"./interface/ICoFiXVaultForTrader.sol\";\n\n// Reward Pool Controller for CNode\ncontract CoFiXVaultForCNode is ICoFiXVaultForCNode, ReentrancyGuard {\n\n    using SafeMath for uint256;\n\n    uint256 public constant RATE_BASE = 1e18;\n\n    address public immutable cofiToken;\n    address public immutable factory;\n\n    uint256 public immutable genesisBlock;\n\n    // managed by governance\n    address public governance;\n    address public cnodePool;\n\n    uint256 public initCoFiRate = 1*1e18; // yield per block, 9*1e18/9\n    uint256 public decayPeriod = 2400000; // yield decays for every 2,400,000 blocks\n    uint256 public decayRate = 80;\n\n    constructor(address cofi, address _factory) public {\n        cofiToken = cofi;\n        factory = _factory;\n        governance = msg.sender;\n        genesisBlock = block.number;\n    }\n\n    /* setters for protocol governance */\n    function setGovernance(address _new) external override {\n        require(msg.sender == governance, \"CVaultForCNode: !governance\");\n        governance = _new;\n    }\n\n    function setCNodePool(address _new) external override {\n        require(msg.sender == governance, \"CVaultForCNode: !governance\");\n        cnodePool = _new;\n        emit NewCNodePool(_new);\n    }\n\n    function setInitCoFiRate(uint256 _new) external override {\n        require(msg.sender == governance, \"CVaultForCNode: !governance\");\n        initCoFiRate = _new;\n    }\n\n    function setDecayPeriod(uint256 _new) external override {\n        require(msg.sender == governance, \"CVaultForCNode: !governance\");\n        require(_new != 0, \"CVaultForCNode: wrong period setting\");\n        decayPeriod = _new;\n    }\n\n    function setDecayRate(uint256 _new) external override {\n        require(msg.sender == governance, \"CVaultForCNode: !governance\");\n        decayRate = _new;\n    }\n\n    function getPendingRewardOfCNode() external override view returns (uint256) {\n        address vaultForTrader = ICoFiXFactory(factory).getVaultForTrader();\n        if (vaultForTrader == address(0)) {\n            return 0; // vaultForTrader is not set yet\n        }\n        uint256 pending = ICoFiXVaultForTrader(vaultForTrader).getPendingRewardOfCNode();\n        return pending;\n    }\n\n    function distributeReward(address to, uint256 amount) external override nonReentrant {\n        require(msg.sender == cnodePool, \"CVaultForCNode: only pool allowed\"); // caution: be careful when adding new pool\n        address vaultForTrader = ICoFiXFactory(factory).getVaultForTrader();\n        if (vaultForTrader != address(0)) { // if equal, means vaultForTrader is not set yet\n            uint256 pending = ICoFiXVaultForTrader(vaultForTrader).getPendingRewardOfCNode();\n            if (pending > 0) {\n                ICoFiXVaultForTrader(vaultForTrader).clearPendingRewardOfCNode();\n            }\n        }\n        ICoFiToken(cofiToken).mint(to, amount); // allows zero\n    }\n\n    function currentPeriod() public override view returns (uint256) {\n        return (block.number).sub(genesisBlock).div(decayPeriod);\n    }\n\n    function currentCoFiRate() public override view returns (uint256) {\n        uint256 periodIdx = currentPeriod();\n        if (periodIdx > 4) {\n            periodIdx = 4; // after 5 years, the rate keep constant\n        }\n        uint256 cofiRate = initCoFiRate;\n        uint256 _decayRate = decayRate;\n        for (uint256 i = 0; i < periodIdx; i++) {\n            cofiRate = cofiRate.mul(_decayRate).div(100);\n        }\n        return cofiRate;\n    }\n\n    function getCoFiStakingPool() external override view returns (address pool) {\n        return ICoFiXFactory(factory).getFeeReceiver();\n    }\n\n}",
  "sourcePath": "/Users/lixiansheng/Downloads/CoFix/contracts/CoFiXVaultForCNode.sol",
  "compiler": {
    "name": "solc",
    "version": "0.6.12+commit.27d51765.Emscripten.clang"
  },
  "schemaVersion": "3.3.3",
  "updatedAt": "2021-05-11T03:13:28.067Z",
  "networkType": "ethereum",
  "devdoc": {
    "kind": "dev",
    "methods": {},
    "version": 1
  },
  "userdoc": {
    "kind": "user",
    "methods": {},
    "version": 1
  }
}