{
  "contractName": "CoFiStakingRewards",
  "abi": [
    {
      "inputs": [
        {
          "internalType": "address",
          "name": "_rewardsToken",
          "type": "address"
        },
        {
          "internalType": "address",
          "name": "_stakingToken",
          "type": "address"
        }
      ],
      "stateMutability": "nonpayable",
      "type": "constructor"
    },
    {
      "anonymous": false,
      "inputs": [
        {
          "indexed": true,
          "internalType": "address",
          "name": "user",
          "type": "address"
        },
        {
          "indexed": false,
          "internalType": "uint256",
          "name": "amount",
          "type": "uint256"
        }
      ],
      "name": "EmergencyWithdraw",
      "type": "event"
    },
    {
      "anonymous": false,
      "inputs": [
        {
          "indexed": false,
          "internalType": "address",
          "name": "sender",
          "type": "address"
        },
        {
          "indexed": false,
          "internalType": "uint256",
          "name": "reward",
          "type": "uint256"
        }
      ],
      "name": "RewardAdded",
      "type": "event"
    },
    {
      "anonymous": false,
      "inputs": [
        {
          "indexed": true,
          "internalType": "address",
          "name": "user",
          "type": "address"
        },
        {
          "indexed": false,
          "internalType": "uint256",
          "name": "reward",
          "type": "uint256"
        }
      ],
      "name": "RewardPaid",
      "type": "event"
    },
    {
      "anonymous": false,
      "inputs": [
        {
          "indexed": true,
          "internalType": "address",
          "name": "to",
          "type": "address"
        },
        {
          "indexed": false,
          "internalType": "uint256",
          "name": "amount",
          "type": "uint256"
        }
      ],
      "name": "SavingWithdrawn",
      "type": "event"
    },
    {
      "anonymous": false,
      "inputs": [
        {
          "indexed": true,
          "internalType": "address",
          "name": "user",
          "type": "address"
        },
        {
          "indexed": false,
          "internalType": "uint256",
          "name": "amount",
          "type": "uint256"
        }
      ],
      "name": "Staked",
      "type": "event"
    },
    {
      "anonymous": false,
      "inputs": [
        {
          "indexed": true,
          "internalType": "address",
          "name": "user",
          "type": "address"
        },
        {
          "indexed": true,
          "internalType": "address",
          "name": "other",
          "type": "address"
        },
        {
          "indexed": false,
          "internalType": "uint256",
          "name": "amount",
          "type": "uint256"
        }
      ],
      "name": "StakedForOther",
      "type": "event"
    },
    {
      "anonymous": false,
      "inputs": [
        {
          "indexed": true,
          "internalType": "address",
          "name": "user",
          "type": "address"
        },
        {
          "indexed": false,
          "internalType": "uint256",
          "name": "amount",
          "type": "uint256"
        }
      ],
      "name": "Withdrawn",
      "type": "event"
    },
    {
      "inputs": [],
      "name": "dividendShare",
      "outputs": [
        {
          "internalType": "uint256",
          "name": "",
          "type": "uint256"
        }
      ],
      "stateMutability": "view",
      "type": "function",
      "constant": true
    },
    {
      "inputs": [],
      "name": "governance",
      "outputs": [
        {
          "internalType": "address",
          "name": "",
          "type": "address"
        }
      ],
      "stateMutability": "view",
      "type": "function",
      "constant": true
    },
    {
      "inputs": [],
      "name": "lastUpdateRewardsTokenBalance",
      "outputs": [
        {
          "internalType": "uint256",
          "name": "",
          "type": "uint256"
        }
      ],
      "stateMutability": "view",
      "type": "function",
      "constant": true
    },
    {
      "inputs": [],
      "name": "pendingSavingAmount",
      "outputs": [
        {
          "internalType": "uint256",
          "name": "",
          "type": "uint256"
        }
      ],
      "stateMutability": "view",
      "type": "function",
      "constant": true
    },
    {
      "inputs": [],
      "name": "rewardPerTokenStored",
      "outputs": [
        {
          "internalType": "uint256",
          "name": "",
          "type": "uint256"
        }
      ],
      "stateMutability": "view",
      "type": "function",
      "constant": true
    },
    {
      "inputs": [
        {
          "internalType": "address",
          "name": "",
          "type": "address"
        }
      ],
      "name": "rewards",
      "outputs": [
        {
          "internalType": "uint256",
          "name": "",
          "type": "uint256"
        }
      ],
      "stateMutability": "view",
      "type": "function",
      "constant": true
    },
    {
      "inputs": [],
      "name": "rewardsToken",
      "outputs": [
        {
          "internalType": "address",
          "name": "",
          "type": "address"
        }
      ],
      "stateMutability": "view",
      "type": "function",
      "constant": true
    },
    {
      "inputs": [],
      "name": "stakingToken",
      "outputs": [
        {
          "internalType": "address",
          "name": "",
          "type": "address"
        }
      ],
      "stateMutability": "view",
      "type": "function",
      "constant": true
    },
    {
      "inputs": [
        {
          "internalType": "address",
          "name": "",
          "type": "address"
        }
      ],
      "name": "userRewardPerTokenPaid",
      "outputs": [
        {
          "internalType": "uint256",
          "name": "",
          "type": "uint256"
        }
      ],
      "stateMutability": "view",
      "type": "function",
      "constant": true
    },
    {
      "stateMutability": "payable",
      "type": "receive",
      "payable": true
    },
    {
      "inputs": [],
      "name": "totalSupply",
      "outputs": [
        {
          "internalType": "uint256",
          "name": "",
          "type": "uint256"
        }
      ],
      "stateMutability": "view",
      "type": "function",
      "constant": true
    },
    {
      "inputs": [
        {
          "internalType": "address",
          "name": "account",
          "type": "address"
        }
      ],
      "name": "balanceOf",
      "outputs": [
        {
          "internalType": "uint256",
          "name": "",
          "type": "uint256"
        }
      ],
      "stateMutability": "view",
      "type": "function",
      "constant": true
    },
    {
      "inputs": [],
      "name": "rewardPerToken",
      "outputs": [
        {
          "internalType": "uint256",
          "name": "",
          "type": "uint256"
        }
      ],
      "stateMutability": "view",
      "type": "function",
      "constant": true
    },
    {
      "inputs": [],
      "name": "accrued",
      "outputs": [
        {
          "internalType": "uint256",
          "name": "",
          "type": "uint256"
        }
      ],
      "stateMutability": "view",
      "type": "function",
      "constant": true
    },
    {
      "inputs": [
        {
          "internalType": "address",
          "name": "account",
          "type": "address"
        }
      ],
      "name": "earned",
      "outputs": [
        {
          "internalType": "uint256",
          "name": "",
          "type": "uint256"
        }
      ],
      "stateMutability": "view",
      "type": "function",
      "constant": true
    },
    {
      "inputs": [
        {
          "internalType": "uint256",
          "name": "amount",
          "type": "uint256"
        }
      ],
      "name": "stake",
      "outputs": [],
      "stateMutability": "nonpayable",
      "type": "function"
    },
    {
      "inputs": [
        {
          "internalType": "address",
          "name": "other",
          "type": "address"
        },
        {
          "internalType": "uint256",
          "name": "amount",
          "type": "uint256"
        }
      ],
      "name": "stakeForOther",
      "outputs": [],
      "stateMutability": "nonpayable",
      "type": "function"
    },
    {
      "inputs": [
        {
          "internalType": "uint256",
          "name": "amount",
          "type": "uint256"
        }
      ],
      "name": "withdraw",
      "outputs": [],
      "stateMutability": "nonpayable",
      "type": "function"
    },
    {
      "inputs": [],
      "name": "emergencyWithdraw",
      "outputs": [],
      "stateMutability": "nonpayable",
      "type": "function"
    },
    {
      "inputs": [],
      "name": "getReward",
      "outputs": [],
      "stateMutability": "nonpayable",
      "type": "function"
    },
    {
      "inputs": [],
      "name": "addETHReward",
      "outputs": [],
      "stateMutability": "payable",
      "type": "function",
      "payable": true
    },
    {
      "inputs": [],
      "name": "exit",
      "outputs": [],
      "stateMutability": "nonpayable",
      "type": "function"
    },
    {
      "inputs": [
        {
          "internalType": "address",
          "name": "_new",
          "type": "address"
        }
      ],
      "name": "setGovernance",
      "outputs": [],
      "stateMutability": "nonpayable",
      "type": "function"
    },
    {
      "inputs": [
        {
          "internalType": "uint256",
          "name": "share",
          "type": "uint256"
        }
      ],
      "name": "setDividendShare",
      "outputs": [],
      "stateMutability": "nonpayable",
      "type": "function"
    },
    {
      "inputs": [
        {
          "internalType": "address",
          "name": "_to",
          "type": "address"
        },
        {
          "internalType": "uint256",
          "name": "_amount",
          "type": "uint256"
        }
      ],
      "name": "withdrawSavingByGov",
      "outputs": [],
      "stateMutability": "nonpayable",
      "type": "function"
    }
  ],
  "bytecode": "0x60c0604052601460025534801561001557600080fd5b506040516120a03803806120a08339818101604052604081101561003857600080fd5b508051602090910151600160008190556001600160601b0319606093841b81166080529190921b1660a05280546001600160a01b0319163317905560805160601c60a05160601c611fb96100e7600039806107b15280610b7d5280610ea5528061111352806116fe52508061065f528061090752806109f85280610ad75280610bb65280610d535280611000528061135052806113f2528061159e5280611b055280611bac5250611fb96000f3fe60806040526004361061018e5760003560e01c8063a694fc3a116100d6578063df136d651161007f578063f20ffed711610059578063f20ffed714610436578063f56c7edc14610460578063fe72bd011461049957610195565b8063df136d65146103f7578063dfef9a361461040c578063e9fad8ee1461042157610195565b8063cd3daf9d116100b0578063cd3daf9d146103b8578063d1af0c7d146103cd578063db2e21bc146103e257610195565b8063a694fc3a14610346578063ab033ea914610370578063b42f8fc3146103a357610195565b80635aa6e6751161013857806372f702f31161011257806372f702f3146102e95780638b876347146102fe578063a07e52a21461033157610195565b80635aa6e675146102705780636a0b91a5146102a157806370a08231146102b657610195565b80632e1a7d4d116101695780632e1a7d4d146102275780633d18b9121461025357806341f894ff1461026857610195565b80628cc2621461019a5780630700037d146101df57806318160ddd1461021257610195565b3661019557005b600080fd5b3480156101a657600080fd5b506101cd600480360360208110156101bd57600080fd5b50356001600160a01b03166104d2565b60408051918252519081900360200190f35b3480156101eb57600080fd5b506101cd6004803603602081101561020257600080fd5b50356001600160a01b0316610550565b34801561021e57600080fd5b506101cd610562565b34801561023357600080fd5b506102516004803603602081101561024a57600080fd5b5035610569565b005b34801561025f57600080fd5b50610251610818565b610251610ad5565b34801561027c57600080fd5b50610285610b4b565b604080516001600160a01b039092168252519081900360200190f35b3480156102ad57600080fd5b506101cd610b5a565b3480156102c257600080fd5b506101cd600480360360208110156102d957600080fd5b50356001600160a01b0316610b60565b3480156102f557600080fd5b50610285610b7b565b34801561030a57600080fd5b506101cd6004803603602081101561032157600080fd5b50356001600160a01b0316610b9f565b34801561033d57600080fd5b506101cd610bb1565b34801561035257600080fd5b506102516004803603602081101561036957600080fd5b5035610c64565b34801561037c57600080fd5b506102516004803603602081101561039357600080fd5b50356001600160a01b0316610f0d565b3480156103af57600080fd5b506101cd610fa6565b3480156103c457600080fd5b506101cd610fac565b3480156103d957600080fd5b50610285610ffe565b3480156103ee57600080fd5b50610251611022565b34801561040357600080fd5b506101cd611177565b34801561041857600080fd5b506101cd61117d565b34801561042d57600080fd5b50610251611183565b34801561044257600080fd5b506102516004803603602081101561045957600080fd5b50356111a6565b34801561046c57600080fd5b506102516004803603604081101561048357600080fd5b506001600160a01b03813516906020013561124a565b3480156104a557600080fd5b50610251600480360360408110156104bc57600080fd5b506001600160a01b0381351690602001356114af565b6001600160a01b038116600090815260076020908152604080832054600690925282205461054a919061054490670de0b6b3a76400009061053e9061051f90610519610fac565b90611771565b6001600160a01b038816600090815260096020526040902054906117ce565b9061182e565b90611895565b92915050565b60076020526000908152604090205481565b6008545b90565b600260005414156105c1576040805162461bcd60e51b815260206004820152601f60248201527f5265656e7472616e637947756172643a207265656e7472616e742063616c6c00604482015290519081900360640190fd5b600260009081553390806105d36118ef565b60058290559092509050801561061e576000610609610602606461053e600254866117ce90919063ffffffff16565b8390611771565b6003549091506106199082611895565b600355505b600854156106d557604080517f70a0823100000000000000000000000000000000000000000000000000000000815230600482015290516001600160a01b037f000000000000000000000000000000000000000000000000000000000000000016916370a08231916024808301926020929190829003018186803b1580156106a557600080fd5b505afa1580156106b9573d6000803e3d6000fd5b505050506040513d60208110156106cf57600080fd5b50516004555b6001600160a01b03831615610719576106ed836104d2565b6001600160a01b0384166000908152600760209081526040808320939093556005546006909152919020555b6000841161076e576040805162461bcd60e51b815260206004820152601160248201527f43616e6e6f742077697468647261772030000000000000000000000000000000604482015290519081900360640190fd5b60085461077b9085611771565b600855336000908152600960205260409020546107989085611771565b336000818152600960205260409020919091556107d7907f00000000000000000000000000000000000000000000000000000000000000009086611951565b60408051858152905133917f7084f5476618d8e60b11ef0d7d3f06914655adb8793e28ff7f018d4c76d505d5919081900360200190a2505060016000555050565b60026000541415610870576040805162461bcd60e51b815260206004820152601f60248201527f5265656e7472616e637947756172643a207265656e7472616e742063616c6c00604482015290519081900360640190fd5b600260009081553390806108826118ef565b6005829055909250905080156108c65760006108b1610602606461053e600254866117ce90919063ffffffff16565b6003549091506108c19082611895565b600355505b6008541561097d57604080517f70a0823100000000000000000000000000000000000000000000000000000000815230600482015290516001600160a01b037f000000000000000000000000000000000000000000000000000000000000000016916370a08231916024808301926020929190829003018186803b15801561094d57600080fd5b505afa158015610961573d6000803e3d6000fd5b505050506040513d602081101561097757600080fd5b50516004555b6001600160a01b038316156109c157610995836104d2565b6001600160a01b0384166000908152600760209081526040808320939093556005546006909152919020555b336000908152600760205260409020548015610aca57336000818152600760205260408120819055906109f49083611b00565b90507f00000000000000000000000000000000000000000000000000000000000000006001600160a01b03166370a08231306040518263ffffffff1660e01b815260040180826001600160a01b0316815260200191505060206040518083038186803b158015610a6357600080fd5b505afa158015610a77573d6000803e3d6000fd5b505050506040513d6020811015610a8d57600080fd5b505160045560408051828152905133917fe2403640ba68fed3a2f88b7557551d1993f84b99bb10ff833f0cf8db0c5e0486919081900360200190a2505b505060016000555050565b7f00000000000000000000000000000000000000000000000000000000000000006001600160a01b031663d0e30db0346040518263ffffffff1660e01b81526004016000604051808303818588803b158015610b3057600080fd5b505af1158015610b44573d6000803e3d6000fd5b5050505050565b6001546001600160a01b031681565b60045481565b6001600160a01b031660009081526009602052604090205490565b7f000000000000000000000000000000000000000000000000000000000000000081565b60066020526000908152604090205481565b6000807f00000000000000000000000000000000000000000000000000000000000000006001600160a01b03166370a08231306040518263ffffffff1660e01b815260040180826001600160a01b0316815260200191505060206040518083038186803b158015610c2157600080fd5b505afa158015610c35573d6000803e3d6000fd5b505050506040513d6020811015610c4b57600080fd5b5051600454909150610c5e908290611771565b91505090565b60026000541415610cbc576040805162461bcd60e51b815260206004820152601f60248201527f5265656e7472616e637947756172643a207265656e7472616e742063616c6c00604482015290519081900360640190fd5b60026000908155339080610cce6118ef565b600582905590925090508015610d12576000610cfd610602606461053e600254866117ce90919063ffffffff16565b600354909150610d0d9082611895565b600355505b60085415610dc957604080517f70a0823100000000000000000000000000000000000000000000000000000000815230600482015290516001600160a01b037f000000000000000000000000000000000000000000000000000000000000000016916370a08231916024808301926020929190829003018186803b158015610d9957600080fd5b505afa158015610dad573d6000803e3d6000fd5b505050506040513d6020811015610dc357600080fd5b50516004555b6001600160a01b03831615610e0d57610de1836104d2565b6001600160a01b0384166000908152600760209081526040808320939093556005546006909152919020555b60008411610e62576040805162461bcd60e51b815260206004820152600e60248201527f43616e6e6f74207374616b652030000000000000000000000000000000000000604482015290519081900360640190fd5b600854610e6f9085611895565b60085533600090815260096020526040902054610e8c9085611895565b33600081815260096020526040902091909155610ecc907f0000000000000000000000000000000000000000000000000000000000000000903087611c3a565b60408051858152905133917f9e71bc8eea02a63969f509818f2dafb9254532904319f9dbda79b67bd34a5f3d919081900360200190a2505060016000555050565b6001546001600160a01b03163314610f6c576040805162461bcd60e51b815260206004820152601860248201527f436f46695374616b696e673a2021676f7665726e616e63650000000000000000604482015290519081900360640190fd5b600180547fffffffffffffffffffffffff0000000000000000000000000000000000000000166001600160a01b0392909216919091179055565b60025481565b600060085460001415610fc25750600554610566565b610ff9610ff0606461053e60085461053e600254610fea670de0b6b3a7640000610fea610bb1565b906117ce565b60055490611895565b905090565b7f000000000000000000000000000000000000000000000000000000000000000081565b6002600054141561107a576040805162461bcd60e51b815260206004820152601f60248201527f5265656e7472616e637947756172643a207265656e7472616e742063616c6c00604482015290519081900360640190fd5b6002600090815533815260096020526040902054806110e0576040805162461bcd60e51b815260206004820152601160248201527f43616e6e6f742077697468647261772030000000000000000000000000000000604482015290519081900360640190fd5b6008546110ed9082611771565b6008553360008181526009602090815260408083208390556007909152812055611139907f00000000000000000000000000000000000000000000000000000000000000009083611951565b60408051828152905133917f5fafa99d0643513820be26656b45130b01e1c03062e1266bf36f88cbd3bd9695919081900360200190a2506001600055565b60055481565b60035481565b3360009081526009602052604090205461119c90610569565b6111a4610818565b565b6001546001600160a01b03163314611205576040805162461bcd60e51b815260206004820152601860248201527f436f46695374616b696e673a2021676f7665726e616e63650000000000000000604482015290519081900360640190fd5b60648111156112455760405162461bcd60e51b8152600401808060200182810382526022815260200180611efa6022913960400191505060405180910390fd5b600255565b600260005414156112a2576040805162461bcd60e51b815260206004820152601f60248201527f5265656e7472616e637947756172643a207265656e7472616e742063616c6c00604482015290519081900360640190fd5b60026000556001546001600160a01b03163314611306576040805162461bcd60e51b815260206004820152601860248201527f436f46695374616b696e673a2021676f7665726e616e63650000000000000000604482015290519081900360640190fd5b6003546113139082611771565b600355604080517f2e1a7d4d0000000000000000000000000000000000000000000000000000000081526004810183905290516001600160a01b037f00000000000000000000000000000000000000000000000000000000000000001691632e1a7d4d91602480830192600092919082900301818387803b15801561139757600080fd5b505af11580156113ab573d6000803e3d6000fd5b505050506113b98282611de3565b604080517f70a0823100000000000000000000000000000000000000000000000000000000815230600482015290516001600160a01b037f000000000000000000000000000000000000000000000000000000000000000016916370a08231916024808301926020929190829003018186803b15801561143857600080fd5b505afa15801561144c573d6000803e3d6000fd5b505050506040513d602081101561146257600080fd5b50516004556040805182815290516001600160a01b038416917f87c374851ba88ebd02719e2b592fa23c658562900e426a6ecd9ad152addbb018919081900360200190a250506001600055565b60026000541415611507576040805162461bcd60e51b815260206004820152601f60248201527f5265656e7472616e637947756172643a207265656e7472616e742063616c6c00604482015290519081900360640190fd5b600260009081558290806115196118ef565b60058290559092509050801561155d576000611548610602606461053e600254866117ce90919063ffffffff16565b6003549091506115589082611895565b600355505b6008541561161457604080517f70a0823100000000000000000000000000000000000000000000000000000000815230600482015290516001600160a01b037f000000000000000000000000000000000000000000000000000000000000000016916370a08231916024808301926020929190829003018186803b1580156115e457600080fd5b505afa1580156115f8573d6000803e3d6000fd5b505050506040513d602081101561160e57600080fd5b50516004555b6001600160a01b038316156116585761162c836104d2565b6001600160a01b0384166000908152600760209081526040808320939093556005546006909152919020555b600084116116ad576040805162461bcd60e51b815260206004820152600e60248201527f43616e6e6f74207374616b652030000000000000000000000000000000000000604482015290519081900360640190fd5b6008546116ba9085611895565b6008556001600160a01b0385166000908152600960205260409020546116e09085611895565b6001600160a01b0386166000908152600960205260409020556117257f0000000000000000000000000000000000000000000000000000000000000000333087611c3a565b6040805185815290516001600160a01b0387169133917ff6709c821eb43e8e9953ad8ac910b4591a380ae9f014d75ce7d7a2a34299e0ef9181900360200190a350506001600055505050565b6000828211156117c8576040805162461bcd60e51b815260206004820152601e60248201527f536166654d6174683a207375627472616374696f6e206f766572666c6f770000604482015290519081900360640190fd5b50900390565b6000826117dd5750600061054a565b828202828482816117ea57fe5b04146118275760405162461bcd60e51b8152600401808060200182810382526021815260200180611f1c6021913960400191505060405180910390fd5b9392505050565b6000808211611884576040805162461bcd60e51b815260206004820152601a60248201527f536166654d6174683a206469766973696f6e206279207a65726f000000000000604482015290519081900360640190fd5b81838161188d57fe5b049392505050565b600082820183811015611827576040805162461bcd60e51b815260206004820152601b60248201527f536166654d6174683a206164646974696f6e206f766572666c6f770000000000604482015290519081900360640190fd5b60008060085460001415611909575050600554600061194d565b6000611913610bb1565b90506000611946610ff0606461053e60085461053e600254610fea670de0b6b3a76400008a6117ce90919063ffffffff16565b9350909150505b9091565b604080516001600160a01b038481166024830152604480830185905283518084039091018152606490920183526020820180517bffffffffffffffffffffffffffffffffffffffffffffffffffffffff167fa9059cbb00000000000000000000000000000000000000000000000000000000178152925182516000946060949389169392918291908083835b60208310611a1a57805182527fffffffffffffffffffffffffffffffffffffffffffffffffffffffffffffffe090920191602091820191016119dd565b6001836020036101000a0380198251168184511680821785525050505050509050019150506000604051808303816000865af19150503d8060008114611a7c576040519150601f19603f3d011682016040523d82523d6000602084013e611a81565b606091505b5091509150818015611aaf575080511580611aaf5750808060200190516020811015611aac57600080fd5b50515b610b44576040805162461bcd60e51b815260206004820152601f60248201527f5472616e7366657248656c7065723a205452414e534645525f4641494c454400604482015290519081900360640190fd5b6000807f00000000000000000000000000000000000000000000000000000000000000006001600160a01b03166370a08231306040518263ffffffff1660e01b815260040180826001600160a01b0316815260200191505060206040518083038186803b158015611b7057600080fd5b505afa158015611b84573d6000803e3d6000fd5b505050506040513d6020811015611b9a57600080fd5b5051905080831115611baa578092505b7f00000000000000000000000000000000000000000000000000000000000000006001600160a01b0316632e1a7d4d846040518263ffffffff1660e01b815260040180828152602001915050600060405180830381600087803b158015611c1057600080fd5b505af1158015611c24573d6000803e3d6000fd5b50505050611c328484611de3565b509092915050565b604080516001600160a01b0385811660248301528481166044830152606480830185905283518084039091018152608490920183526020820180517bffffffffffffffffffffffffffffffffffffffffffffffffffffffff167f23b872dd0000000000000000000000000000000000000000000000000000000017815292518251600094606094938a169392918291908083835b60208310611d0b57805182527fffffffffffffffffffffffffffffffffffffffffffffffffffffffffffffffe09092019160209182019101611cce565b6001836020036101000a0380198251168184511680821785525050505050509050019150506000604051808303816000865af19150503d8060008114611d6d576040519150601f19603f3d011682016040523d82523d6000602084013e611d72565b606091505b5091509150818015611da0575080511580611da05750808060200190516020811015611d9d57600080fd5b50515b611ddb5760405162461bcd60e51b8152600401808060200182810382526024815260200180611f606024913960400191505060405180910390fd5b505050505050565b604080516000808252602082019092526001600160a01b0384169083906040518082805190602001908083835b60208310611e4d57805182527fffffffffffffffffffffffffffffffffffffffffffffffffffffffffffffffe09092019160209182019101611e10565b6001836020036101000a03801982511681845116808217855250505050505090500191505060006040518083038185875af1925050503d8060008114611eaf576040519150601f19603f3d011682016040523d82523d6000602084013e611eb4565b606091505b5050905080611ef45760405162461bcd60e51b8152600401808060200182810382526023815260200180611f3d6023913960400191505060405180910390fd5b50505056fe436f46695374616b696e673a20696e76616c69642073686172652073657474696e67536166654d6174683a206d756c7469706c69636174696f6e206f766572666c6f775472616e7366657248656c7065723a204554485f5452414e534645525f4641494c45445472616e7366657248656c7065723a205452414e534645525f46524f4d5f4641494c4544a2646970667358221220b6f76a773eb040bf1b86ec2beb35d45dc4a9678efff1335676ccb481bc9732db64736f6c634300060c0033",
  "immutableReferences": {
    "176": [
      {
        "length": 32,
        "start": 1631
      },
      {
        "length": 32,
        "start": 2311
      },
      {
        "length": 32,
        "start": 2552
      },
      {
        "length": 32,
        "start": 2775
      },
      {
        "length": 32,
        "start": 2998
      },
      {
        "length": 32,
        "start": 3411
      },
      {
        "length": 32,
        "start": 4096
      },
      {
        "length": 32,
        "start": 4944
      },
      {
        "length": 32,
        "start": 5106
      },
      {
        "length": 32,
        "start": 5534
      },
      {
        "length": 32,
        "start": 6917
      },
      {
        "length": 32,
        "start": 7084
      }
    ],
    "179": [
      {
        "length": 32,
        "start": 1969
      },
      {
        "length": 32,
        "start": 2941
      },
      {
        "length": 32,
        "start": 3749
      },
      {
        "length": 32,
        "start": 4371
      },
      {
        "length": 32,
        "start": 5886
      }
    ]
  },
  "source": "// SPDX-License-Identifier: GPL-3.0-or-later\n\npragma solidity 0.6.12;\n\nimport \"@openzeppelin/contracts/math/SafeMath.sol\";\nimport \"./lib/TransferHelper.sol\";\nimport \"@openzeppelin/contracts/math/Math.sol\";\nimport \"@openzeppelin/contracts/utils/ReentrancyGuard.sol\";\nimport \"./interface/ICoFiStakingRewards.sol\";\nimport \"@openzeppelin/contracts/token/ERC20/IERC20.sol\";\nimport \"./interface/IWETH.sol\";\n\n// Stake CoFi to earn ETH\ncontract CoFiStakingRewards is ICoFiStakingRewards, ReentrancyGuard {\n    using SafeMath for uint256;\n\n    /* ========== STATE VARIABLES ========== */\n\n    address public override immutable rewardsToken; // WETH, received from CoFiXPair, to reduce gas cost for each swap\n    address public override immutable stakingToken; // CoFi\n\n    address public governance;\n    uint256 public dividendShare = 20; // 20% to CoFi holders as dividend, 80% to saving for buying back\n\n    uint256 public pendingSavingAmount;\n\n    uint256 public lastUpdateRewardsTokenBalance; // must refresh after each WETH balance change\n    uint256 public rewardPerTokenStored;\n\n    mapping(address => uint256) public userRewardPerTokenPaid;\n    mapping(address => uint256) public rewards;\n\n    uint256 private _totalSupply;\n    mapping(address => uint256) private _balances;\n\n    /* ========== CONSTRUCTOR ========== */\n\n    constructor(\n        address _rewardsToken,\n        address _stakingToken\n    ) public {\n        rewardsToken = _rewardsToken;\n        stakingToken = _stakingToken;\n        governance = msg.sender;\n    }\n\n    receive() external payable {}\n\n    /* ========== VIEWS ========== */\n\n    function totalSupply() external override view returns (uint256) {\n        return _totalSupply;\n    }\n\n    function balanceOf(address account) external override view returns (uint256) {\n        return _balances[account];\n    }\n\n    function rewardPerToken() public override view returns (uint256) {\n        if (_totalSupply == 0) {\n            // use the old rewardPerTokenStored\n            // if not, the new accrued amount will never be distributed to anyone\n            return rewardPerTokenStored;\n        }\n        return\n            rewardPerTokenStored.add(\n                accrued().mul(1e18).mul(dividendShare).div(_totalSupply).div(100)\n            );\n    }\n\n    function _rewardPerTokenAndAccrued() internal view returns (uint256, uint256) {\n        if (_totalSupply == 0) {\n            // use the old rewardPerTokenStored, and accrued should be zero here\n            // if not the new accrued amount will never be distributed to anyone\n            return (rewardPerTokenStored, 0);\n        }\n        uint256 _accrued = accrued();\n        uint256 _rewardPerToken = rewardPerTokenStored.add(\n                _accrued.mul(1e18).mul(dividendShare).div(_totalSupply).div(100) // 20% of accrued to CoFi holders as dividend, adjustable\n            );\n        return (_rewardPerToken, _accrued);\n    }\n\n    function accrued() public override view returns (uint256) {\n        // balance increment of WETH between the last update and now\n        uint256 newest = IWETH(rewardsToken).balanceOf(address(this));\n        return newest.sub(lastUpdateRewardsTokenBalance); // lastest must be larger than lastUpdate\n    }\n\n    function earned(address account) public override view returns (uint256) {\n        return _balances[account].mul(rewardPerToken().sub(userRewardPerTokenPaid[account])).div(1e18).add(rewards[account]);\n    }\n\n    /* ========== MUTATIVE FUNCTIONS ========== */\n\n    function stake(uint256 amount) external override nonReentrant updateReward(msg.sender) {\n        require(amount > 0, \"Cannot stake 0\");\n        _totalSupply = _totalSupply.add(amount);\n        _balances[msg.sender] = _balances[msg.sender].add(amount);\n        TransferHelper.safeTransferFrom(stakingToken, msg.sender, address(this), amount);\n        emit Staked(msg.sender, amount);\n    }\n\n    function stakeForOther(address other, uint256 amount) external override nonReentrant updateReward(other) {\n        require(amount > 0, \"Cannot stake 0\");\n        _totalSupply = _totalSupply.add(amount);\n        _balances[other] = _balances[other].add(amount);\n        // be careful: caller should approve to zero after usage\n        TransferHelper.safeTransferFrom(stakingToken, msg.sender, address(this), amount);\n        emit StakedForOther(msg.sender, other, amount);\n    }\n\n    function withdraw(uint256 amount) public override nonReentrant updateReward(msg.sender) {\n        require(amount > 0, \"Cannot withdraw 0\");\n        _totalSupply = _totalSupply.sub(amount);\n        _balances[msg.sender] = _balances[msg.sender].sub(amount);\n        TransferHelper.safeTransfer(stakingToken, msg.sender, amount);\n        emit Withdrawn(msg.sender, amount);\n    }\n\n    // Withdraw without caring about rewards. EMERGENCY ONLY.\n    function emergencyWithdraw() public override nonReentrant {\n        uint256 amount = _balances[msg.sender];\n        require(amount > 0, \"Cannot withdraw 0\");\n        _totalSupply = _totalSupply.sub(amount);\n        _balances[msg.sender] = 0;\n        rewards[msg.sender] = 0;\n        TransferHelper.safeTransfer(stakingToken, msg.sender, amount);\n        emit EmergencyWithdraw(msg.sender, amount);\n    }\n\n    function getReward() public override nonReentrant updateReward(msg.sender) {\n        uint256 reward = rewards[msg.sender];\n        if (reward > 0) {\n            rewards[msg.sender] = 0;\n            // WETH balance decreased after this\n            uint256 transferred = _safeWETHTransfer(msg.sender, reward);\n            // must refresh WETH balance record after updating WETH balance\n            // or lastUpdateRewardsTokenBalance could be less than the newest WETH balance in the next update\n            lastUpdateRewardsTokenBalance = IWETH(rewardsToken).balanceOf(address(this));\n            emit RewardPaid(msg.sender, transferred);\n        }\n    }\n\n    function addETHReward() external payable override { // no need to update reward here\n        IWETH(rewardsToken).deposit{value: msg.value}(); // support for sending ETH for rewards\n    }\n\n    function exit() external override {\n        withdraw(_balances[msg.sender]);\n        getReward();\n    }\n\n    function setGovernance(address _new) external {\n        require(msg.sender == governance, \"CoFiStaking: !governance\");\n        governance = _new;\n    }\n\n    function setDividendShare(uint256 share) external {\n        require(msg.sender == governance, \"CoFiStaking: !governance\");\n        require(share <= 100, \"CoFiStaking: invalid share setting\");\n        dividendShare = share;\n    }\n\n    function withdrawSavingByGov(address _to, uint256 _amount) external nonReentrant {\n        require(msg.sender == governance, \"CoFiStaking: !governance\");\n        pendingSavingAmount = pendingSavingAmount.sub(_amount);\n        IWETH(rewardsToken).withdraw(_amount);\n        TransferHelper.safeTransferETH(_to, _amount);\n        // must refresh WETH balance record after updating WETH balance\n        // or lastUpdateRewardsTokenBalance could be less than the newest WETH balance in the next update\n        lastUpdateRewardsTokenBalance = IWETH(rewardsToken).balanceOf(address(this));\n        emit SavingWithdrawn(_to, _amount);\n    }\n\n    // Safe WETH transfer function, just in case if rounding error or ending of mining causes pool to not have enough WETHs.\n    function _safeWETHTransfer(address _to, uint256 _amount) internal returns (uint256) {\n        uint256 bal = IWETH(rewardsToken).balanceOf(address(this));\n        if (_amount > bal) {\n            _amount = bal;\n        }\n        // convert WETH to ETH, and send to `_to`\n        IWETH(rewardsToken).withdraw(_amount);\n        TransferHelper.safeTransferETH(_to, _amount);\n        return _amount;\n    }\n\n    /* ========== MODIFIERS ========== */\n\n    modifier updateReward(address account) {\n        (uint256 _rewardPerToken, uint256 _accrued) = _rewardPerTokenAndAccrued();\n        rewardPerTokenStored = _rewardPerToken;\n        if (_accrued > 0) {\n            uint256 newSaving = _accrued.sub(_accrued.mul(dividendShare).div(100)); // left 80%\n            pendingSavingAmount = pendingSavingAmount.add(newSaving);\n        }\n        // means it's the first update\n        // add this check to ensure the WETH transferred in before the first user stake in, could be distributed in the next update\n        if (_totalSupply != 0) { // we can use _accrued here too\n            lastUpdateRewardsTokenBalance = IWETH(rewardsToken).balanceOf(address(this));\n        }\n        if (account != address(0)) {\n            rewards[account] = earned(account);\n            userRewardPerTokenPaid[account] = rewardPerTokenStored;\n        }\n        _;\n    }\n\n    /* ========== EVENTS ========== */\n\n    event RewardAdded(address sender, uint256 reward);\n    event Staked(address indexed user, uint256 amount);\n    event StakedForOther(address indexed user, address indexed other, uint256 amount);\n    event Withdrawn(address indexed user, uint256 amount);\n    event SavingWithdrawn(address indexed to, uint256 amount);\n    event EmergencyWithdraw(address indexed user, uint256 amount);\n    event RewardPaid(address indexed user, uint256 reward);\n}",
  "sourcePath": "/Users/lixiansheng/Downloads/CoFix/contracts/CoFiStakingRewards.sol",
  "compiler": {
    "name": "solc",
    "version": "0.6.12+commit.27d51765.Emscripten.clang"
  },
  "schemaVersion": "3.3.3",
  "updatedAt": "2021-05-11T03:13:28.076Z",
  "networkType": "ethereum",
  "devdoc": {
    "kind": "dev",
    "methods": {
      "accrued()": {
        "details": "How many reward tokens accrued recently",
        "returns": {
          "_0": "The amount of reward tokens accrued recently"
        }
      },
      "addETHReward()": {
        "details": "Add ETH reward to the staking pool"
      },
      "balanceOf(address)": {
        "details": "How many stakingToken (XToken) deposited by the target account",
        "params": {
          "account": "The target account"
        },
        "returns": {
          "_0": "The total amount of XToken deposited in this staking pool"
        }
      },
      "earned(address)": {
        "details": "How many reward tokens a user has earned but not claimed at present",
        "params": {
          "account": "The target account"
        },
        "returns": {
          "_0": "The amount of reward tokens a user earned"
        }
      },
      "emergencyWithdraw()": {
        "details": "Withdraw without caring about rewards. EMERGENCY ONLY."
      },
      "exit()": {
        "details": "User exit the reward pool, it's actually withdraw and getReward"
      },
      "getReward()": {
        "details": "Claim the reward the user earned"
      },
      "rewardPerToken()": {
        "details": "Reward amount represents by per staking token"
      },
      "stake(uint256)": {
        "details": "Stake/Deposit into the reward pool (staking pool)",
        "params": {
          "amount": "The target amount"
        }
      },
      "stakeForOther(address,uint256)": {
        "details": "Stake/Deposit into the reward pool (staking pool) for other account",
        "params": {
          "amount": "The target amount",
          "other": "The target account"
        }
      },
      "totalSupply()": {
        "details": "How many stakingToken (XToken) deposited into to this reward pool (staking pool)",
        "returns": {
          "_0": "The total amount of XTokens deposited in this staking pool"
        }
      },
      "withdraw(uint256)": {
        "details": "Withdraw from the reward pool (staking pool), get the original tokens back",
        "params": {
          "amount": "The target amount"
        }
      }
    },
    "stateVariables": {
      "rewardsToken": {
        "details": "Get the address of token for rewards in this staking pool",
        "return": "The rewards token address"
      },
      "stakingToken": {
        "details": "Get the address of token for staking in this staking pool",
        "return": "The staking token address"
      }
    },
    "version": 1
  },
  "userdoc": {
    "kind": "user",
    "methods": {},
    "version": 1
  }
}