{
  "contractName": "CoFiXV2VaultForCNode",
  "abi": [
    {
      "inputs": [
        {
          "internalType": "address",
          "name": "cofi",
          "type": "address"
        },
        {
          "internalType": "address",
          "name": "_factory",
          "type": "address"
        }
      ],
      "stateMutability": "nonpayable",
      "type": "constructor"
    },
    {
      "anonymous": false,
      "inputs": [
        {
          "indexed": false,
          "internalType": "address",
          "name": "_new",
          "type": "address"
        }
      ],
      "name": "NewCNodePool",
      "type": "event"
    },
    {
      "inputs": [],
      "name": "RATE_BASE",
      "outputs": [
        {
          "internalType": "uint256",
          "name": "",
          "type": "uint256"
        }
      ],
      "stateMutability": "view",
      "type": "function"
    },
    {
      "inputs": [],
      "name": "cnodePool",
      "outputs": [
        {
          "internalType": "address",
          "name": "",
          "type": "address"
        }
      ],
      "stateMutability": "view",
      "type": "function"
    },
    {
      "inputs": [],
      "name": "cofiToken",
      "outputs": [
        {
          "internalType": "address",
          "name": "",
          "type": "address"
        }
      ],
      "stateMutability": "view",
      "type": "function"
    },
    {
      "inputs": [],
      "name": "decayPeriod",
      "outputs": [
        {
          "internalType": "uint256",
          "name": "",
          "type": "uint256"
        }
      ],
      "stateMutability": "view",
      "type": "function"
    },
    {
      "inputs": [],
      "name": "decayRate",
      "outputs": [
        {
          "internalType": "uint256",
          "name": "",
          "type": "uint256"
        }
      ],
      "stateMutability": "view",
      "type": "function"
    },
    {
      "inputs": [],
      "name": "factory",
      "outputs": [
        {
          "internalType": "address",
          "name": "",
          "type": "address"
        }
      ],
      "stateMutability": "view",
      "type": "function"
    },
    {
      "inputs": [],
      "name": "genesisBlock",
      "outputs": [
        {
          "internalType": "uint256",
          "name": "",
          "type": "uint256"
        }
      ],
      "stateMutability": "view",
      "type": "function"
    },
    {
      "inputs": [],
      "name": "governance",
      "outputs": [
        {
          "internalType": "address",
          "name": "",
          "type": "address"
        }
      ],
      "stateMutability": "view",
      "type": "function"
    },
    {
      "inputs": [],
      "name": "initCoFiRate",
      "outputs": [
        {
          "internalType": "uint256",
          "name": "",
          "type": "uint256"
        }
      ],
      "stateMutability": "view",
      "type": "function"
    },
    {
      "inputs": [],
      "name": "setGenesisBlock",
      "outputs": [],
      "stateMutability": "nonpayable",
      "type": "function"
    },
    {
      "inputs": [
        {
          "internalType": "address",
          "name": "_new",
          "type": "address"
        }
      ],
      "name": "setGovernance",
      "outputs": [],
      "stateMutability": "nonpayable",
      "type": "function"
    },
    {
      "inputs": [
        {
          "internalType": "address",
          "name": "_new",
          "type": "address"
        }
      ],
      "name": "setCNodePool",
      "outputs": [],
      "stateMutability": "nonpayable",
      "type": "function"
    },
    {
      "inputs": [
        {
          "internalType": "uint256",
          "name": "_new",
          "type": "uint256"
        }
      ],
      "name": "setInitCoFiRate",
      "outputs": [],
      "stateMutability": "nonpayable",
      "type": "function"
    },
    {
      "inputs": [
        {
          "internalType": "uint256",
          "name": "_new",
          "type": "uint256"
        }
      ],
      "name": "setDecayPeriod",
      "outputs": [],
      "stateMutability": "nonpayable",
      "type": "function"
    },
    {
      "inputs": [
        {
          "internalType": "uint256",
          "name": "_new",
          "type": "uint256"
        }
      ],
      "name": "setDecayRate",
      "outputs": [],
      "stateMutability": "nonpayable",
      "type": "function"
    },
    {
      "inputs": [],
      "name": "getPendingRewardOfCNode",
      "outputs": [
        {
          "internalType": "uint256",
          "name": "",
          "type": "uint256"
        }
      ],
      "stateMutability": "view",
      "type": "function"
    },
    {
      "inputs": [
        {
          "internalType": "address",
          "name": "to",
          "type": "address"
        },
        {
          "internalType": "uint256",
          "name": "amount",
          "type": "uint256"
        }
      ],
      "name": "distributeReward",
      "outputs": [],
      "stateMutability": "nonpayable",
      "type": "function"
    },
    {
      "inputs": [],
      "name": "currentPeriod",
      "outputs": [
        {
          "internalType": "uint256",
          "name": "",
          "type": "uint256"
        }
      ],
      "stateMutability": "view",
      "type": "function"
    },
    {
      "inputs": [],
      "name": "currentCoFiRate",
      "outputs": [
        {
          "internalType": "uint256",
          "name": "",
          "type": "uint256"
        }
      ],
      "stateMutability": "view",
      "type": "function"
    },
    {
      "inputs": [],
      "name": "getCoFiStakingPool",
      "outputs": [
        {
          "internalType": "address",
          "name": "pool",
          "type": "address"
        }
      ],
      "stateMutability": "view",
      "type": "function"
    }
  ],
  "bytecode": "0x60c06040526706f05b59d3b2000060045562249f00600555605060065534801561002857600080fd5b50604051610eb2380380610eb28339818101604052604081101561004b57600080fd5b508051602090910151600160008190556001600160601b0319606093841b81166080529190921b1660a052600280546001600160a01b0319163317905543905560805160601c60a05160601c610dea6100c86000398061055c52806109a85280610ab05280610af35250806106eb528061087c5250610dea6000f3fe608060405234801561001057600080fd5b506004361061016c5760003560e01c80635aa6e675116100cd578063af1734ac11610081578063c45a015511610066578063c45a0155146102fc578063e3bed9de14610304578063f05b820c1461030c5761016c565b8063af1734ac146102d7578063b26acd7a146102df5761016c565b806379d5d863116100b257806379d5d86314610294578063a9c1f2f11461029c578063ab033ea9146102a45761016c565b80635aa6e6751461025b5780635d941dd51461028c5761016c565b80631ec8bb8c1161012457806348d67e1b1161010957806348d67e1b146102435780634cdc9c631461024b57806355d9cdff146102535761016c565b80631ec8bb8c146101ed578063342f802b146102265761016c565b80630873c6ec116101555780630873c6ec146101aa5780630c5890a0146101b25780631b87ce93146101ba5761016c565b806304e7e0b9146101715780630604061814610190575b600080fd5b61018e6004803603602081101561018757600080fd5b5035610314565b005b610198610385565b60408051918252519081900360200190f35b6101986103ae565b6101986103ba565b61018e600480360360208110156101d057600080fd5b503573ffffffffffffffffffffffffffffffffffffffff166103c0565b61018e6004803603604081101561020357600080fd5b5073ffffffffffffffffffffffffffffffffffffffff81351690602001356104a5565b61018e6004803603602081101561023c57600080fd5b503561079c565b610198610849565b61019861084f565b61018e610855565b61026361085e565b6040805173ffffffffffffffffffffffffffffffffffffffff9092168252519081900360200190f35b61026361087a565b61019861089e565b6101986108eb565b61018e600480360360208110156102ba57600080fd5b503573ffffffffffffffffffffffffffffffffffffffff166108f1565b6102636109a4565b61018e600480360360208110156102f557600080fd5b5035610a3d565b610263610aae565b610263610ad2565b610198610aee565b60025473ffffffffffffffffffffffffffffffffffffffff163314610380576040805162461bcd60e51b815260206004820152601b60248201527f435661756c74466f72434e6f64653a2021676f7665726e616e63650000000000604482015290519081900360640190fd5b600655565b60006103a86005546103a260015443610c2590919063ffffffff16565b90610c87565b90505b90565b670de0b6b3a764000081565b60045481565b60025473ffffffffffffffffffffffffffffffffffffffff16331461042c576040805162461bcd60e51b815260206004820152601b60248201527f435661756c74466f72434e6f64653a2021676f7665726e616e63650000000000604482015290519081900360640190fd5b6003805473ffffffffffffffffffffffffffffffffffffffff83167fffffffffffffffffffffffff0000000000000000000000000000000000000000909116811790915560408051918252517f0f1b318fa687c185963d41cab663189de53d6821932a33d01f2c5cf7c68582479181900360200190a150565b600260005414156104fd576040805162461bcd60e51b815260206004820152601f60248201527f5265656e7472616e637947756172643a207265656e7472616e742063616c6c00604482015290519081900360640190fd5b600260005560035473ffffffffffffffffffffffffffffffffffffffff1633146105585760405162461bcd60e51b8152600401808060200182810382526021815260200180610d736021913960400191505060405180910390fd5b60007f000000000000000000000000000000000000000000000000000000000000000073ffffffffffffffffffffffffffffffffffffffff1663b58aa4786040518163ffffffff1660e01b815260040160206040518083038186803b1580156105c057600080fd5b505afa1580156105d4573d6000803e3d6000fd5b505050506040513d60208110156105ea57600080fd5b5051905073ffffffffffffffffffffffffffffffffffffffff8116156106e95760008173ffffffffffffffffffffffffffffffffffffffff1663f05b820c6040518163ffffffff1660e01b815260040160206040518083038186803b15801561065257600080fd5b505afa158015610666573d6000803e3d6000fd5b505050506040513d602081101561067c57600080fd5b5051905080156106e7578173ffffffffffffffffffffffffffffffffffffffff1663ba30ba246040518163ffffffff1660e01b8152600401600060405180830381600087803b1580156106ce57600080fd5b505af11580156106e2573d6000803e3d6000fd5b505050505b505b7f000000000000000000000000000000000000000000000000000000000000000073ffffffffffffffffffffffffffffffffffffffff166340c10f1984846040518363ffffffff1660e01b8152600401808373ffffffffffffffffffffffffffffffffffffffff16815260200182815260200192505050600060405180830381600087803b15801561077a57600080fd5b505af115801561078e573d6000803e3d6000fd5b505060016000555050505050565b60025473ffffffffffffffffffffffffffffffffffffffff163314610808576040805162461bcd60e51b815260206004820152601b60248201527f435661756c74466f72434e6f64653a2021676f7665726e616e63650000000000604482015290519081900360640190fd5b806108445760405162461bcd60e51b8152600401808060200182810382526024815260200180610d4f6024913960400191505060405180910390fd5b600555565b60055481565b60015481565b62a877b0600155565b60025473ffffffffffffffffffffffffffffffffffffffff1681565b7f000000000000000000000000000000000000000000000000000000000000000081565b6000806108a9610385565b905060048111156108b8575060045b60045460065460005b838110156108e2576108d860646103a28585610cee565b92506001016108c1565b50909250505090565b60065481565b60025473ffffffffffffffffffffffffffffffffffffffff16331461095d576040805162461bcd60e51b815260206004820152601b60248201527f435661756c74466f72434e6f64653a2021676f7665726e616e63650000000000604482015290519081900360640190fd5b600280547fffffffffffffffffffffffff00000000000000000000000000000000000000001673ffffffffffffffffffffffffffffffffffffffff92909216919091179055565b60007f000000000000000000000000000000000000000000000000000000000000000073ffffffffffffffffffffffffffffffffffffffff1663e8a353926040518163ffffffff1660e01b815260040160206040518083038186803b158015610a0c57600080fd5b505afa158015610a20573d6000803e3d6000fd5b505050506040513d6020811015610a3657600080fd5b5051905090565b60025473ffffffffffffffffffffffffffffffffffffffff163314610aa9576040805162461bcd60e51b815260206004820152601b60248201527f435661756c74466f72434e6f64653a2021676f7665726e616e63650000000000604482015290519081900360640190fd5b600455565b7f000000000000000000000000000000000000000000000000000000000000000081565b60035473ffffffffffffffffffffffffffffffffffffffff1681565b6000807f000000000000000000000000000000000000000000000000000000000000000073ffffffffffffffffffffffffffffffffffffffff1663b58aa4786040518163ffffffff1660e01b815260040160206040518083038186803b158015610b5757600080fd5b505afa158015610b6b573d6000803e3d6000fd5b505050506040513d6020811015610b8157600080fd5b5051905073ffffffffffffffffffffffffffffffffffffffff8116610baa5760009150506103ab565b60008173ffffffffffffffffffffffffffffffffffffffff1663f05b820c6040518163ffffffff1660e01b815260040160206040518083038186803b158015610bf257600080fd5b505afa158015610c06573d6000803e3d6000fd5b505050506040513d6020811015610c1c57600080fd5b50519250505090565b600082821115610c7c576040805162461bcd60e51b815260206004820152601e60248201527f536166654d6174683a207375627472616374696f6e206f766572666c6f770000604482015290519081900360640190fd5b508082035b92915050565b6000808211610cdd576040805162461bcd60e51b815260206004820152601a60248201527f536166654d6174683a206469766973696f6e206279207a65726f000000000000604482015290519081900360640190fd5b818381610ce657fe5b049392505050565b600082610cfd57506000610c81565b82820282848281610d0a57fe5b0414610d475760405162461bcd60e51b8152600401808060200182810382526021815260200180610d946021913960400191505060405180910390fd5b939250505056fe435661756c74466f72434e6f64653a2077726f6e6720706572696f642073657474696e67435661756c74466f72434e6f64653a206f6e6c7920706f6f6c20616c6c6f776564536166654d6174683a206d756c7469706c69636174696f6e206f766572666c6f77a2646970667358221220fc47ed1c3741169a296f57e70b336d7043995e1a3d181ea72f1425c0e23a1c9864736f6c634300060c0033",
  "immutableReferences": {
    "8907": [
      {
        "length": 32,
        "start": 1771
      },
      {
        "length": 32,
        "start": 2172
      }
    ],
    "8909": [
      {
        "length": 32,
        "start": 1372
      },
      {
        "length": 32,
        "start": 2472
      },
      {
        "length": 32,
        "start": 2736
      },
      {
        "length": 32,
        "start": 2803
      }
    ]
  },
  "source": "// SPDX-License-Identifier: GPL-3.0-or-later\n\npragma solidity 0.6.12;\n\nimport \"@openzeppelin/contracts/math/SafeMath.sol\";\nimport \"./lib/ABDKMath64x64.sol\";\nimport \"@openzeppelin/contracts/token/ERC20/IERC20.sol\";\nimport \"./interface/ICoFiXVaultForCNode.sol\";\nimport \"./interface/ICoFiXStakingRewards.sol\";\nimport \"./interface/ICoFiToken.sol\";\nimport \"@openzeppelin/contracts/utils/ReentrancyGuard.sol\";\nimport \"./interface/ICoFiXV2Factory.sol\";\nimport \"./interface/ICoFiXV2VaultForTrader.sol\";\n\n// Reward Pool Controller for CNode\ncontract CoFiXV2VaultForCNode is ICoFiXVaultForCNode, ReentrancyGuard {\n\n    using SafeMath for uint256;\n\n    uint256 public constant RATE_BASE = 1e18;\n\n    address public immutable cofiToken;\n    address public immutable factory;\n\n    uint256 public genesisBlock;\n\n    // managed by governance\n    address public governance;\n    address public cnodePool;\n\n    uint256 public initCoFiRate = 0.5*1e18; // yield per block, 5*1e18/10\n    uint256 public decayPeriod = 2400000; // yield decays for every 2,400,000 blocks\n    uint256 public decayRate = 80;\n\n    constructor(address cofi, address _factory) public {\n        cofiToken = cofi;\n        factory = _factory;\n        governance = msg.sender;\n        genesisBlock = block.number; // set v1 genesisBlock to  genesisBlock later\n    }\n\n    // this is for mainnet\n    function setGenesisBlock() external {\n        genesisBlock = 11040688; // follow v1 \n    }\n\n    /* setters for protocol governance */\n    function setGovernance(address _new) external override {\n        require(msg.sender == governance, \"CVaultForCNode: !governance\");\n        governance = _new;\n    }\n\n    function setCNodePool(address _new) external override {\n        require(msg.sender == governance, \"CVaultForCNode: !governance\");\n        cnodePool = _new;\n        emit NewCNodePool(_new);\n    }\n\n    function setInitCoFiRate(uint256 _new) external override {\n        require(msg.sender == governance, \"CVaultForCNode: !governance\");\n        initCoFiRate = _new;\n    }\n\n    function setDecayPeriod(uint256 _new) external override {\n        require(msg.sender == governance, \"CVaultForCNode: !governance\");\n        require(_new != 0, \"CVaultForCNode: wrong period setting\");\n        decayPeriod = _new;\n    }\n\n    function setDecayRate(uint256 _new) external override {\n        require(msg.sender == governance, \"CVaultForCNode: !governance\");\n        decayRate = _new;\n    }\n\n    function getPendingRewardOfCNode() external override view returns (uint256) {\n        address vaultForTrader = ICoFiXV2Factory(factory).getVaultForTrader();\n        if (vaultForTrader == address(0)) {\n            return 0; // vaultForTrader is not set yet\n        }\n        uint256 pending = ICoFiXV2VaultForTrader(vaultForTrader).getPendingRewardOfCNode();\n        return pending;\n    }\n\n    function distributeReward(address to, uint256 amount) external override nonReentrant {\n        require(msg.sender == cnodePool, \"CVaultForCNode: only pool allowed\"); // caution: be careful when adding new pool\n        address vaultForTrader = ICoFiXV2Factory(factory).getVaultForTrader();\n        if (vaultForTrader != address(0)) { // if equal, means vaultForTrader is not set yet\n            uint256 pending = ICoFiXV2VaultForTrader(vaultForTrader).getPendingRewardOfCNode();\n            if (pending > 0) {\n                ICoFiXV2VaultForTrader(vaultForTrader).clearPendingRewardOfCNode();\n            }\n        }\n        ICoFiToken(cofiToken).mint(to, amount); // allows zero\n    }\n\n    function currentPeriod() public override view returns (uint256) {\n        return (block.number).sub(genesisBlock).div(decayPeriod);\n    }\n\n    function currentCoFiRate() public override view returns (uint256) {\n        uint256 periodIdx = currentPeriod();\n        if (periodIdx > 4) {\n            periodIdx = 4; // after 5 years, the rate keep constant\n        }\n        uint256 cofiRate = initCoFiRate;\n        uint256 _decayRate = decayRate;\n        for (uint256 i = 0; i < periodIdx; i++) {\n            cofiRate = cofiRate.mul(_decayRate).div(100);\n        }\n        return cofiRate;\n    }\n\n    function getCoFiStakingPool() external override view returns (address pool) {\n        return ICoFiXV2Factory(factory).getFeeReceiver();\n    }\n\n}",
  "sourcePath": "/Users/lixiansheng/Downloads/cofix2/contracts/CoFiXV2VaultForCNode.sol",
  "compiler": {
    "name": "solc",
    "version": "0.6.12+commit.27d51765.Emscripten.clang"
  },
  "schemaVersion": "3.3.3",
  "updatedAt": "2021-05-14T05:52:50.504Z",
  "devdoc": {
    "kind": "dev",
    "methods": {},
    "version": 1
  },
  "userdoc": {
    "kind": "user",
    "methods": {},
    "version": 1
  }
}