{
  "contractName": "CoFiXV2StakingRewards",
  "abi": [
    {
      "inputs": [
        {
          "internalType": "address",
          "name": "_rewardsToken",
          "type": "address"
        },
        {
          "internalType": "address",
          "name": "_stakingToken",
          "type": "address"
        },
        {
          "internalType": "address",
          "name": "_factory",
          "type": "address"
        }
      ],
      "stateMutability": "nonpayable",
      "type": "constructor"
    },
    {
      "anonymous": false,
      "inputs": [
        {
          "indexed": true,
          "internalType": "address",
          "name": "user",
          "type": "address"
        },
        {
          "indexed": false,
          "internalType": "uint256",
          "name": "amount",
          "type": "uint256"
        }
      ],
      "name": "EmergencyWithdraw",
      "type": "event"
    },
    {
      "anonymous": false,
      "inputs": [
        {
          "indexed": false,
          "internalType": "address",
          "name": "sender",
          "type": "address"
        },
        {
          "indexed": false,
          "internalType": "uint256",
          "name": "reward",
          "type": "uint256"
        }
      ],
      "name": "RewardAdded",
      "type": "event"
    },
    {
      "anonymous": false,
      "inputs": [
        {
          "indexed": true,
          "internalType": "address",
          "name": "user",
          "type": "address"
        },
        {
          "indexed": false,
          "internalType": "uint256",
          "name": "reward",
          "type": "uint256"
        }
      ],
      "name": "RewardPaid",
      "type": "event"
    },
    {
      "anonymous": false,
      "inputs": [
        {
          "indexed": true,
          "internalType": "address",
          "name": "user",
          "type": "address"
        },
        {
          "indexed": false,
          "internalType": "uint256",
          "name": "amount",
          "type": "uint256"
        }
      ],
      "name": "Staked",
      "type": "event"
    },
    {
      "anonymous": false,
      "inputs": [
        {
          "indexed": true,
          "internalType": "address",
          "name": "user",
          "type": "address"
        },
        {
          "indexed": true,
          "internalType": "address",
          "name": "other",
          "type": "address"
        },
        {
          "indexed": false,
          "internalType": "uint256",
          "name": "amount",
          "type": "uint256"
        }
      ],
      "name": "StakedForOther",
      "type": "event"
    },
    {
      "anonymous": false,
      "inputs": [
        {
          "indexed": true,
          "internalType": "address",
          "name": "user",
          "type": "address"
        },
        {
          "indexed": false,
          "internalType": "uint256",
          "name": "amount",
          "type": "uint256"
        }
      ],
      "name": "Withdrawn",
      "type": "event"
    },
    {
      "inputs": [],
      "name": "factory",
      "outputs": [
        {
          "internalType": "address",
          "name": "",
          "type": "address"
        }
      ],
      "stateMutability": "view",
      "type": "function"
    },
    {
      "inputs": [],
      "name": "lastUpdateBlock",
      "outputs": [
        {
          "internalType": "uint256",
          "name": "",
          "type": "uint256"
        }
      ],
      "stateMutability": "view",
      "type": "function"
    },
    {
      "inputs": [],
      "name": "rewardPerTokenStored",
      "outputs": [
        {
          "internalType": "uint256",
          "name": "",
          "type": "uint256"
        }
      ],
      "stateMutability": "view",
      "type": "function"
    },
    {
      "inputs": [
        {
          "internalType": "address",
          "name": "",
          "type": "address"
        }
      ],
      "name": "rewards",
      "outputs": [
        {
          "internalType": "uint256",
          "name": "",
          "type": "uint256"
        }
      ],
      "stateMutability": "view",
      "type": "function"
    },
    {
      "inputs": [],
      "name": "rewardsToken",
      "outputs": [
        {
          "internalType": "address",
          "name": "",
          "type": "address"
        }
      ],
      "stateMutability": "view",
      "type": "function"
    },
    {
      "inputs": [],
      "name": "stakingToken",
      "outputs": [
        {
          "internalType": "address",
          "name": "",
          "type": "address"
        }
      ],
      "stateMutability": "view",
      "type": "function"
    },
    {
      "inputs": [
        {
          "internalType": "address",
          "name": "",
          "type": "address"
        }
      ],
      "name": "userRewardPerTokenPaid",
      "outputs": [
        {
          "internalType": "uint256",
          "name": "",
          "type": "uint256"
        }
      ],
      "stateMutability": "view",
      "type": "function"
    },
    {
      "inputs": [],
      "name": "rewardsVault",
      "outputs": [
        {
          "internalType": "address",
          "name": "",
          "type": "address"
        }
      ],
      "stateMutability": "view",
      "type": "function"
    },
    {
      "inputs": [],
      "name": "totalSupply",
      "outputs": [
        {
          "internalType": "uint256",
          "name": "",
          "type": "uint256"
        }
      ],
      "stateMutability": "view",
      "type": "function"
    },
    {
      "inputs": [
        {
          "internalType": "address",
          "name": "account",
          "type": "address"
        }
      ],
      "name": "balanceOf",
      "outputs": [
        {
          "internalType": "uint256",
          "name": "",
          "type": "uint256"
        }
      ],
      "stateMutability": "view",
      "type": "function"
    },
    {
      "inputs": [],
      "name": "lastBlockRewardApplicable",
      "outputs": [
        {
          "internalType": "uint256",
          "name": "",
          "type": "uint256"
        }
      ],
      "stateMutability": "view",
      "type": "function"
    },
    {
      "inputs": [],
      "name": "rewardPerToken",
      "outputs": [
        {
          "internalType": "uint256",
          "name": "",
          "type": "uint256"
        }
      ],
      "stateMutability": "view",
      "type": "function"
    },
    {
      "inputs": [],
      "name": "rewardRate",
      "outputs": [
        {
          "internalType": "uint256",
          "name": "",
          "type": "uint256"
        }
      ],
      "stateMutability": "view",
      "type": "function"
    },
    {
      "inputs": [],
      "name": "accrued",
      "outputs": [
        {
          "internalType": "uint256",
          "name": "",
          "type": "uint256"
        }
      ],
      "stateMutability": "view",
      "type": "function"
    },
    {
      "inputs": [
        {
          "internalType": "address",
          "name": "account",
          "type": "address"
        }
      ],
      "name": "earned",
      "outputs": [
        {
          "internalType": "uint256",
          "name": "",
          "type": "uint256"
        }
      ],
      "stateMutability": "view",
      "type": "function"
    },
    {
      "inputs": [
        {
          "internalType": "uint256",
          "name": "amount",
          "type": "uint256"
        }
      ],
      "name": "stake",
      "outputs": [],
      "stateMutability": "nonpayable",
      "type": "function"
    },
    {
      "inputs": [
        {
          "internalType": "address",
          "name": "other",
          "type": "address"
        },
        {
          "internalType": "uint256",
          "name": "amount",
          "type": "uint256"
        }
      ],
      "name": "stakeForOther",
      "outputs": [],
      "stateMutability": "nonpayable",
      "type": "function"
    },
    {
      "inputs": [
        {
          "internalType": "uint256",
          "name": "amount",
          "type": "uint256"
        }
      ],
      "name": "withdraw",
      "outputs": [],
      "stateMutability": "nonpayable",
      "type": "function"
    },
    {
      "inputs": [],
      "name": "emergencyWithdraw",
      "outputs": [],
      "stateMutability": "nonpayable",
      "type": "function"
    },
    {
      "inputs": [],
      "name": "getReward",
      "outputs": [],
      "stateMutability": "nonpayable",
      "type": "function"
    },
    {
      "inputs": [],
      "name": "getRewardAndStake",
      "outputs": [],
      "stateMutability": "nonpayable",
      "type": "function"
    },
    {
      "inputs": [],
      "name": "exit",
      "outputs": [],
      "stateMutability": "nonpayable",
      "type": "function"
    },
    {
      "inputs": [
        {
          "internalType": "uint256",
          "name": "amount",
          "type": "uint256"
        }
      ],
      "name": "addReward",
      "outputs": [],
      "stateMutability": "nonpayable",
      "type": "function"
    }
  ],
  "bytecode": "0x60e060405234801561001057600080fd5b50604051611ed3380380611ed38339818101604052606081101561003357600080fd5b508051602080830151604093840151600160009081556001600160601b0319606086811b821660805284901b1660a052855163696bfc0b60e11b8152955194959294919390926001600160a01b0385169263d2d7f81692600480840193919291829003018186803b1580156100a757600080fd5b505afa1580156100bb573d6000803e3d6000fd5b505050506040513d60208110156100d157600080fd5b50516001600160a01b0316141561012f576040805162461bcd60e51b815260206004820152601660248201527f5661756c74466f724c50206e6f74207365742079657400000000000000000000604482015290519081900360640190fd5b6001600160601b031960609190911b1660c05250504360015560805160601c60a05160601c60c05160601c611d246101af60003980610c1552806112435250806109f35280610cba5280610f5c52806111d552806113b2528061162552508061065e5280610e20528061129f5280611a285280611ad25250611d246000f3fe608060405234801561001057600080fd5b506004361061018c5760003560e01c80638b876347116100e3578063cd3daf9d1161008c578063df136d6511610066578063df136d6514610318578063e9fad8ee14610320578063fe72bd01146103285761018c565b8063cd3daf9d14610300578063d1af0c7d14610308578063db2e21bc146103105761018c565b8063a694fc3a116100bd578063a694fc3a146102d3578063abe0429c146102f0578063c45a0155146102f85761018c565b80638b8763471461029d578063a07e52a2146102c3578063a218141b146102cb5761018c565b80633d18b9121161014557806372f702f31161011f57806372f702f31461027057806374de4ec4146102785780637b0a47ee146102955761018c565b80633d18b9121461021e5780635579ed011461022657806370a082311461024a5761018c565b806318160ddd1161017657806318160ddd146101ef57806327e63443146101f75780632e1a7d4d146102015761018c565b80628cc262146101915780630700037d146101c9575b600080fd5b6101b7600480360360208110156101a757600080fd5b50356001600160a01b0316610354565b60408051918252519081900360200190f35b6101b7600480360360208110156101df57600080fd5b50356001600160a01b03166103d2565b6101b76103e4565b6101ff6103eb565b005b6101ff6004803603602081101561021757600080fd5b503561081b565b6101ff610a5a565b61022e610c11565b604080516001600160a01b039092168252519081900360200190f35b6101b76004803603602081101561026057600080fd5b50356001600160a01b0316610c9d565b61022e610cb8565b6101ff6004803603602081101561028e57600080fd5b5035610cdc565b6101b7610eb6565b6101b7600480360360208110156102b357600080fd5b50356001600160a01b0316610f0c565b6101b7610f1e565b6101b7610ff7565b6101ff600480360360208110156102e957600080fd5b5035610ffd565b6101b761123d565b61022e611241565b6101b7611265565b61022e61129d565b6101ff6112c1565b6101b7611416565b6101ff61141c565b6101ff6004803603604081101561033e57600080fd5b506001600160a01b03813516906020013561143f565b6001600160a01b03811660009081526004602090815260408083205460039092528220546103cc91906103c690670de0b6b3a7640000906103c0906103a19061039b611265565b90611698565b6001600160a01b038816600090815260066020526040902054906116f5565b90611755565b906117bc565b92915050565b60046020526000908152604090205481565b6005545b90565b60026000541415610443576040805162461bcd60e51b815260206004820152601f60248201527f5265656e7472616e637947756172643a207265656e7472616e742063616c6c00604482015290519081900360640190fd5b60026000908155339080610455611816565b6002829055909250905080156104dc5761046d610c11565b6001600160a01b0316631ec8bb8c30836040518363ffffffff1660e01b815260040180836001600160a01b0316815260200182815260200192505050600060405180830381600087803b1580156104c357600080fd5b505af11580156104d7573d6000803e3d6000fd5b505050505b6104e461123d565b6001556001600160a01b0383161561052b576104ff83610354565b6001600160a01b0384166000908152600460209081526040808320939093556002546003909152919020555b3360009081526004602052604090205480156108105733600090815260046020526040812081905561055b610c11565b6001600160a01b031663af1734ac6040518163ffffffff1660e01b815260040160206040518083038186803b15801561059357600080fd5b505afa1580156105a7573d6000803e3d6000fd5b505050506040513d60208110156105bd57600080fd5b505190506001600160a01b03811661061c576040805162461bcd60e51b815260206004820152601760248201527f636f66695374616b696e67506f6f6c206e6f7420736574000000000000000000604482015290519081900360640190fd5b604080517f095ea7b30000000000000000000000000000000000000000000000000000000081526001600160a01b0383811660048301526024820185905291517f00000000000000000000000000000000000000000000000000000000000000009283169163095ea7b39160448083019260209291908290030181600087803b1580156106a857600080fd5b505af11580156106bc573d6000803e3d6000fd5b505050506040513d60208110156106d257600080fd5b5050604080517ffe72bd010000000000000000000000000000000000000000000000000000000081523360048201526024810185905290516001600160a01b0384169163fe72bd0191604480830192600092919082900301818387803b15801561073b57600080fd5b505af115801561074f573d6000803e3d6000fd5b50505050806001600160a01b031663095ea7b38360006040518363ffffffff1660e01b815260040180836001600160a01b0316815260200182815260200192505050602060405180830381600087803b1580156107ab57600080fd5b505af11580156107bf573d6000803e3d6000fd5b505050506040513d60208110156107d557600080fd5b505060408051848152905133917fe2403640ba68fed3a2f88b7557551d1993f84b99bb10ff833f0cf8db0c5e0486919081900360200190a250505b505060016000555050565b60026000541415610873576040805162461bcd60e51b815260206004820152601f60248201527f5265656e7472616e637947756172643a207265656e7472616e742063616c6c00604482015290519081900360640190fd5b60026000908155339080610885611816565b60028290559092509050801561090c5761089d610c11565b6001600160a01b0316631ec8bb8c30836040518363ffffffff1660e01b815260040180836001600160a01b0316815260200182815260200192505050600060405180830381600087803b1580156108f357600080fd5b505af1158015610907573d6000803e3d6000fd5b505050505b61091461123d565b6001556001600160a01b0383161561095b5761092f83610354565b6001600160a01b0384166000908152600460209081526040808320939093556002546003909152919020555b600084116109b0576040805162461bcd60e51b815260206004820152601160248201527f43616e6e6f742077697468647261772030000000000000000000000000000000604482015290519081900360640190fd5b6005546109bd9085611698565b600555336000908152600660205260409020546109da9085611698565b33600081815260066020526040902091909155610a19907f0000000000000000000000000000000000000000000000000000000000000000908661186d565b60408051858152905133917f7084f5476618d8e60b11ef0d7d3f06914655adb8793e28ff7f018d4c76d505d5919081900360200190a2505060016000555050565b60026000541415610ab2576040805162461bcd60e51b815260206004820152601f60248201527f5265656e7472616e637947756172643a207265656e7472616e742063616c6c00604482015290519081900360640190fd5b60026000908155339080610ac4611816565b600282905590925090508015610b4b57610adc610c11565b6001600160a01b0316631ec8bb8c30836040518363ffffffff1660e01b815260040180836001600160a01b0316815260200182815260200192505050600060405180830381600087803b158015610b3257600080fd5b505af1158015610b46573d6000803e3d6000fd5b505050505b610b5361123d565b6001556001600160a01b03831615610b9a57610b6e83610354565b6001600160a01b0384166000908152600460209081526040808320939093556002546003909152919020555b3360009081526004602052604090205480156108105733600081815260046020526040812081905590610bcd9083611a23565b60408051828152905191925033917fe2403640ba68fed3a2f88b7557551d1993f84b99bb10ff833f0cf8db0c5e04869181900360200190a250505060016000555050565b60007f00000000000000000000000000000000000000000000000000000000000000006001600160a01b031663d2d7f8166040518163ffffffff1660e01b815260040160206040518083038186803b158015610c6c57600080fd5b505afa158015610c80573d6000803e3d6000fd5b505050506040513d6020811015610c9657600080fd5b5051905090565b6001600160a01b031660009081526006602052604090205490565b7f000000000000000000000000000000000000000000000000000000000000000081565b60026000541415610d34576040805162461bcd60e51b815260206004820152601f60248201527f5265656e7472616e637947756172643a207265656e7472616e742063616c6c00604482015290519081900360640190fd5b600260009081558080610d45611816565b600282905590925090508015610dcc57610d5d610c11565b6001600160a01b0316631ec8bb8c30836040518363ffffffff1660e01b815260040180836001600160a01b0316815260200182815260200192505050600060405180830381600087803b158015610db357600080fd5b505af1158015610dc7573d6000803e3d6000fd5b505050505b610dd461123d565b6001556001600160a01b03831615610e1b57610def83610354565b6001600160a01b0384166000908152600460209081526040808320939093556002546003909152919020555b610e477f0000000000000000000000000000000000000000000000000000000000000000333087611b00565b600554610e6d90610e64906103c087670de0b6b3a76400006116f5565b600254906117bc565b600255604080513381526020810186905281517fac24935fd910bc682b5ccb1a07b718cadf8cf2f6d1404c4f3ddc3662dae40e29929181900390910190a1505060016000555050565b6000610ec0610c11565b6001600160a01b031663643a8b24306040518263ffffffff1660e01b815260040180826001600160a01b0316815260200191505060206040518083038186803b158015610c6c57600080fd5b60036020526000908152604090205481565b600080610f40610f2c610eb6565b610f3a60015461039b61123d565b906116f5565b90506000610f4c610c11565b6001600160a01b031663a66771db7f00000000000000000000000000000000000000000000000000000000000000006040518263ffffffff1660e01b815260040180826001600160a01b0316815260200191505060206040518083038186803b158015610fb857600080fd5b505afa158015610fcc573d6000803e3d6000fd5b505050506040513d6020811015610fe257600080fd5b50519050610ff082826117bc565b9250505090565b60015481565b60026000541415611055576040805162461bcd60e51b815260206004820152601f60248201527f5265656e7472616e637947756172643a207265656e7472616e742063616c6c00604482015290519081900360640190fd5b60026000908155339080611067611816565b6002829055909250905080156110ee5761107f610c11565b6001600160a01b0316631ec8bb8c30836040518363ffffffff1660e01b815260040180836001600160a01b0316815260200182815260200192505050600060405180830381600087803b1580156110d557600080fd5b505af11580156110e9573d6000803e3d6000fd5b505050505b6110f661123d565b6001556001600160a01b0383161561113d5761111183610354565b6001600160a01b0384166000908152600460209081526040808320939093556002546003909152919020555b60008411611192576040805162461bcd60e51b815260206004820152600e60248201527f43616e6e6f74207374616b652030000000000000000000000000000000000000604482015290519081900360640190fd5b60055461119f90856117bc565b600555336000908152600660205260409020546111bc90856117bc565b336000818152600660205260409020919091556111fc907f0000000000000000000000000000000000000000000000000000000000000000903087611b00565b60408051858152905133917f9e71bc8eea02a63969f509818f2dafb9254532904319f9dbda79b67bd34a5f3d919081900360200190a2505060016000555050565b4390565b7f000000000000000000000000000000000000000000000000000000000000000081565b60006005546000141561127b57506002546103e8565b611298610e646005546103c0670de0b6b3a7640000610f3a610f1e565b905090565b7f000000000000000000000000000000000000000000000000000000000000000081565b60026000541415611319576040805162461bcd60e51b815260206004820152601f60248201527f5265656e7472616e637947756172643a207265656e7472616e742063616c6c00604482015290519081900360640190fd5b60026000908155338152600660205260409020548061137f576040805162461bcd60e51b815260206004820152601160248201527f43616e6e6f742077697468647261772030000000000000000000000000000000604482015290519081900360640190fd5b60055461138c9082611698565b60055533600081815260066020908152604080832083905560049091528120556113d8907f0000000000000000000000000000000000000000000000000000000000000000908361186d565b60408051828152905133917f5fafa99d0643513820be26656b45130b01e1c03062e1266bf36f88cbd3bd9695919081900360200190a2506001600055565b60025481565b336000908152600660205260409020546114359061081b565b61143d610a5a565b565b60026000541415611497576040805162461bcd60e51b815260206004820152601f60248201527f5265656e7472616e637947756172643a207265656e7472616e742063616c6c00604482015290519081900360640190fd5b600260009081558290806114a9611816565b600282905590925090508015611530576114c1610c11565b6001600160a01b0316631ec8bb8c30836040518363ffffffff1660e01b815260040180836001600160a01b0316815260200182815260200192505050600060405180830381600087803b15801561151757600080fd5b505af115801561152b573d6000803e3d6000fd5b505050505b61153861123d565b6001556001600160a01b0383161561157f5761155383610354565b6001600160a01b0384166000908152600460209081526040808320939093556002546003909152919020555b600084116115d4576040805162461bcd60e51b815260206004820152600e60248201527f43616e6e6f74207374616b652030000000000000000000000000000000000000604482015290519081900360640190fd5b6005546115e190856117bc565b6005556001600160a01b03851660009081526006602052604090205461160790856117bc565b6001600160a01b03861660009081526006602052604090205561164c7f0000000000000000000000000000000000000000000000000000000000000000333087611b00565b6040805185815290516001600160a01b0387169133917ff6709c821eb43e8e9953ad8ac910b4591a380ae9f014d75ce7d7a2a34299e0ef9181900360200190a350506001600055505050565b6000828211156116ef576040805162461bcd60e51b815260206004820152601e60248201527f536166654d6174683a207375627472616374696f6e206f766572666c6f770000604482015290519081900360640190fd5b50900390565b600082611704575060006103cc565b8282028284828161171157fe5b041461174e5760405162461bcd60e51b8152600401808060200182810382526021815260200180611caa6021913960400191505060405180910390fd5b9392505050565b60008082116117ab576040805162461bcd60e51b815260206004820152601a60248201527f536166654d6174683a206469766973696f6e206279207a65726f000000000000604482015290519081900360640190fd5b8183816117b457fe5b049392505050565b60008282018381101561174e576040805162461bcd60e51b815260206004820152601b60248201527f536166654d6174683a206164646974696f6e206f766572666c6f770000000000604482015290519081900360640190fd5b600080600554600014156118305750506002546000611869565b600061183a610f1e565b90506000611862610e646005546103c0670de0b6b3a7640000866116f590919063ffffffff16565b9350909150505b9091565b604080516001600160a01b038481166024830152604480830185905283518084039091018152606490920183526020820180517bffffffffffffffffffffffffffffffffffffffffffffffffffffffff167fa9059cbb00000000000000000000000000000000000000000000000000000000178152925182516000946060949389169392918291908083835b6020831061193657805182527fffffffffffffffffffffffffffffffffffffffffffffffffffffffffffffffe090920191602091820191016118f9565b6001836020036101000a0380198251168184511680821785525050505050509050019150506000604051808303816000865af19150503d8060008114611998576040519150601f19603f3d011682016040523d82523d6000602084013e61199d565b606091505b50915091508180156119cb5750805115806119cb57508080602001905160208110156119c857600080fd5b50515b611a1c576040805162461bcd60e51b815260206004820152601f60248201527f5472616e7366657248656c7065723a205452414e534645525f4641494c454400604482015290519081900360640190fd5b5050505050565b6000807f00000000000000000000000000000000000000000000000000000000000000006001600160a01b03166370a08231306040518263ffffffff1660e01b815260040180826001600160a01b0316815260200191505060206040518083038186803b158015611a9357600080fd5b505afa158015611aa7573d6000803e3d6000fd5b505050506040513d6020811015611abd57600080fd5b5051905080831115611acd578092505b611af87f0000000000000000000000000000000000000000000000000000000000000000858561186d565b509092915050565b604080516001600160a01b0385811660248301528481166044830152606480830185905283518084039091018152608490920183526020820180517bffffffffffffffffffffffffffffffffffffffffffffffffffffffff167f23b872dd0000000000000000000000000000000000000000000000000000000017815292518251600094606094938a169392918291908083835b60208310611bd157805182527fffffffffffffffffffffffffffffffffffffffffffffffffffffffffffffffe09092019160209182019101611b94565b6001836020036101000a0380198251168184511680821785525050505050509050019150506000604051808303816000865af19150503d8060008114611c33576040519150601f19603f3d011682016040523d82523d6000602084013e611c38565b606091505b5091509150818015611c66575080511580611c665750808060200190516020811015611c6357600080fd5b50515b611ca15760405162461bcd60e51b8152600401808060200182810382526024815260200180611ccb6024913960400191505060405180910390fd5b50505050505056fe536166654d6174683a206d756c7469706c69636174696f6e206f766572666c6f775472616e7366657248656c7065723a205452414e534645525f46524f4d5f4641494c4544a26469706673582212204b3349e3c77c35ff05f741b909d7bdb1341430b1264c4231674cf734ce18f84464736f6c634300060c0033",
  "immutableReferences": {
    "8067": [
      {
        "length": 32,
        "start": 1630
      },
      {
        "length": 32,
        "start": 3616
      },
      {
        "length": 32,
        "start": 4767
      },
      {
        "length": 32,
        "start": 6696
      },
      {
        "length": 32,
        "start": 6866
      }
    ],
    "8070": [
      {
        "length": 32,
        "start": 2547
      },
      {
        "length": 32,
        "start": 3258
      },
      {
        "length": 32,
        "start": 3932
      },
      {
        "length": 32,
        "start": 4565
      },
      {
        "length": 32,
        "start": 5042
      },
      {
        "length": 32,
        "start": 5669
      }
    ],
    "8072": [
      {
        "length": 32,
        "start": 3093
      },
      {
        "length": 32,
        "start": 4675
      }
    ]
  },
  "source": "// SPDX-License-Identifier: GPL-3.0-or-later\n\npragma solidity 0.6.12;\n\nimport \"@openzeppelin/contracts/math/SafeMath.sol\";\nimport \"./lib/TransferHelper.sol\";\nimport \"@openzeppelin/contracts/math/Math.sol\";\nimport \"@openzeppelin/contracts/utils/ReentrancyGuard.sol\";\nimport \"./interface/ICoFiXStakingRewards.sol\";\nimport \"./interface/ICoFiXVaultForLP.sol\";\nimport \"@openzeppelin/contracts/token/ERC20/IERC20.sol\";\nimport \"./interface/ICoFiStakingRewards.sol\";\nimport \"./interface/ICoFiXV2Factory.sol\";\n\n// Stake XToken to earn CoFi Token\ncontract CoFiXV2StakingRewards is ICoFiXStakingRewards, ReentrancyGuard {\n    using SafeMath for uint256;\n\n    /* ========== STATE VARIABLES ========== */\n\n    address public override immutable rewardsToken; // CoFi\n    address public override immutable stakingToken; // XToken or CNode\n\n    address public immutable factory;\n\n    uint256 public lastUpdateBlock;\n    uint256 public rewardPerTokenStored;\n\n    mapping(address => uint256) public userRewardPerTokenPaid;\n    mapping(address => uint256) public rewards;\n\n    uint256 private _totalSupply;\n    mapping(address => uint256) private _balances;\n\n    /* ========== CONSTRUCTOR ========== */\n\n    constructor(\n        address _rewardsToken,\n        address _stakingToken,\n        address _factory\n    ) public {\n        rewardsToken = _rewardsToken;\n        stakingToken = _stakingToken;\n        require(ICoFiXV2Factory(_factory).getVaultForLP() != address(0), \"VaultForLP not set yet\"); // check\n        factory = _factory;\n        lastUpdateBlock = block.number;        \n    }\n\n    /* ========== VIEWS ========== */\n\n    // replace cofixVault with rewardsVault, this could introduce more calls, but clear is more important \n    function rewardsVault() public virtual override view returns (address) {\n        return ICoFiXV2Factory(factory).getVaultForLP();\n    }\n\n    function totalSupply() external override view returns (uint256) {\n        return _totalSupply;\n    }\n\n    function balanceOf(address account) external override view returns (uint256) {\n        return _balances[account];\n    }\n\n    function lastBlockRewardApplicable() public override view returns (uint256) {\n        return block.number;\n    }\n\n    function rewardPerToken() public override view returns (uint256) {\n        if (_totalSupply == 0) {\n            return rewardPerTokenStored;\n        }\n        return\n            rewardPerTokenStored.add(\n                accrued().mul(1e18).div(_totalSupply)\n            );\n    }\n\n    function _rewardPerTokenAndAccrued() internal view returns (uint256, uint256) {\n        if (_totalSupply == 0) {\n            // use the old rewardPerTokenStored, and accrued should be zero here\n            // if not the new accrued amount will never be distributed to anyone\n            return (rewardPerTokenStored, 0);\n        }\n        uint256 _accrued = accrued();\n        uint256 _rewardPerToken = rewardPerTokenStored.add(\n                _accrued.mul(1e18).div(_totalSupply)\n            );\n        return (_rewardPerToken, _accrued);\n    }\n\n    function rewardRate() public virtual override view returns (uint256) {\n        return ICoFiXVaultForLP(rewardsVault()).currentPoolRate(address(this));\n    }\n\n    function accrued() public virtual override view returns (uint256) {\n        // calc block rewards\n        uint256 blockReward = lastBlockRewardApplicable().sub(lastUpdateBlock).mul(rewardRate());\n        // query pair trading rewards\n        uint256 tradingReward = ICoFiXVaultForLP(rewardsVault()).getPendingRewardOfLP(stakingToken);\n        return blockReward.add(tradingReward);\n    }\n\n    function earned(address account) public override view returns (uint256) {\n        return _balances[account].mul(rewardPerToken().sub(userRewardPerTokenPaid[account])).div(1e18).add(rewards[account]);\n    }\n\n    /* ========== MUTATIVE FUNCTIONS ========== */\n\n    function stake(uint256 amount) external override nonReentrant updateReward(msg.sender) {\n        require(amount > 0, \"Cannot stake 0\");\n        _totalSupply = _totalSupply.add(amount);\n        _balances[msg.sender] = _balances[msg.sender].add(amount);\n        TransferHelper.safeTransferFrom(stakingToken, msg.sender, address(this), amount);\n        emit Staked(msg.sender, amount);\n    }\n\n    function stakeForOther(address other, uint256 amount) external override nonReentrant updateReward(other) {\n        require(amount > 0, \"Cannot stake 0\");\n        _totalSupply = _totalSupply.add(amount);\n        _balances[other] = _balances[other].add(amount);\n        TransferHelper.safeTransferFrom(stakingToken, msg.sender, address(this), amount);\n        emit StakedForOther(msg.sender, other, amount);\n    }\n\n    function withdraw(uint256 amount) public override nonReentrant updateReward(msg.sender) {\n        require(amount > 0, \"Cannot withdraw 0\");\n        _totalSupply = _totalSupply.sub(amount);\n        _balances[msg.sender] = _balances[msg.sender].sub(amount);\n        TransferHelper.safeTransfer(stakingToken, msg.sender, amount);\n        emit Withdrawn(msg.sender, amount);\n    }\n\n    // Withdraw without caring about rewards. EMERGENCY ONLY.\n    function emergencyWithdraw() external override nonReentrant {\n        uint256 amount = _balances[msg.sender];\n        require(amount > 0, \"Cannot withdraw 0\");\n        _totalSupply = _totalSupply.sub(amount);\n        _balances[msg.sender] = 0;\n        rewards[msg.sender] = 0;\n        TransferHelper.safeTransfer(stakingToken, msg.sender, amount);\n        emit EmergencyWithdraw(msg.sender, amount);\n    }\n\n    function getReward() public override nonReentrant updateReward(msg.sender) {\n        uint256 reward = rewards[msg.sender];\n        if (reward > 0) {\n            rewards[msg.sender] = 0;\n            // TransferHelper.safeTransfer(rewardsToken, msg.sender, reward);\n            uint256 transferred = _safeCoFiTransfer(msg.sender, reward);\n            emit RewardPaid(msg.sender, transferred);\n        }\n    }\n\n    // get CoFi rewards and staking into CoFiStakingRewards pool\n    function getRewardAndStake() external override nonReentrant updateReward(msg.sender) {\n        uint256 reward = rewards[msg.sender];\n        if (reward > 0) {\n            rewards[msg.sender] = 0;\n            address cofiStakingPool = ICoFiXVaultForLP(rewardsVault()).getCoFiStakingPool(); // also work for VaultForCNode\n            require(cofiStakingPool != address(0), \"cofiStakingPool not set\");\n            // approve to staking pool\n            address _rewardsToken = rewardsToken;\n            IERC20(_rewardsToken).approve(cofiStakingPool, reward);\n            ICoFiStakingRewards(cofiStakingPool).stakeForOther(msg.sender, reward);\n            IERC20(_rewardsToken).approve(cofiStakingPool, 0); // ensure\n            emit RewardPaid(msg.sender, reward);\n        }\n    }\n\n    function exit() external override {\n        withdraw(_balances[msg.sender]);\n        getReward();\n    }\n\n    // add reward from trading pool or anyone else\n    function addReward(uint256 amount) public override nonReentrant updateReward(address(0)) {\n        // transfer from caller (router contract)\n        TransferHelper.safeTransferFrom(rewardsToken, msg.sender, address(this), amount);\n        // update rewardPerTokenStored\n        rewardPerTokenStored = rewardPerTokenStored.add(amount.mul(1e18).div(_totalSupply));\n        emit RewardAdded(msg.sender, amount);\n    }\n\n    // Safe CoFi transfer function, just in case if rounding error or ending of mining causes pool to not have enough CoFis.\n    function _safeCoFiTransfer(address _to, uint256 _amount) internal returns (uint256) {\n        uint256 cofiBal = IERC20(rewardsToken).balanceOf(address(this));\n        if (_amount > cofiBal) {\n            _amount = cofiBal;\n        }\n        TransferHelper.safeTransfer(rewardsToken, _to, _amount); // allow zero amount\n        return _amount;\n    }\n\n    /* ========== MODIFIERS ========== */\n\n    modifier updateReward(address account) virtual {\n        // rewardPerTokenStored = rewardPerToken();\n        // uint256 newAccrued = accrued();\n        (uint256 newRewardPerToken, uint256 newAccrued) = _rewardPerTokenAndAccrued();\n        rewardPerTokenStored = newRewardPerToken;\n        if (newAccrued > 0) {\n            // distributeReward could fail if CoFiXVaultForLP is not minter of CoFi anymore\n            // Should set reward rate to zero first, and then do a settlement of pool reward by call getReward\n            ICoFiXVaultForLP(rewardsVault()).distributeReward(address(this), newAccrued);\n        } \n        lastUpdateBlock = lastBlockRewardApplicable();\n        if (account != address(0)) {\n            rewards[account] = earned(account);\n            userRewardPerTokenPaid[account] = rewardPerTokenStored;\n        }\n        _;\n    }\n\n    /* ========== EVENTS ========== */\n\n    event RewardAdded(address sender, uint256 reward);\n    event Staked(address indexed user, uint256 amount);\n    event StakedForOther(address indexed user, address indexed other, uint256 amount);\n    event Withdrawn(address indexed user, uint256 amount);\n    event EmergencyWithdraw(address indexed user, uint256 amount);\n    event RewardPaid(address indexed user, uint256 reward);\n}",
  "sourcePath": "/Users/lixiansheng/Downloads/cofix2/contracts/CoFiXV2StakingRewards.sol",
  "compiler": {
    "name": "solc",
    "version": "0.6.12+commit.27d51765.Emscripten.clang"
  },
  "schemaVersion": "3.3.3",
  "updatedAt": "2021-05-14T05:46:42.404Z",
  "devdoc": {
    "kind": "dev",
    "methods": {
      "accrued()": {
        "details": "How many reward tokens accrued recently",
        "returns": {
          "_0": "The amount of reward tokens accrued recently"
        }
      },
      "addReward(uint256)": {
        "details": "Add reward to the mining pool"
      },
      "balanceOf(address)": {
        "details": "How many stakingToken (XToken) deposited by the target account",
        "params": {
          "account": "The target account"
        },
        "returns": {
          "_0": "The total amount of XToken deposited in this mining pool"
        }
      },
      "earned(address)": {
        "details": "How many reward tokens a user has earned but not claimed at present",
        "params": {
          "account": "The target account"
        },
        "returns": {
          "_0": "The amount of reward tokens a user earned"
        }
      },
      "emergencyWithdraw()": {
        "details": "Withdraw without caring about rewards. EMERGENCY ONLY."
      },
      "exit()": {
        "details": "User exit the reward pool, it's actually withdraw and getReward"
      },
      "getReward()": {
        "details": "Claim the reward the user earned"
      },
      "lastBlockRewardApplicable()": {
        "details": "The lastBlock reward applicable",
        "returns": {
          "_0": "Returns the latest block.number on-chain"
        }
      },
      "rewardPerToken()": {
        "details": "Reward amount represents by per staking token"
      },
      "rewardRate()": {
        "details": "Get the latest reward rate of this mining pool (tokens amount per block)",
        "returns": {
          "_0": "The latest reward rate"
        }
      },
      "rewardsVault()": {
        "details": "The rewards vault contract address set in factory contract",
        "returns": {
          "_0": "Returns the vault address"
        }
      },
      "stake(uint256)": {
        "details": "Stake/Deposit into the reward pool (mining pool)",
        "params": {
          "amount": "The target amount"
        }
      },
      "stakeForOther(address,uint256)": {
        "details": "Stake/Deposit into the reward pool (mining pool) for other account",
        "params": {
          "amount": "The target amount",
          "other": "The target account"
        }
      },
      "totalSupply()": {
        "details": "How many stakingToken (XToken) deposited into to this reward pool (mining pool)",
        "returns": {
          "_0": "The total amount of XTokens deposited in this mining pool"
        }
      },
      "withdraw(uint256)": {
        "details": "Withdraw from the reward pool (mining pool), get the original tokens back",
        "params": {
          "amount": "The target amount"
        }
      }
    },
    "stateVariables": {
      "rewardsToken": {
        "details": "Get the address of token for rewards in this mining pool",
        "return": "The rewards token address"
      },
      "stakingToken": {
        "details": "Get the address of token for staking in this mining pool",
        "return": "The staking token address"
      }
    },
    "version": 1
  },
  "userdoc": {
    "kind": "user",
    "methods": {},
    "version": 1
  }
}