{
  "contractName": "CoFiXV2DAO",
  "abi": [
    {
      "inputs": [
        {
          "internalType": "address",
          "name": "_cofiToken",
          "type": "address"
        },
        {
          "internalType": "address",
          "name": "_factory",
          "type": "address"
        }
      ],
      "stateMutability": "nonpayable",
      "type": "constructor"
    },
    {
      "anonymous": false,
      "inputs": [
        {
          "indexed": false,
          "internalType": "address",
          "name": "gov",
          "type": "address"
        },
        {
          "indexed": false,
          "internalType": "uint256",
          "name": "amount",
          "type": "uint256"
        }
      ],
      "name": "CoFiBurn",
      "type": "event"
    },
    {
      "anonymous": false,
      "inputs": [
        {
          "indexed": false,
          "internalType": "address",
          "name": "gov",
          "type": "address"
        },
        {
          "indexed": false,
          "internalType": "uint256",
          "name": "flag",
          "type": "uint256"
        }
      ],
      "name": "FlagSet",
      "type": "event"
    },
    {
      "inputs": [],
      "name": "cofiToken",
      "outputs": [
        {
          "internalType": "address",
          "name": "",
          "type": "address"
        }
      ],
      "stateMutability": "view",
      "type": "function"
    },
    {
      "inputs": [],
      "name": "factory",
      "outputs": [
        {
          "internalType": "address",
          "name": "",
          "type": "address"
        }
      ],
      "stateMutability": "view",
      "type": "function"
    },
    {
      "inputs": [],
      "name": "flag",
      "outputs": [
        {
          "internalType": "uint8",
          "name": "",
          "type": "uint8"
        }
      ],
      "stateMutability": "view",
      "type": "function"
    },
    {
      "inputs": [],
      "name": "governance",
      "outputs": [
        {
          "internalType": "address",
          "name": "",
          "type": "address"
        }
      ],
      "stateMutability": "view",
      "type": "function"
    },
    {
      "inputs": [],
      "name": "lastBlock",
      "outputs": [
        {
          "internalType": "uint32",
          "name": "",
          "type": "uint32"
        }
      ],
      "stateMutability": "view",
      "type": "function"
    },
    {
      "inputs": [],
      "name": "lastCollectingBlock",
      "outputs": [
        {
          "internalType": "uint32",
          "name": "",
          "type": "uint32"
        }
      ],
      "stateMutability": "view",
      "type": "function"
    },
    {
      "inputs": [],
      "name": "quotaAmount",
      "outputs": [
        {
          "internalType": "uint128",
          "name": "",
          "type": "uint128"
        }
      ],
      "stateMutability": "view",
      "type": "function"
    },
    {
      "inputs": [],
      "name": "redeemedAmount",
      "outputs": [
        {
          "internalType": "uint128",
          "name": "",
          "type": "uint128"
        }
      ],
      "stateMutability": "view",
      "type": "function"
    },
    {
      "inputs": [],
      "name": "startedBlock",
      "outputs": [
        {
          "internalType": "uint32",
          "name": "",
          "type": "uint32"
        }
      ],
      "stateMutability": "view",
      "type": "function"
    },
    {
      "stateMutability": "payable",
      "type": "receive"
    },
    {
      "inputs": [
        {
          "internalType": "address",
          "name": "_new",
          "type": "address"
        }
      ],
      "name": "setGovernance",
      "outputs": [],
      "stateMutability": "nonpayable",
      "type": "function"
    },
    {
      "inputs": [],
      "name": "start",
      "outputs": [],
      "stateMutability": "nonpayable",
      "type": "function"
    },
    {
      "inputs": [],
      "name": "pause",
      "outputs": [],
      "stateMutability": "nonpayable",
      "type": "function"
    },
    {
      "inputs": [],
      "name": "resume",
      "outputs": [],
      "stateMutability": "nonpayable",
      "type": "function"
    },
    {
      "inputs": [],
      "name": "totalETHRewards",
      "outputs": [
        {
          "internalType": "uint256",
          "name": "",
          "type": "uint256"
        }
      ],
      "stateMutability": "view",
      "type": "function"
    },
    {
      "inputs": [
        {
          "internalType": "address",
          "name": "_newDAO",
          "type": "address"
        }
      ],
      "name": "migrateTo",
      "outputs": [],
      "stateMutability": "nonpayable",
      "type": "function"
    },
    {
      "inputs": [
        {
          "internalType": "uint256",
          "name": "amount",
          "type": "uint256"
        }
      ],
      "name": "burnCofi",
      "outputs": [],
      "stateMutability": "nonpayable",
      "type": "function"
    },
    {
      "inputs": [],
      "name": "addETHReward",
      "outputs": [],
      "stateMutability": "payable",
      "type": "function"
    },
    {
      "inputs": [
        {
          "internalType": "uint256",
          "name": "amount",
          "type": "uint256"
        }
      ],
      "name": "redeem",
      "outputs": [],
      "stateMutability": "payable",
      "type": "function"
    },
    {
      "inputs": [],
      "name": "quotaOf",
      "outputs": [
        {
          "internalType": "uint256",
          "name": "quota",
          "type": "uint256"
        }
      ],
      "stateMutability": "view",
      "type": "function"
    }
  ],
  "bytecode": "0x608060405234801561001057600080fd5b5060405161183b38038061183b8339818101604052604081101561003357600080fd5b50805160209091015160016000819055600380546001600160a01b039485166001600160a01b031991821617909155600480549490931693811693909317909155600580549092163317909155805460ff1916811790556117a2806100996000396000f3fe6080604052600436106101485760003560e01c8063806b984f116100c0578063ae5b038911610074578063be9a655511610059578063be9a655514610393578063c45a0155146103a8578063db006a75146103bd5761014f565b8063ae5b038914610369578063bc472e291461037e5761014f565b8063890eba68116100a5578063890eba68146102e9578063a773184214610314578063ab033ea9146103295761014f565b8063806b984f146102bf5780638456cb59146102d45761014f565b806341f894ff116101175780635aa6e675116100fc5780635aa6e6751461023e5780635d941dd51461027c5780636d6577a4146102915761014f565b806341f894ff146101f65780634ddaf8f2146101fe5761014f565b8063046f7da2146101545780631a57dffb1461016b5780631dec47fe146101955780633f83e9c8146101cf5761014f565b3661014f57005b600080fd5b34801561016057600080fd5b506101696103da565b005b34801561017757600080fd5b506101696004803603602081101561018e57600080fd5b50356104b1565b3480156101a157600080fd5b506101aa61074c565b604080516fffffffffffffffffffffffffffffffff9092168252519081900360200190f35b3480156101db57600080fd5b506101e4610764565b60408051918252519081900360200190f35b610169610773565b34801561020a57600080fd5b506101696004803603602081101561022157600080fd5b503573ffffffffffffffffffffffffffffffffffffffff16610775565b34801561024a57600080fd5b5061025361099d565b6040805173ffffffffffffffffffffffffffffffffffffffff9092168252519081900360200190f35b34801561028857600080fd5b506102536109b9565b34801561029d57600080fd5b506102a66109d5565b6040805163ffffffff9092168252519081900360200190f35b3480156102cb57600080fd5b506102a66109e6565b3480156102e057600080fd5b506101696109ff565b3480156102f557600080fd5b506102fe610ad6565b6040805160ff9092168252519081900360200190f35b34801561032057600080fd5b506101aa610adf565b34801561033557600080fd5b506101696004803603602081101561034c57600080fd5b503573ffffffffffffffffffffffffffffffffffffffff16610b08565b34801561037557600080fd5b506102a6610bbb565b34801561038a57600080fd5b506101e4610bd0565b34801561039f57600080fd5b50610169610bd4565b3480156103b457600080fd5b50610253610d33565b610169600480360360208110156103d357600080fd5b5035610d4f565b60055473ffffffffffffffffffffffffffffffffffffffff163314610446576040805162461bcd60e51b815260206004820152601460248201527f4344414f3a206e6f7420676f7665726e616e6365000000000000000000000000604482015290519081900360640190fd5b600180547fffffffffffffffffffffffffffffffffffffffffffffffffffffffffffffff0016600290811790915560408051338152602081019290925280517f5f136d3b405931da808102d65c5c331d1bfcbd4e7127777914d480cd106ca5ae9281900390910190a1565b60055473ffffffffffffffffffffffffffffffffffffffff16331461051d576040805162461bcd60e51b815260206004820152601460248201527f4344414f3a206e6f7420676f7665726e616e6365000000000000000000000000604482015290519081900360640190fd5b60008111610572576040805162461bcd60e51b815260206004820152601460248201527f4344414f3a20696c6c6567616c20616d6f756e74000000000000000000000000604482015290519081900360640190fd5b600354604080517f70a08231000000000000000000000000000000000000000000000000000000008152306004820152905160009273ffffffffffffffffffffffffffffffffffffffff16916370a08231916024808301926020929190829003018186803b1580156105e357600080fd5b505afa1580156105f7573d6000803e3d6000fd5b505050506040513d602081101561060d57600080fd5b5051905081811015610666576040805162461bcd60e51b815260206004820152601760248201527f4344414f3a20696e73756666696369656e7420636f6669000000000000000000604482015290519081900360640190fd5b600354604080517fa9059cbb0000000000000000000000000000000000000000000000000000000081526001600482015260248101859052905173ffffffffffffffffffffffffffffffffffffffff9092169163a9059cbb916044808201926020929091908290030181600087803b1580156106e157600080fd5b505af11580156106f5573d6000803e3d6000fd5b505050506040513d602081101561070b57600080fd5b5050604080513381526020810184905281517f6726e414a967f4e11d89271b4501038b28c3bf4ff8e3d8c1ccba8bbe517fbc8e929181900390910190a15050565b6002546fffffffffffffffffffffffffffffffff1681565b600061076e611386565b905090565b565b60055473ffffffffffffffffffffffffffffffffffffffff1633146107e1576040805162461bcd60e51b815260206004820152601460248201527f4344414f3a206e6f7420676f7665726e616e6365000000000000000000000000604482015290519081900360640190fd5b60015460ff1660041461083b576040805162461bcd60e51b815260206004820152601060248201527f4344414f3a206e6f742070617573656400000000000000000000000000000000604482015290519081900360640190fd5b471561084b5761084b8147611485565b600354604080517f70a08231000000000000000000000000000000000000000000000000000000008152306004820152905160009273ffffffffffffffffffffffffffffffffffffffff16916370a08231916024808301926020929190829003018186803b1580156108bc57600080fd5b505afa1580156108d0573d6000803e3d6000fd5b505050506040513d60208110156108e657600080fd5b50519050801561099957600354604080517fa9059cbb00000000000000000000000000000000000000000000000000000000815273ffffffffffffffffffffffffffffffffffffffff8581166004830152602482018590529151919092169163a9059cbb9160448083019260209291908290030181600087803b15801561096c57600080fd5b505af1158015610980573d6000803e3d6000fd5b505050506040513d602081101561099657600080fd5b50505b5050565b60055473ffffffffffffffffffffffffffffffffffffffff1681565b60035473ffffffffffffffffffffffffffffffffffffffff1681565b600154610100900463ffffffff1681565b6001546901000000000000000000900463ffffffff1681565b60055473ffffffffffffffffffffffffffffffffffffffff163314610a6b576040805162461bcd60e51b815260206004820152601460248201527f4344414f3a206e6f7420676f7665726e616e6365000000000000000000000000604482015290519081900360640190fd5b600180547fffffffffffffffffffffffffffffffffffffffffffffffffffffffffffffff0016600490811790915560408051338152602081019290925280517f5f136d3b405931da808102d65c5c331d1bfcbd4e7127777914d480cd106ca5ae9281900390910190a1565b60015460ff1681565b6001546d010000000000000000000000000090046fffffffffffffffffffffffffffffffff1681565b60055473ffffffffffffffffffffffffffffffffffffffff163314610b74576040805162461bcd60e51b815260206004820152601460248201527f4344414f3a206e6f7420676f7665726e616e6365000000000000000000000000604482015290519081900360640190fd5b600580547fffffffffffffffffffffffff00000000000000000000000000000000000000001673ffffffffffffffffffffffffffffffffffffffff92909216919091179055565b60015465010000000000900463ffffffff1681565b4790565b60055473ffffffffffffffffffffffffffffffffffffffff163314610c40576040805162461bcd60e51b815260206004820152601460248201527f4344414f3a206e6f7420676f7665726e616e6365000000000000000000000000604482015290519081900360640190fd5b6001805460ff1614610c99576040805162461bcd60e51b815260206004820152601560248201527f4344414f3a206e6f7420696e697469616c697a65640000000000000000000000604482015290519081900360640190fd5b6001805460027fffffffffffffffffffffffffffffffffffffffffffffffffffffff00000000ff9091166101004363ffffffff1602177fffffffffffffffffffffffffffffffffffffffffffffffffffffffffffffff0016811790915560408051338152602081019290925280517f5f136d3b405931da808102d65c5c331d1bfcbd4e7127777914d480cd106ca5ae9281900390910190a1565b60045473ffffffffffffffffffffffffffffffffffffffff1681565b60026000541415610da7576040805162461bcd60e51b815260206004820152601f60248201527f5265656e7472616e637947756172643a207265656e7472616e742063616c6c00604482015290519081900360640190fd5b6002600081905560015460ff1614610e06576040805162461bcd60e51b815260206004820152601060248201527f4344414f3a206e6f742061637469766500000000000000000000000000000000604482015290519081900360640190fd5b60004711610e5b576040805162461bcd60e51b815260206004820152601a60248201527f4344414f3a20696e73756666696369656e742062616c616e6365000000000000604482015290519081900360640190fd5b662386f26fc100003414610eb6576040805162461bcd60e51b815260206004820152601060248201527f4344414f3a20216f7261636c6546656500000000000000000000000000000000604482015290519081900360640190fd5b6000610ec0610764565b9050600080600080600460009054906101000a900473ffffffffffffffffffffffffffffffffffffffff1673ffffffffffffffffffffffffffffffffffffffff16633018205f6040518163ffffffff1660e01b815260040160206040518083038186803b158015610f3057600080fd5b505afa158015610f44573d6000803e3d6000fd5b505050506040513d6020811015610f5a57600080fd5b5051600354604080517fb859b41500000000000000000000000000000000000000000000000000000000815273ffffffffffffffffffffffffffffffffffffffff92831660048201529051919092169163b859b41591349160248082019260809290919082900301818588803b158015610fd357600080fd5b505af1158015610fe7573d6000803e3d6000fd5b50505050506040513d6080811015610ffe57600080fd5b508051602082015160409092015190945090925090506110308361102a84670de0b6b3a76400006115a8565b9061160a565b9350600081851161104357848203611047565b8185035b905060006110568360056115a8565b6110618360646115a8565b1061106d576001611070565b60005b905080156110c5576040805162461bcd60e51b815260206004820152601560248201527f4344414f3a20707269636520646576696174696f6e0000000000000000000000604482015290519081900360640190fd5b50505050508183111561111f576040805162461bcd60e51b815260206004820152601860248201527f4344414f3a20696e73756666696369656e742071756f74610000000000000000604482015290519081900360640190fd5b61112947826115a8565b61113b84670de0b6b3a76400006115a8565b111561118e576040805162461bcd60e51b815260206004820152601b60248201527f4344414f3a20696e73756666696369656e742062616c616e6365320000000000604482015290519081900360640190fd5b6001546111bf9084906d010000000000000000000000000090046fffffffffffffffffffffffffffffffff16611671565b600180546fffffffffffffffffffffffffffffffff929092166d0100000000000000000000000000027fffffff00000000000000000000000000000000ffffffffffffffffffffffffff90921691909117905561121c82846116cb565b600280546fffffffffffffffffffffffffffffffff929092167fffffffffffffffffffffffffffffffff000000000000000000000000000000009092169190911790556001805463ffffffff4381166901000000000000000000027fffffffffffffffffffffffffffffffffffffff00000000ffffffffffffffffff909216919091179091556000906112c190839061102a908790670de0b6b3a7640000906115a816565b600354604080517f23b872dd00000000000000000000000000000000000000000000000000000000815233600482015230602482015260448101889052905192935073ffffffffffffffffffffffffffffffffffffffff909116916323b872dd916064808201926020929091908290030181600087803b15801561134457600080fd5b505af1158015611358573d6000803e3d6000fd5b505050506040513d602081101561136e57600080fd5b5061137b90503382611485565b505060016000555050565b60015460009060329082906901000000000000000000900463ffffffff16156113d3576001546113ce90439063ffffffff69010000000000000000009091048116906116cb16565b6113f0565b6001546113f090439063ffffffff6101009091048116906116cb16565b90506000613a98828402116114075781830261140b565b613a985b600254909150600090611442906fffffffffffffffffffffffffffffffff1661143c84670de0b6b3a76400006115a8565b90611671565b9050611458613a98670de0b6b3a76400006115a8565b81111561147a57611473613a98670de0b6b3a76400006115a8565b945061147e565b8094505b5050505090565b6040805160008082526020820190925273ffffffffffffffffffffffffffffffffffffffff84169083906040518082805190602001908083835b602083106114fc57805182527fffffffffffffffffffffffffffffffffffffffffffffffffffffffffffffffe090920191602091820191016114bf565b6001836020036101000a03801982511681845116808217855250505050505090500191505060006040518083038185875af1925050503d806000811461155e576040519150601f19603f3d011682016040523d82523d6000602084013e611563565b606091505b50509050806115a35760405162461bcd60e51b815260040180806020018281038252602381526020018061174a6023913960400191505060405180910390fd5b505050565b6000826115b757506000611604565b828202828482816115c457fe5b04146116015760405162461bcd60e51b81526004018080602001828103825260218152602001806117296021913960400191505060405180910390fd5b90505b92915050565b6000808211611660576040805162461bcd60e51b815260206004820152601a60248201527f536166654d6174683a206469766973696f6e206279207a65726f000000000000604482015290519081900360640190fd5b81838161166957fe5b049392505050565b600082820183811015611601576040805162461bcd60e51b815260206004820152601b60248201527f536166654d6174683a206164646974696f6e206f766572666c6f770000000000604482015290519081900360640190fd5b600082821115611722576040805162461bcd60e51b815260206004820152601e60248201527f536166654d6174683a207375627472616374696f6e206f766572666c6f770000604482015290519081900360640190fd5b5090039056fe536166654d6174683a206d756c7469706c69636174696f6e206f766572666c6f775472616e7366657248656c7065723a204554485f5452414e534645525f4641494c4544a264697066735822122076b366a3f6bf694329a152a5e827cc118e83fe64e3653d8094fd7bc283001e0464736f6c634300060c0033",
  "immutableReferences": {},
  "source": "// SPDX-License-Identifier: GPL-3.0-or-later\n\npragma solidity 0.6.12;\n\nimport \"@openzeppelin/contracts/math/SafeMath.sol\";\nimport \"./lib/TransferHelper.sol\";\nimport \"@openzeppelin/contracts/math/Math.sol\";\nimport \"@openzeppelin/contracts/utils/ReentrancyGuard.sol\";\nimport \"./interface/ICoFiToken.sol\";\nimport \"./interface/ICoFiXV2Factory.sol\";\nimport \"./interface/ICoFiXV2Controller.sol\";\nimport \"./interface/ICoFiXV2DAO.sol\";\n\ncontract CoFiXV2DAO is ICoFiXV2DAO, ReentrancyGuard {\n\n    using SafeMath for uint256;\n\n    /* ========== STATE ============== */\n\n    uint8 public flag; \n\n    uint32  public startedBlock;\n    uint32  public lastCollectingBlock;\n    uint32 public lastBlock;\n    uint128 public redeemedAmount;\n    uint128 public quotaAmount;\n\n    uint8 constant DAO_FLAG_UNINITIALIZED    = 0;\n    uint8 constant DAO_FLAG_INITIALIZED      = 1;\n    uint8 constant DAO_FLAG_ACTIVE           = 2;\n    uint8 constant DAO_FLAG_NO_STAKING       = 3;\n    uint8 constant DAO_FLAG_PAUSED           = 4;\n    uint8 constant DAO_FLAG_SHUTDOWN         = 127;\n\n    /* ========== PARAMETERS ============== */\n\n    uint256 constant DAO_REPURCHASE_PRICE_DEVIATION = 5;  // price deviation < 5% \n    uint256 constant _oracleFee = 0.01 ether;\n\n\n    /* ========== ADDRESSES ============== */\n\n    address public cofiToken;\n\n    address public factory;\n\n    address public governance;\n\n    /* ========== CONSTRUCTOR ========== */\n\n    receive() external payable {\n    }\n\n    constructor(address _cofiToken, address _factory) public {\n        cofiToken = _cofiToken;\n        factory = _factory;\n        governance = msg.sender;\n        flag = DAO_FLAG_INITIALIZED;\n    }\n\n    /* ========== MODIFIERS ========== */\n\n    modifier onlyGovernance() \n    {\n        require(msg.sender == governance, \"CDAO: not governance\");\n        _;\n    }\n\n    modifier whenActive() \n    {\n        require(flag == DAO_FLAG_ACTIVE, \"CDAO: not active\");\n        _;\n    }\n\n    /* ========== GOVERNANCE ========== */\n\n    function setGovernance(address _new) external override onlyGovernance {\n        governance = _new;\n    }\n\n    function start() override external onlyGovernance\n    {  \n        require(flag == DAO_FLAG_INITIALIZED, \"CDAO: not initialized\");\n\n        startedBlock = uint32(block.number);\n        flag = DAO_FLAG_ACTIVE;\n        emit FlagSet(address(msg.sender), uint256(DAO_FLAG_ACTIVE));\n    }\n\n    function pause() external onlyGovernance\n    {\n        flag = DAO_FLAG_PAUSED;\n        emit FlagSet(address(msg.sender), uint256(DAO_FLAG_PAUSED));\n    }\n\n    function resume() external onlyGovernance\n    {\n        flag = DAO_FLAG_ACTIVE;\n        emit FlagSet(address(msg.sender), uint256(DAO_FLAG_ACTIVE));\n    }\n\n    function totalETHRewards()\n        external view returns (uint256) \n    {\n       return address(this).balance;\n    }\n\n    function migrateTo(address _newDAO) external onlyGovernance\n    {\n        require(flag == DAO_FLAG_PAUSED, \"CDAO: not paused\");\n        \n        if(address(this).balance > 0) {\n            TransferHelper.safeTransferETH(_newDAO, address(this).balance);\n        }\n        // ICoFiXV2DAO(_newDAO).addETHReward{value: address(this).balance}();\n\n        uint256 _cofiTokenAmount = ICoFiToken(cofiToken).balanceOf(address(this));\n        if (_cofiTokenAmount > 0) {\n            ICoFiToken(cofiToken).transfer(_newDAO, _cofiTokenAmount);\n        }\n    }\n\n    function burnCofi(uint256 amount) external onlyGovernance {\n        require(amount > 0, \"CDAO: illegal amount\");\n\n        uint256 _cofiTokenAmount = ICoFiToken(cofiToken).balanceOf(address(this));\n\n        require(_cofiTokenAmount >= amount, \"CDAO: insufficient cofi\");\n\n        ICoFiToken(cofiToken).transfer(address(0x1), amount);\n        emit CoFiBurn(address(msg.sender), amount);\n    }\n\n    /* ========== MAIN ========== */\n\n    function addETHReward() \n        override\n        external\n        payable\n    { }\n\n    function redeem(uint256 amount) \n        external payable nonReentrant whenActive\n    {\n        require(address(this).balance > 0, \"CDAO: insufficient balance\");\n        require (msg.value == _oracleFee, \"CDAO: !oracleFee\");\n\n        // check the repurchasing quota\n        uint256 quota = quotaOf();\n\n        uint256 price;\n        {\n            // check if the price is steady\n            (uint256 ethAmount, uint256 tokenAmount, uint256 avg, ) = ICoFiXV2Controller(ICoFiXV2Factory(factory).getController())\n                    .getLatestPriceAndAvgVola{value: msg.value}(cofiToken);\n            price = tokenAmount.mul(1e18).div(ethAmount);\n\n            uint256 diff = price > avg ? (price - avg) : (avg - price);\n            bool isDeviated = (diff.mul(100) < avg.mul(DAO_REPURCHASE_PRICE_DEVIATION))? false : true;\n            require(isDeviated == false, \"CDAO: price deviation\"); // validate\n        }\n\n        // check if there is sufficient quota for repurchase\n        require (amount <= quota, \"CDAO: insufficient quota\");\n        require (amount.mul(1e18) <= address(this).balance.mul(price), \"CDAO: insufficient balance2\");\n\n        redeemedAmount = uint128(amount.add(redeemedAmount));\n        quotaAmount = uint128(quota.sub(amount));\n        lastBlock = uint32(block.number);\n\n        uint256 amountEthOut = amount.mul(1e18).div(price);\n\n        // transactions\n        ICoFiToken(cofiToken).transferFrom(address(msg.sender), address(this), amount);\n        TransferHelper.safeTransferETH(msg.sender, amountEthOut);\n    }\n\n    function _quota() internal view returns (uint256 quota) \n    {\n        uint256 n = 50;\n        uint256 intv = (lastBlock == 0) ? \n            (block.number).sub(startedBlock) : (block.number).sub(uint256(lastBlock));\n        uint256 _acc = (n * intv > 15_000) ? 15_000 : (n * intv);\n\n        // check if total amounts overflow\n        uint256 total = _acc.mul(1e18).add(quotaAmount);\n        if (total > uint256(15_000).mul(1e18)){\n            quota = uint256(15_000).mul(1e18);\n        } else{\n            quota = total;\n        }\n    }\n\n    /* ========== VIEWS ========== */\n\n    function quotaOf() public view returns (uint256 quota) \n    {\n        return _quota();\n    }\n\n}",
  "sourcePath": "/Users/lixiansheng/Downloads/CoFix/contracts/CoFiXV2DAO.sol",
  "compiler": {
    "name": "solc",
    "version": "0.6.12+commit.27d51765.Emscripten.clang"
  },
  "schemaVersion": "3.3.3",
  "updatedAt": "2021-05-11T03:51:12.995Z",
  "networkType": "ethereum",
  "devdoc": {
    "kind": "dev",
    "methods": {},
    "version": 1
  },
  "userdoc": {
    "kind": "user",
    "methods": {},
    "version": 1
  }
}