{
  "contractName": "CoFiXKTable",
  "abi": [
    {
      "inputs": [],
      "stateMutability": "nonpayable",
      "type": "constructor"
    },
    {
      "inputs": [],
      "name": "governance",
      "outputs": [
        {
          "internalType": "address",
          "name": "",
          "type": "address"
        }
      ],
      "stateMutability": "view",
      "type": "function",
      "constant": true
    },
    {
      "inputs": [
        {
          "internalType": "uint256",
          "name": "",
          "type": "uint256"
        },
        {
          "internalType": "uint256",
          "name": "",
          "type": "uint256"
        }
      ],
      "name": "k0Table",
      "outputs": [
        {
          "internalType": "int128",
          "name": "",
          "type": "int128"
        }
      ],
      "stateMutability": "view",
      "type": "function",
      "constant": true
    },
    {
      "inputs": [
        {
          "internalType": "uint256",
          "name": "tIdx",
          "type": "uint256"
        },
        {
          "internalType": "uint256",
          "name": "sigmaIdx",
          "type": "uint256"
        },
        {
          "internalType": "int128",
          "name": "k0",
          "type": "int128"
        }
      ],
      "name": "setK0",
      "outputs": [],
      "stateMutability": "nonpayable",
      "type": "function"
    },
    {
      "inputs": [
        {
          "internalType": "uint256[]",
          "name": "tIdxs",
          "type": "uint256[]"
        },
        {
          "internalType": "uint256[]",
          "name": "sigmaIdxs",
          "type": "uint256[]"
        },
        {
          "internalType": "int128[]",
          "name": "k0s",
          "type": "int128[]"
        }
      ],
      "name": "setK0InBatch",
      "outputs": [],
      "stateMutability": "nonpayable",
      "type": "function"
    },
    {
      "inputs": [
        {
          "internalType": "uint256",
          "name": "tIdx",
          "type": "uint256"
        },
        {
          "internalType": "uint256",
          "name": "sigmaIdx",
          "type": "uint256"
        }
      ],
      "name": "getK0",
      "outputs": [
        {
          "internalType": "int128",
          "name": "",
          "type": "int128"
        }
      ],
      "stateMutability": "view",
      "type": "function",
      "constant": true
    }
  ],
  "bytecode": "0x608060405234801561001057600080fd5b50600080546001600160a01b03191633179055610836806100326000396000f3fe608060405234801561001057600080fd5b50600436106100675760003560e01c80635aa6e675116100505780635aa6e675146100c95780638d6d526a146100fa5780639fb423e3146102a757610067565b806305cb3f5d1461006c5780633b97a5c7146100a6575b600080fd5b61008f6004803603604081101561008257600080fd5b50803590602001356102d3565b60408051600f9290920b8252519081900360200190f35b61008f600480360360408110156100bc57600080fd5b50803590602001356103bc565b6100d16103f8565b6040805173ffffffffffffffffffffffffffffffffffffffff9092168252519081900360200190f35b6102a56004803603606081101561011057600080fd5b81019060208101813564010000000081111561012b57600080fd5b82018360208201111561013d57600080fd5b8035906020019184602083028401116401000000008311171561015f57600080fd5b91908080602002602001604051908101604052809392919081815260200183836020028082843760009201919091525092959493602081019350359150506401000000008111156101af57600080fd5b8201836020820111156101c157600080fd5b803590602001918460208302840111640100000000831117156101e357600080fd5b919080806020026020016040519081016040528093929190818152602001838360200280828437600092019190915250929594936020810193503591505064010000000081111561023357600080fd5b82018360208201111561024557600080fd5b8035906020019184602083028401116401000000008311171561026757600080fd5b919080806020026020016040519081016040528093929190818152602001838360200280828437600092019190915250929550610414945050505050565b005b6102a5600480360360608110156102bd57600080fd5b5080359060208101359060400135600f0b610681565b6000605b831061032a576040805162461bcd60e51b815260206004820152601760248201527f434b5461626c653a2074496478206d757374203c203931000000000000000000604482015290519081900360640190fd5b6014821061037f576040805162461bcd60e51b815260206004820152601b60248201527f434b5461626c653a207369676d61496478206d757374203c2032300000000000604482015290519081900360640190fd5b600183605b811061038c57fe5b600a0201826014811061039b57fe5b600291828204019190066010029054906101000a9004600f0b905092915050565b600182605b81106103c957fe5b600a020181601481106103d857fe5b60029182820401919006601002915091509054906101000a9004600f0b81565b60005473ffffffffffffffffffffffffffffffffffffffff1681565b60005473ffffffffffffffffffffffffffffffffffffffff163314610480576040805162461bcd60e51b815260206004820152601460248201527f434b5461626c653a2021676f7665726e616e6365000000000000000000000000604482015290519081900360640190fd5b8251825181146104c15760405162461bcd60e51b81526004018080602001828103825260218152602001806107e06021913960400191505060405180910390fd5b81518114610516576040805162461bcd60e51b815260206004820152601c60248201527f434b5461626c653a207449647873206b3073206e6f74206d6174636800000000604482015290519081900360640190fd5b60005b8181101561067a57600185828151811061052f57fe5b6020026020010151605b811061054157fe5b600a020184828151811061055157fe5b60200260200101516014811061056357fe5b600291828204019190066010029054906101000a9004600f0b600f0b6000146105d3576040805162461bcd60e51b815260206004820152601460248201527f434b5461626c653a20616c726561647920736574000000000000000000000000604482015290519081900360640190fd5b8281815181106105df57fe5b602002602001015160018683815181106105f557fe5b6020026020010151605b811061060757fe5b600a020185838151811061061757fe5b60200260200101516014811061062957fe5b600291828204019190066010026101000a8154816fffffffffffffffffffffffffffffffff0219169083600f0b6fffffffffffffffffffffffffffffffff1602179055508080600101915050610519565b5050505050565b60005473ffffffffffffffffffffffffffffffffffffffff1633146106ed576040805162461bcd60e51b815260206004820152601460248201527f434b5461626c653a2021676f7665726e616e6365000000000000000000000000604482015290519081900360640190fd5b600183605b81106106fa57fe5b600a0201826014811061070957fe5b600291828204019190066010029054906101000a9004600f0b600f0b600014610779576040805162461bcd60e51b815260206004820152601460248201527f434b5461626c653a20616c726561647920736574000000000000000000000000604482015290519081900360640190fd5b80600184605b811061078757fe5b600a0201836014811061079657fe5b600291828204019190066010026101000a8154816fffffffffffffffffffffffffffffffff0219169083600f0b6fffffffffffffffffffffffffffffffff16021790555050505056fe434b5461626c653a207449647873207369676d61496478206e6f74206d61746368a2646970667358221220d6c46096cf9e06f33ccd09704dc5c9c949042e1df59b8584990ad06df2edafaf64736f6c634300060c0033",
  "immutableReferences": {},
  "source": "// SPDX-License-Identifier: GPL-3.0-or-later\npragma solidity 0.6.12;\n\nimport './interface/ICoFiXKTable.sol';\n\n// KTable contract to store k values, used by CoFiXController contract\n// The K0 values are set for only once, and not changeable after set\n// Anyone could validate by https://github.com/Computable-Finance/CoFiX/blob/master/scripts/setKTable.js\ncontract CoFiXKTable is ICoFiXKTable {\n\n    address public governance;\n\n    int128[20][91] public k0Table; // sigmaIdx (0~20), tIdx (0~90)\n\n    modifier onlyGovernance() {\n        require(msg.sender == governance, \"CKTable: !governance\");\n        _;\n    }\n\n    constructor() public {\n        governance = msg.sender;\n    }\n\n    function setK0(uint256 tIdx, uint256 sigmaIdx, int128 k0) external override onlyGovernance {\n        require(k0Table[tIdx][sigmaIdx] == 0, \"CKTable: already set\"); // only once, and not changeable\n        k0Table[tIdx][sigmaIdx] = k0;\n    }\n\n    function setK0InBatch(uint256[] memory tIdxs, uint256[] memory sigmaIdxs, int128[] memory k0s) external override onlyGovernance {\n        uint256 loopCnt = tIdxs.length;\n        require(loopCnt == sigmaIdxs.length, \"CKTable: tIdxs sigmaIdx not match\");\n        require(loopCnt == k0s.length, \"CKTable: tIdxs k0s not match\");\n        for (uint256 i = 0; i < loopCnt; i++) {\n            require(k0Table[tIdxs[i]][sigmaIdxs[i]] == 0, \"CKTable: already set\"); // only once, and not changeable\n            k0Table[tIdxs[i]][sigmaIdxs[i]] = k0s[i];\n        }\n    }\n\n    function getK0(uint256 tIdx, uint256 sigmaIdx) external view override returns (int128) {\n        require(tIdx < 91, \"CKTable: tIdx must < 91\");\n        require(sigmaIdx < 20, \"CKTable: sigmaIdx must < 20\");\n        return k0Table[tIdx][sigmaIdx];\n    }\n}",
  "sourcePath": "/Users/lixiansheng/Downloads/CoFix/contracts/CoFiXKTable.sol",
  "compiler": {
    "name": "solc",
    "version": "0.6.12+commit.27d51765.Emscripten.clang"
  },
  "schemaVersion": "3.3.3",
  "updatedAt": "2021-05-11T03:13:27.945Z",
  "networkType": "ethereum",
  "devdoc": {
    "kind": "dev",
    "methods": {},
    "version": 1
  },
  "userdoc": {
    "kind": "user",
    "methods": {},
    "version": 1
  }
}