{
  "contractName": "CoFiXPair",
  "abi": [
    {
      "inputs": [],
      "stateMutability": "nonpayable",
      "type": "constructor"
    },
    {
      "anonymous": false,
      "inputs": [
        {
          "indexed": true,
          "internalType": "address",
          "name": "owner",
          "type": "address"
        },
        {
          "indexed": true,
          "internalType": "address",
          "name": "spender",
          "type": "address"
        },
        {
          "indexed": false,
          "internalType": "uint256",
          "name": "value",
          "type": "uint256"
        }
      ],
      "name": "Approval",
      "type": "event"
    },
    {
      "anonymous": false,
      "inputs": [
        {
          "indexed": true,
          "internalType": "address",
          "name": "sender",
          "type": "address"
        },
        {
          "indexed": false,
          "internalType": "address",
          "name": "outToken",
          "type": "address"
        },
        {
          "indexed": false,
          "internalType": "uint256",
          "name": "outAmount",
          "type": "uint256"
        },
        {
          "indexed": true,
          "internalType": "address",
          "name": "to",
          "type": "address"
        }
      ],
      "name": "Burn",
      "type": "event"
    },
    {
      "anonymous": false,
      "inputs": [
        {
          "indexed": true,
          "internalType": "address",
          "name": "sender",
          "type": "address"
        },
        {
          "indexed": false,
          "internalType": "uint256",
          "name": "amount0",
          "type": "uint256"
        },
        {
          "indexed": false,
          "internalType": "uint256",
          "name": "amount1",
          "type": "uint256"
        }
      ],
      "name": "Mint",
      "type": "event"
    },
    {
      "anonymous": false,
      "inputs": [
        {
          "indexed": true,
          "internalType": "address",
          "name": "sender",
          "type": "address"
        },
        {
          "indexed": false,
          "internalType": "uint256",
          "name": "amountIn",
          "type": "uint256"
        },
        {
          "indexed": false,
          "internalType": "uint256",
          "name": "amountOut",
          "type": "uint256"
        },
        {
          "indexed": false,
          "internalType": "address",
          "name": "outToken",
          "type": "address"
        },
        {
          "indexed": true,
          "internalType": "address",
          "name": "to",
          "type": "address"
        }
      ],
      "name": "Swap",
      "type": "event"
    },
    {
      "anonymous": false,
      "inputs": [
        {
          "indexed": false,
          "internalType": "uint112",
          "name": "reserve0",
          "type": "uint112"
        },
        {
          "indexed": false,
          "internalType": "uint112",
          "name": "reserve1",
          "type": "uint112"
        }
      ],
      "name": "Sync",
      "type": "event"
    },
    {
      "anonymous": false,
      "inputs": [
        {
          "indexed": true,
          "internalType": "address",
          "name": "from",
          "type": "address"
        },
        {
          "indexed": true,
          "internalType": "address",
          "name": "to",
          "type": "address"
        },
        {
          "indexed": false,
          "internalType": "uint256",
          "name": "value",
          "type": "uint256"
        }
      ],
      "name": "Transfer",
      "type": "event"
    },
    {
      "inputs": [],
      "name": "DOMAIN_SEPARATOR",
      "outputs": [
        {
          "internalType": "bytes32",
          "name": "",
          "type": "bytes32"
        }
      ],
      "stateMutability": "view",
      "type": "function"
    },
    {
      "inputs": [],
      "name": "K_BASE",
      "outputs": [
        {
          "internalType": "uint256",
          "name": "",
          "type": "uint256"
        }
      ],
      "stateMutability": "view",
      "type": "function"
    },
    {
      "inputs": [],
      "name": "MINIMUM_LIQUIDITY",
      "outputs": [
        {
          "internalType": "uint256",
          "name": "",
          "type": "uint256"
        }
      ],
      "stateMutability": "view",
      "type": "function"
    },
    {
      "inputs": [],
      "name": "NAVPS_BASE",
      "outputs": [
        {
          "internalType": "uint256",
          "name": "",
          "type": "uint256"
        }
      ],
      "stateMutability": "view",
      "type": "function"
    },
    {
      "inputs": [],
      "name": "PERMIT_TYPEHASH",
      "outputs": [
        {
          "internalType": "bytes32",
          "name": "",
          "type": "bytes32"
        }
      ],
      "stateMutability": "view",
      "type": "function"
    },
    {
      "inputs": [],
      "name": "THETA_BASE",
      "outputs": [
        {
          "internalType": "uint256",
          "name": "",
          "type": "uint256"
        }
      ],
      "stateMutability": "view",
      "type": "function"
    },
    {
      "inputs": [
        {
          "internalType": "address",
          "name": "",
          "type": "address"
        },
        {
          "internalType": "address",
          "name": "",
          "type": "address"
        }
      ],
      "name": "allowance",
      "outputs": [
        {
          "internalType": "uint256",
          "name": "",
          "type": "uint256"
        }
      ],
      "stateMutability": "view",
      "type": "function"
    },
    {
      "inputs": [
        {
          "internalType": "address",
          "name": "spender",
          "type": "address"
        },
        {
          "internalType": "uint256",
          "name": "value",
          "type": "uint256"
        }
      ],
      "name": "approve",
      "outputs": [
        {
          "internalType": "bool",
          "name": "",
          "type": "bool"
        }
      ],
      "stateMutability": "nonpayable",
      "type": "function"
    },
    {
      "inputs": [
        {
          "internalType": "address",
          "name": "",
          "type": "address"
        }
      ],
      "name": "balanceOf",
      "outputs": [
        {
          "internalType": "uint256",
          "name": "",
          "type": "uint256"
        }
      ],
      "stateMutability": "view",
      "type": "function"
    },
    {
      "inputs": [],
      "name": "decimals",
      "outputs": [
        {
          "internalType": "uint8",
          "name": "",
          "type": "uint8"
        }
      ],
      "stateMutability": "view",
      "type": "function"
    },
    {
      "inputs": [],
      "name": "factory",
      "outputs": [
        {
          "internalType": "address",
          "name": "",
          "type": "address"
        }
      ],
      "stateMutability": "view",
      "type": "function"
    },
    {
      "inputs": [],
      "name": "name",
      "outputs": [
        {
          "internalType": "string",
          "name": "",
          "type": "string"
        }
      ],
      "stateMutability": "view",
      "type": "function"
    },
    {
      "inputs": [],
      "name": "nameForDomain",
      "outputs": [
        {
          "internalType": "string",
          "name": "",
          "type": "string"
        }
      ],
      "stateMutability": "view",
      "type": "function"
    },
    {
      "inputs": [
        {
          "internalType": "address",
          "name": "",
          "type": "address"
        }
      ],
      "name": "nonces",
      "outputs": [
        {
          "internalType": "uint256",
          "name": "",
          "type": "uint256"
        }
      ],
      "stateMutability": "view",
      "type": "function"
    },
    {
      "inputs": [
        {
          "internalType": "address",
          "name": "owner",
          "type": "address"
        },
        {
          "internalType": "address",
          "name": "spender",
          "type": "address"
        },
        {
          "internalType": "uint256",
          "name": "value",
          "type": "uint256"
        },
        {
          "internalType": "uint256",
          "name": "deadline",
          "type": "uint256"
        },
        {
          "internalType": "uint8",
          "name": "v",
          "type": "uint8"
        },
        {
          "internalType": "bytes32",
          "name": "r",
          "type": "bytes32"
        },
        {
          "internalType": "bytes32",
          "name": "s",
          "type": "bytes32"
        }
      ],
      "name": "permit",
      "outputs": [],
      "stateMutability": "nonpayable",
      "type": "function"
    },
    {
      "inputs": [],
      "name": "symbol",
      "outputs": [
        {
          "internalType": "string",
          "name": "",
          "type": "string"
        }
      ],
      "stateMutability": "view",
      "type": "function"
    },
    {
      "inputs": [],
      "name": "token0",
      "outputs": [
        {
          "internalType": "address",
          "name": "",
          "type": "address"
        }
      ],
      "stateMutability": "view",
      "type": "function"
    },
    {
      "inputs": [],
      "name": "token1",
      "outputs": [
        {
          "internalType": "address",
          "name": "",
          "type": "address"
        }
      ],
      "stateMutability": "view",
      "type": "function"
    },
    {
      "inputs": [],
      "name": "totalSupply",
      "outputs": [
        {
          "internalType": "uint256",
          "name": "",
          "type": "uint256"
        }
      ],
      "stateMutability": "view",
      "type": "function"
    },
    {
      "inputs": [
        {
          "internalType": "address",
          "name": "to",
          "type": "address"
        },
        {
          "internalType": "uint256",
          "name": "value",
          "type": "uint256"
        }
      ],
      "name": "transfer",
      "outputs": [
        {
          "internalType": "bool",
          "name": "",
          "type": "bool"
        }
      ],
      "stateMutability": "nonpayable",
      "type": "function"
    },
    {
      "inputs": [
        {
          "internalType": "address",
          "name": "from",
          "type": "address"
        },
        {
          "internalType": "address",
          "name": "to",
          "type": "address"
        },
        {
          "internalType": "uint256",
          "name": "value",
          "type": "uint256"
        }
      ],
      "name": "transferFrom",
      "outputs": [
        {
          "internalType": "bool",
          "name": "",
          "type": "bool"
        }
      ],
      "stateMutability": "nonpayable",
      "type": "function"
    },
    {
      "stateMutability": "payable",
      "type": "receive"
    },
    {
      "inputs": [
        {
          "internalType": "address",
          "name": "_token0",
          "type": "address"
        },
        {
          "internalType": "address",
          "name": "_token1",
          "type": "address"
        },
        {
          "internalType": "string",
          "name": "_name",
          "type": "string"
        },
        {
          "internalType": "string",
          "name": "_symbol",
          "type": "string"
        }
      ],
      "name": "initialize",
      "outputs": [],
      "stateMutability": "nonpayable",
      "type": "function"
    },
    {
      "inputs": [],
      "name": "getReserves",
      "outputs": [
        {
          "internalType": "uint112",
          "name": "_reserve0",
          "type": "uint112"
        },
        {
          "internalType": "uint112",
          "name": "_reserve1",
          "type": "uint112"
        }
      ],
      "stateMutability": "view",
      "type": "function"
    },
    {
      "inputs": [
        {
          "internalType": "address",
          "name": "to",
          "type": "address"
        }
      ],
      "name": "mint",
      "outputs": [
        {
          "internalType": "uint256",
          "name": "liquidity",
          "type": "uint256"
        },
        {
          "internalType": "uint256",
          "name": "oracleFeeChange",
          "type": "uint256"
        }
      ],
      "stateMutability": "payable",
      "type": "function"
    },
    {
      "inputs": [
        {
          "internalType": "address",
          "name": "outToken",
          "type": "address"
        },
        {
          "internalType": "address",
          "name": "to",
          "type": "address"
        }
      ],
      "name": "burn",
      "outputs": [
        {
          "internalType": "uint256",
          "name": "amountOut",
          "type": "uint256"
        },
        {
          "internalType": "uint256",
          "name": "oracleFeeChange",
          "type": "uint256"
        }
      ],
      "stateMutability": "payable",
      "type": "function"
    },
    {
      "inputs": [
        {
          "internalType": "address",
          "name": "outToken",
          "type": "address"
        },
        {
          "internalType": "address",
          "name": "to",
          "type": "address"
        }
      ],
      "name": "swapWithExact",
      "outputs": [
        {
          "internalType": "uint256",
          "name": "amountIn",
          "type": "uint256"
        },
        {
          "internalType": "uint256",
          "name": "amountOut",
          "type": "uint256"
        },
        {
          "internalType": "uint256",
          "name": "oracleFeeChange",
          "type": "uint256"
        },
        {
          "internalType": "uint256[4]",
          "name": "tradeInfo",
          "type": "uint256[4]"
        }
      ],
      "stateMutability": "payable",
      "type": "function"
    },
    {
      "inputs": [
        {
          "internalType": "address",
          "name": "outToken",
          "type": "address"
        },
        {
          "internalType": "uint256",
          "name": "amountOutExact",
          "type": "uint256"
        },
        {
          "internalType": "address",
          "name": "to",
          "type": "address"
        }
      ],
      "name": "swapForExact",
      "outputs": [
        {
          "internalType": "uint256",
          "name": "amountIn",
          "type": "uint256"
        },
        {
          "internalType": "uint256",
          "name": "amountOut",
          "type": "uint256"
        },
        {
          "internalType": "uint256",
          "name": "oracleFeeChange",
          "type": "uint256"
        },
        {
          "internalType": "uint256[4]",
          "name": "tradeInfo",
          "type": "uint256[4]"
        }
      ],
      "stateMutability": "payable",
      "type": "function"
    },
    {
      "inputs": [
        {
          "internalType": "address",
          "name": "to",
          "type": "address"
        }
      ],
      "name": "skim",
      "outputs": [],
      "stateMutability": "nonpayable",
      "type": "function"
    },
    {
      "inputs": [],
      "name": "sync",
      "outputs": [],
      "stateMutability": "nonpayable",
      "type": "function"
    },
    {
      "inputs": [
        {
          "internalType": "uint256",
          "name": "balance0",
          "type": "uint256"
        },
        {
          "internalType": "uint256",
          "name": "balance1",
          "type": "uint256"
        },
        {
          "components": [
            {
              "internalType": "uint256",
              "name": "ethAmount",
              "type": "uint256"
            },
            {
              "internalType": "uint256",
              "name": "erc20Amount",
              "type": "uint256"
            },
            {
              "internalType": "uint256",
              "name": "blockNum",
              "type": "uint256"
            },
            {
              "internalType": "uint256",
              "name": "K",
              "type": "uint256"
            },
            {
              "internalType": "uint256",
              "name": "theta",
              "type": "uint256"
            }
          ],
          "internalType": "struct ICoFiXPair.OraclePrice",
          "name": "_op",
          "type": "tuple"
        }
      ],
      "name": "calcNAVPerShareForMint",
      "outputs": [
        {
          "internalType": "uint256",
          "name": "navps",
          "type": "uint256"
        }
      ],
      "stateMutability": "view",
      "type": "function"
    },
    {
      "inputs": [
        {
          "internalType": "uint256",
          "name": "balance0",
          "type": "uint256"
        },
        {
          "internalType": "uint256",
          "name": "balance1",
          "type": "uint256"
        },
        {
          "components": [
            {
              "internalType": "uint256",
              "name": "ethAmount",
              "type": "uint256"
            },
            {
              "internalType": "uint256",
              "name": "erc20Amount",
              "type": "uint256"
            },
            {
              "internalType": "uint256",
              "name": "blockNum",
              "type": "uint256"
            },
            {
              "internalType": "uint256",
              "name": "K",
              "type": "uint256"
            },
            {
              "internalType": "uint256",
              "name": "theta",
              "type": "uint256"
            }
          ],
          "internalType": "struct ICoFiXPair.OraclePrice",
          "name": "_op",
          "type": "tuple"
        }
      ],
      "name": "calcNAVPerShareForBurn",
      "outputs": [
        {
          "internalType": "uint256",
          "name": "navps",
          "type": "uint256"
        }
      ],
      "stateMutability": "view",
      "type": "function"
    },
    {
      "inputs": [
        {
          "internalType": "uint256",
          "name": "balance0",
          "type": "uint256"
        },
        {
          "internalType": "uint256",
          "name": "balance1",
          "type": "uint256"
        },
        {
          "internalType": "uint256",
          "name": "ethAmount",
          "type": "uint256"
        },
        {
          "internalType": "uint256",
          "name": "erc20Amount",
          "type": "uint256"
        }
      ],
      "name": "calcNAVPerShare",
      "outputs": [
        {
          "internalType": "uint256",
          "name": "navps",
          "type": "uint256"
        }
      ],
      "stateMutability": "view",
      "type": "function"
    },
    {
      "inputs": [
        {
          "internalType": "uint256",
          "name": "amount0",
          "type": "uint256"
        },
        {
          "internalType": "uint256",
          "name": "amount1",
          "type": "uint256"
        },
        {
          "internalType": "uint256",
          "name": "navps",
          "type": "uint256"
        },
        {
          "components": [
            {
              "internalType": "uint256",
              "name": "ethAmount",
              "type": "uint256"
            },
            {
              "internalType": "uint256",
              "name": "erc20Amount",
              "type": "uint256"
            },
            {
              "internalType": "uint256",
              "name": "blockNum",
              "type": "uint256"
            },
            {
              "internalType": "uint256",
              "name": "K",
              "type": "uint256"
            },
            {
              "internalType": "uint256",
              "name": "theta",
              "type": "uint256"
            }
          ],
          "internalType": "struct ICoFiXPair.OraclePrice",
          "name": "_op",
          "type": "tuple"
        }
      ],
      "name": "calcLiquidity",
      "outputs": [
        {
          "internalType": "uint256",
          "name": "liquidity",
          "type": "uint256"
        }
      ],
      "stateMutability": "pure",
      "type": "function"
    },
    {
      "inputs": [
        {
          "components": [
            {
              "internalType": "uint256",
              "name": "ethAmount",
              "type": "uint256"
            },
            {
              "internalType": "uint256",
              "name": "erc20Amount",
              "type": "uint256"
            },
            {
              "internalType": "uint256",
              "name": "blockNum",
              "type": "uint256"
            },
            {
              "internalType": "uint256",
              "name": "K",
              "type": "uint256"
            },
            {
              "internalType": "uint256",
              "name": "theta",
              "type": "uint256"
            }
          ],
          "internalType": "struct ICoFiXPair.OraclePrice",
          "name": "_op",
          "type": "tuple"
        }
      ],
      "name": "getNAVPerShareForMint",
      "outputs": [
        {
          "internalType": "uint256",
          "name": "navps",
          "type": "uint256"
        }
      ],
      "stateMutability": "view",
      "type": "function"
    },
    {
      "inputs": [
        {
          "components": [
            {
              "internalType": "uint256",
              "name": "ethAmount",
              "type": "uint256"
            },
            {
              "internalType": "uint256",
              "name": "erc20Amount",
              "type": "uint256"
            },
            {
              "internalType": "uint256",
              "name": "blockNum",
              "type": "uint256"
            },
            {
              "internalType": "uint256",
              "name": "K",
              "type": "uint256"
            },
            {
              "internalType": "uint256",
              "name": "theta",
              "type": "uint256"
            }
          ],
          "internalType": "struct ICoFiXPair.OraclePrice",
          "name": "_op",
          "type": "tuple"
        }
      ],
      "name": "getNAVPerShareForBurn",
      "outputs": [
        {
          "internalType": "uint256",
          "name": "navps",
          "type": "uint256"
        }
      ],
      "stateMutability": "view",
      "type": "function"
    },
    {
      "inputs": [
        {
          "internalType": "uint256",
          "name": "ethAmount",
          "type": "uint256"
        },
        {
          "internalType": "uint256",
          "name": "erc20Amount",
          "type": "uint256"
        }
      ],
      "name": "getNAVPerShare",
      "outputs": [
        {
          "internalType": "uint256",
          "name": "navps",
          "type": "uint256"
        }
      ],
      "stateMutability": "view",
      "type": "function"
    },
    {
      "inputs": [
        {
          "internalType": "uint256",
          "name": "amount0",
          "type": "uint256"
        },
        {
          "internalType": "uint256",
          "name": "amount1",
          "type": "uint256"
        },
        {
          "components": [
            {
              "internalType": "uint256",
              "name": "ethAmount",
              "type": "uint256"
            },
            {
              "internalType": "uint256",
              "name": "erc20Amount",
              "type": "uint256"
            },
            {
              "internalType": "uint256",
              "name": "blockNum",
              "type": "uint256"
            },
            {
              "internalType": "uint256",
              "name": "K",
              "type": "uint256"
            },
            {
              "internalType": "uint256",
              "name": "theta",
              "type": "uint256"
            }
          ],
          "internalType": "struct ICoFiXPair.OraclePrice",
          "name": "_op",
          "type": "tuple"
        }
      ],
      "name": "getLiquidity",
      "outputs": [
        {
          "internalType": "uint256",
          "name": "liquidity",
          "type": "uint256"
        }
      ],
      "stateMutability": "view",
      "type": "function"
    },
    {
      "inputs": [
        {
          "internalType": "uint256",
          "name": "liquidity",
          "type": "uint256"
        },
        {
          "components": [
            {
              "internalType": "uint256",
              "name": "ethAmount",
              "type": "uint256"
            },
            {
              "internalType": "uint256",
              "name": "erc20Amount",
              "type": "uint256"
            },
            {
              "internalType": "uint256",
              "name": "blockNum",
              "type": "uint256"
            },
            {
              "internalType": "uint256",
              "name": "K",
              "type": "uint256"
            },
            {
              "internalType": "uint256",
              "name": "theta",
              "type": "uint256"
            }
          ],
          "internalType": "struct ICoFiXPair.OraclePrice",
          "name": "_op",
          "type": "tuple"
        }
      ],
      "name": "calcOutToken0ForBurn",
      "outputs": [
        {
          "internalType": "uint256",
          "name": "amountOut",
          "type": "uint256"
        },
        {
          "internalType": "uint256",
          "name": "fee",
          "type": "uint256"
        }
      ],
      "stateMutability": "view",
      "type": "function"
    },
    {
      "inputs": [
        {
          "internalType": "uint256",
          "name": "liquidity",
          "type": "uint256"
        },
        {
          "components": [
            {
              "internalType": "uint256",
              "name": "ethAmount",
              "type": "uint256"
            },
            {
              "internalType": "uint256",
              "name": "erc20Amount",
              "type": "uint256"
            },
            {
              "internalType": "uint256",
              "name": "blockNum",
              "type": "uint256"
            },
            {
              "internalType": "uint256",
              "name": "K",
              "type": "uint256"
            },
            {
              "internalType": "uint256",
              "name": "theta",
              "type": "uint256"
            }
          ],
          "internalType": "struct ICoFiXPair.OraclePrice",
          "name": "_op",
          "type": "tuple"
        }
      ],
      "name": "calcOutToken1ForBurn",
      "outputs": [
        {
          "internalType": "uint256",
          "name": "amountOut",
          "type": "uint256"
        },
        {
          "internalType": "uint256",
          "name": "fee",
          "type": "uint256"
        }
      ],
      "stateMutability": "view",
      "type": "function"
    },
    {
      "inputs": [
        {
          "internalType": "uint256",
          "name": "amountIn",
          "type": "uint256"
        },
        {
          "components": [
            {
              "internalType": "uint256",
              "name": "ethAmount",
              "type": "uint256"
            },
            {
              "internalType": "uint256",
              "name": "erc20Amount",
              "type": "uint256"
            },
            {
              "internalType": "uint256",
              "name": "blockNum",
              "type": "uint256"
            },
            {
              "internalType": "uint256",
              "name": "K",
              "type": "uint256"
            },
            {
              "internalType": "uint256",
              "name": "theta",
              "type": "uint256"
            }
          ],
          "internalType": "struct ICoFiXPair.OraclePrice",
          "name": "_op",
          "type": "tuple"
        }
      ],
      "name": "calcOutToken0",
      "outputs": [
        {
          "internalType": "uint256",
          "name": "amountOut",
          "type": "uint256"
        },
        {
          "internalType": "uint256",
          "name": "fee",
          "type": "uint256"
        }
      ],
      "stateMutability": "pure",
      "type": "function"
    },
    {
      "inputs": [
        {
          "internalType": "uint256",
          "name": "amountIn",
          "type": "uint256"
        },
        {
          "components": [
            {
              "internalType": "uint256",
              "name": "ethAmount",
              "type": "uint256"
            },
            {
              "internalType": "uint256",
              "name": "erc20Amount",
              "type": "uint256"
            },
            {
              "internalType": "uint256",
              "name": "blockNum",
              "type": "uint256"
            },
            {
              "internalType": "uint256",
              "name": "K",
              "type": "uint256"
            },
            {
              "internalType": "uint256",
              "name": "theta",
              "type": "uint256"
            }
          ],
          "internalType": "struct ICoFiXPair.OraclePrice",
          "name": "_op",
          "type": "tuple"
        }
      ],
      "name": "calcOutToken1",
      "outputs": [
        {
          "internalType": "uint256",
          "name": "amountOut",
          "type": "uint256"
        },
        {
          "internalType": "uint256",
          "name": "fee",
          "type": "uint256"
        }
      ],
      "stateMutability": "pure",
      "type": "function"
    },
    {
      "inputs": [
        {
          "internalType": "uint256",
          "name": "amountOut",
          "type": "uint256"
        },
        {
          "components": [
            {
              "internalType": "uint256",
              "name": "ethAmount",
              "type": "uint256"
            },
            {
              "internalType": "uint256",
              "name": "erc20Amount",
              "type": "uint256"
            },
            {
              "internalType": "uint256",
              "name": "blockNum",
              "type": "uint256"
            },
            {
              "internalType": "uint256",
              "name": "K",
              "type": "uint256"
            },
            {
              "internalType": "uint256",
              "name": "theta",
              "type": "uint256"
            }
          ],
          "internalType": "struct ICoFiXPair.OraclePrice",
          "name": "_op",
          "type": "tuple"
        }
      ],
      "name": "calcInNeededToken0",
      "outputs": [
        {
          "internalType": "uint256",
          "name": "amountInNeeded",
          "type": "uint256"
        },
        {
          "internalType": "uint256",
          "name": "fee",
          "type": "uint256"
        }
      ],
      "stateMutability": "pure",
      "type": "function"
    },
    {
      "inputs": [
        {
          "internalType": "uint256",
          "name": "amountOut",
          "type": "uint256"
        },
        {
          "components": [
            {
              "internalType": "uint256",
              "name": "ethAmount",
              "type": "uint256"
            },
            {
              "internalType": "uint256",
              "name": "erc20Amount",
              "type": "uint256"
            },
            {
              "internalType": "uint256",
              "name": "blockNum",
              "type": "uint256"
            },
            {
              "internalType": "uint256",
              "name": "K",
              "type": "uint256"
            },
            {
              "internalType": "uint256",
              "name": "theta",
              "type": "uint256"
            }
          ],
          "internalType": "struct ICoFiXPair.OraclePrice",
          "name": "_op",
          "type": "tuple"
        }
      ],
      "name": "calcInNeededToken1",
      "outputs": [
        {
          "internalType": "uint256",
          "name": "amountInNeeded",
          "type": "uint256"
        },
        {
          "internalType": "uint256",
          "name": "fee",
          "type": "uint256"
        }
      ],
      "stateMutability": "pure",
      "type": "function"
    }
  ],
  "bytecode": "0x60a06040526001600a553480156200001657600080fd5b50604080518082018252601081526f21b7a334ac102837b7b6102a37b5b2b760811b6020918201528151808301835260018152603160f81b9082015290514691620000cc917f8b73c3c69bb8fe3d512ecc4cf759cc79239f7b179b0ffacaa9a75d522b39400f917f70f1d8d3a2b874a116643bbbdb7e2937ce56e0359f9c3070aac2ec77a8354ccc917fc89efdaa54c0f20c7adf612882df0950f5a951637e0307cdcb4c672f298b8bc6918691309101620000f5565b60408051601f198184030181529190528051602090910120600355503360601b60805262000121565b9485526020850193909352604084019190915260608301526001600160a01b0316608082015260a00190565b60805160601c6140e462000162600039806108db5280610d115280611a0052806120a652806125ae5280612c6e5280612fa3528061308c52506140e46000f3fe6080604052600436106102e05760003560e01c806395d89b4111610184578063bc25cf77116100d6578063d505accf1161008a578063e5eac39011610064578063e5eac39014610776578063eb77289914610796578063fff6cae9146107b6576102e7565b8063d505accf14610716578063dd2e0a3114610736578063dd62ed3e14610756576102e7565b8063bf36aac2116100bb578063bf36aac2146106cc578063c45a0155146106ec578063d21220a714610701576102e7565b8063bc25cf771461068c578063be5b32f8146106ac576102e7565b8063a661dbda11610138578063b2874f8711610112578063b2874f8714610637578063b72bda4a14610657578063ba9a7a5614610677576102e7565b8063a661dbda14610602578063a9059cbb14610617578063aaf07e9214610465576102e7565b80639c673c52116101695780639c673c52146105ac5780639f44296a146105cc578063a12db6cc146105ef576102e7565b806395d89b411461057757806399f45e481461058c576102e7565b8063313ce5671161023d5780634f6ec2dd116101f15780636a627842116101cb5780636a6278421461052457806370a08231146105375780637ecebe0014610557576102e7565b80634f6ec2dd146104cf5780635ad6bd30146104e4578063663eda1f14610504576102e7565b80633644e515116102225780633644e5151461047a57806339818b661461048f57806349a23da0146104af576102e7565b8063313ce567146104435780633298613114610465576102e7565b80632016a0d21161029457806324334be81161027957806324334be8146103ed57806327fc84a31461040d57806330adf81f1461042e576102e7565b80632016a0d2146103ab57806323b872dd146103cd576102e7565b8063095ea7b3116102c5578063095ea7b31461033a5780630dfe16811461036757806318160ddd14610389576102e7565b806306fdde03146102ec5780630902f1ac14610317576102e7565b366102e757005b600080fd5b3480156102f857600080fd5b506103016107cb565b60405161030e9190613b60565b60405180910390f35b34801561032357600080fd5b5061032c610877565b60405161030e929190613f9d565b34801561034657600080fd5b5061035a6103553660046137be565b6108a4565b60405161030e9190613afa565b34801561037357600080fd5b5061037c6108bb565b60405161030e9190613a24565b34801561039557600080fd5b5061039e6108ca565b60405161030e9190613b05565b3480156103b757600080fd5b506103cb6103c6366004613683565b6108d0565b005b3480156103d957600080fd5b5061035a6103e8366004613709565b610997565b3480156103f957600080fd5b5061039e6104083660046138a0565b610a49565b61042061041b36600461364b565b610a87565b60405161030e929190613fbe565b34801561043a57600080fd5b5061039e610f2f565b34801561044f57600080fd5b50610458610f53565b60405161030e9190614035565b34801561047157600080fd5b5061039e610f58565b34801561048657600080fd5b5061039e610f60565b34801561049b57600080fd5b5061039e6104aa36600461384a565b610f66565b3480156104bb57600080fd5b5061039e6104ca3660046138c1565b610f98565b3480156104db57600080fd5b5061039e611061565b3480156104f057600080fd5b506104206104ff36600461387d565b61106d565b34801561051057600080fd5b5061039e61051f3660046138f6565b611112565b610420610532366004613613565b6111a0565b34801561054357600080fd5b5061039e610552366004613613565b6114a0565b34801561056357600080fd5b5061039e610572366004613613565b6114b2565b34801561058357600080fd5b506103016114c4565b34801561059857600080fd5b5061039e6105a7366004613936565b61153d565b3480156105b857600080fd5b506104206105c736600461387d565b611593565b6105df6105da36600461364b565b611627565b60405161030e9493929190613feb565b6105df6105fd3660046137e9565b611c33565b34801561060e57600080fd5b506103016122d3565b34801561062357600080fd5b5061035a6106323660046137be565b61230c565b34801561064357600080fd5b5061039e6106523660046138c1565b612319565b34801561066357600080fd5b5061039e6106723660046138c1565b61233c565b34801561068357600080fd5b5061039e612372565b34801561069857600080fd5b506103cb6106a7366004613613565b61237a565b3480156106b857600080fd5b5061039e6106c736600461384a565b6124bc565b3480156106d857600080fd5b506104206106e736600461387d565b6124f2565b3480156106f857600080fd5b5061037c6125ac565b34801561070d57600080fd5b5061037c6125d0565b34801561072257600080fd5b506103cb610731366004613749565b6125df565b34801561074257600080fd5b5061042061075136600461387d565b61274e565b34801561076257600080fd5b5061039e61077136600461364b565b612857565b34801561078257600080fd5b5061042061079136600461387d565b612874565b3480156107a257600080fd5b506104206107b136600461387d565b61293b565b3480156107c257600080fd5b506103cb6129fb565b6005805460408051602060026001851615610100027fffffffffffffffffffffffffffffffffffffffffffffffffffffffffffffffff0190941693909304601f8101849004840282018401909252818152929183018282801561086f5780601f106108445761010080835404028352916020019161086f565b820191906000526020600020905b81548152906001019060200180831161085257829003601f168201915b505050505081565b6009546dffffffffffffffffffffffffffff808216926e0100000000000000000000000000009092041690565b60006108b1338484612b30565b5060015b92915050565b6007546001600160a01b031681565b60005481565b336001600160a01b037f000000000000000000000000000000000000000000000000000000000000000016146109215760405162461bcd60e51b815260040161091890613e64565b60405180910390fd5b600780546001600160a01b038087167fffffffffffffffffffffffff0000000000000000000000000000000000000000928316179092556008805492861692909116919091179055815161097c90600590602085019061347b565b50805161099090600690602084019061347b565b5050505050565b6001600160a01b03831660009081526002602090815260408083203384529091528120547fffffffffffffffffffffffffffffffffffffffffffffffffffffffffffffffff14610a34576001600160a01b0384166000908152600260209081526040808320338452909152902054610a0f9083612b98565b6001600160a01b03851660009081526002602090815260408083203384529091529020555b610a3f848484612bc0565b5060019392505050565b600954600090610a80906dffffffffffffffffffffffffffff808216916e010000000000000000000000000000900416858561153d565b9392505050565b600080600a54600114610aac5760405162461bcd60e51b815260040161091890613b73565b6000600a8190556007546008546040516370a0823160e01b81526001600160a01b0392831693919092169183906370a0823190610aed903090600401613a24565b60206040518083038186803b158015610b0557600080fd5b505afa158015610b19573d6000803e3d6000fd5b505050506040513d601f19601f82011682018060405250810190610b3d9190613865565b90506000826001600160a01b03166370a08231306040518263ffffffff1660e01b8152600401610b6d9190613a24565b60206040518083038186803b158015610b8557600080fd5b505afa158015610b99573d6000803e3d6000fd5b505050506040513d601f19601f82011682018060405250810190610bbd9190613865565b30600090815260016020908152604080832054905193945092479291606091610bee9133918f918f91899101613a38565b6040516020818303038152906040529050610c076134f9565b610c1388600284612c64565b608086015260408501526020840152825260608201526001600160a01b038d8116908a161415610c5157610c47858261293b565b909b509250610c8d565b876001600160a01b03168d6001600160a01b03161415610c7557610c47858261274e565b60405162461bcd60e51b815260040161091890613dbf565b50610ca49050610c9d8347612b98565b3490612b98565b975060008911610cc65760405162461bcd60e51b815260040161091890613df6565b610cd03084612d9e565b610cdb8b8b8b612e34565b8015610db5576040517f80feb3980000000000000000000000000000000000000000000000000000000081526001600160a01b037f000000000000000000000000000000000000000000000000000000000000000016906380feb39890610d46908990600401613a24565b60206040518083038186803b158015610d5e57600080fd5b505afa158015610d72573d6000803e3d6000fd5b505050506040513d601f19601f82011682018060405250810190610d96919061382a565b15610daa57610da58782612f9f565b610db5565b610db5878783613059565b6040516370a0823160e01b81526001600160a01b038816906370a0823190610de1903090600401613a24565b60206040518083038186803b158015610df957600080fd5b505afa158015610e0d573d6000803e3d6000fd5b505050506040513d601f19601f82011682018060405250810190610e319190613865565b6040516370a0823160e01b81529095506001600160a01b038716906370a0823190610e60903090600401613a24565b60206040518083038186803b158015610e7857600080fd5b505afa158015610e8c573d6000803e3d6000fd5b505050506040513d601f19601f82011682018060405250810190610eb09190613865565b9350610ebc8585613138565b8715610ecc57610ecc338961323e565b896001600160a01b0316336001600160a01b03167f3dd1df88dc92e2788892542d81f999d720a44b4c127065d45c128f4f59fdc3738d8c604051610f11929190613ab6565b60405180910390a3505050505050506001600a819055509250929050565b7f6e71edae12b1b97f4d1f60370fef10105fa2faae0126114a169c64845d6126c981565b601281565b6305f5e10081565b60035481565b6009546000906108b5906dffffffffffffffffffffffffffff808216916e010000000000000000000000000000900416845b6000805480610fb157670de0b6b3a76400009150611059565b6000610fce84606001516305f5e100612b9890919063ffffffff16565b90506000610ff76305f5e100610ff18760000151896132cb90919063ffffffff16565b906132cb565b9050600061101683610ff188602001518b6132cb90919063ffffffff16565b90506110538361104d886020015161104d8861104d61103e888a61330590919063ffffffff16565b670de0b6b3a7640000906132cb565b9061332a565b94505050505b509392505050565b670de0b6b3a764000081565b6000806110db61108e84608001516305f5e100612b9890919063ffffffff16565b61104d6110ac86606001516305f5e100612b9890919063ffffffff16565b61104d876020015161104d6305f5e100610ff16305f5e100610ff18d600001518f6132cb90919063ffffffff16565b9150826080015160001461110b576111086305f5e10061104d8560800151856132cb90919063ffffffff16565b90505b9250929050565b60008061112b8461104d88670de0b6b3a76400006132cb565b9050600061115a6305f5e100610ff18660000151610ff1670de0b6b3a76400008b6132cb90919063ffffffff16565b905061119561118e61117d86606001516305f5e10061330590919063ffffffff16565b602087015161104d9081868b61332a565b8390613305565b979650505050505050565b600080600a546001146111c55760405162461bcd60e51b815260040161091890613b73565b6000600a8190556007546008546001600160a01b0391821692911690806111ea610877565b915091506000846001600160a01b03166370a08231306040518263ffffffff1660e01b815260040161121c9190613a24565b60206040518083038186803b15801561123457600080fd5b505afa158015611248573d6000803e3d6000fd5b505050506040513d601f19601f8201168201806040525081019061126c9190613865565b90506000846001600160a01b03166370a08231306040518263ffffffff1660e01b815260040161129c9190613a24565b60206040518083038186803b1580156112b457600080fd5b505afa1580156112c8573d6000803e3d6000fd5b505050506040513d601f19601f820116820180604052508101906112ec9190613865565b9050600061130a836dffffffffffffffffffffffffffff8716612b98565b90506000611328836dffffffffffffffffffffffffffff8716612b98565b905060004790506060338d85856040516020016113489493929190613a8d565b60405160208183030381529060405290506113616134f9565b61136d8a600184612c64565b6080860152604085015260208401528252606082015260006113a36dffffffffffffffffffffffffffff808c16908b1684610f98565b9050600054600014156113e0576113ca633b9aca006113c488888587611112565b90612b98565b9d506113db6000633b9aca0061335c565b6113ef565b6113ec86868385611112565b9d505b506114019150610c9d90508247612b98565b995060008b116114235760405162461bcd60e51b815260040161091890613e2d565b61142d8c8c61335c565b6114378585613138565b891561144757611447338b61323e565b336001600160a01b03167f4c209b5fc8ad50758f13e2e1088ba56a560dff690a1c6fef26394f4c03821c4f8484604051611482929190613fbe565b60405180910390a25050505050505050506001600a81905550915091565b60016020526000908152604090205481565b60046020526000908152604090205481565b6006805460408051602060026001851615610100027fffffffffffffffffffffffffffffffffffffffffffffffffffffffffffffffff0190941693909304601f8101849004840282018401909252818152929183018282801561086f5780601f106108445761010080835404028352916020019161086f565b600080548061155657670de0b6b3a7640000915061158a565b600061156286866132cb565b9050600061157088866132cb565b90506115858561104d858161103e8787613305565b935050505b50949350505050565b6000806115fa6305f5e10061104d6305f5e10061104d876000015161104d6115cc8a608001516305f5e100612b9890919063ffffffff16565b610ff16115ea8c606001516305f5e100612b9890919063ffffffff16565b60208d0151610ff1908f906132cb565b9150826080015160001461110b576111086305f5e10061104d8560800151876132cb90919063ffffffff16565b6000806000611634613528565b600a546001146116565760405162461bcd60e51b815260040161091890613b73565b6000600a8190556007546008546040516370a0823160e01b81526001600160a01b0392831693919092169183906370a0823190611697903090600401613a24565b60206040518083038186803b1580156116af57600080fd5b505afa1580156116c3573d6000803e3d6000fd5b505050506040513d601f19601f820116820180604052508101906116e79190613865565b90506000826001600160a01b03166370a08231306040518263ffffffff1660e01b81526004016117179190613a24565b60206040518083038186803b15801561172f57600080fd5b505afa158015611743573d6000803e3d6000fd5b505050506040513d601f19601f820116820180604052508101906117679190613865565b905047600080611775610877565b91509150856001600160a01b03168d6001600160a01b031614156117b4576117ad856dffffffffffffffffffffffffffff8416612b98565b9a506117e8565b866001600160a01b03168d6001600160a01b03161415610c75576117ad846dffffffffffffffffffffffffffff8316612b98565b60008b116118085760405162461bcd60e51b815260040161091890613f66565b6060338e8e8e6040516020016118219493929190613a38565b604051602081830303815290604052905061183a6134f9565b61184688600384612c64565b608086015260408501526020840152825260608201526001600160a01b038f811690891614156118bc5761187a8d82611593565b8b526dffffffffffffffffffffffffffff8581166020808e01919091528301518351929e506118b292909161104d91908716906132cb565b60408b0152611927565b886001600160a01b03168f6001600160a01b03161415611927576118e08d82612874565b8b5260208201518251919d5061190b9161104d906dffffffffffffffffffffffffffff8716906132cb565b60208b01526dffffffffffffffffffffffffffff841660408b01525b611934610c9d8647612b98565b9a5061196a846dffffffffffffffffffffffffffff16846dffffffffffffffffffffffffffff168360000151846020015161153d565b60608b015250505050506001600160a01b03848116908a16148015906119a25750826001600160a01b0316896001600160a01b031614155b6119be5760405162461bcd60e51b815260040161091890613c86565b6119c98a8a89612e34565b845115611ab9576040517f80feb3980000000000000000000000000000000000000000000000000000000081526001600160a01b037f000000000000000000000000000000000000000000000000000000000000000016906380feb39890611a35908690600401613a24565b60206040518083038186803b158015611a4d57600080fd5b505afa158015611a61573d6000803e3d6000fd5b505050506040513d601f19601f82011682018060405250810190611a85919061382a565b15611aa157611a9c848660005b6020020151612f9f565b611ab9565b611ab484848760005b6020020151613059565b600085525b6040516370a0823160e01b81526001600160a01b038516906370a0823190611ae5903090600401613a24565b60206040518083038186803b158015611afd57600080fd5b505afa158015611b11573d6000803e3d6000fd5b505050506040513d601f19601f82011682018060405250810190611b359190613865565b6040516370a0823160e01b81529092506001600160a01b038416906370a0823190611b64903090600401613a24565b60206040518083038186803b158015611b7c57600080fd5b505afa158015611b90573d6000803e3d6000fd5b505050506040513d601f19601f82011682018060405250810190611bb49190613865565b9050611bc08282613138565b8515611bd057611bd0338761323e565b886001600160a01b0316336001600160a01b03167f053d794b2310b8d186a24ae24a65ee066983a52a6efa6bd3df09a7601a3cb4f38a8a8e604051611c1793929190613fcc565b60405180910390a350506001600a555093969295509093509150565b6000806000611c40613528565b600a54600114611c625760405162461bcd60e51b815260040161091890613b73565b6000600a556007546008546001600160a01b039182169116611c826134f9565b6040514790606090611c9e9033908e908e908e90602001613a62565b6040516020818303038152906040529050611cbb84600483612c64565b60808801526040870152602086015284526060840152611cde610c9d8347612b98565b965050506000836001600160a01b03166370a08231306040518263ffffffff1660e01b8152600401611d109190613a24565b60206040518083038186803b158015611d2857600080fd5b505afa158015611d3c573d6000803e3d6000fd5b505050506040513d601f19601f82011682018060405250810190611d609190613865565b90506000836001600160a01b03166370a08231306040518263ffffffff1660e01b8152600401611d909190613a24565b60206040518083038186803b158015611da857600080fd5b505afa158015611dbc573d6000803e3d6000fd5b505050506040513d601f19601f82011682018060405250810190611de09190613865565b9050600080611ded610877565b91509150856001600160a01b03168e6001600160a01b03161415611e6957611e25846dffffffffffffffffffffffffffff8416612b98565b6dffffffffffffffffffffffffffff8381166020808c01919091528701518751929d50611e5b92909161104d91908516906132cb565b8860025b6020020152611ee4565b866001600160a01b03168e6001600160a01b03161415610c7557611e9d836dffffffffffffffffffffffffffff8316612b98565b60208601518651919c50611ec69161104d906dffffffffffffffffffffffffffff8516906132cb565b60208901526dffffffffffffffffffffffffffff8216886002611e5f565b60008b11611f045760405162461bcd60e51b815260040161091890613f66565b611f38826dffffffffffffffffffffffffffff16826dffffffffffffffffffffffffffff168760000151886020015161153d565b60608901525060009250829150506001600160a01b03848116908d161415611f8a57611f648b8461106d565b87529150611f728983612b98565b90508015611f8557611f85858b83612e34565b611fcf565b846001600160a01b03168c6001600160a01b03161415611fcf57611fae8b846124f2565b87529150611fbc8983612b98565b90508015611fcf57611fcf848b83612e34565b88821115611fef5760405162461bcd60e51b815260040161091890613c18565b6000821161200f5760405162461bcd60e51b815260040161091890613d51565b5050826001600160a01b0316886001600160a01b0316141580156120455750816001600160a01b0316886001600160a01b031614155b6120615760405162461bcd60e51b815260040161091890613c86565b88955061206f8a8988612e34565b835115612153576040517f80feb3980000000000000000000000000000000000000000000000000000000081526001600160a01b037f000000000000000000000000000000000000000000000000000000000000000016906380feb398906120db908590600401613a24565b60206040518083038186803b1580156120f357600080fd5b505afa158015612107573d6000803e3d6000fd5b505050506040513d601f19601f8201168201806040525081019061212b919061382a565b156121415761213c83856000611a92565b612153565b61214e8383866000611aaa565b600084525b6040516370a0823160e01b81526000906001600160a01b038516906370a0823190612182903090600401613a24565b60206040518083038186803b15801561219a57600080fd5b505afa1580156121ae573d6000803e3d6000fd5b505050506040513d601f19601f820116820180604052508101906121d29190613865565b90506000836001600160a01b03166370a08231306040518263ffffffff1660e01b81526004016122029190613a24565b60206040518083038186803b15801561221a57600080fd5b505afa15801561222e573d6000803e3d6000fd5b505050506040513d601f19601f820116820180604052508101906122529190613865565b905061225e8282613138565b861561226e5761226e338861323e565b5050876001600160a01b0316336001600160a01b03167f053d794b2310b8d186a24ae24a65ee066983a52a6efa6bd3df09a7601a3cb4f389898e6040516122b793929190613fcc565b60405180910390a35050506001600a8190555093509350935093565b6040518060400160405280601081526020017f436f46695820506f6f6c20546f6b656e0000000000000000000000000000000081525081565b60006108b1338484612bc0565b60008061232583610f66565b905061233385858386611112565b95945050505050565b600080548061235557670de0b6b3a76400009150611059565b6000610fce84606001516305f5e10061330590919063ffffffff16565b633b9aca0081565b600a5460011461239c5760405162461bcd60e51b815260040161091890613b73565b6000600a556007546008546009546040516370a0823160e01b81526001600160a01b039384169390921691612451918491869161244c916dffffffffffffffffffffffffffff9091169084906370a08231906123fc903090600401613a24565b60206040518083038186803b15801561241457600080fd5b505afa158015612428573d6000803e3d6000fd5b505050506040513d601f19601f820116820180604052508101906113c49190613865565b612e34565b6124b2818461244c6009600e9054906101000a90046dffffffffffffffffffffffffffff166dffffffffffffffffffffffffffff16856001600160a01b03166370a08231306040518263ffffffff1660e01b81526004016123fc9190613a24565b50506001600a5550565b6009546000906108b5906dffffffffffffffffffffffffffff808216916e0100000000000000000000000000009004168461233c565b60008061254961251384608001516305f5e100612b9890919063ffffffff16565b61104d6305f5e10061104d876000015161104d6305f5e100610ff16115ea8c606001516305f5e10061330590919063ffffffff16565b9150826080015160001461110b576111086305f5e10061104d61257d86606001516305f5e10061330590919063ffffffff16565b61104d876020015161104d8960800151610ff16305f5e100610ff18d600001518d6132cb90919063ffffffff16565b7f000000000000000000000000000000000000000000000000000000000000000081565b6008546001600160a01b031681565b428410156125ff5760405162461bcd60e51b815260040161091890613d88565b6003546001600160a01b03881660009081526004602090815260408083208054600181019091559051929392612660927f6e71edae12b1b97f4d1f60370fef10105fa2faae0126114a169c64845d6126c9928d928d928d92918d9101613b0e565b604051602081830303815290604052805190602001206040516020016126879291906139ee565b6040516020818303038152906040528051906020012090506000600182868686604051600081526020016040526040516126c49493929190613b42565b6020604051602081039080840390855afa1580156126e6573d6000803e3d6000fd5b5050604051601f1901519150506001600160a01b0381161580159061271c5750886001600160a01b0316816001600160a01b0316145b6127385760405162461bcd60e51b815260040161091890613baa565b612743898989612b30565b505050505050505050565b60095460009081908190612788906dffffffffffffffffffffffffffff808216916e0100000000000000000000000000009004168661233c565b905060006127d96127aa86608001516305f5e100612b9890919063ffffffff16565b610ff16127c888606001516305f5e100612b9890919063ffffffff16565b6020890151610ff190818c896132cb565b905061280e6305f5e10061104d6305f5e10061104d896000015161104d670de0b6b3a76400008861332a90919063ffffffff16565b9350846080015160001461284e5761284b6305f5e10061104d670de0b6b3a764000061104d8960800151610ff1888d6132cb90919063ffffffff16565b92505b50509250929050565b600260209081526000928352604080842090915290825290205481565b6000806128d86305f5e10061104d61289d86606001516305f5e10061330590919063ffffffff16565b61104d876020015161104d6128c38a608001516305f5e100612b9890919063ffffffff16565b8a51610ff1906305f5e1009082908f906132cb565b9150826080015160001461110b576111086305f5e10061104d61290c86606001516305f5e10061330590919063ffffffff16565b61104d876020015161104d8960800151610ff16305f5e100610ff18d600001518f6132cb90919063ffffffff16565b60095460009081908190612975906dffffffffffffffffffffffffffff808216916e0100000000000000000000000000009004168661233c565b90506129b36305f5e10061104d670de0b6b3a764000061104d6129a989608001516305f5e100612b9890919063ffffffff16565b610ff18b886132cb565b925083608001516000146129f3576129f06305f5e10061104d670de0b6b3a764000061104d8860800151610ff1878c6132cb90919063ffffffff16565b91505b509250929050565b600a54600114612a1d5760405162461bcd60e51b815260040161091890613b73565b6000600a556007546040516370a0823160e01b8152612b29916001600160a01b0316906370a0823190612a54903090600401613a24565b60206040518083038186803b158015612a6c57600080fd5b505afa158015612a80573d6000803e3d6000fd5b505050506040513d601f19601f82011682018060405250810190612aa49190613865565b6008546040516370a0823160e01b81526001600160a01b03909116906370a0823190612ad4903090600401613a24565b60206040518083038186803b158015612aec57600080fd5b505afa158015612b00573d6000803e3d6000fd5b505050506040513d601f19601f82011682018060405250810190612b249190613865565b613138565b6001600a55565b6001600160a01b0380841660008181526002602090815260408083209487168084529490915290819020849055517f8c5be1e5ebec7d5bd14f71427d1e84f3dd0314c0f7b2291e5b200ac8c7c3b92590612b8b908590613b05565b60405180910390a3505050565b600082821115612bba5760405162461bcd60e51b815260040161091890613c4f565b50900390565b6001600160a01b038316600090815260016020526040902054612be39082612b98565b6001600160a01b038085166000908152600160205260408082209390935590841681522054612c129082613305565b6001600160a01b0380841660008181526001602052604090819020939093559151908516907fddf252ad1be2c89b69c2b068fc378daa952ba7f163c4a11628f55a4df523b3ef90612b8b908590613b05565b60008060008060007f00000000000000000000000000000000000000000000000000000000000000006001600160a01b0316633018205f6040518163ffffffff1660e01b815260040160206040518083038186803b158015612cc557600080fd5b505afa158015612cd9573d6000803e3d6000fd5b505050506040513d601f19601f82011682018060405250810190612cfd919061362f565b6001600160a01b0316638dba9329348a8a6004811115612d1957fe5b8a6040518563ffffffff1660e01b8152600401612d3893929190613acf565b60a0604051808303818588803b158015612d5157600080fd5b505af1158015612d65573d6000803e3d6000fd5b50505050506040513d601f19601f82011682018060405250810190612d8a9190613967565b939c929b5090995097509095509350505050565b6001600160a01b038216600090815260016020526040902054612dc19082612b98565b6001600160a01b03831660009081526001602052604081209190915554612de89082612b98565b60009081556040516001600160a01b038416907fddf252ad1be2c89b69c2b068fc378daa952ba7f163c4a11628f55a4df523b3ef90612e28908590613b05565b60405180910390a35050565b604080518082018252601981527f7472616e7366657228616464726573732c75696e743235362900000000000000602090910152516000906060906001600160a01b038616907fa9059cbb2ab09eb219583f4a59a5d0623ade346d962bcd4e46b11da047c9049b90612eac9087908790602401613ab6565b60408051601f198184030181529181526020820180517bffffffffffffffffffffffffffffffffffffffffffffffffffffffff167fffffffff00000000000000000000000000000000000000000000000000000000909416939093179092529051612f1791906139d2565b6000604051808303816000865af19150503d8060008114612f54576040519150601f19603f3d011682016040523d82523d6000602084013e612f59565b606091505b5091509150818015612f83575080511580612f83575080806020019051810190612f83919061382a565b6109905760405162461bcd60e51b815260040161091890613ef8565b60007f00000000000000000000000000000000000000000000000000000000000000006001600160a01b031663e8a353926040518163ffffffff1660e01b815260040160206040518083038186803b158015612ffa57600080fd5b505afa15801561300e573d6000803e3d6000fd5b505050506040513d601f19601f82011682018060405250810190613032919061362f565b90506001600160a01b0381166130485750613055565b6130538382846133dd565b505b5050565b6040517f72b8cbcc0000000000000000000000000000000000000000000000000000000081526000906001600160a01b037f000000000000000000000000000000000000000000000000000000000000000016906372b8cbcc906130c1908690600401613a24565b60206040518083038186803b1580156130d957600080fd5b505afa1580156130ed573d6000803e3d6000fd5b505050506040513d601f19601f82011682018060405250810190613111919061362f565b90506001600160a01b0381166131275750613053565b6131328482846133dd565b50505050565b6dffffffffffffffffffffffffffff821180159061316457506dffffffffffffffffffffffffffff8111155b6131805760405162461bcd60e51b815260040161091890613f2f565b600980547fffffffffffffffffffffffffffffffffffff0000000000000000000000000000166dffffffffffffffffffffffffffff848116919091177fffffffff0000000000000000000000000000ffffffffffffffffffffffffffff166e010000000000000000000000000000848316810291909117928390556040517f1c411e9a96e071241c2f21f7726b17ae89e3cab4c78be50e062b03a9fffbbad19361323293818116939091041690613f9d565b60405180910390a15050565b604080516000808252602082019092526001600160a01b03841690839060405161326891906139d2565b60006040518083038185875af1925050503d80600081146132a5576040519150601f19603f3d011682016040523d82523d6000602084013e6132aa565b606091505b50509050806130535760405162461bcd60e51b815260040161091890613e9b565b6000826132da575060006108b5565b828202828482816132e757fe5b0414610a805760405162461bcd60e51b815260040161091890613cf4565b600082820183811015610a805760405162461bcd60e51b815260040161091890613be1565b600080821161334b5760405162461bcd60e51b815260040161091890613cbd565b81838161335457fe5b049392505050565b6000546133699082613305565b60009081556001600160a01b03831681526001602052604090205461338e9082613305565b6001600160a01b0383166000818152600160205260408082209390935591519091907fddf252ad1be2c89b69c2b068fc378daa952ba7f163c4a11628f55a4df523b3ef90612e28908590613b05565b6040516370a0823160e01b81526000906001600160a01b038516906370a082319061340c903090600401613a24565b60206040518083038186803b15801561342457600080fd5b505afa158015613438573d6000803e3d6000fd5b505050506040513d601f19601f8201168201806040525081019061345c9190613865565b90508082111561346a578091505b811561313257613132848484612e34565b828054600181600116156101000203166002900490600052602060002090601f016020900481019282601f106134bc57805160ff19168380011785556134e9565b828001600101855582156134e9579182015b828111156134e95782518255916020019190600101906134ce565b506134f5929150613546565b5090565b6040518060a0016040528060008152602001600081526020016000815260200160008152602001600081525090565b60405180608001604052806004906020820280368337509192915050565b5b808211156134f55760008155600101613547565b600082601f83011261356b578081fd5b813567ffffffffffffffff811115613581578182fd5b6135946020601f19601f84011601614043565b91508082528360208285010111156135ab57600080fd5b8060208401602084013760009082016020015292915050565b600060a082840312156135d5578081fd5b6135df60a0614043565b9050813581526020820135602082015260408201356040820152606082013560608201526080820135608082015292915050565b600060208284031215613624578081fd5b8135610a8081614096565b600060208284031215613640578081fd5b8151610a8081614096565b6000806040838503121561365d578081fd5b823561366881614096565b9150602083013561367881614096565b809150509250929050565b60008060008060808587031215613698578182fd5b84356136a381614096565b935060208501356136b381614096565b9250604085013567ffffffffffffffff808211156136cf578384fd5b6136db8883890161355b565b935060608701359150808211156136f0578283fd5b506136fd8782880161355b565b91505092959194509250565b60008060006060848603121561371d578283fd5b833561372881614096565b9250602084013561373881614096565b929592945050506040919091013590565b600080600080600080600060e0888a031215613763578283fd5b873561376e81614096565b9650602088013561377e81614096565b95506040880135945060608801359350608088013560ff811681146137a1578384fd5b9699959850939692959460a0840135945060c09093013592915050565b600080604083850312156137d0578182fd5b82356137db81614096565b946020939093013593505050565b6000806000606084860312156137fd578283fd5b833561380881614096565b925060208401359150604084013561381f81614096565b809150509250925092565b60006020828403121561383b578081fd5b81518015158114610a80578182fd5b600060a0828403121561385b578081fd5b610a8083836135c4565b600060208284031215613876578081fd5b5051919050565b60008060c0838503121561388f578182fd5b8235915061110884602085016135c4565b600080604083850312156138b2578182fd5b50508035926020909101359150565b600080600060e084860312156138d5578081fd5b83359250602084013591506138ed85604086016135c4565b90509250925092565b600080600080610100858703121561390c578182fd5b84359350602085013592506040850135915061392b86606087016135c4565b905092959194509250565b6000806000806080858703121561394b578182fd5b5050823594602084013594506040840135936060013592509050565b600080600080600060a0868803121561397e578283fd5b5050835160208501516040860151606087015160809097015192989197509594509092509050565b600081518084526139be81602086016020860161406a565b601f01601f19169290920160200192915050565b600082516139e481846020870161406a565b9190910192915050565b7f190100000000000000000000000000000000000000000000000000000000000081526002810192909252602282015260420190565b6001600160a01b0391909116815260200190565b6001600160a01b039485168152928416602084015292166040820152606081019190915260800190565b6001600160a01b03948516815292841660208401526040830191909152909116606082015260800190565b6001600160a01b0394851681529290931660208301526040820152606081019190915260800190565b6001600160a01b03929092168252602082015260400190565b60006001600160a01b038516825260ff841660208301526060604083015261233360608301846139a6565b901515815260200190565b90815260200190565b9586526001600160a01b0394851660208701529290931660408501526060840152608083019190915260a082015260c00190565b93845260ff9290921660208401526040830152606082015260800190565b600060208252610a8060208301846139a6565b6020808252600d908201527f43506169723a204c4f434b454400000000000000000000000000000000000000604082015260600190565b60208082526019908201527f4345524332303a20494e56414c49445f5349474e415455524500000000000000604082015260600190565b6020808252601b908201527f536166654d6174683a206164646974696f6e206f766572666c6f770000000000604082015260600190565b6020808252601c908201527f43506169723a20696e73756666696369656e7420616d6f756e74496e00000000604082015260600190565b6020808252601e908201527f536166654d6174683a207375627472616374696f6e206f766572666c6f770000604082015260600190565b60208082526011908201527f43506169723a20494e56414c49445f544f000000000000000000000000000000604082015260600190565b6020808252601a908201527f536166654d6174683a206469766973696f6e206279207a65726f000000000000604082015260600190565b60208082526021908201527f536166654d6174683a206d756c7469706c69636174696f6e206f766572666c6f60408201527f7700000000000000000000000000000000000000000000000000000000000000606082015260800190565b6020808252601c908201527f43506169723a2077726f6e6720616d6f756e74496e206e656564656400000000604082015260600190565b6020808252600f908201527f4345524332303a20455850495245440000000000000000000000000000000000604082015260600190565b60208082526015908201527f43506169723a2077726f6e67206f7574546f6b656e0000000000000000000000604082015260600190565b6020808252601d908201527f43506169723a2053484f52545f4c49515549444954595f4255524e4544000000604082015260600190565b6020808252601d908201527f43506169723a2053484f52545f4c49515549444954595f4d494e544544000000604082015260600190565b60208082526010908201527f43506169723a20464f5242494444454e00000000000000000000000000000000604082015260600190565b60208082526023908201527f5472616e7366657248656c7065723a204554485f5452414e534645525f46414960408201527f4c45440000000000000000000000000000000000000000000000000000000000606082015260800190565b60208082526016908201527f43506169723a205452414e534645525f4641494c454400000000000000000000604082015260600190565b6020808252600f908201527f43506169723a204f564552464c4f570000000000000000000000000000000000604082015260600190565b60208082526015908201527f43506169723a2077726f6e6720616d6f756e74496e0000000000000000000000604082015260600190565b6dffffffffffffffffffffffffffff92831681529116602082015260400190565b918252602082015260400190565b92835260208301919091526001600160a01b0316604082015260600190565b600060e08201905085825260208581840152846040840152606083018460005b60048110156140285781518352918301919083019060010161400b565b5050505095945050505050565b60ff91909116815260200190565b60405181810167ffffffffffffffff8111828210171561406257600080fd5b604052919050565b60005b8381101561408557818101518382015260200161406d565b838111156131325750506000910152565b6001600160a01b03811681146140ab57600080fd5b5056fea2646970667358221220e83e45b562cef0a375362acb16e9488bb35c7b841f46ce7a5538d67387c937b064736f6c634300060c0033",
  "immutableReferences": {
    "7601": [
      {
        "length": 32,
        "start": 2267
      },
      {
        "length": 32,
        "start": 3345
      },
      {
        "length": 32,
        "start": 6656
      },
      {
        "length": 32,
        "start": 8358
      },
      {
        "length": 32,
        "start": 9646
      },
      {
        "length": 32,
        "start": 11374
      },
      {
        "length": 32,
        "start": 12195
      },
      {
        "length": 32,
        "start": 12428
      }
    ]
  },
  "source": "// SPDX-License-Identifier: GPL-3.0-or-later\npragma experimental ABIEncoderV2;\npragma solidity 0.6.12;\n\nimport \"./interface/ICoFiXPair.sol\";\nimport \"./interface/ICoFiXFactory.sol\";\nimport \"./interface/ICoFiXController.sol\";\nimport \"@openzeppelin/contracts/token/ERC20/IERC20.sol\";\nimport \"./CoFiXERC20.sol\";\nimport \"./lib/TransferHelper.sol\";\n\n// Pair contract for each trading pair, storing assets and handling settlement\n// No owner or governance\ncontract CoFiXPair is ICoFiXPair, CoFiXERC20 {\n    using SafeMath for uint;\n\n    enum CoFiX_OP { QUERY, MINT, BURN, SWAP_WITH_EXACT, SWAP_FOR_EXACT } // operations in CoFiX\n\n    uint public override constant MINIMUM_LIQUIDITY = 10**9; // it's negligible because we calc liquidity in ETH\n    bytes4 private constant SELECTOR = bytes4(keccak256(bytes(\"transfer(address,uint256)\")));\n\n    uint256 constant public K_BASE = 1E8; // K\n    uint256 constant public NAVPS_BASE = 1E18; // NAVPS (Net Asset Value Per Share), need accuracy\n    uint256 constant public THETA_BASE = 1E8; // theta\n\n    string public name;\n    string public symbol;\n\n    address public override immutable factory;\n    address public override token0; // WETH token\n    address public override token1; // any ERC20 token\n\n    uint112 private reserve0;           // uses single storage slot, accessible via getReserves\n    uint112 private reserve1;           // uses single storage slot, accessible via getReserves\n\n    uint private unlocked = 1;\n\n    event Mint(address indexed sender, uint amount0, uint amount1);\n    event Burn(address indexed sender, address outToken, uint outAmount, address indexed to);\n    event Swap(\n        address indexed sender,\n        uint amountIn,\n        uint amountOut,\n        address outToken,\n        address indexed to\n    );\n    event Sync(uint112 reserve0, uint112 reserve1);\n\n    modifier lock() {\n        require(unlocked == 1, \"CPair: LOCKED\");\n        unlocked = 0;\n        _;\n        unlocked = 1;\n    }\n\n    constructor() public {\n        factory = msg.sender;\n    }\n\n    receive() external payable {}\n\n    // called once by the factory at time of deployment\n    function initialize(address _token0, address _token1, string memory _name, string memory _symbol) external override {\n        require(msg.sender == factory, \"CPair: FORBIDDEN\"); // sufficient check\n        token0 = _token0;\n        token1 = _token1;\n        name = _name;\n        symbol = _symbol;\n    }\n\n    function getReserves() public override view returns (uint112 _reserve0, uint112 _reserve1) {\n        _reserve0 = reserve0;\n        _reserve1 = reserve1;\n    }\n\n    function _safeTransfer(address token, address to, uint value) private {\n        (bool success, bytes memory data) = token.call(abi.encodeWithSelector(SELECTOR, to, value));\n        require(success && (data.length == 0 || abi.decode(data, (bool))), \"CPair: TRANSFER_FAILED\");\n    }\n\n    // update reserves\n    function _update(uint balance0, uint balance1) private {\n        require(balance0 <= uint112(-1) && balance1 <= uint112(-1), \"CPair: OVERFLOW\");\n        reserve0 = uint112(balance0);\n        reserve1 = uint112(balance1);\n        emit Sync(reserve0, reserve1);\n    }\n\n    // this low-level function should be called from a contract which performs important safety checks\n    function mint(address to) external payable override lock returns (uint liquidity, uint oracleFeeChange) {\n        address _token0 = token0;                                // gas savings\n        address _token1 = token1;                                // gas savings\n        (uint112 _reserve0, uint112 _reserve1) = getReserves(); // gas savings\n        uint balance0 = IERC20(_token0).balanceOf(address(this));\n        uint balance1 = IERC20(_token1).balanceOf(address(this));\n        uint amount0 = balance0.sub(_reserve0);\n        uint amount1 = balance1.sub(_reserve1);\n\n        uint256 _ethBalanceBefore = address(this).balance;\n        { // scope for ethAmount/erc20Amount/blockNum to avoid stack too deep error\n            bytes memory data = abi.encode(msg.sender, to, amount0, amount1);\n            // query price\n            OraclePrice memory _op;\n            (_op.K, _op.ethAmount, _op.erc20Amount, _op.blockNum, _op.theta) = _queryOracle(_token1, CoFiX_OP.MINT, data);\n            uint256 navps = calcNAVPerShareForMint(_reserve0, _reserve1, _op);\n            if (totalSupply == 0) {\n                liquidity = calcLiquidity(amount0, amount1, navps, _op).sub(MINIMUM_LIQUIDITY);\n                _mint(address(0), MINIMUM_LIQUIDITY); // permanently lock the first MINIMUM_LIQUIDITY tokens\n            } else {\n                liquidity = calcLiquidity(amount0, amount1, navps, _op);\n            }\n        }\n        oracleFeeChange = msg.value.sub(_ethBalanceBefore.sub(address(this).balance));\n\n        require(liquidity > 0, \"CPair: SHORT_LIQUIDITY_MINTED\");\n        _mint(to, liquidity);\n\n        _update(balance0, balance1);\n        if (oracleFeeChange > 0) TransferHelper.safeTransferETH(msg.sender, oracleFeeChange);\n\n        emit Mint(msg.sender, amount0, amount1);\n    }\n\n    // this low-level function should be called from a contract which performs important safety checks\n    function burn(address outToken, address to) external payable override lock returns (uint amountOut, uint oracleFeeChange) {\n        address _token0 = token0;                                // gas savings\n        address _token1 = token1;                                // gas savings\n        uint balance0 = IERC20(_token0).balanceOf(address(this));\n        uint balance1 = IERC20(_token1).balanceOf(address(this));\n        uint liquidity = balanceOf[address(this)];\n\n        uint256 _ethBalanceBefore = address(this).balance;\n        uint256 fee;\n        {\n            bytes memory data = abi.encode(msg.sender, outToken, to, liquidity);\n            // query price\n            OraclePrice memory _op;\n            (_op.K, _op.ethAmount, _op.erc20Amount, _op.blockNum, _op.theta) = _queryOracle(_token1, CoFiX_OP.BURN, data);\n            if (outToken == _token0) {\n                (amountOut, fee) = calcOutToken0ForBurn(liquidity, _op); // navps calculated\n            } else if (outToken == _token1) {\n                (amountOut, fee) = calcOutToken1ForBurn(liquidity, _op); // navps calculated\n            }  else {\n                revert(\"CPair: wrong outToken\");\n            }\n        }\n        oracleFeeChange = msg.value.sub(_ethBalanceBefore.sub(address(this).balance));\n\n        require(amountOut > 0, \"CPair: SHORT_LIQUIDITY_BURNED\");\n        _burn(address(this), liquidity);\n        _safeTransfer(outToken, to, amountOut);\n        if (fee > 0) {\n            if (ICoFiXFactory(factory).getTradeMiningStatus(_token1)) {\n                // only transfer fee to protocol feeReceiver when trade mining is enabled for this trading pair\n                _safeSendFeeForCoFiHolder(_token0, fee);\n            } else {\n                _safeSendFeeForLP(_token0, _token1, fee);\n            }\n        }\n        balance0 = IERC20(_token0).balanceOf(address(this));\n        balance1 = IERC20(_token1).balanceOf(address(this));\n\n        _update(balance0, balance1);\n        if (oracleFeeChange > 0) TransferHelper.safeTransferETH(msg.sender, oracleFeeChange);\n\n        emit Burn(msg.sender, outToken, amountOut, to);\n    }\n\n\n    // this low-level function should be called from a contract which performs important safety checks\n    function swapWithExact(address outToken, address to)\n        external\n        payable override lock\n        returns (uint amountIn, uint amountOut, uint oracleFeeChange, uint256[4] memory tradeInfo)\n    {\n        // tradeInfo[0]: thetaFee, tradeInfo[1]: x, tradeInfo[2]: y, tradeInfo[3]: navps\n        address _token0 = token0;\n        address _token1 = token1;\n        uint256 balance0 = IERC20(_token0).balanceOf(address(this));\n        uint256 balance1 = IERC20(_token1).balanceOf(address(this));\n\n        // uint256 fee;\n        { // scope for ethAmount/erc20Amount/blockNum to avoid stack too deep error\n            uint256 _ethBalanceBefore = address(this).balance;\n            (uint112 _reserve0, uint112 _reserve1) = getReserves(); // gas savings\n            // calc amountIn\n            if (outToken == _token1) {\n                amountIn = balance0.sub(_reserve0);\n            } else if (outToken == _token0) {\n                amountIn = balance1.sub(_reserve1);\n            } else {\n                revert(\"CPair: wrong outToken\");\n            }\n            require(amountIn > 0, \"CPair: wrong amountIn\");\n            bytes memory data = abi.encode(msg.sender, outToken, to, amountIn);\n            // query price\n            OraclePrice memory _op;\n            (_op.K, _op.ethAmount, _op.erc20Amount, _op.blockNum, _op.theta) = _queryOracle(_token1, CoFiX_OP.SWAP_WITH_EXACT, data);\n            if (outToken == _token1) {\n                (amountOut, tradeInfo[0]) = calcOutToken1(amountIn, _op);\n                tradeInfo[1] = _reserve0; // swap token0 for token1 out\n                tradeInfo[2] = uint256(_reserve1).mul(_op.ethAmount).div(_op.erc20Amount); // _reserve1 value as _reserve0\n            } else if (outToken == _token0) {\n                (amountOut, tradeInfo[0]) = calcOutToken0(amountIn, _op);\n                tradeInfo[1] = uint256(_reserve1).mul(_op.ethAmount).div(_op.erc20Amount); // _reserve1 value as _reserve0\n                tradeInfo[2] = _reserve0; // swap token1 for token0 out\n            }\n            oracleFeeChange = msg.value.sub(_ethBalanceBefore.sub(address(this).balance));\n            tradeInfo[3] = calcNAVPerShare(_reserve0, _reserve1, _op.ethAmount, _op.erc20Amount);\n        }\n        \n        require(to != _token0 && to != _token1, \"CPair: INVALID_TO\");\n\n        _safeTransfer(outToken, to, amountOut); // optimistically transfer tokens\n        if (tradeInfo[0] > 0) {\n            if (ICoFiXFactory(factory).getTradeMiningStatus(_token1)) {\n                // only transfer fee to protocol feeReceiver when trade mining is enabled for this trading pair\n                _safeSendFeeForCoFiHolder(_token0, tradeInfo[0]);\n            } else {\n                _safeSendFeeForLP(_token0, _token1, tradeInfo[0]);\n                tradeInfo[0] = 0; // so router won't go into the trade mining logic (reduce one more call gas cost)\n            }\n        }\n        balance0 = IERC20(_token0).balanceOf(address(this));\n        balance1 = IERC20(_token1).balanceOf(address(this));\n\n        _update(balance0, balance1);\n        if (oracleFeeChange > 0) TransferHelper.safeTransferETH(msg.sender, oracleFeeChange);\n\n        emit Swap(msg.sender, amountIn, amountOut, outToken, to);\n    }\n\n    // this low-level function should be called from a contract which performs important safety checks\n    function swapForExact(address outToken, uint amountOutExact, address to)\n        external\n        payable override lock\n        returns (uint amountIn, uint amountOut, uint oracleFeeChange, uint256[4] memory tradeInfo)\n    {\n        // tradeInfo[0]: thetaFee, tradeInfo[1]: x, tradeInfo[2]: y, tradeInfo[3]: navps\n        address _token0 = token0;\n        address _token1 = token1;\n        OraclePrice memory _op;\n\n        // uint256 fee;\n\n        { // scope for ethAmount/erc20Amount/blockNum to avoid stack too deep error\n            uint256 _ethBalanceBefore = address(this).balance;\n            bytes memory data = abi.encode(msg.sender, outToken, amountOutExact, to);\n            // query price\n            (_op.K, _op.ethAmount, _op.erc20Amount, _op.blockNum, _op.theta) = _queryOracle(_token1, CoFiX_OP.SWAP_FOR_EXACT, data);\n            oracleFeeChange = msg.value.sub(_ethBalanceBefore.sub(address(this).balance));\n        }\n\n        { // calc and check amountIn, also outToken\n            uint256 balance0 = IERC20(_token0).balanceOf(address(this));\n            uint256 balance1 = IERC20(_token1).balanceOf(address(this));\n            (uint112 _reserve0, uint112 _reserve1) = getReserves(); // gas savings\n     \n            if (outToken == _token1) {\n                amountIn = balance0.sub(_reserve0);\n                tradeInfo[1] = _reserve0; // swap token0 for token1 out\n                tradeInfo[2] = uint256(_reserve1).mul(_op.ethAmount).div(_op.erc20Amount); // _reserve1 value as _reserve0\n            } else if (outToken == _token0) {\n                amountIn = balance1.sub(_reserve1);\n                tradeInfo[1] = uint256(_reserve1).mul(_op.ethAmount).div(_op.erc20Amount); // _reserve1 value as _reserve0\n                tradeInfo[2] = _reserve0; // swap token1 for token0 out\n            } else {\n                revert(\"CPair: wrong outToken\");\n            }\n            require(amountIn > 0, \"CPair: wrong amountIn\");\n            tradeInfo[3] = calcNAVPerShare(_reserve0, _reserve1, _op.ethAmount, _op.erc20Amount);\n        }\n\n        { // split with branch upbove to make code more clear\n            uint _amountInNeeded;\n            uint _amountInLeft;\n            if (outToken == _token1) {\n                (_amountInNeeded, tradeInfo[0]) = calcInNeededToken0(amountOutExact, _op);\n                _amountInLeft = amountIn.sub(_amountInNeeded);\n                if (_amountInLeft > 0) {\n                    _safeTransfer(_token0, to, _amountInLeft); // send back the amount0 token change\n                }\n            } else if (outToken == _token0) {\n                (_amountInNeeded, tradeInfo[0]) = calcInNeededToken1(amountOutExact, _op);\n                _amountInLeft = amountIn.sub(_amountInNeeded);\n                if (_amountInLeft > 0) {\n                    _safeTransfer(_token1, to, _amountInLeft); // send back the amount1 token change\n                }\n            }\n            require(_amountInNeeded <= amountIn, \"CPair: insufficient amountIn\");\n            require(_amountInNeeded > 0, \"CPair: wrong amountIn needed\");\n        }\n        \n        {\n            require(to != _token0 && to != _token1, \"CPair: INVALID_TO\");\n\n            amountOut = amountOutExact;\n            _safeTransfer(outToken, to, amountOut); // optimistically transfer tokens\n            if (tradeInfo[0] > 0) {\n                if (ICoFiXFactory(factory).getTradeMiningStatus(_token1)) {\n                    // only transfer fee to protocol feeReceiver when trade mining is enabled for this trading pair\n                    _safeSendFeeForCoFiHolder(_token0, tradeInfo[0]);\n                } else {\n                    _safeSendFeeForLP(_token0, _token1, tradeInfo[0]);\n                    tradeInfo[0] = 0; // so router won't go into the trade mining logic (reduce one more call gas cost)\n                }\n            }\n            uint256 balance0 = IERC20(_token0).balanceOf(address(this));\n            uint256 balance1 = IERC20(_token1).balanceOf(address(this));\n\n            _update(balance0, balance1);\n            if (oracleFeeChange > 0) TransferHelper.safeTransferETH(msg.sender, oracleFeeChange);\n        }\n\n        emit Swap(msg.sender, amountIn, amountOut, outToken, to);\n    }\n\n    // force balances to match reserves\n    function skim(address to) external override lock {\n        address _token0 = token0; // gas savings\n        address _token1 = token1; // gas savings\n        _safeTransfer(_token0, to, IERC20(_token0).balanceOf(address(this)).sub(reserve0));\n        _safeTransfer(_token1, to, IERC20(_token1).balanceOf(address(this)).sub(reserve1));\n    }\n\n    // force reserves to match balances\n    function sync() external override lock {\n        _update(IERC20(token0).balanceOf(address(this)), IERC20(token1).balanceOf(address(this)));\n    }\n\n    // calc Net Asset Value Per Share for mint\n    // use it in this contract, for optimized gas usage\n    function calcNAVPerShareForMint(uint256 balance0, uint256 balance1, OraclePrice memory _op) public view returns (uint256 navps) {\n        uint _totalSupply = totalSupply;\n        if (_totalSupply == 0) {\n            navps = NAVPS_BASE;\n        } else {\n            /*\n            N_{p} &= (A_{u}/P_{s}^{'} + A_{e})/S \\\\\\\\\n                  &= (A_{u}/(P * (1 - K)) + A_{e})/S \\\\\\\\\n                  &= (\\frac{A_{u}}{\\frac{erc20Amount}{ethAmount} * \\frac{(k_{BASE} - k)}{(k_{BASE})}} + A_{e})/S \\\\\\\\\n                  &= (\\frac{A_{u}*ethAmount*k_{BASE}}{erc20Amount*(k_{BASE} - k)}+ A_{e}) / S \\\\\\\\\n                  &= (A_{u}*ethAmount*k_{BASE}+ A_{e}*erc20Amount*(k_{BASE} - k)) / S / (erc20Amount*(k_{BASE} - k)) \\\\\\\\\n            N_{p} &= NAVPS_{BASE}*(A_{u}*ethAmount*k_{BASE}+ A_{e}*erc20Amount*(k_{BASE} - k)) / S / (erc20Amount*(k_{BASE} - k)) \\\\\\\\\n            // navps = NAVPS_BASE * ( (balance1*_op.ethAmount*K_BASE) + (balance0*_op.erc20Amount*(K_BASE-_op.K)) ) / _totalSupply / _op.erc20Amount / (K_BASE-_op.K);\n            */\n            uint256 kbaseSubK = K_BASE.sub(_op.K);\n            uint256 balance1MulEthKbase = balance1.mul(_op.ethAmount).mul(K_BASE);\n            uint256 balance0MulErcKbsk = balance0.mul(_op.erc20Amount).mul(kbaseSubK);\n            navps = NAVPS_BASE.mul( (balance1MulEthKbase).add(balance0MulErcKbsk) ).div(_totalSupply).div(_op.erc20Amount).div(kbaseSubK);\n        }\n    }\n\n    // calc Net Asset Value Per Share for burn\n    // use it in this contract, for optimized gas usage\n    function calcNAVPerShareForBurn(uint256 balance0, uint256 balance1, OraclePrice memory _op) public view returns (uint256 navps) {\n        uint _totalSupply = totalSupply;\n        if (_totalSupply == 0) {\n            navps = NAVPS_BASE;\n        } else {\n            /*\n            N_{p}^{'} &= (A_{u}/P_{b}^{'} + A_{e})/S \\\\\\\\\n                      &= (A_{u}/(P * (1 + K)) + A_{e})/S \\\\\\\\\n                      &= (\\frac{A_{u}}{\\frac{erc20Amount}{ethAmount} * \\frac{(k_{BASE} + k)}{(k_{BASE})}} + A_{e})/S \\\\\\\\\n                      &= (\\frac{A_{u}*ethAmount*k_{BASE}}{erc20Amount*(k_{BASE} + k)}+ A_{e}) / S \\\\\\\\\n                      &= (A_{u}*ethAmount*k_{BASE}+ A_{e}*erc20Amount*(k_{BASE} + k)) / S / (erc20Amount*(k_{BASE} + k)) \\\\\\\\\n            N_{p}^{'} &= NAVPS_{BASE}*(A_{u}*ethAmount*k_{BASE}+ A_{e}*erc20Amount*(k_{BASE} + k)) / S / (erc20Amount*(k_{BASE} + k)) \\\\\\\\\n            // navps = NAVPS_BASE * ( (balance1*_op.ethAmount*K_BASE) + (balance0*_op.erc20Amount*(K_BASE+_op.K)) ) / _totalSupply / _op.erc20Amount / (K_BASE+_op.K);\n            */\n            uint256 kbaseAddK = K_BASE.add(_op.K);\n            uint256 balance1MulEthKbase = balance1.mul(_op.ethAmount).mul(K_BASE);\n            uint256 balance0MulErcKbsk = balance0.mul(_op.erc20Amount).mul(kbaseAddK);\n            navps = NAVPS_BASE.mul( (balance1MulEthKbase).add(balance0MulErcKbsk) ).div(_totalSupply).div(_op.erc20Amount).div(kbaseAddK);\n        }\n    }\n\n    // calc Net Asset Value Per Share (no K)\n    // use it in this contract, for optimized gas usage\n    function calcNAVPerShare(uint256 balance0, uint256 balance1, uint256 ethAmount, uint256 erc20Amount) public view returns (uint256 navps) {\n        uint _totalSupply = totalSupply;\n        if (_totalSupply == 0) {\n            navps = NAVPS_BASE;\n        } else {\n            /*\n            N_{p}^{'} &= (A_{u}/P + A_{e})/S \\\\\\\\\n                      &= (\\frac{A_{u}}{\\frac{erc20Amount}{ethAmount}} + A_{e})/S \\\\\\\\\n                      &= (\\frac{A_{u}*ethAmount}{erc20Amount}+ A_{e}) / S \\\\\\\\\n                      &= (A_{u}*ethAmount+ A_{e}*erc20Amount) / S / (erc20Amount) \\\\\\\\\n            N_{p}^{'} &= NAVPS_{BASE}*(A_{u}*ethAmount+ A_{e}*erc20Amount) / S / (erc20Amount) \\\\\\\\\n            // navps = NAVPS_BASE * ( (balance1*_op.ethAmount) + (balance0*_op.erc20Amount) ) / _totalSupply / _op.erc20Amount;\n            */\n            uint256 balance1MulEth = balance1.mul(ethAmount);\n            uint256 balance0MulErc = balance0.mul(erc20Amount);\n            navps = NAVPS_BASE.mul( (balance1MulEth).add(balance0MulErc) ).div(_totalSupply).div(erc20Amount);\n        }\n    }\n\n    // use it in this contract, for optimized gas usage\n    function calcLiquidity(uint256 amount0, uint256 amount1, uint256 navps, OraclePrice memory _op) public pure returns (uint256 liquidity) {\n        /*\n        s_{1} &= a / (N_{p} / NAVPS_{BASE}) \\\\\\\\\n              &= a * NAVPS_{BASE} / N_{p} \\\\\\\\\n        s_{2} &= b / P_{b}^{'} / (N_{p} / NAVPS_{BASE}) \\\\\\\\\n              &= b / (N_{p} / NAVPS_{BASE}) / P_{b}^{'} \\\\\\\\\n              &= b * NAVPS_{BASE} / N_{p} / P_{b}^{'} \\\\\\\\\n              &= b * NAVPS_{BASE} / N_{p} / (\\frac{erc20Amount}{ethAmount} * \\frac{(k_{BASE} + k)}{(k_{BASE})}) \\\\\\\\\n              &= b * NAVPS_{BASE} * ethAmount * k_{BASE} / N_{p} / (erc20Amount * (k_{BASE} + k))\n        s &= s_1 + s_2 \\\\\\\\\n          &= a * NAVPS_{BASE} / N_{p} + b * NAVPS_{BASE} / N_{p} / P_{b}^{'} \\\\\\\\\n          &= a * NAVPS_{BASE} / N_{p} + b * NAVPS_{BASE} * ethAmount * k_{BASE} / N_{p} / (erc20Amount * (k_{BASE} + k)) \\\\\\\\\n        // liquidity = (amount0 * NAVPS_BASE / navps) + (amount1 * NAVPS_BASE * _op.ethAmount * K_BASE / navps / _op.erc20Amount / (K_BASE + _op.K));\n        */\n        uint256 amnt0MulNbaseDivN = amount0.mul(NAVPS_BASE).div(navps);\n        uint256 amnt1MulNbaseEthKbase = amount1.mul(NAVPS_BASE).mul(_op.ethAmount).mul(K_BASE);\n        liquidity = ( amnt0MulNbaseDivN ).add( amnt1MulNbaseEthKbase.div(navps).div(_op.erc20Amount).div(K_BASE.add(_op.K)) );\n    }\n\n    // get Net Asset Value Per Share for mint\n    // only for read, could cost more gas if use it directly in contract\n    function getNAVPerShareForMint(OraclePrice memory _op) public view returns (uint256 navps) {\n        return calcNAVPerShareForMint(reserve0, reserve1, _op);\n    }\n\n    // get Net Asset Value Per Share for burn\n    // only for read, could cost more gas if use it directly in contract\n    function getNAVPerShareForBurn(OraclePrice memory _op) external view returns (uint256 navps) {\n        return calcNAVPerShareForBurn(reserve0, reserve1, _op);\n    }\n\n    // get Net Asset Value Per Share\n    // only for read, could cost more gas if use it directly in contract\n    function getNAVPerShare(uint256 ethAmount, uint256 erc20Amount) external override view returns (uint256 navps) {\n        return calcNAVPerShare(reserve0, reserve1, ethAmount, erc20Amount);\n    }\n\n    // get estimated liquidity amount (it represents the amount of pool tokens will be minted if someone provide liquidity to the pool)\n    // only for read, could cost more gas if use it directly in contract\n    function getLiquidity(uint256 amount0, uint256 amount1, OraclePrice memory _op) external view returns (uint256 liquidity) {\n        uint256 navps = getNAVPerShareForMint(_op);\n        return calcLiquidity(amount0, amount1, navps, _op);\n    }\n\n    // calc amountOut for token0 (WETH) when send liquidity token to pool for burning\n    function calcOutToken0ForBurn(uint256 liquidity, OraclePrice memory _op) public view returns (uint256 amountOut, uint256 fee) {\n        /*\n        e &= c * (N_{p}^{'} / NAVPS_{BASE}) * (THETA_{BASE} - \\theta)/THETA_{BASE} \\\\\\\\\n          &= c * \\frac{N_{p}^{'}}{NAVPS_{BASE}} * \\frac{THETA_{BASE} - \\theta}{THETA_{BASE}} \\\\\\\\\n          &= c * N_{p}^{'} * (THETA_{BASE} - \\theta) / NAVPS_{BASE} / THETA_{BASE} \\\\\\\\\n        // amountOut = liquidity * navps * (THETA_BASE - _op.theta) / NAVPS_BASE / THETA_BASE;\n        */\n        uint256 navps = calcNAVPerShareForBurn(reserve0, reserve1, _op);\n        amountOut = liquidity.mul(navps).mul(THETA_BASE.sub(_op.theta)).div(NAVPS_BASE).div(THETA_BASE);\n        if (_op.theta != 0) {\n            // fee = liquidity * navps * (_op.theta) / NAVPS_BASE / THETA_BASE;\n            fee = liquidity.mul(navps).mul(_op.theta).div(NAVPS_BASE).div(THETA_BASE);\n        }\n        return (amountOut, fee);\n    }\n\n\n    // calc amountOut for token1 (ERC20 token) when send liquidity token to pool for burning\n    function calcOutToken1ForBurn(uint256 liquidity, OraclePrice memory _op) public view returns (uint256 amountOut, uint256 fee) {\n        /*\n        u &= c * (N_{p}^{'} / NAVPS_{BASE}) * P_{s}^{'} * (THETA_{BASE} - \\theta)/THETA_{BASE} \\\\\\\\\n          &= c * \\frac{N_{p}^{'}}{NAVPS_{BASE}} * \\frac{erc20Amount}{ethAmount} * \\frac{(k_{BASE} - k)}{(k_{BASE})} * \\frac{THETA_{BASE} - \\theta}{THETA_{BASE}} \\\\\\\\\n          &= \\frac{c * N_{p}^{'} * erc20Amount * (k_{BASE} - k) * (THETA_{BASE} - \\theta)}{NAVPS_{BASE}*ethAmount*k_{BASE}*THETA_{BASE}}\n        // amountOut = liquidity * navps * _op.erc20Amount * (K_BASE - _op.K) * (THETA_BASE - _op.theta) / NAVPS_BASE / _op.ethAmount / K_BASE / THETA_BASE;\n        */\n        uint256 navps = calcNAVPerShareForBurn(reserve0, reserve1, _op);\n        uint256 liqMulMany = liquidity.mul(navps).mul(_op.erc20Amount).mul(K_BASE.sub(_op.K)).mul(THETA_BASE.sub(_op.theta));\n        amountOut = liqMulMany.div(NAVPS_BASE).div(_op.ethAmount).div(K_BASE).div(THETA_BASE);\n        if (_op.theta != 0) {\n            // fee = liquidity * navps * (_op.theta) / NAVPS_BASE / THETA_BASE;\n            fee = liquidity.mul(navps).mul(_op.theta).div(NAVPS_BASE).div(THETA_BASE);\n        }\n        return (amountOut, fee);\n    }\n\n    // get estimated amountOut for token0 (WETH) when swapWithExact\n    function calcOutToken0(uint256 amountIn, OraclePrice memory _op) public pure returns (uint256 amountOut, uint256 fee) {\n        /*\n        x &= (a/P_{b}^{'})*\\frac{THETA_{BASE} - \\theta}{THETA_{BASE}} \\\\\\\\\n          &= a / (\\frac{erc20Amount}{ethAmount} * \\frac{(k_{BASE} + k)}{(k_{BASE})}) * \\frac{THETA_{BASE} - \\theta}{THETA_{BASE}} \\\\\\\\\n          &= \\frac{a*ethAmount*k_{BASE}}{erc20Amount*(k_{BASE} + k)} * \\frac{THETA_{BASE} - \\theta}{THETA_{BASE}} \\\\\\\\\n          &= \\frac{a*ethAmount*k_{BASE}*(THETA_{BASE} - \\theta)}{erc20Amount*(k_{BASE} + k)*THETA_{BASE}} \\\\\\\\\n        // amountOut = amountIn * _op.ethAmount * K_BASE * (THETA_BASE - _op.theta) / _op.erc20Amount / (K_BASE + _op.K) / THETA_BASE;\n        */\n        amountOut = amountIn.mul(_op.ethAmount).mul(K_BASE).mul(THETA_BASE.sub(_op.theta)).div(_op.erc20Amount).div(K_BASE.add(_op.K)).div(THETA_BASE);\n        if (_op.theta != 0) {\n            // fee = amountIn * _op.ethAmount * K_BASE * (_op.theta) / _op.erc20Amount / (K_BASE + _op.K) / THETA_BASE;\n            fee = amountIn.mul(_op.ethAmount).mul(K_BASE).mul(_op.theta).div(_op.erc20Amount).div(K_BASE.add(_op.K)).div(THETA_BASE);\n        }\n        return (amountOut, fee);\n    }\n\n    // get estimated amountOut for token1 (ERC20 token) when swapWithExact\n    function calcOutToken1(uint256 amountIn, OraclePrice memory _op) public pure returns (uint256 amountOut, uint256 fee) {\n        /*\n        y &= b*P_{s}^{'}*\\frac{THETA_{BASE} - \\theta}{THETA_{BASE}} \\\\\\\\\n          &= b * \\frac{erc20Amount}{ethAmount} * \\frac{(k_{BASE} - k)}{(k_{BASE})} * \\frac{THETA_{BASE} - \\theta}{THETA_{BASE}} \\\\\\\\\n          &= \\frac{b*erc20Amount*(k_{BASE} - k)*(THETA_{BASE} - \\theta)}{ethAmount*k_{BASE}*THETA_{BASE}} \\\\\\\\\n        // amountOut = amountIn * _op.erc20Amount * (K_BASE - _op.K) * (THETA_BASE - _op.theta) / _op.ethAmount / K_BASE / THETA_BASE;\n        */\n        amountOut = amountIn.mul(_op.erc20Amount).mul(K_BASE.sub(_op.K)).mul(THETA_BASE.sub(_op.theta)).div(_op.ethAmount).div(K_BASE).div(THETA_BASE);\n        if (_op.theta != 0) {\n            // fee = amountIn * _op.theta / THETA_BASE;\n            fee = amountIn.mul(_op.theta).div(THETA_BASE);\n        }\n        return (amountOut, fee);\n    }\n\n    // get estimate amountInNeeded for token0 (WETH) when swapForExact\n    function calcInNeededToken0(uint256 amountOut, OraclePrice memory _op) public pure returns (uint256 amountInNeeded, uint256 fee) {\n        // inverse of calcOutToken1\n        // amountOut = amountIn.mul(_op.erc20Amount).mul(K_BASE.sub(_op.K)).mul(THETA_BASE.sub(_op.theta)).div(_op.ethAmount).div(K_BASE).div(THETA_BASE);\n        amountInNeeded = amountOut.mul(_op.ethAmount).mul(K_BASE).mul(THETA_BASE).div(_op.erc20Amount).div(K_BASE.sub(_op.K)).div(THETA_BASE.sub(_op.theta));\n        if (_op.theta != 0) {\n            // fee = amountIn * _op.theta / THETA_BASE;\n            fee = amountInNeeded.mul(_op.theta).div(THETA_BASE);\n        }\n        return (amountInNeeded, fee);\n    }\n\n    // get estimate amountInNeeded for token1 (ERC20 token) when swapForExact\n    function calcInNeededToken1(uint256 amountOut, OraclePrice memory _op) public pure returns (uint256 amountInNeeded, uint256 fee) {\n        // inverse of calcOutToken0\n        // amountOut = amountIn.mul(_op.ethAmount).mul(K_BASE).mul(THETA_BASE.sub(_op.theta)).div(_op.erc20Amount).div(K_BASE.add(_op.K)).div(THETA_BASE);\n        amountInNeeded = amountOut.mul(_op.erc20Amount).mul(K_BASE.add(_op.K)).mul(THETA_BASE).div(_op.ethAmount).div(K_BASE).div(THETA_BASE.sub(_op.theta));\n        if (_op.theta != 0) {\n            // fee = amountIn * _op.ethAmount * K_BASE * (_op.theta) / _op.erc20Amount / (K_BASE + _op.K) / THETA_BASE;\n            fee = amountInNeeded.mul(_op.ethAmount).mul(K_BASE).mul(_op.theta).div(_op.erc20Amount).div(K_BASE.add(_op.K)).div(THETA_BASE);\n        }\n        return (amountInNeeded, fee);\n    }\n\n    function _queryOracle(address token, CoFiX_OP op, bytes memory data) internal returns (uint256, uint256, uint256, uint256, uint256) {\n        return ICoFiXController(ICoFiXFactory(factory).getController()).queryOracle{value: msg.value}(token, uint8(op), data);\n    }\n\n    // Safe WETH transfer function, just in case not having enough WETH. CoFi holder will earn these fees.\n    function _safeSendFeeForCoFiHolder(address _token0, uint256 _fee) internal {\n        address feeReceiver = ICoFiXFactory(factory).getFeeReceiver();\n        if (feeReceiver == address(0)) {\n            return; // if feeReceiver not set, theta fee keeps in pair pool\n        }\n        _safeSendFee(_token0, feeReceiver, _fee); // transfer fee to protocol fee reward pool for CoFi holders\n    }\n\n    // Safe WETH transfer function, just in case not having enough WETH. LP will earn these fees.\n    function _safeSendFeeForLP(address _token0, address _token1, uint256 _fee) internal {\n        address feeVault = ICoFiXFactory(factory).getFeeVaultForLP(_token1);\n        if (feeVault == address(0)) {\n            return; // if fee vault not set, theta fee keeps in pair pool\n        }\n        _safeSendFee(_token0, feeVault, _fee); // transfer fee to protocol fee reward pool for LP\n    }\n\n    function _safeSendFee(address _token0, address _receiver, uint256 _fee) internal {\n        uint256 wethBal = IERC20(_token0).balanceOf(address(this));\n        if (_fee > wethBal) {\n            _fee = wethBal;\n        }\n        if (_fee > 0) _safeTransfer(_token0, _receiver, _fee); \n    }\n}\n//  & CoFi Rocks",
  "sourcePath": "/Users/lixiansheng/Downloads/CoFix/contracts/CoFiXPair.sol",
  "compiler": {
    "name": "solc",
    "version": "0.6.12+commit.27d51765.Emscripten.clang"
  },
  "schemaVersion": "3.4.1",
  "updatedAt": "2021-05-11T03:07:09.776Z",
  "devdoc": {
    "kind": "dev",
    "methods": {
      "getNAVPerShare(uint256,uint256)": {
        "details": "get Net Asset Value Per Share",
        "params": {
          "erc20Amount": "Token side of Oracle price {ETH <-> ERC20 Token}",
          "ethAmount": "ETH side of Oracle price {ETH <-> ERC20 Token}"
        },
        "returns": {
          "navps": "The Net Asset Value Per Share (liquidity) represents"
        }
      }
    },
    "version": 1
  },
  "userdoc": {
    "kind": "user",
    "methods": {},
    "version": 1
  }
}