{
  "contractName": "CoFiXRouter",
  "abi": [
    {
      "inputs": [
        {
          "internalType": "address",
          "name": "_factory",
          "type": "address"
        },
        {
          "internalType": "address",
          "name": "_WETH",
          "type": "address"
        }
      ],
      "stateMutability": "nonpayable",
      "type": "constructor"
    },
    {
      "inputs": [],
      "name": "WETH",
      "outputs": [
        {
          "internalType": "address",
          "name": "",
          "type": "address"
        }
      ],
      "stateMutability": "view",
      "type": "function",
      "constant": true
    },
    {
      "inputs": [],
      "name": "factory",
      "outputs": [
        {
          "internalType": "address",
          "name": "",
          "type": "address"
        }
      ],
      "stateMutability": "view",
      "type": "function",
      "constant": true
    },
    {
      "stateMutability": "payable",
      "type": "receive",
      "payable": true
    },
    {
      "inputs": [
        {
          "internalType": "address",
          "name": "token",
          "type": "address"
        },
        {
          "internalType": "uint256",
          "name": "amountETH",
          "type": "uint256"
        },
        {
          "internalType": "uint256",
          "name": "amountToken",
          "type": "uint256"
        },
        {
          "internalType": "uint256",
          "name": "liquidityMin",
          "type": "uint256"
        },
        {
          "internalType": "address",
          "name": "to",
          "type": "address"
        },
        {
          "internalType": "uint256",
          "name": "deadline",
          "type": "uint256"
        }
      ],
      "name": "addLiquidity",
      "outputs": [
        {
          "internalType": "uint256",
          "name": "liquidity",
          "type": "uint256"
        }
      ],
      "stateMutability": "payable",
      "type": "function",
      "payable": true
    },
    {
      "inputs": [
        {
          "internalType": "address",
          "name": "token",
          "type": "address"
        },
        {
          "internalType": "uint256",
          "name": "amountETH",
          "type": "uint256"
        },
        {
          "internalType": "uint256",
          "name": "amountToken",
          "type": "uint256"
        },
        {
          "internalType": "uint256",
          "name": "liquidityMin",
          "type": "uint256"
        },
        {
          "internalType": "address",
          "name": "to",
          "type": "address"
        },
        {
          "internalType": "uint256",
          "name": "deadline",
          "type": "uint256"
        }
      ],
      "name": "addLiquidityAndStake",
      "outputs": [
        {
          "internalType": "uint256",
          "name": "liquidity",
          "type": "uint256"
        }
      ],
      "stateMutability": "payable",
      "type": "function",
      "payable": true
    },
    {
      "inputs": [
        {
          "internalType": "address",
          "name": "token",
          "type": "address"
        },
        {
          "internalType": "uint256",
          "name": "liquidity",
          "type": "uint256"
        },
        {
          "internalType": "uint256",
          "name": "amountTokenMin",
          "type": "uint256"
        },
        {
          "internalType": "address",
          "name": "to",
          "type": "address"
        },
        {
          "internalType": "uint256",
          "name": "deadline",
          "type": "uint256"
        }
      ],
      "name": "removeLiquidityGetToken",
      "outputs": [
        {
          "internalType": "uint256",
          "name": "amountToken",
          "type": "uint256"
        }
      ],
      "stateMutability": "payable",
      "type": "function",
      "payable": true
    },
    {
      "inputs": [
        {
          "internalType": "address",
          "name": "token",
          "type": "address"
        },
        {
          "internalType": "uint256",
          "name": "liquidity",
          "type": "uint256"
        },
        {
          "internalType": "uint256",
          "name": "amountETHMin",
          "type": "uint256"
        },
        {
          "internalType": "address",
          "name": "to",
          "type": "address"
        },
        {
          "internalType": "uint256",
          "name": "deadline",
          "type": "uint256"
        }
      ],
      "name": "removeLiquidityGetETH",
      "outputs": [
        {
          "internalType": "uint256",
          "name": "amountETH",
          "type": "uint256"
        }
      ],
      "stateMutability": "payable",
      "type": "function",
      "payable": true
    },
    {
      "inputs": [
        {
          "internalType": "address",
          "name": "token",
          "type": "address"
        },
        {
          "internalType": "uint256",
          "name": "amountIn",
          "type": "uint256"
        },
        {
          "internalType": "uint256",
          "name": "amountOutMin",
          "type": "uint256"
        },
        {
          "internalType": "address",
          "name": "to",
          "type": "address"
        },
        {
          "internalType": "address",
          "name": "rewardTo",
          "type": "address"
        },
        {
          "internalType": "uint256",
          "name": "deadline",
          "type": "uint256"
        }
      ],
      "name": "swapExactETHForTokens",
      "outputs": [
        {
          "internalType": "uint256",
          "name": "_amountIn",
          "type": "uint256"
        },
        {
          "internalType": "uint256",
          "name": "_amountOut",
          "type": "uint256"
        }
      ],
      "stateMutability": "payable",
      "type": "function",
      "payable": true
    },
    {
      "inputs": [
        {
          "internalType": "address",
          "name": "tokenIn",
          "type": "address"
        },
        {
          "internalType": "address",
          "name": "tokenOut",
          "type": "address"
        },
        {
          "internalType": "uint256",
          "name": "amountIn",
          "type": "uint256"
        },
        {
          "internalType": "uint256",
          "name": "amountOutMin",
          "type": "uint256"
        },
        {
          "internalType": "address",
          "name": "to",
          "type": "address"
        },
        {
          "internalType": "address",
          "name": "rewardTo",
          "type": "address"
        },
        {
          "internalType": "uint256",
          "name": "deadline",
          "type": "uint256"
        }
      ],
      "name": "swapExactTokensForTokens",
      "outputs": [
        {
          "internalType": "uint256",
          "name": "_amountIn",
          "type": "uint256"
        },
        {
          "internalType": "uint256",
          "name": "_amountOut",
          "type": "uint256"
        }
      ],
      "stateMutability": "payable",
      "type": "function",
      "payable": true
    },
    {
      "inputs": [
        {
          "internalType": "address",
          "name": "token",
          "type": "address"
        },
        {
          "internalType": "uint256",
          "name": "amountIn",
          "type": "uint256"
        },
        {
          "internalType": "uint256",
          "name": "amountOutMin",
          "type": "uint256"
        },
        {
          "internalType": "address",
          "name": "to",
          "type": "address"
        },
        {
          "internalType": "address",
          "name": "rewardTo",
          "type": "address"
        },
        {
          "internalType": "uint256",
          "name": "deadline",
          "type": "uint256"
        }
      ],
      "name": "swapExactTokensForETH",
      "outputs": [
        {
          "internalType": "uint256",
          "name": "_amountIn",
          "type": "uint256"
        },
        {
          "internalType": "uint256",
          "name": "_amountOut",
          "type": "uint256"
        }
      ],
      "stateMutability": "payable",
      "type": "function",
      "payable": true
    },
    {
      "inputs": [
        {
          "internalType": "address",
          "name": "token",
          "type": "address"
        },
        {
          "internalType": "uint256",
          "name": "amountInMax",
          "type": "uint256"
        },
        {
          "internalType": "uint256",
          "name": "amountOutExact",
          "type": "uint256"
        },
        {
          "internalType": "address",
          "name": "to",
          "type": "address"
        },
        {
          "internalType": "address",
          "name": "rewardTo",
          "type": "address"
        },
        {
          "internalType": "uint256",
          "name": "deadline",
          "type": "uint256"
        }
      ],
      "name": "swapETHForExactTokens",
      "outputs": [
        {
          "internalType": "uint256",
          "name": "_amountIn",
          "type": "uint256"
        },
        {
          "internalType": "uint256",
          "name": "_amountOut",
          "type": "uint256"
        }
      ],
      "stateMutability": "payable",
      "type": "function",
      "payable": true
    },
    {
      "inputs": [
        {
          "internalType": "address",
          "name": "token",
          "type": "address"
        },
        {
          "internalType": "uint256",
          "name": "amountInMax",
          "type": "uint256"
        },
        {
          "internalType": "uint256",
          "name": "amountOutExact",
          "type": "uint256"
        },
        {
          "internalType": "address",
          "name": "to",
          "type": "address"
        },
        {
          "internalType": "address",
          "name": "rewardTo",
          "type": "address"
        },
        {
          "internalType": "uint256",
          "name": "deadline",
          "type": "uint256"
        }
      ],
      "name": "swapTokensForExactETH",
      "outputs": [
        {
          "internalType": "uint256",
          "name": "_amountIn",
          "type": "uint256"
        },
        {
          "internalType": "uint256",
          "name": "_amountOut",
          "type": "uint256"
        }
      ],
      "stateMutability": "payable",
      "type": "function",
      "payable": true
    }
  ],
  "bytecode": "0x60c060405234801561001057600080fd5b50604051612ef4380380612ef48339818101604052604081101561003357600080fd5b5080516020909101516001600160601b0319606092831b8116608052911b1660a05260805160601c60a05160601c612dd661011e6000398061046e52806105105280610c235280610ed9528061121352806112b5528061156d5280611685528061170d528061188c52806119005280611f59528061204152806121ea52806122f5528061273852806127ac5250806104e752806106d652806109125280610ba75280610d0c5280610e68528061128c528061151e52806117f05280611a735280611d8d5280611e63528061217c5280612375528061254c52806125f452806126f75250612dd66000f3fe6080604052600436106100c05760003560e01c8063ad5c464811610074578063e1a385dd1161004e578063e1a385dd146102ef578063e5a81d6014610331578063e5d8936514610379576100c7565b8063ad5c464814610263578063bd23f30e14610294578063c45a0155146102da576100c7565b806346c173a2116100a557806346c173a2146101815780637738ebbd146101d3578063acdb6cd41461021b576100c7565b80632f59c2d5146100cc5780633f3f246a1461012d576100c7565b366100c757005b600080fd5b610114600480360360c08110156100e257600080fd5b506001600160a01b03813581169160208101359160408201359160608101358216916080820135169060a001356103bf565b6040805192835260208301919091528051918290030190f35b61016f600480360360a081101561014357600080fd5b506001600160a01b0381358116916020810135916040820135916060810135909116906080013561085e565b60408051918252519081900360200190f35b610114600480360360e081101561019757600080fd5b506001600160a01b0381358116916020810135821691604082013591606081013591608082013581169160a08101359091169060c00135610aec565b610114600480360360c08110156101e957600080fd5b506001600160a01b03813581169160208101359160408201359160608101358216916080820135169060a00135611164565b610114600480360360c081101561023157600080fd5b506001600160a01b03813581169160208101359160408201359160608101358216916080820135169060a00135611469565b34801561026f57600080fd5b5061027861170b565b604080516001600160a01b039092168252519081900360200190f35b61016f600480360360c08110156102aa57600080fd5b506001600160a01b0381358116916020810135916040820135916060810135916080820135169060a0013561172f565b3480156102e657600080fd5b50610278611d8b565b61016f600480360360a081101561030557600080fd5b506001600160a01b03813581169160208101359160408201359160608101359091169060800135611daf565b610114600480360360c081101561034757600080fd5b506001600160a01b03813581169160208101359160408201359160608101358216916080820135169060a001356120c7565b61016f600480360360c081101561038f57600080fd5b506001600160a01b0381358116916020810135916040820135916060810135916080820135169060a001356124e7565b6000808242811015610418576040805162461bcd60e51b815260206004820152601060248201527f43526f757465723a204558504952454400000000000000000000000000000000604482015290519081900360640190fd5b87341161046c576040805162461bcd60e51b815260206004820152601f60248201527f43526f757465723a20696e73756666696369656e74206d73672e76616c756500604482015290519081900360640190fd5b7f00000000000000000000000000000000000000000000000000000000000000006001600160a01b031663d0e30db0896040518263ffffffff1660e01b81526004016000604051808303818588803b1580156104c757600080fd5b505af11580156104db573d6000803e3d6000fd5b5050505050600061050c7f00000000000000000000000000000000000000000000000000000000000000008b612939565b90507f00000000000000000000000000000000000000000000000000000000000000006001600160a01b031663a9059cbb828b6040518363ffffffff1660e01b815260040180836001600160a01b0316815260200182815260200192505050602060405180830381600087803b15801561058557600080fd5b505af1158015610599573d6000803e3d6000fd5b505050506040513d60208110156105af57600080fd5b50516105b757fe5b60006105c1612cd7565b6001600160a01b038316639f44296a6105da348e6129bb565b8e8c6040518463ffffffff1660e01b815260040180836001600160a01b03168152602001826001600160a01b031681526020019250505060e0604051808303818588803b15801561062a57600080fd5b505af115801561063e573d6000803e3d6000fd5b50505050506040513d601f19601f8201168201806040525060e081101561066457600080fd5b50805160208201516040830151919850965092506060019050898510156106d2576040805162461bcd60e51b815260206004820152601f60248201527f43526f757465723a20676f74206c657373207468616e20657870656374656400604482015290519081900360640190fd5b60007f00000000000000000000000000000000000000000000000000000000000000006001600160a01b031663b58aa4786040518163ffffffff1660e01b815260040160206040518083038186803b15801561072d57600080fd5b505afa158015610741573d6000803e3d6000fd5b505050506040513d602081101561075757600080fd5b505182519091501580159061077457506001600160a01b03891615155b801561078857506001600160a01b03811615155b1561083e5781516020830151604080850151606086015182517f5e3ddd690000000000000000000000000000000000000000000000000000000081526001600160a01b038a8116600483015260248201969096526044810194909452606484019190915260848301528b831660a48301525191831691635e3ddd699160c48082019260009290919082900301818387803b15801561082557600080fd5b505af1158015610839573d6000803e3d6000fd5b505050505b821561084e5761084e3384612a18565b5050505050965096945050505050565b600081428110156108b6576040805162461bcd60e51b815260206004820152601060248201527f43526f757465723a204558504952454400000000000000000000000000000000604482015290519081900360640190fd5b6000341161090b576040805162461bcd60e51b815260206004820152601f60248201527f43526f757465723a20696e73756666696369656e74206d73672e76616c756500604482015290519081900360640190fd5b60006109377f000000000000000000000000000000000000000000000000000000000000000089612939565b604080517f23b872dd0000000000000000000000000000000000000000000000000000000081523360048201526001600160a01b03831660248201819052604482018b9052915192935090916323b872dd916064808201926020929091908290030181600087803b1580156109ab57600080fd5b505af11580156109bf573d6000803e3d6000fd5b505050506040513d60208110156109d557600080fd5b5050604080517f27fc84a30000000000000000000000000000000000000000000000000000000081526001600160a01b038a8116600483015287811660248301528251600093918516926327fc84a392349260448084019382900301818588803b158015610a4257600080fd5b505af1158015610a56573d6000803e3d6000fd5b50505050506040513d6040811015610a6d57600080fd5b508051602090910151909450905086841015610ad0576040805162461bcd60e51b815260206004820152601f60248201527f43526f757465723a20676f74206c657373207468616e20657870656374656400604482015290519081900360640190fd5b8015610ae057610ae03382612a18565b50505095945050505050565b6000808242811015610b45576040805162461bcd60e51b815260206004820152601060248201527f43526f757465723a204558504952454400000000000000000000000000000000604482015290519081900360640190fd5b60003411610b9a576040805162461bcd60e51b815260206004820152601f60248201527f43526f757465723a20696e73756666696369656e74206d73672e76616c756500604482015290519081900360640190fd5b610ba2612cf5565b610bcc7f00000000000000000000000000000000000000000000000000000000000000008c612939565b6001600160a01b0316808252610be6908c9033908c612b2e565b6000610bf0612cd7565b8251604080517f9f44296a0000000000000000000000000000000000000000000000000000000081526001600160a01b037f00000000000000000000000000000000000000000000000000000000000000008116600483015230602483015291519190921691639f44296a91349160448082019260e09290919082900301818588803b158015610c7f57600080fd5b505af1158015610c93573d6000803e3d6000fd5b50505050506040513d601f19601f8201168201806040525060e0811015610cb957600080fd5b50805160208083015160408085015181517fb58aa4780000000000000000000000000000000000000000000000000000000081529151949b50919950909550606090930193506000926001600160a01b037f0000000000000000000000000000000000000000000000000000000000000000169263b58aa47892600480840193919291829003018186803b158015610d5057600080fd5b505afa158015610d64573d6000803e3d6000fd5b505050506040513d6020811015610d7a57600080fd5b5051825190915015801590610d9757506001600160a01b03891615155b8015610dab57506001600160a01b03811615155b15610e6357835182516020840151604080860151606087015182517f5e3ddd690000000000000000000000000000000000000000000000000000000081526001600160a01b03968716600482015260248101959095526044850193909352606484015260848301919091528b831660a48301525191831691635e3ddd699160c48082019260009290919082900301818387803b158015610e4a57600080fd5b505af1158015610e5e573d6000803e3d6000fd5b505050505b610e8d7f00000000000000000000000000000000000000000000000000000000000000008e612939565b6001600160a01b039081166020808701829052604080517fa9059cbb0000000000000000000000000000000000000000000000000000000081526004810193909352602483018a9052517f00000000000000000000000000000000000000000000000000000000000000009093169263a9059cbb9260448082019392918290030181600087803b158015610f2057600080fd5b505af1158015610f34573d6000803e3d6000fd5b505050506040513d6020811015610f4a57600080fd5b5051610f5257fe5b83600160200201516001600160a01b0316639f44296a848f8d6040518463ffffffff1660e01b815260040180836001600160a01b03168152602001826001600160a01b031681526020019250505060e0604051808303818588803b158015610fb957600080fd5b505af1158015610fcd573d6000803e3d6000fd5b50505050506040513d601f19601f8201168201806040525060e0811015610ff357600080fd5b5060208101516040820151909750935060600191508a86101561105d576040805162461bcd60e51b815260206004820152601f60248201527f43526f757465723a20676f74206c657373207468616e20657870656374656400604482015290519081900360640190fd5b81511580159061107557506001600160a01b03891615155b801561108957506001600160a01b03811615155b1561114357602080850151835191840151604080860151606087015182517f5e3ddd690000000000000000000000000000000000000000000000000000000081526001600160a01b03958616600482015260248101969096526044860193909352606485015260848401919091528b821660a48401525190831691635e3ddd699160c480830192600092919082900301818387803b15801561112a57600080fd5b505af115801561113e573d6000803e3d6000fd5b505050505b8215611153576111533384612a18565b505050505097509795505050505050565b60008082428110156111bd576040805162461bcd60e51b815260206004820152601060248201527f43526f757465723a204558504952454400000000000000000000000000000000604482015290519081900360640190fd5b873411611211576040805162461bcd60e51b815260206004820152601f60248201527f43526f757465723a20696e73756666696369656e74206d73672e76616c756500604482015290519081900360640190fd5b7f00000000000000000000000000000000000000000000000000000000000000006001600160a01b031663d0e30db0896040518263ffffffff1660e01b81526004016000604051808303818588803b15801561126c57600080fd5b505af1158015611280573d6000803e3d6000fd5b505050505060006112b17f00000000000000000000000000000000000000000000000000000000000000008b612939565b90507f00000000000000000000000000000000000000000000000000000000000000006001600160a01b031663a9059cbb828b6040518363ffffffff1660e01b815260040180836001600160a01b0316815260200182815260200192505050602060405180830381600087803b15801561132a57600080fd5b505af115801561133e573d6000803e3d6000fd5b505050506040513d602081101561135457600080fd5b505161135c57fe5b6000611366612cd7565b6001600160a01b03831663a12db6cc61137f348e6129bb565b8e8d8d6040518563ffffffff1660e01b815260040180846001600160a01b03168152602001838152602001826001600160a01b03168152602001935050505060e0604051808303818588803b1580156113d757600080fd5b505af11580156113eb573d6000803e3d6000fd5b50505050506040513d601f19601f8201168201806040525060e081101561141157600080fd5b508051602082015160408301519198509650925060600190508a8611156106d25760405162461bcd60e51b8152600401808060200182810382526021815260200180612d146021913960400191505060405180910390fd5b60008082428110156114c2576040805162461bcd60e51b815260206004820152601060248201527f43526f757465723a204558504952454400000000000000000000000000000000604482015290519081900360640190fd5b60003411611517576040805162461bcd60e51b815260206004820152601f60248201527f43526f757465723a20696e73756666696369656e74206d73672e76616c756500604482015290519081900360640190fd5b60006115437f00000000000000000000000000000000000000000000000000000000000000008b612939565b90506115518a33838c612b2e565b600061155b612cd7565b826001600160a01b0316639f44296a347f0000000000000000000000000000000000000000000000000000000000000000306040518463ffffffff1660e01b815260040180836001600160a01b03168152602001826001600160a01b031681526020019250505060e0604051808303818588803b1580156115db57600080fd5b505af11580156115ef573d6000803e3d6000fd5b50505050506040513d601f19601f8201168201806040525060e081101561161557600080fd5b5080516020820151604083015191985096509250606001905089851015611683576040805162461bcd60e51b815260206004820152601f60248201527f43526f757465723a20676f74206c657373207468616e20657870656374656400604482015290519081900360640190fd5b7f00000000000000000000000000000000000000000000000000000000000000006001600160a01b0316632e1a7d4d866040518263ffffffff1660e01b815260040180828152602001915050600060405180830381600087803b1580156116e957600080fd5b505af11580156116fd573d6000803e3d6000fd5b505050506106d28986612a18565b7f000000000000000000000000000000000000000000000000000000000000000081565b60008142811015611787576040805162461bcd60e51b815260206004820152601060248201527f43526f757465723a204558504952454400000000000000000000000000000000604482015290519081900360640190fd5b8634116117db576040805162461bcd60e51b815260206004820152601f60248201527f43526f757465723a20696e73756666696369656e74206d73672e76616c756500604482015290519081900360640190fd5b60006117e734896129bb565b905060006118157f00000000000000000000000000000000000000000000000000000000000000008b612939565b90506001600160a01b038116611872576040805162461bcd60e51b815260206004820152601560248201527f43526f757465723a20696e76616c696420706169720000000000000000000000604482015290519081900360640190fd5b8715611884576118848a33838b612b2e565b88156119a7577f00000000000000000000000000000000000000000000000000000000000000006001600160a01b031663d0e30db08a6040518263ffffffff1660e01b81526004016000604051808303818588803b1580156118e557600080fd5b505af11580156118f9573d6000803e3d6000fd5b50505050507f00000000000000000000000000000000000000000000000000000000000000006001600160a01b031663a9059cbb828b6040518363ffffffff1660e01b815260040180836001600160a01b0316815260200182815260200192505050602060405180830381600087803b15801561197557600080fd5b505af1158015611989573d6000803e3d6000fd5b505050506040513d602081101561199f57600080fd5b50516119a757fe5b6000816001600160a01b0316636a62784284306040518363ffffffff1660e01b815260040180826001600160a01b0316815260200191505060408051808303818588803b1580156119f757600080fd5b505af1158015611a0b573d6000803e3d6000fd5b50505050506040513d6040811015611a2257600080fd5b508051602090910151909550905087851015611a6f5760405162461bcd60e51b8152600401808060200182810382526025815260200180612d356025913960400191505060405180910390fd5b60007f00000000000000000000000000000000000000000000000000000000000000006001600160a01b031663d2d7f8166040518163ffffffff1660e01b815260040160206040518083038186803b158015611aca57600080fd5b505afa158015611ade573d6000803e3d6000fd5b505050506040513d6020811015611af457600080fd5b5051604080517f38d8294b0000000000000000000000000000000000000000000000000000000081526001600160a01b038681166004830152915191909216916338d8294b916024808301926020929190829003018186803b158015611b5957600080fd5b505afa158015611b6d573d6000803e3d6000fd5b505050506040513d6020811015611b8357600080fd5b505190506001600160a01b038116611be2576040805162461bcd60e51b815260206004820152601d60248201527f43526f757465723a20696e76616c6964207374616b696e6720706f6f6c000000604482015290519081900360640190fd5b826001600160a01b031663095ea7b382886040518363ffffffff1660e01b815260040180836001600160a01b0316815260200182815260200192505050602060405180830381600087803b158015611c3957600080fd5b505af1158015611c4d573d6000803e3d6000fd5b505050506040513d6020811015611c6357600080fd5b5050604080517ffe72bd010000000000000000000000000000000000000000000000000000000081526001600160a01b038a811660048301526024820189905291519183169163fe72bd019160448082019260009290919082900301818387803b158015611cd057600080fd5b505af1158015611ce4573d6000803e3d6000fd5b50505050826001600160a01b031663095ea7b38260006040518363ffffffff1660e01b815260040180836001600160a01b0316815260200182815260200192505050602060405180830381600087803b158015611d4057600080fd5b505af1158015611d54573d6000803e3d6000fd5b505050506040513d6020811015611d6a57600080fd5b50508115611d7c57611d7c3383612a18565b50505050509695505050505050565b7f000000000000000000000000000000000000000000000000000000000000000081565b60008142811015611e07576040805162461bcd60e51b815260206004820152601060248201527f43526f757465723a204558504952454400000000000000000000000000000000604482015290519081900360640190fd5b60003411611e5c576040805162461bcd60e51b815260206004820152601f60248201527f43526f757465723a20696e73756666696369656e74206d73672e76616c756500604482015290519081900360640190fd5b6000611e887f000000000000000000000000000000000000000000000000000000000000000089612939565b604080517f23b872dd0000000000000000000000000000000000000000000000000000000081523360048201526001600160a01b03831660248201819052604482018b9052915192935090916323b872dd916064808201926020929091908290030181600087803b158015611efc57600080fd5b505af1158015611f10573d6000803e3d6000fd5b505050506040513d6020811015611f2657600080fd5b5050604080517f27fc84a30000000000000000000000000000000000000000000000000000000081526001600160a01b037f0000000000000000000000000000000000000000000000000000000000000000811660048301523060248301528251600093918516926327fc84a392349260448084019382900301818588803b158015611fb157600080fd5b505af1158015611fc5573d6000803e3d6000fd5b50505050506040513d6040811015611fdc57600080fd5b50805160209091015190945090508684101561203f576040805162461bcd60e51b815260206004820152601f60248201527f43526f757465723a20676f74206c657373207468616e20657870656374656400604482015290519081900360640190fd5b7f00000000000000000000000000000000000000000000000000000000000000006001600160a01b0316632e1a7d4d856040518263ffffffff1660e01b815260040180828152602001915050600060405180830381600087803b1580156120a557600080fd5b505af11580156120b9573d6000803e3d6000fd5b50505050610ad08685612a18565b6000808242811015612120576040805162461bcd60e51b815260206004820152601060248201527f43526f757465723a204558504952454400000000000000000000000000000000604482015290519081900360640190fd5b60003411612175576040805162461bcd60e51b815260206004820152601f60248201527f43526f757465723a20696e73756666696369656e74206d73672e76616c756500604482015290519081900360640190fd5b60006121a17f00000000000000000000000000000000000000000000000000000000000000008b612939565b90506121af8a33838c612b2e565b60006121b9612cd7565b604080517fa12db6cc0000000000000000000000000000000000000000000000000000000081526001600160a01b037f000000000000000000000000000000000000000000000000000000000000000081166004830152602482018d905230604483015291519185169163a12db6cc91349160648083019260e092919082900301818588803b15801561224b57600080fd5b505af115801561225f573d6000803e3d6000fd5b50505050506040513d601f19601f8201168201806040525060e081101561228557600080fd5b508051602082015160408301519198509650925060600190508a8611156122f3576040805162461bcd60e51b815260206004820152601f60248201527f43526f757465723a20676f74206c657373207468616e20657870656374656400604482015290519081900360640190fd5b7f00000000000000000000000000000000000000000000000000000000000000006001600160a01b0316632e1a7d4d866040518263ffffffff1660e01b815260040180828152602001915050600060405180830381600087803b15801561235957600080fd5b505af115801561236d573d6000803e3d6000fd5b5050505060007f00000000000000000000000000000000000000000000000000000000000000006001600160a01b031663b58aa4786040518163ffffffff1660e01b815260040160206040518083038186803b1580156123cc57600080fd5b505afa1580156123e0573d6000803e3d6000fd5b505050506040513d60208110156123f657600080fd5b505182519091501580159061241357506001600160a01b03891615155b801561242757506001600160a01b03811615155b156124dd5781516020830151604080850151606086015182517f5e3ddd690000000000000000000000000000000000000000000000000000000081526001600160a01b038a8116600483015260248201969096526044810194909452606484019190915260848301528b831660a48301525191831691635e3ddd699160c48082019260009290919082900301818387803b1580156124c457600080fd5b505af11580156124d8573d6000803e3d6000fd5b505050505b61083e8a8c612a18565b6000814281101561253f576040805162461bcd60e51b815260206004820152601060248201527f43526f757465723a204558504952454400000000000000000000000000000000604482015290519081900360640190fd5b60006001600160a01b03167f00000000000000000000000000000000000000000000000000000000000000006001600160a01b0316631a788a028a6040518263ffffffff1660e01b815260040180826001600160a01b0316815260200191505060206040518083038186803b1580156125b757600080fd5b505afa1580156125cb573d6000803e3d6000fd5b505050506040513d60208110156125e157600080fd5b50516001600160a01b0316141561268e577f00000000000000000000000000000000000000000000000000000000000000006001600160a01b0316639ccb0744896040518263ffffffff1660e01b815260040180826001600160a01b03168152602001915050602060405180830381600087803b15801561266157600080fd5b505af1158015612675573d6000803e3d6000fd5b505050506040513d602081101561268b57600080fd5b50505b8634116126e2576040805162461bcd60e51b815260206004820152601f60248201527f43526f757465723a20696e73756666696369656e74206d73672e76616c756500604482015290519081900360640190fd5b60006126ee34896129bb565b9050600061271c7f00000000000000000000000000000000000000000000000000000000000000008b612939565b90508715612730576127308a33838b612b2e565b8815612853577f00000000000000000000000000000000000000000000000000000000000000006001600160a01b031663d0e30db08a6040518263ffffffff1660e01b81526004016000604051808303818588803b15801561279157600080fd5b505af11580156127a5573d6000803e3d6000fd5b50505050507f00000000000000000000000000000000000000000000000000000000000000006001600160a01b031663a9059cbb828b6040518363ffffffff1660e01b815260040180836001600160a01b0316815260200182815260200192505050602060405180830381600087803b15801561282157600080fd5b505af1158015612835573d6000803e3d6000fd5b505050506040513d602081101561284b57600080fd5b505161285357fe5b6000816001600160a01b0316636a62784284896040518363ffffffff1660e01b815260040180826001600160a01b0316815260200191505060408051808303818588803b1580156128a357600080fd5b505af11580156128b7573d6000803e3d6000fd5b50505050506040513d60408110156128ce57600080fd5b50805160209091015190955090508785101561291b5760405162461bcd60e51b8152600401808060200182810382526025815260200180612d356025913960400191505060405180910390fd5b801561292b5761292b3382612a18565b505050509695505050505050565b6000826001600160a01b0316631a788a02836040518263ffffffff1660e01b815260040180826001600160a01b0316815260200191505060206040518083038186803b15801561298857600080fd5b505afa15801561299c573d6000803e3d6000fd5b505050506040513d60208110156129b257600080fd5b50519392505050565b600082821115612a12576040805162461bcd60e51b815260206004820152601e60248201527f536166654d6174683a207375627472616374696f6e206f766572666c6f770000604482015290519081900360640190fd5b50900390565b604080516000808252602082019092526001600160a01b0384169083906040518082805190602001908083835b60208310612a8257805182527fffffffffffffffffffffffffffffffffffffffffffffffffffffffffffffffe09092019160209182019101612a45565b6001836020036101000a03801982511681845116808217855250505050505090500191505060006040518083038185875af1925050503d8060008114612ae4576040519150601f19603f3d011682016040523d82523d6000602084013e612ae9565b606091505b5050905080612b295760405162461bcd60e51b8152600401808060200182810382526023815260200180612d5a6023913960400191505060405180910390fd5b505050565b604080516001600160a01b0385811660248301528481166044830152606480830185905283518084039091018152608490920183526020820180517bffffffffffffffffffffffffffffffffffffffffffffffffffffffff167f23b872dd0000000000000000000000000000000000000000000000000000000017815292518251600094606094938a169392918291908083835b60208310612bff57805182527fffffffffffffffffffffffffffffffffffffffffffffffffffffffffffffffe09092019160209182019101612bc2565b6001836020036101000a0380198251168184511680821785525050505050509050019150506000604051808303816000865af19150503d8060008114612c61576040519150601f19603f3d011682016040523d82523d6000602084013e612c66565b606091505b5091509150818015612c94575080511580612c945750808060200190516020811015612c9157600080fd5b50515b612ccf5760405162461bcd60e51b8152600401808060200182810382526024815260200180612d7d6024913960400191505060405180910390fd5b505050505050565b60405180608001604052806004906020820280368337509192915050565b6040518060400160405280600290602082028036833750919291505056fe43526f757465723a207370656e64206d6f7265207468616e20657870656374656443526f757465723a206c657373206c6971756964697479207468616e2065787065637465645472616e7366657248656c7065723a204554485f5452414e534645525f4641494c45445472616e7366657248656c7065723a205452414e534645525f46524f4d5f4641494c4544a2646970667358221220d7c6c531a7375ca353e43279e225d1bce5f3917892946d4c201f80b075388d2464736f6c634300060c0033",
  "immutableReferences": {
    "10077": [
      {
        "length": 32,
        "start": 1255
      },
      {
        "length": 32,
        "start": 1750
      },
      {
        "length": 32,
        "start": 2322
      },
      {
        "length": 32,
        "start": 2983
      },
      {
        "length": 32,
        "start": 3340
      },
      {
        "length": 32,
        "start": 3688
      },
      {
        "length": 32,
        "start": 4748
      },
      {
        "length": 32,
        "start": 5406
      },
      {
        "length": 32,
        "start": 6128
      },
      {
        "length": 32,
        "start": 6771
      },
      {
        "length": 32,
        "start": 7565
      },
      {
        "length": 32,
        "start": 7779
      },
      {
        "length": 32,
        "start": 8572
      },
      {
        "length": 32,
        "start": 9077
      },
      {
        "length": 32,
        "start": 9548
      },
      {
        "length": 32,
        "start": 9716
      },
      {
        "length": 32,
        "start": 9975
      }
    ],
    "10080": [
      {
        "length": 32,
        "start": 1134
      },
      {
        "length": 32,
        "start": 1296
      },
      {
        "length": 32,
        "start": 3107
      },
      {
        "length": 32,
        "start": 3801
      },
      {
        "length": 32,
        "start": 4627
      },
      {
        "length": 32,
        "start": 4789
      },
      {
        "length": 32,
        "start": 5485
      },
      {
        "length": 32,
        "start": 5765
      },
      {
        "length": 32,
        "start": 5901
      },
      {
        "length": 32,
        "start": 6284
      },
      {
        "length": 32,
        "start": 6400
      },
      {
        "length": 32,
        "start": 8025
      },
      {
        "length": 32,
        "start": 8257
      },
      {
        "length": 32,
        "start": 8682
      },
      {
        "length": 32,
        "start": 8949
      },
      {
        "length": 32,
        "start": 10040
      },
      {
        "length": 32,
        "start": 10156
      }
    ]
  },
  "source": "// SPDX-License-Identifier: GPL-3.0-or-later\n\npragma solidity 0.6.12;\n\nimport \"./interface/ICoFiXFactory.sol\";\nimport \"./lib/TransferHelper.sol\";\nimport \"./interface/ICoFiXRouter.sol\";\nimport \"@openzeppelin/contracts/math/SafeMath.sol\";\nimport \"@openzeppelin/contracts/token/ERC20/IERC20.sol\";\nimport \"./interface/IWETH.sol\";\nimport \"./interface/ICoFiXPair.sol\";\nimport \"./interface/ICoFiXVaultForLP.sol\";\nimport \"./interface/ICoFiXStakingRewards.sol\";\nimport \"./interface/ICoFiXVaultForTrader.sol\";\n\n\n// Router contract to interact with each CoFiXPair, no owner or governance\ncontract CoFiXRouter is ICoFiXRouter {\n    using SafeMath for uint;\n\n    address public immutable override factory;\n    address public immutable override WETH;\n\n    modifier ensure(uint deadline) {\n        require(deadline >= block.timestamp, 'CRouter: EXPIRED');\n        _;\n    }\n\n    constructor(address _factory, address _WETH) public {\n        factory = _factory;\n        WETH = _WETH;\n    }\n\n    receive() external payable {}\n\n    // calculates the CREATE2 address for a pair without making any external calls\n    function pairFor(address _factory, address token) internal view returns (address pair) {\n        // pair = address(uint(keccak256(abi.encodePacked(\n        //         hex'ff',\n        //         _factory,\n        //         keccak256(abi.encodePacked(token)),\n        //         hex'fb0c5470b7fbfce7f512b5035b5c35707fd5c7bd43c8d81959891b0296030118' // init code hash\n        //     )))); // calc the real init code hash, not suitable for us now, could use this in the future\n        return ICoFiXFactory(_factory).getPair(token);\n    }\n\n    // msg.value = amountETH + oracle fee\n    function addLiquidity(\n        address token,\n        uint amountETH,\n        uint amountToken,\n        uint liquidityMin,\n        address to,\n        uint deadline\n    ) external override payable ensure(deadline) returns (uint liquidity)\n    {\n        // create the pair if it doesn't exist yet\n        if (ICoFiXFactory(factory).getPair(token) == address(0)) {\n            ICoFiXFactory(factory).createPair(token);\n        }\n        require(msg.value > amountETH, \"CRouter: insufficient msg.value\");\n        uint256 _oracleFee = msg.value.sub(amountETH);\n        address pair = pairFor(factory, token);\n        if (amountToken > 0 ) { // support for tokens which do not allow to transfer zero values\n            TransferHelper.safeTransferFrom(token, msg.sender, pair, amountToken);\n        }\n        if (amountETH > 0) {\n            IWETH(WETH).deposit{value: amountETH}();\n            assert(IWETH(WETH).transfer(pair, amountETH));\n        }\n        uint256 oracleFeeChange;\n        (liquidity, oracleFeeChange) = ICoFiXPair(pair).mint{value: _oracleFee}(to);\n        require(liquidity >= liquidityMin, \"CRouter: less liquidity than expected\");\n        // refund oracle fee to msg.sender, if any\n        if (oracleFeeChange > 0) TransferHelper.safeTransferETH(msg.sender, oracleFeeChange);\n    }\n\n    // msg.value = amountETH + oracle fee\n    function addLiquidityAndStake(\n        address token,\n        uint amountETH,\n        uint amountToken,\n        uint liquidityMin,\n        address to,\n        uint deadline\n    ) external override payable ensure(deadline) returns (uint liquidity)\n    {\n        // must create a pair before using this function\n        require(msg.value > amountETH, \"CRouter: insufficient msg.value\");\n        uint256 _oracleFee = msg.value.sub(amountETH);\n        address pair = pairFor(factory, token);\n        require(pair != address(0), \"CRouter: invalid pair\");\n        if (amountToken > 0 ) { // support for tokens which do not allow to transfer zero values\n            TransferHelper.safeTransferFrom(token, msg.sender, pair, amountToken);\n        }\n        if (amountETH > 0) {\n            IWETH(WETH).deposit{value: amountETH}();\n            assert(IWETH(WETH).transfer(pair, amountETH));\n        }\n        uint256 oracleFeeChange;\n        (liquidity, oracleFeeChange) = ICoFiXPair(pair).mint{value: _oracleFee}(address(this));\n        require(liquidity >= liquidityMin, \"CRouter: less liquidity than expected\");\n\n        // find the staking rewards pool contract for the liquidity token (pair)\n        address pool = ICoFiXVaultForLP(ICoFiXFactory(factory).getVaultForLP()).stakingPoolForPair(pair);\n        require(pool != address(0), \"CRouter: invalid staking pool\");\n        // approve to staking pool\n        ICoFiXPair(pair).approve(pool, liquidity);\n        ICoFiXStakingRewards(pool).stakeForOther(to, liquidity);\n        ICoFiXPair(pair).approve(pool, 0); // ensure\n        // refund oracle fee to msg.sender, if any\n        if (oracleFeeChange > 0) TransferHelper.safeTransferETH(msg.sender, oracleFeeChange);\n    }\n\n    // msg.value = oracle fee\n    function removeLiquidityGetToken(\n        address token,\n        uint liquidity,\n        uint amountTokenMin,\n        address to,\n        uint deadline\n    ) external override payable ensure(deadline) returns (uint amountToken)\n    {\n        require(msg.value > 0, \"CRouter: insufficient msg.value\");\n        address pair = pairFor(factory, token);\n        ICoFiXPair(pair).transferFrom(msg.sender, pair, liquidity); // send liquidity to pair\n        uint oracleFeeChange; \n        (amountToken, oracleFeeChange) = ICoFiXPair(pair).burn{value: msg.value}(token, to);\n        require(amountToken >= amountTokenMin, \"CRouter: got less than expected\");\n        // refund oracle fee to msg.sender, if any\n        if (oracleFeeChange > 0) TransferHelper.safeTransferETH(msg.sender, oracleFeeChange);\n    }\n\n    // msg.value = oracle fee\n    function removeLiquidityGetETH(\n        address token,\n        uint liquidity,\n        uint amountETHMin,\n        address to,\n        uint deadline\n    ) external override payable ensure(deadline) returns (uint amountETH)\n    {\n        require(msg.value > 0, \"CRouter: insufficient msg.value\");\n        address pair = pairFor(factory, token);\n        ICoFiXPair(pair).transferFrom(msg.sender, pair, liquidity); // send liquidity to pair\n        uint oracleFeeChange; \n        (amountETH, oracleFeeChange) = ICoFiXPair(pair).burn{value: msg.value}(WETH, address(this));\n        require(amountETH >= amountETHMin, \"CRouter: got less than expected\");\n        IWETH(WETH).withdraw(amountETH);\n        TransferHelper.safeTransferETH(to, amountETH);\n        // refund oracle fee to msg.sender, if any\n        if (oracleFeeChange > 0) TransferHelper.safeTransferETH(msg.sender, oracleFeeChange);\n    }\n\n    // msg.value = amountIn + oracle fee\n    function swapExactETHForTokens(\n        address token,\n        uint amountIn,\n        uint amountOutMin,\n        address to,\n        address rewardTo,\n        uint deadline\n    ) external override payable ensure(deadline) returns (uint _amountIn, uint _amountOut)\n    {\n        require(msg.value > amountIn, \"CRouter: insufficient msg.value\");\n        IWETH(WETH).deposit{value: amountIn}();\n        address pair = pairFor(factory, token);\n        assert(IWETH(WETH).transfer(pair, amountIn));\n        uint oracleFeeChange; \n        uint256[4] memory tradeInfo;\n        (_amountIn, _amountOut, oracleFeeChange, tradeInfo) = ICoFiXPair(pair).swapWithExact{\n            value: msg.value.sub(amountIn)}(token, to);\n        require(_amountOut >= amountOutMin, \"CRouter: got less than expected\");\n\n        // distribute trading rewards - CoFi!\n        address vaultForTrader = ICoFiXFactory(factory).getVaultForTrader();\n        if (tradeInfo[0] > 0 && rewardTo != address(0) && vaultForTrader != address(0)) {\n            ICoFiXVaultForTrader(vaultForTrader).distributeReward(pair, tradeInfo[0], tradeInfo[1], tradeInfo[2], tradeInfo[3], rewardTo);\n        }\n\n        // refund oracle fee to msg.sender, if any\n        if (oracleFeeChange > 0) TransferHelper.safeTransferETH(msg.sender, oracleFeeChange);\n    }\n\n    // msg.value = oracle fee\n    function swapExactTokensForTokens(\n        address tokenIn,\n        address tokenOut,\n        uint amountIn,\n        uint amountOutMin,\n        address to,\n        address rewardTo,\n        uint deadline\n    ) external override payable ensure(deadline) returns (uint _amountIn, uint _amountOut) {\n\n        require(msg.value > 0, \"CRouter: insufficient msg.value\");\n        address[2] memory pairs; // [pairIn, pairOut]\n\n        // swapExactTokensForETH\n        pairs[0] = pairFor(factory, tokenIn);\n        TransferHelper.safeTransferFrom(tokenIn, msg.sender, pairs[0], amountIn);\n        uint oracleFeeChange;\n        uint256[4] memory tradeInfo;\n        (_amountIn, _amountOut, oracleFeeChange, tradeInfo) = ICoFiXPair(pairs[0]).swapWithExact{value: msg.value}(WETH, address(this));\n\n        // distribute trading rewards - CoFi!\n        address vaultForTrader = ICoFiXFactory(factory).getVaultForTrader();\n        if (tradeInfo[0] > 0 && rewardTo != address(0) && vaultForTrader != address(0)) {\n            ICoFiXVaultForTrader(vaultForTrader).distributeReward(pairs[0], tradeInfo[0], tradeInfo[1], tradeInfo[2], tradeInfo[3], rewardTo);\n        }\n\n        // swapExactETHForTokens\n        pairs[1] = pairFor(factory, tokenOut);\n        assert(IWETH(WETH).transfer(pairs[1], _amountOut)); // swap with all amountOut in last swap\n        (, _amountOut, oracleFeeChange, tradeInfo) = ICoFiXPair(pairs[1]).swapWithExact{value: oracleFeeChange}(tokenOut, to);\n        require(_amountOut >= amountOutMin, \"CRouter: got less than expected\");\n\n        // distribute trading rewards - CoFi!\n        if (tradeInfo[0] > 0 && rewardTo != address(0) && vaultForTrader != address(0)) {\n            ICoFiXVaultForTrader(vaultForTrader).distributeReward(pairs[1], tradeInfo[0], tradeInfo[1], tradeInfo[2], tradeInfo[3], rewardTo);\n        }\n\n        // refund oracle fee to msg.sender, if any\n        if (oracleFeeChange > 0) TransferHelper.safeTransferETH(msg.sender, oracleFeeChange);\n    }\n\n    // msg.value = oracle fee\n    function swapExactTokensForETH(\n        address token,\n        uint amountIn,\n        uint amountOutMin,\n        address to,\n        address rewardTo,\n        uint deadline\n    ) external override payable ensure(deadline) returns (uint _amountIn, uint _amountOut)\n    {\n        require(msg.value > 0, \"CRouter: insufficient msg.value\");\n        address pair = pairFor(factory, token);\n        TransferHelper.safeTransferFrom(token, msg.sender, pair, amountIn);\n        uint oracleFeeChange; \n        uint256[4] memory tradeInfo;\n        (_amountIn, _amountOut, oracleFeeChange, tradeInfo) = ICoFiXPair(pair).swapWithExact{value: msg.value}(WETH, address(this));\n        require(_amountOut >= amountOutMin, \"CRouter: got less than expected\");\n        IWETH(WETH).withdraw(_amountOut);\n        TransferHelper.safeTransferETH(to, _amountOut);\n\n        // distribute trading rewards - CoFi!\n        address vaultForTrader = ICoFiXFactory(factory).getVaultForTrader();\n        if (tradeInfo[0] > 0 && rewardTo != address(0) && vaultForTrader != address(0)) {\n            ICoFiXVaultForTrader(vaultForTrader).distributeReward(pair, tradeInfo[0], tradeInfo[1], tradeInfo[2], tradeInfo[3], rewardTo);\n        }\n\n        // refund oracle fee to msg.sender, if any\n        if (oracleFeeChange > 0) TransferHelper.safeTransferETH(msg.sender, oracleFeeChange);\n    }\n\n    // msg.value = amountInMax + oracle fee\n    function swapETHForExactTokens(\n        address token,\n        uint amountInMax,\n        uint amountOutExact,\n        address to,\n        address rewardTo,\n        uint deadline\n    ) external override payable ensure(deadline) returns (uint _amountIn, uint _amountOut)\n    {\n        require(msg.value > amountInMax, \"CRouter: insufficient msg.value\");\n        IWETH(WETH).deposit{value: amountInMax}();\n        address pair = pairFor(factory, token);\n        assert(IWETH(WETH).transfer(pair, amountInMax));\n        uint oracleFeeChange;\n        uint256[4] memory tradeInfo;\n        (_amountIn, _amountOut, oracleFeeChange, tradeInfo) = ICoFiXPair(pair).swapForExact{\n            value: msg.value.sub(amountInMax) }(token, amountOutExact, to);\n        // assert amountOutExact equals with _amountOut\n        require(_amountIn <= amountInMax, \"CRouter: spend more than expected\");\n\n        // distribute trading rewards - CoFi!\n        address vaultForTrader = ICoFiXFactory(factory).getVaultForTrader();\n        if (tradeInfo[0] > 0 && rewardTo != address(0) && vaultForTrader != address(0)) {\n            ICoFiXVaultForTrader(vaultForTrader).distributeReward(pair, tradeInfo[0], tradeInfo[1], tradeInfo[2], tradeInfo[3], rewardTo);\n        }\n\n        // refund oracle fee to msg.sender, if any\n        if (oracleFeeChange > 0) TransferHelper.safeTransferETH(msg.sender, oracleFeeChange);\n    }\n\n    // msg.value = oracle fee\n    function swapTokensForExactETH(\n        address token,\n        uint amountInMax,\n        uint amountOutExact,\n        address to,\n        address rewardTo,\n        uint deadline\n    ) external override payable ensure(deadline) returns (uint _amountIn, uint _amountOut)\n    {\n        require(msg.value > 0, \"CRouter: insufficient msg.value\");\n        address pair = pairFor(factory, token);\n        TransferHelper.safeTransferFrom(token, msg.sender, pair, amountInMax);\n        uint oracleFeeChange; \n        uint256[4] memory tradeInfo;\n        (_amountIn, _amountOut, oracleFeeChange, tradeInfo) = ICoFiXPair(pair).swapForExact{\n            value: msg.value}(WETH, amountOutExact, address(this));\n        // assert amountOutExact equals with _amountOut\n        require(_amountIn <= amountInMax, \"CRouter: got less than expected\");\n        IWETH(WETH).withdraw(_amountOut);\n\n        // distribute trading rewards - CoFi!\n        address vaultForTrader = ICoFiXFactory(factory).getVaultForTrader();\n        if (tradeInfo[0] > 0 && rewardTo != address(0) && vaultForTrader != address(0)) {\n            ICoFiXVaultForTrader(vaultForTrader).distributeReward(pair, tradeInfo[0], tradeInfo[1], tradeInfo[2], tradeInfo[3], rewardTo);\n        }\n\n        TransferHelper.safeTransferETH(to, amountOutExact);\n        // refund oracle fee to msg.sender, if any\n        if (oracleFeeChange > 0) TransferHelper.safeTransferETH(msg.sender, oracleFeeChange);\n    }\n}\n",
  "sourcePath": "/Users/lixiansheng/Downloads/CoFix/contracts/CoFiXRouter.sol",
  "compiler": {
    "name": "solc",
    "version": "0.6.12+commit.27d51765.Emscripten.clang"
  },
  "schemaVersion": "3.3.3",
  "updatedAt": "2021-05-11T03:13:28.001Z",
  "networkType": "ethereum",
  "devdoc": {
    "kind": "dev",
    "methods": {
      "addLiquidity(address,uint256,uint256,uint256,address,uint256)": {
        "details": "Maker add liquidity to pool, get pool token (mint XToken to maker) (notice: msg.value = amountETH + oracle fee)",
        "params": {
          "amountETH": "The amount of ETH added to pool",
          "amountToken": "The amount of Token added to pool",
          "deadline": "The dealine of this request",
          "liquidityMin": "The minimum liquidity maker wanted",
          "to": "The target address receiving the liquidity pool (XToken)",
          "token": "The address of ERC20 Token"
        },
        "returns": {
          "liquidity": "The real liquidity or XToken minted from pool"
        }
      },
      "addLiquidityAndStake(address,uint256,uint256,uint256,address,uint256)": {
        "details": "Maker add liquidity to pool, get pool token (mint XToken) and stake automatically (notice: msg.value = amountETH + oracle fee)",
        "params": {
          "amountETH": "The amount of ETH added to pool",
          "amountToken": "The amount of Token added to pool",
          "deadline": "The dealine of this request",
          "liquidityMin": "The minimum liquidity maker wanted",
          "to": "The target address receiving the liquidity pool (XToken)",
          "token": "The address of ERC20 Token"
        },
        "returns": {
          "liquidity": "The real liquidity or XToken minted from pool"
        }
      },
      "removeLiquidityGetETH(address,uint256,uint256,address,uint256)": {
        "details": "Maker remove liquidity from pool to get ETH back (maker burn XToken) (notice: msg.value = oracle fee)",
        "params": {
          "amountETHMin": "The minimum amount of ETH wanted to get from pool",
          "deadline": "The dealine of this request",
          "liquidity": "The amount of liquidity (XToken) sent to pool, or the liquidity to remove",
          "to": "The target address receiving the ETH",
          "token": "The address of ERC20 Token"
        },
        "returns": {
          "amountETH": "The real amount of ETH transferred from the pool"
        }
      },
      "removeLiquidityGetToken(address,uint256,uint256,address,uint256)": {
        "details": "Maker remove liquidity from pool to get ERC20 Token back (maker burn XToken) (notice: msg.value = oracle fee)",
        "params": {
          "amountTokenMin": "The minimum amount of Token wanted to get from pool",
          "deadline": "The dealine of this request",
          "liquidity": "The amount of liquidity (XToken) sent to pool, or the liquidity to remove",
          "to": "The target address receiving the Token",
          "token": "The address of ERC20 Token"
        },
        "returns": {
          "amountToken": "The real amount of Token transferred from the pool"
        }
      },
      "swapETHForExactTokens(address,uint256,uint256,address,address,uint256)": {
        "details": "Trader swap ETH for exact amount of ERC20 Tokens (notice: msg.value = amountInMax + oracle fee)",
        "params": {
          "amountInMax": "The max amount of ETH a trader want to swap into pool",
          "amountOutExact": "The exact amount of Token a trader want to swap out of pool",
          "deadline": "The dealine of this request",
          "rewardTo": "The target address receiving the CoFi Token as rewards",
          "to": "The target address receiving the Token",
          "token": "The address of ERC20 Token"
        },
        "returns": {
          "_amountIn": "The real amount of ETH transferred into pool",
          "_amountOut": "The real amount of Token transferred out of pool"
        }
      },
      "swapExactETHForTokens(address,uint256,uint256,address,address,uint256)": {
        "details": "Trader swap exact amount of ETH for ERC20 Tokens (notice: msg.value = amountIn + oracle fee)",
        "params": {
          "amountIn": "The exact amount of ETH a trader want to swap into pool",
          "amountOutMin": "The minimum amount of Token a trader want to swap out of pool",
          "deadline": "The dealine of this request",
          "rewardTo": "The target address receiving the CoFi Token as rewards",
          "to": "The target address receiving the Token",
          "token": "The address of ERC20 Token"
        },
        "returns": {
          "_amountIn": "The real amount of ETH transferred into pool",
          "_amountOut": "The real amount of Token transferred out of pool"
        }
      },
      "swapExactTokensForETH(address,uint256,uint256,address,address,uint256)": {
        "details": "Trader swap exact amount of ERC20 Tokens for ETH (notice: msg.value = oracle fee)",
        "params": {
          "amountIn": "The exact amount of Token a trader want to swap into pool",
          "amountOutMin": "The mininum amount of ETH a trader want to swap out of pool",
          "deadline": "The dealine of this request",
          "rewardTo": "The target address receiving the CoFi Token as rewards",
          "to": "The target address receiving the ETH",
          "token": "The address of ERC20 Token"
        },
        "returns": {
          "_amountIn": "The real amount of Token transferred into pool",
          "_amountOut": "The real amount of ETH transferred out of pool"
        }
      },
      "swapExactTokensForTokens(address,address,uint256,uint256,address,address,uint256)": {
        "details": "Trader swap exact amount of ERC20 Tokens for other ERC20 Tokens (notice: msg.value = oracle fee)",
        "params": {
          "amountIn": "The exact amount of Token a trader want to swap into pool",
          "amountOutMin": "The mininum amount of ETH a trader want to swap out of pool",
          "deadline": "The dealine of this request",
          "rewardTo": "The target address receiving the CoFi Token as rewards",
          "to": "The target address receiving the Token",
          "tokenIn": "The address of ERC20 Token a trader want to swap into pool",
          "tokenOut": "The address of ERC20 Token a trader want to swap out of pool"
        },
        "returns": {
          "_amountIn": "The real amount of Token transferred into pool",
          "_amountOut": "The real amount of Token transferred out of pool"
        }
      },
      "swapTokensForExactETH(address,uint256,uint256,address,address,uint256)": {
        "details": "Trader swap ERC20 Tokens for exact amount of ETH (notice: msg.value = oracle fee)",
        "params": {
          "amountInMax": "The max amount of Token a trader want to swap into pool",
          "amountOutExact": "The exact amount of ETH a trader want to swap out of pool",
          "deadline": "The dealine of this request",
          "rewardTo": "The target address receiving the CoFi Token as rewards",
          "to": "The target address receiving the ETH",
          "token": "The address of ERC20 Token"
        },
        "returns": {
          "_amountIn": "The real amount of Token transferred into pool",
          "_amountOut": "The real amount of ETH transferred out of pool"
        }
      }
    },
    "version": 1
  },
  "userdoc": {
    "kind": "user",
    "methods": {},
    "version": 1
  }
}