{
  "contractName": "CoFiXV2VaultForCNode",
  "abi": [
    {
      "inputs": [
        {
          "internalType": "address",
          "name": "cofi",
          "type": "address"
        },
        {
          "internalType": "address",
          "name": "_factory",
          "type": "address"
        }
      ],
      "stateMutability": "nonpayable",
      "type": "constructor"
    },
    {
      "anonymous": false,
      "inputs": [
        {
          "indexed": false,
          "internalType": "address",
          "name": "_new",
          "type": "address"
        }
      ],
      "name": "NewCNodePool",
      "type": "event"
    },
    {
      "inputs": [],
      "name": "cnodePool",
      "outputs": [
        {
          "internalType": "address",
          "name": "",
          "type": "address"
        }
      ],
      "stateMutability": "view",
      "type": "function",
      "constant": true
    },
    {
      "inputs": [],
      "name": "cofiToken",
      "outputs": [
        {
          "internalType": "address",
          "name": "",
          "type": "address"
        }
      ],
      "stateMutability": "view",
      "type": "function",
      "constant": true
    },
    {
      "inputs": [],
      "name": "decayPeriod",
      "outputs": [
        {
          "internalType": "uint256",
          "name": "",
          "type": "uint256"
        }
      ],
      "stateMutability": "view",
      "type": "function",
      "constant": true
    },
    {
      "inputs": [],
      "name": "decayRate",
      "outputs": [
        {
          "internalType": "uint256",
          "name": "",
          "type": "uint256"
        }
      ],
      "stateMutability": "view",
      "type": "function",
      "constant": true
    },
    {
      "inputs": [],
      "name": "factory",
      "outputs": [
        {
          "internalType": "address",
          "name": "",
          "type": "address"
        }
      ],
      "stateMutability": "view",
      "type": "function",
      "constant": true
    },
    {
      "inputs": [],
      "name": "genesisBlock",
      "outputs": [
        {
          "internalType": "uint256",
          "name": "",
          "type": "uint256"
        }
      ],
      "stateMutability": "view",
      "type": "function",
      "constant": true
    },
    {
      "inputs": [],
      "name": "governance",
      "outputs": [
        {
          "internalType": "address",
          "name": "",
          "type": "address"
        }
      ],
      "stateMutability": "view",
      "type": "function",
      "constant": true
    },
    {
      "inputs": [],
      "name": "initCoFiRate",
      "outputs": [
        {
          "internalType": "uint256",
          "name": "",
          "type": "uint256"
        }
      ],
      "stateMutability": "view",
      "type": "function",
      "constant": true
    },
    {
      "inputs": [],
      "name": "setGenesisBlock",
      "outputs": [],
      "stateMutability": "nonpayable",
      "type": "function"
    },
    {
      "inputs": [
        {
          "internalType": "address",
          "name": "_new",
          "type": "address"
        }
      ],
      "name": "setGovernance",
      "outputs": [],
      "stateMutability": "nonpayable",
      "type": "function"
    },
    {
      "inputs": [
        {
          "internalType": "address",
          "name": "_new",
          "type": "address"
        }
      ],
      "name": "setCNodePool",
      "outputs": [],
      "stateMutability": "nonpayable",
      "type": "function"
    },
    {
      "inputs": [
        {
          "internalType": "uint256",
          "name": "_new",
          "type": "uint256"
        }
      ],
      "name": "setInitCoFiRate",
      "outputs": [],
      "stateMutability": "nonpayable",
      "type": "function"
    },
    {
      "inputs": [
        {
          "internalType": "uint256",
          "name": "_new",
          "type": "uint256"
        }
      ],
      "name": "setDecayPeriod",
      "outputs": [],
      "stateMutability": "nonpayable",
      "type": "function"
    },
    {
      "inputs": [
        {
          "internalType": "uint256",
          "name": "_new",
          "type": "uint256"
        }
      ],
      "name": "setDecayRate",
      "outputs": [],
      "stateMutability": "nonpayable",
      "type": "function"
    },
    {
      "inputs": [],
      "name": "getPendingRewardOfCNode",
      "outputs": [
        {
          "internalType": "uint256",
          "name": "",
          "type": "uint256"
        }
      ],
      "stateMutability": "view",
      "type": "function",
      "constant": true
    },
    {
      "inputs": [
        {
          "internalType": "address",
          "name": "to",
          "type": "address"
        },
        {
          "internalType": "uint256",
          "name": "amount",
          "type": "uint256"
        }
      ],
      "name": "distributeReward",
      "outputs": [],
      "stateMutability": "nonpayable",
      "type": "function"
    },
    {
      "inputs": [],
      "name": "currentPeriod",
      "outputs": [
        {
          "internalType": "uint256",
          "name": "",
          "type": "uint256"
        }
      ],
      "stateMutability": "view",
      "type": "function",
      "constant": true
    },
    {
      "inputs": [],
      "name": "currentCoFiRate",
      "outputs": [
        {
          "internalType": "uint256",
          "name": "",
          "type": "uint256"
        }
      ],
      "stateMutability": "view",
      "type": "function",
      "constant": true
    },
    {
      "inputs": [],
      "name": "getCoFiStakingPool",
      "outputs": [
        {
          "internalType": "address",
          "name": "pool",
          "type": "address"
        }
      ],
      "stateMutability": "view",
      "type": "function",
      "constant": true
    }
  ],
  "bytecode": "0x60c06040526706f05b59d3b2000060045562249f00600555605060065534801561002857600080fd5b50604051610e83380380610e838339818101604052604081101561004b57600080fd5b508051602090910151600160008190556001600160601b0319606093841b81166080529190921b1660a052600280546001600160a01b0319163317905543905560805160601c60a05160601c610dbb6100c86000398061052d52806109795280610a815280610ac45250806106bc528061084d5250610dbb6000f3fe608060405234801561001057600080fd5b50600436106101515760003560e01c80635aa6e675116100cd578063af1734ac11610081578063c45a015511610066578063c45a0155146102d9578063e3bed9de146102e1578063f05b820c146102e957610151565b8063af1734ac146102b4578063b26acd7a146102bc57610151565b806379d5d863116100b257806379d5d86314610271578063a9c1f2f114610279578063ab033ea91461028157610151565b80635aa6e675146102385780635d941dd51461026957610151565b80631ec8bb8c1161012457806348d67e1b1161010957806348d67e1b146102205780634cdc9c631461022857806355d9cdff1461023057610151565b80631ec8bb8c146101ca578063342f802b1461020357610151565b806304e7e0b91461015657806306040618146101755780630c5890a01461018f5780631b87ce9314610197575b600080fd5b6101736004803603602081101561016c57600080fd5b50356102f1565b005b61017d610362565b60408051918252519081900360200190f35b61017d61038b565b610173600480360360208110156101ad57600080fd5b503573ffffffffffffffffffffffffffffffffffffffff16610391565b610173600480360360408110156101e057600080fd5b5073ffffffffffffffffffffffffffffffffffffffff8135169060200135610476565b6101736004803603602081101561021957600080fd5b503561076d565b61017d61081a565b61017d610820565b610173610826565b61024061082f565b6040805173ffffffffffffffffffffffffffffffffffffffff9092168252519081900360200190f35b61024061084b565b61017d61086f565b61017d6108bc565b6101736004803603602081101561029757600080fd5b503573ffffffffffffffffffffffffffffffffffffffff166108c2565b610240610975565b610173600480360360208110156102d257600080fd5b5035610a0e565b610240610a7f565b610240610aa3565b61017d610abf565b60025473ffffffffffffffffffffffffffffffffffffffff16331461035d576040805162461bcd60e51b815260206004820152601b60248201527f435661756c74466f72434e6f64653a2021676f7665726e616e63650000000000604482015290519081900360640190fd5b600655565b600061038560055461037f60015443610bf690919063ffffffff16565b90610c58565b90505b90565b60045481565b60025473ffffffffffffffffffffffffffffffffffffffff1633146103fd576040805162461bcd60e51b815260206004820152601b60248201527f435661756c74466f72434e6f64653a2021676f7665726e616e63650000000000604482015290519081900360640190fd5b6003805473ffffffffffffffffffffffffffffffffffffffff83167fffffffffffffffffffffffff0000000000000000000000000000000000000000909116811790915560408051918252517f0f1b318fa687c185963d41cab663189de53d6821932a33d01f2c5cf7c68582479181900360200190a150565b600260005414156104ce576040805162461bcd60e51b815260206004820152601f60248201527f5265656e7472616e637947756172643a207265656e7472616e742063616c6c00604482015290519081900360640190fd5b600260005560035473ffffffffffffffffffffffffffffffffffffffff1633146105295760405162461bcd60e51b8152600401808060200182810382526021815260200180610d446021913960400191505060405180910390fd5b60007f000000000000000000000000000000000000000000000000000000000000000073ffffffffffffffffffffffffffffffffffffffff1663b58aa4786040518163ffffffff1660e01b815260040160206040518083038186803b15801561059157600080fd5b505afa1580156105a5573d6000803e3d6000fd5b505050506040513d60208110156105bb57600080fd5b5051905073ffffffffffffffffffffffffffffffffffffffff8116156106ba5760008173ffffffffffffffffffffffffffffffffffffffff1663f05b820c6040518163ffffffff1660e01b815260040160206040518083038186803b15801561062357600080fd5b505afa158015610637573d6000803e3d6000fd5b505050506040513d602081101561064d57600080fd5b5051905080156106b8578173ffffffffffffffffffffffffffffffffffffffff1663ba30ba246040518163ffffffff1660e01b8152600401600060405180830381600087803b15801561069f57600080fd5b505af11580156106b3573d6000803e3d6000fd5b505050505b505b7f000000000000000000000000000000000000000000000000000000000000000073ffffffffffffffffffffffffffffffffffffffff166340c10f1984846040518363ffffffff1660e01b8152600401808373ffffffffffffffffffffffffffffffffffffffff16815260200182815260200192505050600060405180830381600087803b15801561074b57600080fd5b505af115801561075f573d6000803e3d6000fd5b505060016000555050505050565b60025473ffffffffffffffffffffffffffffffffffffffff1633146107d9576040805162461bcd60e51b815260206004820152601b60248201527f435661756c74466f72434e6f64653a2021676f7665726e616e63650000000000604482015290519081900360640190fd5b806108155760405162461bcd60e51b8152600401808060200182810382526024815260200180610d206024913960400191505060405180910390fd5b600555565b60055481565b60015481565b62a877b0600155565b60025473ffffffffffffffffffffffffffffffffffffffff1681565b7f000000000000000000000000000000000000000000000000000000000000000081565b60008061087a610362565b90506004811115610889575060045b60045460065460005b838110156108b3576108a9606461037f8585610cbf565b9250600101610892565b50909250505090565b60065481565b60025473ffffffffffffffffffffffffffffffffffffffff16331461092e576040805162461bcd60e51b815260206004820152601b60248201527f435661756c74466f72434e6f64653a2021676f7665726e616e63650000000000604482015290519081900360640190fd5b600280547fffffffffffffffffffffffff00000000000000000000000000000000000000001673ffffffffffffffffffffffffffffffffffffffff92909216919091179055565b60007f000000000000000000000000000000000000000000000000000000000000000073ffffffffffffffffffffffffffffffffffffffff1663e8a353926040518163ffffffff1660e01b815260040160206040518083038186803b1580156109dd57600080fd5b505afa1580156109f1573d6000803e3d6000fd5b505050506040513d6020811015610a0757600080fd5b5051905090565b60025473ffffffffffffffffffffffffffffffffffffffff163314610a7a576040805162461bcd60e51b815260206004820152601b60248201527f435661756c74466f72434e6f64653a2021676f7665726e616e63650000000000604482015290519081900360640190fd5b600455565b7f000000000000000000000000000000000000000000000000000000000000000081565b60035473ffffffffffffffffffffffffffffffffffffffff1681565b6000807f000000000000000000000000000000000000000000000000000000000000000073ffffffffffffffffffffffffffffffffffffffff1663b58aa4786040518163ffffffff1660e01b815260040160206040518083038186803b158015610b2857600080fd5b505afa158015610b3c573d6000803e3d6000fd5b505050506040513d6020811015610b5257600080fd5b5051905073ffffffffffffffffffffffffffffffffffffffff8116610b7b576000915050610388565b60008173ffffffffffffffffffffffffffffffffffffffff1663f05b820c6040518163ffffffff1660e01b815260040160206040518083038186803b158015610bc357600080fd5b505afa158015610bd7573d6000803e3d6000fd5b505050506040513d6020811015610bed57600080fd5b50519250505090565b600082821115610c4d576040805162461bcd60e51b815260206004820152601e60248201527f536166654d6174683a207375627472616374696f6e206f766572666c6f770000604482015290519081900360640190fd5b508082035b92915050565b6000808211610cae576040805162461bcd60e51b815260206004820152601a60248201527f536166654d6174683a206469766973696f6e206279207a65726f000000000000604482015290519081900360640190fd5b818381610cb757fe5b049392505050565b600082610cce57506000610c52565b82820282848281610cdb57fe5b0414610d185760405162461bcd60e51b8152600401808060200182810382526021815260200180610d656021913960400191505060405180910390fd5b939250505056fe435661756c74466f72434e6f64653a2077726f6e6720706572696f642073657474696e67435661756c74466f72434e6f64653a206f6e6c7920706f6f6c20616c6c6f776564536166654d6174683a206d756c7469706c69636174696f6e206f766572666c6f77a2646970667358221220aecaa82af20f6a80fd01d1d07f5ff411427a6bad69020645ace4882e1ba4353464736f6c634300060c0033",
  "immutableReferences": {
    "8765": [
      {
        "length": 32,
        "start": 1724
      },
      {
        "length": 32,
        "start": 2125
      }
    ],
    "8767": [
      {
        "length": 32,
        "start": 1325
      },
      {
        "length": 32,
        "start": 2425
      },
      {
        "length": 32,
        "start": 2689
      },
      {
        "length": 32,
        "start": 2756
      }
    ]
  },
  "source": "// SPDX-License-Identifier: GPL-3.0-or-later\n\npragma solidity 0.6.12;\n\nimport \"@openzeppelin/contracts/math/SafeMath.sol\";\nimport \"./lib/ABDKMath64x64.sol\";\nimport \"@openzeppelin/contracts/token/ERC20/IERC20.sol\";\nimport \"./interface/ICoFiXVaultForCNode.sol\";\nimport \"./interface/ICoFiXStakingRewards.sol\";\nimport \"./interface/ICoFiToken.sol\";\nimport \"@openzeppelin/contracts/utils/ReentrancyGuard.sol\";\nimport \"./interface/ICoFiXV2Factory.sol\";\nimport \"./interface/ICoFiXV2VaultForTrader.sol\";\n\n// Reward Pool Controller for CNode\ncontract CoFiXV2VaultForCNode is ICoFiXVaultForCNode, ReentrancyGuard {\n\n    using SafeMath for uint256;\n\n    // uint256 public constant RATE_BASE = 1e18;\n\n    address public immutable cofiToken;\n    address public immutable factory;\n\n    uint256 public genesisBlock;\n\n    // managed by governance\n    address public governance;\n    address public cnodePool;\n\n    uint256 public initCoFiRate = 0.5*1e18; // yield per block, 5*1e18/10\n    uint256 public decayPeriod = 2400000; // yield decays for every 2,400,000 blocks\n    uint256 public decayRate = 80;\n\n    constructor(address cofi, address _factory) public {\n        cofiToken = cofi;\n        factory = _factory;\n        governance = msg.sender;\n        genesisBlock = block.number; // set v1 genesisBlock to  genesisBlock later\n    }\n\n    // this is for mainnet\n    function setGenesisBlock() external {\n        genesisBlock = 11040688; // follow v1 \n    }\n\n    /* setters for protocol governance */\n    function setGovernance(address _new) external override {\n        require(msg.sender == governance, \"CVaultForCNode: !governance\");\n        governance = _new;\n    }\n\n    function setCNodePool(address _new) external override {\n        require(msg.sender == governance, \"CVaultForCNode: !governance\");\n        cnodePool = _new;\n        emit NewCNodePool(_new);\n    }\n\n    function setInitCoFiRate(uint256 _new) external override {\n        require(msg.sender == governance, \"CVaultForCNode: !governance\");\n        initCoFiRate = _new;\n    }\n\n    function setDecayPeriod(uint256 _new) external override {\n        require(msg.sender == governance, \"CVaultForCNode: !governance\");\n        require(_new != 0, \"CVaultForCNode: wrong period setting\");\n        decayPeriod = _new;\n    }\n\n    function setDecayRate(uint256 _new) external override {\n        require(msg.sender == governance, \"CVaultForCNode: !governance\");\n        decayRate = _new;\n    }\n\n    function getPendingRewardOfCNode() external override view returns (uint256) {\n        address vaultForTrader = ICoFiXV2Factory(factory).getVaultForTrader();\n        if (vaultForTrader == address(0)) {\n            return 0; // vaultForTrader is not set yet\n        }\n        uint256 pending = ICoFiXV2VaultForTrader(vaultForTrader).getPendingRewardOfCNode();\n        return pending;\n    }\n\n    function distributeReward(address to, uint256 amount) external override nonReentrant {\n        require(msg.sender == cnodePool, \"CVaultForCNode: only pool allowed\"); // caution: be careful when adding new pool\n        address vaultForTrader = ICoFiXV2Factory(factory).getVaultForTrader();\n        if (vaultForTrader != address(0)) { // if equal, means vaultForTrader is not set yet\n            uint256 pending = ICoFiXV2VaultForTrader(vaultForTrader).getPendingRewardOfCNode();\n            if (pending > 0) {\n                ICoFiXV2VaultForTrader(vaultForTrader).clearPendingRewardOfCNode();\n            }\n        }\n        ICoFiToken(cofiToken).mint(to, amount); // allows zero\n    }\n\n    function currentPeriod() public override view returns (uint256) {\n        return (block.number).sub(genesisBlock).div(decayPeriod);\n    }\n\n    function currentCoFiRate() public override view returns (uint256) {\n        uint256 periodIdx = currentPeriod();\n        if (periodIdx > 4) {\n            periodIdx = 4; // after 5 years, the rate keep constant\n        }\n        uint256 cofiRate = initCoFiRate;\n        uint256 _decayRate = decayRate;\n        for (uint256 i = 0; i < periodIdx; i++) {\n            cofiRate = cofiRate.mul(_decayRate).div(100);\n        }\n        return cofiRate;\n    }\n\n    function getCoFiStakingPool() external override view returns (address pool) {\n        return ICoFiXV2Factory(factory).getFeeReceiver();\n    }\n\n}",
  "sourcePath": "/Users/lixiansheng/Downloads/cofix2/contracts/CoFiXV2VaultForCNode.sol",
  "compiler": {
    "name": "solc",
    "version": "0.6.12+commit.27d51765.Emscripten.clang"
  },
  "schemaVersion": "3.3.3",
  "updatedAt": "2021-05-14T10:59:45.114Z",
  "networkType": "ethereum",
  "devdoc": {
    "kind": "dev",
    "methods": {},
    "version": 1
  },
  "userdoc": {
    "kind": "user",
    "methods": {},
    "version": 1
  }
}