{
  "contractName": "CoFiXController04",
  "abi": [
    {
      "inputs": [
        {
          "internalType": "address",
          "name": "_oracle",
          "type": "address"
        },
        {
          "internalType": "address",
          "name": "_nest",
          "type": "address"
        },
        {
          "internalType": "address",
          "name": "_factory",
          "type": "address"
        },
        {
          "internalType": "address",
          "name": "_kTable",
          "type": "address"
        }
      ],
      "stateMutability": "nonpayable",
      "type": "constructor"
    },
    {
      "anonymous": false,
      "inputs": [
        {
          "indexed": false,
          "internalType": "int128",
          "name": "_gamma",
          "type": "int128"
        }
      ],
      "name": "NewGamma",
      "type": "event"
    },
    {
      "anonymous": false,
      "inputs": [
        {
          "indexed": false,
          "internalType": "address",
          "name": "_new",
          "type": "address"
        }
      ],
      "name": "NewGovernance",
      "type": "event"
    },
    {
      "anonymous": false,
      "inputs": [
        {
          "indexed": false,
          "internalType": "address",
          "name": "token",
          "type": "address"
        },
        {
          "indexed": false,
          "internalType": "int128",
          "name": "K",
          "type": "int128"
        },
        {
          "indexed": false,
          "internalType": "int128",
          "name": "sigma",
          "type": "int128"
        },
        {
          "indexed": false,
          "internalType": "uint256",
          "name": "T",
          "type": "uint256"
        },
        {
          "indexed": false,
          "internalType": "uint256",
          "name": "ethAmount",
          "type": "uint256"
        },
        {
          "indexed": false,
          "internalType": "uint256",
          "name": "erc20Amount",
          "type": "uint256"
        },
        {
          "indexed": false,
          "internalType": "uint256",
          "name": "blockNum",
          "type": "uint256"
        },
        {
          "indexed": false,
          "internalType": "uint256",
          "name": "tIdx",
          "type": "uint256"
        },
        {
          "indexed": false,
          "internalType": "uint256",
          "name": "sigmaIdx",
          "type": "uint256"
        },
        {
          "indexed": false,
          "internalType": "int128",
          "name": "K0",
          "type": "int128"
        }
      ],
      "name": "NewK",
      "type": "event"
    },
    {
      "anonymous": false,
      "inputs": [
        {
          "indexed": false,
          "internalType": "address",
          "name": "token",
          "type": "address"
        },
        {
          "indexed": false,
          "internalType": "uint32",
          "name": "k",
          "type": "uint32"
        }
      ],
      "name": "NewK",
      "type": "event"
    },
    {
      "anonymous": false,
      "inputs": [
        {
          "indexed": false,
          "internalType": "int128",
          "name": "maxK0",
          "type": "int128"
        }
      ],
      "name": "NewKLimit",
      "type": "event"
    },
    {
      "anonymous": false,
      "inputs": [
        {
          "indexed": false,
          "internalType": "uint256",
          "name": "_interval",
          "type": "uint256"
        }
      ],
      "name": "NewKRefreshInterval",
      "type": "event"
    },
    {
      "anonymous": false,
      "inputs": [
        {
          "indexed": false,
          "internalType": "address",
          "name": "_kTable",
          "type": "address"
        }
      ],
      "name": "NewKTable",
      "type": "event"
    },
    {
      "anonymous": false,
      "inputs": [
        {
          "indexed": false,
          "internalType": "address",
          "name": "_priceOracle",
          "type": "address"
        }
      ],
      "name": "NewOracle",
      "type": "event"
    },
    {
      "anonymous": false,
      "inputs": [
        {
          "indexed": false,
          "internalType": "address",
          "name": "token",
          "type": "address"
        },
        {
          "indexed": false,
          "internalType": "uint32",
          "name": "theta",
          "type": "uint32"
        }
      ],
      "name": "NewTheta",
      "type": "event"
    },
    {
      "anonymous": false,
      "inputs": [
        {
          "indexed": false,
          "internalType": "uint256",
          "name": "_timeSpan",
          "type": "uint256"
        }
      ],
      "name": "NewTimespan",
      "type": "event"
    },
    {
      "inputs": [],
      "name": "AONE",
      "outputs": [
        {
          "internalType": "uint256",
          "name": "",
          "type": "uint256"
        }
      ],
      "stateMutability": "view",
      "type": "function"
    },
    {
      "inputs": [],
      "name": "DESTRUCTION_AMOUNT",
      "outputs": [
        {
          "internalType": "uint256",
          "name": "",
          "type": "uint256"
        }
      ],
      "stateMutability": "view",
      "type": "function"
    },
    {
      "inputs": [],
      "name": "GAMMA",
      "outputs": [
        {
          "internalType": "int128",
          "name": "",
          "type": "int128"
        }
      ],
      "stateMutability": "view",
      "type": "function"
    },
    {
      "inputs": [],
      "name": "K_BASE",
      "outputs": [
        {
          "internalType": "uint256",
          "name": "",
          "type": "uint256"
        }
      ],
      "stateMutability": "view",
      "type": "function"
    },
    {
      "inputs": [],
      "name": "MAX_K0",
      "outputs": [
        {
          "internalType": "int128",
          "name": "",
          "type": "int128"
        }
      ],
      "stateMutability": "view",
      "type": "function"
    },
    {
      "inputs": [],
      "name": "NAVPS_BASE",
      "outputs": [
        {
          "internalType": "uint256",
          "name": "",
          "type": "uint256"
        }
      ],
      "stateMutability": "view",
      "type": "function"
    },
    {
      "inputs": [
        {
          "internalType": "address",
          "name": "",
          "type": "address"
        }
      ],
      "name": "callerAllowed",
      "outputs": [
        {
          "internalType": "bool",
          "name": "",
          "type": "bool"
        }
      ],
      "stateMutability": "view",
      "type": "function"
    },
    {
      "inputs": [],
      "name": "factory",
      "outputs": [
        {
          "internalType": "address",
          "name": "",
          "type": "address"
        }
      ],
      "stateMutability": "view",
      "type": "function"
    },
    {
      "inputs": [],
      "name": "governance",
      "outputs": [
        {
          "internalType": "address",
          "name": "",
          "type": "address"
        }
      ],
      "stateMutability": "view",
      "type": "function"
    },
    {
      "inputs": [],
      "name": "kRefreshInterval",
      "outputs": [
        {
          "internalType": "uint256",
          "name": "",
          "type": "uint256"
        }
      ],
      "stateMutability": "view",
      "type": "function"
    },
    {
      "inputs": [],
      "name": "kTable",
      "outputs": [
        {
          "internalType": "address",
          "name": "",
          "type": "address"
        }
      ],
      "stateMutability": "view",
      "type": "function"
    },
    {
      "inputs": [],
      "name": "nestToken",
      "outputs": [
        {
          "internalType": "address",
          "name": "",
          "type": "address"
        }
      ],
      "stateMutability": "view",
      "type": "function"
    },
    {
      "inputs": [],
      "name": "oracle",
      "outputs": [
        {
          "internalType": "address",
          "name": "",
          "type": "address"
        }
      ],
      "stateMutability": "view",
      "type": "function"
    },
    {
      "inputs": [],
      "name": "timespan",
      "outputs": [
        {
          "internalType": "uint256",
          "name": "",
          "type": "uint256"
        }
      ],
      "stateMutability": "view",
      "type": "function"
    },
    {
      "stateMutability": "payable",
      "type": "receive"
    },
    {
      "inputs": [
        {
          "internalType": "address",
          "name": "_new",
          "type": "address"
        }
      ],
      "name": "setGovernance",
      "outputs": [],
      "stateMutability": "nonpayable",
      "type": "function"
    },
    {
      "inputs": [
        {
          "internalType": "address",
          "name": "_kTable",
          "type": "address"
        }
      ],
      "name": "setKTable",
      "outputs": [],
      "stateMutability": "nonpayable",
      "type": "function"
    },
    {
      "inputs": [
        {
          "internalType": "uint256",
          "name": "_timeSpan",
          "type": "uint256"
        }
      ],
      "name": "setTimespan",
      "outputs": [],
      "stateMutability": "nonpayable",
      "type": "function"
    },
    {
      "inputs": [
        {
          "internalType": "uint256",
          "name": "_interval",
          "type": "uint256"
        }
      ],
      "name": "setKRefreshInterval",
      "outputs": [],
      "stateMutability": "nonpayable",
      "type": "function"
    },
    {
      "inputs": [
        {
          "internalType": "uint256",
          "name": "_amount",
          "type": "uint256"
        }
      ],
      "name": "setOracleDestructionAmount",
      "outputs": [],
      "stateMutability": "nonpayable",
      "type": "function"
    },
    {
      "inputs": [
        {
          "internalType": "uint256",
          "name": "_T",
          "type": "uint256"
        }
      ],
      "name": "setTLimit",
      "outputs": [],
      "stateMutability": "nonpayable",
      "type": "function"
    },
    {
      "inputs": [
        {
          "internalType": "address",
          "name": "token",
          "type": "address"
        },
        {
          "internalType": "uint32",
          "name": "k",
          "type": "uint32"
        }
      ],
      "name": "setK",
      "outputs": [],
      "stateMutability": "nonpayable",
      "type": "function"
    },
    {
      "inputs": [
        {
          "internalType": "address",
          "name": "token",
          "type": "address"
        },
        {
          "internalType": "uint32",
          "name": "theta",
          "type": "uint32"
        }
      ],
      "name": "setTheta",
      "outputs": [],
      "stateMutability": "nonpayable",
      "type": "function"
    },
    {
      "inputs": [
        {
          "internalType": "address",
          "name": "caller",
          "type": "address"
        }
      ],
      "name": "addCaller",
      "outputs": [],
      "stateMutability": "nonpayable",
      "type": "function"
    },
    {
      "inputs": [
        {
          "internalType": "address",
          "name": "token",
          "type": "address"
        },
        {
          "internalType": "uint8",
          "name": "op",
          "type": "uint8"
        },
        {
          "internalType": "bytes",
          "name": "data",
          "type": "bytes"
        }
      ],
      "name": "queryOracle",
      "outputs": [
        {
          "internalType": "uint256",
          "name": "_k",
          "type": "uint256"
        },
        {
          "internalType": "uint256",
          "name": "_ethAmount",
          "type": "uint256"
        },
        {
          "internalType": "uint256",
          "name": "_erc20Amount",
          "type": "uint256"
        },
        {
          "internalType": "uint256",
          "name": "_blockNum",
          "type": "uint256"
        },
        {
          "internalType": "uint256",
          "name": "_theta",
          "type": "uint256"
        }
      ],
      "stateMutability": "payable",
      "type": "function"
    },
    {
      "inputs": [
        {
          "internalType": "address",
          "name": "token",
          "type": "address"
        },
        {
          "internalType": "bytes",
          "name": "data",
          "type": "bytes"
        },
        {
          "internalType": "uint256",
          "name": "ethAmount",
          "type": "uint256"
        },
        {
          "internalType": "uint256",
          "name": "erc20Amount",
          "type": "uint256"
        }
      ],
      "name": "calcImpactCostFor_BURN",
      "outputs": [
        {
          "internalType": "uint256",
          "name": "impactCost",
          "type": "uint256"
        }
      ],
      "stateMutability": "view",
      "type": "function"
    },
    {
      "inputs": [
        {
          "internalType": "address",
          "name": "token",
          "type": "address"
        },
        {
          "internalType": "bytes",
          "name": "data",
          "type": "bytes"
        },
        {
          "internalType": "uint256",
          "name": "ethAmount",
          "type": "uint256"
        },
        {
          "internalType": "uint256",
          "name": "erc20Amount",
          "type": "uint256"
        }
      ],
      "name": "calcImpactCostFor_SWAP_WITH_EXACT",
      "outputs": [
        {
          "internalType": "uint256",
          "name": "impactCost",
          "type": "uint256"
        }
      ],
      "stateMutability": "pure",
      "type": "function"
    },
    {
      "inputs": [
        {
          "internalType": "address",
          "name": "token",
          "type": "address"
        },
        {
          "internalType": "bytes",
          "name": "data",
          "type": "bytes"
        },
        {
          "internalType": "uint256",
          "name": "ethAmount",
          "type": "uint256"
        },
        {
          "internalType": "uint256",
          "name": "erc20Amount",
          "type": "uint256"
        }
      ],
      "name": "calcImpactCostFor_SWAP_FOR_EXACT",
      "outputs": [
        {
          "internalType": "uint256",
          "name": "impactCost",
          "type": "uint256"
        }
      ],
      "stateMutability": "pure",
      "type": "function"
    },
    {
      "inputs": [
        {
          "internalType": "uint256",
          "name": "vol",
          "type": "uint256"
        }
      ],
      "name": "impactCostForBuyInETH",
      "outputs": [
        {
          "internalType": "uint256",
          "name": "impactCost",
          "type": "uint256"
        }
      ],
      "stateMutability": "pure",
      "type": "function"
    },
    {
      "inputs": [
        {
          "internalType": "uint256",
          "name": "vol",
          "type": "uint256"
        }
      ],
      "name": "impactCostForSellOutETH",
      "outputs": [
        {
          "internalType": "uint256",
          "name": "impactCost",
          "type": "uint256"
        }
      ],
      "stateMutability": "pure",
      "type": "function"
    },
    {
      "inputs": [
        {
          "internalType": "address",
          "name": "token",
          "type": "address"
        }
      ],
      "name": "getKInfo",
      "outputs": [
        {
          "internalType": "uint32",
          "name": "k",
          "type": "uint32"
        },
        {
          "internalType": "uint32",
          "name": "updatedAt",
          "type": "uint32"
        },
        {
          "internalType": "uint32",
          "name": "theta",
          "type": "uint32"
        }
      ],
      "stateMutability": "view",
      "type": "function"
    },
    {
      "inputs": [
        {
          "internalType": "uint256",
          "name": "vola",
          "type": "uint256"
        },
        {
          "internalType": "uint256",
          "name": "bn",
          "type": "uint256"
        }
      ],
      "name": "calcK",
      "outputs": [
        {
          "internalType": "uint32",
          "name": "k",
          "type": "uint32"
        }
      ],
      "stateMutability": "view",
      "type": "function"
    }
  ],
  "bytecode": "0x60e060405261025860009081556207a120600155600e60065561012c60075560085560098054600160bf1b6001600160801b0319909116670ccccccccccccd00176001600160801b03161790553480156200005957600080fd5b50604051620023db380380620023db833981810160405260808110156200007f57600080fd5b508051602080830151604080850151606095860151600480546001600160a01b0319908116331782556001600160601b0319888a1b8116608052868a1b811660a0529884901b90981660c052600580546001600160a01b0380851691909a16179055835163574f2ba360e01b81529351969794969295919486946000949186169363574f2ba393828101939192829003018186803b1580156200012157600080fd5b505afa15801562000136573d6000803e3d6000fd5b505050506040513d60208110156200014d57600080fd5b5051905060005b8181101562000203576000836001600160a01b0316631e3dd18b836040518263ffffffff1660e01b81526004018082815260200191505060206040518083038186803b158015620001a457600080fd5b505afa158015620001b9573d6000803e3d6000fd5b505050506040513d6020811015620001d057600080fd5b50516001600160a01b03166000908152600360205260409020805460ff1916600190811790915591909101905062000154565b5050505050505060805160601c60a05160601c60c05160601c6121916200024a60003980610d0652806112da52508061097d525080610dd152806117ea52506121916000f3fe6080604052600436106101dc5760003560e01c80638dba932911610102578063c45a015511610095578063d342d97711610064578063d342d977146108cd578063e2e01698146108f7578063eba0df6e1461090c578063ef83052314610921576101e3565b8063c45a015514610756578063c7d5308f1461076b578063cdfadb34146107c6578063cf0c28291461088e576101e3565b8063a536b60a116100d1578063a536b60a146102a1578063ab033ea9146106c7578063be190032146106fa578063c13b476c1461070f576101e3565b80638dba9329146104d75780638e85056d146105c05780638f2637fb146106885780639d5bfae21461069d576101e3565b80635b8ea7981161017a578063747293fb11610149578063747293fb1461043b5780637dc0d1d01461046e578063823d309e1461048357806382963012146104ad576101e3565b80635b8ea798146103935780635f69bd3d146103bd57806363f0c3d9146103d2578063733ed80614610411576101e3565b80634e929741116101b65780634e9297411461026c5780634f6ec2dd146102a1578063551359de146102b65780635aa6e6751461037e576101e3565b806325e7fe38146101e8578063329861311461021457806337fc2beb1461023b576101e3565b366101e357005b600080fd5b3480156101f457600080fd5b506101fd61096a565b60408051600f9290920b8252519081900360200190f35b34801561022057600080fd5b50610229610973565b60408051918252519081900360200190f35b34801561024757600080fd5b5061025061097b565b604080516001600160a01b039092168252519081900360200190f35b34801561027857600080fd5b5061029f6004803603602081101561028f57600080fd5b50356001600160a01b031661099f565b005b3480156102ad57600080fd5b50610229610a6a565b3480156102c257600080fd5b50610229600480360360808110156102d957600080fd5b6001600160a01b03823516919081019060408101602082013564010000000081111561030457600080fd5b82018360208201111561031657600080fd5b8035906020019184600183028401116401000000008311171561033857600080fd5b91908080601f0160208091040260200160405190810160405280939291908181526020018383808284376000920191909152509295505082359350505060200135610a76565b34801561038a57600080fd5b50610250610af5565b34801561039f57600080fd5b5061029f600480360360208110156103b657600080fd5b5035610b04565b3480156103c957600080fd5b50610229610b68565b3480156103de57600080fd5b5061029f600480360360408110156103f557600080fd5b5080356001600160a01b0316906020013563ffffffff16610b6e565b34801561041d57600080fd5b5061029f6004803603602081101561043457600080fd5b5035610c61565b34801561044757600080fd5b5061029f6004803603602081101561045e57600080fd5b50356001600160a01b0316610cfb565b34801561047a57600080fd5b50610250610dcf565b34801561048f57600080fd5b5061029f600480360360208110156104a657600080fd5b5035610df3565b3480156104b957600080fd5b50610229600480360360208110156104d057600080fd5b5035610e57565b610595600480360360608110156104ed57600080fd5b6001600160a01b038235169160ff6020820135169181019060608101604082013564010000000081111561052057600080fd5b82018360208201111561053257600080fd5b8035906020019184600183028401116401000000008311171561055457600080fd5b91908080601f016020809104026020016040519081016040528093929190818152602001838380828437600092019190915250929550610eac945050505050565b6040805195865260208601949094528484019290925260608401526080830152519081900360a00190f35b3480156105cc57600080fd5b50610229600480360360808110156105e357600080fd5b6001600160a01b03823516919081019060408101602082013564010000000081111561060e57600080fd5b82018360208201111561062057600080fd5b8035906020019184600183028401116401000000008311171561064257600080fd5b91908080601f0160208091040260200160405190810160405280939291908181526020018383808284376000920191909152509295505082359350505060200135611034565b34801561069457600080fd5b50610250611149565b3480156106a957600080fd5b5061029f600480360360208110156106c057600080fd5b5035611158565b3480156106d357600080fd5b5061029f600480360360208110156106ea57600080fd5b50356001600160a01b03166111f2565b34801561070657600080fd5b506102296112bd565b34801561071b57600080fd5b506107426004803603602081101561073257600080fd5b50356001600160a01b03166112c3565b604080519115158252519081900360200190f35b34801561076257600080fd5b506102506112d8565b34801561077757600080fd5b5061079e6004803603602081101561078e57600080fd5b50356001600160a01b03166112fc565b6040805163ffffffff9485168152928416602084015292168183015290519081900360600190f35b3480156107d257600080fd5b50610229600480360360808110156107e957600080fd5b6001600160a01b03823516919081019060408101602082013564010000000081111561081457600080fd5b82018360208201111561082657600080fd5b8035906020019184600183028401116401000000008311171561084857600080fd5b91908080601f0160208091040260200160405190810160405280939291908181526020018383808284376000920191909152509295505082359350505060200135611373565b34801561089a57600080fd5b5061029f600480360360408110156108b157600080fd5b5080356001600160a01b0316906020013563ffffffff166113ea565b3480156108d957600080fd5b50610229600480360360208110156108f057600080fd5b503561149d565b34801561090357600080fd5b506102296114ea565b34801561091857600080fd5b506101fd6114f0565b34801561092d57600080fd5b506109516004803603604081101561094457600080fd5b508035906020013561150d565b6040805163ffffffff9092168252519081900360200190f35b600954600f0b81565b6305f5e10081565b7f000000000000000000000000000000000000000000000000000000000000000081565b6004546001600160a01b031633146109fe576040805162461bcd60e51b815260206004820152601660248201527f436f4669584374726c3a2021676f7665726e616e636500000000000000000000604482015290519081900360640190fd5b600580546001600160a01b0383167fffffffffffffffffffffffff0000000000000000000000000000000000000000909116811790915560408051918252517fb8a7215c66d7533048ef6969ce3d23be990ce682c859f835e4bed6f6f33194bb9181900360200190a150565b670de0b6b3a764000081565b6000806000858060200190516080811015610a9057600080fd5b50602081015160609091015190925090506001600160a01b0380831690881614610adf576000610aca85610ac484896116b4565b90611716565b9050610ad58161149d565b9350505050610aed565b610ae881610e57565b925050505b949350505050565b6004546001600160a01b031681565b6004546001600160a01b03163314610b63576040805162461bcd60e51b815260206004820152601660248201527f436f4669584374726c3a2021676f7665726e616e636500000000000000000000604482015290519081900360640190fd5b600855565b60085481565b6004546001600160a01b03163314610bcd576040805162461bcd60e51b815260206004820152601660248201527f436f4669584374726c3a2021676f7665726e616e636500000000000000000000604482015290519081900360640190fd5b6001600160a01b03821660008181526002602090815260409182902080547fffffffffffffffffffffffffffffffffffffffff00000000ffffffffffffffff166801000000000000000063ffffffff87169081029190911790915582519384529083015280517fdf754dcc54212b1583a43e52dc93c9a33b0a5310fe26ccefbb832a384577e72d9281900390910190a15050565b6004546001600160a01b03163314610cc0576040805162461bcd60e51b815260206004820152601660248201527f436f4669584374726c3a2021676f7665726e616e636500000000000000000000604482015290519081900360640190fd5b60068190556040805182815290517f9fe8f70a914cfc48197ae6ab66b8c3b2e611c7fa27ef9af879ad1fd494fd7b5b9181900360200190a150565b336001600160a01b037f0000000000000000000000000000000000000000000000000000000000000000161480610d3c57506004546001600160a01b031633145b610d8d576040805162461bcd60e51b815260206004820152601e60248201527f436f4669584374726c3a206f6e6c7920666163746f7279206f7220676f760000604482015290519081900360640190fd5b6001600160a01b0316600090815260036020526040902080547fffffffffffffffffffffffffffffffffffffffffffffffffffffffffffffff00166001179055565b7f000000000000000000000000000000000000000000000000000000000000000081565b6004546001600160a01b03163314610e52576040805162461bcd60e51b815260206004820152601660248201527f436f4669584374726c3a2021676f7665726e616e636500000000000000000000604482015290519081900360640190fd5b600055565b6000681b1ae4d6e2ef500000821015610e7257506000610ea7565b610ea46402540be400610ac4656a8077e73800610e9e670de0b6b3a76400008364c340748200896116b4565b9061177d565b90505b919050565b33600090815260036020526040812054819081908190819060ff16610f18576040805162461bcd60e51b815260206004820152601d60248201527f436f4669584374726c3a2063616c6c6572206e6f7420616c6c6f776564000000604482015290519081900360640190fd5b610f21886117da565b92975090955093509150600060ff88166004811115610f3c57fe5b905060006003826004811115610f4e57fe5b1415610f6757610f608a898888610a76565b9050610feb565b6004826004811115610f7557fe5b1415610fc8576040805162461bcd60e51b815260206004820152601e60248201527f64697361626c6564206578706572696d656e74616c2066656174757265210000604482015290519081900360640190fd5b6002826004811115610fd657fe5b1415610feb57610fe88a898888611034565b90505b610ff58782611d8c565b6001600160a01b039a909a16600090815260026020526040902054999a959994985092965050506801000000000000000090910463ffffffff16925050565b600080600085806020019051608081101561104e57600080fd5b50602080820151606090920151604080517f24334be8000000000000000000000000000000000000000000000000000000008152600481018a905260248101899052905193955090935060009233926324334be89260448082019391829003018186803b1580156110be57600080fd5b505afa1580156110d2573d6000803e3d6000fd5b505050506040513d60208110156110e857600080fd5b505190506000611104670de0b6b3a7640000610ac485856116b4565b9050886001600160a01b0316846001600160a01b031614611133576111288161149d565b945050505050610aed565b61113c81610e57565b9998505050505050505050565b6005546001600160a01b031681565b6004546001600160a01b031633146111b7576040805162461bcd60e51b815260206004820152601660248201527f436f4669584374726c3a2021676f7665726e616e636500000000000000000000604482015290519081900360640190fd5b60078190556040805182815290517f50305e979fe14d7795fbb7d2f90b6b2370220629d50fc15d87e78092a900b72c9181900360200190a150565b6004546001600160a01b03163314611251576040805162461bcd60e51b815260206004820152601660248201527f436f4669584374726c3a2021676f7665726e616e636500000000000000000000604482015290519081900360640190fd5b600480546001600160a01b0383167fffffffffffffffffffffffff0000000000000000000000000000000000000000909116811790915560408051918252517f4f386975ea1c2f7cf1845b08bee00626fbb624ecad16254d63d9bb9ba86526de9181900360200190a150565b60065481565b60036020526000908152604090205460ff1681565b7f000000000000000000000000000000000000000000000000000000000000000081565b6001600160a01b0381166000908152600260205260408120548190819063ffffffff16801561132d57809350611333565b60015493505b5050506001600160a01b0391909116600090815260026020526040902054909163ffffffff64010000000083048116926801000000000000000090041690565b600080600085806020019051608081101561138d57600080fd5b50602081015160409091015190925090506001600160a01b03808316908816146113c3576113ba8161149d565b92505050610aed565b60006113d385610ac484896116b4565b90506113de81610e57565b98975050505050505050565b6004546001600160a01b03163314611449576040805162461bcd60e51b815260206004820152601660248201527f436f4669584374726c3a2021676f7665726e616e636500000000000000000000604482015290519081900360640190fd5b63ffffffff81166001819055604080516001600160a01b0385168152602081019290925280517f6b5a7bf27649aa058ceb45c028708f76f2b12277f096a828fd1db5b711e4188e9281900390910190a15050565b6000681b1ae4d6e2ef5000008210156114b857506000610ea7565b610ea46402540be400610ac46114dd670de0b6b3a76400008264c6e2499e00886116b4565b65175fbf5ee80090611d8c565b60075481565b6009547001000000000000000000000000000000009004600f0b81565b600061152961152484670de0b6b3a76400006116b4565b611de6565b92506115336120a6565b60065460009061154d90611547438761177d565b906116b4565b90506000611561600a610ac4846005611d8c565b9050600061158f61158a61157c89660346dc5d638865611e37565b678000000000000000611eab565b611eff565b67ffffffffffffffff16905080156115af576115ac81600161177d565b90505b600554604080517f05cb3f5d000000000000000000000000000000000000000000000000000000008152600481018590526024810184905290516001600160a01b03909216916305cb3f5d91604480820192602092909190829003018186803b15801561161b57600080fd5b505afa15801561162f573d6000803e3d6000fd5b505050506040513d602081101561164557600080fd5b5051600f90810b810b855260095461167c91700100000000000000000000000000000000909104900b8560005b6020020151611f1b565b600f90810b900b60208501526116a961158a8560015b60200201516116a46305f5e100611f72565b611f1b565b979650505050505050565b6000826116c357506000611710565b828202828482816116d057fe5b041461170d5760405162461bcd60e51b81526004018080602001828103825260218152602001806121186021913960400191505060405180910390fd5b90505b92915050565b600080821161176c576040805162461bcd60e51b815260206004820152601a60248201527f536166654d6174683a206469766973696f6e206279207a65726f000000000000604482015290519081900360640190fd5b81838161177557fe5b049392505050565b6000828211156117d4576040805162461bcd60e51b815260206004820152601e60248201527f536166654d6174683a207375627472616374696f6e206f766572666c6f770000604482015290519081900360640190fd5b50900390565b6000808080476117e86120c4565b7f00000000000000000000000000000000000000000000000000000000000000006001600160a01b031663fe0103e23489306040518463ffffffff1660e01b815260040180836001600160a01b03168152602001826001600160a01b031681526020019250505060c0604051808303818588803b15801561186857600080fd5b505af115801561187c573d6000803e3d6000fd5b50505050506040513d60c081101561189357600080fd5b508051602080830151608084015160a09485015160e08701819052948601529084015260408301526118d19061152490670de0b6b3a76400006116b4565b60e0820152670de0b6b3a7640000815260065460408201516118f9919061154790439061177d565b6080820181905260005411611955576040805162461bcd60e51b815260206004820181905260248201527f436f4669584374726c3a206f72616c6365207072696365206f75746461746564604482015290519081900360640190fd5b60008061197f8360000151610ac4670de0b6b3a764000086602001516116b490919063ffffffff16565b915060008360a00151831161199a57828460a00151036119a2565b8360a0015183035b60a08501519091506119b590600a6116b4565b6119c08260646116b4565b106119cc5760016119cf565b60005b91508115611a24576040805162461bcd60e51b815260206004820152601a60248201527f436f4669584374726c3a20707269636520646576696174696f6e000000000000604482015290519081900360640190fd5b505050611a2f6120a6565b611a4c600a610ac460058560800151611d8c90919063ffffffff16565b61010083015260e0820151611a709061158a9061157c90660346dc5d638865611e37565b67ffffffffffffffff16610120830181905215611a9f57610120820151611a9890600161177d565b6101208301525b600554610100830151610120840151604080517f05cb3f5d00000000000000000000000000000000000000000000000000000000815260048101939093526024830191909152516001600160a01b03909216916305cb3f5d91604480820192602092909190829003018186803b158015611b1857600080fd5b505afa158015611b2c573d6000803e3d6000fd5b505050506040513d6020811015611b4257600080fd5b5051600f90810b810b8252600954611b7391700100000000000000000000000000000000909104900b826000611672565b816001600f92830b90920b602090920201527f5215e2027990bf7945e0efa77ce15a9a1ae6e625954132596baa3c304af1f1308882600160200201518460e0015185608001518660000151876020015188604001518961010001518a61012001518a600060028110611be157fe5b6020020151604051808b6001600160a01b031681526020018a600f0b815260200189600f0b815260200188815260200187815260200186815260200185815260200184815260200183815260200182600f0b81526020019a505050505050505050505060405180910390a16009548151600f91820b820b910b1315611cad576040805162461bcd60e51b815260206004820152600d60248201527f436f4669584374726c3a204b3000000000000000000000000000000000000000604482015290519081900360640190fd5b6000611cc3611cbc854761177d565b349061177d565b90508015611cd557611cd53382611f90565b611ce361158a836001611692565b6001600160a01b039990991660009081526002602090815260409182902080544263ffffffff908116640100000000027fffffffffffffffffffffffffffffffffffffffffffffffff00000000ffffffff918f167fffffffffffffffffffffffffffffffffffffffffffffffffffffffff000000009093169290921716179055845190850151949091015167ffffffffffffffff909a169a909993985092965091945050505050565b60008282018381101561170d576040805162461bcd60e51b815260206004820152601b60248201527f536166654d6174683a206164646974696f6e206f766572666c6f770000000000604482015290519081900360640190fd5b60006003821115611e29575080600160028204015b81811015611e2357809150600281828581611e1257fe5b040181611e1b57fe5b049050611dfb565b50610ea7565b8115610ea757506001919050565b600081600f0b60001415611e4a57600080fd5b600082600f0b604085600f0b901b81611e5f57fe5b0590507fffffffffffffffffffffffffffffffff800000000000000000000000000000008112801590611ea257506f7fffffffffffffffffffffffffffffff8113155b61170d57600080fd5b6000600f83810b9083900b017fffffffffffffffffffffffffffffffff800000000000000000000000000000008112801590611ea257506f7fffffffffffffffffffffffffffffff81131561170d57600080fd5b60008082600f0b1215611f1157600080fd5b50600f0b60401d90565b6000600f83810b9083900b0260401d7fffffffffffffffffffffffffffffffff800000000000000000000000000000008112801590611ea257506f7fffffffffffffffffffffffffffffff81131561170d57600080fd5b6000677fffffffffffffff821115611f8957600080fd5b5060401b90565b604080516000808252602082019092526001600160a01b0384169083906040518082805190602001908083835b60208310611ffa57805182527fffffffffffffffffffffffffffffffffffffffffffffffffffffffffffffffe09092019160209182019101611fbd565b6001836020036101000a03801982511681845116808217855250505050505090500191505060006040518083038185875af1925050503d806000811461205c576040519150601f19603f3d011682016040523d82523d6000602084013e612061565b606091505b50509050806120a15760405162461bcd60e51b81526004018080602001828103825260238152602001806121396023913960400191505060405180910390fd5b505050565b60405180604001604052806002906020820280368337509192915050565b60405180610140016040528060008152602001600081526020016000815260200160008152602001600081526020016000815260200160008152602001600081526020016000815260200160008152509056fe536166654d6174683a206d756c7469706c69636174696f6e206f766572666c6f775472616e7366657248656c7065723a204554485f5452414e534645525f4641494c4544a2646970667358221220d498c6bf47808941c171a872faaa9371d95c855cbffc8eb1155ef48e58a33fcb64736f6c634300060c0033",
  "immutableReferences": {
    "5125": [
      {
        "length": 32,
        "start": 3537
      },
      {
        "length": 32,
        "start": 6122
      }
    ],
    "5127": [
      {
        "length": 32,
        "start": 2429
      }
    ],
    "5129": [
      {
        "length": 32,
        "start": 3334
      },
      {
        "length": 32,
        "start": 4826
      }
    ]
  },
  "source": "// SPDX-License-Identifier: GPL-3.0-or-later\npragma solidity 0.6.12;\n\nimport \"@openzeppelin/contracts/math/SafeMath.sol\";\nimport \"./lib/ABDKMath64x64.sol\";\nimport \"./interface/ICoFiXKTable.sol\";\nimport \"./lib/TransferHelper.sol\";\nimport \"./interface/ICoFiXController.sol\";\nimport \"./interface/INestPriceFacade.sol\";\nimport \"./interface/ICoFiXPair.sol\";\nimport \"./interface/ICoFiXFactory.sol\";\n\n// Controller contract to call NEST Oracle for prices, managed by governance\n// Governance role of this contract should be the `Timelock` contract, which is further managed by a multisig contract\ncontract CoFiXController04 is ICoFiXController {  // ctrl-03: change contract name to avoid truffle complaint\n\n    using SafeMath for uint256;\n\n    enum CoFiX_OP { QUERY, MINT, BURN, SWAP_WITH_EXACT, SWAP_FOR_EXACT } // operations in CoFiX\n\n    uint256 constant public AONE = 1 ether;\n    uint256 constant public K_BASE = 1E8;\n    uint256 constant public NAVPS_BASE = 1E18; // NAVPS (Net Asset Value Per Share), need accuracy\n    uint256 internal T = 600; // ctrl-v2: V1 (900) -> V2 (600)\n    uint256 internal K_EXPECTED_VALUE = 0.005*1E8; // ctrl-v2: V1 (0.0025) -> V2 (0.005)\n    // impact cost params\n    uint256 constant internal C_BUYIN_ALPHA = 25700000000000; // =2.570e-05*1e18\n    uint256 constant internal C_BUYIN_BETA = 854200000000; // =8.542e-07*1e18\n    uint256 constant internal C_SELLOUT_ALPHA = 117100000000000; // =-1.171e-04*1e18\n    uint256 constant internal C_SELLOUT_BETA = 838600000000; // =8.386e-07*1e18\n\n    int128 constant internal SIGMA_STEP = 0x346DC5D638865; // (0.00005*2**64).toString(16), 0.00005 as 64.64-bit fixed point\n    int128 constant internal ZERO_POINT_FIVE = 0x8000000000000000; // (0.5*2**64).toString(16)\n    uint256 constant PRICE_DEVIATION = 10;  // price deviation < 10%\n\n    mapping(address => uint32[3]) internal KInfoMap; // gas saving, index [0] is k vlaue, index [1] is updatedAt, index [2] is theta\n    mapping(address => bool) public callerAllowed;\n\n    // managed by governance\n    address public governance;\n    address public immutable oracle;\n    address public immutable nestToken;\n    address public immutable factory;\n    address public kTable;\n    uint256 public timespan = 14;\n    uint256 public kRefreshInterval = 5 minutes;\n    uint256 public DESTRUCTION_AMOUNT = 0 ether; // from nest oracle\n    int128 public MAX_K0 = 0xCCCCCCCCCCCCD00; // (0.05*2**64).toString(16)\n    int128 public GAMMA = 0x8000000000000000; // (0.5*2**64).toString(16)\n\n    struct OracleParams {\n        uint256 ethAmount;\n        uint256 erc20Amount;\n        uint256 blockNum;\n        uint256 K;\n        uint256 T; // time offset\n        uint256 avgPrice; // average price\n        uint256 theta;\n        uint256 sigma;\n        uint256 tIdx;\n        uint256 sigmaIdx;\n    }\n\n    modifier onlyGovernance() {\n        require(msg.sender == governance, \"CoFiXCtrl: !governance\");\n        _;\n    }\n\n    constructor(address _oracle, address _nest, address _factory, address _kTable) public {\n        governance = msg.sender;\n        oracle = _oracle;\n        nestToken = _nest;\n        factory = _factory;\n        kTable = _kTable;\n\n        // add previous pair as caller\n        ICoFiXFactory cFactory = ICoFiXFactory(_factory);\n        uint256 pairCnt = cFactory.allPairsLength();\n        for (uint256 i = 0; i < pairCnt; i++) {\n            address pair = cFactory.allPairs(i);\n            callerAllowed[pair] = true;\n        }\n    }\n\n    receive() external payable {}\n\n    /* setters for protocol governance */\n    function setGovernance(address _new) external onlyGovernance {\n        governance = _new;\n        emit NewGovernance(_new);\n    }\n\n    function setKTable(address _kTable) external onlyGovernance {\n        kTable = _kTable;\n        emit NewKTable(_kTable);\n    }    \n\n    function setTimespan(uint256 _timeSpan) external onlyGovernance {\n        timespan = _timeSpan;\n        emit NewTimespan(_timeSpan);\n    }\n\n    function setKRefreshInterval(uint256 _interval) external onlyGovernance {\n        kRefreshInterval = _interval;\n        emit NewKRefreshInterval(_interval);\n    }\n\n    function setOracleDestructionAmount(uint256 _amount) external onlyGovernance {\n        DESTRUCTION_AMOUNT = _amount;\n    }\n\n    function setTLimit(uint256 _T) external onlyGovernance { // ctrl-v2: new setter for T\n        T = _T;\n    }\n\n    function setK(address token, uint32 k) external onlyGovernance { // ctrl-v2: new setter for K, adjustable by governance\n        K_EXPECTED_VALUE = uint256(k);\n        emit NewK(token, k); // new event for setting K\n    }\n\n    function setTheta(address token, uint32 theta) external onlyGovernance {\n        KInfoMap[token][2] = theta;\n        emit NewTheta(token, theta);\n    }\n\n    function addCaller(address caller) external override {\n        require(msg.sender == factory || msg.sender == governance, \"CoFiXCtrl: only factory or gov\");\n        callerAllowed[caller] = true;\n    }\n\n    // Calc variance of price and K in CoFiX is very expensive\n    // We use expected value of K based on statistical calculations here to save gas\n    // In the near future, NEST could provide the variance of price directly. We will adopt it then.\n    // We can make use of `data` bytes in the future\n    function queryOracle(address token, uint8 op, bytes memory data) external override payable returns (uint256 _k, uint256 _ethAmount, uint256 _erc20Amount, uint256 _blockNum, uint256 _theta) {\n        require(callerAllowed[msg.sender], \"CoFiXCtrl: caller not allowed\");\n        (_k, _ethAmount, _erc20Amount, _blockNum) = getLatestPrice(token);\n        CoFiX_OP cop = CoFiX_OP(op);\n        uint256 impactCost;\n        if (cop == CoFiX_OP.SWAP_WITH_EXACT) {\n            impactCost = calcImpactCostFor_SWAP_WITH_EXACT(token, data, _ethAmount, _erc20Amount);\n        } else if (cop == CoFiX_OP.SWAP_FOR_EXACT) {\n            revert(\"disabled experimental feature!\"); // ctrl-v2: disable swapForExact function\n         } else if (cop == CoFiX_OP.BURN) {\n            impactCost = calcImpactCostFor_BURN(token, data, _ethAmount, _erc20Amount);\n        }\n        _k = _k.add(impactCost); // ctrl-v2: adjustable K + impactCost is the final K\n        _theta = KInfoMap[token][2];\n        return (_k, _ethAmount, _erc20Amount, _blockNum, _theta);\n    }\n\n    function calcImpactCostFor_BURN(address token, bytes memory data, uint256 ethAmount, uint256 erc20Amount) public view returns (uint256 impactCost) {\n        // bytes memory data = abi.encode(msg.sender, outToken, to, liquidity);\n        (, address outToken, , uint256 liquidity) = abi.decode(data, (address, address, address, uint256));\n        // calc real vol by liquidity * np\n        uint256 navps = ICoFiXPair(msg.sender).getNAVPerShare(ethAmount, erc20Amount); // pair call controller, msg.sender is pair\n        uint256 vol = liquidity.mul(navps).div(NAVPS_BASE);\n        if (outToken != token) {\n            // buy in ETH, outToken is ETH\n            return impactCostForBuyInETH(vol);\n        }\n        // sell out liquidity, outToken is token, take this as sell out ETH and get token\n        return impactCostForSellOutETH(vol);\n    }\n\n    function calcImpactCostFor_SWAP_WITH_EXACT(address token, bytes memory data, uint256 ethAmount, uint256 erc20Amount) public pure returns (uint256 impactCost) {\n        (, address outToken, , uint256 amountIn) = abi.decode(data, (address, address, address, uint256));\n        if (outToken != token) {\n            // buy in ETH, outToken is ETH, amountIn is token\n            // convert to amountIn in ETH\n            uint256 vol = uint256(amountIn).mul(ethAmount).div(erc20Amount);\n            return impactCostForBuyInETH(vol);\n        }\n        // sell out ETH, amountIn is ETH\n        return impactCostForSellOutETH(amountIn);\n    }\n\n    function calcImpactCostFor_SWAP_FOR_EXACT(address token, bytes memory data, uint256 ethAmount, uint256 erc20Amount) public pure returns (uint256 impactCost) {\n        (, address outToken, uint256 amountOutExact,) = abi.decode(data, (address, address, uint256, address));\n        if (outToken != token) {\n            // buy in ETH, outToken is ETH, amountOutExact is ETH\n            return impactCostForBuyInETH(amountOutExact);\n        }\n        // sell out ETH, amountIn is ETH, amountOutExact is token\n        // convert to amountOutExact in ETH\n        uint256 vol = uint256(amountOutExact).mul(ethAmount).div(erc20Amount);\n        return impactCostForSellOutETH(vol);\n    }\n\n    // impact cost\n    // - C = 0, if VOL < 500\n    // - C =  +  * VOL, if VOL >= 500\n\n    // =2.570e-05=8.542e-07\n    function impactCostForBuyInETH(uint256 vol) public pure returns (uint256 impactCost) {\n        if (vol < 500 ether) {\n            return 0;\n        }\n        // return C_BUYIN_ALPHA.add(C_BUYIN_BETA.mul(vol).div(1e18)).mul(1e8).div(1e18);\n        return C_BUYIN_ALPHA.add(C_BUYIN_BETA.mul(vol).div(1e18)).div(1e10); // combine mul div\n    }\n\n    // =-1.171e-04=8.386e-07\n    function impactCostForSellOutETH(uint256 vol) public pure returns (uint256 impactCost) {\n        if (vol < 500 ether) {\n            return 0;\n        }\n        // return (C_SELLOUT_BETA.mul(vol).div(1e18)).sub(C_SELLOUT_ALPHA).mul(1e8).div(1e18);\n        return (C_SELLOUT_BETA.mul(vol).div(1e18)).sub(C_SELLOUT_ALPHA).div(1e10); // combine mul div\n    }\n\n    function getKInfo(address token) external view returns (uint32 k, uint32 updatedAt, uint32 theta) {\n        // ctrl-v3: load from storage instead of constant value\n        uint32 kStored = KInfoMap[token][0];\n        if (kStored != 0) {\n            k = kStored;\n        } else {\n            k = uint32(K_EXPECTED_VALUE);\n        }\n        updatedAt = KInfoMap[token][1];\n        theta = KInfoMap[token][2];\n    }\n\n    // babylonian method (https://en.wikipedia.org/wiki/Methods_of_computing_square_roots#Babylonian_method)\n    function sqrt(uint y) internal pure returns (uint z) {\n        if (y > 3) {\n            z = y;\n            uint x = y / 2 + 1;\n            while (x < z) {\n                z = x;\n                x = (y / x + x) / 2;\n            }\n        } else if (y != 0) {\n            z = 1;\n        }\n    }\n\n    function getLatestPrice(address token) internal returns (uint256 _k, uint256 _ethAmount, uint256 _erc20Amount, uint256 _blockNum) {\n        uint256 _balanceBefore = address(this).balance;\n        OracleParams memory _op;\n        // query oracle\n        ///  latestPriceBlockNumber The block number of latest price\n        ///  latestPriceValue The token latest price. (1eth equivalent to (price) token)\n        ///  triggeredPriceBlockNumber The block number of triggered price\n        ///  triggeredPriceValue The token triggered price. (1eth equivalent to (price) token)\n        ///  triggeredAvgPrice Average price\n        ///  triggeredSigmaSQ The square of the volatility (18 decimal places).\n        (\n            _op.blockNum, \n            _op.erc20Amount,\n            /* uint triggeredPriceBlockNumber */,\n            /* uint triggeredPriceValue */,\n            _op.avgPrice,\n            _op.sigma \n        ) = INestPriceFacade(oracle).latestPriceAndTriggeredPriceInfo{value: msg.value}(token, address(this));\n        _op.sigma = sqrt(_op.sigma.mul(1e18));\n        _op.ethAmount = 1 ether;\n        \n        // validate T\n        _op.T = block.number.sub(_op.blockNum).mul(timespan);\n        require(_op.T < T, \"CoFiXCtrl: oralce price outdated\"); // ctrl-v2: adjustable T\n        \n        {\n            // check if the price is steady\n            uint256 price;\n            bool isDeviated;\n            price = _op.erc20Amount.mul(1e18).div(_op.ethAmount);\n            uint256 diff = price > _op.avgPrice? (price - _op.avgPrice) : (_op.avgPrice - price);\n            isDeviated = (diff.mul(100) < _op.avgPrice.mul(PRICE_DEVIATION))? false : true;\n            require(isDeviated == false, \"CoFiXCtrl: price deviation\"); // validate\n        }\n\n        // calc K\n        // int128 K0; // K0AndK[0]\n        // int128 K; // K0AndK[1]\n        int128[2] memory K0AndK;\n\n        {\n            _op.tIdx = (_op.T.add(5)).div(10); // rounding to the nearest\n            _op.sigmaIdx = ABDKMath64x64.toUInt(\n                        ABDKMath64x64.add(\n                            ABDKMath64x64.div(int128(_op.sigma), SIGMA_STEP), // _sigma / 0.00005, e.g. (0.00098/0.00005)=9.799 => 9\n                            ZERO_POINT_FIVE // e.g. (0.00098/0.00005)+0.5=20.0999 => 20\n                        )\n                    );\n            if (_op.sigmaIdx > 0) {\n                _op.sigmaIdx = _op.sigmaIdx.sub(1);\n            }\n\n            // getK0(uint256 tIdx, uint256 sigmaIdx)\n            // K0 is K0AndK[0]\n            K0AndK[0] = ICoFiXKTable(kTable).getK0(\n                _op.tIdx, \n                _op.sigmaIdx\n            );\n\n            // K = gamma * K0\n            K0AndK[1] = ABDKMath64x64.mul(GAMMA, K0AndK[0]);\n\n            emit NewK(token, K0AndK[1], int128(_op.sigma), _op.T, _op.ethAmount, _op.erc20Amount, _op.blockNum, _op.tIdx, _op.sigmaIdx, K0AndK[0]);\n        }\n\n        require(K0AndK[0] <= MAX_K0, \"CoFiXCtrl: K0\");\n\n        {\n            // return oracle fee change\n            // we could decode data in the future to pay the fee change and mining award token directly to reduce call cost\n            // TransferHelper.safeTransferETH(payback, msg.value.sub(_balanceBefore.sub(address(this).balance)));\n            uint256 oracleFeeChange = msg.value.sub(_balanceBefore.sub(address(this).balance));\n            if (oracleFeeChange > 0) TransferHelper.safeTransferETH(msg.sender, oracleFeeChange);\n            _k = ABDKMath64x64.toUInt(ABDKMath64x64.mul(K0AndK[1], ABDKMath64x64.fromUInt(K_BASE)));\n\n            KInfoMap[token][0] = uint32(_k); // k < MAX_K << uint32(-1)\n            KInfoMap[token][1] = uint32(block.timestamp); // 2106\n            return (_k, _op.ethAmount, _op.erc20Amount, _op.blockNum);\n        }\n    }\n    \n   /**\n    * @notice Calc K value\n    * @param vola The square of the volatility (18 decimal places).\n    * @param bn The block number when (ETH, TOKEN) price takes into effective\n    * @return k The K value\n    */\n    function calcK(uint256 vola, uint256 bn) external view returns (uint32 k) {\n        // int128 K0; // K0AndK[0]\n        // int128 K; // K0AndK[1]\n        vola = sqrt(vola.mul(1e18));\n        int128[2] memory K0AndK;\n        uint256 _T = block.number.sub(bn).mul(timespan);\n\n        uint256 tIdx = (_T.add(5)).div(10); // rounding to the nearest\n        uint256 sigmaIdx = ABDKMath64x64.toUInt(\n                    ABDKMath64x64.add(\n                        ABDKMath64x64.div(int128(vola), SIGMA_STEP), // _sigma / 0.00005, e.g. (0.00098/0.00005)=9.799 => 9\n                        ZERO_POINT_FIVE // e.g. (0.00098/0.00005)+0.5=20.0999 => 20\n                    )\n                );\n        if (sigmaIdx > 0) {\n            sigmaIdx = sigmaIdx.sub(1);\n        }\n\n        // getK0(uint256 tIdx, uint256 sigmaIdx)\n        // K0 is K0AndK[0]\n        K0AndK[0] = ICoFiXKTable(kTable).getK0(\n            tIdx, \n            sigmaIdx\n        );\n\n        // K = gamma * K0\n        K0AndK[1] = ABDKMath64x64.mul(GAMMA, K0AndK[0]);\n\n        k = uint32(ABDKMath64x64.toUInt(ABDKMath64x64.mul(K0AndK[1], ABDKMath64x64.fromUInt(K_BASE))));\n    }\n\n    // ctrl-v2: remove unused code bellow according to PeckShield's advice\n}",
  "sourcePath": "/Users/lixiansheng/Downloads/CoFix/contracts/CoFiXController04.sol",
  "compiler": {
    "name": "solc",
    "version": "0.6.12+commit.27d51765.Emscripten.clang"
  },
  "schemaVersion": "3.4.1",
  "updatedAt": "2021-05-11T03:07:09.709Z",
  "devdoc": {
    "kind": "dev",
    "methods": {
      "calcK(uint256,uint256)": {
        "params": {
          "bn": "The block number when (ETH, TOKEN) price takes into effective",
          "vola": "The square of the volatility (18 decimal places)."
        },
        "returns": {
          "k": "The K value"
        }
      }
    },
    "version": 1
  },
  "userdoc": {
    "kind": "user",
    "methods": {
      "calcK(uint256,uint256)": {
        "notice": "Calc K value"
      }
    },
    "version": 1
  }
}