{
  "contractName": "CoFiXV2Controller",
  "abi": [
    {
      "inputs": [
        {
          "internalType": "address",
          "name": "_oracle",
          "type": "address"
        },
        {
          "internalType": "address",
          "name": "_nest",
          "type": "address"
        },
        {
          "internalType": "address",
          "name": "_factory",
          "type": "address"
        }
      ],
      "stateMutability": "nonpayable",
      "type": "constructor"
    },
    {
      "anonymous": false,
      "inputs": [
        {
          "indexed": false,
          "internalType": "address",
          "name": "token",
          "type": "address"
        },
        {
          "indexed": false,
          "internalType": "uint32",
          "name": "gamma",
          "type": "uint32"
        }
      ],
      "name": "NewCGamma",
      "type": "event"
    },
    {
      "anonymous": false,
      "inputs": [
        {
          "indexed": false,
          "internalType": "int128",
          "name": "_gamma",
          "type": "int128"
        }
      ],
      "name": "NewGamma",
      "type": "event"
    },
    {
      "anonymous": false,
      "inputs": [
        {
          "indexed": false,
          "internalType": "address",
          "name": "_new",
          "type": "address"
        }
      ],
      "name": "NewGovernance",
      "type": "event"
    },
    {
      "anonymous": false,
      "inputs": [
        {
          "indexed": false,
          "internalType": "address",
          "name": "token",
          "type": "address"
        },
        {
          "indexed": false,
          "internalType": "uint256",
          "name": "K",
          "type": "uint256"
        },
        {
          "indexed": false,
          "internalType": "uint256",
          "name": "sigma",
          "type": "uint256"
        },
        {
          "indexed": false,
          "internalType": "uint256",
          "name": "T",
          "type": "uint256"
        },
        {
          "indexed": false,
          "internalType": "uint256",
          "name": "ethAmount",
          "type": "uint256"
        },
        {
          "indexed": false,
          "internalType": "uint256",
          "name": "erc20Amount",
          "type": "uint256"
        },
        {
          "indexed": false,
          "internalType": "uint256",
          "name": "blockNum",
          "type": "uint256"
        }
      ],
      "name": "NewK",
      "type": "event"
    },
    {
      "anonymous": false,
      "inputs": [
        {
          "indexed": false,
          "internalType": "address",
          "name": "token",
          "type": "address"
        },
        {
          "indexed": false,
          "internalType": "uint32",
          "name": "k",
          "type": "uint32"
        }
      ],
      "name": "NewK",
      "type": "event"
    },
    {
      "anonymous": false,
      "inputs": [
        {
          "indexed": false,
          "internalType": "int128",
          "name": "maxK0",
          "type": "int128"
        }
      ],
      "name": "NewKLimit",
      "type": "event"
    },
    {
      "anonymous": false,
      "inputs": [
        {
          "indexed": false,
          "internalType": "uint256",
          "name": "_interval",
          "type": "uint256"
        }
      ],
      "name": "NewKRefreshInterval",
      "type": "event"
    },
    {
      "anonymous": false,
      "inputs": [
        {
          "indexed": false,
          "internalType": "address",
          "name": "_kTable",
          "type": "address"
        }
      ],
      "name": "NewKTable",
      "type": "event"
    },
    {
      "anonymous": false,
      "inputs": [
        {
          "indexed": false,
          "internalType": "address",
          "name": "_priceOracle",
          "type": "address"
        }
      ],
      "name": "NewOracle",
      "type": "event"
    },
    {
      "anonymous": false,
      "inputs": [
        {
          "indexed": false,
          "internalType": "address",
          "name": "token",
          "type": "address"
        },
        {
          "indexed": false,
          "internalType": "uint32",
          "name": "theta",
          "type": "uint32"
        }
      ],
      "name": "NewTheta",
      "type": "event"
    },
    {
      "anonymous": false,
      "inputs": [
        {
          "indexed": false,
          "internalType": "uint256",
          "name": "_timeSpan",
          "type": "uint256"
        }
      ],
      "name": "NewTimespan",
      "type": "event"
    },
    {
      "inputs": [
        {
          "internalType": "address",
          "name": "",
          "type": "address"
        }
      ],
      "name": "CGammaMap",
      "outputs": [
        {
          "internalType": "uint32",
          "name": "",
          "type": "uint32"
        }
      ],
      "stateMutability": "view",
      "type": "function",
      "constant": true
    },
    {
      "inputs": [],
      "name": "K_GAMMA_BASE",
      "outputs": [
        {
          "internalType": "uint256",
          "name": "",
          "type": "uint256"
        }
      ],
      "stateMutability": "view",
      "type": "function",
      "constant": true
    },
    {
      "inputs": [],
      "name": "NAVPS_BASE",
      "outputs": [
        {
          "internalType": "uint256",
          "name": "",
          "type": "uint256"
        }
      ],
      "stateMutability": "view",
      "type": "function",
      "constant": true
    },
    {
      "inputs": [
        {
          "internalType": "address",
          "name": "",
          "type": "address"
        }
      ],
      "name": "callerAllowed",
      "outputs": [
        {
          "internalType": "bool",
          "name": "",
          "type": "bool"
        }
      ],
      "stateMutability": "view",
      "type": "function",
      "constant": true
    },
    {
      "inputs": [],
      "name": "factory",
      "outputs": [
        {
          "internalType": "address",
          "name": "",
          "type": "address"
        }
      ],
      "stateMutability": "view",
      "type": "function",
      "constant": true
    },
    {
      "inputs": [],
      "name": "governance",
      "outputs": [
        {
          "internalType": "address",
          "name": "",
          "type": "address"
        }
      ],
      "stateMutability": "view",
      "type": "function",
      "constant": true
    },
    {
      "inputs": [],
      "name": "nestToken",
      "outputs": [
        {
          "internalType": "address",
          "name": "",
          "type": "address"
        }
      ],
      "stateMutability": "view",
      "type": "function",
      "constant": true
    },
    {
      "inputs": [],
      "name": "oracle",
      "outputs": [
        {
          "internalType": "address",
          "name": "",
          "type": "address"
        }
      ],
      "stateMutability": "view",
      "type": "function",
      "constant": true
    },
    {
      "inputs": [],
      "name": "timespan",
      "outputs": [
        {
          "internalType": "uint256",
          "name": "",
          "type": "uint256"
        }
      ],
      "stateMutability": "view",
      "type": "function",
      "constant": true
    },
    {
      "stateMutability": "payable",
      "type": "receive",
      "payable": true
    },
    {
      "inputs": [
        {
          "internalType": "address",
          "name": "_new",
          "type": "address"
        }
      ],
      "name": "setGovernance",
      "outputs": [],
      "stateMutability": "nonpayable",
      "type": "function"
    },
    {
      "inputs": [
        {
          "internalType": "uint256",
          "name": "_timeSpan",
          "type": "uint256"
        }
      ],
      "name": "setTimespan",
      "outputs": [],
      "stateMutability": "nonpayable",
      "type": "function"
    },
    {
      "inputs": [
        {
          "internalType": "uint256",
          "name": "_T",
          "type": "uint256"
        }
      ],
      "name": "setTLimit",
      "outputs": [],
      "stateMutability": "nonpayable",
      "type": "function"
    },
    {
      "inputs": [
        {
          "internalType": "address",
          "name": "token",
          "type": "address"
        },
        {
          "internalType": "uint32",
          "name": "k",
          "type": "uint32"
        }
      ],
      "name": "setK",
      "outputs": [],
      "stateMutability": "nonpayable",
      "type": "function"
    },
    {
      "inputs": [
        {
          "internalType": "address",
          "name": "token",
          "type": "address"
        },
        {
          "internalType": "uint32",
          "name": "theta",
          "type": "uint32"
        }
      ],
      "name": "setTheta",
      "outputs": [],
      "stateMutability": "nonpayable",
      "type": "function"
    },
    {
      "inputs": [
        {
          "internalType": "address",
          "name": "caller",
          "type": "address"
        }
      ],
      "name": "addCaller",
      "outputs": [],
      "stateMutability": "nonpayable",
      "type": "function"
    },
    {
      "inputs": [
        {
          "internalType": "address",
          "name": "token",
          "type": "address"
        },
        {
          "internalType": "uint32",
          "name": "gamma",
          "type": "uint32"
        }
      ],
      "name": "setCGamma",
      "outputs": [],
      "stateMutability": "nonpayable",
      "type": "function"
    },
    {
      "inputs": [
        {
          "internalType": "address",
          "name": "token",
          "type": "address"
        },
        {
          "internalType": "uint8",
          "name": "op",
          "type": "uint8"
        },
        {
          "internalType": "bytes",
          "name": "data",
          "type": "bytes"
        }
      ],
      "name": "queryOracle",
      "outputs": [
        {
          "internalType": "uint256",
          "name": "_k",
          "type": "uint256"
        },
        {
          "internalType": "uint256",
          "name": "_ethAmount",
          "type": "uint256"
        },
        {
          "internalType": "uint256",
          "name": "_erc20Amount",
          "type": "uint256"
        },
        {
          "internalType": "uint256",
          "name": "_blockNum",
          "type": "uint256"
        },
        {
          "internalType": "uint256",
          "name": "_theta",
          "type": "uint256"
        }
      ],
      "stateMutability": "payable",
      "type": "function",
      "payable": true
    },
    {
      "inputs": [
        {
          "internalType": "address",
          "name": "token",
          "type": "address"
        },
        {
          "internalType": "bytes",
          "name": "data",
          "type": "bytes"
        },
        {
          "internalType": "uint256",
          "name": "ethAmount",
          "type": "uint256"
        },
        {
          "internalType": "uint256",
          "name": "erc20Amount",
          "type": "uint256"
        }
      ],
      "name": "calcImpactCostFor_BURN",
      "outputs": [
        {
          "internalType": "uint256",
          "name": "impactCost",
          "type": "uint256"
        }
      ],
      "stateMutability": "view",
      "type": "function",
      "constant": true
    },
    {
      "inputs": [
        {
          "internalType": "address",
          "name": "token",
          "type": "address"
        },
        {
          "internalType": "bytes",
          "name": "data",
          "type": "bytes"
        },
        {
          "internalType": "uint256",
          "name": "ethAmount",
          "type": "uint256"
        },
        {
          "internalType": "uint256",
          "name": "erc20Amount",
          "type": "uint256"
        }
      ],
      "name": "calcImpactCostFor_SWAP_WITH_EXACT",
      "outputs": [
        {
          "internalType": "uint256",
          "name": "impactCost",
          "type": "uint256"
        }
      ],
      "stateMutability": "view",
      "type": "function",
      "constant": true
    },
    {
      "inputs": [
        {
          "internalType": "address",
          "name": "token",
          "type": "address"
        },
        {
          "internalType": "bytes",
          "name": "data",
          "type": "bytes"
        },
        {
          "internalType": "uint256",
          "name": "ethAmount",
          "type": "uint256"
        },
        {
          "internalType": "uint256",
          "name": "erc20Amount",
          "type": "uint256"
        }
      ],
      "name": "calcImpactCostFor_SWAP_FOR_EXACT",
      "outputs": [
        {
          "internalType": "uint256",
          "name": "impactCost",
          "type": "uint256"
        }
      ],
      "stateMutability": "view",
      "type": "function",
      "constant": true
    },
    {
      "inputs": [
        {
          "internalType": "address",
          "name": "token",
          "type": "address"
        },
        {
          "internalType": "uint256",
          "name": "vol",
          "type": "uint256"
        }
      ],
      "name": "impactCostForBuyInETH",
      "outputs": [
        {
          "internalType": "uint256",
          "name": "impactCost",
          "type": "uint256"
        }
      ],
      "stateMutability": "view",
      "type": "function",
      "constant": true
    },
    {
      "inputs": [
        {
          "internalType": "address",
          "name": "token",
          "type": "address"
        },
        {
          "internalType": "uint256",
          "name": "vol",
          "type": "uint256"
        }
      ],
      "name": "impactCostForSellOutETH",
      "outputs": [
        {
          "internalType": "uint256",
          "name": "impactCost",
          "type": "uint256"
        }
      ],
      "stateMutability": "view",
      "type": "function",
      "constant": true
    },
    {
      "inputs": [
        {
          "internalType": "address",
          "name": "token",
          "type": "address"
        }
      ],
      "name": "getKInfo",
      "outputs": [
        {
          "internalType": "uint32",
          "name": "k",
          "type": "uint32"
        },
        {
          "internalType": "uint32",
          "name": "updatedAt",
          "type": "uint32"
        },
        {
          "internalType": "uint32",
          "name": "theta",
          "type": "uint32"
        }
      ],
      "stateMutability": "view",
      "type": "function",
      "constant": true
    },
    {
      "inputs": [
        {
          "internalType": "uint256",
          "name": "vola",
          "type": "uint256"
        },
        {
          "internalType": "uint256",
          "name": "bn",
          "type": "uint256"
        }
      ],
      "name": "calcK",
      "outputs": [
        {
          "internalType": "uint32",
          "name": "k",
          "type": "uint32"
        }
      ],
      "stateMutability": "view",
      "type": "function",
      "constant": true
    },
    {
      "inputs": [
        {
          "internalType": "uint256",
          "name": "vola",
          "type": "uint256"
        }
      ],
      "name": "calcGamma",
      "outputs": [
        {
          "internalType": "uint256",
          "name": "gamma",
          "type": "uint256"
        }
      ],
      "stateMutability": "pure",
      "type": "function",
      "constant": true
    },
    {
      "inputs": [
        {
          "internalType": "address",
          "name": "token",
          "type": "address"
        }
      ],
      "name": "getLatestPriceAndAvgVola",
      "outputs": [
        {
          "internalType": "uint256",
          "name": "",
          "type": "uint256"
        },
        {
          "internalType": "uint256",
          "name": "",
          "type": "uint256"
        },
        {
          "internalType": "uint256",
          "name": "",
          "type": "uint256"
        },
        {
          "internalType": "uint256",
          "name": "",
          "type": "uint256"
        }
      ],
      "stateMutability": "payable",
      "type": "function",
      "payable": true
    }
  ],
  "bytecode": "0x60e06040526103846000556207a120600155600e6006553480156200002357600080fd5b506040516200217f3803806200217f833981810160405260608110156200004957600080fd5b508051602080830151604093840151600580546001600160a01b031916331790556001600160601b0319606085811b821660805283811b821660a05282901b1660c052845163574f2ba360e01b8152945193949193909283926000926001600160a01b0385169263574f2ba39260048082019391829003018186803b158015620000d257600080fd5b505afa158015620000e7573d6000803e3d6000fd5b505050506040513d6020811015620000fe57600080fd5b5051905060005b81811015620001b4576000836001600160a01b0316631e3dd18b836040518263ffffffff1660e01b81526004018082815260200191505060206040518083038186803b1580156200015557600080fd5b505afa1580156200016a573d6000803e3d6000fd5b505050506040513d60208110156200018157600080fd5b50516001600160a01b03166000908152600460205260409020805460ff1916600190811790915591909101905062000105565b50505050505060805160601c60a05160601c60c05160601c611f80620001ff60003980610dbb528061157b525080610ad9525080610e8652806113d352806119655250611f806000f3fe6080604052600436106101a55760003560e01c80638dba9329116100e1578063c13b476c1161008a578063cdfadb3411610064578063cdfadb34146107e6578063cf0c2829146108ae578063ef830523146108ed578063f6542cc61461091d576101ac565b8063c13b476c1461072f578063c45a015514610776578063c7d5308f1461078b576101ac565b8063ab033ea9116100bb578063ab033ea91461069b578063b859b415146106ce578063be1900321461071a576101ac565b80638dba9329146104c05780638e85056d146105a9578063a2ae0a7514610671576101ac565b806356a469931161014e578063733ed80611610128578063733ed80614610424578063747293fb1461044e5780637dc0d1d014610481578063823d309e14610496576101ac565b806356a46993146103975780635aa6e675146103d057806363f0c3d9146103e5576101ac565b806337fc2beb1161017f57806337fc2beb146102895780634f6ec2dd146102ba578063551359de146102cf576101ac565b80631f38fe47146101b15780632808bf26146101fc5780632aa52a341461023d576101ac565b366101ac57005b600080fd5b3480156101bd57600080fd5b506101ea600480360360408110156101d457600080fd5b506001600160a01b038135169060200135610932565b60408051918252519081900360200190f35b34801561020857600080fd5b5061023b6004803603604081101561021f57600080fd5b5080356001600160a01b0316906020013563ffffffff166109da565b005b34801561024957600080fd5b506102706004803603602081101561026057600080fd5b50356001600160a01b0316610abf565b6040805163ffffffff9092168252519081900360200190f35b34801561029557600080fd5b5061029e610ad7565b604080516001600160a01b039092168252519081900360200190f35b3480156102c657600080fd5b506101ea610afb565b3480156102db57600080fd5b506101ea600480360360808110156102f257600080fd5b6001600160a01b03823516919081019060408101602082013564010000000081111561031d57600080fd5b82018360208201111561032f57600080fd5b8035906020019184600183028401116401000000008311171561035157600080fd5b91908080601f0160208091040260200160405190810160405280939291908181526020018383808284376000920191909152509295505082359350505060200135610b07565b3480156103a357600080fd5b506101ea600480360360408110156103ba57600080fd5b506001600160a01b038135169060200135610b82565b3480156103dc57600080fd5b5061029e610c14565b3480156103f157600080fd5b5061023b6004803603604081101561040857600080fd5b5080356001600160a01b0316906020013563ffffffff16610c23565b34801561043057600080fd5b5061023b6004803603602081101561044757600080fd5b5035610d16565b34801561045a57600080fd5b5061023b6004803603602081101561047157600080fd5b50356001600160a01b0316610db0565b34801561048d57600080fd5b5061029e610e84565b3480156104a257600080fd5b5061023b600480360360208110156104b957600080fd5b5035610ea8565b61057e600480360360608110156104d657600080fd5b6001600160a01b038235169160ff6020820135169181019060608101604082013564010000000081111561050957600080fd5b82018360208201111561051b57600080fd5b8035906020019184600183028401116401000000008311171561053d57600080fd5b91908080601f016020809104026020016040519081016040528093929190818152602001838380828437600092019190915250929550610f0c945050505050565b6040805195865260208601949094528484019290925260608401526080830152519081900360a00190f35b3480156105b557600080fd5b506101ea600480360360808110156105cc57600080fd5b6001600160a01b0382351691908101906040810160208201356401000000008111156105f757600080fd5b82018360208201111561060957600080fd5b8035906020019184600183028401116401000000008311171561062b57600080fd5b91908080601f0160208091040260200160405190810160405280939291908181526020018383808284376000920191909152509295505082359350505060200135611094565b34801561067d57600080fd5b506101ea6004803603602081101561069457600080fd5b5035611259565b3480156106a757600080fd5b5061023b600480360360208110156106be57600080fd5b50356001600160a01b0316611291565b6106f4600480360360208110156106e457600080fd5b50356001600160a01b031661135c565b604080519485526020850193909352838301919091526060830152519081900360800190f35b34801561072657600080fd5b506101ea61155e565b34801561073b57600080fd5b506107626004803603602081101561075257600080fd5b50356001600160a01b0316611564565b604080519115158252519081900360200190f35b34801561078257600080fd5b5061029e611579565b34801561079757600080fd5b506107be600480360360208110156107ae57600080fd5b50356001600160a01b031661159d565b6040805163ffffffff9485168152928416602084015292168183015290519081900360600190f35b3480156107f257600080fd5b506101ea6004803603608081101561080957600080fd5b6001600160a01b03823516919081019060408101602082013564010000000081111561083457600080fd5b82018360208201111561084657600080fd5b8035906020019184600183028401116401000000008311171561086857600080fd5b91908080601f0160208091040260200160405190810160405280939291908181526020018383808284376000920191909152509295505082359350505060200135611614565b3480156108ba57600080fd5b5061023b600480360360408110156108d157600080fd5b5080356001600160a01b0316906020013563ffffffff1661168d565b3480156108f957600080fd5b506102706004803603604081101561091057600080fd5b5080359060200135611740565b34801561092957600080fd5b506101ea6117d2565b6001600160a01b03821660009081526002602052604081205463ffffffff90811690681b1ae4d6e2ef5000009061096d90859084906117d716565b101561097d5760009150506109d4565b6109d08163ffffffff166109ca6402540be4006109be656a8077e738006109c4670de0b6b3a76400006109be8b64c3407482006117d790919063ffffffff16565b90611837565b9061189e565b906117d7565b9150505b92915050565b6005546001600160a01b03163314610a39576040805162461bcd60e51b815260206004820152601660248201527f436f4669584374726c3a2021676f7665726e616e636500000000000000000000604482015290519081900360640190fd5b6001600160a01b03821660008181526002602090815260409182902080547fffffffffffffffffffffffffffffffffffffffffffffffffffffffff000000001663ffffffff861690811790915582519384529083015280517fcfcd7df32663a457673411b8f48ecb1dfd2fb7deeb48e18c55fcf8eec05192b29281900390910190a15050565b60026020526000908152604090205463ffffffff1681565b7f000000000000000000000000000000000000000000000000000000000000000081565b670de0b6b3a764000081565b6000806000858060200190516080811015610b2157600080fd5b50602081015160609091015190925090506001600160a01b0380831690881614610b6b576000610b55856109be84896117d7565b9050610b618882610b82565b9350505050610b7a565b610b758782610932565b925050505b949350505050565b6001600160a01b03821660009081526002602052604081205463ffffffff90811690681b1ae4d6e2ef50000090610bbd90859084906117d716565b1015610bcd5760009150506109d4565b6109d08163ffffffff166109ca6402540be4006109be610c07670de0b6b3a76400006109be8a64c6e2499e006117d790919063ffffffff16565b65175fbf5ee800906118fb565b6005546001600160a01b031681565b6005546001600160a01b03163314610c82576040805162461bcd60e51b815260206004820152601660248201527f436f4669584374726c3a2021676f7665726e616e636500000000000000000000604482015290519081900360640190fd5b6001600160a01b03821660008181526003602090815260409182902080547fffffffffffffffffffffffffffffffffffffffff00000000ffffffffffffffff166801000000000000000063ffffffff87169081029190911790915582519384529083015280517fdf754dcc54212b1583a43e52dc93c9a33b0a5310fe26ccefbb832a384577e72d9281900390910190a15050565b6005546001600160a01b03163314610d75576040805162461bcd60e51b815260206004820152601660248201527f436f4669584374726c3a2021676f7665726e616e636500000000000000000000604482015290519081900360640190fd5b60068190556040805182815290517f9fe8f70a914cfc48197ae6ab66b8c3b2e611c7fa27ef9af879ad1fd494fd7b5b9181900360200190a150565b336001600160a01b037f0000000000000000000000000000000000000000000000000000000000000000161480610df157506005546001600160a01b031633145b610e42576040805162461bcd60e51b815260206004820152601e60248201527f436f4669584374726c3a206f6e6c7920666163746f7279206f7220676f760000604482015290519081900360640190fd5b6001600160a01b0316600090815260046020526040902080547fffffffffffffffffffffffffffffffffffffffffffffffffffffffffffffff00166001179055565b7f000000000000000000000000000000000000000000000000000000000000000081565b6005546001600160a01b03163314610f07576040805162461bcd60e51b815260206004820152601660248201527f436f4669584374726c3a2021676f7665726e616e636500000000000000000000604482015290519081900360640190fd5b600055565b33600090815260046020526040812054819081908190819060ff16610f78576040805162461bcd60e51b815260206004820152601d60248201527f436f4669584374726c3a2063616c6c6572206e6f7420616c6c6f776564000000604482015290519081900360640190fd5b610f8188611955565b92975090955093509150600060ff88166004811115610f9c57fe5b905060006003826004811115610fae57fe5b1415610fc757610fc08a898888610b07565b905061104b565b6004826004811115610fd557fe5b1415611028576040805162461bcd60e51b815260206004820152601e60248201527f64697361626c6564206578706572696d656e74616c2066656174757265210000604482015290519081900360640190fd5b600282600481111561103657fe5b141561104b576110488a898888611094565b90505b61105587826118fb565b6001600160a01b039a909a16600090815260036020526040902054999a959994985092965050506801000000000000000090910463ffffffff16925050565b6000808480602001905160408110156110ac57600080fd5b5060200151604080517fa1da4d2400000000000000000000000000000000000000000000000000000000815281519293506000928392339263a1da4d249260048083019392829003018186803b15801561110557600080fd5b505afa158015611119573d6000803e3d6000fd5b505050506040513d604081101561112f57600080fd5b508051602091820151604080517f24334be8000000000000000000000000000000000000000000000000000000008152600481018b9052602481018a9052905192955090935060009233926324334be8926044808201939291829003018186803b15801561119c57600080fd5b505afa1580156111b0573d6000803e3d6000fd5b505050506040513d60208110156111c657600080fd5b5051905060006111e2670de0b6b3a76400006109be87856117d7565b905060006111f0848a6117d7565b905060006111fe89876117d7565b9050600061121e670de0b6b3a76400006109be8481876109ca8e8c6117d7565b9050600061122c8e86610b82565b9050600061123a8f84610932565b905061124682826118fb565b9f9e505050505050505050505050505050565b6000660110d9316ec00082116112715750600a61128c565b6601c6bf526340008211156112885750601461128c565b50600f5b919050565b6005546001600160a01b031633146112f0576040805162461bcd60e51b815260206004820152601660248201527f436f4669584374726c3a2021676f7665726e616e636500000000000000000000604482015290519081900360640190fd5b600580546001600160a01b0383167fffffffffffffffffffffffff0000000000000000000000000000000000000000909116811790915560408051918252517f4f386975ea1c2f7cf1845b08bee00626fbb624ecad16254d63d9bb9ba86526de9181900360200190a150565b3360009081526004602052604081205481908190819060ff166113c6576040805162461bcd60e51b815260206004820152601d60248201527f436f4669584374726c3a2063616c6c6572206e6f7420616c6c6f776564000000604482015290519081900360640190fd5b60004790506000806000807f00000000000000000000000000000000000000000000000000000000000000006001600160a01b031663fe0103e2348c306040518463ffffffff1660e01b815260040180836001600160a01b03168152602001826001600160a01b031681526020019250505060c0604051808303818588803b15801561145157600080fd5b505af1158015611465573d6000803e3d6000fd5b50505050506040513d60c081101561147c57600080fd5b5080516020820151608083015160a0909301519196509450909250905060006114a482611d4c565b905060006114c16006546109ca884361189e90919063ffffffff16565b90506000548110611519576040805162461bcd60e51b815260206004820181905260248201527f436f4669584374726c3a206f72616c6365207072696365206f75746461746564604482015290519081900360640190fd5b600061152f611528894761189e565b349061189e565b90508015611541576115413382611d9d565b50670de0b6b3a76400009c949b5092995097509195505050505050565b60065481565b60046020526000908152604090205460ff1681565b7f000000000000000000000000000000000000000000000000000000000000000081565b6001600160a01b0381166000908152600360205260408120548190819063ffffffff1680156115ce578093506115d4565b60015493505b5050506001600160a01b0391909116600090815260036020526040902054909163ffffffff64010000000083048116926801000000000000000090041690565b600080600085806020019051608081101561162e57600080fd5b50602081015160409091015190925090506001600160a01b03808316908816146116655761165c8782610b82565b92505050610b7a565b6000611675856109be84896117d7565b90506116818882610932565b98975050505050505050565b6005546001600160a01b031633146116ec576040805162461bcd60e51b815260206004820152601660248201527f436f4669584374726c3a2021676f7665726e616e636500000000000000000000604482015290519081900360640190fd5b63ffffffff81166001819055604080516001600160a01b0385168152602081019290925280517f6b5a7bf27649aa058ceb45c028708f76f2b12277f096a828fd1db5b711e4188e9281900390910190a15050565b60008061175c6006546109ca854361189e90919063ffffffff16565b905061177861177385670de0b6b3a76400006117d7565b611d4c565b9350600061178585611259565b90506117c9670de0b6b3a76400006109be600a81856109ca6117ab633cd398208d6117d7565b6117c3670de0b6b3a76400006109ca610a288d6117d7565b906118fb565b95945050505050565b600a81565b6000826117e6575060006109d4565b828202828482816117f357fe5b04146118305760405162461bcd60e51b8152600401808060200182810382526021815260200180611f076021913960400191505060405180910390fd5b9392505050565b600080821161188d576040805162461bcd60e51b815260206004820152601a60248201527f536166654d6174683a206469766973696f6e206279207a65726f000000000000604482015290519081900360640190fd5b81838161189657fe5b049392505050565b6000828211156118f5576040805162461bcd60e51b815260206004820152601e60248201527f536166654d6174683a207375627472616374696f6e206f766572666c6f770000604482015290519081900360640190fd5b50900390565b600082820183811015611830576040805162461bcd60e51b815260206004820152601b60248201527f536166654d6174683a206164646974696f6e206f766572666c6f770000000000604482015290519081900360640190fd5b600080808047611963611eb3565b7f00000000000000000000000000000000000000000000000000000000000000006001600160a01b031663fe0103e23489306040518463ffffffff1660e01b815260040180836001600160a01b03168152602001826001600160a01b031681526020019250505060c0604051808303818588803b1580156119e357600080fd5b505af11580156119f7573d6000803e3d6000fd5b50505050506040513d60c0811015611a0e57600080fd5b508051602080830151608084015160a09485015160e0870181905294860152908401526040830152611a4c9061177390670de0b6b3a76400006117d7565b60e0820152670de0b6b3a764000081526006546040820151611a7491906109ca90439061189e565b6080820181905260005411611ad0576040805162461bcd60e51b815260206004820181905260248201527f436f4669584374726c3a206f72616c6365207072696365206f75746461746564604482015290519081900360640190fd5b600080611afa83600001516109be670de0b6b3a764000086602001516117d790919063ffffffff16565b915060008360a001518311611b1557828460a0015103611b1d565b8360a0015183035b60a0850151909150611b3090600a6117d7565b611b3b8260646117d7565b10611b47576001611b4a565b60005b91508115611b9f576040805162461bcd60e51b815260206004820152601a60248201527f436f4669584374726c3a20707269636520646576696174696f6e000000000000604482015290519081900360640190fd5b5050506000611bb18260e00151611259565b9050611c0b670de0b6b3a76400006109be600a6109be856109ca611be68960e00151633cd398206117d790919063ffffffff16565b6117c3670de0b6b3a76400006109ca8c60800151610a286117d790919063ffffffff16565b96507f7a4b1fc516d265dc2cf88fac963054d333f444a57de6a0f202c75252b4ccc84688888460e00151856080015186600001518760200151886040015160405180886001600160a01b0316815260200187815260200186815260200185815260200184815260200183815260200182815260200197505050505050505060405180910390a1506000611ca1611528844761189e565b90508015611cb357611cb33382611d9d565b506001600160a01b039690961660009081526003602090815260409182902080544263ffffffff908116640100000000027fffffffffffffffffffffffffffffffffffffffffffffffff00000000ffffffff918b167fffffffffffffffffffffffffffffffffffffffffffffffffffffffff00000000909316929092171617905587519088015197909101519597909695945092505050565b60006003821115611d8f575080600160028204015b81811015611d8957809150600281828581611d7857fe5b040181611d8157fe5b049050611d61565b5061128c565b811561128c57506001919050565b604080516000808252602082019092526001600160a01b0384169083906040518082805190602001908083835b60208310611e0757805182527fffffffffffffffffffffffffffffffffffffffffffffffffffffffffffffffe09092019160209182019101611dca565b6001836020036101000a03801982511681845116808217855250505050505090500191505060006040518083038185875af1925050503d8060008114611e69576040519150601f19603f3d011682016040523d82523d6000602084013e611e6e565b606091505b5050905080611eae5760405162461bcd60e51b8152600401808060200182810382526023815260200180611f286023913960400191505060405180910390fd5b505050565b60405180610140016040528060008152602001600081526020016000815260200160008152602001600081526020016000815260200160008152602001600081526020016000815260200160008152509056fe536166654d6174683a206d756c7469706c69636174696f6e206f766572666c6f775472616e7366657248656c7065723a204554485f5452414e534645525f4641494c4544a2646970667358221220ae64914ce484a976008073f262c7cf6182e75fb7c1b642149be739b07b3aa10564736f6c634300060c0033",
  "immutableReferences": {
    "1292": [
      {
        "length": 32,
        "start": 3718
      },
      {
        "length": 32,
        "start": 5075
      },
      {
        "length": 32,
        "start": 6501
      }
    ],
    "1294": [
      {
        "length": 32,
        "start": 2777
      }
    ],
    "1296": [
      {
        "length": 32,
        "start": 3515
      },
      {
        "length": 32,
        "start": 5499
      }
    ]
  },
  "source": "// SPDX-License-Identifier: GPL-3.0-or-later\npragma solidity 0.6.12;\n\nimport \"@openzeppelin/contracts/math/SafeMath.sol\";\nimport \"./lib/ABDKMath64x64.sol\";\nimport \"./lib/TransferHelper.sol\";\nimport \"./interface/ICoFiXV2Controller.sol\";\nimport \"./interface/INestPriceFacade.sol\";\nimport \"./interface/ICoFiXV2Pair.sol\";\nimport \"./interface/ICoFiXV2Factory.sol\";\n\n// Controller contract to call NEST Oracle for prices, managed by governance\n// Governance role of this contract should be the `Timelock` contract, which is further managed by a multisig contract\ncontract CoFiXV2Controller is ICoFiXV2Controller {  // ctrl-03: change contract name to avoid truffle complaint\n\n    using SafeMath for uint256;\n\n    enum CoFiX_OP { QUERY, MINT, BURN, SWAP_WITH_EXACT, SWAP_FOR_EXACT } // operations in CoFiX\n\n    // uint256 constant public AONE = 1 ether;\n    // uint256 constant public K_BASE = 1E8;\n    uint256 constant public K_GAMMA_BASE = 10;\n    uint256 constant public NAVPS_BASE = 1E18; // NAVPS (Net Asset Value Per Share), need accuracy\n    uint256 constant internal K_ALPHA = 2600; // =2.6e-05*1e8\n    uint256 constant internal K_BETA = 1020500000; // =10.205*1e8\n    uint256 internal T = 900; // ctrl-v2: V1 (900) -> V2 (600)\n    uint256 internal K_EXPECTED_VALUE = 0.005*1E8; // ctrl-v2: V1 (0.0025) -> V2 (0.005)\n    // impact cost params\n    uint256 constant internal C_BUYIN_ALPHA = 25700000000000; // =2.570e-05*1e18\n    uint256 constant internal C_BUYIN_BETA = 854200000000; // =8.542e-07*1e18\n    uint256 constant internal C_SELLOUT_ALPHA = 117100000000000; // =-1.171e-04*1e18\n    uint256 constant internal C_SELLOUT_BETA = 838600000000; // =8.386e-07*1e18\n    mapping(address => uint32) public CGammaMap;\n\n    // int128 constant internal SIGMA_STEP = 0x346DC5D638865; // (0.00005*2**64).toString(16), 0.00005 as 64.64-bit fixed point\n    // int128 constant internal ZERO_POINT_FIVE = 0x8000000000000000; // (0.5*2**64).toString(16)\n    uint256 constant PRICE_DEVIATION = 10;  // price deviation < 10%\n\n    mapping(address => uint32[3]) internal KInfoMap; // gas saving, index [0] is k vlaue, index [1] is updatedAt, index [2] is theta\n    mapping(address => bool) public callerAllowed;\n\n    // managed by governance\n    address public governance;\n    address public immutable oracle;\n    address public immutable nestToken;\n    address public immutable factory;\n    uint256 public timespan = 14;\n    // uint256 public kRefreshInterval = 5 minutes;\n    // uint256 public DESTRUCTION_AMOUNT = 0 ether; // from nest oracle\n    // int128 public MAX_K0 = 0xCCCCCCCCCCCCD00; // (0.05*2**64).toString(16)\n    // int128 public GAMMA = 0x8000000000000000; // (0.5*2**64).toString(16)\n\n    struct OracleParams {\n        uint256 ethAmount;\n        uint256 erc20Amount;\n        uint256 blockNum;\n        uint256 K;\n        uint256 T; // time offset\n        uint256 avgPrice; // average price\n        uint256 theta;\n        uint256 sigma;\n        uint256 tIdx;\n        uint256 sigmaIdx;\n    }\n\n    modifier onlyGovernance() {\n        require(msg.sender == governance, \"CoFiXCtrl: !governance\");\n        _;\n    }\n\n    constructor(address _oracle, address _nest, address _factory) public {\n        governance = msg.sender;\n        oracle = _oracle;\n        nestToken = _nest;\n        factory = _factory;\n\n        // add previous pair as caller\n        ICoFiXV2Factory cFactory = ICoFiXV2Factory(_factory);\n        uint256 pairCnt = cFactory.allPairsLength();\n        for (uint256 i = 0; i < pairCnt; i++) {\n            address pair = cFactory.allPairs(i);\n            callerAllowed[pair] = true;\n        }\n    }\n\n    receive() external payable {}\n\n    /* setters for protocol governance */\n    function setGovernance(address _new) external onlyGovernance {\n        governance = _new;\n        emit NewGovernance(_new);\n    }  \n\n    function setTimespan(uint256 _timeSpan) external onlyGovernance {\n        timespan = _timeSpan;\n        emit NewTimespan(_timeSpan);\n    }\n\n    // function setKRefreshInterval(uint256 _interval) external onlyGovernance {\n    //     kRefreshInterval = _interval;\n    //     emit NewKRefreshInterval(_interval);\n    // }\n\n    // function setOracleDestructionAmount(uint256 _amount) external onlyGovernance {\n    //     DESTRUCTION_AMOUNT = _amount;\n    // }\n\n    function setTLimit(uint256 _T) external onlyGovernance { // ctrl-v2: new setter for T\n        T = _T;\n    }\n\n    function setK(address token, uint32 k) external onlyGovernance { // ctrl-v2: new setter for K, adjustable by governance\n        K_EXPECTED_VALUE = uint256(k);\n        emit NewK(token, k); // new event for setting K\n    }\n\n    function setTheta(address token, uint32 theta) external onlyGovernance {\n        KInfoMap[token][2] = theta;\n        emit NewTheta(token, theta);\n    }\n\n    function addCaller(address caller) external override {\n        require(msg.sender == factory || msg.sender == governance, \"CoFiXCtrl: only factory or gov\");\n        callerAllowed[caller] = true;\n    }\n\n    function setCGamma(address token, uint32 gamma) external override onlyGovernance {\n        CGammaMap[token] = gamma;\n        emit NewCGamma(token, gamma);\n    }\n\n    // Calc variance of price and K in CoFiX is very expensive\n    // We use expected value of K based on statistical calculations here to save gas\n    // In the near future, NEST could provide the variance of price directly. We will adopt it then.\n    // We can make use of `data` bytes in the future\n    function queryOracle(address token, uint8 op, bytes memory data) external override payable returns (uint256 _k, uint256 _ethAmount, uint256 _erc20Amount, uint256 _blockNum, uint256 _theta) {\n        require(callerAllowed[msg.sender], \"CoFiXCtrl: caller not allowed\");\n        (_k, _ethAmount, _erc20Amount, _blockNum) = getLatestPrice(token);\n        CoFiX_OP cop = CoFiX_OP(op);\n        uint256 impactCost;\n        if (cop == CoFiX_OP.SWAP_WITH_EXACT) {\n            impactCost = calcImpactCostFor_SWAP_WITH_EXACT(token, data, _ethAmount, _erc20Amount);\n        } else if (cop == CoFiX_OP.SWAP_FOR_EXACT) {\n            revert(\"disabled experimental feature!\"); // ctrl-v2: disable swapForExact function\n         } else if (cop == CoFiX_OP.BURN) {\n            impactCost = calcImpactCostFor_BURN(token, data, _ethAmount, _erc20Amount);\n        }\n        _k = _k.add(impactCost); // ctrl-v2: adjustable K + impactCost is the final K\n        _theta = KInfoMap[token][2];\n        return (_k, _ethAmount, _erc20Amount, _blockNum, _theta);\n    }\n\n    function calcImpactCostFor_BURN(address token, bytes memory data, uint256 ethAmount, uint256 erc20Amount) public view returns (uint256 impactCost) {\n        // bytes memory data = abi.encode(msg.sender, liquidity, initToken1Amount);\n        (, uint256 liquidity) = abi.decode(data, (address, uint256));\n        (uint256 initToken0Amount, uint256 initToken1Amount) = ICoFiXV2Pair(msg.sender).getInitialAssetRatio(); // pair call controller, msg.sender is pair\n        // calc real vol by liquidity * np\n        uint256 navps = ICoFiXV2Pair(msg.sender).getNAVPerShare(ethAmount, erc20Amount); // pair call controller, msg.sender is pair\n\n        // ethOut\n        uint256 buyVol = liquidity.mul(navps).div(NAVPS_BASE);\n\n        /*\n            tokenOut = liquidity * navps * \\frac{k_0}{P_t}\\\\\\\\\n                    = liquidity * navps * \\frac{initToken1Amount * ethAmount}{initToken0Amount * erc20Amount * NAVPS\\_BASE}\n        */\n        uint256 initToken1AmountMulEthAmount = initToken1Amount.mul(ethAmount);\n        uint256 erc20AmountMulInitToken0Amount = erc20Amount.mul(initToken0Amount);\n        uint256 sellOutVol = liquidity.mul(navps).mul(initToken1AmountMulEthAmount).div(erc20AmountMulInitToken0Amount).div(NAVPS_BASE);\n\n        // buy in ETH, outToken is ETH\n        uint256 impactCostForBuy = impactCostForBuyInETH(token, buyVol);\n        // sell out liquidity, outToken is token, take this as sell out ETH and get token\n        uint256 impactCostForSellOut = impactCostForSellOutETH(token, sellOutVol);\n\n        return impactCostForBuy.add(impactCostForSellOut);\n    }\n\n    function calcImpactCostFor_SWAP_WITH_EXACT(address token, bytes memory data, uint256 ethAmount, uint256 erc20Amount) public view returns (uint256 impactCost) {\n        (, address outToken, , uint256 amountIn) = abi.decode(data, (address, address, address, uint256));\n        if (outToken != token) {\n            // buy in ETH, outToken is ETH, amountIn is token\n            // convert to amountIn in ETH\n            uint256 vol = uint256(amountIn).mul(ethAmount).div(erc20Amount);\n            return impactCostForBuyInETH(token, vol);\n        }\n        // sell out ETH, amountIn is ETH\n        return impactCostForSellOutETH(token, amountIn);\n    }\n\n    function calcImpactCostFor_SWAP_FOR_EXACT(address token, bytes memory data, uint256 ethAmount, uint256 erc20Amount) public view returns (uint256 impactCost) {\n        (, address outToken, uint256 amountOutExact,) = abi.decode(data, (address, address, uint256, address));\n        if (outToken != token) {\n            // buy in ETH, outToken is ETH, amountOutExact is ETH\n            return impactCostForBuyInETH(token, amountOutExact);\n        }\n        // sell out ETH, amountIn is ETH, amountOutExact is token\n        // convert to amountOutExact in ETH\n        uint256 vol = uint256(amountOutExact).mul(ethAmount).div(erc20Amount);\n        return impactCostForSellOutETH(token, vol);\n    }\n\n    // impact cost\n    // - C = 0, if VOL < 500 / \n    // - C = ( +  * VOL) * , if VOL >= 500 / \n\n    // =2.570e-05=8.542e-07\n    function impactCostForBuyInETH(address token, uint256 vol) public view returns (uint256 impactCost) {\n        uint32 gamma = CGammaMap[token];\n        if (vol.mul(gamma) < 500 ether) {\n            return 0;\n        }\n        // return C_BUYIN_ALPHA.add(C_BUYIN_BETA.mul(vol).div(1e18)).mul(1e8).div(1e18);\n        return (C_BUYIN_ALPHA.add(C_BUYIN_BETA.mul(vol).div(1e18)).div(1e10)).mul(gamma); // combine mul div\n    }\n\n    // =-1.171e-04=8.386e-07\n    function impactCostForSellOutETH(address token, uint256 vol) public view returns (uint256 impactCost) {\n        uint32 gamma = CGammaMap[token];\n        if (vol.mul(gamma) < 500 ether) {\n            return 0;\n        }\n        // return (C_SELLOUT_BETA.mul(vol).div(1e18)).sub(C_SELLOUT_ALPHA).mul(1e8).div(1e18);\n        return ((C_SELLOUT_BETA.mul(vol).div(1e18)).sub(C_SELLOUT_ALPHA).div(1e10)).mul(gamma); // combine mul div\n    }\n\n    function getKInfo(address token) external override view returns (uint32 k, uint32 updatedAt, uint32 theta) {\n        // ctrl-v3: load from storage instead of constant value\n        uint32 kStored = KInfoMap[token][0];\n        if (kStored != 0) {\n            k = kStored;\n        } else {\n            k = uint32(K_EXPECTED_VALUE);\n        }\n        updatedAt = KInfoMap[token][1];\n        theta = KInfoMap[token][2];\n    }\n\n    // babylonian method (https://en.wikipedia.org/wiki/Methods_of_computing_square_roots#Babylonian_method)\n    function sqrt(uint y) internal pure returns (uint z) {\n        if (y > 3) {\n            z = y;\n            uint x = y / 2 + 1;\n            while (x < z) {\n                z = x;\n                x = (y / x + x) / 2;\n            }\n        } else if (y != 0) {\n            z = 1;\n        }\n    }\n\n    function getLatestPrice(address token) internal returns (uint256 _k, uint256 _ethAmount, uint256 _erc20Amount, uint256 _blockNum) {\n        uint256 _balanceBefore = address(this).balance;\n        OracleParams memory _op;\n        // query oracle    \n        ///  latestPriceBlockNumber The block number of latest price\n        ///  latestPriceValue The token latest price. (1eth equivalent to (price) token)\n        ///  triggeredPriceBlockNumber The block number of triggered price\n        ///  triggeredPriceValue The token triggered price. (1eth equivalent to (price) token)\n        ///  triggeredAvgPrice Average price\n        ///  triggeredSigmaSQ The square of the volatility (18 decimal places).\n        (\n            _op.blockNum, \n            _op.erc20Amount,\n            /* uint triggeredPriceBlockNumber */,\n            /* uint triggeredPriceValue */,\n            _op.avgPrice,\n            _op.sigma \n        ) = INestPriceFacade(oracle).latestPriceAndTriggeredPriceInfo{value: msg.value}(token, address(this));\n        _op.sigma = sqrt(_op.sigma.mul(1e18));\n        _op.ethAmount = 1 ether;\n\n        // validate T\n        _op.T = block.number.sub(_op.blockNum).mul(timespan);\n        require(_op.T < T, \"CoFiXCtrl: oralce price outdated\"); // ctrl-v2: adjustable T\n        \n        {\n            // check if the price is steady\n            uint256 price;\n            bool isDeviated;\n            price = _op.erc20Amount.mul(1e18).div(_op.ethAmount);\n            uint256 diff = price > _op.avgPrice? (price - _op.avgPrice) : (_op.avgPrice - price);\n            isDeviated = (diff.mul(100) < _op.avgPrice.mul(PRICE_DEVIATION))? false : true;\n            require(isDeviated == false, \"CoFiXCtrl: price deviation\"); // validate\n        }\n\n        // calc K\n        // K=(0.000026*T+10.205*)*()\n        {\n            uint256 gamma = calcGamma(_op.sigma);\n            _k = K_ALPHA.mul(_op.T).mul(1e18).add(K_BETA.mul(_op.sigma)).mul(gamma).div(K_GAMMA_BASE).div(1e18);\n\n            emit NewK(token, _k, _op.sigma, _op.T, _op.ethAmount, _op.erc20Amount, _op.blockNum);\n        }\n\n        {\n            // return oracle fee change\n            // we could decode data in the future to pay the fee change and mining award token directly to reduce call cost\n            // TransferHelper.safeTransferETH(payback, msg.value.sub(_balanceBefore.sub(address(this).balance)));\n            uint256 oracleFeeChange = msg.value.sub(_balanceBefore.sub(address(this).balance));\n            if (oracleFeeChange > 0) TransferHelper.safeTransferETH(msg.sender, oracleFeeChange);\n            \n            KInfoMap[token][0] = uint32(_k); \n            KInfoMap[token][1] = uint32(block.timestamp); // 2106\n            return (_k, _op.ethAmount, _op.erc20Amount, _op.blockNum);\n        }\n    }\n    \n   /**\n    * @notice Calc K value\n    * @param vola The square of the volatility (18 decimal places).\n    * @param bn The block number when (ETH, TOKEN) price takes into effective\n    * @return k The K value\n    */\n    function calcK(uint256 vola, uint256 bn) external view returns (uint32 k) {\n        uint256 _T = block.number.sub(bn).mul(timespan);\n        vola = sqrt(vola.mul(1e18));\n        uint256 gamma = calcGamma(vola);\n\n        k = uint32(K_ALPHA.mul(_T).mul(1e18).add(K_BETA.mul(vola)).mul(gamma).div(K_GAMMA_BASE).div(1e18));\n    }\n\n    function calcGamma(uint256 vola) public pure returns (uint256 gamma) {\n        // (0.0003 0.0005) => (300000000000000 500000000000000)\n\n        if (vola <= 300000000000000) { //   0.0003, gamma = 1\n            return 10;\n        } else if (vola > 500000000000000) { //  > 0.0005, gamma = 2\n            return 20;\n        } else { // 0.0003 <   0.0005, gamma = 1.5\n            return 15;\n        }\n    }\n\n    function getLatestPriceAndAvgVola(address token) public override payable returns (uint256, uint256, uint256, uint256) {\n        require(callerAllowed[msg.sender], \"CoFiXCtrl: caller not allowed\");\n\n        uint256 _balanceBefore = address(this).balance;\n\n        (\n            uint256 bn, \n            uint256 erc20Amount,\n            /* uint triggeredPriceBlockNumber */,\n            /* uint triggeredPriceValue */,\n            uint256 avg,\n            uint256 triggeredSigmaSQ\n        ) = INestPriceFacade(oracle).latestPriceAndTriggeredPriceInfo{value: msg.value}(token, address(this));\n        uint256 vola = sqrt(triggeredSigmaSQ);\n        // (uint256 ethAmount, uint256 erc20Amount, uint256 avg, int128 vola, uint256 bn) = \n        //         INestQuery(oracle).queryPriceAvgVola{value: msg.value}(token, address(this));\n\n        uint256 _T = block.number.sub(bn).mul(timespan);\n        require(_T < T, \"CoFiXCtrl: oralce price outdated\"); // ctrl-v2: adjustable T\n\n        uint256 oracleFeeChange = msg.value.sub(_balanceBefore.sub(address(this).balance));\n        if (oracleFeeChange > 0) TransferHelper.safeTransferETH(msg.sender, oracleFeeChange);\n\n        return (1 ether, erc20Amount, avg, vola);\n    }\n\n    // ctrl-v2: remove unused code bellow according to PeckShield's advice\n}",
  "sourcePath": "/Users/lixiansheng/Downloads/cofix2/contracts/CoFiXV2Controller.sol",
  "compiler": {
    "name": "solc",
    "version": "0.6.12+commit.27d51765.Emscripten.clang"
  },
  "schemaVersion": "3.3.3",
  "updatedAt": "2021-05-14T10:59:44.947Z",
  "networkType": "ethereum",
  "devdoc": {
    "kind": "dev",
    "methods": {
      "calcK(uint256,uint256)": {
        "params": {
          "bn": "The block number when (ETH, TOKEN) price takes into effective",
          "vola": "The square of the volatility (18 decimal places)."
        },
        "returns": {
          "k": "The K value"
        }
      }
    },
    "version": 1
  },
  "userdoc": {
    "kind": "user",
    "methods": {
      "calcK(uint256,uint256)": {
        "notice": "Calc K value"
      }
    },
    "version": 1
  }
}