{
  "contractName": "CoFiXV2Factory",
  "abi": [
    {
      "inputs": [
        {
          "internalType": "address",
          "name": "_WETH",
          "type": "address"
        }
      ],
      "stateMutability": "nonpayable",
      "type": "constructor"
    },
    {
      "anonymous": false,
      "inputs": [
        {
          "indexed": false,
          "internalType": "address",
          "name": "_new",
          "type": "address"
        }
      ],
      "name": "NewController",
      "type": "event"
    },
    {
      "anonymous": false,
      "inputs": [
        {
          "indexed": false,
          "internalType": "address",
          "name": "_new",
          "type": "address"
        }
      ],
      "name": "NewDAO",
      "type": "event"
    },
    {
      "anonymous": false,
      "inputs": [
        {
          "indexed": false,
          "internalType": "address",
          "name": "_new",
          "type": "address"
        }
      ],
      "name": "NewFeeReceiver",
      "type": "event"
    },
    {
      "anonymous": false,
      "inputs": [
        {
          "indexed": false,
          "internalType": "address",
          "name": "token",
          "type": "address"
        },
        {
          "indexed": false,
          "internalType": "address",
          "name": "feeVault",
          "type": "address"
        }
      ],
      "name": "NewFeeVaultForLP",
      "type": "event"
    },
    {
      "anonymous": false,
      "inputs": [
        {
          "indexed": false,
          "internalType": "address",
          "name": "_new",
          "type": "address"
        }
      ],
      "name": "NewGovernance",
      "type": "event"
    },
    {
      "anonymous": false,
      "inputs": [
        {
          "indexed": false,
          "internalType": "address",
          "name": "_new",
          "type": "address"
        }
      ],
      "name": "NewVaultForCNode",
      "type": "event"
    },
    {
      "anonymous": false,
      "inputs": [
        {
          "indexed": false,
          "internalType": "address",
          "name": "_new",
          "type": "address"
        }
      ],
      "name": "NewVaultForLP",
      "type": "event"
    },
    {
      "anonymous": false,
      "inputs": [
        {
          "indexed": false,
          "internalType": "address",
          "name": "_new",
          "type": "address"
        }
      ],
      "name": "NewVaultForTrader",
      "type": "event"
    },
    {
      "anonymous": false,
      "inputs": [
        {
          "indexed": true,
          "internalType": "address",
          "name": "token",
          "type": "address"
        },
        {
          "indexed": false,
          "internalType": "address",
          "name": "pair",
          "type": "address"
        },
        {
          "indexed": false,
          "internalType": "uint256",
          "name": "",
          "type": "uint256"
        }
      ],
      "name": "PairCreated",
      "type": "event"
    },
    {
      "inputs": [],
      "name": "WETH",
      "outputs": [
        {
          "internalType": "address",
          "name": "",
          "type": "address"
        }
      ],
      "stateMutability": "view",
      "type": "function"
    },
    {
      "inputs": [
        {
          "internalType": "uint256",
          "name": "",
          "type": "uint256"
        }
      ],
      "name": "allPairs",
      "outputs": [
        {
          "internalType": "address",
          "name": "",
          "type": "address"
        }
      ],
      "stateMutability": "view",
      "type": "function"
    },
    {
      "inputs": [],
      "name": "controller",
      "outputs": [
        {
          "internalType": "address",
          "name": "",
          "type": "address"
        }
      ],
      "stateMutability": "view",
      "type": "function"
    },
    {
      "inputs": [],
      "name": "dao",
      "outputs": [
        {
          "internalType": "address",
          "name": "",
          "type": "address"
        }
      ],
      "stateMutability": "view",
      "type": "function"
    },
    {
      "inputs": [],
      "name": "feeReceiver",
      "outputs": [
        {
          "internalType": "address",
          "name": "",
          "type": "address"
        }
      ],
      "stateMutability": "view",
      "type": "function"
    },
    {
      "inputs": [
        {
          "internalType": "address",
          "name": "",
          "type": "address"
        }
      ],
      "name": "getFeeVaultForLP",
      "outputs": [
        {
          "internalType": "address",
          "name": "",
          "type": "address"
        }
      ],
      "stateMutability": "view",
      "type": "function"
    },
    {
      "inputs": [
        {
          "internalType": "address",
          "name": "",
          "type": "address"
        }
      ],
      "name": "getPair",
      "outputs": [
        {
          "internalType": "address",
          "name": "",
          "type": "address"
        }
      ],
      "stateMutability": "view",
      "type": "function"
    },
    {
      "inputs": [
        {
          "internalType": "address",
          "name": "",
          "type": "address"
        }
      ],
      "name": "getTradeMiningStatus",
      "outputs": [
        {
          "internalType": "bool",
          "name": "",
          "type": "bool"
        }
      ],
      "stateMutability": "view",
      "type": "function"
    },
    {
      "inputs": [],
      "name": "governance",
      "outputs": [
        {
          "internalType": "address",
          "name": "",
          "type": "address"
        }
      ],
      "stateMutability": "view",
      "type": "function"
    },
    {
      "inputs": [],
      "name": "vaultForCNode",
      "outputs": [
        {
          "internalType": "address",
          "name": "",
          "type": "address"
        }
      ],
      "stateMutability": "view",
      "type": "function"
    },
    {
      "inputs": [],
      "name": "vaultForLP",
      "outputs": [
        {
          "internalType": "address",
          "name": "",
          "type": "address"
        }
      ],
      "stateMutability": "view",
      "type": "function"
    },
    {
      "inputs": [],
      "name": "vaultForTrader",
      "outputs": [
        {
          "internalType": "address",
          "name": "",
          "type": "address"
        }
      ],
      "stateMutability": "view",
      "type": "function"
    },
    {
      "inputs": [],
      "name": "allPairsLength",
      "outputs": [
        {
          "internalType": "uint256",
          "name": "",
          "type": "uint256"
        }
      ],
      "stateMutability": "view",
      "type": "function"
    },
    {
      "inputs": [],
      "name": "pairCodeHash",
      "outputs": [
        {
          "internalType": "bytes32",
          "name": "",
          "type": "bytes32"
        }
      ],
      "stateMutability": "pure",
      "type": "function"
    },
    {
      "inputs": [
        {
          "internalType": "address",
          "name": "token",
          "type": "address"
        },
        {
          "internalType": "uint256",
          "name": "initToken0Amount",
          "type": "uint256"
        },
        {
          "internalType": "uint256",
          "name": "initToken1Amount",
          "type": "uint256"
        }
      ],
      "name": "createPair",
      "outputs": [
        {
          "internalType": "address",
          "name": "pair",
          "type": "address"
        }
      ],
      "stateMutability": "nonpayable",
      "type": "function"
    },
    {
      "inputs": [
        {
          "internalType": "address",
          "name": "_new",
          "type": "address"
        }
      ],
      "name": "setGovernance",
      "outputs": [],
      "stateMutability": "nonpayable",
      "type": "function"
    },
    {
      "inputs": [
        {
          "internalType": "address",
          "name": "_new",
          "type": "address"
        }
      ],
      "name": "setController",
      "outputs": [],
      "stateMutability": "nonpayable",
      "type": "function"
    },
    {
      "inputs": [
        {
          "internalType": "address",
          "name": "_new",
          "type": "address"
        }
      ],
      "name": "setFeeReceiver",
      "outputs": [],
      "stateMutability": "nonpayable",
      "type": "function"
    },
    {
      "inputs": [
        {
          "internalType": "address",
          "name": "token",
          "type": "address"
        },
        {
          "internalType": "address",
          "name": "feeVault",
          "type": "address"
        }
      ],
      "name": "setFeeVaultForLP",
      "outputs": [],
      "stateMutability": "nonpayable",
      "type": "function"
    },
    {
      "inputs": [
        {
          "internalType": "address",
          "name": "_new",
          "type": "address"
        }
      ],
      "name": "setVaultForLP",
      "outputs": [],
      "stateMutability": "nonpayable",
      "type": "function"
    },
    {
      "inputs": [
        {
          "internalType": "address",
          "name": "_new",
          "type": "address"
        }
      ],
      "name": "setVaultForTrader",
      "outputs": [],
      "stateMutability": "nonpayable",
      "type": "function"
    },
    {
      "inputs": [
        {
          "internalType": "address",
          "name": "_new",
          "type": "address"
        }
      ],
      "name": "setVaultForCNode",
      "outputs": [],
      "stateMutability": "nonpayable",
      "type": "function"
    },
    {
      "inputs": [
        {
          "internalType": "address",
          "name": "_new",
          "type": "address"
        }
      ],
      "name": "setDAO",
      "outputs": [],
      "stateMutability": "nonpayable",
      "type": "function"
    },
    {
      "inputs": [
        {
          "internalType": "address",
          "name": "token",
          "type": "address"
        },
        {
          "internalType": "bool",
          "name": "status",
          "type": "bool"
        }
      ],
      "name": "setTradeMiningStatus",
      "outputs": [],
      "stateMutability": "nonpayable",
      "type": "function"
    },
    {
      "inputs": [],
      "name": "getController",
      "outputs": [
        {
          "internalType": "address",
          "name": "",
          "type": "address"
        }
      ],
      "stateMutability": "view",
      "type": "function"
    },
    {
      "inputs": [],
      "name": "getFeeReceiver",
      "outputs": [
        {
          "internalType": "address",
          "name": "",
          "type": "address"
        }
      ],
      "stateMutability": "view",
      "type": "function"
    },
    {
      "inputs": [],
      "name": "getVaultForLP",
      "outputs": [
        {
          "internalType": "address",
          "name": "",
          "type": "address"
        }
      ],
      "stateMutability": "view",
      "type": "function"
    },
    {
      "inputs": [],
      "name": "getVaultForTrader",
      "outputs": [
        {
          "internalType": "address",
          "name": "",
          "type": "address"
        }
      ],
      "stateMutability": "view",
      "type": "function"
    },
    {
      "inputs": [],
      "name": "getVaultForCNode",
      "outputs": [
        {
          "internalType": "address",
          "name": "",
          "type": "address"
        }
      ],
      "stateMutability": "view",
      "type": "function"
    },
    {
      "inputs": [],
      "name": "getDAO",
      "outputs": [
        {
          "internalType": "address",
          "name": "",
          "type": "address"
        }
      ],
      "stateMutability": "view",
      "type": "function"
    }
  ],
  "bytecode": "0x60a060405234801561001057600080fd5b5060405161551238038061551283398101604081905261002f91610066565b60028054336001600160a01b0319918216811790925560048054909116909117905560601b6001600160601b031916608052610094565b600060208284031215610077578081fd5b81516001600160a01b038116811461008d578182fd5b9392505050565b60805160601c61545c6100b66000398061070d5280610cda525061545c6000f3fe60806040523480156200001157600080fd5b5060043610620002085760003560e01c806392eefe9b116200011d578063cb27e2c311620000b1578063e73a914c116200007b578063e73a914c14620003e5578063e8a3539214620003fc578063efdcd9741462000406578063f77c4791146200041d5762000208565b8063cb27e2c31462000396578063d2d7f81614620003ad578063d494eded14620003b7578063d725b7d614620003ce5762000208565b8063ab033ea911620000f3578063ab033ea91462000361578063ad5c46481462000378578063b3f006741462000382578063b58aa478146200038c5762000208565b806392eefe9b1462000336578063985da726146200034d5780639aab924814620003575762000208565b8063574f2ba311620001a15780637c5f3cdf116200016b5780637c5f3cdf14620002e557806380feb39814620002fc5780638140b0041462000322578063847af19a146200032c5762000208565b8063574f2ba314620002925780635aa6e67514620002ab57806372b8cbcc14620002b55780637bae702714620002cc5762000208565b80631e3dd18b11620001e35780631e3dd18b1462000250578063284cfbe014620002675780633018205f146200027e5780634162169f14620002885762000208565b806306b580e4146200020d5780631a788a02146200022f5780631dae76911462000246575b600080fd5b6200021762000427565b6040516200022691906200145a565b60405180910390f35b6200021762000240366004620012bf565b62000436565b6200021762000451565b620002176200026136600462001392565b62000460565b62000217620002783660046200135c565b62000488565b6200021762000859565b6200021762000868565b6200029c62000877565b60405162000226919062001504565b620002176200087d565b62000217620002c6366004620012bf565b6200088c565b620002e3620002dd366004620012bf565b620008a7565b005b620002e3620002f6366004620012bf565b6200099e565b620003136200030d366004620012bf565b62000a8a565b604051620002269190620014f9565b6200021762000a9f565b6200021762000aae565b620002e362000347366004620012bf565b62000abd565b6200021762000ba9565b6200029c62000bb8565b620002e362000372366004620012bf565b62000bec565b6200021762000cd8565b6200021762000cfc565b6200021762000d0b565b620002e3620003a7366004620012e4565b62000d1a565b6200021762000dce565b620002e3620003c83660046200131d565b62000ddd565b620002e3620003df366004620012bf565b62000e53565b620002e3620003f6366004620012bf565b62000f3f565b620002176200102b565b620002e362000417366004620012bf565b6200103a565b6200021762001126565b6006546001600160a01b031681565b6000602081905290815260409020546001600160a01b031681565b6007546001600160a01b031690565b600181815481106200046e57fe5b6000918252602090912001546001600160a01b0316905081565b6002546000906001600160a01b03163314620004c15760405162461bcd60e51b8152600401620004b890620015e9565b60405180910390fd5b6001600160a01b038416620004ea5760405162461bcd60e51b8152600401620004b8906200150d565b6001600160a01b038481166000908152602081905260409020541615620005255760405162461bcd60e51b8152600401620004b8906200157b565b600083118015620005365750600082115b620005555760405162461bcd60e51b8152600401620004b89062001620565b606060405180602001620005699062001299565b6020820181038252601f19601f820116604052509050600085604051602001620005949190620013f7565b604051602081830303815290604052805190602001209050808251602084016000f592506001600160a01b038316620005e15760405162461bcd60e51b8152600401620004b890620015b2565b6001600160a01b03808716600090815260208190526040812080549286167fffffffffffffffffffffffff00000000000000000000000000000000000000009384168117909155600180548082018255928190527fb10e2d527612073b26eecdfd717e6a320cf44b4afac2b0732d9fcbe2b7fa0cf6909201805490931617909155546060620006708262001135565b90506060620006b56040518060400160405280600781526020017f58546f6b656e2000000000000000000000000000000000000000000000000000815250836200126a565b90506060620006fa6040518060400160405280600381526020017f58542d0000000000000000000000000000000000000000000000000000000000815250846200126a565b9050866001600160a01b03166379c2c9547f00000000000000000000000000000000000000000000000000000000000000008c85858e8e6040518763ffffffff1660e01b8152600401620007549695949392919062001488565b600060405180830381600087803b1580156200076f57600080fd5b505af115801562000784573d6000803e3d6000fd5b50506003546040517f747293fb0000000000000000000000000000000000000000000000000000000081526001600160a01b03909116925063747293fb9150620007d3908a906004016200145a565b600060405180830381600087803b158015620007ee57600080fd5b505af115801562000803573d6000803e3d6000fd5b50505050896001600160a01b03167fc1db9ba7c4b7ce660fe8d17bbcf07167549381df2abd694a970bd1402d86d313888660405162000844929190620014e0565b60405180910390a25050505050509392505050565b6003546001600160a01b031690565b6008546001600160a01b031681565b60015490565b6002546001600160a01b031681565b600a602052600090815260409020546001600160a01b031681565b6002546001600160a01b03163314620008d45760405162461bcd60e51b8152600401620004b890620015e9565b6001600160a01b038116620008fd5760405162461bcd60e51b8152600401620004b89062001657565b6005546001600160a01b03828116911614156200092e5760405162461bcd60e51b8152600401620004b89062001544565b600580547fffffffffffffffffffffffff0000000000000000000000000000000000000000166001600160a01b0383161790556040517f67dc7d9f59b39efcc9e1b3a2c2109c2b212fc362b17a6190027eb18cc3afa6e490620009939083906200145a565b60405180910390a150565b6002546001600160a01b03163314620009cb5760405162461bcd60e51b8152600401620004b890620015e9565b6001600160a01b038116620009f45760405162461bcd60e51b8152600401620004b89062001657565b6006546001600160a01b038281169116141562000a255760405162461bcd60e51b8152600401620004b89062001544565b600680547fffffffffffffffffffffffff0000000000000000000000000000000000000000166001600160a01b0383161790556040517f2f2656fd872771c0eeb3cd0a9ec1a2080a44a7bacbc1de33587cad3b2e34ec5090620009939083906200145a565b60096020526000908152604090205460ff1681565b6007546001600160a01b031681565b6005546001600160a01b031681565b6002546001600160a01b0316331462000aea5760405162461bcd60e51b8152600401620004b890620015e9565b6001600160a01b03811662000b135760405162461bcd60e51b8152600401620004b89062001657565b6003546001600160a01b038281169116141562000b445760405162461bcd60e51b8152600401620004b89062001544565b600380547fffffffffffffffffffffffff0000000000000000000000000000000000000000166001600160a01b0383161790556040517fe253457d9ad994ca9682fc3bbc38c890dca73a2d5ecee3809e548bac8b00d7c690620009939083906200145a565b6008546001600160a01b031690565b60006040518060200162000bcc9062001299565b6020820181038252601f19601f8201166040525080519060200120905090565b6002546001600160a01b0316331462000c195760405162461bcd60e51b8152600401620004b890620015e9565b6001600160a01b03811662000c425760405162461bcd60e51b8152600401620004b89062001657565b6002546001600160a01b038281169116141562000c735760405162461bcd60e51b8152600401620004b89062001544565b600280547fffffffffffffffffffffffff0000000000000000000000000000000000000000166001600160a01b0383161790556040517f4f386975ea1c2f7cf1845b08bee00626fbb624ecad16254d63d9bb9ba86526de90620009939083906200145a565b7f000000000000000000000000000000000000000000000000000000000000000081565b6004546001600160a01b031681565b6006546001600160a01b031690565b6002546001600160a01b0316331462000d475760405162461bcd60e51b8152600401620004b890620015e9565b6001600160a01b038281166000908152600a60205260409081902080547fffffffffffffffffffffffff00000000000000000000000000000000000000001692841692909217909155517f360d77988e9d7232292cbbd29e6b03381c697d3dd022cbf68ce2ad4f962e13db9062000dc290849084906200146e565b60405180910390a15050565b6005546001600160a01b031690565b6002546001600160a01b0316331462000e0a5760405162461bcd60e51b8152600401620004b890620015e9565b6001600160a01b0391909116600090815260096020526040902080547fffffffffffffffffffffffffffffffffffffffffffffffffffffffffffffff0016911515919091179055565b6002546001600160a01b0316331462000e805760405162461bcd60e51b8152600401620004b890620015e9565b6001600160a01b03811662000ea95760405162461bcd60e51b8152600401620004b89062001657565b6007546001600160a01b038281169116141562000eda5760405162461bcd60e51b8152600401620004b89062001544565b600780547fffffffffffffffffffffffff0000000000000000000000000000000000000000166001600160a01b0383161790556040517f4a43ee60176d4fc191e384a77ee14eb01d46872ac0f7a1eacc4f65d03d3b881990620009939083906200145a565b6002546001600160a01b0316331462000f6c5760405162461bcd60e51b8152600401620004b890620015e9565b6001600160a01b03811662000f955760405162461bcd60e51b8152600401620004b89062001657565b6008546001600160a01b038281169116141562000fc65760405162461bcd60e51b8152600401620004b89062001544565b600880547fffffffffffffffffffffffff0000000000000000000000000000000000000000166001600160a01b0383161790556040517f8a95f7dc00ff6d8cd247fa890923a32049dfe68b14abce48ea67d4d50fd774c190620009939083906200145a565b6004546001600160a01b031690565b6002546001600160a01b03163314620010675760405162461bcd60e51b8152600401620004b890620015e9565b6001600160a01b038116620010905760405162461bcd60e51b8152600401620004b89062001657565b6004546001600160a01b0382811691161415620010c15760405162461bcd60e51b8152600401620004b89062001544565b600480547fffffffffffffffffffffffff0000000000000000000000000000000000000000166001600160a01b0383161790556040517f010444796a5a2a97780dbda60b888795c594cc841f49c2513bb0f66258c5789290620009939083906200145a565b6003546001600160a01b031681565b60608162001178575060408051808201909152600181527f3000000000000000000000000000000000000000000000000000000000000000602082015262001265565b8160005b81156200119257600101600a820491506200117c565b60608167ffffffffffffffff81118015620011ac57600080fd5b506040519080825280601f01601f191660200182016040528015620011d8576020820181803683370190505b5090507fffffffffffffffffffffffffffffffffffffffffffffffffffffffffffffffff82015b85156200125f57600a860660300160f81b828280600190039350815181106200122457fe5b60200101907effffffffffffffffffffffffffffffffffffffffffffffffffffffffffffff1916908160001a905350600a86049550620011ff565b50925050505b919050565b606082826040516020016200128192919062001427565b60405160208183030381529060405290505b92915050565b613d6580620016c283390190565b80356001600160a01b03811681146200129357600080fd5b600060208284031215620012d1578081fd5b620012dd8383620012a7565b9392505050565b60008060408385031215620012f7578081fd5b620013038484620012a7565b9150620013148460208501620012a7565b90509250929050565b6000806040838503121562001330578182fd5b6200133c8484620012a7565b91506020830135801515811462001351578182fd5b809150509250929050565b60008060006060848603121562001371578081fd5b6200137d8585620012a7565b95602085013595506040909401359392505050565b600060208284031215620013a4578081fd5b5035919050565b60008151808452620013c58160208601602086016200168e565b601f017fffffffffffffffffffffffffffffffffffffffffffffffffffffffffffffffe0169290920160200192915050565b60609190911b7fffffffffffffffffffffffffffffffffffffffff00000000000000000000000016815260140190565b600083516200143b8184602088016200168e565b835190830190620014518183602088016200168e565b01949350505050565b6001600160a01b0391909116815260200190565b6001600160a01b0392831681529116602082015260400190565b60006001600160a01b03808916835280881660208401525060c06040830152620014b660c0830187620013ab565b8281036060840152620014ca8187620013ab565b6080840195909552505060a00152949350505050565b6001600160a01b03929092168252602082015260400190565b901515815260200190565b90815260200190565b60208082526016908201527f43466163746f72793a205a45524f5f4144445245535300000000000000000000604082015260600190565b60208082526013908201527f43466163746f72793a2073616d65206164647200000000000000000000000000604082015260600190565b60208082526015908201527f43466163746f72793a20504149525f4558495354530000000000000000000000604082015260600190565b6020808252601a908201527f43466163746f72793a204661696c6564206f6e206465706c6f79000000000000604082015260600190565b60208082526015908201527f43466163746f72793a2021676f7665726e616e63650000000000000000000000604082015260600190565b60208082526018908201527f43466163746f72793a20494c4c4547414c5f414d4f554e540000000000000000604082015260600190565b60208082526013908201527f43466163746f72793a207a65726f206164647200000000000000000000000000604082015260600190565b60005b83811015620016ab57818101518382015260200162001691565b83811115620016bb576000848401525b5050505056fe60a06040526001600c553480156200001657600080fd5b50604080518082018252601081526f21b7a334ac102837b7b6102a37b5b2b760811b6020918201528151808301835260018152603160f81b9082015290514691620000cc917f8b73c3c69bb8fe3d512ecc4cf759cc79239f7b179b0ffacaa9a75d522b39400f917f70f1d8d3a2b874a116643bbbdb7e2937ce56e0359f9c3070aac2ec77a8354ccc917fc89efdaa54c0f20c7adf612882df0950f5a951637e0307cdcb4c672f298b8bc6918691309101620000f5565b60408051601f198184030181529190528051602090910120600355503360601b60805262000121565b9485526020850193909352604084019190915260608301526001600160a01b0316608082015260a00190565b60805160601c613c086200015d6000398061129452806116ff5280611ce052806121ad52806126605280612cb05280612ea65250613c086000f3fe6080604052600436106102eb5760003560e01c806395d89b4111610184578063bc25cf77116100d6578063d385a3ad1161008a578063e5eac39011610064578063e5eac39014610787578063f22e2ae0146107a7578063fff6cae9146107bc576102f2565b8063d385a3ad14610727578063d505accf14610747578063dd62ed3e14610767576102f2565b8063bf36aac2116100bb578063bf36aac2146106dd578063c45a0155146106fd578063d21220a714610712576102f2565b8063bc25cf77146106bd578063be5b32f8146104ba576102f2565b8063a661dbda11610138578063ac931c5a11610112578063ac931c5a14610668578063b72bda4a14610688578063ba9a7a56146106a8576102f2565b8063a661dbda14610633578063a9059cbb14610648578063aaf07e9214610490576102f2565b80639c673c52116101695780639c673c52146105db5780639f44296a146105fb578063a1da4d241461061e576102f2565b806395d89b41146105a657806399f45e48146105bb576102f2565b8063313ce5671161023d5780634f6ec2dd116101f157806379c2c954116101cb57806379c2c9541461054f5780637ecebe00146105715780638a2ffb9614610591576102f2565b80634f6ec2dd146104fa5780635ad6bd301461050f57806370a082311461052f576102f2565b80633644e515116102225780633644e515146104a557806339818b66146104ba57806349a23da0146104da576102f2565b8063313ce5671461046e5780633298613114610490576102f2565b806318160ddd1161029f57806324334be81161027957806324334be81461042657806327fc84a31461044657806330adf81f14610459576102f2565b806318160ddd146103b55780631feb1886146103d757806323b872dd14610406576102f2565b8063095ea7b3116102d0578063095ea7b3146103455780630dfe168114610372578063156e29f614610394576102f2565b806306fdde03146102f75780630902f1ac14610322576102f2565b366102f257005b600080fd5b34801561030357600080fd5b5061030c6107d1565b604051610319919061366d565b60405180910390f35b34801561032e57600080fd5b5061033761087d565b604051610319929190613aaa565b34801561035157600080fd5b5061036561036036600461333a565b6108aa565b6040516103199190613607565b34801561037e57600080fd5b506103876108c1565b6040516103199190613553565b6103a76103a2366004613365565b6108d0565b604051610319929190613acb565b3480156103c157600080fd5b506103ca610c54565b6040516103199190613612565b3480156103e357600080fd5b506103f76103f23660046133ec565b610c5a565b60405161031993929190613af8565b34801561041257600080fd5b50610365610421366004613285565b610f5e565b34801561043257600080fd5b506103ca61044136600461340f565b611010565b6103f76104543660046131b5565b61104e565b34801561046557600080fd5b506103ca6114ff565b34801561047a57600080fd5b50610483611523565b6040516103199190613b59565b34801561049c57600080fd5b506103ca611528565b3480156104b157600080fd5b506103ca611530565b3480156104c657600080fd5b506103ca6104d53660046133b9565b611536565b3480156104e657600080fd5b506103ca6104f5366004613430565b611574565b34801561050657600080fd5b506103ca611631565b34801561051b57600080fd5b506103a761052a3660046133ec565b61163d565b34801561053b57600080fd5b506103ca61054a36600461317d565b6116e2565b34801561055b57600080fd5b5061056f61056a3660046131ed565b6116f4565b005b34801561057d57600080fd5b506103ca61058c36600461317d565b6117b8565b34801561059d57600080fd5b506103ca6117ca565b3480156105b257600080fd5b5061030c6117d0565b3480156105c757600080fd5b506103ca6105d6366004613465565b611849565b3480156105e757600080fd5b506103a76105f63660046133ec565b6118fc565b61060e6106093660046131b5565b611990565b6040516103199493929190613b0e565b34801561062a57600080fd5b506103a7611f0a565b34801561063f57600080fd5b5061030c611f13565b34801561065457600080fd5b5061036561066336600461333a565b611f4c565b34801561067457600080fd5b506103ca61068336600461340f565b611f59565b34801561069457600080fd5b506103ca6106a3366004613430565b611f71565b3480156106b457600080fd5b506103ca611fa7565b3480156106c957600080fd5b5061056f6106d836600461317d565b611faf565b3480156106e957600080fd5b506103a76106f83660046133ec565b6120f1565b34801561070957600080fd5b506103876121ab565b34801561071e57600080fd5b506103876121cf565b34801561073357600080fd5b506103ca6107423660046133ec565b6121de565b34801561075357600080fd5b5061056f6107623660046132c5565b6121fe565b34801561077357600080fd5b506103ca6107823660046131b5565b61236d565b34801561079357600080fd5b506103a76107a23660046133ec565b61238a565b3480156107b357600080fd5b506103ca612451565b3480156107c857600080fd5b5061056f612457565b6005805460408051602060026001851615610100027fffffffffffffffffffffffffffffffffffffffffffffffffffffffffffffffff0190941693909304601f810184900484028201840190925281815292918301828280156108755780601f1061084a57610100808354040283529160200191610875565b820191906000526020600020905b81548152906001019060200180831161085857829003601f168201915b505050505081565b6009546dffffffffffffffffffffffffffff808216926e0100000000000000000000000000009092041690565b60006108b733848461258c565b5060015b92915050565b6007546001600160a01b031681565b600080600c546001146108fe5760405162461bcd60e51b81526004016108f590613680565b60405180910390fd5b6000600c8190556007546008546001600160a01b03918216929116908061092361087d565b915091506000846001600160a01b03166370a08231306040518263ffffffff1660e01b81526004016109559190613553565b60206040518083038186803b15801561096d57600080fd5b505afa158015610981573d6000803e3d6000fd5b505050506040513d601f19601f820116820180604052508101906109a591906133d4565b90506000846001600160a01b03166370a08231306040518263ffffffff1660e01b81526004016109d59190613553565b60206040518083038186803b1580156109ed57600080fd5b505afa158015610a01573d6000803e3d6000fd5b505050506040513d601f19601f82011682018060405250810190610a2591906133d4565b90506000610a43836dffffffffffffffffffffffffffff87166125f4565b90506000610a61836dffffffffffffffffffffffffffff87166125f4565b9050818c11158015610a735750808b11155b610a8f5760405162461bcd60e51b81526004016108f5906138cc565b5050600b548a908a90610aa390829061261c565b600a54610ab190849061261c565b14610ace5760405162461bcd60e51b81526004016108f5906137ca565b60004790506060338f8585604051602001610aec9493929190613591565b6040516020818303038152906040529050610b05612fe5565b610b118a600184612656565b60808601526040850152602084018190528184526060840192909252600091610b51916dffffffffffffffffffffffffffff808e1692908d169190611849565b905060005460001415610b8c57610b76633b9aca00610b708884611f59565b906125f4565b9d50610b876000633b9aca00612790565b610b99565b610b968682611f59565b9d505b50610bb29150610bab905082476125f4565b34906125f4565b995060008b11610bd45760405162461bcd60e51b81526004016108f59061393a565b610bde8e8c612790565b610be8858561281d565b8915610bf857610bf8338b612923565b336001600160a01b03167f4c209b5fc8ad50758f13e2e1088ba56a560dff690a1c6fef26394f4c03821c4f8484604051610c33929190613acb565b60405180910390a25050505050505050506001600c81905550935093915050565b60005481565b60095481516020830151600092839283928392610c9e926dffffffffffffffffffffffffffff808316936e0100000000000000000000000000009093041691611849565b90506000610cac878361261c565b90506000610cd5610cce88608001516305f5e1006125f490919063ffffffff16565b839061261c565b9050610cf76305f5e100610cf183670de0b6b3a76400006129b5565b906129b5565b9450610d286305f5e100610cf1600b54610cf1670de0b6b3a7640000610cf1600a548861261c90919063ffffffff16565b955050508460800151600014610db5578451600a54600091610d4a919061261c565b90506000610d67600b54886020015161261c90919063ffffffff16565b9050610db0670de0b6b3a7640000610cf16305f5e100610cf18b60800151610daa8e610daa89610cf1610da38c8e6129e790919063ffffffff16565b8e9061261c565b9061261c565b935050505b6009546dffffffffffffffffffffffffffff16831115610e7f57600954855160208701516dffffffffffffffffffffffffffff909216850391600091610e0091610cf190859061261c565b9050610e0c86826129e7565b6009549096506e01000000000000000000000000000090046dffffffffffffffffffffffffffff16861115610e63576009546e01000000000000000000000000000090046dffffffffffffffffffffffffffff1695505b50506009546dffffffffffffffffffffffffffff169250610f56565b6009546e01000000000000000000000000000090046dffffffffffffffffffffffffffff16841115610f5657600954602086015186516e0100000000000000000000000000009092046dffffffffffffffffffffffffffff16860391600091610eed91610cf190859061261c565b9050610ef985826129e7565b6009549095506dffffffffffffffffffffffffffff16851115610f2c576009546dffffffffffffffffffffffffffff1694505b50506009546e01000000000000000000000000000090046dffffffffffffffffffffffffffff1693505b509250925092565b6001600160a01b03831660009081526002602090815260408083203384529091528120547fffffffffffffffffffffffffffffffffffffffffffffffffffffffffffffffff14610ffb576001600160a01b0384166000908152600260209081526040808320338452909152902054610fd690836125f4565b6001600160a01b03851660009081526002602090815260408083203384529091529020555b611006848484612a0c565b5060019392505050565b600954600090611047906dffffffffffffffffffffffffffff808216916e0100000000000000000000000000009004168585611849565b9392505050565b6000806000600c546001146110755760405162461bcd60e51b81526004016108f590613680565b6000600c8190556007546008546040516370a0823160e01b81526001600160a01b0392831693919092169183906370a08231906110b6903090600401613553565b60206040518083038186803b1580156110ce57600080fd5b505afa1580156110e2573d6000803e3d6000fd5b505050506040513d601f19601f8201168201806040525081019061110691906133d4565b90506000826001600160a01b03166370a08231306040518263ffffffff1660e01b81526004016111369190613553565b60206040518083038186803b15801561114e57600080fd5b505afa158015611162573d6000803e3d6000fd5b505050506040513d601f19601f8201168201806040525081019061118691906133d4565b306000908152600160209081526040808320549051939450924792916060916111b39133918791016135ba565b60405160208183030381529060405290506111cc612fe5565b6111d888600284612656565b608086015260408501526020840152825260608201526111f88582610c5a565b919d509b5092506112109150610bab905083476125f4565b975060008a1180156112225750600089115b61123e5760405162461bcd60e51b81526004016108f590613903565b6112483084612ab0565b611253868d8c612b3a565b61125e878c8b612b3a565b8015611338576040517f80feb3980000000000000000000000000000000000000000000000000000000081526001600160a01b037f000000000000000000000000000000000000000000000000000000000000000016906380feb398906112c9908990600401613553565b60206040518083038186803b1580156112e157600080fd5b505afa1580156112f5573d6000803e3d6000fd5b505050506040513d601f19601f820116820180604052508101906113199190613399565b1561132d576113288782612cac565b611338565b611338878783612e73565b6040516370a0823160e01b81526001600160a01b038816906370a0823190611364903090600401613553565b60206040518083038186803b15801561137c57600080fd5b505afa158015611390573d6000803e3d6000fd5b505050506040513d601f19601f820116820180604052508101906113b491906133d4565b6040516370a0823160e01b81529095506001600160a01b038716906370a08231906113e3903090600401613553565b60206040518083038186803b1580156113fb57600080fd5b505afa15801561140f573d6000803e3d6000fd5b505050506040513d601f19601f8201168201806040525081019061143391906133d4565b935061143f858561281d565b871561144f5761144f3389612923565b8a6001600160a01b0316336001600160a01b03167f3dd1df88dc92e2788892542d81f999d720a44b4c127065d45c128f4f59fdc373898c6040516114949291906135ba565b60405180910390a38b6001600160a01b0316336001600160a01b03167f3dd1df88dc92e2788892542d81f999d720a44b4c127065d45c128f4f59fdc373888d6040516114e19291906135ba565b60405180910390a3505050505050506001600c819055509250925092565b7f6e71edae12b1b97f4d1f60370fef10105fa2faae0126114a169c64845d6126c981565b601281565b6305f5e10081565b60035481565b600954815160208301516000926108bb926dffffffffffffffffffffffffffff808316936e0100000000000000000000000000009093041691611849565b600080548061158d57670de0b6b3a76400009150611629565b60006115aa84606001516305f5e1006125f490919063ffffffff16565b905060006115cd6305f5e100610daa87600001518961261c90919063ffffffff16565b905060006115ec83610daa88602001518b61261c90919063ffffffff16565b905061162383610cf18860200151610cf188610cf1611614888a6129e790919063ffffffff16565b670de0b6b3a76400009061261c565b94505050505b509392505050565b670de0b6b3a764000081565b6000806116ab61165e84608001516305f5e1006125f490919063ffffffff16565b610cf161167c86606001516305f5e1006125f490919063ffffffff16565b610cf18760200151610cf16305f5e100610daa6305f5e100610daa8d600001518f61261c90919063ffffffff16565b915082608001516000146116db576116d86305f5e100610cf185608001518561261c90919063ffffffff16565b90505b9250929050565b60016020526000908152604090205481565b336001600160a01b037f0000000000000000000000000000000000000000000000000000000000000000161461173c5760405162461bcd60e51b81526004016108f590613971565b600780546001600160a01b038089167fffffffffffffffffffffffff00000000000000000000000000000000000000009283161790925560088054928816929091169190911790558351611797906005906020870190613014565b5082516117ab906006906020860190613014565b50600a55600b5550505050565b60046020526000908152604090205481565b600b5481565b6006805460408051602060026001851615610100027fffffffffffffffffffffffffffffffffffffffffffffffffffffffffffffffff0190941693909304601f810184900484028201840190925281815292918301828280156108755780601f1061084a57610100808354040283529160200191610875565b600080548061186257670de0b6b3a764000091506118f3565b600b5460009061187690610daa898761261c565b90506000611893600b54610daa888a61261c90919063ffffffff16565b905060006118ac87600a5461261c90919063ffffffff16565b905060006118c5600b548861261c90919063ffffffff16565b90506118ec6118d483836129e7565b610cf1670de0b6b3a7640000610daa89838a8a6129e7565b9550505050505b50949350505050565b6000806119636305f5e100610cf16305f5e100610cf18760000151610cf16119358a608001516305f5e1006125f490919063ffffffff16565b610daa6119538c606001516305f5e1006125f490919063ffffffff16565b60208d0151610daa908f9061261c565b915082608001516000146116db576116d86305f5e100610cf185608001518761261c90919063ffffffff16565b600080600061199d613092565b600c546001146119bf5760405162461bcd60e51b81526004016108f590613680565b6000600c8190556007546008546040516370a0823160e01b81526001600160a01b0392831693919092169183906370a0823190611a00903090600401613553565b60206040518083038186803b158015611a1857600080fd5b505afa158015611a2c573d6000803e3d6000fd5b505050506040513d601f19601f82011682018060405250810190611a5091906133d4565b90506000826001600160a01b03166370a08231306040518263ffffffff1660e01b8152600401611a809190613553565b60206040518083038186803b158015611a9857600080fd5b505afa158015611aac573d6000803e3d6000fd5b505050506040513d601f19601f82011682018060405250810190611ad091906133d4565b905047600080611ade61087d565b91509150856001600160a01b03168d6001600160a01b03161415611b1d57611b16856dffffffffffffffffffffffffffff84166125f4565b9a50611b69565b866001600160a01b03168d6001600160a01b03161415611b5157611b16846dffffffffffffffffffffffffffff83166125f4565b60405162461bcd60e51b81526004016108f590613895565b60008b11611b895760405162461bcd60e51b81526004016108f590613a73565b6060338e8e8e604051602001611ba29493929190613567565b6040516020818303038152906040529050611bbb612fe5565b611bc788600384612656565b608086015260408501526020840152825260608201526001600160a01b038f81169089161415611c0457611bfb8d826118fc565b8b529b50611c2d565b886001600160a01b03168f6001600160a01b03161415611c2d57611c288d8261238a565b8b529b505b611c3a610bab86476125f4565b815160208c8101919091529091015160408b01529950505050506001600160a01b03848116908a1614801590611c825750826001600160a01b0316896001600160a01b031614155b611c9e5760405162461bcd60e51b81526004016108f59061375c565b611ca98a8a89612b3a565b845115611d90576040517f80feb3980000000000000000000000000000000000000000000000000000000081526001600160a01b037f000000000000000000000000000000000000000000000000000000000000000016906380feb39890611d15908690600401613553565b60206040518083038186803b158015611d2d57600080fd5b505afa158015611d41573d6000803e3d6000fd5b505050506040513d601f19601f82011682018060405250810190611d659190613399565b15611d7c578451611d77908590612cac565b611d90565b8451611d8b9085908590612e73565b600085525b6040516370a0823160e01b81526001600160a01b038516906370a0823190611dbc903090600401613553565b60206040518083038186803b158015611dd457600080fd5b505afa158015611de8573d6000803e3d6000fd5b505050506040513d601f19601f82011682018060405250810190611e0c91906133d4565b6040516370a0823160e01b81529092506001600160a01b038416906370a0823190611e3b903090600401613553565b60206040518083038186803b158015611e5357600080fd5b505afa158015611e67573d6000803e3d6000fd5b505050506040513d601f19601f82011682018060405250810190611e8b91906133d4565b9050611e97828261281d565b8515611ea757611ea73387612923565b886001600160a01b0316336001600160a01b03167f053d794b2310b8d186a24ae24a65ee066983a52a6efa6bd3df09a7601a3cb4f38a8a8e604051611eee93929190613ad9565b60405180910390a350506001600c555093969295509093509150565b600a54600b5491565b6040518060400160405280601081526020017f436f46695820506f6f6c20546f6b656e0000000000000000000000000000000081525081565b60006108b7338484612a0c565b600061104782610cf185670de0b6b3a764000061261c565b6000805480611f8a57670de0b6b3a76400009150611629565b60006115aa84606001516305f5e1006129e790919063ffffffff16565b633b9aca0081565b600c54600114611fd15760405162461bcd60e51b81526004016108f590613680565b6000600c556007546008546009546040516370a0823160e01b81526001600160a01b0393841693909216916120869184918691612081916dffffffffffffffffffffffffffff9091169084906370a0823190612031903090600401613553565b60206040518083038186803b15801561204957600080fd5b505afa15801561205d573d6000803e3d6000fd5b505050506040513d601f19601f82011682018060405250810190610b7091906133d4565b612b3a565b6120e781846120816009600e9054906101000a90046dffffffffffffffffffffffffffff166dffffffffffffffffffffffffffff16856001600160a01b03166370a08231306040518263ffffffff1660e01b81526004016120319190613553565b50506001600c5550565b60008061214861211284608001516305f5e1006125f490919063ffffffff16565b610cf16305f5e100610cf18760000151610cf16305f5e100610daa6119538c606001516305f5e1006129e790919063ffffffff16565b915082608001516000146116db576116d86305f5e100610cf161217c86606001516305f5e1006129e790919063ffffffff16565b610cf18760200151610cf18960800151610daa6305f5e100610daa8d600001518d61261c90919063ffffffff16565b7f000000000000000000000000000000000000000000000000000000000000000081565b6008546001600160a01b031681565b6000806121ea83611536565b90506121f68482611f59565b949350505050565b4284101561221e5760405162461bcd60e51b81526004016108f59061385e565b6003546001600160a01b0388166000908152600460209081526040808320805460018101909155905192939261227f927f6e71edae12b1b97f4d1f60370fef10105fa2faae0126114a169c64845d6126c9928d928d928d92918d910161361b565b604051602081830303815290604052805190602001206040516020016122a692919061351d565b6040516020818303038152906040528051906020012090506000600182868686604051600081526020016040526040516122e3949392919061364f565b6020604051602081039080840390855afa158015612305573d6000803e3d6000fd5b5050604051601f1901519150506001600160a01b0381161580159061233b5750886001600160a01b0316816001600160a01b0316145b6123575760405162461bcd60e51b81526004016108f5906136b7565b61236289898961258c565b505050505050505050565b600260209081526000928352604080842090915290825290205481565b6000806123ee6305f5e100610cf16123b386606001516305f5e1006129e790919063ffffffff16565b610cf18760200151610cf16123d98a608001516305f5e1006125f490919063ffffffff16565b8a51610daa906305f5e1009082908f9061261c565b915082608001516000146116db576116d86305f5e100610cf161242286606001516305f5e1006129e790919063ffffffff16565b610cf18760200151610cf18960800151610daa6305f5e100610daa8d600001518f61261c90919063ffffffff16565b600a5481565b600c546001146124795760405162461bcd60e51b81526004016108f590613680565b6000600c556007546040516370a0823160e01b8152612585916001600160a01b0316906370a08231906124b0903090600401613553565b60206040518083038186803b1580156124c857600080fd5b505afa1580156124dc573d6000803e3d6000fd5b505050506040513d601f19601f8201168201806040525081019061250091906133d4565b6008546040516370a0823160e01b81526001600160a01b03909116906370a0823190612530903090600401613553565b60206040518083038186803b15801561254857600080fd5b505afa15801561255c573d6000803e3d6000fd5b505050506040513d601f19601f8201168201806040525081019061258091906133d4565b61281d565b6001600c55565b6001600160a01b0380841660008181526002602090815260408083209487168084529490915290819020849055517f8c5be1e5ebec7d5bd14f71427d1e84f3dd0314c0f7b2291e5b200ac8c7c3b925906125e7908590613612565b60405180910390a3505050565b6000828211156126165760405162461bcd60e51b81526004016108f590613725565b50900390565b60008261262b575060006108bb565b8282028284828161263857fe5b04146110475760405162461bcd60e51b81526004016108f590613801565b60008060008060007f00000000000000000000000000000000000000000000000000000000000000006001600160a01b0316633018205f6040518163ffffffff1660e01b815260040160206040518083038186803b1580156126b757600080fd5b505afa1580156126cb573d6000803e3d6000fd5b505050506040513d601f19601f820116820180604052508101906126ef9190613199565b6001600160a01b0316638dba9329348a8a600481111561270b57fe5b8a6040518563ffffffff1660e01b815260040161272a939291906135d3565b60a0604051808303818588803b15801561274357600080fd5b505af1158015612757573d6000803e3d6000fd5b50505050506040513d601f19601f8201168201806040525081019061277c9190613496565b939c929b5090995097509095509350505050565b60005461279d90826129e7565b60009081556001600160a01b0383168152600160205260409020546127c290826129e7565b6001600160a01b0383166000818152600160205260408082209390935591519091907fddf252ad1be2c89b69c2b068fc378daa952ba7f163c4a11628f55a4df523b3ef90612811908590613612565b60405180910390a35050565b6dffffffffffffffffffffffffffff821180159061284957506dffffffffffffffffffffffffffff8111155b6128655760405162461bcd60e51b81526004016108f590613a3c565b600980547fffffffffffffffffffffffffffffffffffff0000000000000000000000000000166dffffffffffffffffffffffffffff848116919091177fffffffff0000000000000000000000000000ffffffffffffffffffffffffffff166e010000000000000000000000000000848316810291909117928390556040517f1c411e9a96e071241c2f21f7726b17ae89e3cab4c78be50e062b03a9fffbbad19361291793818116939091041690613aaa565b60405180910390a15050565b604080516000808252602082019092526001600160a01b03841690839060405161294d9190613501565b60006040518083038185875af1925050503d806000811461298a576040519150601f19603f3d011682016040523d82523d6000602084013e61298f565b606091505b50509050806129b05760405162461bcd60e51b81526004016108f5906139a8565b505050565b60008082116129d65760405162461bcd60e51b81526004016108f590613793565b8183816129df57fe5b049392505050565b6000828201838110156110475760405162461bcd60e51b81526004016108f5906136ee565b6001600160a01b038316600090815260016020526040902054612a2f90826125f4565b6001600160a01b038085166000908152600160205260408082209390935590841681522054612a5e90826129e7565b6001600160a01b0380841660008181526001602052604090819020939093559151908516907fddf252ad1be2c89b69c2b068fc378daa952ba7f163c4a11628f55a4df523b3ef906125e7908590613612565b6001600160a01b038216600090815260016020526040902054612ad390826125f4565b6001600160a01b03831660009081526001602052604081209190915554612afa90826125f4565b60009081556040516001600160a01b038416907fddf252ad1be2c89b69c2b068fc378daa952ba7f163c4a11628f55a4df523b3ef90612811908590613612565b604080518082018252601981527f7472616e7366657228616464726573732c75696e743235362900000000000000602090910152516000906060906001600160a01b038616907fa9059cbb2ab09eb219583f4a59a5d0623ade346d962bcd4e46b11da047c9049b90612bb290879087906024016135ba565b60408051601f198184030181529181526020820180517bffffffffffffffffffffffffffffffffffffffffffffffffffffffff167fffffffff00000000000000000000000000000000000000000000000000000000909416939093179092529051612c1d9190613501565b6000604051808303816000865af19150503d8060008114612c5a576040519150601f19603f3d011682016040523d82523d6000602084013e612c5f565b606091505b5091509150818015612c89575080511580612c89575080806020019051810190612c899190613399565b612ca55760405162461bcd60e51b81526004016108f590613a05565b5050505050565b60007f00000000000000000000000000000000000000000000000000000000000000006001600160a01b031663e8a353926040518163ffffffff1660e01b815260040160206040518083038186803b158015612d0757600080fd5b505afa158015612d1b573d6000803e3d6000fd5b505050506040513d601f19601f82011682018060405250810190612d3f9190613199565b90506001600160a01b038116612d555750612e6f565b6040516370a0823160e01b81526000906001600160a01b038516906370a0823190612d84903090600401613553565b60206040518083038186803b158015612d9c57600080fd5b505afa158015612db0573d6000803e3d6000fd5b505050506040513d601f19601f82011682018060405250810190612dd491906133d4565b905080831115612de2578092505b6040517f2e1a7d4d0000000000000000000000000000000000000000000000000000000081526001600160a01b03851690632e1a7d4d90612e27908690600401613612565b600060405180830381600087803b158015612e4157600080fd5b505af1158015612e55573d6000803e3d6000fd5b505050506000831115612e6c57612e6c8284612923565b50505b5050565b6040517f72b8cbcc0000000000000000000000000000000000000000000000000000000081526000906001600160a01b037f000000000000000000000000000000000000000000000000000000000000000016906372b8cbcc90612edb908690600401613553565b60206040518083038186803b158015612ef357600080fd5b505afa158015612f07573d6000803e3d6000fd5b505050506040513d601f19601f82011682018060405250810190612f2b9190613199565b90506001600160a01b038116612f4157506129b0565b612e6c8482846040516370a0823160e01b81526000906001600160a01b038516906370a0823190612f76903090600401613553565b60206040518083038186803b158015612f8e57600080fd5b505afa158015612fa2573d6000803e3d6000fd5b505050506040513d601f19601f82011682018060405250810190612fc691906133d4565b905080821115612fd4578091505b8115612e6c57612e6c848484612b3a565b6040518060a0016040528060008152602001600081526020016000815260200160008152602001600081525090565b828054600181600116156101000203166002900490600052602060002090601f016020900481019282601f1061305557805160ff1916838001178555613082565b82800160010185558215613082579182015b82811115613082578251825591602001919060010190613067565b5061308e9291506130b0565b5090565b6040518060a001604052806005906020820280368337509192915050565b5b8082111561308e57600081556001016130b1565b600082601f8301126130d5578081fd5b813567ffffffffffffffff8111156130eb578182fd5b6130fe6020601f19601f84011601613b67565b915080825283602082850101111561311557600080fd5b8060208401602084013760009082016020015292915050565b600060a0828403121561313f578081fd5b61314960a0613b67565b9050813581526020820135602082015260408201356040820152606082013560608201526080820135608082015292915050565b60006020828403121561318e578081fd5b813561104781613bba565b6000602082840312156131aa578081fd5b815161104781613bba565b600080604083850312156131c7578081fd5b82356131d281613bba565b915060208301356131e281613bba565b809150509250929050565b60008060008060008060c08789031215613205578182fd5b863561321081613bba565b9550602087013561322081613bba565b9450604087013567ffffffffffffffff8082111561323c578384fd5b6132488a838b016130c5565b9550606089013591508082111561325d578384fd5b5061326a89828a016130c5565b9350506080870135915060a087013590509295509295509295565b600080600060608486031215613299578283fd5b83356132a481613bba565b925060208401356132b481613bba565b929592945050506040919091013590565b600080600080600080600060e0888a0312156132df578081fd5b87356132ea81613bba565b965060208801356132fa81613bba565b95506040880135945060608801359350608088013560ff8116811461331d578182fd5b9699959850939692959460a0840135945060c09093013592915050565b6000806040838503121561334c578182fd5b823561335781613bba565b946020939093013593505050565b600080600060608486031215613379578283fd5b833561338481613bba565b95602085013595506040909401359392505050565b6000602082840312156133aa578081fd5b81518015158114611047578182fd5b600060a082840312156133ca578081fd5b611047838361312e565b6000602082840312156133e5578081fd5b5051919050565b60008060c083850312156133fe578182fd5b823591506116d8846020850161312e565b60008060408385031215613421578182fd5b50508035926020909101359150565b600080600060e08486031215613444578081fd5b833592506020840135915061345c856040860161312e565b90509250925092565b6000806000806080858703121561347a578182fd5b5050823594602084013594506040840135936060013592509050565b600080600080600060a086880312156134ad578283fd5b5050835160208501516040860151606087015160809097015192989197509594509092509050565b600081518084526134ed816020860160208601613b8e565b601f01601f19169290920160200192915050565b60008251613513818460208701613b8e565b9190910192915050565b7f190100000000000000000000000000000000000000000000000000000000000081526002810192909252602282015260420190565b6001600160a01b0391909116815260200190565b6001600160a01b039485168152928416602084015292166040820152606081019190915260800190565b6001600160a01b0394851681529290931660208301526040820152606081019190915260800190565b6001600160a01b03929092168252602082015260400190565b60006001600160a01b038516825260ff84166020830152606060408301526135fe60608301846134d5565b95945050505050565b901515815260200190565b90815260200190565b9586526001600160a01b0394851660208701529290931660408501526060840152608083019190915260a082015260c00190565b93845260ff9290921660208401526040830152606082015260800190565b60006020825261104760208301846134d5565b6020808252600d908201527f43506169723a204c4f434b454400000000000000000000000000000000000000604082015260600190565b60208082526019908201527f4345524332303a20494e56414c49445f5349474e415455524500000000000000604082015260600190565b6020808252601b908201527f536166654d6174683a206164646974696f6e206f766572666c6f770000000000604082015260600190565b6020808252601e908201527f536166654d6174683a207375627472616374696f6e206f766572666c6f770000604082015260600190565b60208082526011908201527f43506169723a20494e56414c49445f544f000000000000000000000000000000604082015260600190565b6020808252601a908201527f536166654d6174683a206469766973696f6e206279207a65726f000000000000604082015260600190565b6020808252601a908201527f43506169723a20696e76616c696420617373657420726174696f000000000000604082015260600190565b60208082526021908201527f536166654d6174683a206d756c7469706c69636174696f6e206f766572666c6f60408201527f7700000000000000000000000000000000000000000000000000000000000000606082015260800190565b6020808252600f908201527f4345524332303a20455850495245440000000000000000000000000000000000604082015260600190565b60208082526015908201527f43506169723a2077726f6e67206f7574546f6b656e0000000000000000000000604082015260600190565b60208082526016908201527f43506169723a20696c6c6567616c20616d6d6f756e7400000000000000000000604082015260600190565b6020808252601d908201527f43506169723a2053484f52545f4c49515549444954595f4255524e4544000000604082015260600190565b6020808252601d908201527f43506169723a2053484f52545f4c49515549444954595f4d494e544544000000604082015260600190565b60208082526010908201527f43506169723a20464f5242494444454e00000000000000000000000000000000604082015260600190565b60208082526023908201527f5472616e7366657248656c7065723a204554485f5452414e534645525f46414960408201527f4c45440000000000000000000000000000000000000000000000000000000000606082015260800190565b60208082526016908201527f43506169723a205452414e534645525f4641494c454400000000000000000000604082015260600190565b6020808252600f908201527f43506169723a204f564552464c4f570000000000000000000000000000000000604082015260600190565b60208082526015908201527f43506169723a2077726f6e6720616d6f756e74496e0000000000000000000000604082015260600190565b6dffffffffffffffffffffffffffff92831681529116602082015260400190565b918252602082015260400190565b92835260208301919091526001600160a01b0316604082015260600190565b9283526020830191909152604082015260600190565b60006101008201905085825260208581840152846040840152606083018460005b6005811015613b4c57815183529183019190830190600101613b2f565b5050505095945050505050565b60ff91909116815260200190565b60405181810167ffffffffffffffff81118282101715613b8657600080fd5b604052919050565b60005b83811015613ba9578181015183820152602001613b91565b83811115612e6c5750506000910152565b6001600160a01b0381168114613bcf57600080fd5b5056fea26469706673582212209e183d790e5eaeba070a07cd70ba7d6c523a09710f9b12b30185afe000565a3664736f6c634300060c0033a264697066735822122078f9eda5c66b9ea77eb9373a537d6446e5f6d71ffc05adffd70caef32aa7695c64736f6c634300060c0033",
  "immutableReferences": {
    "16465": [
      {
        "length": 32,
        "start": 1805
      },
      {
        "length": 32,
        "start": 3290
      }
    ]
  },
  "source": "// SPDX-License-Identifier: GPL-3.0-or-later\npragma experimental ABIEncoderV2;\npragma solidity 0.6.12;\n\nimport \"./interface/ICoFiXV2Factory.sol\";\nimport \"./interface/ICoFiXV2Controller.sol\";\nimport \"./CoFiXV2Pair.sol\";\nimport \"./interface/ICoFiXV2Pair.sol\";\n\n// Factory of CoFiX to create new CoFiXPair contract when new pair is created, managed by governance\n// Governance role of this contract should be the `Timelock` contract, which is further managed by a multisig contract\ncontract CoFiXV2Factory is ICoFiXV2Factory {\n\n    string constant internal pairNamePrefix = \"XToken \";\n    string constant internal pairSymbolPrefix = \"XT-\";\n\n    mapping(address => address) public override getPair;\n    address[] public override allPairs;\n    address public immutable WETH;\n    address public governance;\n    address public controller;\n    address public feeReceiver;\n\n    address public vaultForLP;\n    address public vaultForTrader;\n    address public vaultForCNode;\n\n    address public dao;\n\n    mapping (address => bool) public override getTradeMiningStatus; // token -> bool\n    mapping (address => address) public override getFeeVaultForLP; // token -> fee vault pool\n\n    modifier onlyGovernance() {\n        require(msg.sender == governance, \"CFactory: !governance\");\n        _;\n    }\n\n    constructor(address _WETH) public {\n        governance = msg.sender;\n        feeReceiver = msg.sender; // set feeReceiver to a feeReceiver contract later\n        WETH = _WETH;\n    }\n\n    function allPairsLength() external override view returns (uint256) {\n        return allPairs.length;\n    }\n\n    function pairCodeHash() external pure returns (bytes32) {\n        return keccak256(type(CoFiXV2Pair).creationCode);\n    }\n\n    function createPair(address token, uint256 initToken0Amount, uint256 initToken1Amount) external override onlyGovernance returns (address pair) {\n        require(token != address(0), 'CFactory: ZERO_ADDRESS');\n        require(getPair[token] == address(0), 'CFactory: PAIR_EXISTS');\n        require(initToken0Amount > 0 && initToken1Amount > 0, \"CFactory: ILLEGAL_AMOUNT\");\n\n        bytes memory bytecode = type(CoFiXV2Pair).creationCode;\n        bytes32 salt = keccak256(abi.encodePacked(token));\n        assembly {\n            pair := create2(0, add(bytecode, 32), mload(bytecode), salt)\n        }\n        require(pair != address(0), \"CFactory: Failed on deploy\");\n\n        getPair[token] = pair;\n        allPairs.push(pair);\n\n        uint256 pairLen = allPairs.length;\n        string memory _idx = uint2str(pairLen);\n        string memory _name = append(pairNamePrefix, _idx);\n        string memory _symbol = append(pairSymbolPrefix, _idx);\n        ICoFiXV2Pair(pair).initialize(WETH, token, _name, _symbol, initToken0Amount, initToken1Amount);\n\n        ICoFiXV2Controller(controller).addCaller(pair);\n        emit PairCreated(token, pair, pairLen);\n    }\n\n    function setGovernance(address _new) external override onlyGovernance {\n        require(_new != address(0), \"CFactory: zero addr\");\n        require(_new != governance, \"CFactory: same addr\");\n        governance = _new;\n        emit NewGovernance(_new);\n    }\n    \n    function setController(address _new) external override onlyGovernance {\n        require(_new != address(0), \"CFactory: zero addr\");\n        require(_new != controller, \"CFactory: same addr\");\n        controller = _new;\n        emit NewController(_new);\n    }\n\n    function setFeeReceiver(address _new) external override onlyGovernance {\n        require(_new != address(0), \"CFactory: zero addr\");\n        require(_new != feeReceiver, \"CFactory: same addr\");\n        feeReceiver = _new;\n        emit NewFeeReceiver(_new);\n    }\n\n    function setFeeVaultForLP(address token, address feeVault) external override onlyGovernance {\n        getFeeVaultForLP[token] = feeVault;\n        emit NewFeeVaultForLP(token, feeVault);\n    }\n\n    function setVaultForLP(address _new) external override onlyGovernance {\n        require(_new != address(0), \"CFactory: zero addr\");\n        require(_new != vaultForLP, \"CFactory: same addr\");\n        vaultForLP = _new;\n        emit NewVaultForLP(_new);\n    }\n\n    function setVaultForTrader(address _new) external override onlyGovernance {\n        require(_new != address(0), \"CFactory: zero addr\");\n        require(_new != vaultForTrader, \"CFactory: same addr\");\n        vaultForTrader = _new;\n        emit NewVaultForTrader(_new);\n    }\n\n    function setVaultForCNode(address _new) external override onlyGovernance {\n        require(_new != address(0), \"CFactory: zero addr\");\n        require(_new != vaultForCNode, \"CFactory: same addr\");\n        vaultForCNode = _new;\n        emit NewVaultForCNode(_new);\n    }\n\n    function setDAO(address _new) external override onlyGovernance {\n        require(_new != address(0), \"CFactory: zero addr\");\n        require(_new != dao, \"CFactory: same addr\");\n        dao = _new;\n        emit NewDAO(_new);\n    }\n\n    function setTradeMiningStatus(address token, bool status) external override onlyGovernance {\n        getTradeMiningStatus[token] = status;\n    }\n\n    function getController() external view override returns (address) {\n        return controller;\n    }\n\n    function getFeeReceiver() external view override returns (address) {\n        return feeReceiver;\n    }\n\n    function getVaultForLP() external view override returns (address) {\n        return vaultForLP;\n    }\n\n    function getVaultForTrader() external view override returns (address) {\n        return vaultForTrader;\n    }\n\n    function getVaultForCNode() external view override returns (address) {\n        return vaultForCNode;\n    }\n\n    function getDAO() external view override returns (address) {\n        return dao;\n    }\n\n    // internal helpers\n\n    function append(string memory a, string memory b) internal pure returns (string memory) {\n        return string(abi.encodePacked(a, b));\n    }\n\n    function uint2str(uint _i) internal pure returns (string memory) {\n        if (_i == 0) {\n            return \"0\";\n        }\n        uint j = _i;\n        uint len;\n        while (j != 0) {\n            len++;\n            j /= 10;\n        }\n        bytes memory bstr = new bytes(len);\n        uint k = len - 1;\n        while (_i != 0) {\n            bstr[k--] = byte(uint8(48 + _i % 10));\n            _i /= 10;\n        }\n        return string(bstr);\n    }\n}\n",
  "sourcePath": "/Users/lixiansheng/Downloads/CoFix/contracts/CoFiXV2Factory.sol",
  "compiler": {
    "name": "solc",
    "version": "0.6.12+commit.27d51765.Emscripten.clang"
  },
  "schemaVersion": "3.3.3",
  "updatedAt": "2021-05-11T03:51:12.786Z",
  "networkType": "ethereum",
  "devdoc": {
    "kind": "dev",
    "methods": {
      "createPair(address,uint256,uint256)": {
        "details": "Create a new token pair for trading",
        "params": {
          "initToken0Amount": "the initial asset ratio (initToken0Amount:initToken1Amount)",
          "initToken1Amount": "the initial asset ratio (initToken0Amount:initToken1Amount)",
          "token": "the address of token to trade"
        },
        "returns": {
          "pair": "the address of new token pair"
        }
      }
    },
    "version": 1
  },
  "userdoc": {
    "kind": "user",
    "methods": {},
    "version": 1
  }
}