{
  "contractName": "CoFiXV2Pair",
  "abi": [
    {
      "inputs": [],
      "stateMutability": "nonpayable",
      "type": "constructor"
    },
    {
      "anonymous": false,
      "inputs": [
        {
          "indexed": true,
          "internalType": "address",
          "name": "owner",
          "type": "address"
        },
        {
          "indexed": true,
          "internalType": "address",
          "name": "spender",
          "type": "address"
        },
        {
          "indexed": false,
          "internalType": "uint256",
          "name": "value",
          "type": "uint256"
        }
      ],
      "name": "Approval",
      "type": "event"
    },
    {
      "anonymous": false,
      "inputs": [
        {
          "indexed": true,
          "internalType": "address",
          "name": "sender",
          "type": "address"
        },
        {
          "indexed": false,
          "internalType": "address",
          "name": "outToken",
          "type": "address"
        },
        {
          "indexed": false,
          "internalType": "uint256",
          "name": "outAmount",
          "type": "uint256"
        },
        {
          "indexed": true,
          "internalType": "address",
          "name": "to",
          "type": "address"
        }
      ],
      "name": "Burn",
      "type": "event"
    },
    {
      "anonymous": false,
      "inputs": [
        {
          "indexed": true,
          "internalType": "address",
          "name": "sender",
          "type": "address"
        },
        {
          "indexed": false,
          "internalType": "uint256",
          "name": "amount0",
          "type": "uint256"
        },
        {
          "indexed": false,
          "internalType": "uint256",
          "name": "amount1",
          "type": "uint256"
        }
      ],
      "name": "Mint",
      "type": "event"
    },
    {
      "anonymous": false,
      "inputs": [
        {
          "indexed": true,
          "internalType": "address",
          "name": "sender",
          "type": "address"
        },
        {
          "indexed": false,
          "internalType": "uint256",
          "name": "amountIn",
          "type": "uint256"
        },
        {
          "indexed": false,
          "internalType": "uint256",
          "name": "amountOut",
          "type": "uint256"
        },
        {
          "indexed": false,
          "internalType": "address",
          "name": "outToken",
          "type": "address"
        },
        {
          "indexed": true,
          "internalType": "address",
          "name": "to",
          "type": "address"
        }
      ],
      "name": "Swap",
      "type": "event"
    },
    {
      "anonymous": false,
      "inputs": [
        {
          "indexed": false,
          "internalType": "uint112",
          "name": "reserve0",
          "type": "uint112"
        },
        {
          "indexed": false,
          "internalType": "uint112",
          "name": "reserve1",
          "type": "uint112"
        }
      ],
      "name": "Sync",
      "type": "event"
    },
    {
      "anonymous": false,
      "inputs": [
        {
          "indexed": true,
          "internalType": "address",
          "name": "from",
          "type": "address"
        },
        {
          "indexed": true,
          "internalType": "address",
          "name": "to",
          "type": "address"
        },
        {
          "indexed": false,
          "internalType": "uint256",
          "name": "value",
          "type": "uint256"
        }
      ],
      "name": "Transfer",
      "type": "event"
    },
    {
      "inputs": [],
      "name": "DOMAIN_SEPARATOR",
      "outputs": [
        {
          "internalType": "bytes32",
          "name": "",
          "type": "bytes32"
        }
      ],
      "stateMutability": "view",
      "type": "function"
    },
    {
      "inputs": [],
      "name": "K_BASE",
      "outputs": [
        {
          "internalType": "uint256",
          "name": "",
          "type": "uint256"
        }
      ],
      "stateMutability": "view",
      "type": "function"
    },
    {
      "inputs": [],
      "name": "MINIMUM_LIQUIDITY",
      "outputs": [
        {
          "internalType": "uint256",
          "name": "",
          "type": "uint256"
        }
      ],
      "stateMutability": "view",
      "type": "function"
    },
    {
      "inputs": [],
      "name": "NAVPS_BASE",
      "outputs": [
        {
          "internalType": "uint256",
          "name": "",
          "type": "uint256"
        }
      ],
      "stateMutability": "view",
      "type": "function"
    },
    {
      "inputs": [],
      "name": "PERMIT_TYPEHASH",
      "outputs": [
        {
          "internalType": "bytes32",
          "name": "",
          "type": "bytes32"
        }
      ],
      "stateMutability": "view",
      "type": "function"
    },
    {
      "inputs": [],
      "name": "THETA_BASE",
      "outputs": [
        {
          "internalType": "uint256",
          "name": "",
          "type": "uint256"
        }
      ],
      "stateMutability": "view",
      "type": "function"
    },
    {
      "inputs": [
        {
          "internalType": "address",
          "name": "",
          "type": "address"
        },
        {
          "internalType": "address",
          "name": "",
          "type": "address"
        }
      ],
      "name": "allowance",
      "outputs": [
        {
          "internalType": "uint256",
          "name": "",
          "type": "uint256"
        }
      ],
      "stateMutability": "view",
      "type": "function"
    },
    {
      "inputs": [
        {
          "internalType": "address",
          "name": "spender",
          "type": "address"
        },
        {
          "internalType": "uint256",
          "name": "value",
          "type": "uint256"
        }
      ],
      "name": "approve",
      "outputs": [
        {
          "internalType": "bool",
          "name": "",
          "type": "bool"
        }
      ],
      "stateMutability": "nonpayable",
      "type": "function"
    },
    {
      "inputs": [
        {
          "internalType": "address",
          "name": "",
          "type": "address"
        }
      ],
      "name": "balanceOf",
      "outputs": [
        {
          "internalType": "uint256",
          "name": "",
          "type": "uint256"
        }
      ],
      "stateMutability": "view",
      "type": "function"
    },
    {
      "inputs": [],
      "name": "decimals",
      "outputs": [
        {
          "internalType": "uint8",
          "name": "",
          "type": "uint8"
        }
      ],
      "stateMutability": "view",
      "type": "function"
    },
    {
      "inputs": [],
      "name": "factory",
      "outputs": [
        {
          "internalType": "address",
          "name": "",
          "type": "address"
        }
      ],
      "stateMutability": "view",
      "type": "function"
    },
    {
      "inputs": [],
      "name": "initToken0Amount",
      "outputs": [
        {
          "internalType": "uint256",
          "name": "",
          "type": "uint256"
        }
      ],
      "stateMutability": "view",
      "type": "function"
    },
    {
      "inputs": [],
      "name": "initToken1Amount",
      "outputs": [
        {
          "internalType": "uint256",
          "name": "",
          "type": "uint256"
        }
      ],
      "stateMutability": "view",
      "type": "function"
    },
    {
      "inputs": [],
      "name": "name",
      "outputs": [
        {
          "internalType": "string",
          "name": "",
          "type": "string"
        }
      ],
      "stateMutability": "view",
      "type": "function"
    },
    {
      "inputs": [],
      "name": "nameForDomain",
      "outputs": [
        {
          "internalType": "string",
          "name": "",
          "type": "string"
        }
      ],
      "stateMutability": "view",
      "type": "function"
    },
    {
      "inputs": [
        {
          "internalType": "address",
          "name": "",
          "type": "address"
        }
      ],
      "name": "nonces",
      "outputs": [
        {
          "internalType": "uint256",
          "name": "",
          "type": "uint256"
        }
      ],
      "stateMutability": "view",
      "type": "function"
    },
    {
      "inputs": [
        {
          "internalType": "address",
          "name": "owner",
          "type": "address"
        },
        {
          "internalType": "address",
          "name": "spender",
          "type": "address"
        },
        {
          "internalType": "uint256",
          "name": "value",
          "type": "uint256"
        },
        {
          "internalType": "uint256",
          "name": "deadline",
          "type": "uint256"
        },
        {
          "internalType": "uint8",
          "name": "v",
          "type": "uint8"
        },
        {
          "internalType": "bytes32",
          "name": "r",
          "type": "bytes32"
        },
        {
          "internalType": "bytes32",
          "name": "s",
          "type": "bytes32"
        }
      ],
      "name": "permit",
      "outputs": [],
      "stateMutability": "nonpayable",
      "type": "function"
    },
    {
      "inputs": [],
      "name": "symbol",
      "outputs": [
        {
          "internalType": "string",
          "name": "",
          "type": "string"
        }
      ],
      "stateMutability": "view",
      "type": "function"
    },
    {
      "inputs": [],
      "name": "token0",
      "outputs": [
        {
          "internalType": "address",
          "name": "",
          "type": "address"
        }
      ],
      "stateMutability": "view",
      "type": "function"
    },
    {
      "inputs": [],
      "name": "token1",
      "outputs": [
        {
          "internalType": "address",
          "name": "",
          "type": "address"
        }
      ],
      "stateMutability": "view",
      "type": "function"
    },
    {
      "inputs": [],
      "name": "totalSupply",
      "outputs": [
        {
          "internalType": "uint256",
          "name": "",
          "type": "uint256"
        }
      ],
      "stateMutability": "view",
      "type": "function"
    },
    {
      "inputs": [
        {
          "internalType": "address",
          "name": "to",
          "type": "address"
        },
        {
          "internalType": "uint256",
          "name": "value",
          "type": "uint256"
        }
      ],
      "name": "transfer",
      "outputs": [
        {
          "internalType": "bool",
          "name": "",
          "type": "bool"
        }
      ],
      "stateMutability": "nonpayable",
      "type": "function"
    },
    {
      "inputs": [
        {
          "internalType": "address",
          "name": "from",
          "type": "address"
        },
        {
          "internalType": "address",
          "name": "to",
          "type": "address"
        },
        {
          "internalType": "uint256",
          "name": "value",
          "type": "uint256"
        }
      ],
      "name": "transferFrom",
      "outputs": [
        {
          "internalType": "bool",
          "name": "",
          "type": "bool"
        }
      ],
      "stateMutability": "nonpayable",
      "type": "function"
    },
    {
      "stateMutability": "payable",
      "type": "receive"
    },
    {
      "inputs": [
        {
          "internalType": "address",
          "name": "_token0",
          "type": "address"
        },
        {
          "internalType": "address",
          "name": "_token1",
          "type": "address"
        },
        {
          "internalType": "string",
          "name": "_name",
          "type": "string"
        },
        {
          "internalType": "string",
          "name": "_symbol",
          "type": "string"
        },
        {
          "internalType": "uint256",
          "name": "_initToken0Amount",
          "type": "uint256"
        },
        {
          "internalType": "uint256",
          "name": "_initToken1Amount",
          "type": "uint256"
        }
      ],
      "name": "initialize",
      "outputs": [],
      "stateMutability": "nonpayable",
      "type": "function"
    },
    {
      "inputs": [],
      "name": "getInitialAssetRatio",
      "outputs": [
        {
          "internalType": "uint256",
          "name": "_initToken0Amount",
          "type": "uint256"
        },
        {
          "internalType": "uint256",
          "name": "_initToken1Amount",
          "type": "uint256"
        }
      ],
      "stateMutability": "view",
      "type": "function"
    },
    {
      "inputs": [],
      "name": "getReserves",
      "outputs": [
        {
          "internalType": "uint112",
          "name": "_reserve0",
          "type": "uint112"
        },
        {
          "internalType": "uint112",
          "name": "_reserve1",
          "type": "uint112"
        }
      ],
      "stateMutability": "view",
      "type": "function"
    },
    {
      "inputs": [
        {
          "internalType": "address",
          "name": "to",
          "type": "address"
        },
        {
          "internalType": "uint256",
          "name": "amountETH",
          "type": "uint256"
        },
        {
          "internalType": "uint256",
          "name": "amountToken",
          "type": "uint256"
        }
      ],
      "name": "mint",
      "outputs": [
        {
          "internalType": "uint256",
          "name": "liquidity",
          "type": "uint256"
        },
        {
          "internalType": "uint256",
          "name": "oracleFeeChange",
          "type": "uint256"
        }
      ],
      "stateMutability": "payable",
      "type": "function"
    },
    {
      "inputs": [
        {
          "internalType": "address",
          "name": "tokenTo",
          "type": "address"
        },
        {
          "internalType": "address",
          "name": "ethTo",
          "type": "address"
        }
      ],
      "name": "burn",
      "outputs": [
        {
          "internalType": "uint256",
          "name": "amountTokenOut",
          "type": "uint256"
        },
        {
          "internalType": "uint256",
          "name": "amountEthOut",
          "type": "uint256"
        },
        {
          "internalType": "uint256",
          "name": "oracleFeeChange",
          "type": "uint256"
        }
      ],
      "stateMutability": "payable",
      "type": "function"
    },
    {
      "inputs": [
        {
          "internalType": "address",
          "name": "outToken",
          "type": "address"
        },
        {
          "internalType": "address",
          "name": "to",
          "type": "address"
        }
      ],
      "name": "swapWithExact",
      "outputs": [
        {
          "internalType": "uint256",
          "name": "amountIn",
          "type": "uint256"
        },
        {
          "internalType": "uint256",
          "name": "amountOut",
          "type": "uint256"
        },
        {
          "internalType": "uint256",
          "name": "oracleFeeChange",
          "type": "uint256"
        },
        {
          "internalType": "uint256[5]",
          "name": "tradeInfo",
          "type": "uint256[5]"
        }
      ],
      "stateMutability": "payable",
      "type": "function"
    },
    {
      "inputs": [
        {
          "internalType": "address",
          "name": "to",
          "type": "address"
        }
      ],
      "name": "skim",
      "outputs": [],
      "stateMutability": "nonpayable",
      "type": "function"
    },
    {
      "inputs": [],
      "name": "sync",
      "outputs": [],
      "stateMutability": "nonpayable",
      "type": "function"
    },
    {
      "inputs": [
        {
          "internalType": "uint256",
          "name": "balance0",
          "type": "uint256"
        },
        {
          "internalType": "uint256",
          "name": "balance1",
          "type": "uint256"
        },
        {
          "components": [
            {
              "internalType": "uint256",
              "name": "ethAmount",
              "type": "uint256"
            },
            {
              "internalType": "uint256",
              "name": "erc20Amount",
              "type": "uint256"
            },
            {
              "internalType": "uint256",
              "name": "blockNum",
              "type": "uint256"
            },
            {
              "internalType": "uint256",
              "name": "K",
              "type": "uint256"
            },
            {
              "internalType": "uint256",
              "name": "theta",
              "type": "uint256"
            }
          ],
          "internalType": "struct ICoFiXV2Pair.OraclePrice",
          "name": "_op",
          "type": "tuple"
        }
      ],
      "name": "calcNAVPerShareForMint",
      "outputs": [
        {
          "internalType": "uint256",
          "name": "navps",
          "type": "uint256"
        }
      ],
      "stateMutability": "view",
      "type": "function"
    },
    {
      "inputs": [
        {
          "internalType": "uint256",
          "name": "balance0",
          "type": "uint256"
        },
        {
          "internalType": "uint256",
          "name": "balance1",
          "type": "uint256"
        },
        {
          "components": [
            {
              "internalType": "uint256",
              "name": "ethAmount",
              "type": "uint256"
            },
            {
              "internalType": "uint256",
              "name": "erc20Amount",
              "type": "uint256"
            },
            {
              "internalType": "uint256",
              "name": "blockNum",
              "type": "uint256"
            },
            {
              "internalType": "uint256",
              "name": "K",
              "type": "uint256"
            },
            {
              "internalType": "uint256",
              "name": "theta",
              "type": "uint256"
            }
          ],
          "internalType": "struct ICoFiXV2Pair.OraclePrice",
          "name": "_op",
          "type": "tuple"
        }
      ],
      "name": "calcNAVPerShareForBurn",
      "outputs": [
        {
          "internalType": "uint256",
          "name": "navps",
          "type": "uint256"
        }
      ],
      "stateMutability": "view",
      "type": "function"
    },
    {
      "inputs": [
        {
          "internalType": "uint256",
          "name": "balance0",
          "type": "uint256"
        },
        {
          "internalType": "uint256",
          "name": "balance1",
          "type": "uint256"
        },
        {
          "internalType": "uint256",
          "name": "ethAmount",
          "type": "uint256"
        },
        {
          "internalType": "uint256",
          "name": "erc20Amount",
          "type": "uint256"
        }
      ],
      "name": "calcNAVPerShare",
      "outputs": [
        {
          "internalType": "uint256",
          "name": "navps",
          "type": "uint256"
        }
      ],
      "stateMutability": "view",
      "type": "function"
    },
    {
      "inputs": [
        {
          "internalType": "uint256",
          "name": "amount0",
          "type": "uint256"
        },
        {
          "internalType": "uint256",
          "name": "navps",
          "type": "uint256"
        }
      ],
      "name": "calcLiquidity",
      "outputs": [
        {
          "internalType": "uint256",
          "name": "liquidity",
          "type": "uint256"
        }
      ],
      "stateMutability": "pure",
      "type": "function"
    },
    {
      "inputs": [
        {
          "components": [
            {
              "internalType": "uint256",
              "name": "ethAmount",
              "type": "uint256"
            },
            {
              "internalType": "uint256",
              "name": "erc20Amount",
              "type": "uint256"
            },
            {
              "internalType": "uint256",
              "name": "blockNum",
              "type": "uint256"
            },
            {
              "internalType": "uint256",
              "name": "K",
              "type": "uint256"
            },
            {
              "internalType": "uint256",
              "name": "theta",
              "type": "uint256"
            }
          ],
          "internalType": "struct ICoFiXV2Pair.OraclePrice",
          "name": "_op",
          "type": "tuple"
        }
      ],
      "name": "getNAVPerShareForMint",
      "outputs": [
        {
          "internalType": "uint256",
          "name": "navps",
          "type": "uint256"
        }
      ],
      "stateMutability": "view",
      "type": "function"
    },
    {
      "inputs": [
        {
          "components": [
            {
              "internalType": "uint256",
              "name": "ethAmount",
              "type": "uint256"
            },
            {
              "internalType": "uint256",
              "name": "erc20Amount",
              "type": "uint256"
            },
            {
              "internalType": "uint256",
              "name": "blockNum",
              "type": "uint256"
            },
            {
              "internalType": "uint256",
              "name": "K",
              "type": "uint256"
            },
            {
              "internalType": "uint256",
              "name": "theta",
              "type": "uint256"
            }
          ],
          "internalType": "struct ICoFiXV2Pair.OraclePrice",
          "name": "_op",
          "type": "tuple"
        }
      ],
      "name": "getNAVPerShareForBurn",
      "outputs": [
        {
          "internalType": "uint256",
          "name": "navps",
          "type": "uint256"
        }
      ],
      "stateMutability": "view",
      "type": "function"
    },
    {
      "inputs": [
        {
          "internalType": "uint256",
          "name": "ethAmount",
          "type": "uint256"
        },
        {
          "internalType": "uint256",
          "name": "erc20Amount",
          "type": "uint256"
        }
      ],
      "name": "getNAVPerShare",
      "outputs": [
        {
          "internalType": "uint256",
          "name": "navps",
          "type": "uint256"
        }
      ],
      "stateMutability": "view",
      "type": "function"
    },
    {
      "inputs": [
        {
          "internalType": "uint256",
          "name": "amount0",
          "type": "uint256"
        },
        {
          "components": [
            {
              "internalType": "uint256",
              "name": "ethAmount",
              "type": "uint256"
            },
            {
              "internalType": "uint256",
              "name": "erc20Amount",
              "type": "uint256"
            },
            {
              "internalType": "uint256",
              "name": "blockNum",
              "type": "uint256"
            },
            {
              "internalType": "uint256",
              "name": "K",
              "type": "uint256"
            },
            {
              "internalType": "uint256",
              "name": "theta",
              "type": "uint256"
            }
          ],
          "internalType": "struct ICoFiXV2Pair.OraclePrice",
          "name": "_op",
          "type": "tuple"
        }
      ],
      "name": "getLiquidity",
      "outputs": [
        {
          "internalType": "uint256",
          "name": "liquidity",
          "type": "uint256"
        }
      ],
      "stateMutability": "view",
      "type": "function"
    },
    {
      "inputs": [
        {
          "internalType": "uint256",
          "name": "liquidity",
          "type": "uint256"
        },
        {
          "components": [
            {
              "internalType": "uint256",
              "name": "ethAmount",
              "type": "uint256"
            },
            {
              "internalType": "uint256",
              "name": "erc20Amount",
              "type": "uint256"
            },
            {
              "internalType": "uint256",
              "name": "blockNum",
              "type": "uint256"
            },
            {
              "internalType": "uint256",
              "name": "K",
              "type": "uint256"
            },
            {
              "internalType": "uint256",
              "name": "theta",
              "type": "uint256"
            }
          ],
          "internalType": "struct ICoFiXV2Pair.OraclePrice",
          "name": "_op",
          "type": "tuple"
        }
      ],
      "name": "calcOutTokenAndETHForBurn",
      "outputs": [
        {
          "internalType": "uint256",
          "name": "amountTokenOut",
          "type": "uint256"
        },
        {
          "internalType": "uint256",
          "name": "amountEthOut",
          "type": "uint256"
        },
        {
          "internalType": "uint256",
          "name": "fee",
          "type": "uint256"
        }
      ],
      "stateMutability": "view",
      "type": "function"
    },
    {
      "inputs": [
        {
          "internalType": "uint256",
          "name": "amountIn",
          "type": "uint256"
        },
        {
          "components": [
            {
              "internalType": "uint256",
              "name": "ethAmount",
              "type": "uint256"
            },
            {
              "internalType": "uint256",
              "name": "erc20Amount",
              "type": "uint256"
            },
            {
              "internalType": "uint256",
              "name": "blockNum",
              "type": "uint256"
            },
            {
              "internalType": "uint256",
              "name": "K",
              "type": "uint256"
            },
            {
              "internalType": "uint256",
              "name": "theta",
              "type": "uint256"
            }
          ],
          "internalType": "struct ICoFiXV2Pair.OraclePrice",
          "name": "_op",
          "type": "tuple"
        }
      ],
      "name": "calcOutToken0",
      "outputs": [
        {
          "internalType": "uint256",
          "name": "amountOut",
          "type": "uint256"
        },
        {
          "internalType": "uint256",
          "name": "fee",
          "type": "uint256"
        }
      ],
      "stateMutability": "pure",
      "type": "function"
    },
    {
      "inputs": [
        {
          "internalType": "uint256",
          "name": "amountIn",
          "type": "uint256"
        },
        {
          "components": [
            {
              "internalType": "uint256",
              "name": "ethAmount",
              "type": "uint256"
            },
            {
              "internalType": "uint256",
              "name": "erc20Amount",
              "type": "uint256"
            },
            {
              "internalType": "uint256",
              "name": "blockNum",
              "type": "uint256"
            },
            {
              "internalType": "uint256",
              "name": "K",
              "type": "uint256"
            },
            {
              "internalType": "uint256",
              "name": "theta",
              "type": "uint256"
            }
          ],
          "internalType": "struct ICoFiXV2Pair.OraclePrice",
          "name": "_op",
          "type": "tuple"
        }
      ],
      "name": "calcOutToken1",
      "outputs": [
        {
          "internalType": "uint256",
          "name": "amountOut",
          "type": "uint256"
        },
        {
          "internalType": "uint256",
          "name": "fee",
          "type": "uint256"
        }
      ],
      "stateMutability": "pure",
      "type": "function"
    },
    {
      "inputs": [
        {
          "internalType": "uint256",
          "name": "amountOut",
          "type": "uint256"
        },
        {
          "components": [
            {
              "internalType": "uint256",
              "name": "ethAmount",
              "type": "uint256"
            },
            {
              "internalType": "uint256",
              "name": "erc20Amount",
              "type": "uint256"
            },
            {
              "internalType": "uint256",
              "name": "blockNum",
              "type": "uint256"
            },
            {
              "internalType": "uint256",
              "name": "K",
              "type": "uint256"
            },
            {
              "internalType": "uint256",
              "name": "theta",
              "type": "uint256"
            }
          ],
          "internalType": "struct ICoFiXV2Pair.OraclePrice",
          "name": "_op",
          "type": "tuple"
        }
      ],
      "name": "calcInNeededToken0",
      "outputs": [
        {
          "internalType": "uint256",
          "name": "amountInNeeded",
          "type": "uint256"
        },
        {
          "internalType": "uint256",
          "name": "fee",
          "type": "uint256"
        }
      ],
      "stateMutability": "pure",
      "type": "function"
    },
    {
      "inputs": [
        {
          "internalType": "uint256",
          "name": "amountOut",
          "type": "uint256"
        },
        {
          "components": [
            {
              "internalType": "uint256",
              "name": "ethAmount",
              "type": "uint256"
            },
            {
              "internalType": "uint256",
              "name": "erc20Amount",
              "type": "uint256"
            },
            {
              "internalType": "uint256",
              "name": "blockNum",
              "type": "uint256"
            },
            {
              "internalType": "uint256",
              "name": "K",
              "type": "uint256"
            },
            {
              "internalType": "uint256",
              "name": "theta",
              "type": "uint256"
            }
          ],
          "internalType": "struct ICoFiXV2Pair.OraclePrice",
          "name": "_op",
          "type": "tuple"
        }
      ],
      "name": "calcInNeededToken1",
      "outputs": [
        {
          "internalType": "uint256",
          "name": "amountInNeeded",
          "type": "uint256"
        },
        {
          "internalType": "uint256",
          "name": "fee",
          "type": "uint256"
        }
      ],
      "stateMutability": "pure",
      "type": "function"
    }
  ],
  "bytecode": "0x60a06040526001600c553480156200001657600080fd5b50604080518082018252601081526f21b7a334ac102837b7b6102a37b5b2b760811b6020918201528151808301835260018152603160f81b9082015290514691620000cc917f8b73c3c69bb8fe3d512ecc4cf759cc79239f7b179b0ffacaa9a75d522b39400f917f70f1d8d3a2b874a116643bbbdb7e2937ce56e0359f9c3070aac2ec77a8354ccc917fc89efdaa54c0f20c7adf612882df0950f5a951637e0307cdcb4c672f298b8bc6918691309101620000f5565b60408051601f198184030181529190528051602090910120600355503360601b60805262000121565b9485526020850193909352604084019190915260608301526001600160a01b0316608082015260a00190565b60805160601c613c086200015d6000398061129452806116ff5280611ce052806121ad52806126605280612cb05280612ea65250613c086000f3fe6080604052600436106102eb5760003560e01c806395d89b4111610184578063bc25cf77116100d6578063d385a3ad1161008a578063e5eac39011610064578063e5eac39014610787578063f22e2ae0146107a7578063fff6cae9146107bc576102f2565b8063d385a3ad14610727578063d505accf14610747578063dd62ed3e14610767576102f2565b8063bf36aac2116100bb578063bf36aac2146106dd578063c45a0155146106fd578063d21220a714610712576102f2565b8063bc25cf77146106bd578063be5b32f8146104ba576102f2565b8063a661dbda11610138578063ac931c5a11610112578063ac931c5a14610668578063b72bda4a14610688578063ba9a7a56146106a8576102f2565b8063a661dbda14610633578063a9059cbb14610648578063aaf07e9214610490576102f2565b80639c673c52116101695780639c673c52146105db5780639f44296a146105fb578063a1da4d241461061e576102f2565b806395d89b41146105a657806399f45e48146105bb576102f2565b8063313ce5671161023d5780634f6ec2dd116101f157806379c2c954116101cb57806379c2c9541461054f5780637ecebe00146105715780638a2ffb9614610591576102f2565b80634f6ec2dd146104fa5780635ad6bd301461050f57806370a082311461052f576102f2565b80633644e515116102225780633644e515146104a557806339818b66146104ba57806349a23da0146104da576102f2565b8063313ce5671461046e5780633298613114610490576102f2565b806318160ddd1161029f57806324334be81161027957806324334be81461042657806327fc84a31461044657806330adf81f14610459576102f2565b806318160ddd146103b55780631feb1886146103d757806323b872dd14610406576102f2565b8063095ea7b3116102d0578063095ea7b3146103455780630dfe168114610372578063156e29f614610394576102f2565b806306fdde03146102f75780630902f1ac14610322576102f2565b366102f257005b600080fd5b34801561030357600080fd5b5061030c6107d1565b604051610319919061366d565b60405180910390f35b34801561032e57600080fd5b5061033761087d565b604051610319929190613aaa565b34801561035157600080fd5b5061036561036036600461333a565b6108aa565b6040516103199190613607565b34801561037e57600080fd5b506103876108c1565b6040516103199190613553565b6103a76103a2366004613365565b6108d0565b604051610319929190613acb565b3480156103c157600080fd5b506103ca610c54565b6040516103199190613612565b3480156103e357600080fd5b506103f76103f23660046133ec565b610c5a565b60405161031993929190613af8565b34801561041257600080fd5b50610365610421366004613285565b610f5e565b34801561043257600080fd5b506103ca61044136600461340f565b611010565b6103f76104543660046131b5565b61104e565b34801561046557600080fd5b506103ca6114ff565b34801561047a57600080fd5b50610483611523565b6040516103199190613b59565b34801561049c57600080fd5b506103ca611528565b3480156104b157600080fd5b506103ca611530565b3480156104c657600080fd5b506103ca6104d53660046133b9565b611536565b3480156104e657600080fd5b506103ca6104f5366004613430565b611574565b34801561050657600080fd5b506103ca611631565b34801561051b57600080fd5b506103a761052a3660046133ec565b61163d565b34801561053b57600080fd5b506103ca61054a36600461317d565b6116e2565b34801561055b57600080fd5b5061056f61056a3660046131ed565b6116f4565b005b34801561057d57600080fd5b506103ca61058c36600461317d565b6117b8565b34801561059d57600080fd5b506103ca6117ca565b3480156105b257600080fd5b5061030c6117d0565b3480156105c757600080fd5b506103ca6105d6366004613465565b611849565b3480156105e757600080fd5b506103a76105f63660046133ec565b6118fc565b61060e6106093660046131b5565b611990565b6040516103199493929190613b0e565b34801561062a57600080fd5b506103a7611f0a565b34801561063f57600080fd5b5061030c611f13565b34801561065457600080fd5b5061036561066336600461333a565b611f4c565b34801561067457600080fd5b506103ca61068336600461340f565b611f59565b34801561069457600080fd5b506103ca6106a3366004613430565b611f71565b3480156106b457600080fd5b506103ca611fa7565b3480156106c957600080fd5b5061056f6106d836600461317d565b611faf565b3480156106e957600080fd5b506103a76106f83660046133ec565b6120f1565b34801561070957600080fd5b506103876121ab565b34801561071e57600080fd5b506103876121cf565b34801561073357600080fd5b506103ca6107423660046133ec565b6121de565b34801561075357600080fd5b5061056f6107623660046132c5565b6121fe565b34801561077357600080fd5b506103ca6107823660046131b5565b61236d565b34801561079357600080fd5b506103a76107a23660046133ec565b61238a565b3480156107b357600080fd5b506103ca612451565b3480156107c857600080fd5b5061056f612457565b6005805460408051602060026001851615610100027fffffffffffffffffffffffffffffffffffffffffffffffffffffffffffffffff0190941693909304601f810184900484028201840190925281815292918301828280156108755780601f1061084a57610100808354040283529160200191610875565b820191906000526020600020905b81548152906001019060200180831161085857829003601f168201915b505050505081565b6009546dffffffffffffffffffffffffffff808216926e0100000000000000000000000000009092041690565b60006108b733848461258c565b5060015b92915050565b6007546001600160a01b031681565b600080600c546001146108fe5760405162461bcd60e51b81526004016108f590613680565b60405180910390fd5b6000600c8190556007546008546001600160a01b03918216929116908061092361087d565b915091506000846001600160a01b03166370a08231306040518263ffffffff1660e01b81526004016109559190613553565b60206040518083038186803b15801561096d57600080fd5b505afa158015610981573d6000803e3d6000fd5b505050506040513d601f19601f820116820180604052508101906109a591906133d4565b90506000846001600160a01b03166370a08231306040518263ffffffff1660e01b81526004016109d59190613553565b60206040518083038186803b1580156109ed57600080fd5b505afa158015610a01573d6000803e3d6000fd5b505050506040513d601f19601f82011682018060405250810190610a2591906133d4565b90506000610a43836dffffffffffffffffffffffffffff87166125f4565b90506000610a61836dffffffffffffffffffffffffffff87166125f4565b9050818c11158015610a735750808b11155b610a8f5760405162461bcd60e51b81526004016108f5906138cc565b5050600b548a908a90610aa390829061261c565b600a54610ab190849061261c565b14610ace5760405162461bcd60e51b81526004016108f5906137ca565b60004790506060338f8585604051602001610aec9493929190613591565b6040516020818303038152906040529050610b05612fe5565b610b118a600184612656565b60808601526040850152602084018190528184526060840192909252600091610b51916dffffffffffffffffffffffffffff808e1692908d169190611849565b905060005460001415610b8c57610b76633b9aca00610b708884611f59565b906125f4565b9d50610b876000633b9aca00612790565b610b99565b610b968682611f59565b9d505b50610bb29150610bab905082476125f4565b34906125f4565b995060008b11610bd45760405162461bcd60e51b81526004016108f59061393a565b610bde8e8c612790565b610be8858561281d565b8915610bf857610bf8338b612923565b336001600160a01b03167f4c209b5fc8ad50758f13e2e1088ba56a560dff690a1c6fef26394f4c03821c4f8484604051610c33929190613acb565b60405180910390a25050505050505050506001600c81905550935093915050565b60005481565b60095481516020830151600092839283928392610c9e926dffffffffffffffffffffffffffff808316936e0100000000000000000000000000009093041691611849565b90506000610cac878361261c565b90506000610cd5610cce88608001516305f5e1006125f490919063ffffffff16565b839061261c565b9050610cf76305f5e100610cf183670de0b6b3a76400006129b5565b906129b5565b9450610d286305f5e100610cf1600b54610cf1670de0b6b3a7640000610cf1600a548861261c90919063ffffffff16565b955050508460800151600014610db5578451600a54600091610d4a919061261c565b90506000610d67600b54886020015161261c90919063ffffffff16565b9050610db0670de0b6b3a7640000610cf16305f5e100610cf18b60800151610daa8e610daa89610cf1610da38c8e6129e790919063ffffffff16565b8e9061261c565b9061261c565b935050505b6009546dffffffffffffffffffffffffffff16831115610e7f57600954855160208701516dffffffffffffffffffffffffffff909216850391600091610e0091610cf190859061261c565b9050610e0c86826129e7565b6009549096506e01000000000000000000000000000090046dffffffffffffffffffffffffffff16861115610e63576009546e01000000000000000000000000000090046dffffffffffffffffffffffffffff1695505b50506009546dffffffffffffffffffffffffffff169250610f56565b6009546e01000000000000000000000000000090046dffffffffffffffffffffffffffff16841115610f5657600954602086015186516e0100000000000000000000000000009092046dffffffffffffffffffffffffffff16860391600091610eed91610cf190859061261c565b9050610ef985826129e7565b6009549095506dffffffffffffffffffffffffffff16851115610f2c576009546dffffffffffffffffffffffffffff1694505b50506009546e01000000000000000000000000000090046dffffffffffffffffffffffffffff1693505b509250925092565b6001600160a01b03831660009081526002602090815260408083203384529091528120547fffffffffffffffffffffffffffffffffffffffffffffffffffffffffffffffff14610ffb576001600160a01b0384166000908152600260209081526040808320338452909152902054610fd690836125f4565b6001600160a01b03851660009081526002602090815260408083203384529091529020555b611006848484612a0c565b5060019392505050565b600954600090611047906dffffffffffffffffffffffffffff808216916e0100000000000000000000000000009004168585611849565b9392505050565b6000806000600c546001146110755760405162461bcd60e51b81526004016108f590613680565b6000600c8190556007546008546040516370a0823160e01b81526001600160a01b0392831693919092169183906370a08231906110b6903090600401613553565b60206040518083038186803b1580156110ce57600080fd5b505afa1580156110e2573d6000803e3d6000fd5b505050506040513d601f19601f8201168201806040525081019061110691906133d4565b90506000826001600160a01b03166370a08231306040518263ffffffff1660e01b81526004016111369190613553565b60206040518083038186803b15801561114e57600080fd5b505afa158015611162573d6000803e3d6000fd5b505050506040513d601f19601f8201168201806040525081019061118691906133d4565b306000908152600160209081526040808320549051939450924792916060916111b39133918791016135ba565b60405160208183030381529060405290506111cc612fe5565b6111d888600284612656565b608086015260408501526020840152825260608201526111f88582610c5a565b919d509b5092506112109150610bab905083476125f4565b975060008a1180156112225750600089115b61123e5760405162461bcd60e51b81526004016108f590613903565b6112483084612ab0565b611253868d8c612b3a565b61125e878c8b612b3a565b8015611338576040517f80feb3980000000000000000000000000000000000000000000000000000000081526001600160a01b037f000000000000000000000000000000000000000000000000000000000000000016906380feb398906112c9908990600401613553565b60206040518083038186803b1580156112e157600080fd5b505afa1580156112f5573d6000803e3d6000fd5b505050506040513d601f19601f820116820180604052508101906113199190613399565b1561132d576113288782612cac565b611338565b611338878783612e73565b6040516370a0823160e01b81526001600160a01b038816906370a0823190611364903090600401613553565b60206040518083038186803b15801561137c57600080fd5b505afa158015611390573d6000803e3d6000fd5b505050506040513d601f19601f820116820180604052508101906113b491906133d4565b6040516370a0823160e01b81529095506001600160a01b038716906370a08231906113e3903090600401613553565b60206040518083038186803b1580156113fb57600080fd5b505afa15801561140f573d6000803e3d6000fd5b505050506040513d601f19601f8201168201806040525081019061143391906133d4565b935061143f858561281d565b871561144f5761144f3389612923565b8a6001600160a01b0316336001600160a01b03167f3dd1df88dc92e2788892542d81f999d720a44b4c127065d45c128f4f59fdc373898c6040516114949291906135ba565b60405180910390a38b6001600160a01b0316336001600160a01b03167f3dd1df88dc92e2788892542d81f999d720a44b4c127065d45c128f4f59fdc373888d6040516114e19291906135ba565b60405180910390a3505050505050506001600c819055509250925092565b7f6e71edae12b1b97f4d1f60370fef10105fa2faae0126114a169c64845d6126c981565b601281565b6305f5e10081565b60035481565b600954815160208301516000926108bb926dffffffffffffffffffffffffffff808316936e0100000000000000000000000000009093041691611849565b600080548061158d57670de0b6b3a76400009150611629565b60006115aa84606001516305f5e1006125f490919063ffffffff16565b905060006115cd6305f5e100610daa87600001518961261c90919063ffffffff16565b905060006115ec83610daa88602001518b61261c90919063ffffffff16565b905061162383610cf18860200151610cf188610cf1611614888a6129e790919063ffffffff16565b670de0b6b3a76400009061261c565b94505050505b509392505050565b670de0b6b3a764000081565b6000806116ab61165e84608001516305f5e1006125f490919063ffffffff16565b610cf161167c86606001516305f5e1006125f490919063ffffffff16565b610cf18760200151610cf16305f5e100610daa6305f5e100610daa8d600001518f61261c90919063ffffffff16565b915082608001516000146116db576116d86305f5e100610cf185608001518561261c90919063ffffffff16565b90505b9250929050565b60016020526000908152604090205481565b336001600160a01b037f0000000000000000000000000000000000000000000000000000000000000000161461173c5760405162461bcd60e51b81526004016108f590613971565b600780546001600160a01b038089167fffffffffffffffffffffffff00000000000000000000000000000000000000009283161790925560088054928816929091169190911790558351611797906005906020870190613014565b5082516117ab906006906020860190613014565b50600a55600b5550505050565b60046020526000908152604090205481565b600b5481565b6006805460408051602060026001851615610100027fffffffffffffffffffffffffffffffffffffffffffffffffffffffffffffffff0190941693909304601f810184900484028201840190925281815292918301828280156108755780601f1061084a57610100808354040283529160200191610875565b600080548061186257670de0b6b3a764000091506118f3565b600b5460009061187690610daa898761261c565b90506000611893600b54610daa888a61261c90919063ffffffff16565b905060006118ac87600a5461261c90919063ffffffff16565b905060006118c5600b548861261c90919063ffffffff16565b90506118ec6118d483836129e7565b610cf1670de0b6b3a7640000610daa89838a8a6129e7565b9550505050505b50949350505050565b6000806119636305f5e100610cf16305f5e100610cf18760000151610cf16119358a608001516305f5e1006125f490919063ffffffff16565b610daa6119538c606001516305f5e1006125f490919063ffffffff16565b60208d0151610daa908f9061261c565b915082608001516000146116db576116d86305f5e100610cf185608001518761261c90919063ffffffff16565b600080600061199d613092565b600c546001146119bf5760405162461bcd60e51b81526004016108f590613680565b6000600c8190556007546008546040516370a0823160e01b81526001600160a01b0392831693919092169183906370a0823190611a00903090600401613553565b60206040518083038186803b158015611a1857600080fd5b505afa158015611a2c573d6000803e3d6000fd5b505050506040513d601f19601f82011682018060405250810190611a5091906133d4565b90506000826001600160a01b03166370a08231306040518263ffffffff1660e01b8152600401611a809190613553565b60206040518083038186803b158015611a9857600080fd5b505afa158015611aac573d6000803e3d6000fd5b505050506040513d601f19601f82011682018060405250810190611ad091906133d4565b905047600080611ade61087d565b91509150856001600160a01b03168d6001600160a01b03161415611b1d57611b16856dffffffffffffffffffffffffffff84166125f4565b9a50611b69565b866001600160a01b03168d6001600160a01b03161415611b5157611b16846dffffffffffffffffffffffffffff83166125f4565b60405162461bcd60e51b81526004016108f590613895565b60008b11611b895760405162461bcd60e51b81526004016108f590613a73565b6060338e8e8e604051602001611ba29493929190613567565b6040516020818303038152906040529050611bbb612fe5565b611bc788600384612656565b608086015260408501526020840152825260608201526001600160a01b038f81169089161415611c0457611bfb8d826118fc565b8b529b50611c2d565b886001600160a01b03168f6001600160a01b03161415611c2d57611c288d8261238a565b8b529b505b611c3a610bab86476125f4565b815160208c8101919091529091015160408b01529950505050506001600160a01b03848116908a1614801590611c825750826001600160a01b0316896001600160a01b031614155b611c9e5760405162461bcd60e51b81526004016108f59061375c565b611ca98a8a89612b3a565b845115611d90576040517f80feb3980000000000000000000000000000000000000000000000000000000081526001600160a01b037f000000000000000000000000000000000000000000000000000000000000000016906380feb39890611d15908690600401613553565b60206040518083038186803b158015611d2d57600080fd5b505afa158015611d41573d6000803e3d6000fd5b505050506040513d601f19601f82011682018060405250810190611d659190613399565b15611d7c578451611d77908590612cac565b611d90565b8451611d8b9085908590612e73565b600085525b6040516370a0823160e01b81526001600160a01b038516906370a0823190611dbc903090600401613553565b60206040518083038186803b158015611dd457600080fd5b505afa158015611de8573d6000803e3d6000fd5b505050506040513d601f19601f82011682018060405250810190611e0c91906133d4565b6040516370a0823160e01b81529092506001600160a01b038416906370a0823190611e3b903090600401613553565b60206040518083038186803b158015611e5357600080fd5b505afa158015611e67573d6000803e3d6000fd5b505050506040513d601f19601f82011682018060405250810190611e8b91906133d4565b9050611e97828261281d565b8515611ea757611ea73387612923565b886001600160a01b0316336001600160a01b03167f053d794b2310b8d186a24ae24a65ee066983a52a6efa6bd3df09a7601a3cb4f38a8a8e604051611eee93929190613ad9565b60405180910390a350506001600c555093969295509093509150565b600a54600b5491565b6040518060400160405280601081526020017f436f46695820506f6f6c20546f6b656e0000000000000000000000000000000081525081565b60006108b7338484612a0c565b600061104782610cf185670de0b6b3a764000061261c565b6000805480611f8a57670de0b6b3a76400009150611629565b60006115aa84606001516305f5e1006129e790919063ffffffff16565b633b9aca0081565b600c54600114611fd15760405162461bcd60e51b81526004016108f590613680565b6000600c556007546008546009546040516370a0823160e01b81526001600160a01b0393841693909216916120869184918691612081916dffffffffffffffffffffffffffff9091169084906370a0823190612031903090600401613553565b60206040518083038186803b15801561204957600080fd5b505afa15801561205d573d6000803e3d6000fd5b505050506040513d601f19601f82011682018060405250810190610b7091906133d4565b612b3a565b6120e781846120816009600e9054906101000a90046dffffffffffffffffffffffffffff166dffffffffffffffffffffffffffff16856001600160a01b03166370a08231306040518263ffffffff1660e01b81526004016120319190613553565b50506001600c5550565b60008061214861211284608001516305f5e1006125f490919063ffffffff16565b610cf16305f5e100610cf18760000151610cf16305f5e100610daa6119538c606001516305f5e1006129e790919063ffffffff16565b915082608001516000146116db576116d86305f5e100610cf161217c86606001516305f5e1006129e790919063ffffffff16565b610cf18760200151610cf18960800151610daa6305f5e100610daa8d600001518d61261c90919063ffffffff16565b7f000000000000000000000000000000000000000000000000000000000000000081565b6008546001600160a01b031681565b6000806121ea83611536565b90506121f68482611f59565b949350505050565b4284101561221e5760405162461bcd60e51b81526004016108f59061385e565b6003546001600160a01b0388166000908152600460209081526040808320805460018101909155905192939261227f927f6e71edae12b1b97f4d1f60370fef10105fa2faae0126114a169c64845d6126c9928d928d928d92918d910161361b565b604051602081830303815290604052805190602001206040516020016122a692919061351d565b6040516020818303038152906040528051906020012090506000600182868686604051600081526020016040526040516122e3949392919061364f565b6020604051602081039080840390855afa158015612305573d6000803e3d6000fd5b5050604051601f1901519150506001600160a01b0381161580159061233b5750886001600160a01b0316816001600160a01b0316145b6123575760405162461bcd60e51b81526004016108f5906136b7565b61236289898961258c565b505050505050505050565b600260209081526000928352604080842090915290825290205481565b6000806123ee6305f5e100610cf16123b386606001516305f5e1006129e790919063ffffffff16565b610cf18760200151610cf16123d98a608001516305f5e1006125f490919063ffffffff16565b8a51610daa906305f5e1009082908f9061261c565b915082608001516000146116db576116d86305f5e100610cf161242286606001516305f5e1006129e790919063ffffffff16565b610cf18760200151610cf18960800151610daa6305f5e100610daa8d600001518f61261c90919063ffffffff16565b600a5481565b600c546001146124795760405162461bcd60e51b81526004016108f590613680565b6000600c556007546040516370a0823160e01b8152612585916001600160a01b0316906370a08231906124b0903090600401613553565b60206040518083038186803b1580156124c857600080fd5b505afa1580156124dc573d6000803e3d6000fd5b505050506040513d601f19601f8201168201806040525081019061250091906133d4565b6008546040516370a0823160e01b81526001600160a01b03909116906370a0823190612530903090600401613553565b60206040518083038186803b15801561254857600080fd5b505afa15801561255c573d6000803e3d6000fd5b505050506040513d601f19601f8201168201806040525081019061258091906133d4565b61281d565b6001600c55565b6001600160a01b0380841660008181526002602090815260408083209487168084529490915290819020849055517f8c5be1e5ebec7d5bd14f71427d1e84f3dd0314c0f7b2291e5b200ac8c7c3b925906125e7908590613612565b60405180910390a3505050565b6000828211156126165760405162461bcd60e51b81526004016108f590613725565b50900390565b60008261262b575060006108bb565b8282028284828161263857fe5b04146110475760405162461bcd60e51b81526004016108f590613801565b60008060008060007f00000000000000000000000000000000000000000000000000000000000000006001600160a01b0316633018205f6040518163ffffffff1660e01b815260040160206040518083038186803b1580156126b757600080fd5b505afa1580156126cb573d6000803e3d6000fd5b505050506040513d601f19601f820116820180604052508101906126ef9190613199565b6001600160a01b0316638dba9329348a8a600481111561270b57fe5b8a6040518563ffffffff1660e01b815260040161272a939291906135d3565b60a0604051808303818588803b15801561274357600080fd5b505af1158015612757573d6000803e3d6000fd5b50505050506040513d601f19601f8201168201806040525081019061277c9190613496565b939c929b5090995097509095509350505050565b60005461279d90826129e7565b60009081556001600160a01b0383168152600160205260409020546127c290826129e7565b6001600160a01b0383166000818152600160205260408082209390935591519091907fddf252ad1be2c89b69c2b068fc378daa952ba7f163c4a11628f55a4df523b3ef90612811908590613612565b60405180910390a35050565b6dffffffffffffffffffffffffffff821180159061284957506dffffffffffffffffffffffffffff8111155b6128655760405162461bcd60e51b81526004016108f590613a3c565b600980547fffffffffffffffffffffffffffffffffffff0000000000000000000000000000166dffffffffffffffffffffffffffff848116919091177fffffffff0000000000000000000000000000ffffffffffffffffffffffffffff166e010000000000000000000000000000848316810291909117928390556040517f1c411e9a96e071241c2f21f7726b17ae89e3cab4c78be50e062b03a9fffbbad19361291793818116939091041690613aaa565b60405180910390a15050565b604080516000808252602082019092526001600160a01b03841690839060405161294d9190613501565b60006040518083038185875af1925050503d806000811461298a576040519150601f19603f3d011682016040523d82523d6000602084013e61298f565b606091505b50509050806129b05760405162461bcd60e51b81526004016108f5906139a8565b505050565b60008082116129d65760405162461bcd60e51b81526004016108f590613793565b8183816129df57fe5b049392505050565b6000828201838110156110475760405162461bcd60e51b81526004016108f5906136ee565b6001600160a01b038316600090815260016020526040902054612a2f90826125f4565b6001600160a01b038085166000908152600160205260408082209390935590841681522054612a5e90826129e7565b6001600160a01b0380841660008181526001602052604090819020939093559151908516907fddf252ad1be2c89b69c2b068fc378daa952ba7f163c4a11628f55a4df523b3ef906125e7908590613612565b6001600160a01b038216600090815260016020526040902054612ad390826125f4565b6001600160a01b03831660009081526001602052604081209190915554612afa90826125f4565b60009081556040516001600160a01b038416907fddf252ad1be2c89b69c2b068fc378daa952ba7f163c4a11628f55a4df523b3ef90612811908590613612565b604080518082018252601981527f7472616e7366657228616464726573732c75696e743235362900000000000000602090910152516000906060906001600160a01b038616907fa9059cbb2ab09eb219583f4a59a5d0623ade346d962bcd4e46b11da047c9049b90612bb290879087906024016135ba565b60408051601f198184030181529181526020820180517bffffffffffffffffffffffffffffffffffffffffffffffffffffffff167fffffffff00000000000000000000000000000000000000000000000000000000909416939093179092529051612c1d9190613501565b6000604051808303816000865af19150503d8060008114612c5a576040519150601f19603f3d011682016040523d82523d6000602084013e612c5f565b606091505b5091509150818015612c89575080511580612c89575080806020019051810190612c899190613399565b612ca55760405162461bcd60e51b81526004016108f590613a05565b5050505050565b60007f00000000000000000000000000000000000000000000000000000000000000006001600160a01b031663e8a353926040518163ffffffff1660e01b815260040160206040518083038186803b158015612d0757600080fd5b505afa158015612d1b573d6000803e3d6000fd5b505050506040513d601f19601f82011682018060405250810190612d3f9190613199565b90506001600160a01b038116612d555750612e6f565b6040516370a0823160e01b81526000906001600160a01b038516906370a0823190612d84903090600401613553565b60206040518083038186803b158015612d9c57600080fd5b505afa158015612db0573d6000803e3d6000fd5b505050506040513d601f19601f82011682018060405250810190612dd491906133d4565b905080831115612de2578092505b6040517f2e1a7d4d0000000000000000000000000000000000000000000000000000000081526001600160a01b03851690632e1a7d4d90612e27908690600401613612565b600060405180830381600087803b158015612e4157600080fd5b505af1158015612e55573d6000803e3d6000fd5b505050506000831115612e6c57612e6c8284612923565b50505b5050565b6040517f72b8cbcc0000000000000000000000000000000000000000000000000000000081526000906001600160a01b037f000000000000000000000000000000000000000000000000000000000000000016906372b8cbcc90612edb908690600401613553565b60206040518083038186803b158015612ef357600080fd5b505afa158015612f07573d6000803e3d6000fd5b505050506040513d601f19601f82011682018060405250810190612f2b9190613199565b90506001600160a01b038116612f4157506129b0565b612e6c8482846040516370a0823160e01b81526000906001600160a01b038516906370a0823190612f76903090600401613553565b60206040518083038186803b158015612f8e57600080fd5b505afa158015612fa2573d6000803e3d6000fd5b505050506040513d601f19601f82011682018060405250810190612fc691906133d4565b905080821115612fd4578091505b8115612e6c57612e6c848484612b3a565b6040518060a0016040528060008152602001600081526020016000815260200160008152602001600081525090565b828054600181600116156101000203166002900490600052602060002090601f016020900481019282601f1061305557805160ff1916838001178555613082565b82800160010185558215613082579182015b82811115613082578251825591602001919060010190613067565b5061308e9291506130b0565b5090565b6040518060a001604052806005906020820280368337509192915050565b5b8082111561308e57600081556001016130b1565b600082601f8301126130d5578081fd5b813567ffffffffffffffff8111156130eb578182fd5b6130fe6020601f19601f84011601613b67565b915080825283602082850101111561311557600080fd5b8060208401602084013760009082016020015292915050565b600060a0828403121561313f578081fd5b61314960a0613b67565b9050813581526020820135602082015260408201356040820152606082013560608201526080820135608082015292915050565b60006020828403121561318e578081fd5b813561104781613bba565b6000602082840312156131aa578081fd5b815161104781613bba565b600080604083850312156131c7578081fd5b82356131d281613bba565b915060208301356131e281613bba565b809150509250929050565b60008060008060008060c08789031215613205578182fd5b863561321081613bba565b9550602087013561322081613bba565b9450604087013567ffffffffffffffff8082111561323c578384fd5b6132488a838b016130c5565b9550606089013591508082111561325d578384fd5b5061326a89828a016130c5565b9350506080870135915060a087013590509295509295509295565b600080600060608486031215613299578283fd5b83356132a481613bba565b925060208401356132b481613bba565b929592945050506040919091013590565b600080600080600080600060e0888a0312156132df578081fd5b87356132ea81613bba565b965060208801356132fa81613bba565b95506040880135945060608801359350608088013560ff8116811461331d578182fd5b9699959850939692959460a0840135945060c09093013592915050565b6000806040838503121561334c578182fd5b823561335781613bba565b946020939093013593505050565b600080600060608486031215613379578283fd5b833561338481613bba565b95602085013595506040909401359392505050565b6000602082840312156133aa578081fd5b81518015158114611047578182fd5b600060a082840312156133ca578081fd5b611047838361312e565b6000602082840312156133e5578081fd5b5051919050565b60008060c083850312156133fe578182fd5b823591506116d8846020850161312e565b60008060408385031215613421578182fd5b50508035926020909101359150565b600080600060e08486031215613444578081fd5b833592506020840135915061345c856040860161312e565b90509250925092565b6000806000806080858703121561347a578182fd5b5050823594602084013594506040840135936060013592509050565b600080600080600060a086880312156134ad578283fd5b5050835160208501516040860151606087015160809097015192989197509594509092509050565b600081518084526134ed816020860160208601613b8e565b601f01601f19169290920160200192915050565b60008251613513818460208701613b8e565b9190910192915050565b7f190100000000000000000000000000000000000000000000000000000000000081526002810192909252602282015260420190565b6001600160a01b0391909116815260200190565b6001600160a01b039485168152928416602084015292166040820152606081019190915260800190565b6001600160a01b0394851681529290931660208301526040820152606081019190915260800190565b6001600160a01b03929092168252602082015260400190565b60006001600160a01b038516825260ff84166020830152606060408301526135fe60608301846134d5565b95945050505050565b901515815260200190565b90815260200190565b9586526001600160a01b0394851660208701529290931660408501526060840152608083019190915260a082015260c00190565b93845260ff9290921660208401526040830152606082015260800190565b60006020825261104760208301846134d5565b6020808252600d908201527f43506169723a204c4f434b454400000000000000000000000000000000000000604082015260600190565b60208082526019908201527f4345524332303a20494e56414c49445f5349474e415455524500000000000000604082015260600190565b6020808252601b908201527f536166654d6174683a206164646974696f6e206f766572666c6f770000000000604082015260600190565b6020808252601e908201527f536166654d6174683a207375627472616374696f6e206f766572666c6f770000604082015260600190565b60208082526011908201527f43506169723a20494e56414c49445f544f000000000000000000000000000000604082015260600190565b6020808252601a908201527f536166654d6174683a206469766973696f6e206279207a65726f000000000000604082015260600190565b6020808252601a908201527f43506169723a20696e76616c696420617373657420726174696f000000000000604082015260600190565b60208082526021908201527f536166654d6174683a206d756c7469706c69636174696f6e206f766572666c6f60408201527f7700000000000000000000000000000000000000000000000000000000000000606082015260800190565b6020808252600f908201527f4345524332303a20455850495245440000000000000000000000000000000000604082015260600190565b60208082526015908201527f43506169723a2077726f6e67206f7574546f6b656e0000000000000000000000604082015260600190565b60208082526016908201527f43506169723a20696c6c6567616c20616d6d6f756e7400000000000000000000604082015260600190565b6020808252601d908201527f43506169723a2053484f52545f4c49515549444954595f4255524e4544000000604082015260600190565b6020808252601d908201527f43506169723a2053484f52545f4c49515549444954595f4d494e544544000000604082015260600190565b60208082526010908201527f43506169723a20464f5242494444454e00000000000000000000000000000000604082015260600190565b60208082526023908201527f5472616e7366657248656c7065723a204554485f5452414e534645525f46414960408201527f4c45440000000000000000000000000000000000000000000000000000000000606082015260800190565b60208082526016908201527f43506169723a205452414e534645525f4641494c454400000000000000000000604082015260600190565b6020808252600f908201527f43506169723a204f564552464c4f570000000000000000000000000000000000604082015260600190565b60208082526015908201527f43506169723a2077726f6e6720616d6f756e74496e0000000000000000000000604082015260600190565b6dffffffffffffffffffffffffffff92831681529116602082015260400190565b918252602082015260400190565b92835260208301919091526001600160a01b0316604082015260600190565b9283526020830191909152604082015260600190565b60006101008201905085825260208581840152846040840152606083018460005b6005811015613b4c57815183529183019190830190600101613b2f565b5050505095945050505050565b60ff91909116815260200190565b60405181810167ffffffffffffffff81118282101715613b8657600080fd5b604052919050565b60005b83811015613ba9578181015183820152602001613b91565b83811115612e6c5750506000910152565b6001600160a01b0381168114613bcf57600080fd5b5056fea26469706673582212209e183d790e5eaeba070a07cd70ba7d6c523a09710f9b12b30185afe000565a3664736f6c634300060c0033",
  "immutableReferences": {
    "17167": [
      {
        "length": 32,
        "start": 4756
      },
      {
        "length": 32,
        "start": 5887
      },
      {
        "length": 32,
        "start": 7392
      },
      {
        "length": 32,
        "start": 8621
      },
      {
        "length": 32,
        "start": 9824
      },
      {
        "length": 32,
        "start": 11440
      },
      {
        "length": 32,
        "start": 11942
      }
    ]
  },
  "source": "// SPDX-License-Identifier: GPL-3.0-or-later\npragma experimental ABIEncoderV2;\npragma solidity 0.6.12;\n\nimport \"./interface/ICoFiXV2Pair.sol\";\nimport \"./interface/ICoFiXV2Factory.sol\";\nimport \"./interface/ICoFiXV2Controller.sol\";\nimport \"./interface/IWETH.sol\";\nimport \"@openzeppelin/contracts/token/ERC20/IERC20.sol\";\nimport \"./CoFiXERC20.sol\";\nimport \"./lib/TransferHelper.sol\";\nimport \"./interface/ICoFiXV2DAO.sol\";\n\n// Pair contract for each trading pair, storing assets and handling settlement\n// No owner or governance\ncontract CoFiXV2Pair is ICoFiXV2Pair, CoFiXERC20 {\n    using SafeMath for uint;\n\n    enum CoFiX_OP { QUERY, MINT, BURN, SWAP_WITH_EXACT, SWAP_FOR_EXACT } // operations in CoFiX\n\n    uint public override constant MINIMUM_LIQUIDITY = 10**9; // it's negligible because we calc liquidity in ETH\n    bytes4 private constant SELECTOR = bytes4(keccak256(bytes(\"transfer(address,uint256)\")));\n\n    uint256 constant public K_BASE = 1E8; // K\n    uint256 constant public NAVPS_BASE = 1E18; // NAVPS (Net Asset Value Per Share), need accuracy\n    uint256 constant public THETA_BASE = 1E8; // theta\n\n    string public name;\n    string public symbol;\n\n    address public override immutable factory;\n    address public override token0; // WETH token\n    address public override token1; // any ERC20 token\n\n    uint112 private reserve0;           // uses single storage slot, accessible via getReserves\n    uint112 private reserve1;           // uses single storage slot, accessible via getReserves\n\n    uint256 public initToken1Amount;\n    uint256 public initToken0Amount;\n\n    uint private unlocked = 1;\n\n    event Mint(address indexed sender, uint amount0, uint amount1);\n    event Burn(address indexed sender, address outToken, uint outAmount, address indexed to);\n    event Swap(\n        address indexed sender,\n        uint amountIn,\n        uint amountOut,\n        address outToken,\n        address indexed to\n    );\n    event Sync(uint112 reserve0, uint112 reserve1);\n\n    modifier lock() {\n        require(unlocked == 1, \"CPair: LOCKED\");\n        unlocked = 0;\n        _;\n        unlocked = 1;\n    }\n\n    constructor() public {\n        factory = msg.sender;\n    }\n\n    receive() external payable {}\n\n    // called once by the factory at time of deployment\n    function initialize(address _token0, address _token1, string memory _name, string memory _symbol, uint256 _initToken0Amount, uint256 _initToken1Amount) external override {\n        require(msg.sender == factory, \"CPair: FORBIDDEN\"); // sufficient check\n        token0 = _token0;\n        token1 = _token1;\n        name = _name;\n        symbol = _symbol;\n        initToken1Amount = _initToken1Amount;\n        initToken0Amount = _initToken0Amount;\n    }\n\n    function getInitialAssetRatio() public override view returns (uint256 _initToken0Amount, uint256 _initToken1Amount) {\n        _initToken1Amount = initToken1Amount;\n        _initToken0Amount = initToken0Amount;\n    }\n\n    function getReserves() public override view returns (uint112 _reserve0, uint112 _reserve1) {\n        _reserve0 = reserve0;\n        _reserve1 = reserve1;\n    }\n\n    function _safeTransfer(address token, address to, uint value) private {\n        (bool success, bytes memory data) = token.call(abi.encodeWithSelector(SELECTOR, to, value));\n        require(success && (data.length == 0 || abi.decode(data, (bool))), \"CPair: TRANSFER_FAILED\");\n    }\n\n    // update reserves\n    function _update(uint balance0, uint balance1) private {\n        require(balance0 <= uint112(-1) && balance1 <= uint112(-1), \"CPair: OVERFLOW\");\n        reserve0 = uint112(balance0);\n        reserve1 = uint112(balance1);\n        emit Sync(reserve0, reserve1);\n    }\n\n    // this low-level function should be called from a contract which performs important safety checks\n    function mint(address to, uint amountETH, uint amountToken) external payable override lock returns (uint liquidity, uint oracleFeeChange) {\n        address _token0 = token0;                                // gas savings\n        address _token1 = token1;                                // gas savings\n        (uint112 _reserve0, uint112 _reserve1) = getReserves(); // gas savings\n        uint balance0 = IERC20(_token0).balanceOf(address(this));\n        uint balance1 = IERC20(_token1).balanceOf(address(this));\n        uint amount0 = balance0.sub(_reserve0);\n        uint amount1 = balance1.sub(_reserve1);\n\n        require(amountETH <= amount0 && amountToken <= amount1, \"CPair: illegal ammount\");\n        \n        amount0 = amountETH;\n        amount1 = amountToken;\n        require(amount0.mul(initToken1Amount) == amount1.mul(initToken0Amount), \"CPair: invalid asset ratio\");\n        \n        uint256 _ethBalanceBefore = address(this).balance;\n        { // scope for ethAmount/erc20Amount/blockNum to avoid stack too deep error\n            bytes memory data = abi.encode(msg.sender, to, amount0, amount1);\n            // query price\n            OraclePrice memory _op;\n            (_op.K, _op.ethAmount, _op.erc20Amount, _op.blockNum, _op.theta) = _queryOracle(_token1, CoFiX_OP.MINT, data);\n            uint256 navps = calcNAVPerShare(_reserve0, _reserve1, _op.ethAmount, _op.erc20Amount);\n            if (totalSupply == 0) {\n                liquidity = calcLiquidity(amount0, navps).sub(MINIMUM_LIQUIDITY);\n                _mint(address(0), MINIMUM_LIQUIDITY); // permanently lock the first MINIMUM_LIQUIDITY tokens\n            } else {\n                liquidity = calcLiquidity(amount0, navps);\n            }\n        }\n        oracleFeeChange = msg.value.sub(_ethBalanceBefore.sub(address(this).balance));\n\n        require(liquidity > 0, \"CPair: SHORT_LIQUIDITY_MINTED\");\n        _mint(to, liquidity);\n\n        _update(balance0, balance1);\n        if (oracleFeeChange > 0) TransferHelper.safeTransferETH(msg.sender, oracleFeeChange);\n\n        emit Mint(msg.sender, amount0, amount1);\n    }\n\n    // this low-level function should be called from a contract which performs important safety checks\n    function burn(address tokenTo, address ethTo) external payable override lock returns (uint amountTokenOut, uint amountEthOut, uint oracleFeeChange) {\n        address _token0 = token0;                                // gas savings\n        address _token1 = token1;                                // gas savings\n        uint balance0 = IERC20(_token0).balanceOf(address(this));\n        uint balance1 = IERC20(_token1).balanceOf(address(this));\n        uint liquidity = balanceOf[address(this)];\n\n        uint256 _ethBalanceBefore = address(this).balance;\n        uint256 fee;\n        {\n            bytes memory data = abi.encode(msg.sender, liquidity);\n            // query price\n            OraclePrice memory _op;\n            (_op.K, _op.ethAmount, _op.erc20Amount, _op.blockNum, _op.theta) = _queryOracle(_token1, CoFiX_OP.BURN, data);\n\n            (amountTokenOut, amountEthOut, fee) = calcOutTokenAndETHForBurn(liquidity, _op); // navps calculated\n        }\n        oracleFeeChange = msg.value.sub(_ethBalanceBefore.sub(address(this).balance));\n\n        require(amountTokenOut > 0 && amountEthOut > 0, \"CPair: SHORT_LIQUIDITY_BURNED\");\n\n        _burn(address(this), liquidity);\n        _safeTransfer(_token1, tokenTo, amountTokenOut);\n        _safeTransfer(_token0, ethTo, amountEthOut);\n\n        if (fee > 0) {\n            if (ICoFiXV2Factory(factory).getTradeMiningStatus(_token1)) {\n                // only transfer fee to protocol feeReceiver when trade mining is enabled for this trading pair\n                _safeSendFeeForDAO(_token0, fee);\n            } else {\n                _safeSendFeeForLP(_token0, _token1, fee);\n            }\n        }\n\n        balance0 = IERC20(_token0).balanceOf(address(this));\n        balance1 = IERC20(_token1).balanceOf(address(this));\n\n        _update(balance0, balance1);\n        if (oracleFeeChange > 0) TransferHelper.safeTransferETH(msg.sender, oracleFeeChange);\n\n        emit Burn(msg.sender, _token0, amountEthOut, ethTo);\n        emit Burn(msg.sender, _token1, amountTokenOut, tokenTo);\n    }\n\n    // this low-level function should be called from a contract which performs important safety checks\n    function swapWithExact(address outToken, address to)\n        external\n        payable override lock\n        returns (uint amountIn, uint amountOut, uint oracleFeeChange, uint256[5] memory tradeInfo)\n    {\n        // tradeInfo[0]: thetaFee, tradeInfo[1]: ethAmount, tradeInfo[2]: erc20Amount\n        address _token0 = token0;\n        address _token1 = token1;\n        uint256 balance0 = IERC20(_token0).balanceOf(address(this));\n        uint256 balance1 = IERC20(_token1).balanceOf(address(this));\n\n        // uint256 fee;\n        { // scope for ethAmount/erc20Amount/blockNum to avoid stack too deep error\n            uint256 _ethBalanceBefore = address(this).balance;\n            (uint112 _reserve0, uint112 _reserve1) = getReserves(); // gas savings\n\n            // calc amountIn\n            if (outToken == _token1) {\n                amountIn = balance0.sub(_reserve0);\n            } else if (outToken == _token0) {\n                amountIn = balance1.sub(_reserve1);\n            } else {\n                revert(\"CPair: wrong outToken\");\n            }\n            require(amountIn > 0, \"CPair: wrong amountIn\");\n            bytes memory data = abi.encode(msg.sender, outToken, to, amountIn);\n            // query price\n            OraclePrice memory _op;\n            (_op.K, _op.ethAmount, _op.erc20Amount, _op.blockNum, _op.theta) = _queryOracle(_token1, CoFiX_OP.SWAP_WITH_EXACT, data);\n            \n            if (outToken == _token1) {\n                (amountOut, tradeInfo[0]) = calcOutToken1(amountIn, _op);\n            } else if (outToken == _token0) {\n                (amountOut, tradeInfo[0]) = calcOutToken0(amountIn, _op);\n            }\n            oracleFeeChange = msg.value.sub(_ethBalanceBefore.sub(address(this).balance));\n            tradeInfo[1] = _op.ethAmount;\n            tradeInfo[2] = _op.erc20Amount;\n        }\n        \n        require(to != _token0 && to != _token1, \"CPair: INVALID_TO\");\n\n        _safeTransfer(outToken, to, amountOut); // optimistically transfer tokens\n        if (tradeInfo[0] > 0) {\n            if (ICoFiXV2Factory(factory).getTradeMiningStatus(_token1)) {\n                // only transfer fee to protocol feeReceiver when trade mining is enabled for this trading pair\n                _safeSendFeeForDAO(_token0, tradeInfo[0]);\n            } else {\n                _safeSendFeeForLP(_token0, _token1, tradeInfo[0]);\n                tradeInfo[0] = 0; // so router won't go into the trade mining logic (reduce one more call gas cost)\n            }\n        }\n        balance0 = IERC20(_token0).balanceOf(address(this));\n        balance1 = IERC20(_token1).balanceOf(address(this));\n\n        _update(balance0, balance1);\n        if (oracleFeeChange > 0) TransferHelper.safeTransferETH(msg.sender, oracleFeeChange);\n\n        emit Swap(msg.sender, amountIn, amountOut, outToken, to);\n    }\n\n    // this low-level function should be called from a contract which performs important safety checks\n    // function swapForExact(address outToken, uint amountOutExact, address to)\n    //     external\n    //     payable override lock\n    //     returns (uint amountIn, uint amountOut, uint oracleFeeChange, uint256[4] memory tradeInfo)\n    // {\n    //     // tradeInfo[0]: thetaFee, tradeInfo[1]: x, tradeInfo[2]: y, tradeInfo[3]: navps\n    //     address _token0 = token0;\n    //     address _token1 = token1;\n    //     OraclePrice memory _op;\n\n    //     // uint256 fee;\n\n    //     { // scope for ethAmount/erc20Amount/blockNum to avoid stack too deep error\n    //         uint256 _ethBalanceBefore = address(this).balance;\n    //         bytes memory data = abi.encode(msg.sender, outToken, amountOutExact, to);\n    //         // query price\n    //         (_op.K, _op.ethAmount, _op.erc20Amount, _op.blockNum, _op.theta) = _queryOracle(_token1, CoFiX_OP.SWAP_FOR_EXACT, data);\n    //         oracleFeeChange = msg.value.sub(_ethBalanceBefore.sub(address(this).balance));\n    //     }\n\n    //     { // calc and check amountIn, also outToken\n    //         uint256 balance0 = IERC20(_token0).balanceOf(address(this));\n    //         uint256 balance1 = IERC20(_token1).balanceOf(address(this));\n    //         (uint112 _reserve0, uint112 _reserve1) = getReserves(); // gas savings\n     \n    //         if (outToken == _token1) {\n    //             amountIn = balance0.sub(_reserve0);\n    //             tradeInfo[1] = _reserve0; // swap token0 for token1 out\n    //             tradeInfo[2] = uint256(_reserve1).mul(_op.ethAmount).div(_op.erc20Amount); // _reserve1 value as _reserve0\n    //         } else if (outToken == _token0) {\n    //             amountIn = balance1.sub(_reserve1);\n    //             tradeInfo[1] = uint256(_reserve1).mul(_op.ethAmount).div(_op.erc20Amount); // _reserve1 value as _reserve0\n    //             tradeInfo[2] = _reserve0; // swap token1 for token0 out\n    //         } else {\n    //             revert(\"CPair: wrong outToken\");\n    //         }\n    //         require(amountIn > 0, \"CPair: wrong amountIn\");\n    //         tradeInfo[3] = calcNAVPerShare(_reserve0, _reserve1, _op.ethAmount, _op.erc20Amount);\n    //     }\n\n    //     { // split with branch upbove to make code more clear\n    //         uint _amountInNeeded;\n    //         uint _amountInLeft;\n    //         if (outToken == _token1) {\n    //             (_amountInNeeded, tradeInfo[0]) = calcInNeededToken0(amountOutExact, _op);\n    //             _amountInLeft = amountIn.sub(_amountInNeeded);\n    //             if (_amountInLeft > 0) {\n    //                 _safeTransfer(_token0, to, _amountInLeft); // send back the amount0 token change\n    //             }\n    //         } else if (outToken == _token0) {\n    //             (_amountInNeeded, tradeInfo[0]) = calcInNeededToken1(amountOutExact, _op);\n    //             _amountInLeft = amountIn.sub(_amountInNeeded);\n    //             if (_amountInLeft > 0) {\n    //                 _safeTransfer(_token1, to, _amountInLeft); // send back the amount1 token change\n    //             }\n    //         }\n    //         require(_amountInNeeded <= amountIn, \"CPair: insufficient amountIn\");\n    //         require(_amountInNeeded > 0, \"CPair: wrong amountIn needed\");\n    //     }\n        \n    //     {\n    //         require(to != _token0 && to != _token1, \"CPair: INVALID_TO\");\n\n    //         amountOut = amountOutExact;\n    //         _safeTransfer(outToken, to, amountOut); // optimistically transfer tokens\n    //         if (tradeInfo[0] > 0) {\n    //             if (ICoFiXFactory02(factory).getTradeMiningStatus(_token1)) {\n    //                 // only transfer fee to protocol feeReceiver when trade mining is enabled for this trading pair\n    //                 _safeSendFeeForCoFiHolder(_token0, tradeInfo[0]);\n    //             } else {\n    //                 _safeSendFeeForLP(_token0, _token1, tradeInfo[0]);\n    //                 tradeInfo[0] = 0; // so router won't go into the trade mining logic (reduce one more call gas cost)\n    //             }\n    //         }\n    //         uint256 balance0 = IERC20(_token0).balanceOf(address(this));\n    //         uint256 balance1 = IERC20(_token1).balanceOf(address(this));\n\n    //         _update(balance0, balance1);\n    //         if (oracleFeeChange > 0) TransferHelper.safeTransferETH(msg.sender, oracleFeeChange);\n    //     }\n\n    //     emit Swap(msg.sender, amountIn, amountOut, outToken, to);\n    // }\n\n    // force balances to match reserves\n    function skim(address to) external override lock {\n        address _token0 = token0; // gas savings\n        address _token1 = token1; // gas savings\n        _safeTransfer(_token0, to, IERC20(_token0).balanceOf(address(this)).sub(reserve0));\n        _safeTransfer(_token1, to, IERC20(_token1).balanceOf(address(this)).sub(reserve1));\n    }\n\n    // force reserves to match balances\n    function sync() external override lock {\n        _update(IERC20(token0).balanceOf(address(this)), IERC20(token1).balanceOf(address(this)));\n    }\n\n    // calc Net Asset Value Per Share for mint\n    // use it in this contract, for optimized gas usage\n    function calcNAVPerShareForMint(uint256 balance0, uint256 balance1, OraclePrice memory _op) public view returns (uint256 navps) {\n        uint _totalSupply = totalSupply;\n        if (_totalSupply == 0) {\n            navps = NAVPS_BASE;\n        } else {\n            /*\n            N_{p} &= (A_{u}/P_{s}^{'} + A_{e})/S \\\\\\\\\n                  &= (A_{u}/(P * (1 - K)) + A_{e})/S \\\\\\\\\n                  &= (\\frac{A_{u}}{\\frac{erc20Amount}{ethAmount} * \\frac{(k_{BASE} - k)}{(k_{BASE})}} + A_{e})/S \\\\\\\\\n                  &= (\\frac{A_{u}*ethAmount*k_{BASE}}{erc20Amount*(k_{BASE} - k)}+ A_{e}) / S \\\\\\\\\n                  &= (A_{u}*ethAmount*k_{BASE}+ A_{e}*erc20Amount*(k_{BASE} - k)) / S / (erc20Amount*(k_{BASE} - k)) \\\\\\\\\n            N_{p} &= NAVPS_{BASE}*(A_{u}*ethAmount*k_{BASE}+ A_{e}*erc20Amount*(k_{BASE} - k)) / S / (erc20Amount*(k_{BASE} - k)) \\\\\\\\\n            // navps = NAVPS_BASE * ( (balance1*_op.ethAmount*K_BASE) + (balance0*_op.erc20Amount*(K_BASE-_op.K)) ) / _totalSupply / _op.erc20Amount / (K_BASE-_op.K);\n            */\n            uint256 kbaseSubK = K_BASE.sub(_op.K);\n            uint256 balance1MulEthKbase = balance1.mul(_op.ethAmount).mul(K_BASE);\n            uint256 balance0MulErcKbsk = balance0.mul(_op.erc20Amount).mul(kbaseSubK);\n            navps = NAVPS_BASE.mul( (balance1MulEthKbase).add(balance0MulErcKbsk) ).div(_totalSupply).div(_op.erc20Amount).div(kbaseSubK);\n        }\n    }\n\n    // calc Net Asset Value Per Share for burn\n    // use it in this contract, for optimized gas usage\n    function calcNAVPerShareForBurn(uint256 balance0, uint256 balance1, OraclePrice memory _op) public view returns (uint256 navps) {\n        uint _totalSupply = totalSupply;\n        if (_totalSupply == 0) {\n            navps = NAVPS_BASE;\n        } else {\n            /*\n            N_{p}^{'} &= (A_{u}/P_{b}^{'} + A_{e})/S \\\\\\\\\n                      &= (A_{u}/(P * (1 + K)) + A_{e})/S \\\\\\\\\n                      &= (\\frac{A_{u}}{\\frac{erc20Amount}{ethAmount} * \\frac{(k_{BASE} + k)}{(k_{BASE})}} + A_{e})/S \\\\\\\\\n                      &= (\\frac{A_{u}*ethAmount*k_{BASE}}{erc20Amount*(k_{BASE} + k)}+ A_{e}) / S \\\\\\\\\n                      &= (A_{u}*ethAmount*k_{BASE}+ A_{e}*erc20Amount*(k_{BASE} + k)) / S / (erc20Amount*(k_{BASE} + k)) \\\\\\\\\n            N_{p}^{'} &= NAVPS_{BASE}*(A_{u}*ethAmount*k_{BASE}+ A_{e}*erc20Amount*(k_{BASE} + k)) / S / (erc20Amount*(k_{BASE} + k)) \\\\\\\\\n            // navps = NAVPS_BASE * ( (balance1*_op.ethAmount*K_BASE) + (balance0*_op.erc20Amount*(K_BASE+_op.K)) ) / _totalSupply / _op.erc20Amount / (K_BASE+_op.K);\n            */\n            uint256 kbaseAddK = K_BASE.add(_op.K);\n            uint256 balance1MulEthKbase = balance1.mul(_op.ethAmount).mul(K_BASE);\n            uint256 balance0MulErcKbsk = balance0.mul(_op.erc20Amount).mul(kbaseAddK);\n            navps = NAVPS_BASE.mul( (balance1MulEthKbase).add(balance0MulErcKbsk) ).div(_totalSupply).div(_op.erc20Amount).div(kbaseAddK);\n        }\n    }\n\n    // calc Net Asset Value Per Share (no K)\n    // use it in this contract, for optimized gas usage\n    function calcNAVPerShare(uint256 balance0, uint256 balance1, uint256 ethAmount, uint256 erc20Amount) public view returns (uint256 navps) {\n        uint _totalSupply = totalSupply;\n        if (_totalSupply == 0) {\n            navps = NAVPS_BASE;\n        } else {\n            /*\n            NV  = \\frac{E_t + U_t/P_t}{(1 + \\frac{k_0}{P_t})*F_t}\\\\\\\\\n                = \\frac{E_t + U_t * \\frac{ethAmount}{erc20Amount}}{(1 + \\frac{initToken1Amount}{initToken0Amount} * \\frac{ethAmount}{erc20Amount})*F_t}\\\\\\\\\n                = \\frac{E_t * erc20Amount + U_t * ethAmount}{(erc20Amount + \\frac{initToken1Amount * ethAmount}{initToken0Amount}) * F_t}\\\\\\\\\n                = \\frac{E_t * erc20Amount * initToken0Amount + U_t * ethAmount * initToken0Amount}{( erc20Amount * initToken0Amount + initToken1Amount * ethAmount) * F_t} \\\\\\\\\n                = \\frac{balance0 * erc20Amount * initToken0Amount + balance1 * ethAmount * initToken0Amount}{(erc20Amount * initToken0Amount + initToken1Amount * ethAmount) * totalSupply}\n             */\n            uint256 balance0MulErc20AmountMulInitToken0Amount = balance0.mul(erc20Amount).mul(initToken0Amount);\n            uint256 balance1MulEthAmountMulInitToken0Amount = balance1.mul(ethAmount).mul(initToken0Amount);\n            uint256 initToken1AmountMulEthAmount = initToken1Amount.mul(ethAmount);\n            uint256 initToken0AmountMulErc20Amount = erc20Amount.mul(initToken0Amount);\n\n            navps = (balance0MulErc20AmountMulInitToken0Amount.add(balance1MulEthAmountMulInitToken0Amount))\n                        .div(_totalSupply).mul(NAVPS_BASE)\n                        .div(initToken1AmountMulEthAmount.add(initToken0AmountMulErc20Amount));\n        }\n    }\n\n    // use it in this contract, for optimized gas usage\n    function calcLiquidity(uint256 amount0, uint256 navps) public pure returns (uint256 liquidity) {\n        liquidity = amount0.mul(NAVPS_BASE).div(navps);\n    }\n\n    // get Net Asset Value Per Share for mint\n    // only for read, could cost more gas if use it directly in contract\n    function getNAVPerShareForMint(OraclePrice memory _op) public view returns (uint256 navps) {\n        return calcNAVPerShare(reserve0, reserve1, _op.ethAmount, _op.erc20Amount);\n    }\n\n    // get Net Asset Value Per Share for burn\n    // only for read, could cost more gas if use it directly in contract\n    function getNAVPerShareForBurn(OraclePrice memory _op) external view returns (uint256 navps) {\n        return calcNAVPerShare(reserve0, reserve1, _op.ethAmount, _op.erc20Amount);\n    }\n\n    // get Net Asset Value Per Share\n    // only for read, could cost more gas if use it directly in contract\n    function getNAVPerShare(uint256 ethAmount, uint256 erc20Amount) external override view returns (uint256 navps) {\n        return calcNAVPerShare(reserve0, reserve1, ethAmount, erc20Amount);\n    }\n\n    // get estimated liquidity amount (it represents the amount of pool tokens will be minted if someone provide liquidity to the pool)\n    // only for read, could cost more gas if use it directly in contract\n    function getLiquidity(uint256 amount0, OraclePrice memory _op) external view returns (uint256 liquidity) {\n        uint256 navps = getNAVPerShareForMint(_op);\n        return calcLiquidity(amount0, navps);\n    }\n\n    function calcOutTokenAndETHForBurn(uint256 liquidity, OraclePrice memory _op) public view returns (uint256 amountTokenOut, uint256 amountEthOut, uint256 fee) {\n        // amountEthOut = liquidity * navps * (THETA_BASE - theta) / THETA_BASE\n        // amountTokenOut = liquidity * navps * (THETA_BASE - theta) * initToken1Amount / (initToken0Amount * THETA_BASE)\n        uint256 navps;\n        {\n            navps = calcNAVPerShare(reserve0, reserve1, _op.ethAmount, _op.erc20Amount);\n            uint256 amountEth = liquidity.mul(navps);\n\n            uint256 amountEthOutLarge = amountEth.mul(THETA_BASE.sub(_op.theta));\n            amountEthOut = amountEthOutLarge.div(NAVPS_BASE).div(THETA_BASE);\n            amountTokenOut = amountEthOutLarge.mul(initToken1Amount).div(NAVPS_BASE).div(initToken0Amount).div(THETA_BASE);\n            // amountTokenOut = amountEthOut.mul(initToken1Amount).div(initToken0Amount);\n        }\n\n        if (_op.theta != 0) {\n            /*\n            fee = liquidity * navps * (1 + \\frac{k_0}{P_t}) * theta \\\\\\\\\n                = \\frac{liquidity * navps * (1 + \\frac{initToken1Amount}{initToken0Amount} * \\frac{ethAmount}{erc20Amount}) * theta}{NAVPS\\_BASE * THETA\\_BASE}\\\\\\\\\n                = \\frac{liquidity * navps * (initToken0Amount * erc20Amount + initToken1Amount * ethAmount) * theta}{initToken0Amount * erc20Amount * NAVPS\\_BASE * THETA\\_BASE}\n             */\n            {\n                uint256 initToken1AmountMulEthAmount = initToken1Amount.mul(_op.ethAmount);\n                uint256 erc20AmountMulInitToken0Amount = _op.erc20Amount.mul(initToken0Amount);\n                fee = navps.mul(initToken1AmountMulEthAmount.add(erc20AmountMulInitToken0Amount)).div(erc20AmountMulInitToken0Amount).mul(liquidity).mul(_op.theta).div(THETA_BASE).div(NAVPS_BASE);\n            }\n        }\n\n        // recalc amountOut when has no enough reserve0 or reserve1 to out in initAssetRatio\n        {\n            if (amountEthOut > reserve0) {\n                // user first, out eth as much as possibile. And may leave over a few amounts of reserve1. \n                uint256 amountEthInsufficient = amountEthOut - reserve0;\n                uint256 amountTokenEquivalent = amountEthInsufficient.mul(_op.erc20Amount).div(_op.ethAmount);\n                amountTokenOut = amountTokenOut.add(amountTokenEquivalent);\n                if (amountTokenOut > reserve1) {\n                    amountTokenOut = reserve1;\n                }\n                amountEthOut = reserve0;\n\n                // protocol first, eth was firstly used to pay fee. And when reserve0 is enough for fee, the reserves can clear as much as possible.\n                // if (fee > reserve0) {\n                //     fee = reserve0;\n                // }\n                // uint256 amountEthInsufficient = amountEthOut - (reserve0 - fee);\n                // uint256 amountTokenEquivalent = amountEthInsufficient.mul(_op.erc20Amount).div(_op.ethAmount);\n                // amountTokenOut = amountTokenOut.add(amountTokenEquivalent);\n                // if (amountTokenOut > reserve1) {\n                //     amountTokenOut = reserve1;\n                // }\n                // amountEthOut = reserve0 - fee;    \n            } else if (amountTokenOut > reserve1) {\n                uint256 amountTokenInsufficient = amountTokenOut - reserve1;\n                uint256 amountEthEquivalent = amountTokenInsufficient.mul(_op.ethAmount).div(_op.erc20Amount);\n                amountEthOut = amountEthOut.add(amountEthEquivalent);\n                if (amountEthOut > reserve0) {\n                    amountEthOut = reserve0;\n                }\n                amountTokenOut = reserve1;\n            }\n        }   \n    }\n\n    // get estimated amountOut for token0 (WETH) when swapWithExact\n    function calcOutToken0(uint256 amountIn, OraclePrice memory _op) public pure returns (uint256 amountOut, uint256 fee) {\n        /*\n        x &= (a/P_{b}^{'})*\\frac{THETA_{BASE} - \\theta}{THETA_{BASE}} \\\\\\\\\n          &= a / (\\frac{erc20Amount}{ethAmount} * \\frac{(k_{BASE} + k)}{(k_{BASE})}) * \\frac{THETA_{BASE} - \\theta}{THETA_{BASE}} \\\\\\\\\n          &= \\frac{a*ethAmount*k_{BASE}}{erc20Amount*(k_{BASE} + k)} * \\frac{THETA_{BASE} - \\theta}{THETA_{BASE}} \\\\\\\\\n          &= \\frac{a*ethAmount*k_{BASE}*(THETA_{BASE} - \\theta)}{erc20Amount*(k_{BASE} + k)*THETA_{BASE}} \\\\\\\\\n        // amountOut = amountIn * _op.ethAmount * K_BASE * (THETA_BASE - _op.theta) / _op.erc20Amount / (K_BASE + _op.K) / THETA_BASE;\n        */\n        amountOut = amountIn.mul(_op.ethAmount).mul(K_BASE).mul(THETA_BASE.sub(_op.theta)).div(_op.erc20Amount).div(K_BASE.add(_op.K)).div(THETA_BASE);\n        if (_op.theta != 0) {\n            // fee = amountIn * _op.ethAmount * K_BASE * (_op.theta) / _op.erc20Amount / (K_BASE + _op.K) / THETA_BASE;\n            fee = amountIn.mul(_op.ethAmount).mul(K_BASE).mul(_op.theta).div(_op.erc20Amount).div(K_BASE.add(_op.K)).div(THETA_BASE);\n        }\n        return (amountOut, fee);\n    }\n\n    // get estimated amountOut for token1 (ERC20 token) when swapWithExact\n    function calcOutToken1(uint256 amountIn, OraclePrice memory _op) public pure returns (uint256 amountOut, uint256 fee) {\n        /*\n        y &= b*P_{s}^{'}*\\frac{THETA_{BASE} - \\theta}{THETA_{BASE}} \\\\\\\\\n          &= b * \\frac{erc20Amount}{ethAmount} * \\frac{(k_{BASE} - k)}{(k_{BASE})} * \\frac{THETA_{BASE} - \\theta}{THETA_{BASE}} \\\\\\\\\n          &= \\frac{b*erc20Amount*(k_{BASE} - k)*(THETA_{BASE} - \\theta)}{ethAmount*k_{BASE}*THETA_{BASE}} \\\\\\\\\n        // amountOut = amountIn * _op.erc20Amount * (K_BASE - _op.K) * (THETA_BASE - _op.theta) / _op.ethAmount / K_BASE / THETA_BASE;\n        */\n        amountOut = amountIn.mul(_op.erc20Amount).mul(K_BASE.sub(_op.K)).mul(THETA_BASE.sub(_op.theta)).div(_op.ethAmount).div(K_BASE).div(THETA_BASE);\n        if (_op.theta != 0) {\n            // fee = amountIn * _op.theta / THETA_BASE;\n            fee = amountIn.mul(_op.theta).div(THETA_BASE);\n        }\n        return (amountOut, fee);\n    }\n\n    // get estimate amountInNeeded for token0 (WETH) when swapForExact\n    function calcInNeededToken0(uint256 amountOut, OraclePrice memory _op) public pure returns (uint256 amountInNeeded, uint256 fee) {\n        // inverse of calcOutToken1\n        // amountOut = amountIn.mul(_op.erc20Amount).mul(K_BASE.sub(_op.K)).mul(THETA_BASE.sub(_op.theta)).div(_op.ethAmount).div(K_BASE).div(THETA_BASE);\n        amountInNeeded = amountOut.mul(_op.ethAmount).mul(K_BASE).mul(THETA_BASE).div(_op.erc20Amount).div(K_BASE.sub(_op.K)).div(THETA_BASE.sub(_op.theta));\n        if (_op.theta != 0) {\n            // fee = amountIn * _op.theta / THETA_BASE;\n            fee = amountInNeeded.mul(_op.theta).div(THETA_BASE);\n        }\n        return (amountInNeeded, fee);\n    }\n\n    // get estimate amountInNeeded for token1 (ERC20 token) when swapForExact\n    function calcInNeededToken1(uint256 amountOut, OraclePrice memory _op) public pure returns (uint256 amountInNeeded, uint256 fee) {\n        // inverse of calcOutToken0\n        // amountOut = amountIn.mul(_op.ethAmount).mul(K_BASE).mul(THETA_BASE.sub(_op.theta)).div(_op.erc20Amount).div(K_BASE.add(_op.K)).div(THETA_BASE);\n        amountInNeeded = amountOut.mul(_op.erc20Amount).mul(K_BASE.add(_op.K)).mul(THETA_BASE).div(_op.ethAmount).div(K_BASE).div(THETA_BASE.sub(_op.theta));\n        if (_op.theta != 0) {\n            // fee = amountIn * _op.ethAmount * K_BASE * (_op.theta) / _op.erc20Amount / (K_BASE + _op.K) / THETA_BASE;\n            fee = amountInNeeded.mul(_op.ethAmount).mul(K_BASE).mul(_op.theta).div(_op.erc20Amount).div(K_BASE.add(_op.K)).div(THETA_BASE);\n        }\n        return (amountInNeeded, fee);\n    }\n\n    function _queryOracle(address token, CoFiX_OP op, bytes memory data) internal returns (uint256, uint256, uint256, uint256, uint256) {\n        return ICoFiXV2Controller(ICoFiXV2Factory(factory).getController()).queryOracle{value: msg.value}(token, uint8(op), data);\n    }\n\n    function _safeSendFeeForDAO(address _token0, uint256 _fee) internal {\n        address feeReceiver = ICoFiXV2Factory(factory).getFeeReceiver();\n        if (feeReceiver == address(0)) {\n            return; // if feeReceiver not set, theta fee keeps in pair pool\n        }\n        uint256 bal = IWETH(_token0).balanceOf(address(this));\n        if (_fee > bal) {\n            _fee = bal;\n        }\n\n        IWETH(_token0).withdraw(_fee);\n        if (_fee > 0) TransferHelper.safeTransferETH(feeReceiver, _fee); // transfer fee to protocol dao for redeem Cofi\n        // ICoFiXV2DAO(dao).addETHReward{value: _fee}(); \n    }\n\n    // // Safe WETH transfer function, just in case not having enough WETH. CoFi holder will earn these fees.\n    // function _safeSendFeeForCoFiHolder(address _token0, uint256 _fee) internal {\n    //     address feeReceiver = ICoFiXV2Factory(factory).getFeeReceiver();\n    //     if (feeReceiver == address(0)) {\n    //         return; // if feeReceiver not set, theta fee keeps in pair pool\n    //     }\n    //     _safeSendFee(_token0, feeReceiver, _fee); // transfer fee to protocol fee reward pool for CoFi holders\n    // }\n\n    // Safe WETH transfer function, just in case not having enough WETH. LP will earn these fees.\n    function _safeSendFeeForLP(address _token0, address _token1, uint256 _fee) internal {\n        address feeVault = ICoFiXV2Factory(factory).getFeeVaultForLP(_token1);\n        if (feeVault == address(0)) {\n            return; // if fee vault not set, theta fee keeps in pair pool\n        }\n        _safeSendFee(_token0, feeVault, _fee); // transfer fee to protocol fee reward pool for LP\n    }\n\n    function _safeSendFee(address _token0, address _receiver, uint256 _fee) internal {\n        uint256 wethBal = IERC20(_token0).balanceOf(address(this));\n        if (_fee > wethBal) {\n            _fee = wethBal;\n        }\n        if (_fee > 0) _safeTransfer(_token0, _receiver, _fee); \n    }\n}\n//  & CoFi Rocks\n",
  "sourcePath": "/Users/lixiansheng/Downloads/CoFix/contracts/CoFiXV2Pair.sol",
  "compiler": {
    "name": "solc",
    "version": "0.6.12+commit.27d51765.Emscripten.clang"
  },
  "schemaVersion": "3.3.3",
  "updatedAt": "2021-05-11T03:51:12.866Z",
  "networkType": "ethereum",
  "devdoc": {
    "kind": "dev",
    "methods": {
      "getInitialAssetRatio()": {
        "details": "get initial asset ratio",
        "returns": {
          "_initToken0Amount": "Token0(ETH) side of initial asset ratio {ETH <-> ERC20 Token}",
          "_initToken1Amount": "Token1(ERC20) side of initial asset ratio {ETH <-> ERC20 Token}"
        }
      },
      "getNAVPerShare(uint256,uint256)": {
        "details": "get Net Asset Value Per Share",
        "params": {
          "erc20Amount": "Token side of Oracle price {ETH <-> ERC20 Token}",
          "ethAmount": "ETH side of Oracle price {ETH <-> ERC20 Token}"
        },
        "returns": {
          "navps": "The Net Asset Value Per Share (liquidity) represents"
        }
      }
    },
    "version": 1
  },
  "userdoc": {
    "kind": "user",
    "methods": {},
    "version": 1
  }
}