{
  "contractName": "CoFiXVaultForLP",
  "abi": [
    {
      "inputs": [
        {
          "internalType": "address",
          "name": "cofi",
          "type": "address"
        },
        {
          "internalType": "address",
          "name": "_factory",
          "type": "address"
        }
      ],
      "stateMutability": "nonpayable",
      "type": "constructor"
    },
    {
      "anonymous": false,
      "inputs": [
        {
          "indexed": false,
          "internalType": "address",
          "name": "pool",
          "type": "address"
        },
        {
          "indexed": false,
          "internalType": "uint256",
          "name": "index",
          "type": "uint256"
        }
      ],
      "name": "NewPoolAdded",
      "type": "event"
    },
    {
      "anonymous": false,
      "inputs": [
        {
          "indexed": false,
          "internalType": "address",
          "name": "pool",
          "type": "address"
        }
      ],
      "name": "PoolDisabled",
      "type": "event"
    },
    {
      "anonymous": false,
      "inputs": [
        {
          "indexed": false,
          "internalType": "address",
          "name": "pool",
          "type": "address"
        }
      ],
      "name": "PoolEnabled",
      "type": "event"
    },
    {
      "inputs": [],
      "name": "RATE_BASE",
      "outputs": [
        {
          "internalType": "uint256",
          "name": "",
          "type": "uint256"
        }
      ],
      "stateMutability": "view",
      "type": "function",
      "constant": true
    },
    {
      "inputs": [],
      "name": "WEIGHT_BASE",
      "outputs": [
        {
          "internalType": "uint256",
          "name": "",
          "type": "uint256"
        }
      ],
      "stateMutability": "view",
      "type": "function",
      "constant": true
    },
    {
      "inputs": [
        {
          "internalType": "uint256",
          "name": "",
          "type": "uint256"
        }
      ],
      "name": "allPools",
      "outputs": [
        {
          "internalType": "address",
          "name": "",
          "type": "address"
        }
      ],
      "stateMutability": "view",
      "type": "function",
      "constant": true
    },
    {
      "inputs": [],
      "name": "cofiToken",
      "outputs": [
        {
          "internalType": "address",
          "name": "",
          "type": "address"
        }
      ],
      "stateMutability": "view",
      "type": "function",
      "constant": true
    },
    {
      "inputs": [],
      "name": "decayPeriod",
      "outputs": [
        {
          "internalType": "uint256",
          "name": "",
          "type": "uint256"
        }
      ],
      "stateMutability": "view",
      "type": "function",
      "constant": true
    },
    {
      "inputs": [],
      "name": "decayRate",
      "outputs": [
        {
          "internalType": "uint256",
          "name": "",
          "type": "uint256"
        }
      ],
      "stateMutability": "view",
      "type": "function",
      "constant": true
    },
    {
      "inputs": [],
      "name": "enabledCnt",
      "outputs": [
        {
          "internalType": "uint256",
          "name": "",
          "type": "uint256"
        }
      ],
      "stateMutability": "view",
      "type": "function",
      "constant": true
    },
    {
      "inputs": [],
      "name": "factory",
      "outputs": [
        {
          "internalType": "address",
          "name": "",
          "type": "address"
        }
      ],
      "stateMutability": "view",
      "type": "function",
      "constant": true
    },
    {
      "inputs": [],
      "name": "genesisBlock",
      "outputs": [
        {
          "internalType": "uint256",
          "name": "",
          "type": "uint256"
        }
      ],
      "stateMutability": "view",
      "type": "function",
      "constant": true
    },
    {
      "inputs": [],
      "name": "governance",
      "outputs": [
        {
          "internalType": "address",
          "name": "",
          "type": "address"
        }
      ],
      "stateMutability": "view",
      "type": "function",
      "constant": true
    },
    {
      "inputs": [],
      "name": "initCoFiRate",
      "outputs": [
        {
          "internalType": "uint256",
          "name": "",
          "type": "uint256"
        }
      ],
      "stateMutability": "view",
      "type": "function",
      "constant": true
    },
    {
      "inputs": [
        {
          "internalType": "address",
          "name": "",
          "type": "address"
        }
      ],
      "name": "pairToStakingPool",
      "outputs": [
        {
          "internalType": "address",
          "name": "",
          "type": "address"
        }
      ],
      "stateMutability": "view",
      "type": "function",
      "constant": true
    },
    {
      "inputs": [
        {
          "internalType": "address",
          "name": "",
          "type": "address"
        }
      ],
      "name": "poolInfo",
      "outputs": [
        {
          "internalType": "enum ICoFiXVaultForLP.POOL_STATE",
          "name": "state",
          "type": "uint8"
        },
        {
          "internalType": "uint256",
          "name": "weight",
          "type": "uint256"
        }
      ],
      "stateMutability": "view",
      "type": "function",
      "constant": true
    },
    {
      "inputs": [
        {
          "internalType": "address",
          "name": "_new",
          "type": "address"
        }
      ],
      "name": "setGovernance",
      "outputs": [],
      "stateMutability": "nonpayable",
      "type": "function"
    },
    {
      "inputs": [
        {
          "internalType": "uint256",
          "name": "_new",
          "type": "uint256"
        }
      ],
      "name": "setInitCoFiRate",
      "outputs": [],
      "stateMutability": "nonpayable",
      "type": "function"
    },
    {
      "inputs": [
        {
          "internalType": "uint256",
          "name": "_new",
          "type": "uint256"
        }
      ],
      "name": "setDecayPeriod",
      "outputs": [],
      "stateMutability": "nonpayable",
      "type": "function"
    },
    {
      "inputs": [
        {
          "internalType": "uint256",
          "name": "_new",
          "type": "uint256"
        }
      ],
      "name": "setDecayRate",
      "outputs": [],
      "stateMutability": "nonpayable",
      "type": "function"
    },
    {
      "inputs": [
        {
          "internalType": "address",
          "name": "pool",
          "type": "address"
        }
      ],
      "name": "addPool",
      "outputs": [],
      "stateMutability": "nonpayable",
      "type": "function"
    },
    {
      "inputs": [
        {
          "internalType": "address",
          "name": "pool",
          "type": "address"
        }
      ],
      "name": "enablePool",
      "outputs": [],
      "stateMutability": "nonpayable",
      "type": "function"
    },
    {
      "inputs": [
        {
          "internalType": "address",
          "name": "pool",
          "type": "address"
        }
      ],
      "name": "disablePool",
      "outputs": [],
      "stateMutability": "nonpayable",
      "type": "function"
    },
    {
      "inputs": [
        {
          "internalType": "address",
          "name": "pool",
          "type": "address"
        },
        {
          "internalType": "uint256",
          "name": "weight",
          "type": "uint256"
        }
      ],
      "name": "setPoolWeight",
      "outputs": [],
      "stateMutability": "nonpayable",
      "type": "function"
    },
    {
      "inputs": [
        {
          "internalType": "address[]",
          "name": "pools",
          "type": "address[]"
        },
        {
          "internalType": "uint256[]",
          "name": "weights",
          "type": "uint256[]"
        }
      ],
      "name": "batchSetPoolWeight",
      "outputs": [],
      "stateMutability": "nonpayable",
      "type": "function"
    },
    {
      "inputs": [
        {
          "internalType": "address",
          "name": "pair",
          "type": "address"
        }
      ],
      "name": "getPendingRewardOfLP",
      "outputs": [
        {
          "internalType": "uint256",
          "name": "",
          "type": "uint256"
        }
      ],
      "stateMutability": "view",
      "type": "function",
      "constant": true
    },
    {
      "inputs": [
        {
          "internalType": "address",
          "name": "to",
          "type": "address"
        },
        {
          "internalType": "uint256",
          "name": "amount",
          "type": "uint256"
        }
      ],
      "name": "distributeReward",
      "outputs": [],
      "stateMutability": "nonpayable",
      "type": "function"
    },
    {
      "inputs": [],
      "name": "currentPeriod",
      "outputs": [
        {
          "internalType": "uint256",
          "name": "",
          "type": "uint256"
        }
      ],
      "stateMutability": "view",
      "type": "function",
      "constant": true
    },
    {
      "inputs": [],
      "name": "currentCoFiRate",
      "outputs": [
        {
          "internalType": "uint256",
          "name": "",
          "type": "uint256"
        }
      ],
      "stateMutability": "view",
      "type": "function",
      "constant": true
    },
    {
      "inputs": [
        {
          "internalType": "address",
          "name": "pool",
          "type": "address"
        }
      ],
      "name": "currentPoolRate",
      "outputs": [
        {
          "internalType": "uint256",
          "name": "poolRate",
          "type": "uint256"
        }
      ],
      "stateMutability": "view",
      "type": "function",
      "constant": true
    },
    {
      "inputs": [
        {
          "internalType": "address",
          "name": "pair",
          "type": "address"
        }
      ],
      "name": "currentPoolRateByPair",
      "outputs": [
        {
          "internalType": "uint256",
          "name": "poolRate",
          "type": "uint256"
        }
      ],
      "stateMutability": "view",
      "type": "function",
      "constant": true
    },
    {
      "inputs": [
        {
          "internalType": "address",
          "name": "pair",
          "type": "address"
        }
      ],
      "name": "stakingPoolForPair",
      "outputs": [
        {
          "internalType": "address",
          "name": "pool",
          "type": "address"
        }
      ],
      "stateMutability": "view",
      "type": "function",
      "constant": true
    },
    {
      "inputs": [
        {
          "internalType": "address",
          "name": "pool",
          "type": "address"
        }
      ],
      "name": "getPoolInfo",
      "outputs": [
        {
          "internalType": "enum ICoFiXVaultForLP.POOL_STATE",
          "name": "state",
          "type": "uint8"
        },
        {
          "internalType": "uint256",
          "name": "weight",
          "type": "uint256"
        }
      ],
      "stateMutability": "view",
      "type": "function",
      "constant": true
    },
    {
      "inputs": [
        {
          "internalType": "address",
          "name": "pair",
          "type": "address"
        }
      ],
      "name": "getPoolInfoByPair",
      "outputs": [
        {
          "internalType": "enum ICoFiXVaultForLP.POOL_STATE",
          "name": "state",
          "type": "uint8"
        },
        {
          "internalType": "uint256",
          "name": "weight",
          "type": "uint256"
        }
      ],
      "stateMutability": "view",
      "type": "function",
      "constant": true
    },
    {
      "inputs": [],
      "name": "getEnabledPoolCnt",
      "outputs": [
        {
          "internalType": "uint256",
          "name": "",
          "type": "uint256"
        }
      ],
      "stateMutability": "view",
      "type": "function",
      "constant": true
    },
    {
      "inputs": [],
      "name": "getCoFiStakingPool",
      "outputs": [
        {
          "internalType": "address",
          "name": "pool",
          "type": "address"
        }
      ],
      "stateMutability": "view",
      "type": "function",
      "constant": true
    }
  ],
  "bytecode": "0x60e0604052677ce66c50e284000060025562249f00600355605060045534801561002857600080fd5b506040516120d23803806120d28339818101604052604081101561004b57600080fd5b508051602090910151600160008190556001600160601b0319606093841b81166080529190921b1660a05280546001600160a01b031916331790554360c05260805160601c60a05160601c60c051611ffd6100d56000398061070752806110d9525080610a61528061151a52806116df52806117cd525080610ca952806113ec5250611ffd6000f3fe608060405234801561001057600080fd5b506004361061020b5760003560e01c80635d941dd51161012a578063b26acd7a116100bd578063d914cd4b1161008c578063defe80ef11610071578063defe80ef1461065d578063e665cfe014610665578063f8a6d78f1461068b5761020b565b8063d914cd4b14610611578063dcaaa61b146106375761020b565b8063b26acd7a146105a0578063c45a0155146105bd578063cc28ac6a146105c5578063cc442f7c146105eb5761020b565b8063a66771db116100f9578063a66771db14610544578063a9c1f2f11461056a578063ab033ea914610572578063af1734ac146105985761020b565b80635d941dd5146104e8578063643a8b24146104f057806379d5d863146105165780639a7b5f111461051e5761020b565b8063342f802b116101a257806348d67e1b1161017157806348d67e1b146104aa5780634cdc9c63146104b2578063595aeb50146104ba5780635aa6e675146104e05761020b565b8063342f802b1461030757806338d8294b146103245780633be8b7681461036657806341d1de971461048d5761020b565b80630873c6ec116101de5780630873c6ec146102c35780630c5890a0146102cb5780631ec8bb8c146102d357806324de74bd146102ff5761020b565b806304e7e0b914610210578063060406181461022f57806306bfa9381461024957806307ec6c8114610297575b600080fd5b61022d6004803603602081101561022657600080fd5b5035610693565b005b6102376106f7565b60408051918252519081900360200190f35b61026f6004803603602081101561025f57600080fd5b50356001600160a01b0316610736565b6040518083600281111561027f57fe5b81526020018281526020019250505060405180910390f35b61022d600480360360408110156102ad57600080fd5b506001600160a01b03813516906020013561075d565b610237610907565b610237610913565b61022d600480360360408110156102e957600080fd5b506001600160a01b038135169060200135610919565b610237610d42565b61022d6004803603602081101561031d57600080fd5b5035610d48565b61034a6004803603602081101561033a57600080fd5b50356001600160a01b0316610de8565b604080516001600160a01b039092168252519081900360200190f35b61022d6004803603604081101561037c57600080fd5b81019060208101813564010000000081111561039757600080fd5b8201836020820111156103a957600080fd5b803590602001918460208302840111640100000000831117156103cb57600080fd5b919080806020026020016040519081016040528093929190818152602001838360200280828437600092019190915250929594936020810193503591505064010000000081111561041b57600080fd5b82018360208201111561042d57600080fd5b8035906020019184602083028401116401000000008311171561044f57600080fd5b919080806020026020016040519081016040528093929190818152602001838360200280828437600092019190915250929550610e09945050505050565b61034a600480360360208110156104a357600080fd5b50356110aa565b6102376110d1565b6102376110d7565b61022d600480360360208110156104d057600080fd5b50356001600160a01b03166110fb565b61034a6113db565b61034a6113ea565b6102376004803603602081101561050657600080fd5b50356001600160a01b031661140e565b610237611464565b61026f6004803603602081101561053457600080fd5b50356001600160a01b03166114b1565b6102376004803603602081101561055a57600080fd5b50356001600160a01b03166114d0565b61023761163c565b61022d6004803603602081101561058857600080fd5b50356001600160a01b0316611642565b61034a6116db565b61022d600480360360208110156105b657600080fd5b5035611767565b61034a6117cb565b61034a600480360360208110156105db57600080fd5b50356001600160a01b03166117ef565b61026f6004803603602081101561060157600080fd5b50356001600160a01b031661180a565b61022d6004803603602081101561062757600080fd5b50356001600160a01b031661183c565b61022d6004803603602081101561064d57600080fd5b50356001600160a01b0316611b5d565b610237611dd1565b6102376004803603602081101561067b57600080fd5b50356001600160a01b0316611dd6565b610237611e03565b6001546001600160a01b031633146106f2576040805162461bcd60e51b815260206004820152601860248201527f435661756c74466f724c503a2021676f7665726e616e63650000000000000000604482015290519081900360640190fd5b600455565b6003546000906107319061072b437f0000000000000000000000000000000000000000000000000000000000000000611e09565b90611e6b565b905090565b6001600160a01b03166000908152600760205260409020805460019091015460ff90911691565b6001546001600160a01b031633146107bc576040805162461bcd60e51b815260206004820152601860248201527f435661756c74466f724c503a2021676f7665726e616e63650000000000000000604482015290519081900360640190fd5b6064811115610812576040805162461bcd60e51b815260206004820152601b60248201527f435661756c74466f724c503a20696e76616c6964207765696768740000000000604482015290519081900360640190fd5b6001600160a01b03821661086d576040805162461bcd60e51b815260206004820152601d60248201527f435661756c74466f725472616465723a20696e76616c696420706f6f6c000000604482015290519081900360640190fd5b60016001600160a01b03831660009081526007602052604090205460ff16600281111561089657fe5b146108e8576040805162461bcd60e51b815260206004820152601d60248201527f435661756c74466f724c503a20706f6f6c206e6f7420656e61626c6564000000604482015290519081900360640190fd5b6001600160a01b03909116600090815260076020526040902060010155565b670de0b6b3a764000081565b60025481565b60026000541415610971576040805162461bcd60e51b815260206004820152601f60248201527f5265656e7472616e637947756172643a207265656e7472616e742063616c6c00604482015290519081900360640190fd5b600260009081553381526007602052604081205460ff169081600281111561099557fe5b14156109e8576040805162461bcd60e51b815260206004820152601c60248201527f435661756c74466f724c503a206f6e6c7920706f6f6c2076616c696400000000604482015290519081900360640190fd5b60028160028111156109f657fe5b1415610a025750610d39565b6001600160a01b038316610a5d576040805162461bcd60e51b815260206004820152601b60248201527f435661756c74466f725472616465723a20696e76616c696420746f0000000000604482015290519081900360640190fd5b60007f00000000000000000000000000000000000000000000000000000000000000006001600160a01b031663b58aa4786040518163ffffffff1660e01b815260040160206040518083038186803b158015610ab857600080fd5b505afa158015610acc573d6000803e3d6000fd5b505050506040513d6020811015610ae257600080fd5b505190506001600160a01b03811615610ca7576000336001600160a01b03166372f702f36040518163ffffffff1660e01b815260040160206040518083038186803b158015610b3057600080fd5b505afa158015610b44573d6000803e3d6000fd5b505050506040513d6020811015610b5a57600080fd5b505190506001600160a01b038116610bb9576040805162461bcd60e51b815260206004820152601d60248201527f435661756c74466f725472616465723a20696e76616c69642070616972000000604482015290519081900360640190fd5b6000826001600160a01b031663a66771db836040518263ffffffff1660e01b815260040180826001600160a01b0316815260200191505060206040518083038186803b158015610c0857600080fd5b505afa158015610c1c573d6000803e3d6000fd5b505050506040513d6020811015610c3257600080fd5b505190508015610ca457826001600160a01b0316633d1b7dcc836040518263ffffffff1660e01b815260040180826001600160a01b03168152602001915050600060405180830381600087803b158015610c8b57600080fd5b505af1158015610c9f573d6000803e3d6000fd5b505050505b50505b7f00000000000000000000000000000000000000000000000000000000000000006001600160a01b03166340c10f1985856040518363ffffffff1660e01b815260040180836001600160a01b0316815260200182815260200192505050600060405180830381600087803b158015610d1e57600080fd5b505af1158015610d32573d6000803e3d6000fd5b5050505050505b50506001600055565b60065490565b6001546001600160a01b03163314610da7576040805162461bcd60e51b815260206004820152601860248201527f435661756c74466f724c503a2021676f7665726e616e63650000000000000000604482015290519081900360640190fd5b80610de35760405162461bcd60e51b8152600401808060200182810382526021815260200180611fa76021913960400191505060405180910390fd5b600355565b6001600160a01b03808216600090815260086020526040902054165b919050565b6001546001600160a01b03163314610e68576040805162461bcd60e51b815260206004820152601860248201527f435661756c74466f724c503a2021676f7665726e616e63650000000000000000604482015290519081900360640190fd5b815181518114610ebf576040805162461bcd60e51b815260206004820152601960248201527f435661756c74466f724c503a206d69736d61746368206c656e00000000000000604482015290519081900360640190fd5b60005b818110156110a45760006001600160a01b0316848281518110610ee157fe5b60200260200101516001600160a01b03161415610f45576040805162461bcd60e51b815260206004820152601d60248201527f435661756c74466f725472616465723a20696e76616c696420706f6f6c000000604482015290519081900360640190fd5b6064838281518110610f5357fe5b60200260200101511115610fae576040805162461bcd60e51b815260206004820152601b60248201527f435661756c74466f724c503a20696e76616c6964207765696768740000000000604482015290519081900360640190fd5b600160076000868481518110610fc057fe5b6020908102919091018101516001600160a01b031682528101919091526040016000205460ff166002811115610ff257fe5b14611044576040805162461bcd60e51b815260206004820152601d60248201527f435661756c74466f724c503a20706f6f6c206e6f7420656e61626c6564000000604482015290519081900360640190fd5b82818151811061105057fe5b60200260200101516007600086848151811061106857fe5b60200260200101516001600160a01b03166001600160a01b03168152602001908152602001600020600101819055508080600101915050610ec2565b50505050565b600581815481106110b757fe5b6000918252602090912001546001600160a01b0316905081565b60035481565b7f000000000000000000000000000000000000000000000000000000000000000081565b6001546001600160a01b0316331461115a576040805162461bcd60e51b815260206004820152601860248201527f435661756c74466f724c503a2021676f7665726e616e63650000000000000000604482015290519081900360640190fd5b60026001600160a01b03821660009081526007602052604090205460ff16600281111561118357fe5b146111d5576040805162461bcd60e51b815260206004820152601e60248201527f435661756c74466f724c503a20706f6f6c206e6f742064697361626c65640000604482015290519081900360640190fd5b6001600160a01b038116611230576040805162461bcd60e51b815260206004820152601d60248201527f435661756c74466f725472616465723a20696e76616c696420706f6f6c000000604482015290519081900360640190fd5b6001600160a01b038116600090815260076020526040902080547fffffffffffffffffffffffffffffffffffffffffffffffffffffffffffffff0016600190811790915560065461128091611ed2565b6006819055506000816001600160a01b03166372f702f36040518163ffffffff1660e01b815260040160206040518083038186803b1580156112c157600080fd5b505afa1580156112d5573d6000803e3d6000fd5b505050506040513d60208110156112eb57600080fd5b50516001600160a01b03808216600090815260086020526040902054919250161561135d576040805162461bcd60e51b815260206004820152601760248201527f435661756c74466f724c503a2070616972206164646564000000000000000000604482015290519081900360640190fd5b6001600160a01b0381811660009081526008602090815260409182902080547fffffffffffffffffffffffff0000000000000000000000000000000000000000169386169384179055815192835290517ff37bc7d2dc2b5bd3afd83f8325fd7f602d73391cc33915689bea4c61f81b12d99281900390910190a15050565b6001546001600160a01b031681565b7f000000000000000000000000000000000000000000000000000000000000000081565b60065460009080611423576000915050610e04565b600061142d611464565b6001600160a01b03851660009081526007602052604090206001015490915061145b606461072b8484611f2c565b95945050505050565b60008061146f6106f7565b9050600481111561147e575060045b60025460045460005b838110156114a85761149e606461072b8585611f2c565b9250600101611487565b50909250505090565b6007602052600090815260409020805460019091015460ff9091169082565b3360009081526007602052604081205460ff16818160028111156114f057fe5b14806115075750600281600281111561150557fe5b145b15611516576000915050610e04565b60007f00000000000000000000000000000000000000000000000000000000000000006001600160a01b031663b58aa4786040518163ffffffff1660e01b815260040160206040518083038186803b15801561157157600080fd5b505afa158015611585573d6000803e3d6000fd5b505050506040513d602081101561159b57600080fd5b505190506001600160a01b0381166115b857600092505050610e04565b6000816001600160a01b031663a66771db866040518263ffffffff1660e01b815260040180826001600160a01b0316815260200191505060206040518083038186803b15801561160757600080fd5b505afa15801561161b573d6000803e3d6000fd5b505050506040513d602081101561163157600080fd5b505195945050505050565b60045481565b6001546001600160a01b031633146116a1576040805162461bcd60e51b815260206004820152601860248201527f435661756c74466f724c503a2021676f7665726e616e63650000000000000000604482015290519081900360640190fd5b600180547fffffffffffffffffffffffff0000000000000000000000000000000000000000166001600160a01b0392909216919091179055565b60007f00000000000000000000000000000000000000000000000000000000000000006001600160a01b031663e8a353926040518163ffffffff1660e01b815260040160206040518083038186803b15801561173657600080fd5b505afa15801561174a573d6000803e3d6000fd5b505050506040513d602081101561176057600080fd5b5051905090565b6001546001600160a01b031633146117c6576040805162461bcd60e51b815260206004820152601860248201527f435661756c74466f724c503a2021676f7665726e616e63650000000000000000604482015290519081900360640190fd5b600255565b7f000000000000000000000000000000000000000000000000000000000000000081565b6008602052600090815260409020546001600160a01b031681565b6001600160a01b03808216600090815260086020526040812054909182911661183281610736565b9250925050915091565b6001546001600160a01b0316331461189b576040805162461bcd60e51b815260206004820152601860248201527f435661756c74466f724c503a2021676f7665726e616e63650000000000000000604482015290519081900360640190fd5b6001600160a01b03811660009081526007602052604081205460ff1660028111156118c257fe5b14611914576040805162461bcd60e51b815260206004820152601760248201527f435661756c74466f724c503a20706f6f6c206164646564000000000000000000604482015290519081900360640190fd5b6001600160a01b03811661196f576040805162461bcd60e51b815260206004820152601d60248201527f435661756c74466f725472616465723a20696e76616c696420706f6f6c000000604482015290519081900360640190fd5b6001600160a01b038116600090815260076020526040902080547fffffffffffffffffffffffffffffffffffffffffffffffffffffffffffffff001660019081179091556006546119bf91611ed2565b6006819055506000816001600160a01b03166372f702f36040518163ffffffff1660e01b815260040160206040518083038186803b158015611a0057600080fd5b505afa158015611a14573d6000803e3d6000fd5b505050506040513d6020811015611a2a57600080fd5b50516001600160a01b038082166000908152600860205260409020549192501615611a9c576040805162461bcd60e51b815260206004820152601760248201527f435661756c74466f724c503a2070616972206164646564000000000000000000604482015290519081900360640190fd5b6001600160a01b03808216600090815260086020908152604080832080549487167fffffffffffffffffffffffff0000000000000000000000000000000000000000958616811790915560058054600181018255948190527f036b6384b5eca791c62761152d0c79bb0604c104a5fb6f4eb0703f3154bb3db090940180549095168117909455915482519384529083015280517f38bff197ec9fef6e32271789b78dca0f10af5b2b546ce690a67899f608ba4f4c9281900390910190a15050565b6001546001600160a01b03163314611bbc576040805162461bcd60e51b815260206004820152601860248201527f435661756c74466f724c503a2021676f7665726e616e63650000000000000000604482015290519081900360640190fd5b60016001600160a01b03821660009081526007602052604090205460ff166002811115611be557fe5b14611c37576040805162461bcd60e51b815260206004820152601d60248201527f435661756c74466f724c503a20706f6f6c206e6f7420656e61626c6564000000604482015290519081900360640190fd5b6001600160a01b038116611c92576040805162461bcd60e51b815260206004820152601d60248201527f435661756c74466f725472616465723a20696e76616c696420706f6f6c000000604482015290519081900360640190fd5b6001600160a01b038116600090815260076020526040812080547fffffffffffffffffffffffffffffffffffffffffffffffffffffffffffffff00166002178155600190810191909155600654611ce891611e09565b6006819055506000816001600160a01b03166372f702f36040518163ffffffff1660e01b815260040160206040518083038186803b158015611d2957600080fd5b505afa158015611d3d573d6000803e3d6000fd5b505050506040513d6020811015611d5357600080fd5b50516001600160a01b0380821660009081526008602090815260409182902080547fffffffffffffffffffffffff00000000000000000000000000000000000000001690558151928616835290519293507ff82ae9a5785e9b261d7e8bba20ced7516919ec7bdc4b18e7d916316f4991e53292918290030190a15050565b606481565b6001600160a01b03808216600090815260086020526040812054909116611dfc8161140e565b9392505050565b60065481565b600082821115611e60576040805162461bcd60e51b815260206004820152601e60248201527f536166654d6174683a207375627472616374696f6e206f766572666c6f770000604482015290519081900360640190fd5b508082035b92915050565b6000808211611ec1576040805162461bcd60e51b815260206004820152601a60248201527f536166654d6174683a206469766973696f6e206279207a65726f000000000000604482015290519081900360640190fd5b818381611eca57fe5b049392505050565b600082820183811015611dfc576040805162461bcd60e51b815260206004820152601b60248201527f536166654d6174683a206164646974696f6e206f766572666c6f770000000000604482015290519081900360640190fd5b600082611f3b57506000611e65565b82820282848281611f4857fe5b0414611dfc5760405162461bcd60e51b8152600401808060200182810382526021815260200180611f866021913960400191505060405180910390fdfe536166654d6174683a206d756c7469706c69636174696f6e206f766572666c6f77435661756c74466f724c503a2077726f6e6720706572696f642073657474696e67a2646970667358221220cd1e84ada6fbc29522220d56b5cb838ced984566e1a6d1691b16c54423bf13e864736f6c634300060c0033",
  "immutableReferences": {
    "24500": [
      {
        "length": 32,
        "start": 3241
      },
      {
        "length": 32,
        "start": 5100
      }
    ],
    "24502": [
      {
        "length": 32,
        "start": 2657
      },
      {
        "length": 32,
        "start": 5402
      },
      {
        "length": 32,
        "start": 5855
      },
      {
        "length": 32,
        "start": 6093
      }
    ],
    "24504": [
      {
        "length": 32,
        "start": 1799
      },
      {
        "length": 32,
        "start": 4313
      }
    ]
  },
  "source": "// SPDX-License-Identifier: GPL-3.0-or-later\n\npragma solidity 0.6.12;\n\nimport \"@openzeppelin/contracts/math/SafeMath.sol\";\nimport \"./lib/ABDKMath64x64.sol\";\nimport \"@openzeppelin/contracts/token/ERC20/IERC20.sol\";\nimport \"./interface/ICoFiXVaultForLP.sol\";\nimport \"./interface/ICoFiXStakingRewards.sol\";\nimport \"./interface/ICoFiToken.sol\";\nimport \"@openzeppelin/contracts/utils/ReentrancyGuard.sol\";\nimport \"./interface/ICoFiXFactory.sol\";\nimport \"./interface/ICoFiXVaultForTrader.sol\";\n\n// Reward Pool Controller for Liquidity Provider\ncontract CoFiXVaultForLP is ICoFiXVaultForLP, ReentrancyGuard {\n\n    using SafeMath for uint256;\n\n    uint256 public constant RATE_BASE = 1e18;\n    uint256 public constant WEIGHT_BASE = 100;\n\n    address public immutable cofiToken;\n    address public immutable factory;\n\n    uint256 public immutable genesisBlock;\n\n    // managed by governance\n    address public governance;\n\n    uint256 public initCoFiRate = 9*1e18; // yield per block\n    uint256 public decayPeriod = 2400000; // yield decays for every 2,400,000 blocks\n    uint256 public decayRate = 80;\n\n    address[] public allPools; // add every pool addr to record, make it easier to track\n\n    uint256 public enabledCnt;\n\n    struct PoolInfo {\n        POOL_STATE state;\n        uint256 weight;\n    }\n\n    mapping (address => PoolInfo) public poolInfo; // pool -> poolInfo\n\n    mapping (address => address) public pairToStakingPool; // pair -> staking pool\n\n    modifier onlyGovernance() {\n        require(msg.sender == governance, \"CVaultForLP: !governance\");\n        _;\n    }\n\n    constructor(address cofi, address _factory) public {\n        cofiToken = cofi;\n        factory = _factory;\n        governance = msg.sender;\n        genesisBlock = block.number;\n    }\n\n    /* setters for protocol governance */\n    function setGovernance(address _new) external override onlyGovernance {\n        governance = _new;\n    }\n\n    function setInitCoFiRate(uint256 _new) external override onlyGovernance {\n        initCoFiRate = _new;\n    }\n\n    function setDecayPeriod(uint256 _new) external override onlyGovernance {\n        require(_new != 0, \"CVaultForLP: wrong period setting\");\n        decayPeriod = _new;\n    }\n\n    function setDecayRate(uint256 _new) external override onlyGovernance {\n        decayRate = _new;\n    }\n\n    function addPool(address pool) external override onlyGovernance {\n        require(poolInfo[pool].state == POOL_STATE.INVALID, \"CVaultForLP: pool added\"); // INVALID -> ENABLED\n        require(pool != address(0), \"CVaultForTrader: invalid pool\");\n        poolInfo[pool].state = POOL_STATE.ENABLED;\n        // default rate is zero, to ensure safety\n        enabledCnt = enabledCnt.add(1);\n        // set pair to reward pool map\n        address pair = ICoFiXStakingRewards(pool).stakingToken();\n        require(pairToStakingPool[pair] == address(0), \"CVaultForLP: pair added\");\n        pairToStakingPool[pair] = pool; // staking token is CoFiXPair (XToken)\n        allPools.push(pool); // add once never delete, using for track\n        emit NewPoolAdded(pool, allPools.length);\n    }\n\n    function enablePool(address pool) external override onlyGovernance {\n        require(poolInfo[pool].state == POOL_STATE.DISABLED, \"CVaultForLP: pool not disabled\"); // DISABLED -> ENABLED\n        require(pool != address(0), \"CVaultForTrader: invalid pool\");\n        poolInfo[pool].state = POOL_STATE.ENABLED;\n        enabledCnt = enabledCnt.add(1);\n        // set pair to reward pool map\n        address pair = ICoFiXStakingRewards(pool).stakingToken();\n        require(pairToStakingPool[pair] == address(0), \"CVaultForLP: pair added\");\n        pairToStakingPool[pair] = pool; // staking token is CoFiXPair (XToken)\n        emit PoolEnabled(pool);\n    }\n\n    function disablePool(address pool) external override onlyGovernance {\n        require(poolInfo[pool].state == POOL_STATE.ENABLED, \"CVaultForLP: pool not enabled\"); // ENABLED -> DISABLED\n        require(pool != address(0), \"CVaultForTrader: invalid pool\");\n        poolInfo[pool].state = POOL_STATE.DISABLED;\n        poolInfo[pool].weight = 0; // set pool weight to zero;\n        enabledCnt = enabledCnt.sub(1);\n        address pair = ICoFiXStakingRewards(pool).stakingToken();\n        pairToStakingPool[pair] = address(0); // set pair mapping to zero\n        emit PoolDisabled(pool);\n    }\n\n    function setPoolWeight(address pool, uint256 weight) public override onlyGovernance {\n        require(weight <= WEIGHT_BASE, \"CVaultForLP: invalid weight\");\n        require(pool != address(0), \"CVaultForTrader: invalid pool\");\n        require(poolInfo[pool].state == POOL_STATE.ENABLED, \"CVaultForLP: pool not enabled\"); // only set weight if pool is enabled\n        poolInfo[pool].weight = weight;\n    }\n\n    function batchSetPoolWeight(address[] memory pools, uint256[] memory weights) external override onlyGovernance {\n        uint256 cnt = pools.length;\n        require(cnt == weights.length, \"CVaultForLP: mismatch len\");\n        for (uint256 i = 0; i < cnt; i++) {\n            require(pools[i] != address(0), \"CVaultForTrader: invalid pool\");\n            require(weights[i] <= WEIGHT_BASE, \"CVaultForLP: invalid weight\");\n            require(poolInfo[pools[i]].state == POOL_STATE.ENABLED, \"CVaultForLP: pool not enabled\"); // only set weight if pool is enabled\n            poolInfo[pools[i]].weight = weights[i];\n        }\n        // governance should ensure total weights equal to WEIGHT_BASE\n    }\n    \n    function getPendingRewardOfLP(address pair) external override view returns (uint256) {\n        POOL_STATE poolState = poolInfo[msg.sender].state;\n        if (poolState == POOL_STATE.INVALID || poolState == POOL_STATE.DISABLED) {\n            return 0; // if pool is disabled, it can't mint by call distributeReward, so don't count on any reward for it\n        }\n        // if poolState is enabled, then go on\n        address vaultForTrader = ICoFiXFactory(factory).getVaultForTrader();\n        if (vaultForTrader == address(0)) {\n            return 0; // vaultForTrader is not set yet\n        }\n        uint256 pending = ICoFiXVaultForTrader(vaultForTrader).getPendingRewardOfLP(pair);\n        return pending;\n    }\n\n    function distributeReward(address to, uint256 amount) external override nonReentrant {\n        POOL_STATE poolState = poolInfo[msg.sender].state;\n        require(poolState != POOL_STATE.INVALID, \"CVaultForLP: only pool valid\");\n        if (poolState == POOL_STATE.DISABLED) {\n            return; // make sure tx would revert because user still want to withdraw and getReward\n        }\n        require(to != address(0), \"CVaultForTrader: invalid to\");\n        // if poolState is enabled, then go on. caution: be careful when adding new pool\n        address vaultForTrader = ICoFiXFactory(factory).getVaultForTrader();\n        if (vaultForTrader != address(0)) { // if equal, means vaultForTrader is not set yet\n            address pair = ICoFiXStakingRewards(msg.sender).stakingToken();\n            require(pair != address(0), \"CVaultForTrader: invalid pair\");\n            uint256 pending = ICoFiXVaultForTrader(vaultForTrader).getPendingRewardOfLP(pair);\n            if (pending > 0) {\n                ICoFiXVaultForTrader(vaultForTrader).clearPendingRewardOfLP(pair);\n            }\n        }\n        ICoFiToken(cofiToken).mint(to, amount); // allows zero\n    }\n\n    function currentPeriod() public override view returns (uint256) {\n        return (block.number).sub(genesisBlock).div(decayPeriod);\n    }\n\n    function currentCoFiRate() public override view returns (uint256) {\n        uint256 periodIdx = currentPeriod();\n        if (periodIdx > 4) {\n            periodIdx = 4; // after 5 years, the rate keep constant\n        }\n        uint256 cofiRate = initCoFiRate;\n        uint256 _decayRate = decayRate;\n        for (uint256 i = 0; i < periodIdx; i++) {\n            cofiRate = cofiRate.mul(_decayRate).div(100);\n        }\n        return cofiRate;\n    }\n\n    function currentPoolRate(address pool) public override view returns (uint256 poolRate) {\n        uint256 cnt = enabledCnt;\n        if (cnt == 0) {\n            return 0;\n        }\n        uint256 cofiRate = currentCoFiRate();\n        uint256 weight = poolInfo[pool].weight;\n        poolRate = cofiRate.mul(weight).div(WEIGHT_BASE);\n        return poolRate;\n    }\n\n    function currentPoolRateByPair(address pair) external override view returns (uint256 poolRate) {\n        address pool = pairToStakingPool[pair];\n        poolRate = currentPoolRate(pool);\n        return poolRate;\n    }\n\n    function stakingPoolForPair(address pair) external override view returns (address pool) {\n        return pairToStakingPool[pair];\n    }\n\n    function getPoolInfo(address pool) public override view returns (POOL_STATE state, uint256 weight) {\n        state = poolInfo[pool].state;\n        weight = poolInfo[pool].weight;\n        return (state, weight);\n    }\n\n    function getPoolInfoByPair(address pair) external override view returns (POOL_STATE state, uint256 weight) {\n        address pool = pairToStakingPool[pair];\n        return getPoolInfo(pool);\n    }\n\n    // pools in enabled state\n    function getEnabledPoolCnt() external override view returns (uint256) {\n        return enabledCnt;\n    }\n\n    function getCoFiStakingPool() external override view returns (address pool) {\n        return ICoFiXFactory(factory).getFeeReceiver();\n    }\n\n}",
  "sourcePath": "/Users/lixiansheng/Downloads/CoFix/contracts/CoFiXVaultForLP.sol",
  "compiler": {
    "name": "solc",
    "version": "0.6.12+commit.27d51765.Emscripten.clang"
  },
  "schemaVersion": "3.3.3",
  "updatedAt": "2021-05-11T03:13:28.031Z",
  "networkType": "ethereum",
  "devdoc": {
    "kind": "dev",
    "methods": {
      "stakingPoolForPair(address)": {
        "details": "Get the award staking pool address of pair (XToken)",
        "params": {
          "pair": "The address of XToken(pair) contract"
        },
        "returns": {
          "pool": "The pool address"
        }
      }
    },
    "version": 1
  },
  "userdoc": {
    "kind": "user",
    "methods": {},
    "version": 1
  }
}