{
  "contractName": "CoFiXV2VaultForTrader",
  "abi": [
    {
      "inputs": [
        {
          "internalType": "address",
          "name": "cofi",
          "type": "address"
        },
        {
          "internalType": "address",
          "name": "_factory",
          "type": "address"
        }
      ],
      "stateMutability": "nonpayable",
      "type": "constructor"
    },
    {
      "anonymous": false,
      "inputs": [
        {
          "indexed": false,
          "internalType": "uint256",
          "name": "pendingAmount",
          "type": "uint256"
        }
      ],
      "name": "ClearPendingRewardOfCNode",
      "type": "event"
    },
    {
      "anonymous": false,
      "inputs": [
        {
          "indexed": false,
          "internalType": "uint256",
          "name": "pendingAmount",
          "type": "uint256"
        }
      ],
      "name": "ClearPendingRewardOfLP",
      "type": "event"
    },
    {
      "anonymous": false,
      "inputs": [
        {
          "indexed": false,
          "internalType": "address",
          "name": "router",
          "type": "address"
        }
      ],
      "name": "RouterAllowed",
      "type": "event"
    },
    {
      "anonymous": false,
      "inputs": [
        {
          "indexed": false,
          "internalType": "address",
          "name": "router",
          "type": "address"
        }
      ],
      "name": "RouterDisallowed",
      "type": "event"
    },
    {
      "inputs": [],
      "name": "LAMBDA_BASE",
      "outputs": [
        {
          "internalType": "uint256",
          "name": "",
          "type": "uint256"
        }
      ],
      "stateMutability": "view",
      "type": "function",
      "constant": true
    },
    {
      "inputs": [],
      "name": "RATE_BASE",
      "outputs": [
        {
          "internalType": "uint256",
          "name": "",
          "type": "uint256"
        }
      ],
      "stateMutability": "view",
      "type": "function",
      "constant": true
    },
    {
      "inputs": [],
      "name": "SHARE_BASE",
      "outputs": [
        {
          "internalType": "uint256",
          "name": "",
          "type": "uint256"
        }
      ],
      "stateMutability": "view",
      "type": "function",
      "constant": true
    },
    {
      "inputs": [],
      "name": "SHARE_FOR_CNODE",
      "outputs": [
        {
          "internalType": "uint256",
          "name": "",
          "type": "uint256"
        }
      ],
      "stateMutability": "view",
      "type": "function",
      "constant": true
    },
    {
      "inputs": [],
      "name": "SHARE_FOR_TRADER",
      "outputs": [
        {
          "internalType": "uint256",
          "name": "",
          "type": "uint256"
        }
      ],
      "stateMutability": "view",
      "type": "function",
      "constant": true
    },
    {
      "inputs": [],
      "name": "cofiRate",
      "outputs": [
        {
          "internalType": "uint256",
          "name": "",
          "type": "uint256"
        }
      ],
      "stateMutability": "view",
      "type": "function",
      "constant": true
    },
    {
      "inputs": [],
      "name": "cofiToken",
      "outputs": [
        {
          "internalType": "address",
          "name": "",
          "type": "address"
        }
      ],
      "stateMutability": "view",
      "type": "function",
      "constant": true
    },
    {
      "inputs": [],
      "name": "factory",
      "outputs": [
        {
          "internalType": "address",
          "name": "",
          "type": "address"
        }
      ],
      "stateMutability": "view",
      "type": "function",
      "constant": true
    },
    {
      "inputs": [],
      "name": "governance",
      "outputs": [
        {
          "internalType": "address",
          "name": "",
          "type": "address"
        }
      ],
      "stateMutability": "view",
      "type": "function",
      "constant": true
    },
    {
      "inputs": [],
      "name": "lastDensity",
      "outputs": [
        {
          "internalType": "uint128",
          "name": "",
          "type": "uint128"
        }
      ],
      "stateMutability": "view",
      "type": "function",
      "constant": true
    },
    {
      "inputs": [
        {
          "internalType": "address",
          "name": "",
          "type": "address"
        }
      ],
      "name": "lastMinedBlock",
      "outputs": [
        {
          "internalType": "uint128",
          "name": "",
          "type": "uint128"
        }
      ],
      "stateMutability": "view",
      "type": "function",
      "constant": true
    },
    {
      "inputs": [
        {
          "internalType": "address",
          "name": "",
          "type": "address"
        }
      ],
      "name": "lastNeededETHAmount",
      "outputs": [
        {
          "internalType": "uint256",
          "name": "",
          "type": "uint256"
        }
      ],
      "stateMutability": "view",
      "type": "function",
      "constant": true
    },
    {
      "inputs": [
        {
          "internalType": "address",
          "name": "",
          "type": "address"
        }
      ],
      "name": "lastTotalAccruedAmount",
      "outputs": [
        {
          "internalType": "uint256",
          "name": "",
          "type": "uint256"
        }
      ],
      "stateMutability": "view",
      "type": "function",
      "constant": true
    },
    {
      "inputs": [],
      "name": "pendingRewardsForCNode",
      "outputs": [
        {
          "internalType": "uint256",
          "name": "",
          "type": "uint256"
        }
      ],
      "stateMutability": "view",
      "type": "function",
      "constant": true
    },
    {
      "inputs": [
        {
          "internalType": "address",
          "name": "",
          "type": "address"
        }
      ],
      "name": "pendingRewardsForLP",
      "outputs": [
        {
          "internalType": "uint256",
          "name": "",
          "type": "uint256"
        }
      ],
      "stateMutability": "view",
      "type": "function",
      "constant": true
    },
    {
      "inputs": [
        {
          "internalType": "address",
          "name": "",
          "type": "address"
        }
      ],
      "name": "routerAllowed",
      "outputs": [
        {
          "internalType": "bool",
          "name": "",
          "type": "bool"
        }
      ],
      "stateMutability": "view",
      "type": "function",
      "constant": true
    },
    {
      "inputs": [
        {
          "internalType": "address",
          "name": "_new",
          "type": "address"
        }
      ],
      "name": "setGovernance",
      "outputs": [],
      "stateMutability": "nonpayable",
      "type": "function"
    },
    {
      "inputs": [
        {
          "internalType": "uint256",
          "name": "_cofiRate",
          "type": "uint256"
        }
      ],
      "name": "setCofiRate",
      "outputs": [],
      "stateMutability": "nonpayable",
      "type": "function"
    },
    {
      "inputs": [
        {
          "internalType": "address",
          "name": "router",
          "type": "address"
        }
      ],
      "name": "allowRouter",
      "outputs": [],
      "stateMutability": "nonpayable",
      "type": "function"
    },
    {
      "inputs": [
        {
          "internalType": "address",
          "name": "router",
          "type": "address"
        }
      ],
      "name": "disallowRouter",
      "outputs": [],
      "stateMutability": "nonpayable",
      "type": "function"
    },
    {
      "inputs": [
        {
          "internalType": "address",
          "name": "pair",
          "type": "address"
        },
        {
          "internalType": "uint256",
          "name": "neededETHAmount",
          "type": "uint256"
        }
      ],
      "name": "calcMiningRate",
      "outputs": [
        {
          "internalType": "uint256",
          "name": "",
          "type": "uint256"
        }
      ],
      "stateMutability": "view",
      "type": "function",
      "constant": true
    },
    {
      "inputs": [
        {
          "internalType": "address",
          "name": "pair",
          "type": "address"
        },
        {
          "internalType": "uint256",
          "name": "reserve0",
          "type": "uint256"
        },
        {
          "internalType": "uint256",
          "name": "reserve1",
          "type": "uint256"
        },
        {
          "internalType": "uint256",
          "name": "ethAmount",
          "type": "uint256"
        },
        {
          "internalType": "uint256",
          "name": "erc20Amount",
          "type": "uint256"
        }
      ],
      "name": "calcNeededETHAmountForAdjustment",
      "outputs": [
        {
          "internalType": "uint256",
          "name": "",
          "type": "uint256"
        }
      ],
      "stateMutability": "view",
      "type": "function",
      "constant": true
    },
    {
      "inputs": [
        {
          "internalType": "address",
          "name": "pair",
          "type": "address"
        },
        {
          "internalType": "uint256",
          "name": "reserve0",
          "type": "uint256"
        },
        {
          "internalType": "uint256",
          "name": "reserve1",
          "type": "uint256"
        },
        {
          "internalType": "uint256",
          "name": "ethAmount",
          "type": "uint256"
        },
        {
          "internalType": "uint256",
          "name": "erc20Amount",
          "type": "uint256"
        }
      ],
      "name": "actualMiningAmount",
      "outputs": [
        {
          "internalType": "uint256",
          "name": "amount",
          "type": "uint256"
        },
        {
          "internalType": "uint256",
          "name": "totalAccruedAmount",
          "type": "uint256"
        },
        {
          "internalType": "uint256",
          "name": "neededETHAmount",
          "type": "uint256"
        }
      ],
      "stateMutability": "view",
      "type": "function",
      "constant": true
    },
    {
      "inputs": [
        {
          "internalType": "address",
          "name": "pair",
          "type": "address"
        },
        {
          "internalType": "uint256",
          "name": "ethAmount",
          "type": "uint256"
        },
        {
          "internalType": "uint256",
          "name": "erc20Amount",
          "type": "uint256"
        },
        {
          "internalType": "address",
          "name": "rewardTo",
          "type": "address"
        }
      ],
      "name": "distributeReward",
      "outputs": [],
      "stateMutability": "nonpayable",
      "type": "function"
    },
    {
      "inputs": [],
      "name": "clearPendingRewardOfCNode",
      "outputs": [],
      "stateMutability": "nonpayable",
      "type": "function"
    },
    {
      "inputs": [
        {
          "internalType": "address",
          "name": "pair",
          "type": "address"
        }
      ],
      "name": "clearPendingRewardOfLP",
      "outputs": [],
      "stateMutability": "nonpayable",
      "type": "function"
    },
    {
      "inputs": [],
      "name": "getPendingRewardOfCNode",
      "outputs": [
        {
          "internalType": "uint256",
          "name": "",
          "type": "uint256"
        }
      ],
      "stateMutability": "view",
      "type": "function",
      "constant": true
    },
    {
      "inputs": [
        {
          "internalType": "address",
          "name": "pair",
          "type": "address"
        }
      ],
      "name": "getPendingRewardOfLP",
      "outputs": [
        {
          "internalType": "uint256",
          "name": "",
          "type": "uint256"
        }
      ],
      "stateMutability": "view",
      "type": "function",
      "constant": true
    }
  ],
  "bytecode": "0x60c060405267016345785d8a000060025534801561001c57600080fd5b506040516115523803806115528339818101604052604081101561003f57600080fd5b508051602090910151600160008190556001600160601b0319606093841b81166080529190921b1660a05280546001600160a01b0319163317905560805160601c60a05160601c6114a06100b2600039806108205280610f425280611053525080610ae05280610d7e52506114a06000f3fe608060405234801561001057600080fd5b50600436106101c35760003560e01c8063581c59e6116100f9578063ba30ba2411610097578063e875f0b711610071578063e875f0b7146104b0578063f05b820c146104d6578063fa1fd0fb146104de578063fb7d702c14610504576101c3565b8063ba30ba2414610474578063c45a01551461047c578063d7e1500e14610484576101c3565b80636bac976c116100d35780636bac976c146102c1578063884f3dbf146103ee578063a66771db14610428578063ab033ea91461044e576101c3565b8063581c59e6146103845780635aa6e675146103c25780635d941dd5146103e6576101c3565b8063287d5ecc116101665780633d1b7dcc116101405780633d1b7dcc1461033157806342967b20146103575780634d01e6501461035f578063534bc7c514610367576101c3565b8063287d5ecc146102c9578063316d8bc7146102ef57806338e35102146102f7576101c3565b80630873c6ec116101a25780630873c6ec1461027957806313123f231461029357806318ac6f811461029b5780631d80685d146102c1576101c3565b8062f1fca7146101c857806305de2429146101f55780630748bbfa1461021d575b600080fd5b6101d061052a565b604080516fffffffffffffffffffffffffffffffff9092168252519081900360200190f35b61021b6004803603602081101561020b57600080fd5b50356001600160a01b0316610542565b005b61025b600480360360a081101561023357600080fd5b506001600160a01b03813516906020810135906040810135906060810135906080013561066e565b60408051938452602084019290925282820152519081900360600190f35b610281610755565b60408051918252519081900360200190f35b610281610761565b6101d0600480360360208110156102b157600080fd5b50356001600160a01b0316610766565b61028161078a565b610281600480360360208110156102df57600080fd5b50356001600160a01b031661078f565b6102816107a1565b61031d6004803603602081101561030d57600080fd5b50356001600160a01b03166107a7565b604080519115158252519081900360200190f35b61021b6004803603602081101561034757600080fd5b50356001600160a01b03166107bc565b610281610971565b610281610976565b61021b6004803603602081101561037d57600080fd5b503561097c565b610281600480360360a081101561039a57600080fd5b506001600160a01b0381351690602081013590604081013590606081013590608001356109e0565b6103ca610acf565b604080516001600160a01b039092168252519081900360200190f35b6103ca610ade565b61021b6004803603608081101561040457600080fd5b506001600160a01b0381358116916020810135916040820135916060013516610b02565b6102816004803603602081101561043e57600080fd5b50356001600160a01b0316610e2a565b61021b6004803603602081101561046457600080fd5b50356001600160a01b0316610e45565b61021b610ede565b6103ca611051565b6102816004803603604081101561049a57600080fd5b506001600160a01b038135169060200135611075565b610281600480360360208110156104c657600080fd5b50356001600160a01b03166110c4565b6102816110d6565b61021b600480360360208110156104f457600080fd5b50356001600160a01b03166110dc565b6102816004803603602081101561051a57600080fd5b50356001600160a01b0316611222565b6009546fffffffffffffffffffffffffffffffff1681565b6001546001600160a01b031633146105a1576040805162461bcd60e51b815260206004820152601c60248201527f435661756c74466f725472616465723a2021676f7665726e616e636500000000604482015290519081900360640190fd5b6001600160a01b03811660009081526005602052604090205460ff166105f85760405162461bcd60e51b81526004018080602001828103825260228152602001806114286022913960400191505060405180910390fd5b6001600160a01b03811660008181526005602090815260409182902080547fffffffffffffffffffffffffffffffffffffffffffffffffffffffffffffff00169055815192835290517fde1162637b8da52aa9fd8ebc5eb8b20024620440530f42f56320557e4111d0179281900390910190a150565b6001600160a01b03851660009081526008602090815260408083205460078352818420546006909352908320548392839283929091906fffffffffffffffffffffffffffffffff16836106c14383611234565b90506107016106fa670de0b6b3a76400006106f46106e0856001611291565b6002546106ee9089906112f2565b906112f2565b9061134b565b8590611291565b94505050505061071489898989896109e0565b915060006107228a84611075565b905061073a670de0b6b3a76400006106f484846112f2565b94506107468286611234565b93505050955095509592505050565b670de0b6b3a764000081565b600a81565b6006602052600090815260409020546fffffffffffffffffffffffffffffffff1681565b606481565b60076020526000908152604090205481565b60025481565b60056020526000908152604090205460ff1681565b60026000541415610814576040805162461bcd60e51b815260206004820152601f60248201527f5265656e7472616e637947756172643a207265656e7472616e742063616c6c00604482015290519081900360640190fd5b600260008190555060007f00000000000000000000000000000000000000000000000000000000000000006001600160a01b031663d2d7f8166040518163ffffffff1660e01b815260040160206040518083038186803b15801561087757600080fd5b505afa15801561088b573d6000803e3d6000fd5b505050506040513d60208110156108a157600080fd5b50519050336001600160a01b03821614610902576040805162461bcd60e51b815260206004820181905260248201527f435661756c74466f725472616465723a206f6e6c79207661756c74466f724c50604482015290519081900360640190fd5b6001600160a01b03821660009081526004602090815260409182902054825190815291517f9109879a62f2b7f0305863647d96ee2f9768a72344b14c3d01f890b2c2f8ec779281900390910190a1506001600160a01b0316600090815260046020526040812081905560019055565b605a81565b60035481565b6001546001600160a01b031633146109db576040805162461bcd60e51b815260206004820152601c60248201527f435661756c74466f725472616465723a2021676f7665726e616e636500000000604482015290519081900360640190fd5b600255565b6000806000876001600160a01b031663a1da4d246040518163ffffffff1660e01b8152600401604080518083038186803b158015610a1d57600080fd5b505afa158015610a31573d6000803e3d6000fd5b505050506040513d6040811015610a4757600080fd5b50805160209091015190925090506000610a6188836112f2565b90506000610a6f88856112f2565b90506000610a7d83836113b2565b90506000610a8b828a6112f2565b90506000610a99868b6112f2565b90506000610aa78a896112f2565b9050610abd610ab68383611291565b849061134b565b9e9d5050505050505050505050505050565b6001546001600160a01b031681565b7f000000000000000000000000000000000000000000000000000000000000000081565b60026000541415610b5a576040805162461bcd60e51b815260206004820152601f60248201527f5265656e7472616e637947756172643a207265656e7472616e742063616c6c00604482015290519081900360640190fd5b600260009081553381526005602052604090205460ff16610bac5760405162461bcd60e51b81526004018080602001828103825260238152602001806114056023913960400191505060405180910390fd5b6001600160a01b038416610c07576040805162461bcd60e51b815260206004820152601d60248201527f435661756c74466f725472616465723a20696e76616c69642070616972000000604482015290519081900360640190fd5b6001600160a01b038116610c4c5760405162461bcd60e51b815260040180806020018281038252602181526020018061144a6021913960400191505060405180910390fd5b6000806000806000886001600160a01b0316630902f1ac6040518163ffffffff1660e01b8152600401604080518083038186803b158015610c8c57600080fd5b505afa158015610ca0573d6000803e3d6000fd5b505050506040513d6040811015610cb657600080fd5b5080516020909101516dffffffffffffffffffffffffffff9182169350169050610ce38983838b8b61066e565b6001600160a01b038c16600090815260066020908152604080832080547fffffffffffffffffffffffffffffffff0000000000000000000000000000000016436fffffffffffffffffffffffffffffffff16179055600882528083209490945560079052918220559095509350610d669250606491506106f4905084605a6112f2565b90506000610d7a60646106f485600a6112f2565b90507f00000000000000000000000000000000000000000000000000000000000000006001600160a01b03166340c10f1985846040518363ffffffff1660e01b815260040180836001600160a01b0316815260200182815260200192505050600060405180830381600087803b158015610df357600080fd5b505af1158015610e07573d6000803e3d6000fd5b5050600354610e199250905082611291565b600355505060016000555050505050565b6001600160a01b031660009081526004602052604090205490565b6001546001600160a01b03163314610ea4576040805162461bcd60e51b815260206004820152601c60248201527f435661756c74466f725472616465723a2021676f7665726e616e636500000000604482015290519081900360640190fd5b600180547fffffffffffffffffffffffff0000000000000000000000000000000000000000166001600160a01b0392909216919091179055565b60026000541415610f36576040805162461bcd60e51b815260206004820152601f60248201527f5265656e7472616e637947756172643a207265656e7472616e742063616c6c00604482015290519081900360640190fd5b600260008190555060007f00000000000000000000000000000000000000000000000000000000000000006001600160a01b0316631dae76916040518163ffffffff1660e01b815260040160206040518083038186803b158015610f9957600080fd5b505afa158015610fad573d6000803e3d6000fd5b505050506040513d6020811015610fc357600080fd5b50519050336001600160a01b0382161461100e5760405162461bcd60e51b81526004018080602001828103825260238152602001806113e26023913960400191505060405180910390fd5b60035460408051918252517f1032e91fe6d576a72f9d9eab143b22ea116436d4f26f12d46e7332bfb758064a9181900360200190a1506000600381905560019055565b7f000000000000000000000000000000000000000000000000000000000000000081565b6001600160a01b038216600090815260076020526040812054828111156110b8576110b0816106f4670de0b6b3a76400006106ee8388611234565b9150506110be565b60009150505b92915050565b60086020526000908152604090205481565b60035490565b6001546001600160a01b0316331461113b576040805162461bcd60e51b815260206004820152601c60248201527f435661756c74466f725472616465723a2021676f7665726e616e636500000000604482015290519081900360640190fd5b6001600160a01b03811660009081526005602052604090205460ff16156111a9576040805162461bcd60e51b815260206004820152601f60248201527f435661756c74466f725472616465723a20726f7574657220616c6c6f77656400604482015290519081900360640190fd5b6001600160a01b03811660008181526005602090815260409182902080547fffffffffffffffffffffffffffffffffffffffffffffffffffffffffffffff00166001179055815192835290517f6f8eaabfaab22f210f7ed4615279fc9d3bf0fe5695f2bbf88b1b55f641bd31579281900390910190a150565b60046020526000908152604090205481565b60008282111561128b576040805162461bcd60e51b815260206004820152601e60248201527f536166654d6174683a207375627472616374696f6e206f766572666c6f770000604482015290519081900360640190fd5b50900390565b6000828201838110156112eb576040805162461bcd60e51b815260206004820152601b60248201527f536166654d6174683a206164646974696f6e206f766572666c6f770000000000604482015290519081900360640190fd5b9392505050565b600082611301575060006110be565b8282028284828161130e57fe5b04146112eb5760405162461bcd60e51b81526004018080602001828103825260218152602001806113c16021913960400191505060405180910390fd5b60008082116113a1576040805162461bcd60e51b815260206004820152601a60248201527f536166654d6174683a206469766973696f6e206279207a65726f000000000000604482015290519081900360640190fd5b8183816113aa57fe5b049392505050565b600081831161128b5750039056fe536166654d6174683a206d756c7469706c69636174696f6e206f766572666c6f77435661756c74466f725472616465723a206f6e6c79207661756c74466f72434e6f6465435661756c74466f725472616465723a206e6f7420616c6c6f77656420726f75746572435661756c74466f725472616465723a20726f7574657220646973616c6c6f776564435661756c74466f725472616465723a20696e76616c696420726577617264546fa2646970667358221220f1fad7ac8caf36399b3018e8cfcd70b7dcb25eb671aa143b14bf254ebf23d97e64736f6c634300060c0033",
  "immutableReferences": {
    "10054": [
      {
        "length": 32,
        "start": 2784
      },
      {
        "length": 32,
        "start": 3454
      }
    ],
    "10056": [
      {
        "length": 32,
        "start": 2080
      },
      {
        "length": 32,
        "start": 3906
      },
      {
        "length": 32,
        "start": 4179
      }
    ]
  },
  "source": "// SPDX-License-Identifier: GPL-3.0-or-later\n\npragma solidity 0.6.12;\n\nimport \"@openzeppelin/contracts/math/SafeMath.sol\";\nimport \"./lib/ABDKMath64x64.sol\";\nimport \"@openzeppelin/contracts/token/ERC20/IERC20.sol\";\nimport \"./interface/ICoFiXV2VaultForTrader.sol\";\nimport \"./interface/ICoFiToken.sol\";\nimport \"@openzeppelin/contracts/utils/ReentrancyGuard.sol\";\nimport \"./interface/ICoFiXV2Factory.sol\";\nimport \"./interface/ICoFiXVaultForLP.sol\";\nimport \"./interface/ICoFiXStakingRewards.sol\";\nimport \"./interface/ICoFiXV2Pair.sol\";\n\n// Reward Pool Controller for Trader\n// Trade to earn CoFi Token\ncontract CoFiXV2VaultForTrader is ICoFiXV2VaultForTrader, ReentrancyGuard {\n    using SafeMath for uint256;\n\n    uint256 public constant RATE_BASE = 1e18;\n    uint256 public constant LAMBDA_BASE = 100;\n    // uint256 public constant RECENT_RANGE = 300;\n\n    uint256 public constant SHARE_BASE = 100;\n    uint256 public constant SHARE_FOR_TRADER = 90;\n    // uint256 public constant SHARE_FOR_LP = 10;\n    uint256 public constant SHARE_FOR_CNODE = 10;\n\n    // uint256 public constant NAVPS_BASE = 1E18; // NAVPS (Net Asset Value Per Share), need accuracy\n\n    // make all of these constant, so we can reduce gas cost for swap features\n    // uint256 public constant COFI_DECAY_PERIOD = 2400000; // LP pool yield decays for every 2,400,000 blocks\n    // uint256 public constant THETA_FEE_UINIT = 1 ether;\n    // uint256 public constant L_LIMIT = 100 ether;\n    // uint256 public constant COFI_RATE_UPDATE_INTERVAL = 1000;\n\n    // uint256 public constant EXPECT_YIELD_BASE = 10;\n    // uint256 public constant L_BASE = 1000;\n    // uint256 public constant THETA_BASE = 1000;\n    // uint256 public constant REWARD_MULTIPLE_BASE = 100;\n\n    address public immutable cofiToken;\n    address public immutable factory;\n\n    // managed by governance\n    address public governance;\n    // uint256 public EXPECT_YIELD_RATIO = 3; // r, 0.3\n    // uint256 public L_RATIO = 2; // l, 0.002\n    // uint256 public THETA = 2; // 0.002\n    uint256 public cofiRate = 0.1*1e18; // nt 0.1\n\n    uint256 public pendingRewardsForCNode;\n\n    mapping(address => uint256) public pendingRewardsForLP; // pair address to pending rewards amount\n    mapping (address => bool) public routerAllowed;\n\n    mapping (address => uint128) public lastMinedBlock; // last block mined cofi token\n    mapping (address => uint256) public lastNeededETHAmount; // last needed eth amount for adjustment \n    mapping (address => uint256) public lastTotalAccruedAmount;\n    uint128 public lastDensity; // last mining density, see currentDensity()\n\n    modifier onlyGovernance() {\n        require(msg.sender == governance, \"CVaultForTrader: !governance\");\n        _;\n    }\n\n    constructor(address cofi, address _factory) public {\n        cofiToken = cofi;\n        factory = _factory;\n        governance = msg.sender;\n    }\n\n    /* setters for protocol governance */\n    function setGovernance(address _new) external override onlyGovernance {\n        governance = _new;\n    }\n\n    // function setExpectedYieldRatio(uint256 r) external override onlyGovernance {\n    //     EXPECT_YIELD_RATIO = r;\n    // }\n\n    // function setLRatio(uint256 lRatio) external override onlyGovernance {\n    //     L_RATIO = lRatio;\n    // }\n\n    // function setTheta(uint256 theta) external override onlyGovernance {\n    //     THETA = theta;\n    // }\n\n    function setCofiRate(uint256 _cofiRate) external override onlyGovernance {\n        cofiRate = _cofiRate;\n    }\n\n    function allowRouter(address router) external override onlyGovernance {\n        require(!routerAllowed[router], \"CVaultForTrader: router allowed\");\n        routerAllowed[router] = true;\n        emit RouterAllowed(router);\n    }\n\n    function disallowRouter(address router) external override onlyGovernance {\n        require(routerAllowed[router], \"CVaultForTrader: router disallowed\");\n        routerAllowed[router] = false;\n        emit RouterDisallowed(router);\n    }\n\n    // calc v_t\n    function calcMiningRate(address pair, uint256 neededETHAmount) public override view returns (uint256) {\n        uint256 _lastNeededETHAmount = lastNeededETHAmount[pair];\n\n        if (_lastNeededETHAmount > neededETHAmount) { // D_{t-1} > D_t \n            // \\frac{D_{t-1} - D_t}{D_{t-1}}\n            return _lastNeededETHAmount.sub(neededETHAmount).mul(RATE_BASE).div(_lastNeededETHAmount); // v_t\n        } else { // D_{t-1} <= D_t\n            return 0; // v_t\n        }\n    }\n\n    // calc D_t :needed eth amount for adjusting kt to k0\n    function calcNeededETHAmountForAdjustment(address pair, uint256 reserve0, uint256 reserve1, uint256 ethAmount, uint256 erc20Amount) public override view returns (uint256) {\n        /*\n        D_t = |\\frac{E_t * k_0 - U_t}{k_0 + P_t}|\\\\\\\\\n            = \\frac{|E_t * \\frac{initToken1Amount}{initToken0Amount} - U_t|}{\\frac{initToken1Amount}{initToken0Amount} + \\frac{erc20Amount}{ethAmount}}\\\\\\\\\n            =  \\frac{|E_t * initToken1Amount - U_t * initToken0Amount|}{initToken1Amount + \\frac{erc20Amount * initToken0Amount}{ethAmount}}\\\\\\\\\n            =  \\frac{|E_t * initToken1Amount - U_t * initToken0Amount| * ethAmount}{initToken1Amount * ethAmount + erc20Amount * initToken0Amount}\\\\\\\\\n        */\n        \n        {\n            (uint256 initToken0Amount, uint256 initToken1Amount) = ICoFiXV2Pair(pair).getInitialAssetRatio();\n\n            uint256 reserve0MulInitToken1Amount = reserve0.mul(initToken1Amount);\n            uint256 reserve1MulInitToken0Amount = reserve1.mul(initToken0Amount);\n\n            uint256 diff = calcDiff(reserve0MulInitToken1Amount, reserve1MulInitToken0Amount);\n            uint256 diffMulEthAmount = diff.mul(ethAmount);\n\n            uint256 initToken1AmountMulEthAmount = initToken1Amount.mul(ethAmount);\n            uint256 erc20AmountMulInitToken0Amount = erc20Amount.mul(initToken0Amount);\n\n            return diffMulEthAmount.div(initToken1AmountMulEthAmount.add(erc20AmountMulInitToken0Amount));\n        }\n    }\n\n    function calcDiff(uint x, uint y) private pure returns (uint) {\n        return x > y ? (x - y) : (y - x);\n    }\n\n    /*\n    Y_t = Y_{t - 1} + D_{t - 1} * n_t * (S_t + 1) - Z_t  \n    Z_t = [Y_{t - 1} + D_{t - 1} * n_t * (S_t + 1)] * v_t\n    */\n    function actualMiningAmount(\n        address pair,\n        uint256 reserve0,\n        uint256 reserve1,\n        uint256 ethAmount,\n        uint256 erc20Amount \n    ) public override view returns (\n        uint256 amount,\n        uint256 totalAccruedAmount,\n        uint256 neededETHAmount\n    ) {\n        uint256 totalAmount;\n        {\n            // Y_{t - 1} + D_{t - 1} * n_t * (S_t + 1)\n            uint256 _lastTotalAccruedAmount = lastTotalAccruedAmount[pair]; // Y_{t - 1}\n            uint256 _lastNeededETHAmount = lastNeededETHAmount[pair]; // D_{t - 1}\n            uint256 _lastBlock = lastMinedBlock[pair];\n            uint256 _offset = block.number.sub(_lastBlock); // s_t\n\n            totalAmount = _lastTotalAccruedAmount.add(_lastNeededETHAmount.mul(cofiRate).mul(_offset.add(1)).div(RATE_BASE));\n        }\n\n        neededETHAmount = calcNeededETHAmountForAdjustment(pair, reserve0, reserve1, ethAmount, erc20Amount); // D_t\n        uint256 miningRate = calcMiningRate(pair, neededETHAmount); // v_t\n        \n        // Z_t = [Y_{t - 1} + D_{t - 1} * n_t * (S_t + 1)] * v_t\n        amount = totalAmount.mul(miningRate).div(RATE_BASE);\n        // Y_t = Y_{t - 1} + D_{t - 1} * n_t * (S_t + 1) - Z_t  \n        totalAccruedAmount = totalAmount.sub(amount);\n    }\n\n    function distributeReward(\n        address pair,\n        uint256 ethAmount,\n        uint256 erc20Amount,\n        address rewardTo\n    ) external override nonReentrant {\n        require(routerAllowed[msg.sender], \"CVaultForTrader: not allowed router\");  // caution: be careful when adding new router\n        require(pair != address(0), \"CVaultForTrader: invalid pair\");\n        require(rewardTo != address(0), \"CVaultForTrader: invalid rewardTo\");\n\n        uint256 amount;\n        {\n            uint256 totalAccruedAmount;\n            uint256 neededETHAmount;\n            (uint256 reserve0, uint256 reserve1) = ICoFiXV2Pair(pair).getReserves();\n            (amount, totalAccruedAmount, neededETHAmount) = actualMiningAmount(pair, reserve0, reserve1, ethAmount, erc20Amount);\n\n            lastMinedBlock[pair] = uint128(block.number); // uint128 is enough for block.number\n            lastTotalAccruedAmount[pair] = totalAccruedAmount;\n            lastNeededETHAmount[pair] = neededETHAmount;\n        }\n\n        {\n            uint256 amountForTrader = amount.mul(SHARE_FOR_TRADER).div(SHARE_BASE);\n            // uint256 amountForLP = amount.mul(SHARE_FOR_LP).div(SHARE_BASE);\n            uint256 amountForCNode = amount.mul(SHARE_FOR_CNODE).div(SHARE_BASE);\n\n            ICoFiToken(cofiToken).mint(rewardTo, amountForTrader); // allows zero, send to receiver directly, reduce gas cost\n            // pendingRewardsForLP[pair] = pendingRewardsForLP[pair].add(amountForLP); // possible key: token or pair, we use pair here\n            pendingRewardsForCNode = pendingRewardsForCNode.add(amountForCNode);\n        }\n    }\n\n    function clearPendingRewardOfCNode() external override nonReentrant {\n        address vaultForCNode = ICoFiXV2Factory(factory).getVaultForCNode();\n        require(msg.sender == vaultForCNode, \"CVaultForTrader: only vaultForCNode\"); // caution\n        // uint256 pending = pendingRewardsForCNode;\n        emit ClearPendingRewardOfCNode(pendingRewardsForCNode);\n        pendingRewardsForCNode = 0; // take all, set to 0\n        // ICoFiToken(cofiToken).mint(msg.sender, pending); // no need to mint from here, we can mint directly in valult\n    }\n\n    // vaultForLP should ensure passing the correct pair address\n    function clearPendingRewardOfLP(address pair) external override nonReentrant {\n        address vaultForLP = ICoFiXV2Factory(factory).getVaultForLP();\n        require(msg.sender == vaultForLP, \"CVaultForTrader: only vaultForLP\"); // caution \n        emit ClearPendingRewardOfLP(pendingRewardsForLP[pair]);\n        pendingRewardsForLP[pair] = 0; // take all, set to 0\n        // ICoFiToken(cofiToken).mint(to, pending); // no need to mint from here, we can mint directly in valult\n    }\n\n    function getPendingRewardOfCNode() external override view returns (uint256) {\n        return pendingRewardsForCNode;\n    }\n\n    function getPendingRewardOfLP(address pair) external override view returns (uint256) {\n        return pendingRewardsForLP[pair];\n    }\n\n}\n",
  "sourcePath": "/Users/lixiansheng/Downloads/cofix2/contracts/CoFiXV2VaultForTrader.sol",
  "compiler": {
    "name": "solc",
    "version": "0.6.12+commit.27d51765.Emscripten.clang"
  },
  "schemaVersion": "3.3.3",
  "updatedAt": "2021-05-14T10:59:45.103Z",
  "networkType": "ethereum",
  "devdoc": {
    "kind": "dev",
    "methods": {},
    "version": 1
  },
  "userdoc": {
    "kind": "user",
    "methods": {},
    "version": 1
  }
}