{
  "contractName": "CoFiXRouter02",
  "abi": [
    {
      "inputs": [
        {
          "internalType": "address",
          "name": "_factory",
          "type": "address"
        },
        {
          "internalType": "address",
          "name": "_uniFactory",
          "type": "address"
        },
        {
          "internalType": "address",
          "name": "_WETH",
          "type": "address"
        }
      ],
      "stateMutability": "nonpayable",
      "type": "constructor"
    },
    {
      "inputs": [],
      "name": "WETH",
      "outputs": [
        {
          "internalType": "address",
          "name": "",
          "type": "address"
        }
      ],
      "stateMutability": "view",
      "type": "function"
    },
    {
      "inputs": [],
      "name": "factory",
      "outputs": [
        {
          "internalType": "address",
          "name": "",
          "type": "address"
        }
      ],
      "stateMutability": "view",
      "type": "function"
    },
    {
      "inputs": [],
      "name": "uniFactory",
      "outputs": [
        {
          "internalType": "address",
          "name": "",
          "type": "address"
        }
      ],
      "stateMutability": "view",
      "type": "function"
    },
    {
      "stateMutability": "payable",
      "type": "receive"
    },
    {
      "inputs": [
        {
          "internalType": "address",
          "name": "token",
          "type": "address"
        },
        {
          "internalType": "uint256",
          "name": "amountETH",
          "type": "uint256"
        },
        {
          "internalType": "uint256",
          "name": "amountToken",
          "type": "uint256"
        },
        {
          "internalType": "uint256",
          "name": "liquidityMin",
          "type": "uint256"
        },
        {
          "internalType": "address",
          "name": "to",
          "type": "address"
        },
        {
          "internalType": "uint256",
          "name": "deadline",
          "type": "uint256"
        }
      ],
      "name": "addLiquidity",
      "outputs": [
        {
          "internalType": "uint256",
          "name": "liquidity",
          "type": "uint256"
        }
      ],
      "stateMutability": "payable",
      "type": "function"
    },
    {
      "inputs": [
        {
          "internalType": "address",
          "name": "token",
          "type": "address"
        },
        {
          "internalType": "uint256",
          "name": "amountETH",
          "type": "uint256"
        },
        {
          "internalType": "uint256",
          "name": "amountToken",
          "type": "uint256"
        },
        {
          "internalType": "uint256",
          "name": "liquidityMin",
          "type": "uint256"
        },
        {
          "internalType": "address",
          "name": "to",
          "type": "address"
        },
        {
          "internalType": "uint256",
          "name": "deadline",
          "type": "uint256"
        }
      ],
      "name": "addLiquidityAndStake",
      "outputs": [
        {
          "internalType": "uint256",
          "name": "liquidity",
          "type": "uint256"
        }
      ],
      "stateMutability": "payable",
      "type": "function"
    },
    {
      "inputs": [
        {
          "internalType": "address",
          "name": "token",
          "type": "address"
        },
        {
          "internalType": "uint256",
          "name": "liquidity",
          "type": "uint256"
        },
        {
          "internalType": "uint256",
          "name": "amountTokenMin",
          "type": "uint256"
        },
        {
          "internalType": "address",
          "name": "to",
          "type": "address"
        },
        {
          "internalType": "uint256",
          "name": "deadline",
          "type": "uint256"
        }
      ],
      "name": "removeLiquidityGetToken",
      "outputs": [
        {
          "internalType": "uint256",
          "name": "amountToken",
          "type": "uint256"
        }
      ],
      "stateMutability": "payable",
      "type": "function"
    },
    {
      "inputs": [
        {
          "internalType": "address",
          "name": "token",
          "type": "address"
        },
        {
          "internalType": "uint256",
          "name": "liquidity",
          "type": "uint256"
        },
        {
          "internalType": "uint256",
          "name": "amountETHMin",
          "type": "uint256"
        },
        {
          "internalType": "address",
          "name": "to",
          "type": "address"
        },
        {
          "internalType": "uint256",
          "name": "deadline",
          "type": "uint256"
        }
      ],
      "name": "removeLiquidityGetETH",
      "outputs": [
        {
          "internalType": "uint256",
          "name": "amountETH",
          "type": "uint256"
        }
      ],
      "stateMutability": "payable",
      "type": "function"
    },
    {
      "inputs": [
        {
          "internalType": "address",
          "name": "token",
          "type": "address"
        },
        {
          "internalType": "uint256",
          "name": "amountIn",
          "type": "uint256"
        },
        {
          "internalType": "uint256",
          "name": "amountOutMin",
          "type": "uint256"
        },
        {
          "internalType": "address",
          "name": "to",
          "type": "address"
        },
        {
          "internalType": "address",
          "name": "rewardTo",
          "type": "address"
        },
        {
          "internalType": "uint256",
          "name": "deadline",
          "type": "uint256"
        }
      ],
      "name": "swapExactETHForTokens",
      "outputs": [
        {
          "internalType": "uint256",
          "name": "_amountIn",
          "type": "uint256"
        },
        {
          "internalType": "uint256",
          "name": "_amountOut",
          "type": "uint256"
        }
      ],
      "stateMutability": "payable",
      "type": "function"
    },
    {
      "inputs": [
        {
          "internalType": "address",
          "name": "tokenIn",
          "type": "address"
        },
        {
          "internalType": "address",
          "name": "tokenOut",
          "type": "address"
        },
        {
          "internalType": "uint256",
          "name": "amountIn",
          "type": "uint256"
        },
        {
          "internalType": "uint256",
          "name": "amountOutMin",
          "type": "uint256"
        },
        {
          "internalType": "address",
          "name": "to",
          "type": "address"
        },
        {
          "internalType": "address",
          "name": "rewardTo",
          "type": "address"
        },
        {
          "internalType": "uint256",
          "name": "deadline",
          "type": "uint256"
        }
      ],
      "name": "swapExactTokensForTokens",
      "outputs": [
        {
          "internalType": "uint256",
          "name": "_amountIn",
          "type": "uint256"
        },
        {
          "internalType": "uint256",
          "name": "_amountOut",
          "type": "uint256"
        }
      ],
      "stateMutability": "payable",
      "type": "function"
    },
    {
      "inputs": [
        {
          "internalType": "address",
          "name": "token",
          "type": "address"
        },
        {
          "internalType": "uint256",
          "name": "amountIn",
          "type": "uint256"
        },
        {
          "internalType": "uint256",
          "name": "amountOutMin",
          "type": "uint256"
        },
        {
          "internalType": "address",
          "name": "to",
          "type": "address"
        },
        {
          "internalType": "address",
          "name": "rewardTo",
          "type": "address"
        },
        {
          "internalType": "uint256",
          "name": "deadline",
          "type": "uint256"
        }
      ],
      "name": "swapExactTokensForETH",
      "outputs": [
        {
          "internalType": "uint256",
          "name": "_amountIn",
          "type": "uint256"
        },
        {
          "internalType": "uint256",
          "name": "_amountOut",
          "type": "uint256"
        }
      ],
      "stateMutability": "payable",
      "type": "function"
    },
    {
      "inputs": [
        {
          "internalType": "uint256",
          "name": "amountIn",
          "type": "uint256"
        },
        {
          "internalType": "uint256",
          "name": "amountOutMin",
          "type": "uint256"
        },
        {
          "internalType": "address[]",
          "name": "path",
          "type": "address[]"
        },
        {
          "internalType": "enum ICoFiXRouter02.DEX_TYPE[]",
          "name": "dexes",
          "type": "uint8[]"
        },
        {
          "internalType": "address",
          "name": "to",
          "type": "address"
        },
        {
          "internalType": "address",
          "name": "rewardTo",
          "type": "address"
        },
        {
          "internalType": "uint256",
          "name": "deadline",
          "type": "uint256"
        }
      ],
      "name": "hybridSwapExactTokensForTokens",
      "outputs": [
        {
          "internalType": "uint256[]",
          "name": "amounts",
          "type": "uint256[]"
        }
      ],
      "stateMutability": "payable",
      "type": "function"
    },
    {
      "inputs": [
        {
          "internalType": "uint256",
          "name": "amountIn",
          "type": "uint256"
        },
        {
          "internalType": "uint256",
          "name": "amountOutMin",
          "type": "uint256"
        },
        {
          "internalType": "address[]",
          "name": "path",
          "type": "address[]"
        },
        {
          "internalType": "enum ICoFiXRouter02.DEX_TYPE[]",
          "name": "dexes",
          "type": "uint8[]"
        },
        {
          "internalType": "address",
          "name": "to",
          "type": "address"
        },
        {
          "internalType": "address",
          "name": "rewardTo",
          "type": "address"
        },
        {
          "internalType": "uint256",
          "name": "deadline",
          "type": "uint256"
        }
      ],
      "name": "hybridSwapExactETHForTokens",
      "outputs": [
        {
          "internalType": "uint256[]",
          "name": "amounts",
          "type": "uint256[]"
        }
      ],
      "stateMutability": "payable",
      "type": "function"
    },
    {
      "inputs": [
        {
          "internalType": "uint256",
          "name": "amountIn",
          "type": "uint256"
        },
        {
          "internalType": "uint256",
          "name": "amountOutMin",
          "type": "uint256"
        },
        {
          "internalType": "address[]",
          "name": "path",
          "type": "address[]"
        },
        {
          "internalType": "enum ICoFiXRouter02.DEX_TYPE[]",
          "name": "dexes",
          "type": "uint8[]"
        },
        {
          "internalType": "address",
          "name": "to",
          "type": "address"
        },
        {
          "internalType": "address",
          "name": "rewardTo",
          "type": "address"
        },
        {
          "internalType": "uint256",
          "name": "deadline",
          "type": "uint256"
        }
      ],
      "name": "hybridSwapExactTokensForETH",
      "outputs": [
        {
          "internalType": "uint256[]",
          "name": "amounts",
          "type": "uint256[]"
        }
      ],
      "stateMutability": "payable",
      "type": "function"
    },
    {
      "inputs": [
        {
          "internalType": "address",
          "name": "input",
          "type": "address"
        },
        {
          "internalType": "address",
          "name": "output",
          "type": "address"
        }
      ],
      "name": "isCoFiXNativeSupported",
      "outputs": [
        {
          "internalType": "bool",
          "name": "supported",
          "type": "bool"
        },
        {
          "internalType": "address",
          "name": "pair",
          "type": "address"
        }
      ],
      "stateMutability": "view",
      "type": "function"
    },
    {
      "inputs": [
        {
          "internalType": "address",
          "name": "input",
          "type": "address"
        },
        {
          "internalType": "address",
          "name": "output",
          "type": "address"
        },
        {
          "internalType": "enum ICoFiXRouter02.DEX_TYPE",
          "name": "dex",
          "type": "uint8"
        }
      ],
      "name": "getPairForDEX",
      "outputs": [
        {
          "internalType": "address",
          "name": "pair",
          "type": "address"
        }
      ],
      "stateMutability": "view",
      "type": "function"
    },
    {
      "inputs": [
        {
          "internalType": "address",
          "name": "input",
          "type": "address"
        },
        {
          "internalType": "address",
          "name": "output",
          "type": "address"
        }
      ],
      "name": "hybridPair",
      "outputs": [
        {
          "internalType": "bool",
          "name": "useCoFiX",
          "type": "bool"
        },
        {
          "internalType": "address",
          "name": "pair",
          "type": "address"
        }
      ],
      "stateMutability": "view",
      "type": "function"
    }
  ],
  "bytecode": "0x60e060405234801561001057600080fd5b5060405162004405380380620044058339818101604052606081101561003557600080fd5b50805160208201516040909201516001600160601b0319606092831b811660805292821b831660a052901b1660c05260805160601c60a05160601c60c05160601c6142a362000162600039806107ce5280610ab55280610c935280610cd05280610d155280610d7f5280610e645280610fa7528061101b52806112e052806113825280611aea5280611da05280612153528061226b52806122f3528061247252806124e65280612c935280612d7b528061305252806130c6525080610c0d52806116f4528061202d5280613bdf525080610d515280610dbb5280611359528061154852806117d95280611a6e5280611bd35280611d2f528061210452806123d652806126595280612ac75280612b9d5280612e665280612f0e528061301152806139f252506142a36000f3fe6080604052600436106100f75760003560e01c806376771d4b1161008a578063bd9fe57f11610059578063bd9fe57f146105dc578063c45a0155146106c3578063e1a385dd146106d8578063e5d893651461071a576100fe565b806376771d4b14610524578063acdb6cd414610539578063ad5c464814610581578063bd23f30e14610596576100fe565b80632f59c2d5116100c65780632f59c2d5146103e257806337848c8a146104435780633f3f246a1461047e57806346c173a2146104d2576100fe565b80630117c1751461010357806302f57e301461023a5780631d3c240b1461029d57806321757292146102fb576100fe565b366100fe57005b600080fd5b6101ea600480360360e081101561011957600080fd5b81359160208101359181019060608101604082013564010000000081111561014057600080fd5b82018360208201111561015257600080fd5b8035906020019184602083028401116401000000008311171561017457600080fd5b91939092909160208101903564010000000081111561019257600080fd5b8201836020820111156101a457600080fd5b803590602001918460208302840111640100000000831117156101c657600080fd5b91935091506001600160a01b03813581169160208101359091169060400135610760565b60408051602080825283518183015283519192839290830191858101910280838360005b8381101561022657818101518382015260200161020e565b505050509050019250505060405180910390f35b34801561024657600080fd5b506102816004803603606081101561025d57600080fd5b5080356001600160a01b03908116916020810135909116906040013560ff16610b77565b604080516001600160a01b039092168252519081900360200190f35b3480156102a957600080fd5b506102d8600480360360408110156102c057600080fd5b506001600160a01b0381358116916020013516610c8e565b6040805192151583526001600160a01b0390911660208301528051918290030190f35b6101ea600480360360e081101561031157600080fd5b81359160208101359181019060608101604082013564010000000081111561033857600080fd5b82018360208201111561034a57600080fd5b8035906020019184602083028401116401000000008311171561036c57600080fd5b91939092909160208101903564010000000081111561038a57600080fd5b82018360208201111561039c57600080fd5b803590602001918460208302840111640100000000831117156103be57600080fd5b91935091506001600160a01b03813581169160208101359091169060400135610dfe565b61042a600480360360c08110156103f857600080fd5b506001600160a01b03813581169160208101359160408201359160608101358216916080820135169060a00135611231565b6040805192835260208301919091528051918290030190f35b34801561044f57600080fd5b506102d86004803603604081101561046657600080fd5b506001600160a01b03813581169160200135166116d0565b6104c0600480360360a081101561049457600080fd5b506001600160a01b03813581169160208101359160408201359160608101359091169060800135611725565b60408051918252519081900360200190f35b61042a600480360360e08110156104e857600080fd5b506001600160a01b0381358116916020810135821691604082013591606081013591608082013581169160a08101359091169060c001356119b3565b34801561053057600080fd5b5061028161202b565b61042a600480360360c081101561054f57600080fd5b506001600160a01b03813581169160208101359160408201359160608101358216916080820135169060a0013561204f565b34801561058d57600080fd5b506102816122f1565b6104c0600480360360c08110156105ac57600080fd5b506001600160a01b0381358116916020810135916040820135916060810135916080820135169060a00135612315565b6101ea600480360360e08110156105f257600080fd5b81359160208101359181019060608101604082013564010000000081111561061957600080fd5b82018360208201111561062b57600080fd5b8035906020019184602083028401116401000000008311171561064d57600080fd5b91939092909160208101903564010000000081111561066b57600080fd5b82018360208201111561067d57600080fd5b8035906020019184602083028401116401000000008311171561069f57600080fd5b91935091506001600160a01b03813581169160208101359091169060400135612971565b3480156106cf57600080fd5b50610281612ac5565b6104c0600480360360a08110156106ee57600080fd5b506001600160a01b03813581169160208101359160408201359160608101359091169060800135612ae9565b6104c0600480360360c081101561073057600080fd5b506001600160a01b0381358116916020810135916040820135916060810135916080820135169060a00135612e01565b606081428110156107b8576040805162461bcd60e51b815260206004820152601060248201527f43526f757465723a204558504952454400000000000000000000000000000000604482015290519081900360640190fd5b6002881080159061081957506001600160a01b037f000000000000000000000000000000000000000000000000000000000000000016898960001981018181106107fe57fe5b905060200201356001600160a01b03166001600160a01b0316145b61086a576040805162461bcd60e51b815260206004820152601560248201527f43526f757465723a20696e76616c696420706174680000000000000000000000604482015290519081900360640190fd5b600019880186146108c2576040805162461bcd60e51b815260206004820152601660248201527f43526f757465723a20696e76616c696420646578657300000000000000000000604482015290519081900360640190fd5b610900878780806020026020016040519081016040528093929190818152602001838360200280828437600092019190915250349250613253915050565b61098d8989600081811061091057fe5b905060200201356001600160a01b0316336109878c8c600081811061093157fe5b905060200201356001600160a01b03168d8d600181811061094e57fe5b905060200201356001600160a01b03168c8c600081811061096b57fe5b9050602002013560018111801561098157600080fd5b50610b77565b8e613300565b8767ffffffffffffffff811180156109a457600080fd5b506040519080825280602002602001820160405280156109ce578160200160208202803683370190505b5091508a826000815181106109df57fe5b602002602001018181525050610a5d89898080602002602001604051908101604052809392919081815260200183836020028082843760009201919091525050604080516020808d0282810182019093528c82529093508c92508b9182918501908490808284376000920191909152508792503091508990506134a9565b8982600184510381518110610a6e57fe5b60200260200101511015610ab35760405162461bcd60e51b81526004018080602001828103825260248152602001806141b36024913960400191505060405180910390fd5b7f00000000000000000000000000000000000000000000000000000000000000006001600160a01b0316632e1a7d4d83600185510381518110610af257fe5b60200260200101516040518263ffffffff1660e01b815260040180828152602001915050600060405180830381600087803b158015610b3057600080fd5b505af1158015610b44573d6000803e3d6000fd5b50505050610b698583600185510381518110610b5c57fe5b602002602001015161352e565b509998505050505050505050565b600080826001811115610b8657fe5b1415610bf4576000610b988585610c8e565b9250905080610bee576040805162461bcd60e51b815260206004820152601f60248201527f43526f757465723a206e6f7420617661696c61626c65206f6e20436f46695800604482015290519081900360640190fd5b50610c87565b6001826001811115610c0257fe5b1415610c3a57610c337f0000000000000000000000000000000000000000000000000000000000000000858561363f565b9050610c87565b6040805162461bcd60e51b815260206004820152601460248201527f43526f757465723a20756e6b6e6f776e20646578000000000000000000000000604482015290519081900360640190fd5b9392505050565b6000807f00000000000000000000000000000000000000000000000000000000000000006001600160a01b0316846001600160a01b031614158015610d0557507f00000000000000000000000000000000000000000000000000000000000000006001600160a01b0316836001600160a01b031614155b15610d135760009150610df7565b7f00000000000000000000000000000000000000000000000000000000000000006001600160a01b0316846001600160a01b031614610d7d57610d767f00000000000000000000000000000000000000000000000000000000000000008561372a565b9050610de3565b7f00000000000000000000000000000000000000000000000000000000000000006001600160a01b0316836001600160a01b031614610de357610de07f00000000000000000000000000000000000000000000000000000000000000008461372a565b90505b6001600160a01b03811615610df757600191505b9250929050565b60608142811015610e56576040805162461bcd60e51b815260206004820152601060248201527f43526f757465723a204558504952454400000000000000000000000000000000604482015290519081900360640190fd5b60028810801590610eb457507f00000000000000000000000000000000000000000000000000000000000000006001600160a01b031689896000818110610e9957fe5b905060200201356001600160a01b03166001600160a01b0316145b610f05576040805162461bcd60e51b815260206004820152601560248201527f43526f757465723a20696e76616c696420706174680000000000000000000000604482015290519081900360640190fd5b60001988018614610f5d576040805162461bcd60e51b815260206004820152601660248201527f43526f757465723a20696e76616c696420646578657300000000000000000000604482015290519081900360640190fd5b610fa5878780806020026020016040519081016040528093929190818152602001838360200280828437600092019190915250610fa092503491508f90506137ae565b613253565b7f00000000000000000000000000000000000000000000000000000000000000006001600160a01b031663d0e30db08c6040518263ffffffff1660e01b81526004016000604051808303818588803b15801561100057600080fd5b505af1158015611014573d6000803e3d6000fd5b50505050507f00000000000000000000000000000000000000000000000000000000000000006001600160a01b031663a9059cbb6110928b8b600081811061105857fe5b905060200201356001600160a01b03168c8c600181811061107557fe5b905060200201356001600160a01b03168b8b600081811061096b57fe5b8d6040518363ffffffff1660e01b815260040180836001600160a01b0316815260200182815260200192505050602060405180830381600087803b1580156110d957600080fd5b505af11580156110ed573d6000803e3d6000fd5b505050506040513d602081101561110357600080fd5b505161110b57fe5b8767ffffffffffffffff8111801561112257600080fd5b5060405190808252806020026020018201604052801561114c578160200160208202803683370190505b5091508a8260008151811061115d57fe5b6020026020010181815250506111db89898080602002602001604051908101604052809392919081815260200183836020028082843760009201919091525050604080516020808d0282810182019093528c82529093508c92508b9182918501908490808284376000920191909152508792508a91508990506134a9565b89826001845103815181106111ec57fe5b60200260200101511015610b695760405162461bcd60e51b81526004018080602001828103825260248152602001806141b36024913960400191505060405180910390fd5b600080824281101561128a576040805162461bcd60e51b815260206004820152601060248201527f43526f757465723a204558504952454400000000000000000000000000000000604482015290519081900360640190fd5b8734116112de576040805162461bcd60e51b815260206004820152601f60248201527f43526f757465723a20696e73756666696369656e74206d73672e76616c756500604482015290519081900360640190fd5b7f00000000000000000000000000000000000000000000000000000000000000006001600160a01b031663d0e30db0896040518263ffffffff1660e01b81526004016000604051808303818588803b15801561133957600080fd5b505af115801561134d573d6000803e3d6000fd5b5050505050600061137e7f00000000000000000000000000000000000000000000000000000000000000008b61372a565b90507f00000000000000000000000000000000000000000000000000000000000000006001600160a01b031663a9059cbb828b6040518363ffffffff1660e01b815260040180836001600160a01b0316815260200182815260200192505050602060405180830381600087803b1580156113f757600080fd5b505af115801561140b573d6000803e3d6000fd5b505050506040513d602081101561142157600080fd5b505161142957fe5b6000611433614108565b6001600160a01b038316639f44296a61144c348e6137ae565b8e8c6040518463ffffffff1660e01b815260040180836001600160a01b03168152602001826001600160a01b031681526020019250505060e0604051808303818588803b15801561149c57600080fd5b505af11580156114b0573d6000803e3d6000fd5b50505050506040513d601f19601f8201168201806040525060e08110156114d657600080fd5b5080516020820151604083015191985096509250606001905089851015611544576040805162461bcd60e51b815260206004820152601f60248201527f43526f757465723a20676f74206c657373207468616e20657870656374656400604482015290519081900360640190fd5b60007f00000000000000000000000000000000000000000000000000000000000000006001600160a01b031663b58aa4786040518163ffffffff1660e01b815260040160206040518083038186803b15801561159f57600080fd5b505afa1580156115b3573d6000803e3d6000fd5b505050506040513d60208110156115c957600080fd5b50518251909150158015906115e657506001600160a01b03891615155b80156115fa57506001600160a01b03811615155b156116b05781516020830151604080850151606086015182517f5e3ddd690000000000000000000000000000000000000000000000000000000081526001600160a01b038a8116600483015260248201969096526044810194909452606484019190915260848301528b831660a48301525191831691635e3ddd699160c48082019260009290919082900301818387803b15801561169757600080fd5b505af11580156116ab573d6000803e3d6000fd5b505050505b82156116c0576116c0338461352e565b5050505050965096945050505050565b6000806116dd8484610c8e565b909250905081156116ed57610df7565b600061171a7f0000000000000000000000000000000000000000000000000000000000000000868661363f565b915091509250929050565b6000814281101561177d576040805162461bcd60e51b815260206004820152601060248201527f43526f757465723a204558504952454400000000000000000000000000000000604482015290519081900360640190fd5b600034116117d2576040805162461bcd60e51b815260206004820152601f60248201527f43526f757465723a20696e73756666696369656e74206d73672e76616c756500604482015290519081900360640190fd5b60006117fe7f00000000000000000000000000000000000000000000000000000000000000008961372a565b604080517f23b872dd0000000000000000000000000000000000000000000000000000000081523360048201526001600160a01b03831660248201819052604482018b9052915192935090916323b872dd916064808201926020929091908290030181600087803b15801561187257600080fd5b505af1158015611886573d6000803e3d6000fd5b505050506040513d602081101561189c57600080fd5b5050604080517f27fc84a30000000000000000000000000000000000000000000000000000000081526001600160a01b038a8116600483015287811660248301528251600093918516926327fc84a392349260448084019382900301818588803b15801561190957600080fd5b505af115801561191d573d6000803e3d6000fd5b50505050506040513d604081101561193457600080fd5b508051602090910151909450905086841015611997576040805162461bcd60e51b815260206004820152601f60248201527f43526f757465723a20676f74206c657373207468616e20657870656374656400604482015290519081900360640190fd5b80156119a7576119a7338261352e565b50505095945050505050565b6000808242811015611a0c576040805162461bcd60e51b815260206004820152601060248201527f43526f757465723a204558504952454400000000000000000000000000000000604482015290519081900360640190fd5b60003411611a61576040805162461bcd60e51b815260206004820152601f60248201527f43526f757465723a20696e73756666696369656e74206d73672e76616c756500604482015290519081900360640190fd5b611a69614126565b611a937f00000000000000000000000000000000000000000000000000000000000000008c61372a565b6001600160a01b0316808252611aad908c9033908c613300565b6000611ab7614108565b8251604080517f9f44296a0000000000000000000000000000000000000000000000000000000081526001600160a01b037f00000000000000000000000000000000000000000000000000000000000000008116600483015230602483015291519190921691639f44296a91349160448082019260e09290919082900301818588803b158015611b4657600080fd5b505af1158015611b5a573d6000803e3d6000fd5b50505050506040513d601f19601f8201168201806040525060e0811015611b8057600080fd5b50805160208083015160408085015181517fb58aa4780000000000000000000000000000000000000000000000000000000081529151949b50919950909550606090930193506000926001600160a01b037f0000000000000000000000000000000000000000000000000000000000000000169263b58aa47892600480840193919291829003018186803b158015611c1757600080fd5b505afa158015611c2b573d6000803e3d6000fd5b505050506040513d6020811015611c4157600080fd5b5051825190915015801590611c5e57506001600160a01b03891615155b8015611c7257506001600160a01b03811615155b15611d2a57835182516020840151604080860151606087015182517f5e3ddd690000000000000000000000000000000000000000000000000000000081526001600160a01b03968716600482015260248101959095526044850193909352606484015260848301919091528b831660a48301525191831691635e3ddd699160c48082019260009290919082900301818387803b158015611d1157600080fd5b505af1158015611d25573d6000803e3d6000fd5b505050505b611d547f00000000000000000000000000000000000000000000000000000000000000008e61372a565b6001600160a01b039081166020808701829052604080517fa9059cbb0000000000000000000000000000000000000000000000000000000081526004810193909352602483018a9052517f00000000000000000000000000000000000000000000000000000000000000009093169263a9059cbb9260448082019392918290030181600087803b158015611de757600080fd5b505af1158015611dfb573d6000803e3d6000fd5b505050506040513d6020811015611e1157600080fd5b5051611e1957fe5b83600160200201516001600160a01b0316639f44296a848f8d6040518463ffffffff1660e01b815260040180836001600160a01b03168152602001826001600160a01b031681526020019250505060e0604051808303818588803b158015611e8057600080fd5b505af1158015611e94573d6000803e3d6000fd5b50505050506040513d601f19601f8201168201806040525060e0811015611eba57600080fd5b5060208101516040820151909750935060600191508a861015611f24576040805162461bcd60e51b815260206004820152601f60248201527f43526f757465723a20676f74206c657373207468616e20657870656374656400604482015290519081900360640190fd5b815115801590611f3c57506001600160a01b03891615155b8015611f5057506001600160a01b03811615155b1561200a57602080850151835191840151604080860151606087015182517f5e3ddd690000000000000000000000000000000000000000000000000000000081526001600160a01b03958616600482015260248101969096526044860193909352606485015260848401919091528b821660a48401525190831691635e3ddd699160c480830192600092919082900301818387803b158015611ff157600080fd5b505af1158015612005573d6000803e3d6000fd5b505050505b821561201a5761201a338461352e565b505050505097509795505050505050565b7f000000000000000000000000000000000000000000000000000000000000000081565b60008082428110156120a8576040805162461bcd60e51b815260206004820152601060248201527f43526f757465723a204558504952454400000000000000000000000000000000604482015290519081900360640190fd5b600034116120fd576040805162461bcd60e51b815260206004820152601f60248201527f43526f757465723a20696e73756666696369656e74206d73672e76616c756500604482015290519081900360640190fd5b60006121297f00000000000000000000000000000000000000000000000000000000000000008b61372a565b90506121378a33838c613300565b6000612141614108565b826001600160a01b0316639f44296a347f0000000000000000000000000000000000000000000000000000000000000000306040518463ffffffff1660e01b815260040180836001600160a01b03168152602001826001600160a01b031681526020019250505060e0604051808303818588803b1580156121c157600080fd5b505af11580156121d5573d6000803e3d6000fd5b50505050506040513d601f19601f8201168201806040525060e08110156121fb57600080fd5b5080516020820151604083015191985096509250606001905089851015612269576040805162461bcd60e51b815260206004820152601f60248201527f43526f757465723a20676f74206c657373207468616e20657870656374656400604482015290519081900360640190fd5b7f00000000000000000000000000000000000000000000000000000000000000006001600160a01b0316632e1a7d4d866040518263ffffffff1660e01b815260040180828152602001915050600060405180830381600087803b1580156122cf57600080fd5b505af11580156122e3573d6000803e3d6000fd5b50505050611544898661352e565b7f000000000000000000000000000000000000000000000000000000000000000081565b6000814281101561236d576040805162461bcd60e51b815260206004820152601060248201527f43526f757465723a204558504952454400000000000000000000000000000000604482015290519081900360640190fd5b8634116123c1576040805162461bcd60e51b815260206004820152601f60248201527f43526f757465723a20696e73756666696369656e74206d73672e76616c756500604482015290519081900360640190fd5b60006123cd34896137ae565b905060006123fb7f00000000000000000000000000000000000000000000000000000000000000008b61372a565b90506001600160a01b038116612458576040805162461bcd60e51b815260206004820152601560248201527f43526f757465723a20696e76616c696420706169720000000000000000000000604482015290519081900360640190fd5b871561246a5761246a8a33838b613300565b881561258d577f00000000000000000000000000000000000000000000000000000000000000006001600160a01b031663d0e30db08a6040518263ffffffff1660e01b81526004016000604051808303818588803b1580156124cb57600080fd5b505af11580156124df573d6000803e3d6000fd5b50505050507f00000000000000000000000000000000000000000000000000000000000000006001600160a01b031663a9059cbb828b6040518363ffffffff1660e01b815260040180836001600160a01b0316815260200182815260200192505050602060405180830381600087803b15801561255b57600080fd5b505af115801561256f573d6000803e3d6000fd5b505050506040513d602081101561258557600080fd5b505161258d57fe5b6000816001600160a01b0316636a62784284306040518363ffffffff1660e01b815260040180826001600160a01b0316815260200191505060408051808303818588803b1580156125dd57600080fd5b505af11580156125f1573d6000803e3d6000fd5b50505050506040513d604081101561260857600080fd5b5080516020909101519095509050878510156126555760405162461bcd60e51b81526004018080602001828103825260258152602001806141d76025913960400191505060405180910390fd5b60007f00000000000000000000000000000000000000000000000000000000000000006001600160a01b031663d2d7f8166040518163ffffffff1660e01b815260040160206040518083038186803b1580156126b057600080fd5b505afa1580156126c4573d6000803e3d6000fd5b505050506040513d60208110156126da57600080fd5b5051604080517f38d8294b0000000000000000000000000000000000000000000000000000000081526001600160a01b038681166004830152915191909216916338d8294b916024808301926020929190829003018186803b15801561273f57600080fd5b505afa158015612753573d6000803e3d6000fd5b505050506040513d602081101561276957600080fd5b505190506001600160a01b0381166127c8576040805162461bcd60e51b815260206004820152601d60248201527f43526f757465723a20696e76616c6964207374616b696e6720706f6f6c000000604482015290519081900360640190fd5b826001600160a01b031663095ea7b382886040518363ffffffff1660e01b815260040180836001600160a01b0316815260200182815260200192505050602060405180830381600087803b15801561281f57600080fd5b505af1158015612833573d6000803e3d6000fd5b505050506040513d602081101561284957600080fd5b5050604080517ffe72bd010000000000000000000000000000000000000000000000000000000081526001600160a01b038a811660048301526024820189905291519183169163fe72bd019160448082019260009290919082900301818387803b1580156128b657600080fd5b505af11580156128ca573d6000803e3d6000fd5b50505050826001600160a01b031663095ea7b38260006040518363ffffffff1660e01b815260040180836001600160a01b0316815260200182815260200192505050602060405180830381600087803b15801561292657600080fd5b505af115801561293a573d6000803e3d6000fd5b505050506040513d602081101561295057600080fd5b5050811561296257612962338361352e565b50505050509695505050505050565b606081428110156129c9576040805162461bcd60e51b815260206004820152601060248201527f43526f757465723a204558504952454400000000000000000000000000000000604482015290519081900360640190fd5b6002881015612a1f576040805162461bcd60e51b815260206004820152601560248201527f43526f757465723a20696e76616c696420706174680000000000000000000000604482015290519081900360640190fd5b60001988018614612a77576040805162461bcd60e51b815260206004820152601660248201527f43526f757465723a20696e76616c696420646578657300000000000000000000604482015290519081900360640190fd5b612ab5878780806020026020016040519081016040528093929190818152602001838360200280828437600092019190915250349250613253915050565b61110b8989600081811061091057fe5b7f000000000000000000000000000000000000000000000000000000000000000081565b60008142811015612b41576040805162461bcd60e51b815260206004820152601060248201527f43526f757465723a204558504952454400000000000000000000000000000000604482015290519081900360640190fd5b60003411612b96576040805162461bcd60e51b815260206004820152601f60248201527f43526f757465723a20696e73756666696369656e74206d73672e76616c756500604482015290519081900360640190fd5b6000612bc27f00000000000000000000000000000000000000000000000000000000000000008961372a565b604080517f23b872dd0000000000000000000000000000000000000000000000000000000081523360048201526001600160a01b03831660248201819052604482018b9052915192935090916323b872dd916064808201926020929091908290030181600087803b158015612c3657600080fd5b505af1158015612c4a573d6000803e3d6000fd5b505050506040513d6020811015612c6057600080fd5b5050604080517f27fc84a30000000000000000000000000000000000000000000000000000000081526001600160a01b037f0000000000000000000000000000000000000000000000000000000000000000811660048301523060248301528251600093918516926327fc84a392349260448084019382900301818588803b158015612ceb57600080fd5b505af1158015612cff573d6000803e3d6000fd5b50505050506040513d6040811015612d1657600080fd5b508051602090910151909450905086841015612d79576040805162461bcd60e51b815260206004820152601f60248201527f43526f757465723a20676f74206c657373207468616e20657870656374656400604482015290519081900360640190fd5b7f00000000000000000000000000000000000000000000000000000000000000006001600160a01b0316632e1a7d4d856040518263ffffffff1660e01b815260040180828152602001915050600060405180830381600087803b158015612ddf57600080fd5b505af1158015612df3573d6000803e3d6000fd5b50505050611997868561352e565b60008142811015612e59576040805162461bcd60e51b815260206004820152601060248201527f43526f757465723a204558504952454400000000000000000000000000000000604482015290519081900360640190fd5b60006001600160a01b03167f00000000000000000000000000000000000000000000000000000000000000006001600160a01b0316631a788a028a6040518263ffffffff1660e01b815260040180826001600160a01b0316815260200191505060206040518083038186803b158015612ed157600080fd5b505afa158015612ee5573d6000803e3d6000fd5b505050506040513d6020811015612efb57600080fd5b50516001600160a01b03161415612fa8577f00000000000000000000000000000000000000000000000000000000000000006001600160a01b0316639ccb0744896040518263ffffffff1660e01b815260040180826001600160a01b03168152602001915050602060405180830381600087803b158015612f7b57600080fd5b505af1158015612f8f573d6000803e3d6000fd5b505050506040513d6020811015612fa557600080fd5b50505b863411612ffc576040805162461bcd60e51b815260206004820152601f60248201527f43526f757465723a20696e73756666696369656e74206d73672e76616c756500604482015290519081900360640190fd5b600061300834896137ae565b905060006130367f00000000000000000000000000000000000000000000000000000000000000008b61372a565b9050871561304a5761304a8a33838b613300565b881561316d577f00000000000000000000000000000000000000000000000000000000000000006001600160a01b031663d0e30db08a6040518263ffffffff1660e01b81526004016000604051808303818588803b1580156130ab57600080fd5b505af11580156130bf573d6000803e3d6000fd5b50505050507f00000000000000000000000000000000000000000000000000000000000000006001600160a01b031663a9059cbb828b6040518363ffffffff1660e01b815260040180836001600160a01b0316815260200182815260200192505050602060405180830381600087803b15801561313b57600080fd5b505af115801561314f573d6000803e3d6000fd5b505050506040513d602081101561316557600080fd5b505161316d57fe5b6000816001600160a01b0316636a62784284896040518363ffffffff1660e01b815260040180826001600160a01b0316815260200191505060408051808303818588803b1580156131bd57600080fd5b505af11580156131d1573d6000803e3d6000fd5b50505050506040513d60408110156131e857600080fd5b5080516020909101519095509050878510156132355760405162461bcd60e51b81526004018080602001828103825260258152602001806141d76025913960400191505060405180910390fd5b801561324557613245338261352e565b505050509695505050505050565b6000805b835181101561329657600084828151811061326e57fe5b6020026020010151600181111561328157fe5b141561328e576001909101905b600101613257565b506132a8662386f26fc100008261380b565b82146132fb576040805162461bcd60e51b815260206004820152601960248201527f43526f757465723a2077726f6e67206f7261636c652066656500000000000000604482015290519081900360640190fd5b505050565b604080516001600160a01b0385811660248301528481166044830152606480830185905283518084039091018152608490920183526020820180517bffffffffffffffffffffffffffffffffffffffffffffffffffffffff167f23b872dd0000000000000000000000000000000000000000000000000000000017815292518251600094606094938a169392918291908083835b602083106133d157805182527fffffffffffffffffffffffffffffffffffffffffffffffffffffffffffffffe09092019160209182019101613394565b6001836020036101000a0380198251168184511680821785525050505050509050019150506000604051808303816000865af19150503d8060008114613433576040519150601f19603f3d011682016040523d82523d6000602084013e613438565b606091505b5091509150818015613466575080511580613466575080806020019051602081101561346357600080fd5b50515b6134a15760405162461bcd60e51b815260040180806020018281038252602481526020018061421f6024913960400191505060405180910390fd5b505050505050565b60005b60018651038110156134a15760008582815181106134c657fe5b602002602001015160018111156134d957fe5b14156134f2576134ed818787878787613864565b613526565b600185828151811061350057fe5b6020026020010151600181111561351357fe5b1415610c3a576134ed8187878787613b66565b6001016134ac565b604080516000808252602082019092526001600160a01b0384169083906040518082805190602001908083835b6020831061359857805182527fffffffffffffffffffffffffffffffffffffffffffffffffffffffffffffffe0909201916020918201910161355b565b6001836020036101000a03801982511681845116808217855250505050505090500191505060006040518083038185875af1925050503d80600081146135fa576040519150601f19603f3d011682016040523d82523d6000602084013e6135ff565b606091505b50509050806132fb5760405162461bcd60e51b81526004018080602001828103825260238152602001806141fc6023913960400191505060405180910390fd5b600080600061364e8585613e31565b604080517fffffffffffffffffffffffffffffffffffffffff000000000000000000000000606094851b811660208084019190915293851b81166034830152825160288184030181526048830184528051908501207fff0000000000000000000000000000000000000000000000000000000000000060688401529a90941b9093166069840152607d8301989098527f96e8ac4277198ff8b6f785478aa9a39f403cb768dd02cbee326c3e7da348845f609d808401919091528851808403909101815260bd909201909752805196019590952095945050505050565b6000826001600160a01b0316631a788a02836040518263ffffffff1660e01b815260040180826001600160a01b0316815260200191505060206040518083038186803b15801561377957600080fd5b505afa15801561378d573d6000803e3d6000fd5b505050506040513d60208110156137a357600080fd5b505190505b92915050565b600082821115613805576040805162461bcd60e51b815260206004820152601e60248201527f536166654d6174683a207375627472616374696f6e206f766572666c6f770000604482015290519081900360640190fd5b50900390565b60008261381a575060006137a8565b8282028284828161382757fe5b0414610c875760405162461bcd60e51b81526004018080602001828103825260218152602001806141926021913960400191505060405180910390fd5b600061389b86888151811061387557fe5b602002602001015187896001018151811061388c57fe5b60200260200101516000610b77565b9050600060028751038810156138ff576138f88789600101815181106138bd57fe5b6020026020010151888a600201815181106138d457fe5b6020026020010151888b600101815181106138eb57fe5b6020026020010151610b77565b9050613902565b50825b61390a614108565b826001600160a01b0316639f44296a662386f26fc100008a8c6001018151811061393057fe5b6020026020010151856040518463ffffffff1660e01b815260040180836001600160a01b03168152602001826001600160a01b031681526020019250505060e0604051808303818588803b15801561398757600080fd5b505af115801561399b573d6000803e3d6000fd5b50505050506040513d601f19601f8201168201806040525060e08110156139c157600080fd5b5060208101518751909160600190889060018d019081106139de57fe5b6020026020010181935082815250505060007f00000000000000000000000000000000000000000000000000000000000000006001600160a01b031663b58aa4786040518163ffffffff1660e01b815260040160206040518083038186803b158015613a4957600080fd5b505afa158015613a5d573d6000803e3d6000fd5b505050506040513d6020811015613a7357600080fd5b5051825190915015801590613a9057506001600160a01b03851615155b8015613aa457506001600160a01b03811615155b15613b5a5781516020830151604080850151606086015182517f5e3ddd690000000000000000000000000000000000000000000000000000000081526001600160a01b038a81166004830152602482019690965260448101949094526064840191909152608483015287831660a48301525191831691635e3ddd699160c48082019260009290919082900301818387803b158015613b4157600080fd5b505af1158015613b55573d6000803e3d6000fd5b505050505b50505050505050505050565b6000613b9d858781518110613b7757fe5b6020026020010151868860010181518110613b8e57fe5b60200260200101516001610b77565b90506000613bd4868881518110613bb057fe5b6020026020010151878960010181518110613bc757fe5b6020026020010151613e31565b509050600080613c2e7f0000000000000000000000000000000000000000000000000000000000000000898b81518110613c0a57fe5b60200260200101518a8c60010181518110613c2157fe5b6020026020010151613f08565b91509150613c50868a81518110613c4157fe5b60200260200101518383613fd6565b868a60010181518110613c5f57fe5b60200260200101818152505050506000848860010181518110613c7e57fe5b60200260200101519050600080836001600160a01b0316898b81518110613ca157fe5b60200260200101516001600160a01b031614613cbf57826000613cc3565b6000835b91509150600060028a51038b1015613d1c57613d158a8c60010181518110613ce757fe5b60200260200101518b8d60020181518110613cfe57fe5b60200260200101518b8e600101815181106138eb57fe5b9050613d1f565b50855b60408051600080825260208201928390527f022c0d9f00000000000000000000000000000000000000000000000000000000835260248201868152604483018690526001600160a01b038581166064850152608060848501908152845160a48601819052918c169563022c0d9f958a958a958a9592949093909260c48601928190849084905b83811015613dbd578181015183820152602001613da5565b50505050905090810190601f168015613dea5780820380516001836020036101000a031916815260200191505b5095505050505050600060405180830381600087803b158015613e0c57600080fd5b505af1158015613e20573d6000803e3d6000fd5b505050505050505050505050505050565b600080826001600160a01b0316846001600160a01b03161415613e855760405162461bcd60e51b81526004018080602001828103825260258152602001806141456025913960400191505060405180910390fd5b826001600160a01b0316846001600160a01b031610613ea5578284613ea8565b83835b90925090506001600160a01b038216610df7576040805162461bcd60e51b815260206004820152601e60248201527f556e697377617056324c6962726172793a205a45524f5f414444524553530000604482015290519081900360640190fd5b6000806000613f178585613e31565b509050600080613f2888888861363f565b6001600160a01b0316630902f1ac6040518163ffffffff1660e01b815260040160606040518083038186803b158015613f6057600080fd5b505afa158015613f74573d6000803e3d6000fd5b505050506040513d6060811015613f8a57600080fd5b5080516020909101516dffffffffffffffffffffffffffff91821693501690506001600160a01b0387811690841614613fc4578082613fc7565b81815b90999098509650505050505050565b60008084116140165760405162461bcd60e51b815260040180806020018281038252602b815260200180614243602b913960400191505060405180910390fd5b6000831180156140265750600082115b6140615760405162461bcd60e51b815260040180806020018281038252602881526020018061416a6028913960400191505060405180910390fd5b600061406f856103e561380b565b9050600061407d828561380b565b9050600061409783614091886103e861380b565b906140ae565b90508082816140a257fe5b04979650505050505050565b600082820183811015610c87576040805162461bcd60e51b815260206004820152601b60248201527f536166654d6174683a206164646974696f6e206f766572666c6f770000000000604482015290519081900360640190fd5b60405180608001604052806004906020820280368337509192915050565b6040518060400160405280600290602082028036833750919291505056fe556e697377617056324c6962726172793a204944454e544943414c5f414444524553534553556e697377617056324c6962726172793a20494e53554646494349454e545f4c4951554944495459536166654d6174683a206d756c7469706c69636174696f6e206f766572666c6f7743526f757465723a20696e73756666696369656e74206f757470757420616d6f756e742043526f757465723a206c657373206c6971756964697479207468616e2065787065637465645472616e7366657248656c7065723a204554485f5452414e534645525f4641494c45445472616e7366657248656c7065723a205452414e534645525f46524f4d5f4641494c4544556e697377617056324c6962726172793a20494e53554646494349454e545f494e5055545f414d4f554e54a264697066735822122007984f6b1f4d75eb0befdb2b9692a4040c0a2cf833b860c1fb51935af66f8c5f64736f6c634300060c0033",
  "immutableReferences": {
    "11529": [
      {
        "length": 32,
        "start": 3409
      },
      {
        "length": 32,
        "start": 3515
      },
      {
        "length": 32,
        "start": 4953
      },
      {
        "length": 32,
        "start": 5448
      },
      {
        "length": 32,
        "start": 6105
      },
      {
        "length": 32,
        "start": 6766
      },
      {
        "length": 32,
        "start": 7123
      },
      {
        "length": 32,
        "start": 7471
      },
      {
        "length": 32,
        "start": 8452
      },
      {
        "length": 32,
        "start": 9174
      },
      {
        "length": 32,
        "start": 9817
      },
      {
        "length": 32,
        "start": 10951
      },
      {
        "length": 32,
        "start": 11165
      },
      {
        "length": 32,
        "start": 11878
      },
      {
        "length": 32,
        "start": 12046
      },
      {
        "length": 32,
        "start": 12305
      },
      {
        "length": 32,
        "start": 14834
      }
    ],
    "11531": [
      {
        "length": 32,
        "start": 3085
      },
      {
        "length": 32,
        "start": 5876
      },
      {
        "length": 32,
        "start": 8237
      },
      {
        "length": 32,
        "start": 15327
      }
    ],
    "11534": [
      {
        "length": 32,
        "start": 1998
      },
      {
        "length": 32,
        "start": 2741
      },
      {
        "length": 32,
        "start": 3219
      },
      {
        "length": 32,
        "start": 3280
      },
      {
        "length": 32,
        "start": 3349
      },
      {
        "length": 32,
        "start": 3455
      },
      {
        "length": 32,
        "start": 3684
      },
      {
        "length": 32,
        "start": 4007
      },
      {
        "length": 32,
        "start": 4123
      },
      {
        "length": 32,
        "start": 4832
      },
      {
        "length": 32,
        "start": 4994
      },
      {
        "length": 32,
        "start": 6890
      },
      {
        "length": 32,
        "start": 7584
      },
      {
        "length": 32,
        "start": 8531
      },
      {
        "length": 32,
        "start": 8811
      },
      {
        "length": 32,
        "start": 8947
      },
      {
        "length": 32,
        "start": 9330
      },
      {
        "length": 32,
        "start": 9446
      },
      {
        "length": 32,
        "start": 11411
      },
      {
        "length": 32,
        "start": 11643
      },
      {
        "length": 32,
        "start": 12370
      },
      {
        "length": 32,
        "start": 12486
      }
    ]
  },
  "source": "// SPDX-License-Identifier: GPL-3.0-or-later\npragma solidity 0.6.12;\n\nimport \"./interface/ICoFiXFactory.sol\";\nimport \"./lib/TransferHelper.sol\";\nimport \"./lib/UniswapV2Library.sol\";\nimport \"./interface/ICoFiXRouter02.sol\";\nimport \"@openzeppelin/contracts/math/SafeMath.sol\";\nimport \"@openzeppelin/contracts/token/ERC20/IERC20.sol\";\nimport \"./interface/IWETH.sol\";\nimport \"./interface/ICoFiXPair.sol\";\nimport \"./interface/ICoFiXVaultForLP.sol\";\nimport \"./interface/ICoFiXStakingRewards.sol\";\nimport \"./interface/ICoFiXVaultForTrader.sol\";\n\n\n// Router contract to interact with each CoFiXPair, no owner or governance\ncontract CoFiXRouter02 is ICoFiXRouter02 {\n    using SafeMath for uint;\n\n    address public immutable override factory;\n    address public immutable uniFactory;\n    address public immutable override WETH;\n\n    uint256 internal constant NEST_ORACLE_FEE = 0.01 ether;\n\n    modifier ensure(uint deadline) {\n        require(deadline >= block.timestamp, 'CRouter: EXPIRED');\n        _;\n    }\n\n    constructor(address _factory, address _uniFactory, address _WETH) public {\n        factory = _factory;\n        uniFactory = _uniFactory;\n        WETH = _WETH;\n    }\n\n    receive() external payable {}\n\n    // calculates the CREATE2 address for a pair without making any external calls\n    function pairFor(address _factory, address token) internal view returns (address pair) {\n        // pair = address(uint(keccak256(abi.encodePacked(\n        //         hex'ff',\n        //         _factory,\n        //         keccak256(abi.encodePacked(token)),\n        //         hex'fb0c5470b7fbfce7f512b5035b5c35707fd5c7bd43c8d81959891b0296030118' // init code hash\n        //     )))); // calc the real init code hash, not suitable for us now, could use this in the future\n        return ICoFiXFactory(_factory).getPair(token);\n    }\n\n    // msg.value = amountETH + oracle fee\n    function addLiquidity(\n        address token,\n        uint amountETH,\n        uint amountToken,\n        uint liquidityMin,\n        address to,\n        uint deadline\n    ) external override payable ensure(deadline) returns (uint liquidity)\n    {\n        // create the pair if it doesn't exist yet\n        if (ICoFiXFactory(factory).getPair(token) == address(0)) {\n            ICoFiXFactory(factory).createPair(token);\n        }\n        require(msg.value > amountETH, \"CRouter: insufficient msg.value\");\n        uint256 _oracleFee = msg.value.sub(amountETH);\n        address pair = pairFor(factory, token);\n        if (amountToken > 0 ) { // support for tokens which do not allow to transfer zero values\n            TransferHelper.safeTransferFrom(token, msg.sender, pair, amountToken);\n        }\n        if (amountETH > 0) {\n            IWETH(WETH).deposit{value: amountETH}();\n            assert(IWETH(WETH).transfer(pair, amountETH));\n        }\n        uint256 oracleFeeChange;\n        (liquidity, oracleFeeChange) = ICoFiXPair(pair).mint{value: _oracleFee}(to);\n        require(liquidity >= liquidityMin, \"CRouter: less liquidity than expected\");\n        // refund oracle fee to msg.sender, if any\n        if (oracleFeeChange > 0) TransferHelper.safeTransferETH(msg.sender, oracleFeeChange);\n    }\n\n    // msg.value = amountETH + oracle fee\n    function addLiquidityAndStake(\n        address token,\n        uint amountETH,\n        uint amountToken,\n        uint liquidityMin,\n        address to,\n        uint deadline\n    ) external override payable ensure(deadline) returns (uint liquidity)\n    {\n        // must create a pair before using this function\n        require(msg.value > amountETH, \"CRouter: insufficient msg.value\");\n        uint256 _oracleFee = msg.value.sub(amountETH);\n        address pair = pairFor(factory, token);\n        require(pair != address(0), \"CRouter: invalid pair\");\n        if (amountToken > 0 ) { // support for tokens which do not allow to transfer zero values\n            TransferHelper.safeTransferFrom(token, msg.sender, pair, amountToken);\n        }\n        if (amountETH > 0) {\n            IWETH(WETH).deposit{value: amountETH}();\n            assert(IWETH(WETH).transfer(pair, amountETH));\n        }\n        uint256 oracleFeeChange;\n        (liquidity, oracleFeeChange) = ICoFiXPair(pair).mint{value: _oracleFee}(address(this));\n        require(liquidity >= liquidityMin, \"CRouter: less liquidity than expected\");\n\n        // find the staking rewards pool contract for the liquidity token (pair)\n        address pool = ICoFiXVaultForLP(ICoFiXFactory(factory).getVaultForLP()).stakingPoolForPair(pair);\n        require(pool != address(0), \"CRouter: invalid staking pool\");\n        // approve to staking pool\n        ICoFiXPair(pair).approve(pool, liquidity);\n        ICoFiXStakingRewards(pool).stakeForOther(to, liquidity);\n        ICoFiXPair(pair).approve(pool, 0); // ensure\n        // refund oracle fee to msg.sender, if any\n        if (oracleFeeChange > 0) TransferHelper.safeTransferETH(msg.sender, oracleFeeChange);\n    }\n\n    // msg.value = oracle fee\n    function removeLiquidityGetToken(\n        address token,\n        uint liquidity,\n        uint amountTokenMin,\n        address to,\n        uint deadline\n    ) external override payable ensure(deadline) returns (uint amountToken)\n    {\n        require(msg.value > 0, \"CRouter: insufficient msg.value\");\n        address pair = pairFor(factory, token);\n        ICoFiXPair(pair).transferFrom(msg.sender, pair, liquidity); // send liquidity to pair\n        uint oracleFeeChange; \n        (amountToken, oracleFeeChange) = ICoFiXPair(pair).burn{value: msg.value}(token, to);\n        require(amountToken >= amountTokenMin, \"CRouter: got less than expected\");\n        // refund oracle fee to msg.sender, if any\n        if (oracleFeeChange > 0) TransferHelper.safeTransferETH(msg.sender, oracleFeeChange);\n    }\n\n    // msg.value = oracle fee\n    function removeLiquidityGetETH(\n        address token,\n        uint liquidity,\n        uint amountETHMin,\n        address to,\n        uint deadline\n    ) external override payable ensure(deadline) returns (uint amountETH)\n    {\n        require(msg.value > 0, \"CRouter: insufficient msg.value\");\n        address pair = pairFor(factory, token);\n        ICoFiXPair(pair).transferFrom(msg.sender, pair, liquidity); // send liquidity to pair\n        uint oracleFeeChange; \n        (amountETH, oracleFeeChange) = ICoFiXPair(pair).burn{value: msg.value}(WETH, address(this));\n        require(amountETH >= amountETHMin, \"CRouter: got less than expected\");\n        IWETH(WETH).withdraw(amountETH);\n        TransferHelper.safeTransferETH(to, amountETH);\n        // refund oracle fee to msg.sender, if any\n        if (oracleFeeChange > 0) TransferHelper.safeTransferETH(msg.sender, oracleFeeChange);\n    }\n\n    // msg.value = amountIn + oracle fee\n    function swapExactETHForTokens(\n        address token,\n        uint amountIn,\n        uint amountOutMin,\n        address to,\n        address rewardTo,\n        uint deadline\n    ) external override payable ensure(deadline) returns (uint _amountIn, uint _amountOut)\n    {\n        require(msg.value > amountIn, \"CRouter: insufficient msg.value\");\n        IWETH(WETH).deposit{value: amountIn}();\n        address pair = pairFor(factory, token);\n        assert(IWETH(WETH).transfer(pair, amountIn));\n        uint oracleFeeChange; \n        uint256[4] memory tradeInfo;\n        (_amountIn, _amountOut, oracleFeeChange, tradeInfo) = ICoFiXPair(pair).swapWithExact{\n            value: msg.value.sub(amountIn)}(token, to);\n        require(_amountOut >= amountOutMin, \"CRouter: got less than expected\");\n\n        // distribute trading rewards - CoFi!\n        address vaultForTrader = ICoFiXFactory(factory).getVaultForTrader();\n        if (tradeInfo[0] > 0 && rewardTo != address(0) && vaultForTrader != address(0)) {\n            ICoFiXVaultForTrader(vaultForTrader).distributeReward(pair, tradeInfo[0], tradeInfo[1], tradeInfo[2], tradeInfo[3], rewardTo);\n        }\n\n        // refund oracle fee to msg.sender, if any\n        if (oracleFeeChange > 0) TransferHelper.safeTransferETH(msg.sender, oracleFeeChange);\n    }\n\n    // msg.value = oracle fee\n    function swapExactTokensForTokens(\n        address tokenIn,\n        address tokenOut,\n        uint amountIn,\n        uint amountOutMin,\n        address to,\n        address rewardTo,\n        uint deadline\n    ) external override payable ensure(deadline) returns (uint _amountIn, uint _amountOut) {\n\n        require(msg.value > 0, \"CRouter: insufficient msg.value\");\n        address[2] memory pairs; // [pairIn, pairOut]\n\n        // swapExactTokensForETH\n        pairs[0] = pairFor(factory, tokenIn);\n        TransferHelper.safeTransferFrom(tokenIn, msg.sender, pairs[0], amountIn);\n        uint oracleFeeChange;\n        uint256[4] memory tradeInfo;\n        (_amountIn, _amountOut, oracleFeeChange, tradeInfo) = ICoFiXPair(pairs[0]).swapWithExact{value: msg.value}(WETH, address(this));\n\n        // distribute trading rewards - CoFi!\n        address vaultForTrader = ICoFiXFactory(factory).getVaultForTrader();\n        if (tradeInfo[0] > 0 && rewardTo != address(0) && vaultForTrader != address(0)) {\n            ICoFiXVaultForTrader(vaultForTrader).distributeReward(pairs[0], tradeInfo[0], tradeInfo[1], tradeInfo[2], tradeInfo[3], rewardTo);\n        }\n\n        // swapExactETHForTokens\n        pairs[1] = pairFor(factory, tokenOut);\n        assert(IWETH(WETH).transfer(pairs[1], _amountOut)); // swap with all amountOut in last swap\n        (, _amountOut, oracleFeeChange, tradeInfo) = ICoFiXPair(pairs[1]).swapWithExact{value: oracleFeeChange}(tokenOut, to);\n        require(_amountOut >= amountOutMin, \"CRouter: got less than expected\");\n\n        // distribute trading rewards - CoFi!\n        if (tradeInfo[0] > 0 && rewardTo != address(0) && vaultForTrader != address(0)) {\n            ICoFiXVaultForTrader(vaultForTrader).distributeReward(pairs[1], tradeInfo[0], tradeInfo[1], tradeInfo[2], tradeInfo[3], rewardTo);\n        }\n\n        // refund oracle fee to msg.sender, if any\n        if (oracleFeeChange > 0) TransferHelper.safeTransferETH(msg.sender, oracleFeeChange);\n    }\n\n    // msg.value = oracle fee\n    function swapExactTokensForETH(\n        address token,\n        uint amountIn,\n        uint amountOutMin,\n        address to,\n        address rewardTo,\n        uint deadline\n    ) external override payable ensure(deadline) returns (uint _amountIn, uint _amountOut)\n    {\n        require(msg.value > 0, \"CRouter: insufficient msg.value\");\n        address pair = pairFor(factory, token);\n        TransferHelper.safeTransferFrom(token, msg.sender, pair, amountIn);\n        uint oracleFeeChange; \n        uint256[4] memory tradeInfo;\n        (_amountIn, _amountOut, oracleFeeChange, tradeInfo) = ICoFiXPair(pair).swapWithExact{value: msg.value}(WETH, address(this));\n        require(_amountOut >= amountOutMin, \"CRouter: got less than expected\");\n        IWETH(WETH).withdraw(_amountOut);\n        TransferHelper.safeTransferETH(to, _amountOut);\n\n        // distribute trading rewards - CoFi!\n        address vaultForTrader = ICoFiXFactory(factory).getVaultForTrader();\n        if (tradeInfo[0] > 0 && rewardTo != address(0) && vaultForTrader != address(0)) {\n            ICoFiXVaultForTrader(vaultForTrader).distributeReward(pair, tradeInfo[0], tradeInfo[1], tradeInfo[2], tradeInfo[3], rewardTo);\n        }\n\n        // refund oracle fee to msg.sender, if any\n        if (oracleFeeChange > 0) TransferHelper.safeTransferETH(msg.sender, oracleFeeChange);\n    }\n\n    function hybridSwapExactTokensForTokens(\n        uint amountIn,\n        uint amountOutMin,\n        address[] calldata path,\n        DEX_TYPE[] calldata dexes,\n        address to,\n        address rewardTo,\n        uint deadline\n    ) external override payable ensure(deadline) returns (uint[] memory amounts) {\n        // fast check\n        require(path.length >= 2, \"CRouter: invalid path\");\n        require(dexes.length == path.length - 1, \"CRouter: invalid dexes\");\n        _checkOracleFee(dexes, msg.value);\n\n        // send amountIn to the first pair\n        TransferHelper.safeTransferFrom(\n            path[0], msg.sender,  getPairForDEX(path[0], path[1], dexes[0]), amountIn\n        );\n\n        // exec hybridSwap\n        amounts = new uint[](path.length);\n        amounts[0] = amountIn;\n        _hybridSwap(path, dexes, amounts, to, rewardTo);\n\n        // check amountOutMin in the last\n        require(amounts[amounts.length - 1] >= amountOutMin, \"CRouter: insufficient output amount \");\n    }\n\n    function hybridSwapExactETHForTokens(\n        uint amountIn,\n        uint amountOutMin,\n        address[] calldata path,\n        DEX_TYPE[] calldata dexes,\n        address to,\n        address rewardTo,\n        uint deadline\n    ) external override payable ensure(deadline) returns (uint[] memory amounts) {\n        // fast check\n        require(path.length >= 2 && path[0] == WETH, \"CRouter: invalid path\");\n        require(dexes.length == path.length - 1, \"CRouter: invalid dexes\");\n        _checkOracleFee(dexes, msg.value.sub(amountIn)); // would revert if msg.value is less than amountIn\n\n        // convert ETH and send amountIn to the first pair\n        IWETH(WETH).deposit{value: amountIn}();\n        assert(IWETH(WETH).transfer(getPairForDEX(path[0], path[1], dexes[0]), amountIn));\n\n        // exec hybridSwap\n        amounts = new uint[](path.length);\n        amounts[0] = amountIn;\n        _hybridSwap(path, dexes, amounts, to, rewardTo);\n\n        // check amountOutMin in the last\n        require(amounts[amounts.length - 1] >= amountOutMin, \"CRouter: insufficient output amount \");\n    }\n\n    function hybridSwapExactTokensForETH(\n        uint amountIn,\n        uint amountOutMin,\n        address[] calldata path,\n        DEX_TYPE[] calldata dexes,\n        address to,\n        address rewardTo,\n        uint deadline\n    ) external override payable ensure(deadline) returns (uint[] memory amounts) {\n        // fast check\n        require(path.length >= 2 && path[path.length - 1] == WETH, \"CRouter: invalid path\");\n        require(dexes.length == path.length - 1, \"CRouter: invalid dexes\");\n        _checkOracleFee(dexes, msg.value);\n\n        // send amountIn to the first pair\n        TransferHelper.safeTransferFrom(\n            path[0], msg.sender, getPairForDEX(path[0], path[1], dexes[0]), amountIn\n        );\n\n        // exec hybridSwap\n        amounts = new uint[](path.length);\n        amounts[0] = amountIn;\n        _hybridSwap(path, dexes, amounts, address(this), rewardTo);\n\n        // check amountOutMin in the last\n        require(amounts[amounts.length - 1] >= amountOutMin, \"CRouter: insufficient output amount \");\n\n        // convert WETH\n        IWETH(WETH).withdraw(amounts[amounts.length - 1]);\n        TransferHelper.safeTransferETH(to, amounts[amounts.length - 1]);\n    }\n\n\n    function _checkOracleFee(DEX_TYPE[] memory dexes, uint256 oracleFee) internal pure {\n        uint cofixCnt;\n        for (uint i; i < dexes.length; i++) {\n            if (dexes[i] == DEX_TYPE.COFIX) {\n                cofixCnt++;\n            }\n        }\n        // strict check here\n        // to simplify the verify logic for oracle fee and prevent user from locking oracle fee by mistake\n        // if NEST_ORACLE_FEE value changed, this router would not work as expected\n        // TODO: refund the oracle fee?\n        require(oracleFee == NEST_ORACLE_FEE.mul(cofixCnt), \"CRouter: wrong oracle fee\");\n    }\n\n    function _hybridSwap(address[] memory path, DEX_TYPE[] memory dexes, uint[] memory amounts, address _to, address rewardTo) internal {\n        for (uint i; i < path.length - 1; i++) {\n            if (dexes[i] == DEX_TYPE.COFIX) {\n                _swapOnCoFiX(i, path, dexes, amounts, _to, rewardTo);\n            } else if (dexes[i] == DEX_TYPE.UNISWAP) {\n                _swapOnUniswap(i, path, dexes, amounts, _to);\n            } else {\n                revert(\"CRouter: unknown dex\");\n            }\n        }\n    }\n\n    function _swapOnUniswap(uint i, address[] memory path, DEX_TYPE[] memory dexes, uint[] memory amounts, address _to) internal {\n        address pair = getPairForDEX(path[i], path[i + 1], DEX_TYPE.UNISWAP);\n\n        (address token0,) = UniswapV2Library.sortTokens(path[i], path[i + 1]);\n        {\n            (uint reserveIn, uint reserveOut) = UniswapV2Library.getReserves(uniFactory, path[i], path[i + 1]);\n            amounts[i + 1] = UniswapV2Library.getAmountOut(amounts[i], reserveIn, reserveOut);\n        }\n        uint amountOut = amounts[i + 1];\n        (uint amount0Out, uint amount1Out) = path[i] == token0 ? (uint(0), amountOut) : (amountOut, uint(0));\n\n        address to;\n        {\n            if (i < path.length - 2) {\n                to = getPairForDEX(path[i + 1], path[i + 2], dexes[i + 1]);\n            } else {\n                to = _to;\n            }\n        }\n\n        IUniswapV2Pair(pair).swap(\n            amount0Out, amount1Out, to, new bytes(0)\n        );\n    }\n    \n    function _swapOnCoFiX(uint i, address[] memory path, DEX_TYPE[] memory dexes, uint[] memory amounts, address _to, address rewardTo) internal {\n            address pair = getPairForDEX(path[i], path[i + 1], DEX_TYPE.COFIX);\n            address to;\n            if (i < path.length - 2) {\n                to = getPairForDEX(path[i + 1], path[i + 2], dexes[i + 1]);\n            } else {\n                to = _to;\n            }\n            // TODO: dynamic oracle fee\n            {\n                uint256[4] memory tradeInfo;\n                (,amounts[i+1],,tradeInfo) = ICoFiXPair(pair).swapWithExact{value: NEST_ORACLE_FEE}(path[i + 1], to);\n\n                // distribute trading rewards - CoFi!\n                address vaultForTrader = ICoFiXFactory(factory).getVaultForTrader();\n                if (tradeInfo[0] > 0 && rewardTo != address(0) && vaultForTrader != address(0)) {\n                    ICoFiXVaultForTrader(vaultForTrader).distributeReward(pair, tradeInfo[0], tradeInfo[1], tradeInfo[2], tradeInfo[3], rewardTo);\n                }\n            }\n    } \n\n    function isCoFiXNativeSupported(address input, address output) public view returns (bool supported, address pair) {\n        // NO WETH included\n        if (input != WETH && output != WETH)\n            return (false, pair);\n        if (input != WETH) {\n            pair = pairFor(factory, input);\n        } else if (output != WETH) {\n            pair = pairFor(factory, output);\n        }\n        // if tokenIn & tokenOut are both WETH, then the pair is zero\n        if (pair != address(0)) // TODO: add check for reserves\n            supported = true;\n        return (supported, pair);\n    }\n\n    function getPairForDEX(address input, address output, DEX_TYPE dex) public view returns (address pair) {\n        if (dex == DEX_TYPE.COFIX) {\n            bool supported;\n            (supported, pair) = isCoFiXNativeSupported(input, output);\n            if (!supported) {\n                revert(\"CRouter: not available on CoFiX\");\n            }\n        } else if (dex == DEX_TYPE.UNISWAP) {\n            pair = UniswapV2Library.pairFor(uniFactory, input, output);\n        } else {\n            revert(\"CRouter: unknown dex\");\n        }\n    }\n\n    // TODO: not used currently\n    function hybridPair(address input, address output) public view returns (bool useCoFiX, address pair) {\n        (useCoFiX, pair) = isCoFiXNativeSupported(input, output);\n        if (useCoFiX) {\n            return (useCoFiX, pair);\n        }\n        return (false, UniswapV2Library.pairFor(uniFactory, input, output));\n    }\n}\n",
  "sourcePath": "/Users/lixiansheng/Downloads/CoFix/contracts/CoFiXRouter02.sol",
  "compiler": {
    "name": "solc",
    "version": "0.6.12+commit.27d51765.Emscripten.clang"
  },
  "schemaVersion": "3.4.1",
  "updatedAt": "2021-05-11T03:07:09.841Z",
  "devdoc": {
    "kind": "dev",
    "methods": {
      "addLiquidity(address,uint256,uint256,uint256,address,uint256)": {
        "details": "Maker add liquidity to pool, get pool token (mint XToken to maker) (notice: msg.value = amountETH + oracle fee)",
        "params": {
          "amountETH": "The amount of ETH added to pool",
          "amountToken": "The amount of Token added to pool",
          "deadline": "The dealine of this request",
          "liquidityMin": "The minimum liquidity maker wanted",
          "to": "The target address receiving the liquidity pool (XToken)",
          "token": "The address of ERC20 Token"
        },
        "returns": {
          "liquidity": "The real liquidity or XToken minted from pool"
        }
      },
      "addLiquidityAndStake(address,uint256,uint256,uint256,address,uint256)": {
        "details": "Maker add liquidity to pool, get pool token (mint XToken) and stake automatically (notice: msg.value = amountETH + oracle fee)",
        "params": {
          "amountETH": "The amount of ETH added to pool",
          "amountToken": "The amount of Token added to pool",
          "deadline": "The dealine of this request",
          "liquidityMin": "The minimum liquidity maker wanted",
          "to": "The target address receiving the liquidity pool (XToken)",
          "token": "The address of ERC20 Token"
        },
        "returns": {
          "liquidity": "The real liquidity or XToken minted from pool"
        }
      },
      "hybridSwapExactETHForTokens(uint256,uint256,address[],uint8[],address,address,uint256)": {
        "details": "Swaps an exact amount of ETH for as many output tokens as possible, along the route determined by the path. The first element of path must be WETH, the last is the output token, and any intermediate elements represent intermediate pairs to trade through (if, for example, a direct pair does not exist).",
        "params": {
          "amountIn": "The amount of input tokens to send.",
          "amountOutMin": "The minimum amount of output tokens that must be received for the transaction not to revert.",
          "deadline": "Unix timestamp after which the transaction will revert.",
          "dexes": "An array of dex type values, specifying the exchanges to be used, e.g. CoFiX, Uniswap.",
          "path": "An array of token addresses. path.length must be >= 2. Pools for each consecutive pair of addresses must exist and have liquidity.",
          "rewardTo": "The target address receiving the CoFi Token as rewards.",
          "to": "Recipient of the output tokens."
        },
        "returns": {
          "amounts": "The input token amount and all subsequent output token amounts."
        }
      },
      "hybridSwapExactTokensForETH(uint256,uint256,address[],uint8[],address,address,uint256)": {
        "details": "Swaps an exact amount of tokens for as much ETH as possible, along the route determined by the path. The first element of path is the input token, the last must be WETH, and any intermediate elements represent intermediate pairs to trade through (if, for example, a direct pair does not exist). If the to address is a smart contract, it must have the ability to receive ETH.",
        "params": {
          "amountIn": "The amount of input tokens to send.",
          "amountOutMin": "The minimum amount of output tokens that must be received for the transaction not to revert.",
          "deadline": "Unix timestamp after which the transaction will revert.",
          "dexes": "An array of dex type values, specifying the exchanges to be used, e.g. CoFiX, Uniswap.",
          "path": "An array of token addresses. path.length must be >= 2. Pools for each consecutive pair of addresses must exist and have liquidity.",
          "rewardTo": "The target address receiving the CoFi Token as rewards.",
          "to": "Recipient of the output tokens."
        },
        "returns": {
          "amounts": "The input token amount and all subsequent output token amounts."
        }
      },
      "hybridSwapExactTokensForTokens(uint256,uint256,address[],uint8[],address,address,uint256)": {
        "details": "Swaps an exact amount of input tokens for as many output tokens as possible, along the route determined by the path. The first element of path is the input token, the last is the output token, and any intermediate elements represent intermediate pairs to trade through (if, for example, a direct pair does not exist). `msg.sender` should have already given the router an allowance of at least amountIn on the input token. The swap execution can be done via cofix or uniswap. That's why it's called hybrid.",
        "params": {
          "amountIn": "The amount of input tokens to send.",
          "amountOutMin": "The minimum amount of output tokens that must be received for the transaction not to revert.",
          "deadline": "Unix timestamp after which the transaction will revert.",
          "dexes": "An array of dex type values, specifying the exchanges to be used, e.g. CoFiX, Uniswap.",
          "path": "An array of token addresses. path.length must be >= 2. Pools for each consecutive pair of addresses must exist and have liquidity.",
          "rewardTo": "The target address receiving the CoFi Token as rewards.",
          "to": "Recipient of the output tokens."
        },
        "returns": {
          "amounts": "The input token amount and all subsequent output token amounts."
        }
      },
      "removeLiquidityGetETH(address,uint256,uint256,address,uint256)": {
        "details": "Maker remove liquidity from pool to get ETH back (maker burn XToken) (notice: msg.value = oracle fee)",
        "params": {
          "amountETHMin": "The minimum amount of ETH wanted to get from pool",
          "deadline": "The dealine of this request",
          "liquidity": "The amount of liquidity (XToken) sent to pool, or the liquidity to remove",
          "to": "The target address receiving the ETH",
          "token": "The address of ERC20 Token"
        },
        "returns": {
          "amountETH": "The real amount of ETH transferred from the pool"
        }
      },
      "removeLiquidityGetToken(address,uint256,uint256,address,uint256)": {
        "details": "Maker remove liquidity from pool to get ERC20 Token back (maker burn XToken) (notice: msg.value = oracle fee)",
        "params": {
          "amountTokenMin": "The minimum amount of Token wanted to get from pool",
          "deadline": "The dealine of this request",
          "liquidity": "The amount of liquidity (XToken) sent to pool, or the liquidity to remove",
          "to": "The target address receiving the Token",
          "token": "The address of ERC20 Token"
        },
        "returns": {
          "amountToken": "The real amount of Token transferred from the pool"
        }
      },
      "swapExactETHForTokens(address,uint256,uint256,address,address,uint256)": {
        "details": "Trader swap exact amount of ETH for ERC20 Tokens (notice: msg.value = amountIn + oracle fee)",
        "params": {
          "amountIn": "The exact amount of ETH a trader want to swap into pool",
          "amountOutMin": "The minimum amount of Token a trader want to swap out of pool",
          "deadline": "The dealine of this request",
          "rewardTo": "The target address receiving the CoFi Token as rewards",
          "to": "The target address receiving the Token",
          "token": "The address of ERC20 Token"
        },
        "returns": {
          "_amountIn": "The real amount of ETH transferred into pool",
          "_amountOut": "The real amount of Token transferred out of pool"
        }
      },
      "swapExactTokensForETH(address,uint256,uint256,address,address,uint256)": {
        "details": "Trader swap exact amount of ERC20 Tokens for ETH (notice: msg.value = oracle fee)",
        "params": {
          "amountIn": "The exact amount of Token a trader want to swap into pool",
          "amountOutMin": "The mininum amount of ETH a trader want to swap out of pool",
          "deadline": "The dealine of this request",
          "rewardTo": "The target address receiving the CoFi Token as rewards",
          "to": "The target address receiving the ETH",
          "token": "The address of ERC20 Token"
        },
        "returns": {
          "_amountIn": "The real amount of Token transferred into pool",
          "_amountOut": "The real amount of ETH transferred out of pool"
        }
      },
      "swapExactTokensForTokens(address,address,uint256,uint256,address,address,uint256)": {
        "details": "Trader swap exact amount of ERC20 Tokens for other ERC20 Tokens (notice: msg.value = oracle fee)",
        "params": {
          "amountIn": "The exact amount of Token a trader want to swap into pool",
          "amountOutMin": "The mininum amount of ETH a trader want to swap out of pool",
          "deadline": "The dealine of this request",
          "rewardTo": "The target address receiving the CoFi Token as rewards",
          "to": "The target address receiving the Token",
          "tokenIn": "The address of ERC20 Token a trader want to swap into pool",
          "tokenOut": "The address of ERC20 Token a trader want to swap out of pool"
        },
        "returns": {
          "_amountIn": "The real amount of Token transferred into pool",
          "_amountOut": "The real amount of Token transferred out of pool"
        }
      }
    },
    "version": 1
  },
  "userdoc": {
    "kind": "user",
    "methods": {},
    "version": 1
  }
}