{
  "contractName": "CoFiXV2Factory",
  "abi": [
    {
      "inputs": [
        {
          "internalType": "address",
          "name": "_WETH",
          "type": "address"
        }
      ],
      "stateMutability": "nonpayable",
      "type": "constructor"
    },
    {
      "anonymous": false,
      "inputs": [
        {
          "indexed": false,
          "internalType": "address",
          "name": "_new",
          "type": "address"
        }
      ],
      "name": "NewController",
      "type": "event"
    },
    {
      "anonymous": false,
      "inputs": [
        {
          "indexed": false,
          "internalType": "address",
          "name": "_new",
          "type": "address"
        }
      ],
      "name": "NewDAO",
      "type": "event"
    },
    {
      "anonymous": false,
      "inputs": [
        {
          "indexed": false,
          "internalType": "address",
          "name": "_new",
          "type": "address"
        }
      ],
      "name": "NewFeeReceiver",
      "type": "event"
    },
    {
      "anonymous": false,
      "inputs": [
        {
          "indexed": false,
          "internalType": "address",
          "name": "token",
          "type": "address"
        },
        {
          "indexed": false,
          "internalType": "address",
          "name": "feeVault",
          "type": "address"
        }
      ],
      "name": "NewFeeVaultForLP",
      "type": "event"
    },
    {
      "anonymous": false,
      "inputs": [
        {
          "indexed": false,
          "internalType": "address",
          "name": "_new",
          "type": "address"
        }
      ],
      "name": "NewGovernance",
      "type": "event"
    },
    {
      "anonymous": false,
      "inputs": [
        {
          "indexed": false,
          "internalType": "address",
          "name": "_new",
          "type": "address"
        }
      ],
      "name": "NewVaultForCNode",
      "type": "event"
    },
    {
      "anonymous": false,
      "inputs": [
        {
          "indexed": false,
          "internalType": "address",
          "name": "_new",
          "type": "address"
        }
      ],
      "name": "NewVaultForLP",
      "type": "event"
    },
    {
      "anonymous": false,
      "inputs": [
        {
          "indexed": false,
          "internalType": "address",
          "name": "_new",
          "type": "address"
        }
      ],
      "name": "NewVaultForTrader",
      "type": "event"
    },
    {
      "anonymous": false,
      "inputs": [
        {
          "indexed": true,
          "internalType": "address",
          "name": "token",
          "type": "address"
        },
        {
          "indexed": false,
          "internalType": "address",
          "name": "pair",
          "type": "address"
        },
        {
          "indexed": false,
          "internalType": "uint256",
          "name": "",
          "type": "uint256"
        }
      ],
      "name": "PairCreated",
      "type": "event"
    },
    {
      "inputs": [],
      "name": "WETH",
      "outputs": [
        {
          "internalType": "address",
          "name": "",
          "type": "address"
        }
      ],
      "stateMutability": "view",
      "type": "function"
    },
    {
      "inputs": [
        {
          "internalType": "uint256",
          "name": "",
          "type": "uint256"
        }
      ],
      "name": "allPairs",
      "outputs": [
        {
          "internalType": "address",
          "name": "",
          "type": "address"
        }
      ],
      "stateMutability": "view",
      "type": "function"
    },
    {
      "inputs": [],
      "name": "controller",
      "outputs": [
        {
          "internalType": "address",
          "name": "",
          "type": "address"
        }
      ],
      "stateMutability": "view",
      "type": "function"
    },
    {
      "inputs": [],
      "name": "dao",
      "outputs": [
        {
          "internalType": "address",
          "name": "",
          "type": "address"
        }
      ],
      "stateMutability": "view",
      "type": "function"
    },
    {
      "inputs": [],
      "name": "feeReceiver",
      "outputs": [
        {
          "internalType": "address",
          "name": "",
          "type": "address"
        }
      ],
      "stateMutability": "view",
      "type": "function"
    },
    {
      "inputs": [
        {
          "internalType": "address",
          "name": "",
          "type": "address"
        }
      ],
      "name": "getFeeVaultForLP",
      "outputs": [
        {
          "internalType": "address",
          "name": "",
          "type": "address"
        }
      ],
      "stateMutability": "view",
      "type": "function"
    },
    {
      "inputs": [
        {
          "internalType": "address",
          "name": "",
          "type": "address"
        }
      ],
      "name": "getPair",
      "outputs": [
        {
          "internalType": "address",
          "name": "",
          "type": "address"
        }
      ],
      "stateMutability": "view",
      "type": "function"
    },
    {
      "inputs": [
        {
          "internalType": "address",
          "name": "",
          "type": "address"
        }
      ],
      "name": "getTradeMiningStatus",
      "outputs": [
        {
          "internalType": "bool",
          "name": "",
          "type": "bool"
        }
      ],
      "stateMutability": "view",
      "type": "function"
    },
    {
      "inputs": [],
      "name": "governance",
      "outputs": [
        {
          "internalType": "address",
          "name": "",
          "type": "address"
        }
      ],
      "stateMutability": "view",
      "type": "function"
    },
    {
      "inputs": [],
      "name": "vaultForCNode",
      "outputs": [
        {
          "internalType": "address",
          "name": "",
          "type": "address"
        }
      ],
      "stateMutability": "view",
      "type": "function"
    },
    {
      "inputs": [],
      "name": "vaultForLP",
      "outputs": [
        {
          "internalType": "address",
          "name": "",
          "type": "address"
        }
      ],
      "stateMutability": "view",
      "type": "function"
    },
    {
      "inputs": [],
      "name": "vaultForTrader",
      "outputs": [
        {
          "internalType": "address",
          "name": "",
          "type": "address"
        }
      ],
      "stateMutability": "view",
      "type": "function"
    },
    {
      "inputs": [],
      "name": "allPairsLength",
      "outputs": [
        {
          "internalType": "uint256",
          "name": "",
          "type": "uint256"
        }
      ],
      "stateMutability": "view",
      "type": "function"
    },
    {
      "inputs": [],
      "name": "pairCodeHash",
      "outputs": [
        {
          "internalType": "bytes32",
          "name": "",
          "type": "bytes32"
        }
      ],
      "stateMutability": "pure",
      "type": "function"
    },
    {
      "inputs": [
        {
          "internalType": "address",
          "name": "token",
          "type": "address"
        },
        {
          "internalType": "uint256",
          "name": "initToken0Amount",
          "type": "uint256"
        },
        {
          "internalType": "uint256",
          "name": "initToken1Amount",
          "type": "uint256"
        }
      ],
      "name": "createPair",
      "outputs": [
        {
          "internalType": "address",
          "name": "pair",
          "type": "address"
        }
      ],
      "stateMutability": "nonpayable",
      "type": "function"
    },
    {
      "inputs": [
        {
          "internalType": "address",
          "name": "_new",
          "type": "address"
        }
      ],
      "name": "setGovernance",
      "outputs": [],
      "stateMutability": "nonpayable",
      "type": "function"
    },
    {
      "inputs": [
        {
          "internalType": "address",
          "name": "_new",
          "type": "address"
        }
      ],
      "name": "setController",
      "outputs": [],
      "stateMutability": "nonpayable",
      "type": "function"
    },
    {
      "inputs": [
        {
          "internalType": "address",
          "name": "_new",
          "type": "address"
        }
      ],
      "name": "setFeeReceiver",
      "outputs": [],
      "stateMutability": "nonpayable",
      "type": "function"
    },
    {
      "inputs": [
        {
          "internalType": "address",
          "name": "token",
          "type": "address"
        },
        {
          "internalType": "address",
          "name": "feeVault",
          "type": "address"
        }
      ],
      "name": "setFeeVaultForLP",
      "outputs": [],
      "stateMutability": "nonpayable",
      "type": "function"
    },
    {
      "inputs": [
        {
          "internalType": "address",
          "name": "_new",
          "type": "address"
        }
      ],
      "name": "setVaultForLP",
      "outputs": [],
      "stateMutability": "nonpayable",
      "type": "function"
    },
    {
      "inputs": [
        {
          "internalType": "address",
          "name": "_new",
          "type": "address"
        }
      ],
      "name": "setVaultForTrader",
      "outputs": [],
      "stateMutability": "nonpayable",
      "type": "function"
    },
    {
      "inputs": [
        {
          "internalType": "address",
          "name": "_new",
          "type": "address"
        }
      ],
      "name": "setVaultForCNode",
      "outputs": [],
      "stateMutability": "nonpayable",
      "type": "function"
    },
    {
      "inputs": [
        {
          "internalType": "address",
          "name": "_new",
          "type": "address"
        }
      ],
      "name": "setDAO",
      "outputs": [],
      "stateMutability": "nonpayable",
      "type": "function"
    },
    {
      "inputs": [
        {
          "internalType": "address",
          "name": "token",
          "type": "address"
        },
        {
          "internalType": "bool",
          "name": "status",
          "type": "bool"
        }
      ],
      "name": "setTradeMiningStatus",
      "outputs": [],
      "stateMutability": "nonpayable",
      "type": "function"
    },
    {
      "inputs": [],
      "name": "getController",
      "outputs": [
        {
          "internalType": "address",
          "name": "",
          "type": "address"
        }
      ],
      "stateMutability": "view",
      "type": "function"
    },
    {
      "inputs": [],
      "name": "getFeeReceiver",
      "outputs": [
        {
          "internalType": "address",
          "name": "",
          "type": "address"
        }
      ],
      "stateMutability": "view",
      "type": "function"
    },
    {
      "inputs": [],
      "name": "getVaultForLP",
      "outputs": [
        {
          "internalType": "address",
          "name": "",
          "type": "address"
        }
      ],
      "stateMutability": "view",
      "type": "function"
    },
    {
      "inputs": [],
      "name": "getVaultForTrader",
      "outputs": [
        {
          "internalType": "address",
          "name": "",
          "type": "address"
        }
      ],
      "stateMutability": "view",
      "type": "function"
    },
    {
      "inputs": [],
      "name": "getVaultForCNode",
      "outputs": [
        {
          "internalType": "address",
          "name": "",
          "type": "address"
        }
      ],
      "stateMutability": "view",
      "type": "function"
    },
    {
      "inputs": [],
      "name": "getDAO",
      "outputs": [
        {
          "internalType": "address",
          "name": "",
          "type": "address"
        }
      ],
      "stateMutability": "view",
      "type": "function"
    }
  ],
  "bytecode": "0x60a060405234801561001057600080fd5b506040516153af3803806153af83398101604081905261002f91610066565b60028054336001600160a01b0319918216811790925560048054909116909117905560601b6001600160601b031916608052610094565b600060208284031215610077578081fd5b81516001600160a01b038116811461008d578182fd5b9392505050565b60805160601c6152f96100b66000398061070d5280610cda52506152f96000f3fe60806040523480156200001157600080fd5b5060043610620002085760003560e01c806392eefe9b116200011d578063cb27e2c311620000b1578063e73a914c116200007b578063e73a914c14620003e5578063e8a3539214620003fc578063efdcd9741462000406578063f77c4791146200041d5762000208565b8063cb27e2c31462000396578063d2d7f81614620003ad578063d494eded14620003b7578063d725b7d614620003ce5762000208565b8063ab033ea911620000f3578063ab033ea91462000361578063ad5c46481462000378578063b3f006741462000382578063b58aa478146200038c5762000208565b806392eefe9b1462000336578063985da726146200034d5780639aab924814620003575762000208565b8063574f2ba311620001a15780637c5f3cdf116200016b5780637c5f3cdf14620002e557806380feb39814620002fc5780638140b0041462000322578063847af19a146200032c5762000208565b8063574f2ba314620002925780635aa6e67514620002ab57806372b8cbcc14620002b55780637bae702714620002cc5762000208565b80631e3dd18b11620001e35780631e3dd18b1462000250578063284cfbe014620002675780633018205f146200027e5780634162169f14620002885762000208565b806306b580e4146200020d5780631a788a02146200022f5780631dae76911462000246575b600080fd5b6200021762000427565b6040516200022691906200145a565b60405180910390f35b6200021762000240366004620012bf565b62000436565b6200021762000451565b620002176200026136600462001392565b62000460565b62000217620002783660046200135c565b62000488565b6200021762000859565b6200021762000868565b6200029c62000877565b60405162000226919062001504565b620002176200087d565b62000217620002c6366004620012bf565b6200088c565b620002e3620002dd366004620012bf565b620008a7565b005b620002e3620002f6366004620012bf565b6200099e565b620003136200030d366004620012bf565b62000a8a565b604051620002269190620014f9565b6200021762000a9f565b6200021762000aae565b620002e362000347366004620012bf565b62000abd565b6200021762000ba9565b6200029c62000bb8565b620002e362000372366004620012bf565b62000bec565b6200021762000cd8565b6200021762000cfc565b6200021762000d0b565b620002e3620003a7366004620012e4565b62000d1a565b6200021762000dce565b620002e3620003c83660046200131d565b62000ddd565b620002e3620003df366004620012bf565b62000e53565b620002e3620003f6366004620012bf565b62000f3f565b620002176200102b565b620002e362000417366004620012bf565b6200103a565b6200021762001126565b6006546001600160a01b031681565b6000602081905290815260409020546001600160a01b031681565b6007546001600160a01b031690565b600181815481106200046e57fe5b6000918252602090912001546001600160a01b0316905081565b6002546000906001600160a01b03163314620004c15760405162461bcd60e51b8152600401620004b890620015e9565b60405180910390fd5b6001600160a01b038416620004ea5760405162461bcd60e51b8152600401620004b8906200150d565b6001600160a01b038481166000908152602081905260409020541615620005255760405162461bcd60e51b8152600401620004b8906200157b565b600083118015620005365750600082115b620005555760405162461bcd60e51b8152600401620004b89062001620565b606060405180602001620005699062001299565b6020820181038252601f19601f820116604052509050600085604051602001620005949190620013f7565b604051602081830303815290604052805190602001209050808251602084016000f592506001600160a01b038316620005e15760405162461bcd60e51b8152600401620004b890620015b2565b6001600160a01b03808716600090815260208190526040812080549286167fffffffffffffffffffffffff00000000000000000000000000000000000000009384168117909155600180548082018255928190527fb10e2d527612073b26eecdfd717e6a320cf44b4afac2b0732d9fcbe2b7fa0cf6909201805490931617909155546060620006708262001135565b90506060620006b56040518060400160405280600781526020017f58546f6b656e2000000000000000000000000000000000000000000000000000815250836200126a565b90506060620006fa6040518060400160405280600381526020017f58542d0000000000000000000000000000000000000000000000000000000000815250846200126a565b9050866001600160a01b03166379c2c9547f00000000000000000000000000000000000000000000000000000000000000008c85858e8e6040518763ffffffff1660e01b8152600401620007549695949392919062001488565b600060405180830381600087803b1580156200076f57600080fd5b505af115801562000784573d6000803e3d6000fd5b50506003546040517f747293fb0000000000000000000000000000000000000000000000000000000081526001600160a01b03909116925063747293fb9150620007d3908a906004016200145a565b600060405180830381600087803b158015620007ee57600080fd5b505af115801562000803573d6000803e3d6000fd5b50505050896001600160a01b03167fc1db9ba7c4b7ce660fe8d17bbcf07167549381df2abd694a970bd1402d86d313888660405162000844929190620014e0565b60405180910390a25050505050509392505050565b6003546001600160a01b031690565b6008546001600160a01b031681565b60015490565b6002546001600160a01b031681565b600a602052600090815260409020546001600160a01b031681565b6002546001600160a01b03163314620008d45760405162461bcd60e51b8152600401620004b890620015e9565b6001600160a01b038116620008fd5760405162461bcd60e51b8152600401620004b89062001657565b6005546001600160a01b03828116911614156200092e5760405162461bcd60e51b8152600401620004b89062001544565b600580547fffffffffffffffffffffffff0000000000000000000000000000000000000000166001600160a01b0383161790556040517f67dc7d9f59b39efcc9e1b3a2c2109c2b212fc362b17a6190027eb18cc3afa6e490620009939083906200145a565b60405180910390a150565b6002546001600160a01b03163314620009cb5760405162461bcd60e51b8152600401620004b890620015e9565b6001600160a01b038116620009f45760405162461bcd60e51b8152600401620004b89062001657565b6006546001600160a01b038281169116141562000a255760405162461bcd60e51b8152600401620004b89062001544565b600680547fffffffffffffffffffffffff0000000000000000000000000000000000000000166001600160a01b0383161790556040517f2f2656fd872771c0eeb3cd0a9ec1a2080a44a7bacbc1de33587cad3b2e34ec5090620009939083906200145a565b60096020526000908152604090205460ff1681565b6007546001600160a01b031681565b6005546001600160a01b031681565b6002546001600160a01b0316331462000aea5760405162461bcd60e51b8152600401620004b890620015e9565b6001600160a01b03811662000b135760405162461bcd60e51b8152600401620004b89062001657565b6003546001600160a01b038281169116141562000b445760405162461bcd60e51b8152600401620004b89062001544565b600380547fffffffffffffffffffffffff0000000000000000000000000000000000000000166001600160a01b0383161790556040517fe253457d9ad994ca9682fc3bbc38c890dca73a2d5ecee3809e548bac8b00d7c690620009939083906200145a565b6008546001600160a01b031690565b60006040518060200162000bcc9062001299565b6020820181038252601f19601f8201166040525080519060200120905090565b6002546001600160a01b0316331462000c195760405162461bcd60e51b8152600401620004b890620015e9565b6001600160a01b03811662000c425760405162461bcd60e51b8152600401620004b89062001657565b6002546001600160a01b038281169116141562000c735760405162461bcd60e51b8152600401620004b89062001544565b600280547fffffffffffffffffffffffff0000000000000000000000000000000000000000166001600160a01b0383161790556040517f4f386975ea1c2f7cf1845b08bee00626fbb624ecad16254d63d9bb9ba86526de90620009939083906200145a565b7f000000000000000000000000000000000000000000000000000000000000000081565b6004546001600160a01b031681565b6006546001600160a01b031690565b6002546001600160a01b0316331462000d475760405162461bcd60e51b8152600401620004b890620015e9565b6001600160a01b038281166000908152600a60205260409081902080547fffffffffffffffffffffffff00000000000000000000000000000000000000001692841692909217909155517f360d77988e9d7232292cbbd29e6b03381c697d3dd022cbf68ce2ad4f962e13db9062000dc290849084906200146e565b60405180910390a15050565b6005546001600160a01b031690565b6002546001600160a01b0316331462000e0a5760405162461bcd60e51b8152600401620004b890620015e9565b6001600160a01b0391909116600090815260096020526040902080547fffffffffffffffffffffffffffffffffffffffffffffffffffffffffffffff0016911515919091179055565b6002546001600160a01b0316331462000e805760405162461bcd60e51b8152600401620004b890620015e9565b6001600160a01b03811662000ea95760405162461bcd60e51b8152600401620004b89062001657565b6007546001600160a01b038281169116141562000eda5760405162461bcd60e51b8152600401620004b89062001544565b600780547fffffffffffffffffffffffff0000000000000000000000000000000000000000166001600160a01b0383161790556040517f4a43ee60176d4fc191e384a77ee14eb01d46872ac0f7a1eacc4f65d03d3b881990620009939083906200145a565b6002546001600160a01b0316331462000f6c5760405162461bcd60e51b8152600401620004b890620015e9565b6001600160a01b03811662000f955760405162461bcd60e51b8152600401620004b89062001657565b6008546001600160a01b038281169116141562000fc65760405162461bcd60e51b8152600401620004b89062001544565b600880547fffffffffffffffffffffffff0000000000000000000000000000000000000000166001600160a01b0383161790556040517f8a95f7dc00ff6d8cd247fa890923a32049dfe68b14abce48ea67d4d50fd774c190620009939083906200145a565b6004546001600160a01b031690565b6002546001600160a01b03163314620010675760405162461bcd60e51b8152600401620004b890620015e9565b6001600160a01b038116620010905760405162461bcd60e51b8152600401620004b89062001657565b6004546001600160a01b0382811691161415620010c15760405162461bcd60e51b8152600401620004b89062001544565b600480547fffffffffffffffffffffffff0000000000000000000000000000000000000000166001600160a01b0383161790556040517f010444796a5a2a97780dbda60b888795c594cc841f49c2513bb0f66258c5789290620009939083906200145a565b6003546001600160a01b031681565b60608162001178575060408051808201909152600181527f3000000000000000000000000000000000000000000000000000000000000000602082015262001265565b8160005b81156200119257600101600a820491506200117c565b60608167ffffffffffffffff81118015620011ac57600080fd5b506040519080825280601f01601f191660200182016040528015620011d8576020820181803683370190505b5090507fffffffffffffffffffffffffffffffffffffffffffffffffffffffffffffffff82015b85156200125f57600a860660300160f81b828280600190039350815181106200122457fe5b60200101907effffffffffffffffffffffffffffffffffffffffffffffffffffffffffffff1916908160001a905350600a86049550620011ff565b50925050505b919050565b606082826040516020016200128192919062001427565b60405160208183030381529060405290505b92915050565b613c0280620016c283390190565b80356001600160a01b03811681146200129357600080fd5b600060208284031215620012d1578081fd5b620012dd8383620012a7565b9392505050565b60008060408385031215620012f7578081fd5b620013038484620012a7565b9150620013148460208501620012a7565b90509250929050565b6000806040838503121562001330578182fd5b6200133c8484620012a7565b91506020830135801515811462001351578182fd5b809150509250929050565b60008060006060848603121562001371578081fd5b6200137d8585620012a7565b95602085013595506040909401359392505050565b600060208284031215620013a4578081fd5b5035919050565b60008151808452620013c58160208601602086016200168e565b601f017fffffffffffffffffffffffffffffffffffffffffffffffffffffffffffffffe0169290920160200192915050565b60609190911b7fffffffffffffffffffffffffffffffffffffffff00000000000000000000000016815260140190565b600083516200143b8184602088016200168e565b835190830190620014518183602088016200168e565b01949350505050565b6001600160a01b0391909116815260200190565b6001600160a01b0392831681529116602082015260400190565b60006001600160a01b03808916835280881660208401525060c06040830152620014b660c0830187620013ab565b8281036060840152620014ca8187620013ab565b6080840195909552505060a00152949350505050565b6001600160a01b03929092168252602082015260400190565b901515815260200190565b90815260200190565b60208082526016908201527f43466163746f72793a205a45524f5f4144445245535300000000000000000000604082015260600190565b60208082526013908201527f43466163746f72793a2073616d65206164647200000000000000000000000000604082015260600190565b60208082526015908201527f43466163746f72793a20504149525f4558495354530000000000000000000000604082015260600190565b6020808252601a908201527f43466163746f72793a204661696c6564206f6e206465706c6f79000000000000604082015260600190565b60208082526015908201527f43466163746f72793a2021676f7665726e616e63650000000000000000000000604082015260600190565b60208082526018908201527f43466163746f72793a20494c4c4547414c5f414d4f554e540000000000000000604082015260600190565b60208082526013908201527f43466163746f72793a207a65726f206164647200000000000000000000000000604082015260600190565b60005b83811015620016ab57818101518382015260200162001691565b83811115620016bb576000848401525b5050505056fe60a06040526001600c553480156200001657600080fd5b50604080518082018252601081526f21b7a334ac102837b7b6102a37b5b2b760811b6020918201528151808301835260018152603160f81b9082015290514691620000cc917f8b73c3c69bb8fe3d512ecc4cf759cc79239f7b179b0ffacaa9a75d522b39400f917f70f1d8d3a2b874a116643bbbdb7e2937ce56e0359f9c3070aac2ec77a8354ccc917fc89efdaa54c0f20c7adf612882df0950f5a951637e0307cdcb4c672f298b8bc6918691309101620000f5565b60408051601f198184030181529190528051602090910120600355503360601b60805262000121565b9485526020850193909352604084019190915260608301526001600160a01b0316608082015260a00190565b60805160601c613aaa62000158600039806115a15280611b82528061204f52806125025280612b525280612d485250613aaa6000f3fe6080604052600436106102eb5760003560e01c806395d89b4111610184578063bc25cf77116100d6578063d385a3ad1161008a578063e5eac39011610064578063e5eac39014610787578063f22e2ae0146107a7578063fff6cae9146107bc576102f2565b8063d385a3ad14610727578063d505accf14610747578063dd62ed3e14610767576102f2565b8063bf36aac2116100bb578063bf36aac2146106dd578063c45a0155146106fd578063d21220a714610712576102f2565b8063bc25cf77146106bd578063be5b32f8146104ba576102f2565b8063a661dbda11610138578063ac931c5a11610112578063ac931c5a14610668578063b72bda4a14610688578063ba9a7a56146106a8576102f2565b8063a661dbda14610633578063a9059cbb14610648578063aaf07e9214610490576102f2565b80639c673c52116101695780639c673c52146105db5780639f44296a146105fb578063a1da4d241461061e576102f2565b806395d89b41146105a657806399f45e48146105bb576102f2565b8063313ce5671161023d5780634f6ec2dd116101f157806379c2c954116101cb57806379c2c9541461054f5780637ecebe00146105715780638a2ffb9614610591576102f2565b80634f6ec2dd146104fa5780635ad6bd301461050f57806370a082311461052f576102f2565b80633644e515116102225780633644e515146104a557806339818b66146104ba57806349a23da0146104da576102f2565b8063313ce5671461046e5780633298613114610490576102f2565b806318160ddd1161029f57806324334be81161027957806324334be81461041757806327fc84a31461043757806330adf81f14610459576102f2565b806318160ddd146103b55780631feb1886146103d757806323b872dd146103f7576102f2565b8063095ea7b3116102d0578063095ea7b3146103455780630dfe168114610372578063156e29f614610394576102f2565b806306fdde03146102f75780630902f1ac14610322576102f2565b366102f257005b600080fd5b34801561030357600080fd5b5061030c6107d1565b604051610319919061350f565b60405180910390f35b34801561032e57600080fd5b5061033761087d565b60405161031992919061394c565b34801561035157600080fd5b506103656103603660046131dc565b6108aa565b60405161031991906134a9565b34801561037e57600080fd5b506103876108c1565b60405161031991906133f5565b6103a76103a2366004613207565b6108d0565b60405161031992919061396d565b3480156103c157600080fd5b506103ca610c54565b60405161031991906134b4565b3480156103e357600080fd5b506103a76103f236600461328e565b610c5a565b34801561040357600080fd5b50610365610412366004613127565b610ed6565b34801561042357600080fd5b506103ca6104323660046132b1565b610f88565b61044a610445366004613057565b610fc6565b6040516103199392919061399a565b34801561046557600080fd5b506103ca61139b565b34801561047a57600080fd5b506104836113bf565b60405161031991906139fb565b34801561049c57600080fd5b506103ca6113c4565b3480156104b157600080fd5b506103ca6113cc565b3480156104c657600080fd5b506103ca6104d536600461325b565b6113d2565b3480156104e657600080fd5b506103ca6104f53660046132d2565b611410565b34801561050657600080fd5b506103ca6114d3565b34801561051b57600080fd5b506103a761052a36600461328e565b6114df565b34801561053b57600080fd5b506103ca61054a36600461301f565b611584565b34801561055b57600080fd5b5061056f61056a36600461308f565b611596565b005b34801561057d57600080fd5b506103ca61058c36600461301f565b61165a565b34801561059d57600080fd5b506103ca61166c565b3480156105b257600080fd5b5061030c611672565b3480156105c757600080fd5b506103ca6105d6366004613307565b6116eb565b3480156105e757600080fd5b506103a76105f636600461328e565b61179e565b61060e610609366004613057565b611832565b60405161031994939291906139b0565b34801561062a57600080fd5b506103a7611dac565b34801561063f57600080fd5b5061030c611db5565b34801561065457600080fd5b506103656106633660046131dc565b611dee565b34801561067457600080fd5b506103ca6106833660046132b1565b611dfb565b34801561069457600080fd5b506103ca6106a33660046132d2565b611e13565b3480156106b457600080fd5b506103ca611e49565b3480156106c957600080fd5b5061056f6106d836600461301f565b611e51565b3480156106e957600080fd5b506103a76106f836600461328e565b611f93565b34801561070957600080fd5b5061038761204d565b34801561071e57600080fd5b50610387612071565b34801561073357600080fd5b506103ca61074236600461328e565b612080565b34801561075357600080fd5b5061056f610762366004613167565b6120a0565b34801561077357600080fd5b506103ca610782366004613057565b61220f565b34801561079357600080fd5b506103a76107a236600461328e565b61222c565b3480156107b357600080fd5b506103ca6122f3565b3480156107c857600080fd5b5061056f6122f9565b6005805460408051602060026001851615610100027fffffffffffffffffffffffffffffffffffffffffffffffffffffffffffffffff0190941693909304601f810184900484028201840190925281815292918301828280156108755780601f1061084a57610100808354040283529160200191610875565b820191906000526020600020905b81548152906001019060200180831161085857829003601f168201915b505050505081565b6009546dffffffffffffffffffffffffffff808216926e0100000000000000000000000000009092041690565b60006108b733848461242e565b5060015b92915050565b6007546001600160a01b031681565b600080600c546001146108fe5760405162461bcd60e51b81526004016108f590613522565b60405180910390fd5b6000600c8190556007546008546001600160a01b03918216929116908061092361087d565b915091506000846001600160a01b03166370a08231306040518263ffffffff1660e01b815260040161095591906133f5565b60206040518083038186803b15801561096d57600080fd5b505afa158015610981573d6000803e3d6000fd5b505050506040513d601f19601f820116820180604052508101906109a59190613276565b90506000846001600160a01b03166370a08231306040518263ffffffff1660e01b81526004016109d591906133f5565b60206040518083038186803b1580156109ed57600080fd5b505afa158015610a01573d6000803e3d6000fd5b505050506040513d601f19601f82011682018060405250810190610a259190613276565b90506000610a43836dffffffffffffffffffffffffffff8716612496565b90506000610a61836dffffffffffffffffffffffffffff8716612496565b9050818c11158015610a735750808b11155b610a8f5760405162461bcd60e51b81526004016108f59061376e565b5050600b548a908a90610aa39082906124be565b600a54610ab19084906124be565b14610ace5760405162461bcd60e51b81526004016108f59061366c565b60004790506060338f8585604051602001610aec9493929190613433565b6040516020818303038152906040529050610b05612e87565b610b118a6001846124f8565b60808601526040850152602084018190528184526060840192909252600091610b51916dffffffffffffffffffffffffffff808e1692908d1691906116eb565b905060005460001415610b8c57610b76633b9aca00610b708884611dfb565b90612496565b9d50610b876000633b9aca00612632565b610b99565b610b968682611dfb565b9d505b50610bb29150610bab90508247612496565b3490612496565b995060008b11610bd45760405162461bcd60e51b81526004016108f5906137dc565b610bde8e8c612632565b610be885856126bf565b8915610bf857610bf8338b6127c5565b336001600160a01b03167f4c209b5fc8ad50758f13e2e1088ba56a560dff690a1c6fef26394f4c03821c4f8484604051610c3392919061396d565b60405180910390a25050505050505050506001600c81905550935093915050565b60005481565b6009548151602083015160009283928392610c9c926dffffffffffffffffffffffffffff808216936e01000000000000000000000000000090920416916116eb565b90506000610caa86836124be565b90506000610cd3610ccc87608001516305f5e10061249690919063ffffffff16565b83906124be565b9050610cf56305f5e100610cef83670de0b6b3a7640000612857565b90612857565b9350610d266305f5e100610cef600b54610cef670de0b6b3a7640000610cef600a54886124be90919063ffffffff16565b6009549095506dffffffffffffffffffffffffffff168411159150610df7905057600954845160208601516dffffffffffffffffffffffffffff909216840391600091610d7891610cef9085906124be565b9050610d848582612889565b6009549095506e01000000000000000000000000000090046dffffffffffffffffffffffffffff16851115610ddb576009546e01000000000000000000000000000090046dffffffffffffffffffffffffffff1694505b50506009546dffffffffffffffffffffffffffff169150610ece565b6009546e01000000000000000000000000000090046dffffffffffffffffffffffffffff16831115610ece57600954602085015185516e0100000000000000000000000000009092046dffffffffffffffffffffffffffff16850391600091610e6591610cef9085906124be565b9050610e718482612889565b6009549094506dffffffffffffffffffffffffffff16841115610ea4576009546dffffffffffffffffffffffffffff1693505b50506009546e01000000000000000000000000000090046dffffffffffffffffffffffffffff1692505b509250929050565b6001600160a01b03831660009081526002602090815260408083203384529091528120547fffffffffffffffffffffffffffffffffffffffffffffffffffffffffffffffff14610f73576001600160a01b0384166000908152600260209081526040808320338452909152902054610f4e9083612496565b6001600160a01b03851660009081526002602090815260408083203384529091529020555b610f7e8484846128ae565b5060019392505050565b600954600090610fbf906dffffffffffffffffffffffffffff808216916e01000000000000000000000000000090041685856116eb565b9392505050565b6000806000600c54600114610fed5760405162461bcd60e51b81526004016108f590613522565b6000600c8190556007546008546040516370a0823160e01b81526001600160a01b0392831693919092169183906370a082319061102e9030906004016133f5565b60206040518083038186803b15801561104657600080fd5b505afa15801561105a573d6000803e3d6000fd5b505050506040513d601f19601f8201168201806040525081019061107e9190613276565b90506000826001600160a01b03166370a08231306040518263ffffffff1660e01b81526004016110ae91906133f5565b60206040518083038186803b1580156110c657600080fd5b505afa1580156110da573d6000803e3d6000fd5b505050506040513d601f19601f820116820180604052508101906110fe9190613276565b306000908152600160209081526040918290205491519293509091479160609161112c91339186910161345c565b6040516020818303038152906040529050611145612e87565b611151876002846124f8565b608086015260408501526020840152825260608201526111718482610c5a565b909b5099506111879150610bab90508247612496565b96506000891180156111995750600088115b6111b55760405162461bcd60e51b81526004016108f5906137a5565b6111bf3083612952565b6111ca858c8b6129dc565b6111d5868b8a6129dc565b6040516370a0823160e01b81526001600160a01b038716906370a08231906112019030906004016133f5565b60206040518083038186803b15801561121957600080fd5b505afa15801561122d573d6000803e3d6000fd5b505050506040513d601f19601f820116820180604052508101906112519190613276565b6040516370a0823160e01b81529094506001600160a01b038616906370a08231906112809030906004016133f5565b60206040518083038186803b15801561129857600080fd5b505afa1580156112ac573d6000803e3d6000fd5b505050506040513d601f19601f820116820180604052508101906112d09190613276565b92506112dc84846126bf565b86156112ec576112ec33886127c5565b896001600160a01b0316336001600160a01b03167f3dd1df88dc92e2788892542d81f999d720a44b4c127065d45c128f4f59fdc373888b60405161133192919061345c565b60405180910390a38a6001600160a01b0316336001600160a01b03167f3dd1df88dc92e2788892542d81f999d720a44b4c127065d45c128f4f59fdc373878c60405161137e92919061345c565b60405180910390a35050505050506001600c819055509250925092565b7f6e71edae12b1b97f4d1f60370fef10105fa2faae0126114a169c64845d6126c981565b601281565b6305f5e10081565b60035481565b600954815160208301516000926108bb926dffffffffffffffffffffffffffff808316936e01000000000000000000000000000090930416916116eb565b600080548061142957670de0b6b3a764000091506114cb565b600061144684606001516305f5e10061249690919063ffffffff16565b9050600061146f6305f5e1006114698760000151896124be90919063ffffffff16565b906124be565b9050600061148e8361146988602001518b6124be90919063ffffffff16565b90506114c583610cef8860200151610cef88610cef6114b6888a61288990919063ffffffff16565b670de0b6b3a7640000906124be565b94505050505b509392505050565b670de0b6b3a764000081565b60008061154d61150084608001516305f5e10061249690919063ffffffff16565b610cef61151e86606001516305f5e10061249690919063ffffffff16565b610cef8760200151610cef6305f5e1006114696305f5e1006114698d600001518f6124be90919063ffffffff16565b9150826080015160001461157d5761157a6305f5e100610cef8560800151856124be90919063ffffffff16565b90505b9250929050565b60016020526000908152604090205481565b336001600160a01b037f000000000000000000000000000000000000000000000000000000000000000016146115de5760405162461bcd60e51b81526004016108f590613813565b600780546001600160a01b038089167fffffffffffffffffffffffff00000000000000000000000000000000000000009283161790925560088054928816929091169190911790558351611639906005906020870190612eb6565b50825161164d906006906020860190612eb6565b50600a55600b5550505050565b60046020526000908152604090205481565b600b5481565b6006805460408051602060026001851615610100027fffffffffffffffffffffffffffffffffffffffffffffffffffffffffffffffff0190941693909304601f810184900484028201840190925281815292918301828280156108755780601f1061084a57610100808354040283529160200191610875565b600080548061170457670de0b6b3a76400009150611795565b600b546000906117189061146989876124be565b90506000611735600b54611469888a6124be90919063ffffffff16565b9050600061174e87600a546124be90919063ffffffff16565b90506000611767600b54886124be90919063ffffffff16565b905061178e6117768383612889565b610cef670de0b6b3a764000061146989838a8a612889565b9550505050505b50949350505050565b6000806118056305f5e100610cef6305f5e100610cef8760000151610cef6117d78a608001516305f5e10061249690919063ffffffff16565b6114696117f58c606001516305f5e10061249690919063ffffffff16565b60208d0151611469908f906124be565b9150826080015160001461157d5761157a6305f5e100610cef8560800151876124be90919063ffffffff16565b600080600061183f612f34565b600c546001146118615760405162461bcd60e51b81526004016108f590613522565b6000600c8190556007546008546040516370a0823160e01b81526001600160a01b0392831693919092169183906370a08231906118a29030906004016133f5565b60206040518083038186803b1580156118ba57600080fd5b505afa1580156118ce573d6000803e3d6000fd5b505050506040513d601f19601f820116820180604052508101906118f29190613276565b90506000826001600160a01b03166370a08231306040518263ffffffff1660e01b815260040161192291906133f5565b60206040518083038186803b15801561193a57600080fd5b505afa15801561194e573d6000803e3d6000fd5b505050506040513d601f19601f820116820180604052508101906119729190613276565b90504760008061198061087d565b91509150856001600160a01b03168d6001600160a01b031614156119bf576119b8856dffffffffffffffffffffffffffff8416612496565b9a50611a0b565b866001600160a01b03168d6001600160a01b031614156119f3576119b8846dffffffffffffffffffffffffffff8316612496565b60405162461bcd60e51b81526004016108f590613737565b60008b11611a2b5760405162461bcd60e51b81526004016108f590613915565b6060338e8e8e604051602001611a449493929190613409565b6040516020818303038152906040529050611a5d612e87565b611a69886003846124f8565b608086015260408501526020840152825260608201526001600160a01b038f81169089161415611aa657611a9d8d8261179e565b8b529b50611acf565b886001600160a01b03168f6001600160a01b03161415611acf57611aca8d8261222c565b8b529b505b611adc610bab8647612496565b815160208c8101919091529091015160408b01529950505050506001600160a01b03848116908a1614801590611b245750826001600160a01b0316896001600160a01b031614155b611b405760405162461bcd60e51b81526004016108f5906135fe565b611b4b8a8a896129dc565b845115611c32576040517f80feb3980000000000000000000000000000000000000000000000000000000081526001600160a01b037f000000000000000000000000000000000000000000000000000000000000000016906380feb39890611bb79086906004016133f5565b60206040518083038186803b158015611bcf57600080fd5b505afa158015611be3573d6000803e3d6000fd5b505050506040513d601f19601f82011682018060405250810190611c07919061323b565b15611c1e578451611c19908590612b4e565b611c32565b8451611c2d9085908590612d15565b600085525b6040516370a0823160e01b81526001600160a01b038516906370a0823190611c5e9030906004016133f5565b60206040518083038186803b158015611c7657600080fd5b505afa158015611c8a573d6000803e3d6000fd5b505050506040513d601f19601f82011682018060405250810190611cae9190613276565b6040516370a0823160e01b81529092506001600160a01b038416906370a0823190611cdd9030906004016133f5565b60206040518083038186803b158015611cf557600080fd5b505afa158015611d09573d6000803e3d6000fd5b505050506040513d601f19601f82011682018060405250810190611d2d9190613276565b9050611d3982826126bf565b8515611d4957611d4933876127c5565b886001600160a01b0316336001600160a01b03167f053d794b2310b8d186a24ae24a65ee066983a52a6efa6bd3df09a7601a3cb4f38a8a8e604051611d909392919061397b565b60405180910390a350506001600c555093969295509093509150565b600a54600b5491565b6040518060400160405280601081526020017f436f46695820506f6f6c20546f6b656e0000000000000000000000000000000081525081565b60006108b73384846128ae565b6000610fbf82610cef85670de0b6b3a76400006124be565b6000805480611e2c57670de0b6b3a764000091506114cb565b600061144684606001516305f5e10061288990919063ffffffff16565b633b9aca0081565b600c54600114611e735760405162461bcd60e51b81526004016108f590613522565b6000600c556007546008546009546040516370a0823160e01b81526001600160a01b039384169390921691611f289184918691611f23916dffffffffffffffffffffffffffff9091169084906370a0823190611ed39030906004016133f5565b60206040518083038186803b158015611eeb57600080fd5b505afa158015611eff573d6000803e3d6000fd5b505050506040513d601f19601f82011682018060405250810190610b709190613276565b6129dc565b611f898184611f236009600e9054906101000a90046dffffffffffffffffffffffffffff166dffffffffffffffffffffffffffff16856001600160a01b03166370a08231306040518263ffffffff1660e01b8152600401611ed391906133f5565b50506001600c5550565b600080611fea611fb484608001516305f5e10061249690919063ffffffff16565b610cef6305f5e100610cef8760000151610cef6305f5e1006114696117f58c606001516305f5e10061288990919063ffffffff16565b9150826080015160001461157d5761157a6305f5e100610cef61201e86606001516305f5e10061288990919063ffffffff16565b610cef8760200151610cef89608001516114696305f5e1006114698d600001518d6124be90919063ffffffff16565b7f000000000000000000000000000000000000000000000000000000000000000081565b6008546001600160a01b031681565b60008061208c836113d2565b90506120988482611dfb565b949350505050565b428410156120c05760405162461bcd60e51b81526004016108f590613700565b6003546001600160a01b03881660009081526004602090815260408083208054600181019091559051929392612121927f6e71edae12b1b97f4d1f60370fef10105fa2faae0126114a169c64845d6126c9928d928d928d92918d91016134bd565b604051602081830303815290604052805190602001206040516020016121489291906133bf565b60405160208183030381529060405280519060200120905060006001828686866040516000815260200160405260405161218594939291906134f1565b6020604051602081039080840390855afa1580156121a7573d6000803e3d6000fd5b5050604051601f1901519150506001600160a01b038116158015906121dd5750886001600160a01b0316816001600160a01b0316145b6121f95760405162461bcd60e51b81526004016108f590613559565b61220489898961242e565b505050505050505050565b600260209081526000928352604080842090915290825290205481565b6000806122906305f5e100610cef61225586606001516305f5e10061288990919063ffffffff16565b610cef8760200151610cef61227b8a608001516305f5e10061249690919063ffffffff16565b8a51611469906305f5e1009082908f906124be565b9150826080015160001461157d5761157a6305f5e100610cef6122c486606001516305f5e10061288990919063ffffffff16565b610cef8760200151610cef89608001516114696305f5e1006114698d600001518f6124be90919063ffffffff16565b600a5481565b600c5460011461231b5760405162461bcd60e51b81526004016108f590613522565b6000600c556007546040516370a0823160e01b8152612427916001600160a01b0316906370a08231906123529030906004016133f5565b60206040518083038186803b15801561236a57600080fd5b505afa15801561237e573d6000803e3d6000fd5b505050506040513d601f19601f820116820180604052508101906123a29190613276565b6008546040516370a0823160e01b81526001600160a01b03909116906370a08231906123d29030906004016133f5565b60206040518083038186803b1580156123ea57600080fd5b505afa1580156123fe573d6000803e3d6000fd5b505050506040513d601f19601f820116820180604052508101906124229190613276565b6126bf565b6001600c55565b6001600160a01b0380841660008181526002602090815260408083209487168084529490915290819020849055517f8c5be1e5ebec7d5bd14f71427d1e84f3dd0314c0f7b2291e5b200ac8c7c3b925906124899085906134b4565b60405180910390a3505050565b6000828211156124b85760405162461bcd60e51b81526004016108f5906135c7565b50900390565b6000826124cd575060006108bb565b828202828482816124da57fe5b0414610fbf5760405162461bcd60e51b81526004016108f5906136a3565b60008060008060007f00000000000000000000000000000000000000000000000000000000000000006001600160a01b0316633018205f6040518163ffffffff1660e01b815260040160206040518083038186803b15801561255957600080fd5b505afa15801561256d573d6000803e3d6000fd5b505050506040513d601f19601f82011682018060405250810190612591919061303b565b6001600160a01b0316638dba9329348a8a60048111156125ad57fe5b8a6040518563ffffffff1660e01b81526004016125cc93929190613475565b60a0604051808303818588803b1580156125e557600080fd5b505af11580156125f9573d6000803e3d6000fd5b50505050506040513d601f19601f8201168201806040525081019061261e9190613338565b939c929b5090995097509095509350505050565b60005461263f9082612889565b60009081556001600160a01b0383168152600160205260409020546126649082612889565b6001600160a01b0383166000818152600160205260408082209390935591519091907fddf252ad1be2c89b69c2b068fc378daa952ba7f163c4a11628f55a4df523b3ef906126b39085906134b4565b60405180910390a35050565b6dffffffffffffffffffffffffffff82118015906126eb57506dffffffffffffffffffffffffffff8111155b6127075760405162461bcd60e51b81526004016108f5906138de565b600980547fffffffffffffffffffffffffffffffffffff0000000000000000000000000000166dffffffffffffffffffffffffffff848116919091177fffffffff0000000000000000000000000000ffffffffffffffffffffffffffff166e010000000000000000000000000000848316810291909117928390556040517f1c411e9a96e071241c2f21f7726b17ae89e3cab4c78be50e062b03a9fffbbad1936127b99381811693909104169061394c565b60405180910390a15050565b604080516000808252602082019092526001600160a01b0384169083906040516127ef91906133a3565b60006040518083038185875af1925050503d806000811461282c576040519150601f19603f3d011682016040523d82523d6000602084013e612831565b606091505b50509050806128525760405162461bcd60e51b81526004016108f59061384a565b505050565b60008082116128785760405162461bcd60e51b81526004016108f590613635565b81838161288157fe5b049392505050565b600082820183811015610fbf5760405162461bcd60e51b81526004016108f590613590565b6001600160a01b0383166000908152600160205260409020546128d19082612496565b6001600160a01b0380851660009081526001602052604080822093909355908416815220546129009082612889565b6001600160a01b0380841660008181526001602052604090819020939093559151908516907fddf252ad1be2c89b69c2b068fc378daa952ba7f163c4a11628f55a4df523b3ef906124899085906134b4565b6001600160a01b0382166000908152600160205260409020546129759082612496565b6001600160a01b0383166000908152600160205260408120919091555461299c9082612496565b60009081556040516001600160a01b038416907fddf252ad1be2c89b69c2b068fc378daa952ba7f163c4a11628f55a4df523b3ef906126b39085906134b4565b604080518082018252601981527f7472616e7366657228616464726573732c75696e743235362900000000000000602090910152516000906060906001600160a01b038616907fa9059cbb2ab09eb219583f4a59a5d0623ade346d962bcd4e46b11da047c9049b90612a54908790879060240161345c565b60408051601f198184030181529181526020820180517bffffffffffffffffffffffffffffffffffffffffffffffffffffffff167fffffffff00000000000000000000000000000000000000000000000000000000909416939093179092529051612abf91906133a3565b6000604051808303816000865af19150503d8060008114612afc576040519150601f19603f3d011682016040523d82523d6000602084013e612b01565b606091505b5091509150818015612b2b575080511580612b2b575080806020019051810190612b2b919061323b565b612b475760405162461bcd60e51b81526004016108f5906138a7565b5050505050565b60007f00000000000000000000000000000000000000000000000000000000000000006001600160a01b031663e8a353926040518163ffffffff1660e01b815260040160206040518083038186803b158015612ba957600080fd5b505afa158015612bbd573d6000803e3d6000fd5b505050506040513d601f19601f82011682018060405250810190612be1919061303b565b90506001600160a01b038116612bf75750612d11565b6040516370a0823160e01b81526000906001600160a01b038516906370a0823190612c269030906004016133f5565b60206040518083038186803b158015612c3e57600080fd5b505afa158015612c52573d6000803e3d6000fd5b505050506040513d601f19601f82011682018060405250810190612c769190613276565b905080831115612c84578092505b6040517f2e1a7d4d0000000000000000000000000000000000000000000000000000000081526001600160a01b03851690632e1a7d4d90612cc99086906004016134b4565b600060405180830381600087803b158015612ce357600080fd5b505af1158015612cf7573d6000803e3d6000fd5b505050506000831115612d0e57612d0e82846127c5565b50505b5050565b6040517f72b8cbcc0000000000000000000000000000000000000000000000000000000081526000906001600160a01b037f000000000000000000000000000000000000000000000000000000000000000016906372b8cbcc90612d7d9086906004016133f5565b60206040518083038186803b158015612d9557600080fd5b505afa158015612da9573d6000803e3d6000fd5b505050506040513d601f19601f82011682018060405250810190612dcd919061303b565b90506001600160a01b038116612de35750612852565b612d0e8482846040516370a0823160e01b81526000906001600160a01b038516906370a0823190612e189030906004016133f5565b60206040518083038186803b158015612e3057600080fd5b505afa158015612e44573d6000803e3d6000fd5b505050506040513d601f19601f82011682018060405250810190612e689190613276565b905080821115612e76578091505b8115612d0e57612d0e8484846129dc565b6040518060a0016040528060008152602001600081526020016000815260200160008152602001600081525090565b828054600181600116156101000203166002900490600052602060002090601f016020900481019282601f10612ef757805160ff1916838001178555612f24565b82800160010185558215612f24579182015b82811115612f24578251825591602001919060010190612f09565b50612f30929150612f52565b5090565b6040518060a001604052806005906020820280368337509192915050565b5b80821115612f305760008155600101612f53565b600082601f830112612f77578081fd5b813567ffffffffffffffff811115612f8d578182fd5b612fa06020601f19601f84011601613a09565b9150808252836020828501011115612fb757600080fd5b8060208401602084013760009082016020015292915050565b600060a08284031215612fe1578081fd5b612feb60a0613a09565b9050813581526020820135602082015260408201356040820152606082013560608201526080820135608082015292915050565b600060208284031215613030578081fd5b8135610fbf81613a5c565b60006020828403121561304c578081fd5b8151610fbf81613a5c565b60008060408385031215613069578081fd5b823561307481613a5c565b9150602083013561308481613a5c565b809150509250929050565b60008060008060008060c087890312156130a7578182fd5b86356130b281613a5c565b955060208701356130c281613a5c565b9450604087013567ffffffffffffffff808211156130de578384fd5b6130ea8a838b01612f67565b955060608901359150808211156130ff578384fd5b5061310c89828a01612f67565b9350506080870135915060a087013590509295509295509295565b60008060006060848603121561313b578283fd5b833561314681613a5c565b9250602084013561315681613a5c565b929592945050506040919091013590565b600080600080600080600060e0888a031215613181578081fd5b873561318c81613a5c565b9650602088013561319c81613a5c565b95506040880135945060608801359350608088013560ff811681146131bf578182fd5b9699959850939692959460a0840135945060c09093013592915050565b600080604083850312156131ee578182fd5b82356131f981613a5c565b946020939093013593505050565b60008060006060848603121561321b578283fd5b833561322681613a5c565b95602085013595506040909401359392505050565b60006020828403121561324c578081fd5b81518015158114610fbf578182fd5b600060a0828403121561326c578081fd5b610fbf8383612fd0565b600060208284031215613287578081fd5b5051919050565b60008060c083850312156132a0578182fd5b8235915061157a8460208501612fd0565b600080604083850312156132c3578182fd5b50508035926020909101359150565b600080600060e084860312156132e6578081fd5b83359250602084013591506132fe8560408601612fd0565b90509250925092565b6000806000806080858703121561331c578182fd5b5050823594602084013594506040840135936060013592509050565b600080600080600060a0868803121561334f578283fd5b5050835160208501516040860151606087015160809097015192989197509594509092509050565b6000815180845261338f816020860160208601613a30565b601f01601f19169290920160200192915050565b600082516133b5818460208701613a30565b9190910192915050565b7f190100000000000000000000000000000000000000000000000000000000000081526002810192909252602282015260420190565b6001600160a01b0391909116815260200190565b6001600160a01b039485168152928416602084015292166040820152606081019190915260800190565b6001600160a01b0394851681529290931660208301526040820152606081019190915260800190565b6001600160a01b03929092168252602082015260400190565b60006001600160a01b038516825260ff84166020830152606060408301526134a06060830184613377565b95945050505050565b901515815260200190565b90815260200190565b9586526001600160a01b0394851660208701529290931660408501526060840152608083019190915260a082015260c00190565b93845260ff9290921660208401526040830152606082015260800190565b600060208252610fbf6020830184613377565b6020808252600d908201527f43506169723a204c4f434b454400000000000000000000000000000000000000604082015260600190565b60208082526019908201527f4345524332303a20494e56414c49445f5349474e415455524500000000000000604082015260600190565b6020808252601b908201527f536166654d6174683a206164646974696f6e206f766572666c6f770000000000604082015260600190565b6020808252601e908201527f536166654d6174683a207375627472616374696f6e206f766572666c6f770000604082015260600190565b60208082526011908201527f43506169723a20494e56414c49445f544f000000000000000000000000000000604082015260600190565b6020808252601a908201527f536166654d6174683a206469766973696f6e206279207a65726f000000000000604082015260600190565b6020808252601a908201527f43506169723a20696e76616c696420617373657420726174696f000000000000604082015260600190565b60208082526021908201527f536166654d6174683a206d756c7469706c69636174696f6e206f766572666c6f60408201527f7700000000000000000000000000000000000000000000000000000000000000606082015260800190565b6020808252600f908201527f4345524332303a20455850495245440000000000000000000000000000000000604082015260600190565b60208082526015908201527f43506169723a2077726f6e67206f7574546f6b656e0000000000000000000000604082015260600190565b60208082526016908201527f43506169723a20696c6c6567616c20616d6d6f756e7400000000000000000000604082015260600190565b6020808252601d908201527f43506169723a2053484f52545f4c49515549444954595f4255524e4544000000604082015260600190565b6020808252601d908201527f43506169723a2053484f52545f4c49515549444954595f4d494e544544000000604082015260600190565b60208082526010908201527f43506169723a20464f5242494444454e00000000000000000000000000000000604082015260600190565b60208082526023908201527f5472616e7366657248656c7065723a204554485f5452414e534645525f46414960408201527f4c45440000000000000000000000000000000000000000000000000000000000606082015260800190565b60208082526016908201527f43506169723a205452414e534645525f4641494c454400000000000000000000604082015260600190565b6020808252600f908201527f43506169723a204f564552464c4f570000000000000000000000000000000000604082015260600190565b60208082526015908201527f43506169723a2077726f6e6720616d6f756e74496e0000000000000000000000604082015260600190565b6dffffffffffffffffffffffffffff92831681529116602082015260400190565b918252602082015260400190565b92835260208301919091526001600160a01b0316604082015260600190565b9283526020830191909152604082015260600190565b60006101008201905085825260208581840152846040840152606083018460005b60058110156139ee578151835291830191908301906001016139d1565b5050505095945050505050565b60ff91909116815260200190565b60405181810167ffffffffffffffff81118282101715613a2857600080fd5b604052919050565b60005b83811015613a4b578181015183820152602001613a33565b83811115612d0e5750506000910152565b6001600160a01b0381168114613a7157600080fd5b5056fea2646970667358221220346f1b9fb6f949b734162a84bdbc9b75e8f405172395ec0886a49ed07d5c5fa664736f6c634300060c0033a26469706673582212206a5e8c987f0c173c5a6068d45d40d7fd5eff7f4b4baa143ab1d9001cd8e5b53264736f6c634300060c0033",
  "immutableReferences": {
    "3234": [
      {
        "length": 32,
        "start": 1805
      },
      {
        "length": 32,
        "start": 3290
      }
    ]
  },
  "source": "// SPDX-License-Identifier: GPL-3.0-or-later\npragma experimental ABIEncoderV2;\npragma solidity 0.6.12;\n\nimport \"./interface/ICoFiXV2Factory.sol\";\nimport \"./interface/ICoFiXV2Controller.sol\";\nimport \"./CoFiXV2Pair.sol\";\nimport \"./interface/ICoFiXV2Pair.sol\";\n\n// Factory of CoFiX to create new CoFiXPair contract when new pair is created, managed by governance\n// Governance role of this contract should be the `Timelock` contract, which is further managed by a multisig contract\ncontract CoFiXV2Factory is ICoFiXV2Factory {\n\n    string constant internal pairNamePrefix = \"XToken \";\n    string constant internal pairSymbolPrefix = \"XT-\";\n\n    mapping(address => address) public override getPair;\n    address[] public override allPairs;\n    address public immutable WETH;\n    address public governance;\n    address public controller;\n    address public feeReceiver;\n\n    address public vaultForLP;\n    address public vaultForTrader;\n    address public vaultForCNode;\n\n    address public dao;\n\n    mapping (address => bool) public override getTradeMiningStatus; // token -> bool\n    mapping (address => address) public override getFeeVaultForLP; // token -> fee vault pool\n\n    modifier onlyGovernance() {\n        require(msg.sender == governance, \"CFactory: !governance\");\n        _;\n    }\n\n    constructor(address _WETH) public {\n        governance = msg.sender;\n        feeReceiver = msg.sender; // set feeReceiver to a feeReceiver contract later\n        WETH = _WETH;\n    }\n\n    function allPairsLength() external override view returns (uint256) {\n        return allPairs.length;\n    }\n\n    function pairCodeHash() external pure returns (bytes32) {\n        return keccak256(type(CoFiXV2Pair).creationCode);\n    }\n\n    function createPair(address token, uint256 initToken0Amount, uint256 initToken1Amount) external override onlyGovernance returns (address pair) {\n        require(token != address(0), 'CFactory: ZERO_ADDRESS');\n        require(getPair[token] == address(0), 'CFactory: PAIR_EXISTS');\n        require(initToken0Amount > 0 && initToken1Amount > 0, \"CFactory: ILLEGAL_AMOUNT\");\n\n        bytes memory bytecode = type(CoFiXV2Pair).creationCode;\n        bytes32 salt = keccak256(abi.encodePacked(token));\n        assembly {\n            pair := create2(0, add(bytecode, 32), mload(bytecode), salt)\n        }\n        require(pair != address(0), \"CFactory: Failed on deploy\");\n\n        getPair[token] = pair;\n        allPairs.push(pair);\n\n        uint256 pairLen = allPairs.length;\n        string memory _idx = uint2str(pairLen);\n        string memory _name = append(pairNamePrefix, _idx);\n        string memory _symbol = append(pairSymbolPrefix, _idx);\n        ICoFiXV2Pair(pair).initialize(WETH, token, _name, _symbol, initToken0Amount, initToken1Amount);\n\n        ICoFiXV2Controller(controller).addCaller(pair);\n        emit PairCreated(token, pair, pairLen);\n    }\n\n    function setGovernance(address _new) external override onlyGovernance {\n        require(_new != address(0), \"CFactory: zero addr\");\n        require(_new != governance, \"CFactory: same addr\");\n        governance = _new;\n        emit NewGovernance(_new);\n    }\n    \n    function setController(address _new) external override onlyGovernance {\n        require(_new != address(0), \"CFactory: zero addr\");\n        require(_new != controller, \"CFactory: same addr\");\n        controller = _new;\n        emit NewController(_new);\n    }\n\n    function setFeeReceiver(address _new) external override onlyGovernance {\n        require(_new != address(0), \"CFactory: zero addr\");\n        require(_new != feeReceiver, \"CFactory: same addr\");\n        feeReceiver = _new;\n        emit NewFeeReceiver(_new);\n    }\n\n    function setFeeVaultForLP(address token, address feeVault) external override onlyGovernance {\n        getFeeVaultForLP[token] = feeVault;\n        emit NewFeeVaultForLP(token, feeVault);\n    }\n\n    function setVaultForLP(address _new) external override onlyGovernance {\n        require(_new != address(0), \"CFactory: zero addr\");\n        require(_new != vaultForLP, \"CFactory: same addr\");\n        vaultForLP = _new;\n        emit NewVaultForLP(_new);\n    }\n\n    function setVaultForTrader(address _new) external override onlyGovernance {\n        require(_new != address(0), \"CFactory: zero addr\");\n        require(_new != vaultForTrader, \"CFactory: same addr\");\n        vaultForTrader = _new;\n        emit NewVaultForTrader(_new);\n    }\n\n    function setVaultForCNode(address _new) external override onlyGovernance {\n        require(_new != address(0), \"CFactory: zero addr\");\n        require(_new != vaultForCNode, \"CFactory: same addr\");\n        vaultForCNode = _new;\n        emit NewVaultForCNode(_new);\n    }\n\n    function setDAO(address _new) external override onlyGovernance {\n        require(_new != address(0), \"CFactory: zero addr\");\n        require(_new != dao, \"CFactory: same addr\");\n        dao = _new;\n        emit NewDAO(_new);\n    }\n\n    function setTradeMiningStatus(address token, bool status) external override onlyGovernance {\n        getTradeMiningStatus[token] = status;\n    }\n\n    function getController() external view override returns (address) {\n        return controller;\n    }\n\n    function getFeeReceiver() external view override returns (address) {\n        return feeReceiver;\n    }\n\n    function getVaultForLP() external view override returns (address) {\n        return vaultForLP;\n    }\n\n    function getVaultForTrader() external view override returns (address) {\n        return vaultForTrader;\n    }\n\n    function getVaultForCNode() external view override returns (address) {\n        return vaultForCNode;\n    }\n\n    function getDAO() external view override returns (address) {\n        return dao;\n    }\n\n    // internal helpers\n\n    function append(string memory a, string memory b) internal pure returns (string memory) {\n        return string(abi.encodePacked(a, b));\n    }\n\n    function uint2str(uint _i) internal pure returns (string memory) {\n        if (_i == 0) {\n            return \"0\";\n        }\n        uint j = _i;\n        uint len;\n        while (j != 0) {\n            len++;\n            j /= 10;\n        }\n        bytes memory bstr = new bytes(len);\n        uint k = len - 1;\n        while (_i != 0) {\n            bstr[k--] = byte(uint8(48 + _i % 10));\n            _i /= 10;\n        }\n        return string(bstr);\n    }\n}\n",
  "sourcePath": "/Users/lixiansheng/Downloads/cofix2/contracts/CoFiXV2Factory.sol",
  "compiler": {
    "name": "solc",
    "version": "0.6.12+commit.27d51765.Emscripten.clang"
  },
  "schemaVersion": "3.3.3",
  "updatedAt": "2021-05-14T05:54:34.486Z",
  "devdoc": {
    "kind": "dev",
    "methods": {
      "createPair(address,uint256,uint256)": {
        "details": "Create a new token pair for trading",
        "params": {
          "initToken0Amount": "the initial asset ratio (initToken0Amount:initToken1Amount)",
          "initToken1Amount": "the initial asset ratio (initToken0Amount:initToken1Amount)",
          "token": "the address of token to trade"
        },
        "returns": {
          "pair": "the address of new token pair"
        }
      }
    },
    "version": 1
  },
  "userdoc": {
    "kind": "user",
    "methods": {},
    "version": 1
  }
}