{
  "contractName": "CoFiXERC20",
  "abi": [
    {
      "inputs": [],
      "stateMutability": "nonpayable",
      "type": "constructor"
    },
    {
      "anonymous": false,
      "inputs": [
        {
          "indexed": true,
          "internalType": "address",
          "name": "owner",
          "type": "address"
        },
        {
          "indexed": true,
          "internalType": "address",
          "name": "spender",
          "type": "address"
        },
        {
          "indexed": false,
          "internalType": "uint256",
          "name": "value",
          "type": "uint256"
        }
      ],
      "name": "Approval",
      "type": "event"
    },
    {
      "anonymous": false,
      "inputs": [
        {
          "indexed": true,
          "internalType": "address",
          "name": "from",
          "type": "address"
        },
        {
          "indexed": true,
          "internalType": "address",
          "name": "to",
          "type": "address"
        },
        {
          "indexed": false,
          "internalType": "uint256",
          "name": "value",
          "type": "uint256"
        }
      ],
      "name": "Transfer",
      "type": "event"
    },
    {
      "inputs": [],
      "name": "DOMAIN_SEPARATOR",
      "outputs": [
        {
          "internalType": "bytes32",
          "name": "",
          "type": "bytes32"
        }
      ],
      "stateMutability": "view",
      "type": "function"
    },
    {
      "inputs": [],
      "name": "PERMIT_TYPEHASH",
      "outputs": [
        {
          "internalType": "bytes32",
          "name": "",
          "type": "bytes32"
        }
      ],
      "stateMutability": "view",
      "type": "function"
    },
    {
      "inputs": [
        {
          "internalType": "address",
          "name": "",
          "type": "address"
        },
        {
          "internalType": "address",
          "name": "",
          "type": "address"
        }
      ],
      "name": "allowance",
      "outputs": [
        {
          "internalType": "uint256",
          "name": "",
          "type": "uint256"
        }
      ],
      "stateMutability": "view",
      "type": "function"
    },
    {
      "inputs": [
        {
          "internalType": "address",
          "name": "",
          "type": "address"
        }
      ],
      "name": "balanceOf",
      "outputs": [
        {
          "internalType": "uint256",
          "name": "",
          "type": "uint256"
        }
      ],
      "stateMutability": "view",
      "type": "function"
    },
    {
      "inputs": [],
      "name": "decimals",
      "outputs": [
        {
          "internalType": "uint8",
          "name": "",
          "type": "uint8"
        }
      ],
      "stateMutability": "view",
      "type": "function"
    },
    {
      "inputs": [],
      "name": "nameForDomain",
      "outputs": [
        {
          "internalType": "string",
          "name": "",
          "type": "string"
        }
      ],
      "stateMutability": "view",
      "type": "function"
    },
    {
      "inputs": [
        {
          "internalType": "address",
          "name": "",
          "type": "address"
        }
      ],
      "name": "nonces",
      "outputs": [
        {
          "internalType": "uint256",
          "name": "",
          "type": "uint256"
        }
      ],
      "stateMutability": "view",
      "type": "function"
    },
    {
      "inputs": [],
      "name": "totalSupply",
      "outputs": [
        {
          "internalType": "uint256",
          "name": "",
          "type": "uint256"
        }
      ],
      "stateMutability": "view",
      "type": "function"
    },
    {
      "inputs": [
        {
          "internalType": "address",
          "name": "spender",
          "type": "address"
        },
        {
          "internalType": "uint256",
          "name": "value",
          "type": "uint256"
        }
      ],
      "name": "approve",
      "outputs": [
        {
          "internalType": "bool",
          "name": "",
          "type": "bool"
        }
      ],
      "stateMutability": "nonpayable",
      "type": "function"
    },
    {
      "inputs": [
        {
          "internalType": "address",
          "name": "to",
          "type": "address"
        },
        {
          "internalType": "uint256",
          "name": "value",
          "type": "uint256"
        }
      ],
      "name": "transfer",
      "outputs": [
        {
          "internalType": "bool",
          "name": "",
          "type": "bool"
        }
      ],
      "stateMutability": "nonpayable",
      "type": "function"
    },
    {
      "inputs": [
        {
          "internalType": "address",
          "name": "from",
          "type": "address"
        },
        {
          "internalType": "address",
          "name": "to",
          "type": "address"
        },
        {
          "internalType": "uint256",
          "name": "value",
          "type": "uint256"
        }
      ],
      "name": "transferFrom",
      "outputs": [
        {
          "internalType": "bool",
          "name": "",
          "type": "bool"
        }
      ],
      "stateMutability": "nonpayable",
      "type": "function"
    },
    {
      "inputs": [
        {
          "internalType": "address",
          "name": "owner",
          "type": "address"
        },
        {
          "internalType": "address",
          "name": "spender",
          "type": "address"
        },
        {
          "internalType": "uint256",
          "name": "value",
          "type": "uint256"
        },
        {
          "internalType": "uint256",
          "name": "deadline",
          "type": "uint256"
        },
        {
          "internalType": "uint8",
          "name": "v",
          "type": "uint8"
        },
        {
          "internalType": "bytes32",
          "name": "r",
          "type": "bytes32"
        },
        {
          "internalType": "bytes32",
          "name": "s",
          "type": "bytes32"
        }
      ],
      "name": "permit",
      "outputs": [],
      "stateMutability": "nonpayable",
      "type": "function"
    }
  ],
  "bytecode": "0x608060405234801561001057600080fd5b50604080518082018252601081526f21b7a334ac102837b7b6102a37b5b2b760811b6020918201528151808301835260018152603160f81b90820152905146916100c4917f8b73c3c69bb8fe3d512ecc4cf759cc79239f7b179b0ffacaa9a75d522b39400f917f70f1d8d3a2b874a116643bbbdb7e2937ce56e0359f9c3070aac2ec77a8354ccc917fc89efdaa54c0f20c7adf612882df0950f5a951637e0307cdcb4c672f298b8bc69186913091016100e5565b60408051601f19818403018152919052805160209091012060035550610111565b9485526020850193909352604084019190915260608301526001600160a01b0316608082015260a00190565b610ae6806101206000396000f3fe608060405234801561001057600080fd5b50600436106100d45760003560e01c806370a0823111610081578063a9059cbb1161005b578063a9059cbb1461018a578063d505accf1461019d578063dd62ed3e146101b2576100d4565b806370a082311461014f5780637ecebe0014610162578063a661dbda14610175576100d4565b806330adf81f116100b257806330adf81f1461012a578063313ce567146101325780633644e51514610147576100d4565b8063095ea7b3146100d957806318160ddd1461010257806323b872dd14610117575b600080fd5b6100ec6100e736600461085d565b6101c5565b6040516100f991906108bd565b60405180910390f35b61010a6101dc565b6040516100f991906108c8565b6100ec6101253660046107aa565b6101e2565b61010a6102bb565b61013a6102df565b6040516100f99190610a7d565b61010a6102e4565b61010a61015d36600461075b565b6102ea565b61010a61017036600461075b565b6102fc565b61017d61030e565b6040516100f99190610930565b6100ec61019836600461085d565b610347565b6101b06101ab3660046107ea565b610354565b005b61010a6101c0366004610776565b610552565b60006101d233848461056f565b5060015b92915050565b60005481565b73ffffffffffffffffffffffffffffffffffffffff831660009081526002602090815260408083203384529091528120547fffffffffffffffffffffffffffffffffffffffffffffffffffffffffffffffff146102a65773ffffffffffffffffffffffffffffffffffffffff8416600090815260026020908152604080832033845290915290205461027490836105e4565b73ffffffffffffffffffffffffffffffffffffffff851660009081526002602090815260408083203384529091529020555b6102b1848484610626565b5060019392505050565b7f6e71edae12b1b97f4d1f60370fef10105fa2faae0126114a169c64845d6126c981565b601281565b60035481565b60016020526000908152604090205481565b60046020526000908152604090205481565b6040518060400160405280601081526020017f436f46695820506f6f6c20546f6b656e0000000000000000000000000000000081525081565b60006101d2338484610626565b42841015610397576040517f08c379a000000000000000000000000000000000000000000000000000000000815260040161038e90610a46565b60405180910390fd5b60035473ffffffffffffffffffffffffffffffffffffffff881660009081526004602090815260408083208054600181019091559051929392610405927f6e71edae12b1b97f4d1f60370fef10105fa2faae0126114a169c64845d6126c9928d928d928d92918d91016108d1565b6040516020818303038152906040528051906020012060405160200161042c929190610887565b6040516020818303038152906040528051906020012090506000600182868686604051600081526020016040526040516104699493929190610912565b6020604051602081039080840390855afa15801561048b573d6000803e3d6000fd5b50506040517fffffffffffffffffffffffffffffffffffffffffffffffffffffffffffffffe0015191505073ffffffffffffffffffffffffffffffffffffffff81161580159061050657508873ffffffffffffffffffffffffffffffffffffffff168173ffffffffffffffffffffffffffffffffffffffff16145b61053c576040517f08c379a000000000000000000000000000000000000000000000000000000000815260040161038e906109a1565b61054789898961056f565b505050505050505050565b600260209081526000928352604080842090915290825290205481565b73ffffffffffffffffffffffffffffffffffffffff80841660008181526002602090815260408083209487168084529490915290819020849055517f8c5be1e5ebec7d5bd14f71427d1e84f3dd0314c0f7b2291e5b200ac8c7c3b925906105d79085906108c8565b60405180910390a3505050565b600082821115610620576040517f08c379a000000000000000000000000000000000000000000000000000000000815260040161038e90610a0f565b50900390565b73ffffffffffffffffffffffffffffffffffffffff831660009081526001602052604090205461065690826105e4565b73ffffffffffffffffffffffffffffffffffffffff808516600090815260016020526040808220939093559084168152205461069290826106f1565b73ffffffffffffffffffffffffffffffffffffffff80841660008181526001602052604090819020939093559151908516907fddf252ad1be2c89b69c2b068fc378daa952ba7f163c4a11628f55a4df523b3ef906105d79085906108c8565b600082820183811015610730576040517f08c379a000000000000000000000000000000000000000000000000000000000815260040161038e906109d8565b9392505050565b803573ffffffffffffffffffffffffffffffffffffffff811681146101d657600080fd5b60006020828403121561076c578081fd5b6107308383610737565b60008060408385031215610788578081fd5b6107928484610737565b91506107a18460208501610737565b90509250929050565b6000806000606084860312156107be578081fd5b83356107c981610a8b565b925060208401356107d981610a8b565b929592945050506040919091013590565b600080600080600080600060e0888a031215610804578283fd5b61080e8989610737565b965061081d8960208a01610737565b95506040880135945060608801359350608088013560ff81168114610840578384fd5b9699959850939692959460a0840135945060c09093013592915050565b6000806040838503121561086f578182fd5b6108798484610737565b946020939093013593505050565b7f190100000000000000000000000000000000000000000000000000000000000081526002810192909252602282015260420190565b901515815260200190565b90815260200190565b95865273ffffffffffffffffffffffffffffffffffffffff94851660208701529290931660408501526060840152608083019190915260a082015260c00190565b93845260ff9290921660208401526040830152606082015260800190565b6000602080835283518082850152825b8181101561095c57858101830151858201604001528201610940565b8181111561096d5783604083870101525b50601f017fffffffffffffffffffffffffffffffffffffffffffffffffffffffffffffffe016929092016040019392505050565b60208082526019908201527f4345524332303a20494e56414c49445f5349474e415455524500000000000000604082015260600190565b6020808252601b908201527f536166654d6174683a206164646974696f6e206f766572666c6f770000000000604082015260600190565b6020808252601e908201527f536166654d6174683a207375627472616374696f6e206f766572666c6f770000604082015260600190565b6020808252600f908201527f4345524332303a20455850495245440000000000000000000000000000000000604082015260600190565b60ff91909116815260200190565b73ffffffffffffffffffffffffffffffffffffffff81168114610aad57600080fd5b5056fea2646970667358221220eb46ca82a5674ca837e2027783ede18d9f693657c6df3d54070d82d17baf4cea64736f6c634300060c0033",
  "immutableReferences": {},
  "source": "// SPDX-License-Identifier: GPL-3.0-or-later\n\npragma experimental ABIEncoderV2;\n\npragma solidity 0.6.12;\n\nimport \"./interface/ICoFiXERC20.sol\";\nimport \"@openzeppelin/contracts/math/SafeMath.sol\";\n\n// ERC20 token implementation, inherited by CoFiXPair contract, no owner or governance\ncontract CoFiXERC20 is ICoFiXERC20 {\n    using SafeMath for uint;\n\n    string public constant nameForDomain = 'CoFiX Pool Token';\n    uint8 public override constant decimals = 18;\n    uint  public override totalSupply;\n    mapping(address => uint) public override balanceOf;\n    mapping(address => mapping(address => uint)) public override allowance;\n\n    bytes32 public override DOMAIN_SEPARATOR;\n    // keccak256(\"Permit(address owner,address spender,uint256 value,uint256 nonce,uint256 deadline)\");\n    bytes32 public override constant PERMIT_TYPEHASH = 0x6e71edae12b1b97f4d1f60370fef10105fa2faae0126114a169c64845d6126c9;\n    mapping(address => uint) public override nonces;\n\n    event Approval(address indexed owner, address indexed spender, uint value);\n    event Transfer(address indexed from, address indexed to, uint value);\n\n    constructor() public {\n        uint chainId;\n        assembly {\n            chainId := chainid()\n        }\n        DOMAIN_SEPARATOR = keccak256(\n            abi.encode(\n                keccak256('EIP712Domain(string name,string version,uint256 chainId,address verifyingContract)'),\n                keccak256(bytes(nameForDomain)),\n                keccak256(bytes('1')),\n                chainId,\n                address(this)\n            )\n        );\n    }\n\n    function _mint(address to, uint value) internal {\n        totalSupply = totalSupply.add(value);\n        balanceOf[to] = balanceOf[to].add(value);\n        emit Transfer(address(0), to, value);\n    }\n\n    function _burn(address from, uint value) internal {\n        balanceOf[from] = balanceOf[from].sub(value);\n        totalSupply = totalSupply.sub(value);\n        emit Transfer(from, address(0), value);\n    }\n\n    function _approve(address owner, address spender, uint value) private {\n        allowance[owner][spender] = value;\n        emit Approval(owner, spender, value);\n    }\n\n    function _transfer(address from, address to, uint value) private {\n        balanceOf[from] = balanceOf[from].sub(value);\n        balanceOf[to] = balanceOf[to].add(value);\n        emit Transfer(from, to, value);\n    }\n\n    function approve(address spender, uint value) external override returns (bool) {\n        _approve(msg.sender, spender, value);\n        return true;\n    }\n\n    function transfer(address to, uint value) external override returns (bool) {\n        _transfer(msg.sender, to, value);\n        return true;\n    }\n\n    function transferFrom(address from, address to, uint value) external override returns (bool) {\n        if (allowance[from][msg.sender] != uint(-1)) {\n            allowance[from][msg.sender] = allowance[from][msg.sender].sub(value);\n        }\n        _transfer(from, to, value);\n        return true;\n    }\n\n    function permit(address owner, address spender, uint value, uint deadline, uint8 v, bytes32 r, bytes32 s) external override {\n        require(deadline >= block.timestamp, 'CERC20: EXPIRED');\n        bytes32 digest = keccak256(\n            abi.encodePacked(\n                '\\x19\\x01',\n                DOMAIN_SEPARATOR,\n                keccak256(abi.encode(PERMIT_TYPEHASH, owner, spender, value, nonces[owner]++, deadline))\n            )\n        );\n        address recoveredAddress = ecrecover(digest, v, r, s);\n        require(recoveredAddress != address(0) && recoveredAddress == owner, 'CERC20: INVALID_SIGNATURE');\n        _approve(owner, spender, value);\n    }\n}\n",
  "sourcePath": "/Users/lixiansheng/Downloads/CoFix/contracts/CoFiXERC20.sol",
  "compiler": {
    "name": "solc",
    "version": "0.6.12+commit.27d51765.Emscripten.clang"
  },
  "schemaVersion": "3.4.1",
  "updatedAt": "2021-05-11T03:07:09.737Z",
  "devdoc": {
    "kind": "dev",
    "methods": {},
    "version": 1
  },
  "userdoc": {
    "kind": "user",
    "methods": {},
    "version": 1
  }
}