{
  "contractName": "CoFiXController",
  "abi": [
    {
      "inputs": [
        {
          "internalType": "address",
          "name": "_voteFactory",
          "type": "address"
        },
        {
          "internalType": "address",
          "name": "_nest",
          "type": "address"
        },
        {
          "internalType": "address",
          "name": "_factory",
          "type": "address"
        },
        {
          "internalType": "address",
          "name": "_kTable",
          "type": "address"
        }
      ],
      "stateMutability": "nonpayable",
      "type": "constructor"
    },
    {
      "anonymous": false,
      "inputs": [
        {
          "indexed": false,
          "internalType": "int128",
          "name": "_gamma",
          "type": "int128"
        }
      ],
      "name": "NewGamma",
      "type": "event"
    },
    {
      "anonymous": false,
      "inputs": [
        {
          "indexed": false,
          "internalType": "address",
          "name": "_new",
          "type": "address"
        }
      ],
      "name": "NewGovernance",
      "type": "event"
    },
    {
      "anonymous": false,
      "inputs": [
        {
          "indexed": false,
          "internalType": "address",
          "name": "token",
          "type": "address"
        },
        {
          "indexed": false,
          "internalType": "int128",
          "name": "K",
          "type": "int128"
        },
        {
          "indexed": false,
          "internalType": "int128",
          "name": "sigma",
          "type": "int128"
        },
        {
          "indexed": false,
          "internalType": "uint256",
          "name": "T",
          "type": "uint256"
        },
        {
          "indexed": false,
          "internalType": "uint256",
          "name": "ethAmount",
          "type": "uint256"
        },
        {
          "indexed": false,
          "internalType": "uint256",
          "name": "erc20Amount",
          "type": "uint256"
        },
        {
          "indexed": false,
          "internalType": "uint256",
          "name": "blockNum",
          "type": "uint256"
        },
        {
          "indexed": false,
          "internalType": "uint256",
          "name": "tIdx",
          "type": "uint256"
        },
        {
          "indexed": false,
          "internalType": "uint256",
          "name": "sigmaIdx",
          "type": "uint256"
        },
        {
          "indexed": false,
          "internalType": "int128",
          "name": "K0",
          "type": "int128"
        }
      ],
      "name": "NewK",
      "type": "event"
    },
    {
      "anonymous": false,
      "inputs": [
        {
          "indexed": false,
          "internalType": "address",
          "name": "token",
          "type": "address"
        },
        {
          "indexed": false,
          "internalType": "uint32",
          "name": "k",
          "type": "uint32"
        }
      ],
      "name": "NewK",
      "type": "event"
    },
    {
      "anonymous": false,
      "inputs": [
        {
          "indexed": false,
          "internalType": "int128",
          "name": "maxK0",
          "type": "int128"
        }
      ],
      "name": "NewKLimit",
      "type": "event"
    },
    {
      "anonymous": false,
      "inputs": [
        {
          "indexed": false,
          "internalType": "uint256",
          "name": "_interval",
          "type": "uint256"
        }
      ],
      "name": "NewKRefreshInterval",
      "type": "event"
    },
    {
      "anonymous": false,
      "inputs": [
        {
          "indexed": false,
          "internalType": "address",
          "name": "_kTable",
          "type": "address"
        }
      ],
      "name": "NewKTable",
      "type": "event"
    },
    {
      "anonymous": false,
      "inputs": [
        {
          "indexed": false,
          "internalType": "address",
          "name": "_priceOracle",
          "type": "address"
        }
      ],
      "name": "NewOracle",
      "type": "event"
    },
    {
      "anonymous": false,
      "inputs": [
        {
          "indexed": false,
          "internalType": "address",
          "name": "token",
          "type": "address"
        },
        {
          "indexed": false,
          "internalType": "uint32",
          "name": "theta",
          "type": "uint32"
        }
      ],
      "name": "NewTheta",
      "type": "event"
    },
    {
      "anonymous": false,
      "inputs": [
        {
          "indexed": false,
          "internalType": "uint256",
          "name": "_timeSpan",
          "type": "uint256"
        }
      ],
      "name": "NewTimespan",
      "type": "event"
    },
    {
      "inputs": [],
      "name": "AONE",
      "outputs": [
        {
          "internalType": "uint256",
          "name": "",
          "type": "uint256"
        }
      ],
      "stateMutability": "view",
      "type": "function",
      "constant": true
    },
    {
      "inputs": [],
      "name": "DESTRUCTION_AMOUNT",
      "outputs": [
        {
          "internalType": "uint256",
          "name": "",
          "type": "uint256"
        }
      ],
      "stateMutability": "view",
      "type": "function",
      "constant": true
    },
    {
      "inputs": [],
      "name": "GAMMA",
      "outputs": [
        {
          "internalType": "int128",
          "name": "",
          "type": "int128"
        }
      ],
      "stateMutability": "view",
      "type": "function",
      "constant": true
    },
    {
      "inputs": [],
      "name": "K_BASE",
      "outputs": [
        {
          "internalType": "uint256",
          "name": "",
          "type": "uint256"
        }
      ],
      "stateMutability": "view",
      "type": "function",
      "constant": true
    },
    {
      "inputs": [],
      "name": "MAX_K0",
      "outputs": [
        {
          "internalType": "int128",
          "name": "",
          "type": "int128"
        }
      ],
      "stateMutability": "view",
      "type": "function",
      "constant": true
    },
    {
      "inputs": [],
      "name": "NAVPS_BASE",
      "outputs": [
        {
          "internalType": "uint256",
          "name": "",
          "type": "uint256"
        }
      ],
      "stateMutability": "view",
      "type": "function",
      "constant": true
    },
    {
      "inputs": [
        {
          "internalType": "address",
          "name": "",
          "type": "address"
        }
      ],
      "name": "callerAllowed",
      "outputs": [
        {
          "internalType": "bool",
          "name": "",
          "type": "bool"
        }
      ],
      "stateMutability": "view",
      "type": "function",
      "constant": true
    },
    {
      "inputs": [],
      "name": "factory",
      "outputs": [
        {
          "internalType": "address",
          "name": "",
          "type": "address"
        }
      ],
      "stateMutability": "view",
      "type": "function",
      "constant": true
    },
    {
      "inputs": [],
      "name": "governance",
      "outputs": [
        {
          "internalType": "address",
          "name": "",
          "type": "address"
        }
      ],
      "stateMutability": "view",
      "type": "function",
      "constant": true
    },
    {
      "inputs": [],
      "name": "kRefreshInterval",
      "outputs": [
        {
          "internalType": "uint256",
          "name": "",
          "type": "uint256"
        }
      ],
      "stateMutability": "view",
      "type": "function",
      "constant": true
    },
    {
      "inputs": [],
      "name": "kTable",
      "outputs": [
        {
          "internalType": "address",
          "name": "",
          "type": "address"
        }
      ],
      "stateMutability": "view",
      "type": "function",
      "constant": true
    },
    {
      "inputs": [],
      "name": "nestToken",
      "outputs": [
        {
          "internalType": "address",
          "name": "",
          "type": "address"
        }
      ],
      "stateMutability": "view",
      "type": "function",
      "constant": true
    },
    {
      "inputs": [],
      "name": "timespan",
      "outputs": [
        {
          "internalType": "uint256",
          "name": "",
          "type": "uint256"
        }
      ],
      "stateMutability": "view",
      "type": "function",
      "constant": true
    },
    {
      "inputs": [],
      "name": "voteFactory",
      "outputs": [
        {
          "internalType": "contract INest_3_VoteFactory",
          "name": "",
          "type": "address"
        }
      ],
      "stateMutability": "view",
      "type": "function",
      "constant": true
    },
    {
      "stateMutability": "payable",
      "type": "receive",
      "payable": true
    },
    {
      "inputs": [
        {
          "internalType": "address",
          "name": "_new",
          "type": "address"
        }
      ],
      "name": "setGovernance",
      "outputs": [],
      "stateMutability": "nonpayable",
      "type": "function"
    },
    {
      "inputs": [
        {
          "internalType": "address",
          "name": "_kTable",
          "type": "address"
        }
      ],
      "name": "setKTable",
      "outputs": [],
      "stateMutability": "nonpayable",
      "type": "function"
    },
    {
      "inputs": [
        {
          "internalType": "uint256",
          "name": "_timeSpan",
          "type": "uint256"
        }
      ],
      "name": "setTimespan",
      "outputs": [],
      "stateMutability": "nonpayable",
      "type": "function"
    },
    {
      "inputs": [
        {
          "internalType": "uint256",
          "name": "_interval",
          "type": "uint256"
        }
      ],
      "name": "setKRefreshInterval",
      "outputs": [],
      "stateMutability": "nonpayable",
      "type": "function"
    },
    {
      "inputs": [
        {
          "internalType": "uint256",
          "name": "_amount",
          "type": "uint256"
        }
      ],
      "name": "setOracleDestructionAmount",
      "outputs": [],
      "stateMutability": "nonpayable",
      "type": "function"
    },
    {
      "inputs": [
        {
          "internalType": "int128",
          "name": "maxK0",
          "type": "int128"
        }
      ],
      "name": "setKLimit",
      "outputs": [],
      "stateMutability": "nonpayable",
      "type": "function"
    },
    {
      "inputs": [
        {
          "internalType": "int128",
          "name": "_gamma",
          "type": "int128"
        }
      ],
      "name": "setGamma",
      "outputs": [],
      "stateMutability": "nonpayable",
      "type": "function"
    },
    {
      "inputs": [
        {
          "internalType": "address",
          "name": "token",
          "type": "address"
        },
        {
          "internalType": "uint32",
          "name": "theta",
          "type": "uint32"
        }
      ],
      "name": "setTheta",
      "outputs": [],
      "stateMutability": "nonpayable",
      "type": "function"
    },
    {
      "inputs": [],
      "name": "activate",
      "outputs": [],
      "stateMutability": "nonpayable",
      "type": "function"
    },
    {
      "inputs": [
        {
          "internalType": "address",
          "name": "caller",
          "type": "address"
        }
      ],
      "name": "addCaller",
      "outputs": [],
      "stateMutability": "nonpayable",
      "type": "function"
    },
    {
      "inputs": [
        {
          "internalType": "address",
          "name": "token",
          "type": "address"
        },
        {
          "internalType": "uint8",
          "name": "op",
          "type": "uint8"
        },
        {
          "internalType": "bytes",
          "name": "data",
          "type": "bytes"
        }
      ],
      "name": "queryOracle",
      "outputs": [
        {
          "internalType": "uint256",
          "name": "_k",
          "type": "uint256"
        },
        {
          "internalType": "uint256",
          "name": "_ethAmount",
          "type": "uint256"
        },
        {
          "internalType": "uint256",
          "name": "_erc20Amount",
          "type": "uint256"
        },
        {
          "internalType": "uint256",
          "name": "_blockNum",
          "type": "uint256"
        },
        {
          "internalType": "uint256",
          "name": "_theta",
          "type": "uint256"
        }
      ],
      "stateMutability": "payable",
      "type": "function",
      "payable": true
    },
    {
      "inputs": [
        {
          "internalType": "address",
          "name": "token",
          "type": "address"
        },
        {
          "internalType": "bytes",
          "name": "data",
          "type": "bytes"
        },
        {
          "internalType": "uint256",
          "name": "ethAmount",
          "type": "uint256"
        },
        {
          "internalType": "uint256",
          "name": "erc20Amount",
          "type": "uint256"
        }
      ],
      "name": "calcImpactCostFor_BURN",
      "outputs": [
        {
          "internalType": "uint256",
          "name": "impactCost",
          "type": "uint256"
        }
      ],
      "stateMutability": "view",
      "type": "function",
      "constant": true
    },
    {
      "inputs": [
        {
          "internalType": "address",
          "name": "token",
          "type": "address"
        },
        {
          "internalType": "bytes",
          "name": "data",
          "type": "bytes"
        },
        {
          "internalType": "uint256",
          "name": "ethAmount",
          "type": "uint256"
        },
        {
          "internalType": "uint256",
          "name": "erc20Amount",
          "type": "uint256"
        }
      ],
      "name": "calcImpactCostFor_SWAP_WITH_EXACT",
      "outputs": [
        {
          "internalType": "uint256",
          "name": "impactCost",
          "type": "uint256"
        }
      ],
      "stateMutability": "pure",
      "type": "function",
      "constant": true
    },
    {
      "inputs": [
        {
          "internalType": "address",
          "name": "token",
          "type": "address"
        },
        {
          "internalType": "bytes",
          "name": "data",
          "type": "bytes"
        },
        {
          "internalType": "uint256",
          "name": "ethAmount",
          "type": "uint256"
        },
        {
          "internalType": "uint256",
          "name": "erc20Amount",
          "type": "uint256"
        }
      ],
      "name": "calcImpactCostFor_SWAP_FOR_EXACT",
      "outputs": [
        {
          "internalType": "uint256",
          "name": "impactCost",
          "type": "uint256"
        }
      ],
      "stateMutability": "pure",
      "type": "function",
      "constant": true
    },
    {
      "inputs": [
        {
          "internalType": "uint256",
          "name": "vol",
          "type": "uint256"
        }
      ],
      "name": "impactCostForBuyInETH",
      "outputs": [
        {
          "internalType": "uint256",
          "name": "impactCost",
          "type": "uint256"
        }
      ],
      "stateMutability": "pure",
      "type": "function",
      "constant": true
    },
    {
      "inputs": [
        {
          "internalType": "uint256",
          "name": "vol",
          "type": "uint256"
        }
      ],
      "name": "impactCostForSellOutETH",
      "outputs": [
        {
          "internalType": "uint256",
          "name": "impactCost",
          "type": "uint256"
        }
      ],
      "stateMutability": "pure",
      "type": "function",
      "constant": true
    },
    {
      "inputs": [
        {
          "internalType": "address",
          "name": "token",
          "type": "address"
        }
      ],
      "name": "getKInfo",
      "outputs": [
        {
          "internalType": "uint32",
          "name": "k",
          "type": "uint32"
        },
        {
          "internalType": "uint32",
          "name": "updatedAt",
          "type": "uint32"
        },
        {
          "internalType": "uint32",
          "name": "theta",
          "type": "uint32"
        }
      ],
      "stateMutability": "view",
      "type": "function",
      "constant": true
    }
  ],
  "bytecode": "0x60e0604052600e60045561012c600555600060065560078054600160bf1b6001600160801b0319909116670ccccccccccccd00176001600160801b031617905534801561004b57600080fd5b506040516121ac3803806121ac8339818101604052608081101561006e57600080fd5b5080516020820151604083015160609384015160028054336001600160a01b03199182161790915584861b6001600160601b031990811660805284871b811660a0529583901b90951660c052600380549095166001600160a01b039182161790945591831692908116911661209261011a60003980610fa952806115b652508061098b5280610a9a5280610b195280610b56525080610a2052806113d15280611b4952506120926000f3fe6080604052600436106101dc5760003560e01c80638dba932911610102578063c13b476c11610095578063cdfadb3411610064578063cdfadb341461080b578063d342d977146108d3578063e2e01698146108fd578063eba0df6e14610912576101e3565b8063c13b476c14610727578063c1dbbd781461076e578063c45a01551461079b578063c7d5308f146107b0576101e3565b8063a536b60a116100d1578063a536b60a146102b6578063a8369006146106ca578063ab033ea9146106df578063be19003214610712576101e3565b80638dba9329146104da5780638e85056d146105c35780638f2637fb1461068b5780639d5bfae2146106a0576101e3565b80635aa6e6751161017a5780636a6fe3e4116101495780636a6fe3e414610426578063733ed80614610453578063747293fb1461047d57806382963012146104b0576101e3565b80635aa6e675146103935780635b8ea798146103a85780635f69bd3d146103d257806363f0c3d9146103e7576101e3565b806337fc2beb116101b657806337fc2beb146102525780634e929741146102835780634f6ec2dd146102b6578063551359de146102cb576101e3565b80630f15f4c0146101e857806325e7fe38146101ff578063329861311461022b576101e3565b366101e357005b600080fd5b3480156101f457600080fd5b506101fd610927565b005b34801561020b57600080fd5b50610214610b43565b60408051600f9290920b8252519081900360200190f35b34801561023757600080fd5b50610240610b4c565b60408051918252519081900360200190f35b34801561025e57600080fd5b50610267610b54565b604080516001600160a01b039092168252519081900360200190f35b34801561028f57600080fd5b506101fd600480360360208110156102a657600080fd5b50356001600160a01b0316610b78565b3480156102c257600080fd5b50610240610c43565b3480156102d757600080fd5b50610240600480360360808110156102ee57600080fd5b6001600160a01b03823516919081019060408101602082013564010000000081111561031957600080fd5b82018360208201111561032b57600080fd5b8035906020019184600183028401116401000000008311171561034d57600080fd5b91908080601f0160208091040260200160405190810160405280939291908181526020018383808284376000920191909152509295505082359350505060200135610c4f565b34801561039f57600080fd5b50610267610cce565b3480156103b457600080fd5b506101fd600480360360208110156103cb57600080fd5b5035610cdd565b3480156103de57600080fd5b50610240610d41565b3480156103f357600080fd5b506101fd6004803603604081101561040a57600080fd5b5080356001600160a01b0316906020013563ffffffff16610d47565b34801561043257600080fd5b506101fd6004803603602081101561044957600080fd5b5035600f0b610e38565b34801561045f57600080fd5b506101fd6004803603602081101561047657600080fd5b5035610f04565b34801561048957600080fd5b506101fd600480360360208110156104a057600080fd5b50356001600160a01b0316610f9e565b3480156104bc57600080fd5b50610240600480360360208110156104d357600080fd5b5035611075565b610598600480360360608110156104f057600080fd5b6001600160a01b038235169160ff6020820135169181019060608101604082013564010000000081111561052357600080fd5b82018360208201111561053557600080fd5b8035906020019184600183028401116401000000008311171561055757600080fd5b91908080601f0160208091040260200160405190810160405280939291908181526020018383808284376000920191909152509295506110ca945050505050565b6040805195865260208601949094528484019290925260608401526080830152519081900360a00190f35b3480156105cf57600080fd5b50610240600480360360808110156105e657600080fd5b6001600160a01b03823516919081019060408101602082013564010000000081111561061157600080fd5b82018360208201111561062357600080fd5b8035906020019184600183028401116401000000008311171561064557600080fd5b91908080601f0160208091040260200160405190810160405280939291908181526020018383808284376000920191909152509295505082359350505060200135611211565b34801561069757600080fd5b50610267611326565b3480156106ac57600080fd5b506101fd600480360360208110156106c357600080fd5b5035611335565b3480156106d657600080fd5b506102676113cf565b3480156106eb57600080fd5b506101fd6004803603602081101561070257600080fd5b50356001600160a01b03166113f3565b34801561071e57600080fd5b506102406114be565b34801561073357600080fd5b5061075a6004803603602081101561074a57600080fd5b50356001600160a01b03166114c4565b604080519115158252519081900360200190f35b34801561077a57600080fd5b506101fd6004803603602081101561079157600080fd5b5035600f0b6114d9565b3480156107a757600080fd5b506102676115b4565b3480156107bc57600080fd5b506107e3600480360360208110156107d357600080fd5b50356001600160a01b03166115d8565b6040805163ffffffff9485168152928416602084015292168183015290519081900360600190f35b34801561081757600080fd5b506102406004803603608081101561082e57600080fd5b6001600160a01b03823516919081019060408101602082013564010000000081111561085957600080fd5b82018360208201111561086b57600080fd5b8035906020019184600183028401116401000000008311171561088d57600080fd5b91908080601f016020809104026020016040519081016040528093929190818152602001838380828437600092019190915250929550508235935050506020013561160c565b3480156108df57600080fd5b50610240600480360360208110156108f657600080fd5b5035611683565b34801561090957600080fd5b506102406116d0565b34801561091e57600080fd5b506102146116d6565b6002546001600160a01b03163314610986576040805162461bcd60e51b815260206004820152601660248201527f436f4669584374726c3a2021676f7665726e616e636500000000000000000000604482015290519081900360640190fd5b6109b47f000000000000000000000000000000000000000000000000000000000000000033306006546116f3565b604080517f8fe77e86000000000000000000000000000000000000000000000000000000008152602060048201819052601260248301527f6e6573742e76332e6f6666657250726963650000000000000000000000000000604483015291516000926001600160a01b037f00000000000000000000000000000000000000000000000000000000000000001692638fe77e869260648083019392829003018186803b158015610a6257600080fd5b505afa158015610a76573d6000803e3d6000fd5b505050506040513d6020811015610a8c57600080fd5b5051600654909150610ac1907f000000000000000000000000000000000000000000000000000000000000000090839061187e565b806001600160a01b0316633629c8de6040518163ffffffff1660e01b8152600401600060405180830381600087803b158015610afc57600080fd5b505af1158015610b10573d6000803e3d6000fd5b50505050610b407f000000000000000000000000000000000000000000000000000000000000000082600061187e565b50565b600754600f0b81565b6305f5e10081565b7f000000000000000000000000000000000000000000000000000000000000000081565b6002546001600160a01b03163314610bd7576040805162461bcd60e51b815260206004820152601660248201527f436f4669584374726c3a2021676f7665726e616e636500000000000000000000604482015290519081900360640190fd5b600380546001600160a01b0383167fffffffffffffffffffffffff0000000000000000000000000000000000000000909116811790915560408051918252517fb8a7215c66d7533048ef6969ce3d23be990ce682c859f835e4bed6f6f33194bb9181900360200190a150565b670de0b6b3a764000081565b6000806000858060200190516080811015610c6957600080fd5b50602081015160609091015190925090506001600160a01b0380831690881614610cb8576000610ca385610c9d8489611a16565b90611a78565b9050610cae81611683565b9350505050610cc6565b610cc181611075565b925050505b949350505050565b6002546001600160a01b031681565b6002546001600160a01b03163314610d3c576040805162461bcd60e51b815260206004820152601660248201527f436f4669584374726c3a2021676f7665726e616e636500000000000000000000604482015290519081900360640190fd5b600655565b60065481565b6002546001600160a01b03163314610da6576040805162461bcd60e51b815260206004820152601660248201527f436f4669584374726c3a2021676f7665726e616e636500000000000000000000604482015290519081900360640190fd5b6001600160a01b0382166000818152602081815260409182902080547fffffffffffffffffffffffffffffffffffffffff00000000ffffffffffffffff166801000000000000000063ffffffff87169081029190911790915582519384529083015280517fdf754dcc54212b1583a43e52dc93c9a33b0a5310fe26ccefbb832a384577e72d9281900390910190a15050565b6002546001600160a01b03163314610e97576040805162461bcd60e51b815260206004820152601660248201527f436f4669584374726c3a2021676f7665726e616e636500000000000000000000604482015290519081900360640190fd5b600780546fffffffffffffffffffffffffffffffff908116700100000000000000000000000000000000600f85900b928316021790915560408051918252517f358102c959bbb30b6778c558bad3fe8a9665bf7377291a8926d49f638a9bc3fc916020908290030190a150565b6002546001600160a01b03163314610f63576040805162461bcd60e51b815260206004820152601660248201527f436f4669584374726c3a2021676f7665726e616e636500000000000000000000604482015290519081900360640190fd5b60048190556040805182815290517f9fe8f70a914cfc48197ae6ab66b8c3b2e611c7fa27ef9af879ad1fd494fd7b5b9181900360200190a150565b336001600160a01b037f0000000000000000000000000000000000000000000000000000000000000000161480610fdf57506002546001600160a01b031633145b611030576040805162461bcd60e51b815260206004820152601e60248201527f436f4669584374726c3a206f6e6c7920666163746f7279206f7220676f760000604482015290519081900360640190fd5b6001600160a01b0316600090815260016020819052604090912080547fffffffffffffffffffffffffffffffffffffffffffffffffffffffffffffff00169091179055565b6000681b1ae4d6e2ef500000821015611090575060006110c5565b6110c26402540be400610c9d656a8077e738006110bc670de0b6b3a76400008364c34074820089611a16565b90611adf565b90505b919050565b33600090815260016020526040812054819081908190819060ff16611136576040805162461bcd60e51b815260206004820152601d60248201527f436f4669584374726c3a2063616c6c6572206e6f7420616c6c6f776564000000604482015290519081900360640190fd5b61113f88611b3c565b91955093509150600060ff8816600481111561115757fe5b90506000600382600481111561116957fe5b14156111825761117b8a898888610c4f565b90506111c5565b600482600481111561119057fe5b14156111a25761117b8a89888861160c565b60028260048111156111b057fe5b14156111c5576111c28a898888611211565b90505b6111d26203d09082611ea2565b6001600160a01b039a909a16600090815260208190526040902054999a959994985092965050506801000000000000000090910463ffffffff16925050565b600080600085806020019051608081101561122b57600080fd5b50602080820151606090920151604080517f24334be8000000000000000000000000000000000000000000000000000000008152600481018a905260248101899052905193955090935060009233926324334be89260448082019391829003018186803b15801561129b57600080fd5b505afa1580156112af573d6000803e3d6000fd5b505050506040513d60208110156112c557600080fd5b5051905060006112e1670de0b6b3a7640000610c9d8585611a16565b9050886001600160a01b0316846001600160a01b0316146113105761130581611683565b945050505050610cc6565b61131981611075565b9998505050505050505050565b6003546001600160a01b031681565b6002546001600160a01b03163314611394576040805162461bcd60e51b815260206004820152601660248201527f436f4669584374726c3a2021676f7665726e616e636500000000000000000000604482015290519081900360640190fd5b60058190556040805182815290517f50305e979fe14d7795fbb7d2f90b6b2370220629d50fc15d87e78092a900b72c9181900360200190a150565b7f000000000000000000000000000000000000000000000000000000000000000081565b6002546001600160a01b03163314611452576040805162461bcd60e51b815260206004820152601660248201527f436f4669584374726c3a2021676f7665726e616e636500000000000000000000604482015290519081900360640190fd5b600280546001600160a01b0383167fffffffffffffffffffffffff0000000000000000000000000000000000000000909116811790915560408051918252517f4f386975ea1c2f7cf1845b08bee00626fbb624ecad16254d63d9bb9ba86526de9181900360200190a150565b60045481565b60016020526000908152604090205460ff1681565b6002546001600160a01b03163314611538576040805162461bcd60e51b815260206004820152601660248201527f436f4669584374726c3a2021676f7665726e616e636500000000000000000000604482015290519081900360640190fd5b60078054600f83900b6fffffffffffffffffffffffffffffffff81167fffffffffffffffffffffffffffffffff000000000000000000000000000000009092169190911790915560408051918252517f83990b32d8e21b63ccd82fb52f021459b1cbfd289f70b72b72412278fd9d75689181900360200190a150565b7f000000000000000000000000000000000000000000000000000000000000000081565b6001600160a01b03166000908152602081905260409020546203d09091429168010000000000000000900463ffffffff1690565b600080600085806020019051608081101561162657600080fd5b50602081015160409091015190925090506001600160a01b038083169088161461165c5761165381611683565b92505050610cc6565b600061166c85610c9d8489611a16565b905061167781611075565b98975050505050505050565b6000681b1ae4d6e2ef50000082101561169e575060006110c5565b6110c26402540be400610c9d6116c3670de0b6b3a76400008264c6e2499e0088611a16565b65175fbf5ee80090611ea2565b60055481565b6007547001000000000000000000000000000000009004600f0b81565b604080516001600160a01b0385811660248301528481166044830152606480830185905283518084039091018152608490920183526020820180517bffffffffffffffffffffffffffffffffffffffffffffffffffffffff167f23b872dd0000000000000000000000000000000000000000000000000000000017815292518251600094606094938a169392918291908083835b602083106117a65780518252601f199092019160209182019101611787565b6001836020036101000a0380198251168184511680821785525050505050509050019150506000604051808303816000865af19150503d8060008114611808576040519150601f19603f3d011682016040523d82523d6000602084013e61180d565b606091505b509150915081801561183b57508051158061183b575080806020019051602081101561183857600080fd5b50515b6118765760405162461bcd60e51b81526004018080602001828103825260248152602001806120396024913960400191505060405180910390fd5b505050505050565b604080516001600160a01b038481166024830152604480830185905283518084039091018152606490920183526020820180517bffffffffffffffffffffffffffffffffffffffffffffffffffffffff167f095ea7b300000000000000000000000000000000000000000000000000000000178152925182516000946060949389169392918291908083835b602083106119295780518252601f19909201916020918201910161190a565b6001836020036101000a0380198251168184511680821785525050505050509050019150506000604051808303816000865af19150503d806000811461198b576040519150601f19603f3d011682016040523d82523d6000602084013e611990565b606091505b50915091508180156119be5750805115806119be57508080602001905160208110156119bb57600080fd5b50515b611a0f576040805162461bcd60e51b815260206004820152601e60248201527f5472616e7366657248656c7065723a20415050524f56455f4641494c45440000604482015290519081900360640190fd5b5050505050565b600082611a2557506000611a72565b82820282848281611a3257fe5b0414611a6f5760405162461bcd60e51b8152600401808060200182810382526021815260200180611ff56021913960400191505060405180910390fd5b90505b92915050565b6000808211611ace576040805162461bcd60e51b815260206004820152601a60248201527f536166654d6174683a206469766973696f6e206279207a65726f000000000000604482015290519081900360640190fd5b818381611ad757fe5b049392505050565b600082821115611b36576040805162461bcd60e51b815260206004820152601e60248201527f536166654d6174683a207375627472616374696f6e206f766572666c6f770000604482015290519081900360640190fd5b50900390565b60008060008047905060007f00000000000000000000000000000000000000000000000000000000000000006001600160a01b0316638fe77e866040518163ffffffff1660e01b81526004018080602001828103825260128152602001807f6e6573742e76332e6f666665725072696365000000000000000000000000000081525060200191505060206040518083038186803b158015611bdc57600080fd5b505afa158015611bf0573d6000803e3d6000fd5b505050506040513d6020811015611c0657600080fd5b5051604080517f08d0099e0000000000000000000000000000000000000000000000000000000081526001600160a01b038981166004830152600160248301529151929350606092918416916308d0099e913491604480830192600092919082900301818588803b158015611c7a57600080fd5b505af1158015611c8e573d6000803e3d6000fd5b50505050506040513d6000823e601f3d908101601f191682016040526020811015611cb857600080fd5b8101908080516040519392919084640100000000821115611cd857600080fd5b908301906020820185811115611ced57600080fd5b8251866020820283011164010000000082111715611d0a57600080fd5b82525081516020918201928201910280838360005b83811015611d37578181015183820152602001611d1f565b5050505090500160405250505090508051600314611d9c576040805162461bcd60e51b815260206004820152601860248201527f436f4669584374726c3a20626164207072696365206c656e0000000000000000604482015290519081900360640190fd5b6000611dd1600454611dcb84600281518110611db457fe5b602002602001015143611adf90919063ffffffff16565b90611a16565b90506103848110611e29576040805162461bcd60e51b815260206004820181905260248201527f436f4669584374726c3a206f72616c6365207072696365206f75746461746564604482015290519081900360640190fd5b6000611e3f611e388647611adf565b3490611adf565b90508015611e5157611e513382611efc565b82600081518110611e5e57fe5b602002602001015183600181518110611e7357fe5b602002602001015184600281518110611e8857fe5b602002602001015197509750975050505050509193909250565b600082820183811015611a6f576040805162461bcd60e51b815260206004820152601b60248201527f536166654d6174683a206164646974696f6e206f766572666c6f770000000000604482015290519081900360640190fd5b604080516000808252602082019092526001600160a01b0384169083906040518082805190602001908083835b60208310611f485780518252601f199092019160209182019101611f29565b6001836020036101000a03801982511681845116808217855250505050505090500191505060006040518083038185875af1925050503d8060008114611faa576040519150601f19603f3d011682016040523d82523d6000602084013e611faf565b606091505b5050905080611fef5760405162461bcd60e51b81526004018080602001828103825260238152602001806120166023913960400191505060405180910390fd5b50505056fe536166654d6174683a206d756c7469706c69636174696f6e206f766572666c6f775472616e7366657248656c7065723a204554485f5452414e534645525f4641494c45445472616e7366657248656c7065723a205452414e534645525f46524f4d5f4641494c4544a2646970667358221220e592e5c286f85cdd65d7364fa6fe3694f24ae40e683b26f1d58f01c68e3bfdfd64736f6c634300060c0033",
  "immutableReferences": {
    "1858": [
      {
        "length": 32,
        "start": 2592
      },
      {
        "length": 32,
        "start": 5073
      },
      {
        "length": 32,
        "start": 6985
      }
    ],
    "1862": [
      {
        "length": 32,
        "start": 2443
      },
      {
        "length": 32,
        "start": 2714
      },
      {
        "length": 32,
        "start": 2841
      },
      {
        "length": 32,
        "start": 2902
      }
    ],
    "1864": [
      {
        "length": 32,
        "start": 4009
      },
      {
        "length": 32,
        "start": 5558
      }
    ]
  },
  "source": "// SPDX-License-Identifier: GPL-3.0-or-later\npragma solidity 0.6.12;\n\nimport \"@openzeppelin/contracts/math/SafeMath.sol\";\nimport \"./lib/ABDKMath64x64.sol\";\nimport \"./interface/INest_3_OfferPrice.sol\";\nimport \"./interface/ICoFiXKTable.sol\";\nimport \"./lib/TransferHelper.sol\";\nimport \"./interface/ICoFiXController.sol\";\nimport \"./interface/INest_3_VoteFactory.sol\";\nimport \"./interface/ICoFiXPair.sol\";\n\n// Controller contract to call NEST Oracle for prices, managed by governance\n// Governance role of this contract should be the `Timelock` contract, which is further managed by a multisig contract\ncontract CoFiXController is ICoFiXController {\n\n    using SafeMath for uint256;\n\n    enum CoFiX_OP { QUERY, MINT, BURN, SWAP_WITH_EXACT, SWAP_FOR_EXACT } // operations in CoFiX\n\n    uint256 constant public AONE = 1 ether;\n    uint256 constant public K_BASE = 1E8;\n    uint256 constant public NAVPS_BASE = 1E18; // NAVPS (Net Asset Value Per Share), need accuracy\n    uint256 constant internal TIMESTAMP_MODULUS = 2**32;\n    int128 constant internal SIGMA_STEP = 0x346DC5D638865; // (0.00005*2**64).toString(16), 0.00005 as 64.64-bit fixed point\n    int128 constant internal ZERO_POINT_FIVE = 0x8000000000000000; // (0.5*2**64).toString(16)\n    uint256 constant internal K_EXPECTED_VALUE = 0.0025*1E8;\n    // impact cost params\n    uint256 constant internal C_BUYIN_ALPHA = 25700000000000; // =2.570e-05*1e18\n    uint256 constant internal C_BUYIN_BETA = 854200000000; // =8.542e-07*1e18\n    uint256 constant internal C_SELLOUT_ALPHA = 117100000000000; // =-1.171e-04*1e18\n    uint256 constant internal C_SELLOUT_BETA = 838600000000; // =8.386e-07*1e18\n\n    mapping(address => uint32[3]) internal KInfoMap; // gas saving, index [0] is k vlaue, index [1] is updatedAt, index [2] is theta\n    mapping(address => bool) public callerAllowed;\n\n    INest_3_VoteFactory public immutable voteFactory;\n\n    // managed by governance\n    address public governance;\n    address public immutable nestToken;\n    address public immutable factory;\n    address public kTable;\n    uint256 public timespan = 14;\n    uint256 public kRefreshInterval = 5 minutes;\n    uint256 public DESTRUCTION_AMOUNT = 0 ether; // from nest oracle\n    int128 public MAX_K0 = 0xCCCCCCCCCCCCD00; // (0.05*2**64).toString(16)\n    int128 public GAMMA = 0x8000000000000000; // (0.5*2**64).toString(16)\n\n    modifier onlyGovernance() {\n        require(msg.sender == governance, \"CoFiXCtrl: !governance\");\n        _;\n    }\n\n    constructor(address _voteFactory, address _nest, address _factory, address _kTable) public {\n        governance = msg.sender;\n        voteFactory = INest_3_VoteFactory(address(_voteFactory));\n        nestToken = _nest;\n        factory = _factory;\n        kTable = _kTable;\n    }\n\n    receive() external payable {}\n\n    /* setters for protocol governance */\n    function setGovernance(address _new) external onlyGovernance {\n        governance = _new;\n        emit NewGovernance(_new);\n    }\n\n    function setKTable(address _kTable) external onlyGovernance {\n        kTable = _kTable;\n        emit NewKTable(_kTable);\n    }    \n\n    function setTimespan(uint256 _timeSpan) external onlyGovernance {\n        timespan = _timeSpan;\n        emit NewTimespan(_timeSpan);\n    }\n\n    function setKRefreshInterval(uint256 _interval) external onlyGovernance {\n        kRefreshInterval = _interval;\n        emit NewKRefreshInterval(_interval);\n    }\n\n    function setOracleDestructionAmount(uint256 _amount) external onlyGovernance {\n        DESTRUCTION_AMOUNT = _amount;\n    }\n\n    function setKLimit(int128 maxK0) external onlyGovernance {\n        MAX_K0 = maxK0;\n        emit NewKLimit(maxK0);\n    }\n\n    function setGamma(int128 _gamma) external onlyGovernance {\n        GAMMA = _gamma;\n        emit NewGamma(_gamma);\n    }\n    \n    function setTheta(address token, uint32 theta) external onlyGovernance {\n        KInfoMap[token][2] = theta;\n        emit NewTheta(token, theta);\n    }\n\n    // Activate on NEST Oracle, should not be called twice for the same nest oracle\n    function activate() external onlyGovernance {\n        // address token, address from, address to, uint value\n        TransferHelper.safeTransferFrom(nestToken, msg.sender, address(this), DESTRUCTION_AMOUNT);\n        address oracle = voteFactory.checkAddress(\"nest.v3.offerPrice\");\n        // address token, address to, uint value\n        TransferHelper.safeApprove(nestToken, oracle, DESTRUCTION_AMOUNT);\n        INest_3_OfferPrice(oracle).activation(); // nest.transferFrom will be called\n        TransferHelper.safeApprove(nestToken, oracle, 0); // ensure safety\n    }\n\n    function addCaller(address caller) external override {\n        require(msg.sender == factory || msg.sender == governance, \"CoFiXCtrl: only factory or gov\");\n        callerAllowed[caller] = true;\n    }\n\n    // Calc variance of price and K in CoFiX is very expensive\n    // We use expected value of K based on statistical calculations here to save gas\n    // In the near future, NEST could provide the variance of price directly. We will adopt it then.\n    // We can make use of `data` bytes in the future\n    function queryOracle(address token, uint8 op, bytes memory data) external override payable returns (uint256 _k, uint256 _ethAmount, uint256 _erc20Amount, uint256 _blockNum, uint256 _theta) {\n        require(callerAllowed[msg.sender], \"CoFiXCtrl: caller not allowed\");\n        (_ethAmount, _erc20Amount, _blockNum) = getLatestPrice(token);\n        CoFiX_OP cop = CoFiX_OP(op);\n        uint256 impactCost;\n        if (cop == CoFiX_OP.SWAP_WITH_EXACT) {\n            impactCost = calcImpactCostFor_SWAP_WITH_EXACT(token, data, _ethAmount, _erc20Amount);\n        } else if (cop == CoFiX_OP.SWAP_FOR_EXACT) {\n            impactCost = calcImpactCostFor_SWAP_FOR_EXACT(token, data, _ethAmount, _erc20Amount);\n         } else if (cop == CoFiX_OP.BURN) {\n            impactCost = calcImpactCostFor_BURN(token, data, _ethAmount, _erc20Amount);\n        }\n        return (K_EXPECTED_VALUE.add(impactCost), _ethAmount, _erc20Amount, _blockNum, KInfoMap[token][2]);\n    }\n\n    function calcImpactCostFor_BURN(address token, bytes memory data, uint256 ethAmount, uint256 erc20Amount) public view returns (uint256 impactCost) {\n        // bytes memory data = abi.encode(msg.sender, outToken, to, liquidity);\n        (, address outToken, , uint256 liquidity) = abi.decode(data, (address, address, address, uint256));\n        // calc real vol by liquidity * np\n        uint256 navps = ICoFiXPair(msg.sender).getNAVPerShare(ethAmount, erc20Amount); // pair call controller, msg.sender is pair\n        uint256 vol = liquidity.mul(navps).div(NAVPS_BASE);\n        if (outToken != token) {\n            // buy in ETH, outToken is ETH\n            return impactCostForBuyInETH(vol);\n        }\n        // sell out liquidity, outToken is token, take this as sell out ETH and get token\n        return impactCostForSellOutETH(vol);\n    }\n\n    function calcImpactCostFor_SWAP_WITH_EXACT(address token, bytes memory data, uint256 ethAmount, uint256 erc20Amount) public pure returns (uint256 impactCost) {\n        (, address outToken, , uint256 amountIn) = abi.decode(data, (address, address, address, uint256));\n        if (outToken != token) {\n            // buy in ETH, outToken is ETH, amountIn is token\n            // convert to amountIn in ETH\n            uint256 vol = uint256(amountIn).mul(ethAmount).div(erc20Amount);\n            return impactCostForBuyInETH(vol);\n        }\n        // sell out ETH, amountIn is ETH\n        return impactCostForSellOutETH(amountIn);\n    }\n\n    function calcImpactCostFor_SWAP_FOR_EXACT(address token, bytes memory data, uint256 ethAmount, uint256 erc20Amount) public pure returns (uint256 impactCost) {\n        (, address outToken, uint256 amountOutExact,) = abi.decode(data, (address, address, uint256, address));\n        if (outToken != token) {\n            // buy in ETH, outToken is ETH, amountOutExact is ETH\n            return impactCostForBuyInETH(amountOutExact);\n        }\n        // sell out ETH, amountIn is ETH, amountOutExact is token\n        // convert to amountOutExact in ETH\n        uint256 vol = uint256(amountOutExact).mul(ethAmount).div(erc20Amount);\n        return impactCostForSellOutETH(vol);\n    }\n\n    // impact cost\n    // - C = 0, if VOL < 500\n    // - C =  +  * VOL, if VOL >= 500\n\n    // =2.570e-05=8.542e-07\n    function impactCostForBuyInETH(uint256 vol) public pure returns (uint256 impactCost) {\n        if (vol < 500 ether) {\n            return 0;\n        }\n        // return C_BUYIN_ALPHA.add(C_BUYIN_BETA.mul(vol).div(1e18)).mul(1e8).div(1e18);\n        return C_BUYIN_ALPHA.add(C_BUYIN_BETA.mul(vol).div(1e18)).div(1e10); // combine mul div\n    }\n\n    // =-1.171e-04=8.386e-07\n    function impactCostForSellOutETH(uint256 vol) public pure returns (uint256 impactCost) {\n        if (vol < 500 ether) {\n            return 0;\n        }\n        // return (C_SELLOUT_BETA.mul(vol).div(1e18)).sub(C_SELLOUT_ALPHA).mul(1e8).div(1e18);\n        return (C_SELLOUT_BETA.mul(vol).div(1e18)).sub(C_SELLOUT_ALPHA).div(1e10); // combine mul div\n    }\n\n    // // We can make use of `data` bytes in the future\n    // function queryOracle(address token, bytes memory /*data*/) external override payable returns (uint256 _k, uint256, uint256, uint256, uint256) {\n    //     require(callerAllowed[msg.sender], \"CoFiXCtrl: caller not allowed\");\n\n    //     uint256 _now = block.timestamp % TIMESTAMP_MODULUS; // 2106\n\n    //     {\n    //         uint256 _lastUpdate = KInfoMap[token][1];\n    //         if (_now >= _lastUpdate && _now.sub(_lastUpdate) <= kRefreshInterval) { // lastUpdate (2105) | 2106 | now (1)\n    //             return getLatestPrice(token);\n    //         }\n    //     }\n\n    //     uint256 _balanceBefore = address(this).balance;\n    //     // int128 K0; // K0AndK[0]\n    //     // int128 K; // K0AndK[1]\n    //     int128[2] memory K0AndK;\n    //     // OraclePrice memory _op;\n    //     uint256[7] memory _op;\n\n    //     int128 _variance;\n    //     // (_variance, _op.T, _op.ethAmount, _op.erc20Amount, _op.blockNum) = calcVariance(token);\n    //     (_variance, _op[0], _op[1], _op[2], _op[3]) = calcVariance(token);\n\n    //     {\n    //         // int128 _volatility = ABDKMath64x64.sqrt(_variance);\n    //         // int128 _sigma = ABDKMath64x64.div(_volatility, ABDKMath64x64.sqrt(ABDKMath64x64.fromUInt(timespan)));\n    //         int128 _sigma = ABDKMath64x64.sqrt(ABDKMath64x64.div(_variance, ABDKMath64x64.fromUInt(timespan))); // combined into one sqrt\n\n    //         // tIdx is _op[4]\n    //         // sigmaIdx is _op[5]\n    //         _op[4] = (_op[0].add(5)).div(10); // rounding to the nearest\n    //         _op[5] = ABDKMath64x64.toUInt(\n    //                     ABDKMath64x64.add(\n    //                         ABDKMath64x64.div(_sigma, SIGMA_STEP), // _sigma / 0.0001, e.g. (0.00098/0.0001)=9.799 => 9\n    //                         ZERO_POINT_FIVE // e.g. (0.00098/0.0001)+0.5=10.299 => 10\n    //                     )\n    //                 );\n    //         if (_op[5] > 0) {\n    //             _op[5] = _op[5].sub(1);\n    //         }\n\n    //         // getK0(uint256 tIdx, uint256 sigmaIdx)\n    //         // K0 is K0AndK[0]\n    //         K0AndK[0] = ICoFiXKTable(kTable).getK0(\n    //             _op[4], \n    //             _op[5]\n    //         );\n\n    //         // K = gamma * K0\n    //         K0AndK[1] = ABDKMath64x64.mul(GAMMA, K0AndK[0]);\n\n    //         emit NewK(token, K0AndK[1], _sigma, _op[0], _op[1], _op[2], _op[3], _op[4], _op[5], K0AndK[0]);\n    //     }\n\n    //     require(K0AndK[0] <= MAX_K0, \"CoFiXCtrl: K0\");\n\n    //     {\n    //         // we could decode data in the future to pay the fee change and mining award token directly to reduce call cost\n    //         // TransferHelper.safeTransferETH(payback, msg.value.sub(_balanceBefore.sub(address(this).balance)));\n    //         uint256 oracleFeeChange = msg.value.sub(_balanceBefore.sub(address(this).balance));\n    //         if (oracleFeeChange > 0) TransferHelper.safeTransferETH(msg.sender, oracleFeeChange);\n    //         _k = ABDKMath64x64.toUInt(ABDKMath64x64.mul(K0AndK[1], ABDKMath64x64.fromUInt(K_BASE)));\n    //         _op[6] = KInfoMap[token][2]; // theta\n    //         KInfoMap[token][0] = uint32(_k); // k < MAX_K << uint32(-1)\n    //         KInfoMap[token][1] = uint32(_now); // 2106\n    //         return (_k, _op[1], _op[2], _op[3], _op[6]);\n    //     }\n    // }\n\n    // function getKInfo(address token) external view returns (uint32 k, uint32 updatedAt, uint32 theta) {\n    //     k = KInfoMap[token][0];\n    //     updatedAt = KInfoMap[token][1];\n    //     theta = KInfoMap[token][2];\n    // }\n\n    function getKInfo(address token) external view returns (uint32 k, uint32 updatedAt, uint32 theta) {\n        k = uint32(K_EXPECTED_VALUE);\n        updatedAt = uint32(block.timestamp);\n        theta = KInfoMap[token][2];\n    }\n\n    function getLatestPrice(address token) internal returns (uint256 _ethAmount, uint256 _erc20Amount, uint256 _blockNum) {\n        uint256 _balanceBefore = address(this).balance;\n        address oracle = voteFactory.checkAddress(\"nest.v3.offerPrice\");\n        uint256[] memory _rawPriceList = INest_3_OfferPrice(oracle).updateAndCheckPriceList{value: msg.value}(token, 1);\n        require(_rawPriceList.length == 3, \"CoFiXCtrl: bad price len\");\n        // validate T\n        uint256 _T = block.number.sub(_rawPriceList[2]).mul(timespan);\n        require(_T < 900, \"CoFiXCtrl: oralce price outdated\");\n        uint256 oracleFeeChange = msg.value.sub(_balanceBefore.sub(address(this).balance));\n        if (oracleFeeChange > 0) TransferHelper.safeTransferETH(msg.sender, oracleFeeChange);\n        return (_rawPriceList[0], _rawPriceList[1], _rawPriceList[2]);\n        // return (K_EXPECTED_VALUE, _rawPriceList[0], _rawPriceList[1], _rawPriceList[2], KInfoMap[token][2]);\n    }\n\n    // calc Variance, a.k.a. sigma squared\n    function calcVariance(address token) internal returns (\n        int128 _variance,\n        uint256 _T,\n        uint256 _ethAmount,\n        uint256 _erc20Amount,\n        uint256 _blockNum\n    ) // keep these variables to make return values more clear\n    {\n        address oracle = voteFactory.checkAddress(\"nest.v3.offerPrice\");\n        // query raw price list from nest oracle (newest to oldest)\n        uint256[] memory _rawPriceList = INest_3_OfferPrice(oracle).updateAndCheckPriceList{value: msg.value}(token, 50);\n        require(_rawPriceList.length == 150, \"CoFiXCtrl: bad price len\");\n        // calc P a.k.a. price from the raw price data (ethAmount, erc20Amount, blockNum)\n        uint256[] memory _prices = new uint256[](50);\n        for (uint256 i = 0; i < 50; i++) {\n            // 0..50 (newest to oldest), so _prices[0] is p49 (latest price), _prices[49] is p0 (base price)\n            _prices[i] = calcPrice(_rawPriceList[i*3], _rawPriceList[i*3+1]);\n        }\n\n        // calc x a.k.a. standardized sequence of differences (newest to oldest)\n        int128[] memory _stdSeq = new int128[](49);\n        for (uint256 i = 0; i < 49; i++) {\n            _stdSeq[i] = calcStdSeq(_prices[i], _prices[i+1], _prices[49], _rawPriceList[i*3+2], _rawPriceList[(i+1)*3+2]);\n        }\n\n        // Option 1: calc variance of x\n        // Option 2: calc mean value first and then calc variance\n        // Use option 1 for gas saving\n        int128 _sumSq; // sum of squares of x\n        int128 _sum; // sum of x\n        for (uint256 i = 0; i < 49; i++) {\n            _sumSq = ABDKMath64x64.add(ABDKMath64x64.pow(_stdSeq[i], 2), _sumSq);\n            _sum = ABDKMath64x64.add(_stdSeq[i], _sum);\n        }\n        _variance = ABDKMath64x64.sub(\n            ABDKMath64x64.div(\n                _sumSq,\n                ABDKMath64x64.fromUInt(49)\n            ),\n            ABDKMath64x64.div(\n                ABDKMath64x64.pow(_sum, 2),\n                ABDKMath64x64.fromUInt(49*49)\n            )\n        );\n        \n        _T = block.number.sub(_rawPriceList[2]).mul(timespan);\n        return (_variance, _T, _rawPriceList[0], _rawPriceList[1], _rawPriceList[2]);\n    }\n\n    function calcPrice(uint256 _ethAmount, uint256 _erc20Amount) internal pure returns (uint256) {\n        return AONE.mul(_erc20Amount).div(_ethAmount);\n    }\n\n    // diff ratio could be negative\n    // p2: P_{i}\n    // p1: P_{i-1}\n    // p0: P_{0}\n    function calcDiffRatio(uint256 p2, uint256 p1, uint256 p0) internal pure returns (int128) {\n        int128 _p2 = ABDKMath64x64.fromUInt(p2);\n        int128 _p1 = ABDKMath64x64.fromUInt(p1);\n        int128 _p0 = ABDKMath64x64.fromUInt(p0);\n        return ABDKMath64x64.div(ABDKMath64x64.sub(_p2, _p1), _p0);\n    }\n\n    // p2: P_{i}\n    // p1: P_{i-1}\n    // p0: P_{0}\n    // bn2: blocknum_{i}\n    // bn1: blocknum_{i-1}\n    function calcStdSeq(uint256 p2, uint256 p1, uint256 p0, uint256 bn2, uint256 bn1) internal pure returns (int128) {\n        return ABDKMath64x64.div(\n                calcDiffRatio(p2, p1, p0),\n                ABDKMath64x64.sqrt(\n                    ABDKMath64x64.fromUInt(bn2.sub(bn1)) // c must be larger than d\n                )\n            );\n    }\n}",
  "sourcePath": "/Users/lixiansheng/Downloads/CoFix/contracts/CoFiXController.sol",
  "compiler": {
    "name": "solc",
    "version": "0.6.12+commit.27d51765.Emscripten.clang"
  },
  "schemaVersion": "3.3.3",
  "updatedAt": "2021-05-11T03:13:27.975Z",
  "networkType": "ethereum",
  "devdoc": {
    "kind": "dev",
    "methods": {},
    "version": 1
  },
  "userdoc": {
    "kind": "user",
    "methods": {},
    "version": 1
  }
}