{
  "contractName": "NEST3PriceOracleMock",
  "abi": [
    {
      "inputs": [
        {
          "internalType": "address",
          "name": "nest",
          "type": "address"
        }
      ],
      "stateMutability": "nonpayable",
      "type": "constructor"
    },
    {
      "inputs": [
        {
          "internalType": "address",
          "name": "",
          "type": "address"
        }
      ],
      "name": "addressEffect_",
      "outputs": [
        {
          "internalType": "uint256",
          "name": "",
          "type": "uint256"
        }
      ],
      "stateMutability": "view",
      "type": "function"
    },
    {
      "inputs": [],
      "name": "nestToken_",
      "outputs": [
        {
          "internalType": "address",
          "name": "",
          "type": "address"
        }
      ],
      "stateMutability": "view",
      "type": "function"
    },
    {
      "inputs": [
        {
          "internalType": "address",
          "name": "",
          "type": "address"
        },
        {
          "internalType": "uint256",
          "name": "",
          "type": "uint256"
        }
      ],
      "name": "priceInfoList_",
      "outputs": [
        {
          "internalType": "uint256",
          "name": "ethAmount",
          "type": "uint256"
        },
        {
          "internalType": "uint256",
          "name": "erc20Amount",
          "type": "uint256"
        },
        {
          "internalType": "uint256",
          "name": "blockNum",
          "type": "uint256"
        }
      ],
      "stateMutability": "view",
      "type": "function"
    },
    {
      "inputs": [],
      "name": "activation",
      "outputs": [],
      "stateMutability": "nonpayable",
      "type": "function"
    },
    {
      "inputs": [
        {
          "internalType": "address",
          "name": "token",
          "type": "address"
        }
      ],
      "name": "updateAndCheckPriceNow",
      "outputs": [
        {
          "internalType": "uint256",
          "name": "ethAmount",
          "type": "uint256"
        },
        {
          "internalType": "uint256",
          "name": "erc20Amount",
          "type": "uint256"
        },
        {
          "internalType": "uint256",
          "name": "blockNum",
          "type": "uint256"
        }
      ],
      "stateMutability": "payable",
      "type": "function"
    },
    {
      "inputs": [
        {
          "internalType": "address",
          "name": "token",
          "type": "address"
        },
        {
          "internalType": "uint256",
          "name": "num",
          "type": "uint256"
        }
      ],
      "name": "updateAndCheckPriceList",
      "outputs": [
        {
          "internalType": "uint256[]",
          "name": "",
          "type": "uint256[]"
        }
      ],
      "stateMutability": "payable",
      "type": "function"
    },
    {
      "inputs": [
        {
          "internalType": "address",
          "name": "token",
          "type": "address"
        },
        {
          "internalType": "uint256",
          "name": "num",
          "type": "uint256"
        }
      ],
      "name": "checkPriceList",
      "outputs": [
        {
          "internalType": "uint256[]",
          "name": "",
          "type": "uint256[]"
        }
      ],
      "stateMutability": "view",
      "type": "function"
    },
    {
      "inputs": [
        {
          "internalType": "address",
          "name": "token",
          "type": "address"
        },
        {
          "internalType": "uint256",
          "name": "_ethAmount",
          "type": "uint256"
        },
        {
          "internalType": "uint256",
          "name": "_erc20Amount",
          "type": "uint256"
        },
        {
          "internalType": "uint256",
          "name": "_blockNum",
          "type": "uint256"
        }
      ],
      "name": "addPriceToList",
      "outputs": [],
      "stateMutability": "nonpayable",
      "type": "function"
    },
    {
      "inputs": [
        {
          "internalType": "address",
          "name": "token",
          "type": "address"
        }
      ],
      "name": "checkPriceNow",
      "outputs": [
        {
          "internalType": "uint256",
          "name": "ethAmount",
          "type": "uint256"
        },
        {
          "internalType": "uint256",
          "name": "erc20Amount",
          "type": "uint256"
        },
        {
          "internalType": "uint256",
          "name": "blockNum",
          "type": "uint256"
        }
      ],
      "stateMutability": "view",
      "type": "function"
    },
    {
      "inputs": [
        {
          "internalType": "address",
          "name": "token",
          "type": "address"
        }
      ],
      "name": "getPriceLength",
      "outputs": [
        {
          "internalType": "uint256",
          "name": "",
          "type": "uint256"
        }
      ],
      "stateMutability": "view",
      "type": "function"
    },
    {
      "inputs": [
        {
          "internalType": "address",
          "name": "target",
          "type": "address"
        }
      ],
      "name": "checkUseNestPrice",
      "outputs": [
        {
          "internalType": "bool",
          "name": "",
          "type": "bool"
        }
      ],
      "stateMutability": "view",
      "type": "function"
    }
  ],
  "bytecode": "0x60806040526000600355603c60045534801561001a57600080fd5b50604051610e5e380380610e5e8339818101604052602081101561003d57600080fd5b5051600280546001600160a01b0319166001600160a01b03909216919091179055610df18061006d6000396000f3fe6080604052600436106100bc5760003560e01c8063a834d32e11610074578063d3a2433e1161004e578063d3a2433e1461031a578063d3bba0671461036e578063fba32b64146103ae576100bc565b8063a834d32e14610243578063bc530d7814610276578063c3df6161146102c8576100bc565b80633629c8de116100a55780633629c8de146101a85780633e6da317146101bf5780639f155541146101fd576100bc565b806308d0099e146100c15780631b4418481461014a575b600080fd5b6100fa600480360360408110156100d757600080fd5b5073ffffffffffffffffffffffffffffffffffffffff81351690602001356103f4565b60408051602080825283518183015283519192839290830191858101910280838360005b8381101561013657818101518382015260200161011e565b505050509050019250505060405180910390f35b34801561015657600080fd5b5061018a6004803603602081101561016d57600080fd5b503573ffffffffffffffffffffffffffffffffffffffff166104ee565b60408051938452602084019290925282820152519081900360600190f35b3480156101b457600080fd5b506101bd61065e565b005b3480156101cb57600080fd5b506101d461072c565b6040805173ffffffffffffffffffffffffffffffffffffffff9092168252519081900360200190f35b34801561020957600080fd5b506100fa6004803603604081101561022057600080fd5b5073ffffffffffffffffffffffffffffffffffffffff8135169060200135610748565b61018a6004803603602081101561025957600080fd5b503573ffffffffffffffffffffffffffffffffffffffff166109c5565b34801561028257600080fd5b506102b66004803603602081101561029957600080fd5b503573ffffffffffffffffffffffffffffffffffffffff16610b58565b60408051918252519081900360200190f35b3480156102d457600080fd5b506101bd600480360360808110156102eb57600080fd5b5073ffffffffffffffffffffffffffffffffffffffff8135169060208101359060408101359060600135610b84565b34801561032657600080fd5b5061035a6004803603602081101561033d57600080fd5b503573ffffffffffffffffffffffffffffffffffffffff16610c60565b604080519115158252519081900360200190f35b34801561037a57600080fd5b506102b66004803603602081101561039157600080fd5b503573ffffffffffffffffffffffffffffffffffffffff16610ccd565b3480156103ba57600080fd5b5061018a600480360360408110156103d157600080fd5b5073ffffffffffffffffffffffffffffffffffffffff8135169060200135610cdf565b60606103ff33610c60565b61046a57604080517f08c379a000000000000000000000000000000000000000000000000000000000815260206004820152601d60248201527f6f7261636c654d6f636b3a206e6f742061637469766574656420796574000000604482015290519081900360640190fd5b662386f26fc100003410156104ca576040517f08c379a0000000000000000000000000000000000000000000000000000000008152600401808060200182810382526023815260200180610d756023913960400191505060405180910390fd5b6104dd33662386f26fc100003403610d1e565b6104e78383610748565b9392505050565b73ffffffffffffffffffffffffffffffffffffffff8116600090815260208190526040812054819081908061052e57600080600093509350935050610657565b73ffffffffffffffffffffffffffffffffffffffff8516600090815260208190526040902080547fffffffffffffffffffffffffffffffffffffffffffffffffffffffffffffffff830190811061058157fe5b90600052602060002090600302016000015493506000808673ffffffffffffffffffffffffffffffffffffffff1673ffffffffffffffffffffffffffffffffffffffff16815260200190815260200160002060018203815481106105e157fe5b90600052602060002090600302016001015492506000808673ffffffffffffffffffffffffffffffffffffffff1673ffffffffffffffffffffffffffffffffffffffff168152602001908152602001600020600182038154811061064157fe5b9060005260206000209060030201600201549150505b9193909250565b600254600354604080517f23b872dd0000000000000000000000000000000000000000000000000000000081523360048201526000602482018190526044820193909352905173ffffffffffffffffffffffffffffffffffffffff909316926323b872dd92606480840193602093929083900390910190829087803b1580156106e657600080fd5b505af11580156106fa573d6000803e3d6000fd5b505050506040513d602081101561071057600080fd5b5050600454336000908152600160205260409020429091019055565b60025473ffffffffffffffffffffffffffffffffffffffff1681565b73ffffffffffffffffffffffffffffffffffffffff8216600090815260208190526040902054606090828110156107e057604080517f08c379a000000000000000000000000000000000000000000000000000000000815260206004820152601960248201527f6f7261636c654d6f636b3a206e756d20746f6f206c6172676500000000000000604482015290519081900360640190fd5b60038302600060608267ffffffffffffffff811180156107ff57600080fd5b50604051908082528060200260200182016040528015610829578160200160208202803683370190505b50905060005b838310156109ba575073ffffffffffffffffffffffffffffffffffffffff8716600090815260208190526040902080546003840486037fffffffffffffffffffffffffffffffffffffffffffffffffffffffffffffffff0191908290811061089357fe5b9060005260206000209060030201600001548284806001019550815181106108b757fe5b6020026020010181815250506000808973ffffffffffffffffffffffffffffffffffffffff1673ffffffffffffffffffffffffffffffffffffffff168152602001908152602001600020818154811061090c57fe5b90600052602060002090600302016001015482848060010195508151811061093057fe5b6020026020010181815250506000808973ffffffffffffffffffffffffffffffffffffffff1673ffffffffffffffffffffffffffffffffffffffff168152602001908152602001600020818154811061098557fe5b9060005260206000209060030201600201548284806001019550815181106109a957fe5b60200260200101818152505061082f565b509695505050505050565b60008060006109d333610c60565b610a3e57604080517f08c379a000000000000000000000000000000000000000000000000000000000815260206004820152601d60248201527f6f7261636c654d6f636b3a206e6f742061637469766574656420796574000000604482015290519081900360640190fd5b73ffffffffffffffffffffffffffffffffffffffff8416600090815260208190526040902054610acf57604080517f08c379a000000000000000000000000000000000000000000000000000000000815260206004820152601e60248201527f6f7261636c654d6f636b3a206e6f20707269636520617661696c61626c650000604482015290519081900360640190fd5b66038d7ea4c68000341015610b2f576040517f08c379a0000000000000000000000000000000000000000000000000000000008152600401808060200182810382526023815260200180610d756023913960400191505060405180910390fd5b610b423366038d7ea4c680003403610d1e565b610b4b846104ee565b9250925092509193909250565b73ffffffffffffffffffffffffffffffffffffffff81166000908152602081905260409020545b919050565b6000610b8f856104ee565b9250505081610b9c574391505b808211610bf4576040517f08c379a0000000000000000000000000000000000000000000000000000000008152600401808060200182810382526024815260200180610d986024913960400191505060405180910390fd5b5073ffffffffffffffffffffffffffffffffffffffff909316600090815260208181526040808320815160608101835295865285830194855290850195865280546001818101835591845291909220935160039091029093019283559051908201559051600290910155565b73ffffffffffffffffffffffffffffffffffffffff811660009081526001602052604081205442118015610cb8575073ffffffffffffffffffffffffffffffffffffffff821660009081526001602052604090205415155b15610cc557506001610b7f565b506000610b7f565b60016020526000908152604090205481565b60006020528160005260406000208181548110610cf857fe5b600091825260209091206003909102018054600182015460029092015490935090915083565b610d2782610d71565b73ffffffffffffffffffffffffffffffffffffffff166108fc829081150290604051600060405180830381858888f19350505050158015610d6c573d6000803e3d6000fd5b505050565b9056fe6f7261636c654d6f636b3a20696e73756666696369656e74206f7261636c65206665656f7261636c654d6f636b3a2077726f6e6720626c6f636b206e756d62657220696e646578a2646970667358221220a94ede6c5fe68107338873d0c4298df9d4330cdf2bee15dfb05619014e75fd2c64736f6c634300060c0033",
  "immutableReferences": {},
  "source": "// SPDX-License-Identifier: GPL-3.0-or-later\n\npragma solidity 0.6.12;\n\nimport \"@openzeppelin/contracts/token/ERC20/IERC20.sol\";\n\ncontract NEST3PriceOracleMock {\n    \n    // 10 Ether <=> 3,255 USDT\n    // uint256 public ethAmount_ = 10000000000000000000;\n    // uint256 public erc20Amount_ = 3255000000;\n    mapping(address => PriceInfo[]) public priceInfoList_;\n    mapping(address => uint256) public addressEffect_; //  Effective time of address to call prices\n\n    address public nestToken_;\n    uint256 destructionAmount = 0 ether; //  Amount of NEST to destroy to call prices\n    uint256 effectTime = 1 minutes; //  Waiting time to start calling prices\n\n    struct PriceInfo {\n        uint256 ethAmount;\n        uint256 erc20Amount;\n        uint256 blockNum;\n    }\n\n    constructor(address nest) public {\n        nestToken_ = nest;\n    }\n\n    // Activate the price checking function\n    function activation() public { // should not be called for multiple times, or effect time would postpone\n        IERC20(nestToken_).transferFrom(msg.sender, address(0), destructionAmount);\n        addressEffect_[msg.sender] = now + effectTime; // SHOULD ADD A BOOL TO FLAG ACTIVATED\n    }\n\n    function updateAndCheckPriceNow(address token)\n        external payable\n        returns(uint256 ethAmount, uint256 erc20Amount, uint256 blockNum)\n    {\n        require(checkUseNestPrice(msg.sender), \"oracleMock: not activeted yet\");\n        require(priceInfoList_[token].length > 0, \"oracleMock: no price available\");\n        // It's recommended to stop using .transfer() and .send() and instead use .call().\n        // https://consensys.github.io/smart-contract-best-practices/recommendations/#dont-use-transfer-or-send\n        require(msg.value >= 0.001 ether, \"oracleMock: insufficient oracle fee\");\n        repayEth(msg.sender, msg.value - 0.001 ether); // just use repayEth to simulate the real impl.\n        return checkPriceNow(token);\n    }\n\n    function updateAndCheckPriceList(address token, uint256 num)\n        external payable\n        returns (uint256[] memory)\n    {\n        require(checkUseNestPrice(msg.sender), \"oracleMock: not activeted yet\");\n        require(msg.value >= 0.01 ether, \"oracleMock: insufficient oracle fee\");\n        // msg.sender.transfer(msg.value - 0.01 ether); // return back\n        // It's recommended to stop using .transfer() and .send() and instead use .call().\n        // https://consensys.github.io/smart-contract-best-practices/recommendations/#dont-use-transfer-or-send\n        repayEth(msg.sender, msg.value - 0.01 ether); // just use repayEth to simulate the real impl.\n        return checkPriceList(token, num);\n    }\n\n    function checkPriceList(address token, uint256 num)\n        public\n        view\n        returns (uint256[] memory)\n    {\n        uint256 priceLength = priceInfoList_[token].length;\n        require(priceLength >= num, \"oracleMock: num too large\");\n        uint256 length = num*3;\n        uint256 i = 0;\n        uint256[] memory data = new uint256[](length);\n        uint _idx;\n        while (i < length) {\n            _idx = priceLength - 1 - (i/3);\n            data[i++] = priceInfoList_[token][_idx].ethAmount;\n            data[i++] = priceInfoList_[token][_idx].erc20Amount;\n            data[i++] = priceInfoList_[token][_idx].blockNum;\n        }\n        return data;\n    }\n\n    // // add prices to list\n    // function addPricesToList(\n    //     address token,\n    //     uint256 _ethAmount,\n    //     uint256 _erc20Amount,\n    //     uint256 _ethStep,\n    //     uint256 _ercStep,\n    //     uint256 _blockStep,\n    //     uint256 _cnt\n    // ) public {\n    //     uint256 _blockNum = block.number;\n    //     for (uint256 i = 0; i < _cnt; i++) {\n    //         addPriceToList(token, _ethAmount, _erc20Amount, _blockNum);\n    //         _ethAmount = _ethAmount * _ethStep / 100;\n    //         _erc20Amount = _erc20Amount * _ercStep / 100;\n    //         _blockNum = _blockNum + _blockStep;\n    //     }\n    // }\n\n    function addPriceToList(address token, uint256 _ethAmount, uint256 _erc20Amount, uint256 _blockNum) public {\n        (,, uint256 lastBlockNum) = checkPriceNow(token);\n        if (_blockNum == 0) {\n            _blockNum = block.number;\n        }\n        require(_blockNum > lastBlockNum, \"oracleMock: wrong block number index\");\n        priceInfoList_[token].push(PriceInfo({\n            ethAmount: _ethAmount,\n            erc20Amount: _erc20Amount,\n            blockNum: _blockNum\n        }));\n    }\n\n    function checkPriceNow(address token)\n        public view\n        returns (uint256 ethAmount, uint256 erc20Amount, uint256 blockNum)\n    {\n        uint256 _len = priceInfoList_[token].length;\n        if (_len == 0) {\n            return (0, 0, 0);\n        }\n        // return the newest price\n        ethAmount = priceInfoList_[token][_len - 1].ethAmount;\n        erc20Amount = priceInfoList_[token][_len - 1].erc20Amount;\n        blockNum = priceInfoList_[token][_len - 1].blockNum;\n    }\n\n    function getPriceLength(address token)\n        public view\n        returns (uint256)\n    {\n        return priceInfoList_[token].length;\n    }\n\n    function make_payable(address x) internal pure returns (address payable) {\n      return address(uint160(x));\n    }\n\n    // Transfer ETH\n    function repayEth(address addr, uint256 amount) private {\n        make_payable(addr).transfer(amount);\n    }\n\n    function checkUseNestPrice(address target) public view returns (bool) {\n        if (addressEffect_[target] < now && addressEffect_[target] != 0) {\n            return true;\n        } else {\n            return false;\n        }\n    }\n}",
  "sourcePath": "/Users/lixiansheng/Downloads/CoFix/contracts/mock/NEST3PriceOracleMock.sol",
  "compiler": {
    "name": "solc",
    "version": "0.6.12+commit.27d51765.Emscripten.clang"
  },
  "schemaVersion": "3.4.1",
  "updatedAt": "2021-05-11T03:07:10.422Z",
  "devdoc": {
    "kind": "dev",
    "methods": {},
    "version": 1
  },
  "userdoc": {
    "kind": "user",
    "methods": {},
    "version": 1
  }
}