{
  "contractName": "NEST36PriceOracleMock",
  "abi": [
    {
      "inputs": [
        {
          "internalType": "address",
          "name": "nest",
          "type": "address"
        }
      ],
      "stateMutability": "nonpayable",
      "type": "constructor"
    },
    {
      "inputs": [
        {
          "internalType": "address",
          "name": "",
          "type": "address"
        }
      ],
      "name": "addressEffect_",
      "outputs": [
        {
          "internalType": "uint256",
          "name": "",
          "type": "uint256"
        }
      ],
      "stateMutability": "view",
      "type": "function"
    },
    {
      "inputs": [],
      "name": "nestToken_",
      "outputs": [
        {
          "internalType": "address",
          "name": "",
          "type": "address"
        }
      ],
      "stateMutability": "view",
      "type": "function"
    },
    {
      "inputs": [
        {
          "internalType": "address",
          "name": "",
          "type": "address"
        }
      ],
      "name": "priceInfoMap",
      "outputs": [
        {
          "internalType": "uint256",
          "name": "latestPriceBlockNumber",
          "type": "uint256"
        },
        {
          "internalType": "uint256",
          "name": "latestPriceValue",
          "type": "uint256"
        },
        {
          "internalType": "uint256",
          "name": "triggeredPriceBlockNumber",
          "type": "uint256"
        },
        {
          "internalType": "uint256",
          "name": "triggeredPriceValue",
          "type": "uint256"
        },
        {
          "internalType": "uint256",
          "name": "triggeredAvgPrice",
          "type": "uint256"
        },
        {
          "internalType": "uint256",
          "name": "triggeredSigmaSQ",
          "type": "uint256"
        }
      ],
      "stateMutability": "view",
      "type": "function"
    },
    {
      "inputs": [
        {
          "internalType": "address",
          "name": "token",
          "type": "address"
        },
        {
          "internalType": "address",
          "name": "payback",
          "type": "address"
        }
      ],
      "name": "latestPriceAndTriggeredPriceInfo",
      "outputs": [
        {
          "internalType": "uint256",
          "name": "latestPriceBlockNumber",
          "type": "uint256"
        },
        {
          "internalType": "uint256",
          "name": "latestPriceValue",
          "type": "uint256"
        },
        {
          "internalType": "uint256",
          "name": "triggeredPriceBlockNumber",
          "type": "uint256"
        },
        {
          "internalType": "uint256",
          "name": "triggeredPriceValue",
          "type": "uint256"
        },
        {
          "internalType": "uint256",
          "name": "triggeredAvgPrice",
          "type": "uint256"
        },
        {
          "internalType": "uint256",
          "name": "triggeredSigmaSQ",
          "type": "uint256"
        }
      ],
      "stateMutability": "payable",
      "type": "function"
    },
    {
      "inputs": [
        {
          "internalType": "address",
          "name": "token",
          "type": "address"
        }
      ],
      "name": "latestPrice",
      "outputs": [
        {
          "internalType": "uint256",
          "name": "latestPriceBlockNumber",
          "type": "uint256"
        },
        {
          "internalType": "uint256",
          "name": "latestPriceValue",
          "type": "uint256"
        },
        {
          "internalType": "uint256",
          "name": "triggeredPriceBlockNumber",
          "type": "uint256"
        },
        {
          "internalType": "uint256",
          "name": "triggeredPriceValue",
          "type": "uint256"
        },
        {
          "internalType": "uint256",
          "name": "triggeredAvgPrice",
          "type": "uint256"
        },
        {
          "internalType": "uint256",
          "name": "triggeredSigmaSQ",
          "type": "uint256"
        }
      ],
      "stateMutability": "view",
      "type": "function"
    },
    {
      "inputs": [
        {
          "internalType": "address",
          "name": "token",
          "type": "address"
        }
      ],
      "name": "checkPriceNow",
      "outputs": [
        {
          "internalType": "uint256",
          "name": "latestPriceBlockNumber",
          "type": "uint256"
        },
        {
          "internalType": "uint256",
          "name": "latestPriceValue",
          "type": "uint256"
        },
        {
          "internalType": "uint256",
          "name": "triggeredPriceBlockNumber",
          "type": "uint256"
        },
        {
          "internalType": "uint256",
          "name": "triggeredPriceValue",
          "type": "uint256"
        },
        {
          "internalType": "uint256",
          "name": "triggeredAvgPrice",
          "type": "uint256"
        },
        {
          "internalType": "uint256",
          "name": "triggeredSigmaSQ",
          "type": "uint256"
        }
      ],
      "stateMutability": "view",
      "type": "function"
    },
    {
      "inputs": [
        {
          "internalType": "address",
          "name": "token",
          "type": "address"
        },
        {
          "internalType": "uint256",
          "name": "latestPriceValue",
          "type": "uint256"
        },
        {
          "internalType": "uint256",
          "name": "triggeredPrice",
          "type": "uint256"
        },
        {
          "internalType": "uint256",
          "name": "triggeredAvgPrice",
          "type": "uint256"
        },
        {
          "internalType": "uint256",
          "name": "triggeredSigmaSQ",
          "type": "uint256"
        }
      ],
      "name": "feedPrice",
      "outputs": [],
      "stateMutability": "nonpayable",
      "type": "function"
    },
    {
      "inputs": [
        {
          "internalType": "address",
          "name": "target",
          "type": "address"
        }
      ],
      "name": "checkUseNestPrice",
      "outputs": [
        {
          "internalType": "bool",
          "name": "",
          "type": "bool"
        }
      ],
      "stateMutability": "view",
      "type": "function"
    }
  ],
  "bytecode": "0x60806040526000600355603c60045534801561001a57600080fd5b506040516106533803806106538339818101604052602081101561003d57600080fd5b5051600280546001600160a01b0319166001600160a01b039092169190911790556105e68061006d6000396000f3fe60806040526004361061007b5760003560e01c8063b774fca41161004e578063b774fca4146101cb578063d3a2433e1461020b578063d3bba0671461025f578063fe0103e2146102b15761007b565b80631b44184814610080578063213c4ded146100f35780633e6da3171461014d57806353084eff1461018b575b600080fd5b34801561008c57600080fd5b506100c0600480360360208110156100a357600080fd5b503573ffffffffffffffffffffffffffffffffffffffff166102ec565b604080519687526020870195909552858501939093526060850191909152608084015260a0830152519081900360c00190f35b3480156100ff57600080fd5b5061014b600480360360a081101561011657600080fd5b5073ffffffffffffffffffffffffffffffffffffffff8135169060208101359060408101359060608101359060800135610333565b005b34801561015957600080fd5b50610162610382565b6040805173ffffffffffffffffffffffffffffffffffffffff9092168252519081900360200190f35b34801561019757600080fd5b506100c0600480360360208110156101ae57600080fd5b503573ffffffffffffffffffffffffffffffffffffffff1661039e565b3480156101d757600080fd5b506100c0600480360360208110156101ee57600080fd5b503573ffffffffffffffffffffffffffffffffffffffff166103e8565b34801561021757600080fd5b5061024b6004803603602081101561022e57600080fd5b503573ffffffffffffffffffffffffffffffffffffffff1661041d565b604080519115158252519081900360200190f35b34801561026b57600080fd5b5061029f6004803603602081101561028257600080fd5b503573ffffffffffffffffffffffffffffffffffffffff1661048b565b60408051918252519081900360200190f35b6100c0600480360360408110156102c757600080fd5b5073ffffffffffffffffffffffffffffffffffffffff8135811691602001351661049d565b73ffffffffffffffffffffffffffffffffffffffff166000908152602081905260409020600181015460038201546004830154600584015484546002909501549495939493565b73ffffffffffffffffffffffffffffffffffffffff9094166000908152602081905260409020600181019390935560038301919091556004820155600581019190915543808255600290910155565b60025473ffffffffffffffffffffffffffffffffffffffff1681565b73ffffffffffffffffffffffffffffffffffffffff166000908152602081905260409020805460018201546002830154600384015460048501546005909501549395929491939092565b600060208190529081526040902080546001820154600283015460038401546004850154600590950154939492939192909186565b73ffffffffffffffffffffffffffffffffffffffff811660009081526001602052604081205442118015610475575073ffffffffffffffffffffffffffffffffffffffff821660009081526001602052604090205415155b1561048257506001610486565b5060005b919050565b60016020526000908152604090205481565b600080600080600080662386f26fc10000341015610506576040517f08c379a000000000000000000000000000000000000000000000000000000000815260040180806020018281038252602381526020018061058e6023913960400191505060405180910390fd5b61051987662386f26fc100003403610537565b6105228861039e565b949d939c50919a509850965090945092505050565b6105408261058a565b73ffffffffffffffffffffffffffffffffffffffff166108fc829081150290604051600060405180830381858888f19350505050158015610585573d6000803e3d6000fd5b505050565b9056fe6f7261636c654d6f636b3a20696e73756666696369656e74206f7261636c6520666565a264697066735822122040908a7a8af34ec2581f6350a8b35d9132bd486714f3c50373416145be2f631264736f6c634300060c0033",
  "immutableReferences": {},
  "source": "// SPDX-License-Identifier: GPL-3.0-or-later\n\npragma solidity 0.6.12;\n\nimport \"@openzeppelin/contracts/token/ERC20/IERC20.sol\";\n\ncontract NEST36PriceOracleMock {\n    \n    // 10 Ether <=> 3,255 USDT\n    // uint256 public ethAmount_ = 10000000000000000000;\n    // uint256 public erc20Amount_ = 3255000000;\n    mapping(address => PriceInfo) public priceInfoMap;\n    mapping(address => uint256) public addressEffect_; //  Effective time of address to call prices\n\n    address public nestToken_;\n    uint256 destructionAmount = 0 ether; //  Amount of NEST to destroy to call prices\n    uint256 effectTime = 1 minutes; //  Waiting time to start calling prices\n\n    struct PriceInfo {\n        uint latestPriceBlockNumber;\n        uint latestPriceValue;\n        uint triggeredPriceBlockNumber;\n        uint triggeredPriceValue;\n        uint triggeredAvgPrice;\n        uint triggeredSigmaSQ;\n    }\n\n    constructor(address nest) public {\n        nestToken_ = nest;\n    }\n\n    // // Activate the price checking function\n    // function activate(address defi) public { // should not be called for multiple times, or effect time would postpone\n    //     IERC20(nestToken_).transferFrom(msg.sender, address(0), destructionAmount);\n    //     addressEffect_[defi] = now + effectTime; // SHOULD ADD A BOOL TO FLAG ACTIVATED\n    // }\n\n    function latestPriceAndTriggeredPriceInfo(address token, address payback)\n        external payable\n        returns (\n            uint latestPriceBlockNumber, \n            uint latestPriceValue,\n            uint triggeredPriceBlockNumber,\n            uint triggeredPriceValue,\n            uint triggeredAvgPrice,\n            uint triggeredSigmaSQ )\n    {\n        // require(checkUseNestPrice(msg.sender), \"oracleMock: not activeted yet\");\n        require(msg.value >= 0.01 ether, \"oracleMock: insufficient oracle fee\");\n        repayEth(payback, msg.value - 0.01 ether); // just use repayEth to simulate the real impl.\n        return latestPrice(token);\n    }\n\n    function latestPrice(address token)\n        public\n        view\n        returns (\n            uint latestPriceBlockNumber, \n            uint latestPriceValue,\n            uint triggeredPriceBlockNumber,\n            uint triggeredPriceValue,\n            uint triggeredAvgPrice,\n            uint triggeredSigmaSQ )\n    {\n        return (priceInfoMap[token].latestPriceBlockNumber, priceInfoMap[token].latestPriceValue, priceInfoMap[token].triggeredPriceBlockNumber, priceInfoMap[token].triggeredPriceValue, priceInfoMap[token].triggeredAvgPrice, priceInfoMap[token].triggeredSigmaSQ);\n    }\n\n    function checkPriceNow(address token)\n        public view\n        returns (\n            uint latestPriceBlockNumber, \n            uint latestPriceValue,\n            uint triggeredPriceBlockNumber,\n            uint triggeredPriceValue,\n            uint triggeredAvgPrice,\n            uint triggeredSigmaSQ )\n    {\n        // return the newest price\n        latestPriceValue = priceInfoMap[token].latestPriceValue;\n        triggeredPriceValue = priceInfoMap[token].triggeredPriceValue;\n        triggeredAvgPrice = priceInfoMap[token].triggeredAvgPrice;\n        triggeredSigmaSQ = priceInfoMap[token].triggeredSigmaSQ;\n        latestPriceBlockNumber = priceInfoMap[token].latestPriceBlockNumber;\n        triggeredPriceBlockNumber = priceInfoMap[token].triggeredPriceBlockNumber;\n    }\n\n    function feedPrice(address token, uint256 latestPriceValue, uint256 triggeredPrice, uint256 triggeredAvgPrice, uint256 triggeredSigmaSQ) external {\n        priceInfoMap[token].latestPriceValue = latestPriceValue;\n        priceInfoMap[token].triggeredPriceValue = triggeredPrice;\n        priceInfoMap[token].triggeredAvgPrice = triggeredAvgPrice;\n        priceInfoMap[token].triggeredSigmaSQ = triggeredSigmaSQ;\n        priceInfoMap[token].latestPriceBlockNumber = block.number;\n        priceInfoMap[token].triggeredPriceBlockNumber = block.number;\n    }\n\n    function make_payable(address x) internal pure returns (address payable) {\n      return address(uint160(x));\n    }\n\n    // Transfer ETH\n    function repayEth(address addr, uint256 amount) private {\n        make_payable(addr).transfer(amount);\n    }\n\n    function checkUseNestPrice(address target) public view returns (bool) {\n        if (addressEffect_[target] < now && addressEffect_[target] != 0) {\n            return true;\n        } else {\n            return false;\n        }\n    }\n}",
  "sourcePath": "/Users/lixiansheng/Downloads/cofix2/contracts/mock/NEST36PriceOracleMock.sol",
  "compiler": {
    "name": "solc",
    "version": "0.6.12+commit.27d51765.Emscripten.clang"
  },
  "schemaVersion": "3.3.3",
  "updatedAt": "2021-05-14T05:46:42.591Z",
  "devdoc": {
    "kind": "dev",
    "methods": {},
    "version": 1
  },
  "userdoc": {
    "kind": "user",
    "methods": {},
    "version": 1
  }
}