{
  "contractName": "NEST3VoteFactoryMock",
  "abi": [
    {
      "inputs": [
        {
          "internalType": "address",
          "name": "_offerPrice",
          "type": "address"
        }
      ],
      "stateMutability": "nonpayable",
      "type": "constructor"
    },
    {
      "inputs": [
        {
          "internalType": "string",
          "name": "",
          "type": "string"
        }
      ],
      "name": "contractMapping",
      "outputs": [
        {
          "internalType": "address",
          "name": "",
          "type": "address"
        }
      ],
      "stateMutability": "view",
      "type": "function"
    },
    {
      "inputs": [],
      "name": "governance",
      "outputs": [
        {
          "internalType": "address",
          "name": "",
          "type": "address"
        }
      ],
      "stateMutability": "view",
      "type": "function"
    },
    {
      "inputs": [
        {
          "internalType": "address",
          "name": "_offerPrice",
          "type": "address"
        }
      ],
      "name": "setOfferPrice",
      "outputs": [],
      "stateMutability": "nonpayable",
      "type": "function"
    },
    {
      "inputs": [
        {
          "internalType": "string",
          "name": "name",
          "type": "string"
        }
      ],
      "name": "checkAddress",
      "outputs": [
        {
          "internalType": "address",
          "name": "contractAddress",
          "type": "address"
        }
      ],
      "stateMutability": "view",
      "type": "function"
    }
  ],
  "bytecode": "0x608060405234801561001057600080fd5b506040516104363803806104368339818101604052602081101561003357600080fd5b505160408051716e6573742e76332e6f66666572507269636560701b815260006012820152905190819003603201902080546001600160a01b039092166001600160a01b0319928316179055600180549091163317905561039d806100996000396000f3fe608060405234801561001057600080fd5b506004361061004c5760003560e01c80635aa6e675146100515780638fe77e8614610082578063ecf85d7b146100f2578063fcc5093614610198575b600080fd5b6100596101cd565b6040805173ffffffffffffffffffffffffffffffffffffffff9092168252519081900360200190f35b6100596004803603602081101561009857600080fd5b8101906020810181356401000000008111156100b357600080fd5b8201836020820111156100c557600080fd5b803590602001918460018302840111640100000000831117156100e757600080fd5b5090925090506101e9565b6100596004803603602081101561010857600080fd5b81019060208101813564010000000081111561012357600080fd5b82018360208201111561013557600080fd5b8035906020019184600183028401116401000000008311171561015757600080fd5b91908080601f01602080910402602001604051908101604052809392919081815260200183838082843760009201919091525092955061022f945050505050565b6101cb600480360360208110156101ae57600080fd5b503573ffffffffffffffffffffffffffffffffffffffff16610262565b005b60015473ffffffffffffffffffffffffffffffffffffffff1681565b600080838360405180838380828437919091019485525050604051928390036020019092205473ffffffffffffffffffffffffffffffffffffffff169250505092915050565b805160208183018101805160008252928201919093012091525473ffffffffffffffffffffffffffffffffffffffff1681565b60015473ffffffffffffffffffffffffffffffffffffffff1633146102e857604080517f08c379a000000000000000000000000000000000000000000000000000000000815260206004820152601860248201527f766f7465466163746f72793a2021676f7665726e616e63650000000000000000604482015290519081900360640190fd5b604080517f6e6573742e76332e6f66666572507269636500000000000000000000000000008152600060128201529051908190036032019020805473ffffffffffffffffffffffffffffffffffffffff9092167fffffffffffffffffffffffff000000000000000000000000000000000000000090921691909117905556fea2646970667358221220a5b1fb3cc3d85799d774390e00050f139f3f26da27d30273b96f3029c487445164736f6c634300060c0033",
  "immutableReferences": {},
  "source": "// SPDX-License-Identifier: GPL-3.0-or-later\n\npragma solidity 0.6.12;\nimport \"../interface/INest_3_VoteFactory.sol\";\n\ncontract NEST3VoteFactoryMock is INest_3_VoteFactory {\n    mapping(string => address) public contractMapping;\n    address public governance;\n\n    constructor (address _offerPrice) public {\n        contractMapping[\"nest.v3.offerPrice\"] = _offerPrice; // nest price oracle\n        governance= msg.sender;\n    }\n\n    function setOfferPrice(address _offerPrice) public {\n        require(msg.sender == governance, \"voteFactory: !governance\");\n        contractMapping[\"nest.v3.offerPrice\"] = _offerPrice; // nest price oracle\n    }\n\n\tfunction checkAddress(string calldata name) external override view returns (address contractAddress) {\n        return contractMapping[name];\n    }\n}",
  "sourcePath": "/Users/lixiansheng/Downloads/cofix2/contracts/mock/NEST3VoteFactoryMock.sol",
  "compiler": {
    "name": "solc",
    "version": "0.6.12+commit.27d51765.Emscripten.clang"
  },
  "schemaVersion": "3.3.3",
  "updatedAt": "2021-05-14T05:46:42.608Z",
  "devdoc": {
    "kind": "dev",
    "methods": {},
    "version": 1
  },
  "userdoc": {
    "kind": "user",
    "methods": {},
    "version": 1
  }
}