{
  "contractName": "NEST35PriceOracleConstMock",
  "abi": [
    {
      "inputs": [
        {
          "internalType": "address",
          "name": "",
          "type": "address"
        }
      ],
      "name": "priceInfoMap",
      "outputs": [
        {
          "internalType": "uint256",
          "name": "ethAmount",
          "type": "uint256"
        },
        {
          "internalType": "uint256",
          "name": "erc20Amount",
          "type": "uint256"
        },
        {
          "internalType": "uint128",
          "name": "avgPrice",
          "type": "uint128"
        },
        {
          "internalType": "int128",
          "name": "vola",
          "type": "int128"
        },
        {
          "internalType": "uint256",
          "name": "lastUpdateBlock",
          "type": "uint256"
        }
      ],
      "stateMutability": "view",
      "type": "function"
    },
    {
      "inputs": [
        {
          "internalType": "address",
          "name": "token",
          "type": "address"
        },
        {
          "internalType": "address",
          "name": "payback",
          "type": "address"
        }
      ],
      "name": "queryPriceAvgVola",
      "outputs": [
        {
          "internalType": "uint256",
          "name": "ethAmount",
          "type": "uint256"
        },
        {
          "internalType": "uint256",
          "name": "tokenAmount",
          "type": "uint256"
        },
        {
          "internalType": "uint128",
          "name": "avgPrice",
          "type": "uint128"
        },
        {
          "internalType": "int128",
          "name": "vola",
          "type": "int128"
        },
        {
          "internalType": "uint256",
          "name": "bn",
          "type": "uint256"
        }
      ],
      "stateMutability": "payable",
      "type": "function"
    },
    {
      "inputs": [
        {
          "internalType": "address",
          "name": "token",
          "type": "address"
        }
      ],
      "name": "latestPrice",
      "outputs": [
        {
          "internalType": "uint256",
          "name": "ethAmount",
          "type": "uint256"
        },
        {
          "internalType": "uint256",
          "name": "tokenAmount",
          "type": "uint256"
        },
        {
          "internalType": "uint128",
          "name": "avgPrice",
          "type": "uint128"
        },
        {
          "internalType": "int128",
          "name": "vola",
          "type": "int128"
        },
        {
          "internalType": "uint256",
          "name": "bn",
          "type": "uint256"
        }
      ],
      "stateMutability": "view",
      "type": "function"
    },
    {
      "inputs": [
        {
          "internalType": "address",
          "name": "token",
          "type": "address"
        },
        {
          "internalType": "uint256",
          "name": "ethAmount",
          "type": "uint256"
        },
        {
          "internalType": "uint256",
          "name": "erc20Amount",
          "type": "uint256"
        },
        {
          "internalType": "uint128",
          "name": "avgPrice",
          "type": "uint128"
        },
        {
          "internalType": "int128",
          "name": "vola",
          "type": "int128"
        }
      ],
      "name": "feedPrice",
      "outputs": [],
      "stateMutability": "nonpayable",
      "type": "function"
    }
  ],
  "bytecode": "0x608060405234801561001057600080fd5b5061044d806100206000396000f3fe60806040526004361061003f5760003560e01c806353084eff14610044578063b774fca4146100c3578063bd224ce114610103578063d72c69eb14610172575b600080fd5b34801561005057600080fd5b506100846004803603602081101561006757600080fd5b503573ffffffffffffffffffffffffffffffffffffffff166101ad565b6040805195865260208601949094526fffffffffffffffffffffffffffffffff90921684840152600f0b60608401526080830152519081900360a00190f35b3480156100cf57600080fd5b50610084600480360360208110156100e657600080fd5b503573ffffffffffffffffffffffffffffffffffffffff16610216565b34801561010f57600080fd5b50610170600480360360a081101561012657600080fd5b5073ffffffffffffffffffffffffffffffffffffffff813516906020810135906040810135906fffffffffffffffffffffffffffffffff6060820135169060800135600f0b610269565b005b6100846004803603604081101561018857600080fd5b5073ffffffffffffffffffffffffffffffffffffffff81358116916020013516610307565b73ffffffffffffffffffffffffffffffffffffffff166000908152602081905260409020805460018201546002830154600390930154919390926fffffffffffffffffffffffffffffffff811692700100000000000000000000000000000000909104600f0b91565b6000602081905290815260409020805460018201546002830154600390930154919290916fffffffffffffffffffffffffffffffff8216917001000000000000000000000000000000009004600f0b9085565b73ffffffffffffffffffffffffffffffffffffffff94909416600090815260208190526040902092835560018301919091556002820180547fffffffffffffffffffffffffffffffff00000000000000000000000000000000166fffffffffffffffffffffffffffffffff928316178216700100000000000000000000000000000000600f9590950b92909216939093021790915543600390910155565b6000806000806000662386f26fc1000034101561036f576040517f08c379a00000000000000000000000000000000000000000000000000000000081526004018080602001828103825260238152602001806103f56023913960400191505060405180910390fd5b61038286662386f26fc10000340361039e565b61038b876101ad565b939b929a50909850965090945092505050565b6103a7826103f1565b73ffffffffffffffffffffffffffffffffffffffff166108fc829081150290604051600060405180830381858888f193505050501580156103ec573d6000803e3d6000fd5b505050565b9056fe6f7261636c654d6f636b3a20696e73756666696369656e74206f7261636c6520666565a26469706673582212206fb5426607694acea67ca613a7a1616aadd93fa2ba58d59569b81f7f9024434464736f6c634300060c0033",
  "immutableReferences": {},
  "source": "// SPDX-License-Identifier: GPL-3.0-or-later\n\npragma solidity 0.6.12;\n// import \"../interface/INest_3_OfferPrice.sol\";\n\ncontract NEST35PriceOracleConstMock {\n    \n    mapping (address => PriceInfo) public priceInfoMap;\n\n    struct PriceInfo {\n        uint256 ethAmount;\n        uint256 erc20Amount;\n        uint128 avgPrice;\n        int128 vola;\n        uint256 lastUpdateBlock;\n    }\n\n    // NEST Price Oracle\n    // https://etherscan.io/address/0x7722891Ee45aD38AE05bDA8349bA4CF23cFd270F#readContract\n\n    // USDT 0xdAC17F958D2ee523a2206206994597C13D831ec7\n    // 10 Ether <=> 3,862.6 USDT, (386.26 USDT/ETH)\n    // uint256 public ethAmount = 10000000000000000000;\n    // uint256 public erc20Amount = 3862600000;\n\n    // HBTC 0x0316EB71485b0Ab14103307bf65a021042c6d380\n    // 10 Ether <=> 0.33988 HBTC (0.033988 HBTC/ETH)\n    // uint256 public ethAmount = 10000000000000000000;\n    // uint256 public erc20Amount = 339880000000000000;\n\n    // 11,364.6 USDT/BTC\n\n    function queryPriceAvgVola(address token, address payback)\n        external payable\n        returns (uint256 ethAmount, uint256 tokenAmount, uint128 avgPrice, int128 vola, uint256 bn)\n    {\n        require(msg.value >= 0.01 ether, \"oracleMock: insufficient oracle fee\");\n        repayEth(payback, msg.value - 0.01 ether); // just use repayEth to simulate the real impl.\n        return latestPrice(token);\n    }\n\n    function latestPrice(address token)\n        public\n        view\n        returns (uint256 ethAmount, uint256 tokenAmount, uint128 avgPrice, int128 vola, uint256 bn)\n    {\n        return (priceInfoMap[token].ethAmount, priceInfoMap[token].erc20Amount, priceInfoMap[token].avgPrice, priceInfoMap[token].vola, priceInfoMap[token].lastUpdateBlock);\n    }\n\n    function feedPrice(address token, uint256 ethAmount, uint256 erc20Amount, uint128 avgPrice, int128 vola) external {\n        priceInfoMap[token].ethAmount = ethAmount;\n        priceInfoMap[token].erc20Amount = erc20Amount;\n        priceInfoMap[token].avgPrice = avgPrice;\n        priceInfoMap[token].vola = vola;\n        priceInfoMap[token].lastUpdateBlock = block.number;\n    }\n\n    function make_payable(address x) internal pure returns (address payable) {\n      return address(uint160(x));\n    }\n\n    // Transfer ETH\n    function repayEth(address addr, uint256 amount) private {\n        make_payable(addr).transfer(amount);\n    }\n}",
  "sourcePath": "/Users/lixiansheng/Downloads/CoFix/contracts/mock/NEST35PriceOracleConstMock.sol",
  "compiler": {
    "name": "solc",
    "version": "0.6.12+commit.27d51765.Emscripten.clang"
  },
  "schemaVersion": "3.4.1",
  "updatedAt": "2021-05-11T03:07:10.378Z",
  "devdoc": {
    "kind": "dev",
    "methods": {},
    "version": 1
  },
  "userdoc": {
    "kind": "user",
    "methods": {},
    "version": 1
  }
}