{
  "contractName": "NEST36PriceOracleConstMock",
  "abi": [
    {
      "inputs": [
        {
          "internalType": "address",
          "name": "",
          "type": "address"
        }
      ],
      "name": "priceInfoMap",
      "outputs": [
        {
          "internalType": "uint256",
          "name": "latestPriceBlockNumber",
          "type": "uint256"
        },
        {
          "internalType": "uint256",
          "name": "latestPriceValue",
          "type": "uint256"
        },
        {
          "internalType": "uint256",
          "name": "triggeredPriceBlockNumber",
          "type": "uint256"
        },
        {
          "internalType": "uint256",
          "name": "triggeredPriceValue",
          "type": "uint256"
        },
        {
          "internalType": "uint256",
          "name": "triggeredAvgPrice",
          "type": "uint256"
        },
        {
          "internalType": "uint256",
          "name": "triggeredSigmaSQ",
          "type": "uint256"
        }
      ],
      "stateMutability": "view",
      "type": "function"
    },
    {
      "inputs": [
        {
          "internalType": "address",
          "name": "token",
          "type": "address"
        },
        {
          "internalType": "address",
          "name": "payback",
          "type": "address"
        }
      ],
      "name": "latestPriceAndTriggeredPriceInfo",
      "outputs": [
        {
          "internalType": "uint256",
          "name": "latestPriceBlockNumber",
          "type": "uint256"
        },
        {
          "internalType": "uint256",
          "name": "latestPriceValue",
          "type": "uint256"
        },
        {
          "internalType": "uint256",
          "name": "triggeredPriceBlockNumber",
          "type": "uint256"
        },
        {
          "internalType": "uint256",
          "name": "triggeredPriceValue",
          "type": "uint256"
        },
        {
          "internalType": "uint256",
          "name": "triggeredAvgPrice",
          "type": "uint256"
        },
        {
          "internalType": "uint256",
          "name": "triggeredSigmaSQ",
          "type": "uint256"
        }
      ],
      "stateMutability": "payable",
      "type": "function"
    },
    {
      "inputs": [
        {
          "internalType": "address",
          "name": "token",
          "type": "address"
        }
      ],
      "name": "latestPrice",
      "outputs": [
        {
          "internalType": "uint256",
          "name": "latestPriceBlockNumber",
          "type": "uint256"
        },
        {
          "internalType": "uint256",
          "name": "latestPriceValue",
          "type": "uint256"
        },
        {
          "internalType": "uint256",
          "name": "triggeredPriceBlockNumber",
          "type": "uint256"
        },
        {
          "internalType": "uint256",
          "name": "triggeredPriceValue",
          "type": "uint256"
        },
        {
          "internalType": "uint256",
          "name": "triggeredAvgPrice",
          "type": "uint256"
        },
        {
          "internalType": "uint256",
          "name": "triggeredSigmaSQ",
          "type": "uint256"
        }
      ],
      "stateMutability": "view",
      "type": "function"
    },
    {
      "inputs": [
        {
          "internalType": "address",
          "name": "token",
          "type": "address"
        },
        {
          "internalType": "uint256",
          "name": "latestPriceValue",
          "type": "uint256"
        },
        {
          "internalType": "uint256",
          "name": "triggeredPrice",
          "type": "uint256"
        },
        {
          "internalType": "uint256",
          "name": "triggeredAvgPrice",
          "type": "uint256"
        },
        {
          "internalType": "uint256",
          "name": "triggeredSigmaSQ",
          "type": "uint256"
        }
      ],
      "name": "feedPrice",
      "outputs": [],
      "stateMutability": "nonpayable",
      "type": "function"
    }
  ],
  "bytecode": "0x608060405234801561001057600080fd5b506103a3806100206000396000f3fe60806040526004361061003f5760003560e01c8063213c4ded1461004457806353084eff1461009e578063b774fca414610111578063fe0103e214610151575b600080fd5b34801561005057600080fd5b5061009c600480360360a081101561006757600080fd5b5073ffffffffffffffffffffffffffffffffffffffff813516906020810135906040810135906060810135906080013561018c565b005b3480156100aa57600080fd5b506100de600480360360208110156100c157600080fd5b503573ffffffffffffffffffffffffffffffffffffffff166101db565b604080519687526020870195909552858501939093526060850191909152608084015260a0830152519081900360c00190f35b34801561011d57600080fd5b506100de6004803603602081101561013457600080fd5b503573ffffffffffffffffffffffffffffffffffffffff16610225565b6100de6004803603604081101561016757600080fd5b5073ffffffffffffffffffffffffffffffffffffffff8135811691602001351661025a565b73ffffffffffffffffffffffffffffffffffffffff9094166000908152602081905260409020600181019390935560038301919091556004820155600581019190915543808255600290910155565b73ffffffffffffffffffffffffffffffffffffffff166000908152602081905260409020805460018201546002830154600384015460048501546005909501549395929491939092565b600060208190529081526040902080546001820154600283015460038401546004850154600590950154939492939192909186565b600080600080600080662386f26fc100003410156102c3576040517f08c379a000000000000000000000000000000000000000000000000000000000815260040180806020018281038252602381526020018061034b6023913960400191505060405180910390fd5b6102d687662386f26fc1000034036102f4565b6102df886101db565b949d939c50919a509850965090945092505050565b6102fd82610347565b73ffffffffffffffffffffffffffffffffffffffff166108fc829081150290604051600060405180830381858888f19350505050158015610342573d6000803e3d6000fd5b505050565b9056fe6f7261636c654d6f636b3a20696e73756666696369656e74206f7261636c6520666565a26469706673582212203804b71454f21c626c39f309107d3099711c546cd3a05d7400af679b2df8b75064736f6c634300060c0033",
  "immutableReferences": {},
  "source": "// SPDX-License-Identifier: GPL-3.0-or-later\n\npragma solidity 0.6.12;\n// import \"../interface/INest_3_OfferPrice.sol\";\n\ncontract NEST36PriceOracleConstMock {\n    \n    mapping (address => PriceInfo) public priceInfoMap;\n\n    struct PriceInfo {\n        uint latestPriceBlockNumber;\n        uint latestPriceValue;\n        uint triggeredPriceBlockNumber;\n        uint triggeredPriceValue;\n        uint triggeredAvgPrice;\n        uint triggeredSigmaSQ;\n    }\n\n    // NEST Price Oracle\n    // https://etherscan.io/address/0x7722891Ee45aD38AE05bDA8349bA4CF23cFd270F#readContract\n\n    // USDT 0xdAC17F958D2ee523a2206206994597C13D831ec7\n    // 10 Ether <=> 3,862.6 USDT, (386.26 USDT/ETH)\n    // uint256 public ethAmount = 10000000000000000000;\n    // uint256 public erc20Amount = 3862600000;\n\n    // HBTC 0x0316EB71485b0Ab14103307bf65a021042c6d380\n    // 10 Ether <=> 0.33988 HBTC (0.033988 HBTC/ETH)\n    // uint256 public ethAmount = 10000000000000000000;\n    // uint256 public erc20Amount = 339880000000000000;\n\n    // 11,364.6 USDT/BTC\n\n    function latestPriceAndTriggeredPriceInfo(address token, address payback)\n        external payable\n        returns (\n            uint latestPriceBlockNumber, \n            uint latestPriceValue,\n            uint triggeredPriceBlockNumber,\n            uint triggeredPriceValue,\n            uint triggeredAvgPrice,\n            uint triggeredSigmaSQ )\n    {\n        require(msg.value >= 0.01 ether, \"oracleMock: insufficient oracle fee\");\n        repayEth(payback, msg.value - 0.01 ether); // just use repayEth to simulate the real impl.\n        return latestPrice(token);\n    }\n\n    function latestPrice(address token)\n        public\n        view\n        returns (\n            uint latestPriceBlockNumber, \n            uint latestPriceValue,\n            uint triggeredPriceBlockNumber,\n            uint triggeredPriceValue,\n            uint triggeredAvgPrice,\n            uint triggeredSigmaSQ )\n    {\n        return (priceInfoMap[token].latestPriceBlockNumber, priceInfoMap[token].latestPriceValue, priceInfoMap[token].triggeredPriceBlockNumber, priceInfoMap[token].triggeredPriceValue, priceInfoMap[token].triggeredAvgPrice, priceInfoMap[token].triggeredSigmaSQ);\n    }\n\n    function feedPrice(address token, uint256 latestPriceValue, uint256 triggeredPrice, uint256 triggeredAvgPrice, uint256 triggeredSigmaSQ) external {\n        priceInfoMap[token].latestPriceValue = latestPriceValue;\n        priceInfoMap[token].triggeredPriceValue = triggeredPrice;\n        priceInfoMap[token].triggeredAvgPrice = triggeredAvgPrice;\n        priceInfoMap[token].triggeredSigmaSQ = triggeredSigmaSQ;\n        priceInfoMap[token].latestPriceBlockNumber = block.number;\n        priceInfoMap[token].triggeredPriceBlockNumber = block.number;\n    }\n\n    function make_payable(address x) internal pure returns (address payable) {\n      return address(uint160(x));\n    }\n\n    // Transfer ETH\n    function repayEth(address addr, uint256 amount) private {\n        make_payable(addr).transfer(amount);\n    }\n}",
  "sourcePath": "/Users/lixiansheng/Downloads/CoFix/contracts/mock/NEST36PriceOracleConstMock.sol",
  "compiler": {
    "name": "solc",
    "version": "0.6.12+commit.27d51765.Emscripten.clang"
  },
  "schemaVersion": "3.4.1",
  "updatedAt": "2021-05-11T03:07:10.395Z",
  "devdoc": {
    "kind": "dev",
    "methods": {},
    "version": 1
  },
  "userdoc": {
    "kind": "user",
    "methods": {},
    "version": 1
  }
}