{
  "contractName": "NEST3PriceOracleConstMock",
  "abi": [
    {
      "inputs": [
        {
          "internalType": "address",
          "name": "",
          "type": "address"
        }
      ],
      "name": "priceInfoMap",
      "outputs": [
        {
          "internalType": "uint256",
          "name": "ethAmount",
          "type": "uint256"
        },
        {
          "internalType": "uint256",
          "name": "erc20Amount",
          "type": "uint256"
        },
        {
          "internalType": "uint256",
          "name": "lastUpdateBlock",
          "type": "uint256"
        }
      ],
      "stateMutability": "view",
      "type": "function"
    },
    {
      "inputs": [
        {
          "internalType": "address",
          "name": "token",
          "type": "address"
        },
        {
          "internalType": "uint256",
          "name": "num",
          "type": "uint256"
        }
      ],
      "name": "updateAndCheckPriceList",
      "outputs": [
        {
          "internalType": "uint256[]",
          "name": "",
          "type": "uint256[]"
        }
      ],
      "stateMutability": "payable",
      "type": "function"
    },
    {
      "inputs": [
        {
          "internalType": "address",
          "name": "token",
          "type": "address"
        },
        {
          "internalType": "uint256",
          "name": "num",
          "type": "uint256"
        }
      ],
      "name": "checkPriceList",
      "outputs": [
        {
          "internalType": "uint256[]",
          "name": "",
          "type": "uint256[]"
        }
      ],
      "stateMutability": "view",
      "type": "function"
    },
    {
      "inputs": [
        {
          "internalType": "address",
          "name": "token",
          "type": "address"
        }
      ],
      "name": "checkPriceNow",
      "outputs": [
        {
          "internalType": "uint256",
          "name": "ethAmount",
          "type": "uint256"
        },
        {
          "internalType": "uint256",
          "name": "erc20Amount",
          "type": "uint256"
        },
        {
          "internalType": "uint256",
          "name": "blockNum",
          "type": "uint256"
        }
      ],
      "stateMutability": "view",
      "type": "function"
    },
    {
      "inputs": [
        {
          "internalType": "address",
          "name": "token",
          "type": "address"
        },
        {
          "internalType": "uint256",
          "name": "ethAmount",
          "type": "uint256"
        },
        {
          "internalType": "uint256",
          "name": "erc20Amount",
          "type": "uint256"
        }
      ],
      "name": "feedPrice",
      "outputs": [],
      "stateMutability": "nonpayable",
      "type": "function"
    }
  ],
  "bytecode": "0x608060405234801561001057600080fd5b50610610806100206000396000f3fe60806040526004361061005a5760003560e01c80631b441848116100435780631b441848146101365780639f15554114610194578063b774fca4146101da5761005a565b806308d0099e1461005f5780631083d8ab146100e8575b600080fd5b6100986004803603604081101561007557600080fd5b5073ffffffffffffffffffffffffffffffffffffffff813516906020013561021a565b60408051602080825283518183015283519192839290830191858101910280838360005b838110156100d45781810151838201526020016100bc565b505050509050019250505060405180910390f35b3480156100f457600080fd5b506101346004803603606081101561010b57600080fd5b5073ffffffffffffffffffffffffffffffffffffffff81351690602081013590604001356102a0565b005b34801561014257600080fd5b506101766004803603602081101561015957600080fd5b503573ffffffffffffffffffffffffffffffffffffffff166102da565b60408051938452602084019290925282820152519081900360600190f35b3480156101a057600080fd5b50610098600480360360408110156101b757600080fd5b5073ffffffffffffffffffffffffffffffffffffffff8135169060200135610334565b3480156101e657600080fd5b50610176600480360360208110156101fd57600080fd5b503573ffffffffffffffffffffffffffffffffffffffff16610540565b6060662386f26fc1000034101561027c576040517f08c379a00000000000000000000000000000000000000000000000000000000081526004018080602001828103825260238152602001806105b86023913960400191505060405180910390fd5b61028f33662386f26fc100003403610561565b6102998383610334565b9392505050565b73ffffffffffffffffffffffffffffffffffffffff9092166000908152602081905260409020908155600181019190915543600290910155565b73ffffffffffffffffffffffffffffffffffffffff1660009081526020819052604090208054600182015460029092015490927fffffffffffffffffffffffffffffffffffffffffffffffffffffffffffffffff90910190565b6060600382026000828267ffffffffffffffff8111801561035457600080fd5b5060405190808252806020026020018201604052801561037e578160200160208202803683370190505b5073ffffffffffffffffffffffffffffffffffffffff871660009081526020819052604081206002015491925090861061041957604080517f08c379a000000000000000000000000000000000000000000000000000000000815260206004820152601e60248201527f6f7261636c654d6f636b3a20626c6f636b4e756d20746f6f20736d616c6c0000604482015290519081900360640190fd5b83831015610536575073ffffffffffffffffffffffffffffffffffffffff861660009081526020819052604090205481516001840193600381049291849190811061046057fe5b6020026020010181815250506000808873ffffffffffffffffffffffffffffffffffffffff1673ffffffffffffffffffffffffffffffffffffffff168152602001908152602001600020600101548284806001019550815181106104c057fe5b6020026020010181815250508060016000808a73ffffffffffffffffffffffffffffffffffffffff1673ffffffffffffffffffffffffffffffffffffffff16815260200190815260200160002060020154030382848060010195508151811061052557fe5b602002602001018181525050610419565b5095945050505050565b60006020819052908152604090208054600182015460029092015490919083565b61056a826105b4565b73ffffffffffffffffffffffffffffffffffffffff166108fc829081150290604051600060405180830381858888f193505050501580156105af573d6000803e3d6000fd5b505050565b9056fe6f7261636c654d6f636b3a20696e73756666696369656e74206f7261636c6520666565a2646970667358221220aab1587056dd1535123293eac212bc62ff699619a5daa1dc37ebbf0962509f1764736f6c634300060c0033",
  "immutableReferences": {},
  "source": "// SPDX-License-Identifier: GPL-3.0-or-later\n\npragma solidity 0.6.12;\n// import \"../interface/INest_3_OfferPrice.sol\";\n\ncontract NEST3PriceOracleConstMock {\n    \n    mapping (address => PriceInfo) public priceInfoMap;\n\n    struct PriceInfo {\n        uint256 ethAmount;\n        uint256 erc20Amount;\n        uint256 lastUpdateBlock;\n    }\n\n    // NEST Price Oracle\n    // https://etherscan.io/address/0x7722891Ee45aD38AE05bDA8349bA4CF23cFd270F#readContract\n\n    // USDT 0xdAC17F958D2ee523a2206206994597C13D831ec7\n    // 10 Ether <=> 3,862.6 USDT, (386.26 USDT/ETH)\n    // uint256 public ethAmount = 10000000000000000000;\n    // uint256 public erc20Amount = 3862600000;\n\n    // HBTC 0x0316EB71485b0Ab14103307bf65a021042c6d380\n    // 10 Ether <=> 0.33988 HBTC (0.033988 HBTC/ETH)\n    // uint256 public ethAmount = 10000000000000000000;\n    // uint256 public erc20Amount = 339880000000000000;\n\n    // 11,364.6 USDT/BTC\n\n    function updateAndCheckPriceList(address token, uint256 num)\n        external payable\n        returns (uint256[] memory)\n    {\n        require(msg.value >= 0.01 ether, \"oracleMock: insufficient oracle fee\");\n        repayEth(msg.sender, msg.value - 0.01 ether); // just use repayEth to simulate the real impl.\n        return checkPriceList(token, num);\n    }\n\n    function checkPriceList(address token, uint256 num)\n        public\n        view\n        returns (uint256[] memory)\n    {\n        uint256 length = num*3;\n        uint256 i = 0;\n        uint256[] memory data = new uint256[](length);\n        uint _idx;\n        require(priceInfoMap[token].lastUpdateBlock > num, \"oracleMock: blockNum too small\");\n        while (i < length) {\n            _idx = (i/3);\n            data[i++] = priceInfoMap[token].ethAmount;\n            data[i++] = priceInfoMap[token].erc20Amount;\n            data[i++] = priceInfoMap[token].lastUpdateBlock - 1 - _idx;\n        }\n        return data;\n    }\n\n    function checkPriceNow(address token)\n        public view\n        returns (uint256 ethAmount, uint256 erc20Amount, uint256 blockNum)\n    {\n        ethAmount = priceInfoMap[token].ethAmount;\n        erc20Amount = priceInfoMap[token].erc20Amount;\n        blockNum = priceInfoMap[token].lastUpdateBlock - 1;\n    }\n\n    function feedPrice(address token, uint256 ethAmount, uint256 erc20Amount) external {\n        priceInfoMap[token].ethAmount = ethAmount;\n        priceInfoMap[token].erc20Amount = erc20Amount;\n        priceInfoMap[token].lastUpdateBlock = block.number;\n    }\n\n    function make_payable(address x) internal pure returns (address payable) {\n      return address(uint160(x));\n    }\n\n    // Transfer ETH\n    function repayEth(address addr, uint256 amount) private {\n        make_payable(addr).transfer(amount);\n    }\n}",
  "sourcePath": "/Users/lixiansheng/Downloads/cofix2/contracts/mock/NEST3PriceOracleConstMock.sol",
  "compiler": {
    "name": "solc",
    "version": "0.6.12+commit.27d51765.Emscripten.clang"
  },
  "schemaVersion": "3.3.3",
  "updatedAt": "2021-05-14T05:46:42.599Z",
  "devdoc": {
    "kind": "dev",
    "methods": {},
    "version": 1
  },
  "userdoc": {
    "kind": "user",
    "methods": {},
    "version": 1
  }
}