{
  "contractName": "NEST35PriceOracleMock",
  "abi": [
    {
      "inputs": [
        {
          "internalType": "address",
          "name": "nest",
          "type": "address"
        }
      ],
      "stateMutability": "nonpayable",
      "type": "constructor"
    },
    {
      "inputs": [
        {
          "internalType": "address",
          "name": "",
          "type": "address"
        }
      ],
      "name": "addressEffect_",
      "outputs": [
        {
          "internalType": "uint256",
          "name": "",
          "type": "uint256"
        }
      ],
      "stateMutability": "view",
      "type": "function"
    },
    {
      "inputs": [],
      "name": "nestToken_",
      "outputs": [
        {
          "internalType": "address",
          "name": "",
          "type": "address"
        }
      ],
      "stateMutability": "view",
      "type": "function"
    },
    {
      "inputs": [
        {
          "internalType": "address",
          "name": "",
          "type": "address"
        }
      ],
      "name": "priceInfoMap",
      "outputs": [
        {
          "internalType": "uint256",
          "name": "ethAmount",
          "type": "uint256"
        },
        {
          "internalType": "uint256",
          "name": "erc20Amount",
          "type": "uint256"
        },
        {
          "internalType": "uint128",
          "name": "avgPrice",
          "type": "uint128"
        },
        {
          "internalType": "int128",
          "name": "vola",
          "type": "int128"
        },
        {
          "internalType": "uint256",
          "name": "lastUpdateBlock",
          "type": "uint256"
        }
      ],
      "stateMutability": "view",
      "type": "function"
    },
    {
      "inputs": [
        {
          "internalType": "address",
          "name": "defi",
          "type": "address"
        }
      ],
      "name": "activate",
      "outputs": [],
      "stateMutability": "nonpayable",
      "type": "function"
    },
    {
      "inputs": [
        {
          "internalType": "address",
          "name": "token",
          "type": "address"
        },
        {
          "internalType": "address",
          "name": "payback",
          "type": "address"
        }
      ],
      "name": "queryPriceAvgVola",
      "outputs": [
        {
          "internalType": "uint256",
          "name": "ethAmount",
          "type": "uint256"
        },
        {
          "internalType": "uint256",
          "name": "tokenAmount",
          "type": "uint256"
        },
        {
          "internalType": "uint128",
          "name": "avgPrice",
          "type": "uint128"
        },
        {
          "internalType": "int128",
          "name": "vola",
          "type": "int128"
        },
        {
          "internalType": "uint256",
          "name": "bn",
          "type": "uint256"
        }
      ],
      "stateMutability": "payable",
      "type": "function"
    },
    {
      "inputs": [
        {
          "internalType": "address",
          "name": "token",
          "type": "address"
        }
      ],
      "name": "latestPrice",
      "outputs": [
        {
          "internalType": "uint256",
          "name": "ethAmount",
          "type": "uint256"
        },
        {
          "internalType": "uint256",
          "name": "tokenAmount",
          "type": "uint256"
        },
        {
          "internalType": "uint128",
          "name": "avgPrice",
          "type": "uint128"
        },
        {
          "internalType": "int128",
          "name": "vola",
          "type": "int128"
        },
        {
          "internalType": "uint256",
          "name": "bn",
          "type": "uint256"
        }
      ],
      "stateMutability": "view",
      "type": "function"
    },
    {
      "inputs": [
        {
          "internalType": "address",
          "name": "token",
          "type": "address"
        }
      ],
      "name": "checkPriceNow",
      "outputs": [
        {
          "internalType": "uint256",
          "name": "ethAmount",
          "type": "uint256"
        },
        {
          "internalType": "uint256",
          "name": "erc20Amount",
          "type": "uint256"
        },
        {
          "internalType": "uint128",
          "name": "avgPrice",
          "type": "uint128"
        },
        {
          "internalType": "int128",
          "name": "vola",
          "type": "int128"
        },
        {
          "internalType": "uint256",
          "name": "blockNum",
          "type": "uint256"
        }
      ],
      "stateMutability": "view",
      "type": "function"
    },
    {
      "inputs": [
        {
          "internalType": "address",
          "name": "token",
          "type": "address"
        },
        {
          "internalType": "uint256",
          "name": "ethAmount",
          "type": "uint256"
        },
        {
          "internalType": "uint256",
          "name": "erc20Amount",
          "type": "uint256"
        },
        {
          "internalType": "uint128",
          "name": "avgPrice",
          "type": "uint128"
        },
        {
          "internalType": "int128",
          "name": "vola",
          "type": "int128"
        }
      ],
      "name": "feedPrice",
      "outputs": [],
      "stateMutability": "nonpayable",
      "type": "function"
    },
    {
      "inputs": [
        {
          "internalType": "address",
          "name": "target",
          "type": "address"
        }
      ],
      "name": "checkUseNestPrice",
      "outputs": [
        {
          "internalType": "bool",
          "name": "",
          "type": "bool"
        }
      ],
      "stateMutability": "view",
      "type": "function"
    }
  ],
  "bytecode": "0x60806040526000600355603c60045534801561001a57600080fd5b5060405161082a38038061082a8339818101604052602081101561003d57600080fd5b5051600280546001600160a01b0319166001600160a01b039092169190911790556107bd8061006d6000396000f3fe6080604052600436106100965760003560e01c8063b774fca411610069578063d3a2433e1161004e578063d3a2433e14610247578063d3bba0671461029b578063d72c69eb146102ed57610096565b8063b774fca41461019a578063bd224ce1146101da57610096565b80631b4418481461009b5780631c5a9d9c1461011a5780633e6da3171461015c57806353084eff1461009b575b600080fd5b3480156100a757600080fd5b506100db600480360360208110156100be57600080fd5b503573ffffffffffffffffffffffffffffffffffffffff16610328565b6040805195865260208601949094526fffffffffffffffffffffffffffffffff90921684840152600f0b60608401526080830152519081900360a00190f35b34801561012657600080fd5b5061015a6004803603602081101561013d57600080fd5b503573ffffffffffffffffffffffffffffffffffffffff16610391565b005b34801561016857600080fd5b50610171610476565b6040805173ffffffffffffffffffffffffffffffffffffffff9092168252519081900360200190f35b3480156101a657600080fd5b506100db600480360360208110156101bd57600080fd5b503573ffffffffffffffffffffffffffffffffffffffff16610492565b3480156101e657600080fd5b5061015a600480360360a08110156101fd57600080fd5b5073ffffffffffffffffffffffffffffffffffffffff813516906020810135906040810135906fffffffffffffffffffffffffffffffff6060820135169060800135600f0b6104e5565b34801561025357600080fd5b506102876004803603602081101561026a57600080fd5b503573ffffffffffffffffffffffffffffffffffffffff16610583565b604080519115158252519081900360200190f35b3480156102a757600080fd5b506102db600480360360208110156102be57600080fd5b503573ffffffffffffffffffffffffffffffffffffffff166105f1565b60408051918252519081900360200190f35b6100db6004803603604081101561030357600080fd5b5073ffffffffffffffffffffffffffffffffffffffff81358116916020013516610603565b73ffffffffffffffffffffffffffffffffffffffff166000908152602081905260409020805460018201546002830154600390930154919390926fffffffffffffffffffffffffffffffff811692700100000000000000000000000000000000909104600f0b91565b600254600354604080517f23b872dd0000000000000000000000000000000000000000000000000000000081523360048201526000602482018190526044820193909352905173ffffffffffffffffffffffffffffffffffffffff909316926323b872dd92606480840193602093929083900390910190829087803b15801561041957600080fd5b505af115801561042d573d6000803e3d6000fd5b505050506040513d602081101561044357600080fd5b505060045473ffffffffffffffffffffffffffffffffffffffff9091166000908152600160205260409020429091019055565b60025473ffffffffffffffffffffffffffffffffffffffff1681565b6000602081905290815260409020805460018201546002830154600390930154919290916fffffffffffffffffffffffffffffffff8216917001000000000000000000000000000000009004600f0b9085565b73ffffffffffffffffffffffffffffffffffffffff94909416600090815260208190526040902092835560018301919091556002820180547fffffffffffffffffffffffffffffffff00000000000000000000000000000000166fffffffffffffffffffffffffffffffff928316178216700100000000000000000000000000000000600f9590950b92909216939093021790915543600390910155565b73ffffffffffffffffffffffffffffffffffffffff8116600090815260016020526040812054421180156105db575073ffffffffffffffffffffffffffffffffffffffff821660009081526001602052604090205415155b156105e8575060016105ec565b5060005b919050565b60016020526000908152604090205481565b600080600080600061061433610583565b61067f57604080517f08c379a000000000000000000000000000000000000000000000000000000000815260206004820152601d60248201527f6f7261636c654d6f636b3a206e6f742061637469766574656420796574000000604482015290519081900360640190fd5b662386f26fc100003410156106df576040517f08c379a00000000000000000000000000000000000000000000000000000000081526004018080602001828103825260238152602001806107656023913960400191505060405180910390fd5b6106f286662386f26fc10000340361070e565b6106fb87610328565b939b929a50909850965090945092505050565b61071782610761565b73ffffffffffffffffffffffffffffffffffffffff166108fc829081150290604051600060405180830381858888f1935050505015801561075c573d6000803e3d6000fd5b505050565b9056fe6f7261636c654d6f636b3a20696e73756666696369656e74206f7261636c6520666565a264697066735822122074c922eba9c209700093cbdde75d9d862343bba93de5966268101994a2759a7f64736f6c634300060c0033",
  "immutableReferences": {},
  "source": "// SPDX-License-Identifier: GPL-3.0-or-later\n\npragma solidity 0.6.12;\n\nimport \"@openzeppelin/contracts/token/ERC20/IERC20.sol\";\n\ncontract NEST35PriceOracleMock {\n    \n    // 10 Ether <=> 3,255 USDT\n    // uint256 public ethAmount_ = 10000000000000000000;\n    // uint256 public erc20Amount_ = 3255000000;\n    mapping(address => PriceInfo) public priceInfoMap;\n    mapping(address => uint256) public addressEffect_; //  Effective time of address to call prices\n\n    address public nestToken_;\n    uint256 destructionAmount = 0 ether; //  Amount of NEST to destroy to call prices\n    uint256 effectTime = 1 minutes; //  Waiting time to start calling prices\n\n    struct PriceInfo {\n        uint256 ethAmount;\n        uint256 erc20Amount;\n        uint128 avgPrice;\n        int128 vola;\n        uint256 lastUpdateBlock;\n    }\n\n    constructor(address nest) public {\n        nestToken_ = nest;\n    }\n\n    // Activate the price checking function\n    function activate(address defi) public { // should not be called for multiple times, or effect time would postpone\n        IERC20(nestToken_).transferFrom(msg.sender, address(0), destructionAmount);\n        addressEffect_[defi] = now + effectTime; // SHOULD ADD A BOOL TO FLAG ACTIVATED\n    }\n\n    function queryPriceAvgVola(address token, address payback)\n        external payable\n        returns (uint256 ethAmount, uint256 tokenAmount, uint128 avgPrice, int128 vola, uint256 bn)\n    {\n        require(checkUseNestPrice(msg.sender), \"oracleMock: not activeted yet\");\n        require(msg.value >= 0.01 ether, \"oracleMock: insufficient oracle fee\");\n        repayEth(payback, msg.value - 0.01 ether); // just use repayEth to simulate the real impl.\n        return latestPrice(token);\n    }\n\n    function latestPrice(address token)\n        public\n        view\n        returns (uint256 ethAmount, uint256 tokenAmount, uint128 avgPrice, int128 vola, uint256 bn)\n    {\n        return (priceInfoMap[token].ethAmount, priceInfoMap[token].erc20Amount, priceInfoMap[token].avgPrice, priceInfoMap[token].vola, priceInfoMap[token].lastUpdateBlock);\n    }\n\n    function checkPriceNow(address token)\n        public view\n        returns (uint256 ethAmount, uint256 erc20Amount, uint128 avgPrice, int128 vola, uint256 blockNum)\n    {\n        // return the newest price\n        ethAmount = priceInfoMap[token].ethAmount;\n        erc20Amount = priceInfoMap[token].erc20Amount;\n        avgPrice = priceInfoMap[token].avgPrice;\n        vola = priceInfoMap[token].vola;\n        blockNum = priceInfoMap[token].lastUpdateBlock;\n    }\n\n    function feedPrice(address token, uint256 ethAmount, uint256 erc20Amount, uint128 avgPrice, int128 vola) external {\n        priceInfoMap[token].ethAmount = ethAmount;\n        priceInfoMap[token].erc20Amount = erc20Amount;\n        priceInfoMap[token].avgPrice = avgPrice;\n        priceInfoMap[token].vola = vola;\n        priceInfoMap[token].lastUpdateBlock = block.number;\n    }\n\n    function make_payable(address x) internal pure returns (address payable) {\n      return address(uint160(x));\n    }\n\n    // Transfer ETH\n    function repayEth(address addr, uint256 amount) private {\n        make_payable(addr).transfer(amount);\n    }\n\n    function checkUseNestPrice(address target) public view returns (bool) {\n        if (addressEffect_[target] < now && addressEffect_[target] != 0) {\n            return true;\n        } else {\n            return false;\n        }\n    }\n}",
  "sourcePath": "/Users/lixiansheng/Downloads/cofix2/contracts/mock/NEST35PriceOracleMock.sol",
  "compiler": {
    "name": "solc",
    "version": "0.6.12+commit.27d51765.Emscripten.clang"
  },
  "schemaVersion": "3.3.3",
  "updatedAt": "2021-05-14T05:46:42.581Z",
  "devdoc": {
    "kind": "dev",
    "methods": {},
    "version": 1
  },
  "userdoc": {
    "kind": "user",
    "methods": {},
    "version": 1
  }
}