{
  "contractName": "NEST35PriceOracleAutoUpdateConstMock",
  "abi": [
    {
      "inputs": [
        {
          "internalType": "address",
          "name": "",
          "type": "address"
        }
      ],
      "name": "priceInfoMap",
      "outputs": [
        {
          "internalType": "uint256",
          "name": "ethAmount",
          "type": "uint256"
        },
        {
          "internalType": "uint256",
          "name": "erc20Amount",
          "type": "uint256"
        },
        {
          "internalType": "uint128",
          "name": "avgPrice",
          "type": "uint128"
        },
        {
          "internalType": "int128",
          "name": "vola",
          "type": "int128"
        },
        {
          "internalType": "uint256",
          "name": "lastUpdateBlock",
          "type": "uint256"
        }
      ],
      "stateMutability": "view",
      "type": "function"
    },
    {
      "inputs": [
        {
          "internalType": "address",
          "name": "defi",
          "type": "address"
        }
      ],
      "name": "activate",
      "outputs": [],
      "stateMutability": "nonpayable",
      "type": "function"
    },
    {
      "inputs": [
        {
          "internalType": "address",
          "name": "token",
          "type": "address"
        },
        {
          "internalType": "address",
          "name": "payback",
          "type": "address"
        }
      ],
      "name": "queryPriceAvgVola",
      "outputs": [
        {
          "internalType": "uint256",
          "name": "ethAmount",
          "type": "uint256"
        },
        {
          "internalType": "uint256",
          "name": "tokenAmount",
          "type": "uint256"
        },
        {
          "internalType": "uint128",
          "name": "avgPrice",
          "type": "uint128"
        },
        {
          "internalType": "int128",
          "name": "vola",
          "type": "int128"
        },
        {
          "internalType": "uint256",
          "name": "bn",
          "type": "uint256"
        }
      ],
      "stateMutability": "payable",
      "type": "function"
    },
    {
      "inputs": [
        {
          "internalType": "address",
          "name": "token",
          "type": "address"
        }
      ],
      "name": "latestPrice",
      "outputs": [
        {
          "internalType": "uint256",
          "name": "ethAmount",
          "type": "uint256"
        },
        {
          "internalType": "uint256",
          "name": "tokenAmount",
          "type": "uint256"
        },
        {
          "internalType": "uint128",
          "name": "avgPrice",
          "type": "uint128"
        },
        {
          "internalType": "int128",
          "name": "vola",
          "type": "int128"
        },
        {
          "internalType": "uint256",
          "name": "bn",
          "type": "uint256"
        }
      ],
      "stateMutability": "view",
      "type": "function"
    },
    {
      "inputs": [
        {
          "internalType": "address",
          "name": "token",
          "type": "address"
        },
        {
          "internalType": "uint256",
          "name": "ethAmount",
          "type": "uint256"
        },
        {
          "internalType": "uint256",
          "name": "erc20Amount",
          "type": "uint256"
        },
        {
          "internalType": "uint128",
          "name": "avgPrice",
          "type": "uint128"
        },
        {
          "internalType": "int128",
          "name": "vola",
          "type": "int128"
        }
      ],
      "name": "feedPrice",
      "outputs": [],
      "stateMutability": "nonpayable",
      "type": "function"
    },
    {
      "inputs": [
        {
          "internalType": "address",
          "name": "token",
          "type": "address"
        }
      ],
      "name": "checkPriceNow",
      "outputs": [
        {
          "internalType": "uint256",
          "name": "ethAmount",
          "type": "uint256"
        },
        {
          "internalType": "uint256",
          "name": "erc20Amount",
          "type": "uint256"
        },
        {
          "internalType": "uint128",
          "name": "avgPrice",
          "type": "uint128"
        },
        {
          "internalType": "int128",
          "name": "vola",
          "type": "int128"
        },
        {
          "internalType": "uint256",
          "name": "blockNum",
          "type": "uint256"
        }
      ],
      "stateMutability": "view",
      "type": "function"
    }
  ],
  "bytecode": "0x608060405234801561001057600080fd5b5061057b806100206000396000f3fe6080604052600436106100655760003560e01c8063b774fca411610043578063b774fca41461016b578063bd224ce1146101ab578063d72c69eb1461021857610065565b80631b4418481461006a5780631c5a9d9c146100e957806353084eff1461012b575b600080fd5b34801561007657600080fd5b506100aa6004803603602081101561008d57600080fd5b503573ffffffffffffffffffffffffffffffffffffffff16610253565b6040805195865260208601949094526fffffffffffffffffffffffffffffffff90921684840152600f0b60608401526080830152519081900360a00190f35b3480156100f557600080fd5b506101296004803603602081101561010c57600080fd5b503573ffffffffffffffffffffffffffffffffffffffff166102bc565b005b34801561013757600080fd5b506100aa6004803603602081101561014e57600080fd5b503573ffffffffffffffffffffffffffffffffffffffff166102bf565b34801561017757600080fd5b506100aa6004803603602081101561018e57600080fd5b503573ffffffffffffffffffffffffffffffffffffffff16610344565b3480156101b757600080fd5b50610129600480360360a08110156101ce57600080fd5b5073ffffffffffffffffffffffffffffffffffffffff813516906020810135906040810135906fffffffffffffffffffffffffffffffff6060820135169060800135600f0b610397565b6100aa6004803603604081101561022e57600080fd5b5073ffffffffffffffffffffffffffffffffffffffff81358116916020013516610435565b73ffffffffffffffffffffffffffffffffffffffff166000908152602081905260409020805460018201546002830154600390930154919390926fffffffffffffffffffffffffffffffff811692700100000000000000000000000000000000909104600f0b91565b50565b73ffffffffffffffffffffffffffffffffffffffff1660009081526020819052604090208054600182015460029092015490926fffffffffffffffffffffffffffffffff8216917001000000000000000000000000000000009004600f0b90437ffffffffffffffffffffffffffffffffffffffffffffffffffffffffffffffffb0190565b6000602081905290815260409020805460018201546002830154600390930154919290916fffffffffffffffffffffffffffffffff8216917001000000000000000000000000000000009004600f0b9085565b73ffffffffffffffffffffffffffffffffffffffff94909416600090815260208190526040902092835560018301919091556002820180547fffffffffffffffffffffffffffffffff00000000000000000000000000000000166fffffffffffffffffffffffffffffffff928316178216700100000000000000000000000000000000600f9590950b92909216939093021790915543600390910155565b6000806000806000662386f26fc1000034101561049d576040517f08c379a00000000000000000000000000000000000000000000000000000000081526004018080602001828103825260238152602001806105236023913960400191505060405180910390fd5b6104b086662386f26fc1000034036104cc565b6104b9876102bf565b939b929a50909850965090945092505050565b6104d58261051f565b73ffffffffffffffffffffffffffffffffffffffff166108fc829081150290604051600060405180830381858888f1935050505015801561051a573d6000803e3d6000fd5b505050565b9056fe6f7261636c654d6f636b3a20696e73756666696369656e74206f7261636c6520666565a26469706673582212204903bf72467b077743e08f83af09a2ba0afa169f64be60946cb796f7ee2c312764736f6c634300060c0033",
  "immutableReferences": {},
  "source": "// SPDX-License-Identifier: GPL-3.0-or-later\n\npragma solidity 0.6.12;\n// import \"../interface/INest_3_OfferPrice.sol\";\n\ncontract NEST35PriceOracleAutoUpdateConstMock {\n    \n    mapping (address => PriceInfo) public priceInfoMap;\n\n    struct PriceInfo {\n        uint256 ethAmount;\n        uint256 erc20Amount;\n        uint128 avgPrice;\n        int128 vola;\n        uint256 lastUpdateBlock;\n    }\n\n    // NEST Price Oracle\n    // https://etherscan.io/address/0x7722891Ee45aD38AE05bDA8349bA4CF23cFd270F#readContract\n\n    // USDT 0xdAC17F958D2ee523a2206206994597C13D831ec7\n    // 10 Ether <=> 3,862.6 USDT, (386.26 USDT/ETH)\n    // uint256 public ethAmount = 10000000000000000000;\n    // uint256 public erc20Amount = 3862600000;\n\n    // HBTC 0x0316EB71485b0Ab14103307bf65a021042c6d380\n    // 10 Ether <=> 0.33988 HBTC (0.033988 HBTC/ETH)\n    // uint256 public ethAmount = 10000000000000000000;\n    // uint256 public erc20Amount = 339880000000000000;\n\n    // 11,364.6 USDT/BTC\n\n    function activate(address defi) external {\n        // todo\n    }\n\n    function queryPriceAvgVola(address token, address payback)\n        external payable\n        returns (uint256 ethAmount, uint256 tokenAmount, uint128 avgPrice, int128 vola, uint256 bn)\n    {\n        require(msg.value >= 0.01 ether, \"oracleMock: insufficient oracle fee\");\n        repayEth(payback, msg.value - 0.01 ether); // just use repayEth to simulate the real impl.\n        return latestPrice(token);\n    }\n\n    function latestPrice(address token)\n        public\n        view\n        returns (uint256 ethAmount, uint256 tokenAmount, uint128 avgPrice, int128 vola, uint256 bn)\n    {\n        return (priceInfoMap[token].ethAmount, priceInfoMap[token].erc20Amount, priceInfoMap[token].avgPrice, priceInfoMap[token].vola, block.number - 5);\n    }\n\n    function feedPrice(address token, uint256 ethAmount, uint256 erc20Amount, uint128 avgPrice, int128 vola) external {\n        priceInfoMap[token].ethAmount = ethAmount;\n        priceInfoMap[token].erc20Amount = erc20Amount;\n        priceInfoMap[token].avgPrice = avgPrice;\n        priceInfoMap[token].vola = vola;\n        priceInfoMap[token].lastUpdateBlock = block.number;\n    }\n\n    function checkPriceNow(address token)\n        public view\n        returns (uint256 ethAmount, uint256 erc20Amount, uint128 avgPrice, int128 vola, uint256 blockNum)\n    {\n        // return the newest price\n        ethAmount = priceInfoMap[token].ethAmount;\n        erc20Amount = priceInfoMap[token].erc20Amount;\n        avgPrice = priceInfoMap[token].avgPrice;\n        vola = priceInfoMap[token].vola;\n        blockNum = priceInfoMap[token].lastUpdateBlock;\n    }\n\n    function make_payable(address x) internal pure returns (address payable) {\n      return address(uint160(x));\n    }\n\n    // Transfer ETH\n    function repayEth(address addr, uint256 amount) private {\n        make_payable(addr).transfer(amount);\n    }\n}",
  "sourcePath": "/Users/lixiansheng/Downloads/cofix2/contracts/mock/NEST35PriceOracleAutoUpdateConstMock.sol",
  "compiler": {
    "name": "solc",
    "version": "0.6.12+commit.27d51765.Emscripten.clang"
  },
  "schemaVersion": "3.3.3",
  "updatedAt": "2021-05-14T05:46:42.575Z",
  "devdoc": {
    "kind": "dev",
    "methods": {},
    "version": 1
  },
  "userdoc": {
    "kind": "user",
    "methods": {},
    "version": 1
  }
}