{
  "contractName": "TestCoFiXStakingRewards",
  "abi": [
    {
      "inputs": [
        {
          "internalType": "address",
          "name": "_rewardsToken",
          "type": "address"
        },
        {
          "internalType": "address",
          "name": "_stakingToken",
          "type": "address"
        },
        {
          "internalType": "address",
          "name": "_factory",
          "type": "address"
        }
      ],
      "stateMutability": "nonpayable",
      "type": "constructor"
    },
    {
      "anonymous": false,
      "inputs": [
        {
          "indexed": true,
          "internalType": "address",
          "name": "user",
          "type": "address"
        },
        {
          "indexed": false,
          "internalType": "uint256",
          "name": "amount",
          "type": "uint256"
        }
      ],
      "name": "EmergencyWithdraw",
      "type": "event"
    },
    {
      "anonymous": false,
      "inputs": [
        {
          "indexed": false,
          "internalType": "address",
          "name": "sender",
          "type": "address"
        },
        {
          "indexed": false,
          "internalType": "uint256",
          "name": "reward",
          "type": "uint256"
        }
      ],
      "name": "RewardAdded",
      "type": "event"
    },
    {
      "anonymous": false,
      "inputs": [
        {
          "indexed": true,
          "internalType": "address",
          "name": "user",
          "type": "address"
        },
        {
          "indexed": false,
          "internalType": "uint256",
          "name": "reward",
          "type": "uint256"
        }
      ],
      "name": "RewardPaid",
      "type": "event"
    },
    {
      "anonymous": false,
      "inputs": [
        {
          "indexed": true,
          "internalType": "address",
          "name": "user",
          "type": "address"
        },
        {
          "indexed": false,
          "internalType": "uint256",
          "name": "amount",
          "type": "uint256"
        }
      ],
      "name": "Staked",
      "type": "event"
    },
    {
      "anonymous": false,
      "inputs": [
        {
          "indexed": true,
          "internalType": "address",
          "name": "user",
          "type": "address"
        },
        {
          "indexed": true,
          "internalType": "address",
          "name": "other",
          "type": "address"
        },
        {
          "indexed": false,
          "internalType": "uint256",
          "name": "amount",
          "type": "uint256"
        }
      ],
      "name": "StakedForOther",
      "type": "event"
    },
    {
      "anonymous": false,
      "inputs": [
        {
          "indexed": true,
          "internalType": "address",
          "name": "user",
          "type": "address"
        },
        {
          "indexed": false,
          "internalType": "uint256",
          "name": "amount",
          "type": "uint256"
        }
      ],
      "name": "Withdrawn",
      "type": "event"
    },
    {
      "inputs": [],
      "name": "accrued",
      "outputs": [
        {
          "internalType": "uint256",
          "name": "",
          "type": "uint256"
        }
      ],
      "stateMutability": "view",
      "type": "function"
    },
    {
      "inputs": [
        {
          "internalType": "uint256",
          "name": "amount",
          "type": "uint256"
        }
      ],
      "name": "addReward",
      "outputs": [],
      "stateMutability": "nonpayable",
      "type": "function"
    },
    {
      "inputs": [
        {
          "internalType": "address",
          "name": "account",
          "type": "address"
        }
      ],
      "name": "balanceOf",
      "outputs": [
        {
          "internalType": "uint256",
          "name": "",
          "type": "uint256"
        }
      ],
      "stateMutability": "view",
      "type": "function"
    },
    {
      "inputs": [
        {
          "internalType": "address",
          "name": "account",
          "type": "address"
        }
      ],
      "name": "earned",
      "outputs": [
        {
          "internalType": "uint256",
          "name": "",
          "type": "uint256"
        }
      ],
      "stateMutability": "view",
      "type": "function"
    },
    {
      "inputs": [],
      "name": "emergencyWithdraw",
      "outputs": [],
      "stateMutability": "nonpayable",
      "type": "function"
    },
    {
      "inputs": [],
      "name": "exit",
      "outputs": [],
      "stateMutability": "nonpayable",
      "type": "function"
    },
    {
      "inputs": [],
      "name": "factory",
      "outputs": [
        {
          "internalType": "address",
          "name": "",
          "type": "address"
        }
      ],
      "stateMutability": "view",
      "type": "function"
    },
    {
      "inputs": [],
      "name": "getReward",
      "outputs": [],
      "stateMutability": "nonpayable",
      "type": "function"
    },
    {
      "inputs": [],
      "name": "getRewardAndStake",
      "outputs": [],
      "stateMutability": "nonpayable",
      "type": "function"
    },
    {
      "inputs": [],
      "name": "lastBlockRewardApplicable",
      "outputs": [
        {
          "internalType": "uint256",
          "name": "",
          "type": "uint256"
        }
      ],
      "stateMutability": "view",
      "type": "function"
    },
    {
      "inputs": [],
      "name": "lastUpdateBlock",
      "outputs": [
        {
          "internalType": "uint256",
          "name": "",
          "type": "uint256"
        }
      ],
      "stateMutability": "view",
      "type": "function"
    },
    {
      "inputs": [],
      "name": "rewardPerToken",
      "outputs": [
        {
          "internalType": "uint256",
          "name": "",
          "type": "uint256"
        }
      ],
      "stateMutability": "view",
      "type": "function"
    },
    {
      "inputs": [],
      "name": "rewardPerTokenStored",
      "outputs": [
        {
          "internalType": "uint256",
          "name": "",
          "type": "uint256"
        }
      ],
      "stateMutability": "view",
      "type": "function"
    },
    {
      "inputs": [],
      "name": "rewardRate",
      "outputs": [
        {
          "internalType": "uint256",
          "name": "",
          "type": "uint256"
        }
      ],
      "stateMutability": "view",
      "type": "function"
    },
    {
      "inputs": [
        {
          "internalType": "address",
          "name": "",
          "type": "address"
        }
      ],
      "name": "rewards",
      "outputs": [
        {
          "internalType": "uint256",
          "name": "",
          "type": "uint256"
        }
      ],
      "stateMutability": "view",
      "type": "function"
    },
    {
      "inputs": [],
      "name": "rewardsToken",
      "outputs": [
        {
          "internalType": "address",
          "name": "",
          "type": "address"
        }
      ],
      "stateMutability": "view",
      "type": "function"
    },
    {
      "inputs": [],
      "name": "rewardsVault",
      "outputs": [
        {
          "internalType": "address",
          "name": "",
          "type": "address"
        }
      ],
      "stateMutability": "view",
      "type": "function"
    },
    {
      "inputs": [
        {
          "internalType": "uint256",
          "name": "amount",
          "type": "uint256"
        }
      ],
      "name": "stake",
      "outputs": [],
      "stateMutability": "nonpayable",
      "type": "function"
    },
    {
      "inputs": [
        {
          "internalType": "address",
          "name": "other",
          "type": "address"
        },
        {
          "internalType": "uint256",
          "name": "amount",
          "type": "uint256"
        }
      ],
      "name": "stakeForOther",
      "outputs": [],
      "stateMutability": "nonpayable",
      "type": "function"
    },
    {
      "inputs": [],
      "name": "stakingToken",
      "outputs": [
        {
          "internalType": "address",
          "name": "",
          "type": "address"
        }
      ],
      "stateMutability": "view",
      "type": "function"
    },
    {
      "inputs": [],
      "name": "totalSupply",
      "outputs": [
        {
          "internalType": "uint256",
          "name": "",
          "type": "uint256"
        }
      ],
      "stateMutability": "view",
      "type": "function"
    },
    {
      "inputs": [
        {
          "internalType": "address",
          "name": "",
          "type": "address"
        }
      ],
      "name": "userRewardPerTokenPaid",
      "outputs": [
        {
          "internalType": "uint256",
          "name": "",
          "type": "uint256"
        }
      ],
      "stateMutability": "view",
      "type": "function"
    },
    {
      "inputs": [
        {
          "internalType": "uint256",
          "name": "amount",
          "type": "uint256"
        }
      ],
      "name": "withdraw",
      "outputs": [],
      "stateMutability": "nonpayable",
      "type": "function"
    },
    {
      "inputs": [
        {
          "internalType": "uint256",
          "name": "newAccrued",
          "type": "uint256"
        }
      ],
      "name": "distributeReward",
      "outputs": [],
      "stateMutability": "nonpayable",
      "type": "function"
    }
  ],
  "bytecode": "0x60e060405234801561001057600080fd5b50604051611f73380380611f738339818101604052606081101561003357600080fd5b508051602080830151604093840151600160009081556001600160601b0319606086811b821660805284901b1660a052855163696bfc0b60e11b81529551949592949193869386938693926001600160a01b0385169263d2d7f8169260048083019392829003018186803b1580156100aa57600080fd5b505afa1580156100be573d6000803e3d6000fd5b505050506040513d60208110156100d457600080fd5b50516001600160a01b03161415610132576040805162461bcd60e51b815260206004820152601660248201527f5661756c74466f724c50206e6f74207365742079657400000000000000000000604482015290519081900360640190fd5b6001600160601b031960609190911b1660c05250504360015550505060805160601c60a05160601c60c05160601c611dbe6101b560003980610c3d52806112e4525080610a1b5280610ce25280610ffd5280611276528061145352806116c65250806106865280610e4852806113405280611ac25280611b6c5250611dbe6000f3fe608060405234801561001057600080fd5b50600436106101975760003560e01c8063940a4e45116100e3578063cd3daf9d1161008c578063df136d6511610066578063df136d6514610340578063e9fad8ee14610348578063fe72bd011461035057610197565b8063cd3daf9d14610328578063d1af0c7d14610330578063db2e21bc1461033857610197565b8063a694fc3a116100bd578063a694fc3a146102fb578063abe0429c14610318578063c45a01551461032057610197565b8063940a4e45146102ce578063a07e52a2146102eb578063a218141b146102f357610197565b80635579ed011161014557806374de4ec41161011f57806374de4ec4146102835780637b0a47ee146102a05780638b876347146102a857610197565b80635579ed011461023157806370a082311461025557806372f702f31461027b57610197565b806327e634431161017657806327e63443146102025780632e1a7d4d1461020c5780633d18b9121461022957610197565b80628cc2621461019c5780630700037d146101d457806318160ddd146101fa575b600080fd5b6101c2600480360360208110156101b257600080fd5b50356001600160a01b031661037c565b60408051918252519081900360200190f35b6101c2600480360360208110156101ea57600080fd5b50356001600160a01b03166103fa565b6101c261040c565b61020a610413565b005b61020a6004803603602081101561022257600080fd5b5035610843565b61020a610a82565b610239610c39565b604080516001600160a01b039092168252519081900360200190f35b6101c26004803603602081101561026b57600080fd5b50356001600160a01b0316610cc5565b610239610ce0565b61020a6004803603602081101561029957600080fd5b5035610d04565b6101c2610ede565b6101c2600480360360208110156102be57600080fd5b50356001600160a01b0316610f34565b61020a600480360360208110156102e457600080fd5b5035610f46565b6101c2610fbf565b6101c2611098565b61020a6004803603602081101561031157600080fd5b503561109e565b6101c26112de565b6102396112e2565b6101c2611306565b61023961133e565b61020a611362565b6101c26114b7565b61020a6114bd565b61020a6004803603604081101561036657600080fd5b506001600160a01b0381351690602001356114e0565b6001600160a01b03811660009081526004602090815260408083205460039092528220546103f491906103ee90670de0b6b3a7640000906103e8906103c9906103c3611306565b90611739565b6001600160a01b03881660009081526006602052604090205490611796565b906117f6565b9061185d565b92915050565b60046020526000908152604090205481565b6005545b90565b6002600054141561046b576040805162461bcd60e51b815260206004820152601f60248201527f5265656e7472616e637947756172643a207265656e7472616e742063616c6c00604482015290519081900360640190fd5b6002600090815533908061047d6118b7565b60028290559092509050801561050457610495610c39565b6001600160a01b0316631ec8bb8c30836040518363ffffffff1660e01b815260040180836001600160a01b0316815260200182815260200192505050600060405180830381600087803b1580156104eb57600080fd5b505af11580156104ff573d6000803e3d6000fd5b505050505b61050c6112de565b6001556001600160a01b03831615610553576105278361037c565b6001600160a01b0384166000908152600460209081526040808320939093556002546003909152919020555b33600090815260046020526040902054801561083857336000908152600460205260408120819055610583610c39565b6001600160a01b031663af1734ac6040518163ffffffff1660e01b815260040160206040518083038186803b1580156105bb57600080fd5b505afa1580156105cf573d6000803e3d6000fd5b505050506040513d60208110156105e557600080fd5b505190506001600160a01b038116610644576040805162461bcd60e51b815260206004820152601760248201527f636f66695374616b696e67506f6f6c206e6f7420736574000000000000000000604482015290519081900360640190fd5b604080517f095ea7b30000000000000000000000000000000000000000000000000000000081526001600160a01b0383811660048301526024820185905291517f00000000000000000000000000000000000000000000000000000000000000009283169163095ea7b39160448083019260209291908290030181600087803b1580156106d057600080fd5b505af11580156106e4573d6000803e3d6000fd5b505050506040513d60208110156106fa57600080fd5b5050604080517ffe72bd010000000000000000000000000000000000000000000000000000000081523360048201526024810185905290516001600160a01b0384169163fe72bd0191604480830192600092919082900301818387803b15801561076357600080fd5b505af1158015610777573d6000803e3d6000fd5b50505050806001600160a01b031663095ea7b38360006040518363ffffffff1660e01b815260040180836001600160a01b0316815260200182815260200192505050602060405180830381600087803b1580156107d357600080fd5b505af11580156107e7573d6000803e3d6000fd5b505050506040513d60208110156107fd57600080fd5b505060408051848152905133917fe2403640ba68fed3a2f88b7557551d1993f84b99bb10ff833f0cf8db0c5e0486919081900360200190a250505b505060016000555050565b6002600054141561089b576040805162461bcd60e51b815260206004820152601f60248201527f5265656e7472616e637947756172643a207265656e7472616e742063616c6c00604482015290519081900360640190fd5b600260009081553390806108ad6118b7565b600282905590925090508015610934576108c5610c39565b6001600160a01b0316631ec8bb8c30836040518363ffffffff1660e01b815260040180836001600160a01b0316815260200182815260200192505050600060405180830381600087803b15801561091b57600080fd5b505af115801561092f573d6000803e3d6000fd5b505050505b61093c6112de565b6001556001600160a01b03831615610983576109578361037c565b6001600160a01b0384166000908152600460209081526040808320939093556002546003909152919020555b600084116109d8576040805162461bcd60e51b815260206004820152601160248201527f43616e6e6f742077697468647261772030000000000000000000000000000000604482015290519081900360640190fd5b6005546109e59085611739565b60055533600090815260066020526040902054610a029085611739565b33600081815260066020526040902091909155610a41907f0000000000000000000000000000000000000000000000000000000000000000908661190e565b60408051858152905133917f7084f5476618d8e60b11ef0d7d3f06914655adb8793e28ff7f018d4c76d505d5919081900360200190a2505060016000555050565b60026000541415610ada576040805162461bcd60e51b815260206004820152601f60248201527f5265656e7472616e637947756172643a207265656e7472616e742063616c6c00604482015290519081900360640190fd5b60026000908155339080610aec6118b7565b600282905590925090508015610b7357610b04610c39565b6001600160a01b0316631ec8bb8c30836040518363ffffffff1660e01b815260040180836001600160a01b0316815260200182815260200192505050600060405180830381600087803b158015610b5a57600080fd5b505af1158015610b6e573d6000803e3d6000fd5b505050505b610b7b6112de565b6001556001600160a01b03831615610bc257610b968361037c565b6001600160a01b0384166000908152600460209081526040808320939093556002546003909152919020555b3360009081526004602052604090205480156108385733600081815260046020526040812081905590610bf59083611abd565b60408051828152905191925033917fe2403640ba68fed3a2f88b7557551d1993f84b99bb10ff833f0cf8db0c5e04869181900360200190a250505060016000555050565b60007f00000000000000000000000000000000000000000000000000000000000000006001600160a01b031663d2d7f8166040518163ffffffff1660e01b815260040160206040518083038186803b158015610c9457600080fd5b505afa158015610ca8573d6000803e3d6000fd5b505050506040513d6020811015610cbe57600080fd5b5051905090565b6001600160a01b031660009081526006602052604090205490565b7f000000000000000000000000000000000000000000000000000000000000000081565b60026000541415610d5c576040805162461bcd60e51b815260206004820152601f60248201527f5265656e7472616e637947756172643a207265656e7472616e742063616c6c00604482015290519081900360640190fd5b600260009081558080610d6d6118b7565b600282905590925090508015610df457610d85610c39565b6001600160a01b0316631ec8bb8c30836040518363ffffffff1660e01b815260040180836001600160a01b0316815260200182815260200192505050600060405180830381600087803b158015610ddb57600080fd5b505af1158015610def573d6000803e3d6000fd5b505050505b610dfc6112de565b6001556001600160a01b03831615610e4357610e178361037c565b6001600160a01b0384166000908152600460209081526040808320939093556002546003909152919020555b610e6f7f0000000000000000000000000000000000000000000000000000000000000000333087611b9a565b600554610e9590610e8c906103e887670de0b6b3a7640000611796565b6002549061185d565b600255604080513381526020810186905281517fac24935fd910bc682b5ccb1a07b718cadf8cf2f6d1404c4f3ddc3662dae40e29929181900390910190a1505060016000555050565b6000610ee8610c39565b6001600160a01b031663643a8b24306040518263ffffffff1660e01b815260040180826001600160a01b0316815260200191505060206040518083038186803b158015610c9457600080fd5b60036020526000908152604090205481565b610f4e610c39565b6001600160a01b0316631ec8bb8c30836040518363ffffffff1660e01b815260040180836001600160a01b0316815260200182815260200192505050600060405180830381600087803b158015610fa457600080fd5b505af1158015610fb8573d6000803e3d6000fd5b5050505050565b600080610fe1610fcd610ede565b610fdb6001546103c36112de565b90611796565b90506000610fed610c39565b6001600160a01b031663a66771db7f00000000000000000000000000000000000000000000000000000000000000006040518263ffffffff1660e01b815260040180826001600160a01b0316815260200191505060206040518083038186803b15801561105957600080fd5b505afa15801561106d573d6000803e3d6000fd5b505050506040513d602081101561108357600080fd5b50519050611091828261185d565b9250505090565b60015481565b600260005414156110f6576040805162461bcd60e51b815260206004820152601f60248201527f5265656e7472616e637947756172643a207265656e7472616e742063616c6c00604482015290519081900360640190fd5b600260009081553390806111086118b7565b60028290559092509050801561118f57611120610c39565b6001600160a01b0316631ec8bb8c30836040518363ffffffff1660e01b815260040180836001600160a01b0316815260200182815260200192505050600060405180830381600087803b15801561117657600080fd5b505af115801561118a573d6000803e3d6000fd5b505050505b6111976112de565b6001556001600160a01b038316156111de576111b28361037c565b6001600160a01b0384166000908152600460209081526040808320939093556002546003909152919020555b60008411611233576040805162461bcd60e51b815260206004820152600e60248201527f43616e6e6f74207374616b652030000000000000000000000000000000000000604482015290519081900360640190fd5b600554611240908561185d565b6005553360009081526006602052604090205461125d908561185d565b3360008181526006602052604090209190915561129d907f0000000000000000000000000000000000000000000000000000000000000000903087611b9a565b60408051858152905133917f9e71bc8eea02a63969f509818f2dafb9254532904319f9dbda79b67bd34a5f3d919081900360200190a2505060016000555050565b4390565b7f000000000000000000000000000000000000000000000000000000000000000081565b60006005546000141561131c5750600254610410565b611339610e8c6005546103e8670de0b6b3a7640000610fdb610fbf565b905090565b7f000000000000000000000000000000000000000000000000000000000000000081565b600260005414156113ba576040805162461bcd60e51b815260206004820152601f60248201527f5265656e7472616e637947756172643a207265656e7472616e742063616c6c00604482015290519081900360640190fd5b600260009081553381526006602052604090205480611420576040805162461bcd60e51b815260206004820152601160248201527f43616e6e6f742077697468647261772030000000000000000000000000000000604482015290519081900360640190fd5b60055461142d9082611739565b6005553360008181526006602090815260408083208390556004909152812055611479907f0000000000000000000000000000000000000000000000000000000000000000908361190e565b60408051828152905133917f5fafa99d0643513820be26656b45130b01e1c03062e1266bf36f88cbd3bd9695919081900360200190a2506001600055565b60025481565b336000908152600660205260409020546114d690610843565b6114de610a82565b565b60026000541415611538576040805162461bcd60e51b815260206004820152601f60248201527f5265656e7472616e637947756172643a207265656e7472616e742063616c6c00604482015290519081900360640190fd5b6002600090815582908061154a6118b7565b6002829055909250905080156115d157611562610c39565b6001600160a01b0316631ec8bb8c30836040518363ffffffff1660e01b815260040180836001600160a01b0316815260200182815260200192505050600060405180830381600087803b1580156115b857600080fd5b505af11580156115cc573d6000803e3d6000fd5b505050505b6115d96112de565b6001556001600160a01b03831615611620576115f48361037c565b6001600160a01b0384166000908152600460209081526040808320939093556002546003909152919020555b60008411611675576040805162461bcd60e51b815260206004820152600e60248201527f43616e6e6f74207374616b652030000000000000000000000000000000000000604482015290519081900360640190fd5b600554611682908561185d565b6005556001600160a01b0385166000908152600660205260409020546116a8908561185d565b6001600160a01b0386166000908152600660205260409020556116ed7f0000000000000000000000000000000000000000000000000000000000000000333087611b9a565b6040805185815290516001600160a01b0387169133917ff6709c821eb43e8e9953ad8ac910b4591a380ae9f014d75ce7d7a2a34299e0ef9181900360200190a350506001600055505050565b600082821115611790576040805162461bcd60e51b815260206004820152601e60248201527f536166654d6174683a207375627472616374696f6e206f766572666c6f770000604482015290519081900360640190fd5b50900390565b6000826117a5575060006103f4565b828202828482816117b257fe5b04146117ef5760405162461bcd60e51b8152600401808060200182810382526021815260200180611d446021913960400191505060405180910390fd5b9392505050565b600080821161184c576040805162461bcd60e51b815260206004820152601a60248201527f536166654d6174683a206469766973696f6e206279207a65726f000000000000604482015290519081900360640190fd5b81838161185557fe5b049392505050565b6000828201838110156117ef576040805162461bcd60e51b815260206004820152601b60248201527f536166654d6174683a206164646974696f6e206f766572666c6f770000000000604482015290519081900360640190fd5b600080600554600014156118d1575050600254600061190a565b60006118db610fbf565b90506000611903610e8c6005546103e8670de0b6b3a76400008661179690919063ffffffff16565b9350909150505b9091565b604080516001600160a01b038481166024830152604480830185905283518084039091018152606490920183526020820180517bffffffffffffffffffffffffffffffffffffffffffffffffffffffff167fa9059cbb00000000000000000000000000000000000000000000000000000000178152925182516000946060949389169392918291908083835b602083106119d757805182527fffffffffffffffffffffffffffffffffffffffffffffffffffffffffffffffe0909201916020918201910161199a565b6001836020036101000a0380198251168184511680821785525050505050509050019150506000604051808303816000865af19150503d8060008114611a39576040519150601f19603f3d011682016040523d82523d6000602084013e611a3e565b606091505b5091509150818015611a6c575080511580611a6c5750808060200190516020811015611a6957600080fd5b50515b610fb8576040805162461bcd60e51b815260206004820152601f60248201527f5472616e7366657248656c7065723a205452414e534645525f4641494c454400604482015290519081900360640190fd5b6000807f00000000000000000000000000000000000000000000000000000000000000006001600160a01b03166370a08231306040518263ffffffff1660e01b815260040180826001600160a01b0316815260200191505060206040518083038186803b158015611b2d57600080fd5b505afa158015611b41573d6000803e3d6000fd5b505050506040513d6020811015611b5757600080fd5b5051905080831115611b67578092505b611b927f0000000000000000000000000000000000000000000000000000000000000000858561190e565b509092915050565b604080516001600160a01b0385811660248301528481166044830152606480830185905283518084039091018152608490920183526020820180517bffffffffffffffffffffffffffffffffffffffffffffffffffffffff167f23b872dd0000000000000000000000000000000000000000000000000000000017815292518251600094606094938a169392918291908083835b60208310611c6b57805182527fffffffffffffffffffffffffffffffffffffffffffffffffffffffffffffffe09092019160209182019101611c2e565b6001836020036101000a0380198251168184511680821785525050505050509050019150506000604051808303816000865af19150503d8060008114611ccd576040519150601f19603f3d011682016040523d82523d6000602084013e611cd2565b606091505b5091509150818015611d00575080511580611d005750808060200190516020811015611cfd57600080fd5b50515b611d3b5760405162461bcd60e51b8152600401808060200182810382526024815260200180611d656024913960400191505060405180910390fd5b50505050505056fe536166654d6174683a206d756c7469706c69636174696f6e206f766572666c6f775472616e7366657248656c7065723a205452414e534645525f46524f4d5f4641494c4544a264697066735822122060ce4ba0c802819eb1f3acaac8fa57f764715dbaefd5cfe5339edb62d284bc6564736f6c634300060c0033",
  "immutableReferences": {
    "13633": [
      {
        "length": 32,
        "start": 1670
      },
      {
        "length": 32,
        "start": 3656
      },
      {
        "length": 32,
        "start": 4928
      },
      {
        "length": 32,
        "start": 6850
      },
      {
        "length": 32,
        "start": 7020
      }
    ],
    "13636": [
      {
        "length": 32,
        "start": 2587
      },
      {
        "length": 32,
        "start": 3298
      },
      {
        "length": 32,
        "start": 4093
      },
      {
        "length": 32,
        "start": 4726
      },
      {
        "length": 32,
        "start": 5203
      },
      {
        "length": 32,
        "start": 5830
      }
    ],
    "13638": [
      {
        "length": 32,
        "start": 3133
      },
      {
        "length": 32,
        "start": 4836
      }
    ]
  },
  "source": "// SPDX-License-Identifier: GPL-3.0-or-later\n\npragma solidity 0.6.12;\n\nimport \"../CoFiXStakingRewards.sol\";\n\n// Stake XToken to earn CoFi Token\ncontract TestCoFiXStakingRewards is CoFiXStakingRewards {\n\n    constructor(\n        address _rewardsToken,\n        address _stakingToken,\n        address _factory\n    ) public CoFiXStakingRewards(\n        _rewardsToken,\n        _stakingToken,\n        _factory\n    ) {}\n\n    // ONLY FOR TEST\n    function distributeReward(uint256 newAccrued) external {\n        ICoFiXVaultForLP(rewardsVault()).distributeReward(address(this), newAccrued);\n    }\n\n}",
  "sourcePath": "/Users/lixiansheng/Downloads/CoFix/contracts/test/CoFiXStakingRewards.sol",
  "compiler": {
    "name": "solc",
    "version": "0.6.12+commit.27d51765.Emscripten.clang"
  },
  "schemaVersion": "3.4.1",
  "updatedAt": "2021-05-11T03:07:10.433Z",
  "devdoc": {
    "kind": "dev",
    "methods": {
      "accrued()": {
        "details": "How many reward tokens accrued recently",
        "returns": {
          "_0": "The amount of reward tokens accrued recently"
        }
      },
      "addReward(uint256)": {
        "details": "Add reward to the mining pool"
      },
      "balanceOf(address)": {
        "details": "How many stakingToken (XToken) deposited by the target account",
        "params": {
          "account": "The target account"
        },
        "returns": {
          "_0": "The total amount of XToken deposited in this mining pool"
        }
      },
      "earned(address)": {
        "details": "How many reward tokens a user has earned but not claimed at present",
        "params": {
          "account": "The target account"
        },
        "returns": {
          "_0": "The amount of reward tokens a user earned"
        }
      },
      "emergencyWithdraw()": {
        "details": "Withdraw without caring about rewards. EMERGENCY ONLY."
      },
      "exit()": {
        "details": "User exit the reward pool, it's actually withdraw and getReward"
      },
      "getReward()": {
        "details": "Claim the reward the user earned"
      },
      "lastBlockRewardApplicable()": {
        "details": "The lastBlock reward applicable",
        "returns": {
          "_0": "Returns the latest block.number on-chain"
        }
      },
      "rewardPerToken()": {
        "details": "Reward amount represents by per staking token"
      },
      "rewardRate()": {
        "details": "Get the latest reward rate of this mining pool (tokens amount per block)",
        "returns": {
          "_0": "The latest reward rate"
        }
      },
      "rewardsVault()": {
        "details": "The rewards vault contract address set in factory contract",
        "returns": {
          "_0": "Returns the vault address"
        }
      },
      "stake(uint256)": {
        "details": "Stake/Deposit into the reward pool (mining pool)",
        "params": {
          "amount": "The target amount"
        }
      },
      "stakeForOther(address,uint256)": {
        "details": "Stake/Deposit into the reward pool (mining pool) for other account",
        "params": {
          "amount": "The target amount",
          "other": "The target account"
        }
      },
      "totalSupply()": {
        "details": "How many stakingToken (XToken) deposited into to this reward pool (mining pool)",
        "returns": {
          "_0": "The total amount of XTokens deposited in this mining pool"
        }
      },
      "withdraw(uint256)": {
        "details": "Withdraw from the reward pool (mining pool), get the original tokens back",
        "params": {
          "amount": "The target amount"
        }
      }
    },
    "version": 1
  },
  "userdoc": {
    "kind": "user",
    "methods": {},
    "version": 1
  }
}