{
  "contractName": "TestXToken",
  "abi": [
    {
      "inputs": [],
      "stateMutability": "nonpayable",
      "type": "constructor"
    },
    {
      "anonymous": false,
      "inputs": [
        {
          "indexed": true,
          "internalType": "address",
          "name": "owner",
          "type": "address"
        },
        {
          "indexed": true,
          "internalType": "address",
          "name": "spender",
          "type": "address"
        },
        {
          "indexed": false,
          "internalType": "uint256",
          "name": "value",
          "type": "uint256"
        }
      ],
      "name": "Approval",
      "type": "event"
    },
    {
      "anonymous": false,
      "inputs": [
        {
          "indexed": true,
          "internalType": "address",
          "name": "from",
          "type": "address"
        },
        {
          "indexed": true,
          "internalType": "address",
          "name": "to",
          "type": "address"
        },
        {
          "indexed": false,
          "internalType": "uint256",
          "name": "value",
          "type": "uint256"
        }
      ],
      "name": "Transfer",
      "type": "event"
    },
    {
      "inputs": [
        {
          "internalType": "address",
          "name": "owner",
          "type": "address"
        },
        {
          "internalType": "address",
          "name": "spender",
          "type": "address"
        }
      ],
      "name": "allowance",
      "outputs": [
        {
          "internalType": "uint256",
          "name": "",
          "type": "uint256"
        }
      ],
      "stateMutability": "view",
      "type": "function"
    },
    {
      "inputs": [
        {
          "internalType": "address",
          "name": "spender",
          "type": "address"
        },
        {
          "internalType": "uint256",
          "name": "amount",
          "type": "uint256"
        }
      ],
      "name": "approve",
      "outputs": [
        {
          "internalType": "bool",
          "name": "",
          "type": "bool"
        }
      ],
      "stateMutability": "nonpayable",
      "type": "function"
    },
    {
      "inputs": [
        {
          "internalType": "address",
          "name": "account",
          "type": "address"
        }
      ],
      "name": "balanceOf",
      "outputs": [
        {
          "internalType": "uint256",
          "name": "",
          "type": "uint256"
        }
      ],
      "stateMutability": "view",
      "type": "function"
    },
    {
      "inputs": [],
      "name": "decimals",
      "outputs": [
        {
          "internalType": "uint8",
          "name": "",
          "type": "uint8"
        }
      ],
      "stateMutability": "view",
      "type": "function"
    },
    {
      "inputs": [
        {
          "internalType": "address",
          "name": "spender",
          "type": "address"
        },
        {
          "internalType": "uint256",
          "name": "subtractedValue",
          "type": "uint256"
        }
      ],
      "name": "decreaseAllowance",
      "outputs": [
        {
          "internalType": "bool",
          "name": "",
          "type": "bool"
        }
      ],
      "stateMutability": "nonpayable",
      "type": "function"
    },
    {
      "inputs": [
        {
          "internalType": "address",
          "name": "spender",
          "type": "address"
        },
        {
          "internalType": "uint256",
          "name": "addedValue",
          "type": "uint256"
        }
      ],
      "name": "increaseAllowance",
      "outputs": [
        {
          "internalType": "bool",
          "name": "",
          "type": "bool"
        }
      ],
      "stateMutability": "nonpayable",
      "type": "function"
    },
    {
      "inputs": [],
      "name": "initToken0Amount",
      "outputs": [
        {
          "internalType": "uint256",
          "name": "",
          "type": "uint256"
        }
      ],
      "stateMutability": "view",
      "type": "function"
    },
    {
      "inputs": [],
      "name": "initToken1Amount",
      "outputs": [
        {
          "internalType": "uint256",
          "name": "",
          "type": "uint256"
        }
      ],
      "stateMutability": "view",
      "type": "function"
    },
    {
      "inputs": [],
      "name": "name",
      "outputs": [
        {
          "internalType": "string",
          "name": "",
          "type": "string"
        }
      ],
      "stateMutability": "view",
      "type": "function"
    },
    {
      "inputs": [],
      "name": "symbol",
      "outputs": [
        {
          "internalType": "string",
          "name": "",
          "type": "string"
        }
      ],
      "stateMutability": "view",
      "type": "function"
    },
    {
      "inputs": [],
      "name": "token0",
      "outputs": [
        {
          "internalType": "address",
          "name": "",
          "type": "address"
        }
      ],
      "stateMutability": "view",
      "type": "function"
    },
    {
      "inputs": [],
      "name": "token1",
      "outputs": [
        {
          "internalType": "address",
          "name": "",
          "type": "address"
        }
      ],
      "stateMutability": "view",
      "type": "function"
    },
    {
      "inputs": [],
      "name": "totalSupply",
      "outputs": [
        {
          "internalType": "uint256",
          "name": "",
          "type": "uint256"
        }
      ],
      "stateMutability": "view",
      "type": "function"
    },
    {
      "inputs": [
        {
          "internalType": "address",
          "name": "recipient",
          "type": "address"
        },
        {
          "internalType": "uint256",
          "name": "amount",
          "type": "uint256"
        }
      ],
      "name": "transfer",
      "outputs": [
        {
          "internalType": "bool",
          "name": "",
          "type": "bool"
        }
      ],
      "stateMutability": "nonpayable",
      "type": "function"
    },
    {
      "inputs": [
        {
          "internalType": "address",
          "name": "sender",
          "type": "address"
        },
        {
          "internalType": "address",
          "name": "recipient",
          "type": "address"
        },
        {
          "internalType": "uint256",
          "name": "amount",
          "type": "uint256"
        }
      ],
      "name": "transferFrom",
      "outputs": [
        {
          "internalType": "bool",
          "name": "",
          "type": "bool"
        }
      ],
      "stateMutability": "nonpayable",
      "type": "function"
    },
    {
      "inputs": [
        {
          "internalType": "address",
          "name": "_token0",
          "type": "address"
        },
        {
          "internalType": "address",
          "name": "_token1",
          "type": "address"
        },
        {
          "internalType": "uint256",
          "name": "_initToken0Amount",
          "type": "uint256"
        },
        {
          "internalType": "uint256",
          "name": "_initToken1Amount",
          "type": "uint256"
        }
      ],
      "name": "initialize",
      "outputs": [],
      "stateMutability": "nonpayable",
      "type": "function"
    },
    {
      "inputs": [
        {
          "internalType": "address",
          "name": "_to",
          "type": "address"
        },
        {
          "internalType": "uint256",
          "name": "_amount",
          "type": "uint256"
        }
      ],
      "name": "mint",
      "outputs": [],
      "stateMutability": "nonpayable",
      "type": "function"
    },
    {
      "inputs": [],
      "name": "getInitialAssetRatio",
      "outputs": [
        {
          "internalType": "uint256",
          "name": "_initToken0Amount",
          "type": "uint256"
        },
        {
          "internalType": "uint256",
          "name": "_initToken1Amount",
          "type": "uint256"
        }
      ],
      "stateMutability": "view",
      "type": "function"
    },
    {
      "inputs": [],
      "name": "getReserves",
      "outputs": [
        {
          "internalType": "uint112",
          "name": "_reserve0",
          "type": "uint112"
        },
        {
          "internalType": "uint112",
          "name": "_reserve1",
          "type": "uint112"
        }
      ],
      "stateMutability": "view",
      "type": "function"
    },
    {
      "inputs": [
        {
          "internalType": "uint256",
          "name": "balance0",
          "type": "uint256"
        },
        {
          "internalType": "uint256",
          "name": "balance1",
          "type": "uint256"
        }
      ],
      "name": "update",
      "outputs": [],
      "stateMutability": "nonpayable",
      "type": "function"
    }
  ],
  "bytecode": "0x608060405234801561001057600080fd5b50604080518082018252600a8152692a32b9ba2c2a37b5b2b760b11b60208083019182528351808501909452600484526358542d3160e01b90840152815191929161005d91600391610086565b508051610071906004906020840190610086565b50506005805460ff1916601217905550610119565b828054600181600116156101000203166002900490600052602060002090601f016020900481019282601f106100c757805160ff19168380011785556100f4565b828001600101855582156100f4579182015b828111156100f45782518255916020019190600101906100d9565b50610100929150610104565b5090565b5b808211156101005760008155600101610105565b61107480620001296000396000f3fe608060405234801561001057600080fd5b506004361061016c5760003560e01c806370a08231116100cd578063a9059cbb11610081578063dd62ed3e11610066578063dd62ed3e146104a1578063eb990c59146104dc578063f22e2ae0146105255761016c565b8063a9059cbb14610460578063d21220a7146104995761016c565b806395d89b41116100b257806395d89b41146103fe578063a1da4d2414610406578063a457c2d7146104275761016c565b806370a08231146103c35780638a2ffb96146103f65761016c565b806323b872dd11610124578063313ce56711610109578063313ce56714610333578063395093511461035157806340c10f191461038a5761016c565b806323b872dd146102cb5780632fb565e81461030e5761016c565b8063095ea7b311610155578063095ea7b3146102335780630dfe16811461028057806318160ddd146102b15761016c565b806306fdde03146101715780630902f1ac146101ee575b600080fd5b61017961052d565b6040805160208082528351818301528351919283929083019185019080838360005b838110156101b357818101518382015260200161019b565b50505050905090810190601f1680156101e05780820380516001836020036101000a031916815260200191505b509250505060405180910390f35b6101f66105e1565b60405180836dffffffffffffffffffffffffffff168152602001826dffffffffffffffffffffffffffff1681526020019250505060405180910390f35b61026c6004803603604081101561024957600080fd5b5073ffffffffffffffffffffffffffffffffffffffff813516906020013561060e565b604080519115158252519081900360200190f35b61028861062b565b6040805173ffffffffffffffffffffffffffffffffffffffff9092168252519081900360200190f35b6102b961064c565b60408051918252519081900360200190f35b61026c600480360360608110156102e157600080fd5b5073ffffffffffffffffffffffffffffffffffffffff813581169160208101359091169060400135610652565b6103316004803603604081101561032457600080fd5b50803590602001356106f3565b005b61033b6107ea565b6040805160ff9092168252519081900360200190f35b61026c6004803603604081101561036757600080fd5b5073ffffffffffffffffffffffffffffffffffffffff81351690602001356107f3565b610331600480360360408110156103a057600080fd5b5073ffffffffffffffffffffffffffffffffffffffff813516906020013561084e565b6102b9600480360360208110156103d957600080fd5b503573ffffffffffffffffffffffffffffffffffffffff1661085c565b6102b9610884565b61017961088a565b61040e610909565b6040805192835260208301919091528051918290030190f35b61026c6004803603604081101561043d57600080fd5b5073ffffffffffffffffffffffffffffffffffffffff8135169060200135610912565b61026c6004803603604081101561047657600080fd5b5073ffffffffffffffffffffffffffffffffffffffff8135169060200135610987565b61028861099b565b6102b9600480360360408110156104b757600080fd5b5073ffffffffffffffffffffffffffffffffffffffff813581169160200135166109b7565b610331600480360360808110156104f257600080fd5b5073ffffffffffffffffffffffffffffffffffffffff8135811691602081013590911690604081013590606001356109ef565b6102b9610a70565b60038054604080516020601f60027fffffffffffffffffffffffffffffffffffffffffffffffffffffffffffffffff6101006001881615020190951694909404938401819004810282018101909252828152606093909290918301828280156105d75780601f106105ac576101008083540402835291602001916105d7565b820191906000526020600020905b8154815290600101906020018083116105ba57829003601f168201915b5050505050905090565b6007546dffffffffffffffffffffffffffff808216926e0100000000000000000000000000009092041690565b600061062261061b610a76565b8484610a7a565b50600192915050565b600554610100900473ffffffffffffffffffffffffffffffffffffffff1681565b60025490565b600061065f848484610b8d565b6106e98461066b610a76565b6106e485604051806060016040528060288152602001610fa96028913973ffffffffffffffffffffffffffffffffffffffff8a166000908152600160205260408120906106b6610a76565b73ffffffffffffffffffffffffffffffffffffffff1681526020810191909152604001600020549190610d29565b610a7a565b5060019392505050565b6dffffffffffffffffffffffffffff821180159061071f57506dffffffffffffffffffffffffffff8111155b610770576040805162461bcd60e51b815260206004820152600f60248201527f43506169723a204f564552464c4f570000000000000000000000000000000000604482015290519081900360640190fd5b600780546dffffffffffffffffffffffffffff9283166e010000000000000000000000000000027fffffffff0000000000000000000000000000ffffffffffffffffffffffffffff949093167fffffffffffffffffffffffffffffffffffff00000000000000000000000000009091161792909216179055565b60055460ff1690565b6000610622610800610a76565b846106e48560016000610811610a76565b73ffffffffffffffffffffffffffffffffffffffff908116825260208083019390935260409182016000908120918c168152925290205490610dc0565b6108588282610e21565b5050565b73ffffffffffffffffffffffffffffffffffffffff1660009081526020819052604090205490565b60095481565b60048054604080516020601f60027fffffffffffffffffffffffffffffffffffffffffffffffffffffffffffffffff6101006001881615020190951694909404938401819004810282018101909252828152606093909290918301828280156105d75780601f106105ac576101008083540402835291602001916105d7565b60085460095491565b600061062261091f610a76565b846106e48560405180606001604052806025815260200161101a6025913960016000610949610a76565b73ffffffffffffffffffffffffffffffffffffffff908116825260208083019390935260409182016000908120918d16815292529020549190610d29565b6000610622610994610a76565b8484610b8d565b60065473ffffffffffffffffffffffffffffffffffffffff1681565b73ffffffffffffffffffffffffffffffffffffffff918216600090815260016020908152604080832093909416825291909152205490565b600580547fffffffffffffffffffffff0000000000000000000000000000000000000000ff1661010073ffffffffffffffffffffffffffffffffffffffff96871602179055600680547fffffffffffffffffffffffff0000000000000000000000000000000000000000169390941692909217909255600991909155600855565b60085481565b3390565b73ffffffffffffffffffffffffffffffffffffffff8316610acc5760405162461bcd60e51b8152600401808060200182810382526024815260200180610ff66024913960400191505060405180910390fd5b73ffffffffffffffffffffffffffffffffffffffff8216610b1e5760405162461bcd60e51b8152600401808060200182810382526022815260200180610f616022913960400191505060405180910390fd5b73ffffffffffffffffffffffffffffffffffffffff808416600081815260016020908152604080832094871680845294825291829020859055815185815291517f8c5be1e5ebec7d5bd14f71427d1e84f3dd0314c0f7b2291e5b200ac8c7c3b9259281900390910190a3505050565b73ffffffffffffffffffffffffffffffffffffffff8316610bdf5760405162461bcd60e51b8152600401808060200182810382526025815260200180610fd16025913960400191505060405180910390fd5b73ffffffffffffffffffffffffffffffffffffffff8216610c315760405162461bcd60e51b8152600401808060200182810382526023815260200180610f3e6023913960400191505060405180910390fd5b610c3c838383610f38565b610c8681604051806060016040528060268152602001610f836026913973ffffffffffffffffffffffffffffffffffffffff86166000908152602081905260409020549190610d29565b73ffffffffffffffffffffffffffffffffffffffff8085166000908152602081905260408082209390935590841681522054610cc29082610dc0565b73ffffffffffffffffffffffffffffffffffffffff8084166000818152602081815260409182902094909455805185815290519193928716927fddf252ad1be2c89b69c2b068fc378daa952ba7f163c4a11628f55a4df523b3ef92918290030190a3505050565b60008184841115610db85760405162461bcd60e51b81526004018080602001828103825283818151815260200191508051906020019080838360005b83811015610d7d578181015183820152602001610d65565b50505050905090810190601f168015610daa5780820380516001836020036101000a031916815260200191505b509250505060405180910390fd5b505050900390565b600082820183811015610e1a576040805162461bcd60e51b815260206004820152601b60248201527f536166654d6174683a206164646974696f6e206f766572666c6f770000000000604482015290519081900360640190fd5b9392505050565b73ffffffffffffffffffffffffffffffffffffffff8216610e89576040805162461bcd60e51b815260206004820152601f60248201527f45524332303a206d696e7420746f20746865207a65726f206164647265737300604482015290519081900360640190fd5b610e9560008383610f38565b600254610ea29082610dc0565b60025573ffffffffffffffffffffffffffffffffffffffff8216600090815260208190526040902054610ed59082610dc0565b73ffffffffffffffffffffffffffffffffffffffff83166000818152602081815260408083209490945583518581529351929391927fddf252ad1be2c89b69c2b068fc378daa952ba7f163c4a11628f55a4df523b3ef9281900390910190a35050565b50505056fe45524332303a207472616e7366657220746f20746865207a65726f206164647265737345524332303a20617070726f766520746f20746865207a65726f206164647265737345524332303a207472616e7366657220616d6f756e7420657863656564732062616c616e636545524332303a207472616e7366657220616d6f756e74206578636565647320616c6c6f77616e636545524332303a207472616e736665722066726f6d20746865207a65726f206164647265737345524332303a20617070726f76652066726f6d20746865207a65726f206164647265737345524332303a2064656372656173656420616c6c6f77616e63652062656c6f77207a65726fa26469706673582212203708c525054e8871f9309db6e1904696ff81a4a02bc50ce5db7ae4c5f52cfacd64736f6c634300060c0033",
  "immutableReferences": {},
  "source": "// SPDX-License-Identifier: GPL-3.0-or-later\npragma solidity 0.6.12;\n\nimport \"@openzeppelin/contracts/token/ERC20/ERC20.sol\";\n\ncontract TestXToken is ERC20(\"TestXToken\", \"XT-1\") {\n\n    address public token0; // WETH token\n    address public token1; // any ERC20 token\n\n    uint112 private reserve0;          \n    uint112 private reserve1;          \n\n    uint256 public initToken1Amount;\n    uint256 public initToken0Amount;\n\n    constructor() public {\n    }\n\n    function initialize(address _token0, address _token1, uint256 _initToken0Amount, uint256 _initToken1Amount) external {\n        token0 = _token0;\n        token1 = _token1;\n        initToken0Amount = _initToken0Amount;\n        initToken1Amount = _initToken1Amount;\n    }\n\n    // ONLY TEST, NOT SAFE!\n    function mint(address _to, uint256 _amount) external {\n        _mint(_to, _amount);\n    }\n\n    function getInitialAssetRatio() public view returns (uint256 _initToken0Amount, uint256 _initToken1Amount) {\n        _initToken1Amount = initToken1Amount;\n        _initToken0Amount = initToken0Amount;\n    }\n\n    function getReserves() public view returns (uint112 _reserve0, uint112 _reserve1) {\n        _reserve0 = reserve0;\n        _reserve1 = reserve1;\n    }\n\n    function update(uint balance0, uint balance1) public {\n        require(balance0 <= uint112(-1) && balance1 <= uint112(-1), \"CPair: OVERFLOW\");\n        reserve0 = uint112(balance0);\n        reserve1 = uint112(balance1);\n    }\n\n}",
  "sourcePath": "/Users/lixiansheng/Downloads/CoFix/contracts/test/TestXToken.sol",
  "compiler": {
    "name": "solc",
    "version": "0.6.12+commit.27d51765.Emscripten.clang"
  },
  "schemaVersion": "3.4.1",
  "updatedAt": "2021-05-11T03:07:10.446Z",
  "devdoc": {
    "kind": "dev",
    "methods": {
      "allowance(address,address)": {
        "details": "See {IERC20-allowance}."
      },
      "approve(address,uint256)": {
        "details": "See {IERC20-approve}. Requirements: - `spender` cannot be the zero address."
      },
      "balanceOf(address)": {
        "details": "See {IERC20-balanceOf}."
      },
      "decimals()": {
        "details": "Returns the number of decimals used to get its user representation. For example, if `decimals` equals `2`, a balance of `505` tokens should be displayed to a user as `5,05` (`505 / 10 ** 2`). Tokens usually opt for a value of 18, imitating the relationship between Ether and Wei. This is the value {ERC20} uses, unless {_setupDecimals} is called. NOTE: This information is only used for _display_ purposes: it in no way affects any of the arithmetic of the contract, including {IERC20-balanceOf} and {IERC20-transfer}."
      },
      "decreaseAllowance(address,uint256)": {
        "details": "Atomically decreases the allowance granted to `spender` by the caller. This is an alternative to {approve} that can be used as a mitigation for problems described in {IERC20-approve}. Emits an {Approval} event indicating the updated allowance. Requirements: - `spender` cannot be the zero address. - `spender` must have allowance for the caller of at least `subtractedValue`."
      },
      "increaseAllowance(address,uint256)": {
        "details": "Atomically increases the allowance granted to `spender` by the caller. This is an alternative to {approve} that can be used as a mitigation for problems described in {IERC20-approve}. Emits an {Approval} event indicating the updated allowance. Requirements: - `spender` cannot be the zero address."
      },
      "name()": {
        "details": "Returns the name of the token."
      },
      "symbol()": {
        "details": "Returns the symbol of the token, usually a shorter version of the name."
      },
      "totalSupply()": {
        "details": "See {IERC20-totalSupply}."
      },
      "transfer(address,uint256)": {
        "details": "See {IERC20-transfer}. Requirements: - `recipient` cannot be the zero address. - the caller must have a balance of at least `amount`."
      },
      "transferFrom(address,address,uint256)": {
        "details": "See {IERC20-transferFrom}. Emits an {Approval} event indicating the updated allowance. This is not required by the EIP. See the note at the beginning of {ERC20}. Requirements: - `sender` and `recipient` cannot be the zero address. - `sender` must have a balance of at least `amount`. - the caller must have allowance for ``sender``'s tokens of at least `amount`."
      }
    },
    "version": 1
  },
  "userdoc": {
    "kind": "user",
    "methods": {},
    "version": 1
  }
}